{
	"contracts/LandRegFinal.sol": {
		"LandRegistration": {
			"abi": [
				{
					"constant": true,
					"inputs": [],
					"name": "getPlotArrayLen",
					"outputs": [
						{
							"name": "",
							"type": "uint256"
						}
					],
					"payable": false,
					"stateMutability": "view",
					"type": "function"
				},
				{
					"constant": false,
					"inputs": [],
					"name": "createUser",
					"outputs": [],
					"payable": false,
					"stateMutability": "nonpayable",
					"type": "function"
				},
				{
					"constant": true,
					"inputs": [
						{
							"name": "_nid",
							"type": "uint256"
						}
					],
					"name": "getUserByNid",
					"outputs": [
						{
							"components": [
								{
									"name": "fullName",
									"type": "bytes32"
								},
								{
									"name": "fatherName",
									"type": "bytes32"
								},
								{
									"name": "motherName",
									"type": "bytes32"
								},
								{
									"name": "district",
									"type": "bytes32"
								},
								{
									"name": "thana",
									"type": "bytes32"
								},
								{
									"name": "postCode",
									"type": "uint256"
								},
								{
									"name": "village",
									"type": "bytes32"
								},
								{
									"name": "email",
									"type": "bytes32"
								},
								{
									"name": "dob",
									"type": "uint256"
								},
								{
									"name": "totalTax",
									"type": "uint256"
								},
								{
									"name": "fingerprint",
									"type": "string"
								},
								{
									"name": "isExist",
									"type": "bool"
								}
							],
							"name": "",
							"type": "tuple"
						}
					],
					"payable": false,
					"stateMutability": "view",
					"type": "function"
				},
				{
					"constant": true,
					"inputs": [
						{
							"name": "khatianHash",
							"type": "bytes32"
						}
					],
					"name": "getKhatianByHash",
					"outputs": [
						{
							"components": [
								{
									"name": "fullName",
									"type": "bytes32"
								},
								{
									"name": "fatherName",
									"type": "bytes32"
								},
								{
									"name": "motherName",
									"type": "bytes32"
								},
								{
									"name": "district",
									"type": "bytes32"
								},
								{
									"name": "thana",
									"type": "bytes32"
								},
								{
									"name": "postCode",
									"type": "uint256"
								},
								{
									"name": "village",
									"type": "bytes32"
								},
								{
									"name": "email",
									"type": "bytes32"
								},
								{
									"name": "dob",
									"type": "uint256"
								},
								{
									"name": "totalTax",
									"type": "uint256"
								},
								{
									"name": "fingerprint",
									"type": "string"
								},
								{
									"name": "isExist",
									"type": "bool"
								}
							],
							"name": "",
							"type": "tuple"
						}
					],
					"payable": false,
					"stateMutability": "view",
					"type": "function"
				},
				{
					"constant": true,
					"inputs": [
						{
							"name": "_uid",
							"type": "uint256"
						}
					],
					"name": "getUserOwnedByUid",
					"outputs": [
						{
							"components": [
								{
									"name": "fullName",
									"type": "bytes32"
								},
								{
									"name": "fatherName",
									"type": "bytes32"
								},
								{
									"name": "motherName",
									"type": "bytes32"
								},
								{
									"name": "district",
									"type": "bytes32"
								},
								{
									"name": "thana",
									"type": "bytes32"
								},
								{
									"name": "postCode",
									"type": "uint256"
								},
								{
									"name": "village",
									"type": "bytes32"
								},
								{
									"name": "email",
									"type": "bytes32"
								},
								{
									"name": "dob",
									"type": "uint256"
								},
								{
									"name": "totalTax",
									"type": "uint256"
								},
								{
									"name": "fingerprint",
									"type": "string"
								},
								{
									"name": "isExist",
									"type": "bool"
								}
							],
							"name": "",
							"type": "tuple"
						}
					],
					"payable": false,
					"stateMutability": "view",
					"type": "function"
				},
				{
					"constant": true,
					"inputs": [
						{
							"name": "id",
							"type": "uint256"
						}
					],
					"name": "getUserIdById",
					"outputs": [
						{
							"components": [
								{
									"name": "fullName",
									"type": "bytes32"
								},
								{
									"name": "fatherName",
									"type": "bytes32"
								},
								{
									"name": "motherName",
									"type": "bytes32"
								},
								{
									"name": "district",
									"type": "bytes32"
								},
								{
									"name": "thana",
									"type": "bytes32"
								},
								{
									"name": "postCode",
									"type": "uint256"
								},
								{
									"name": "village",
									"type": "bytes32"
								},
								{
									"name": "email",
									"type": "bytes32"
								},
								{
									"name": "dob",
									"type": "uint256"
								},
								{
									"name": "totalTax",
									"type": "uint256"
								},
								{
									"name": "fingerprint",
									"type": "string"
								},
								{
									"name": "isExist",
									"type": "bool"
								}
							],
							"name": "",
							"type": "tuple"
						}
					],
					"payable": false,
					"stateMutability": "view",
					"type": "function"
				},
				{
					"constant": true,
					"inputs": [
						{
							"name": "id",
							"type": "uint256"
						}
					],
					"name": "getKhatianHasById",
					"outputs": [
						{
							"name": "",
							"type": "bool"
						}
					],
					"payable": false,
					"stateMutability": "view",
					"type": "function"
				},
				{
					"constant": true,
					"inputs": [
						{
							"name": "plotHash",
							"type": "bytes32"
						}
					],
					"name": "getPlotByHash",
					"outputs": [
						{
							"components": [
								{
									"name": "fullName",
									"type": "bytes32"
								},
								{
									"name": "fatherName",
									"type": "bytes32"
								},
								{
									"name": "motherName",
									"type": "bytes32"
								},
								{
									"name": "district",
									"type": "bytes32"
								},
								{
									"name": "thana",
									"type": "bytes32"
								},
								{
									"name": "postCode",
									"type": "uint256"
								},
								{
									"name": "village",
									"type": "bytes32"
								},
								{
									"name": "email",
									"type": "bytes32"
								},
								{
									"name": "dob",
									"type": "uint256"
								},
								{
									"name": "totalTax",
									"type": "uint256"
								},
								{
									"name": "fingerprint",
									"type": "string"
								},
								{
									"name": "isExist",
									"type": "bool"
								}
							],
							"name": "",
							"type": "tuple"
						}
					],
					"payable": false,
					"stateMutability": "view",
					"type": "function"
				},
				{
					"constant": true,
					"inputs": [],
					"name": "getKhatianArrayLen",
					"outputs": [
						{
							"name": "",
							"type": "uint256"
						}
					],
					"payable": false,
					"stateMutability": "view",
					"type": "function"
				},
				{
					"constant": true,
					"inputs": [],
					"name": "getUserArrayLen",
					"outputs": [
						{
							"name": "",
							"type": "uint256"
						}
					],
					"payable": false,
					"stateMutability": "view",
					"type": "function"
				},
				{
					"anonymous": false,
					"inputs": [
						{
							"indexed": true,
							"name": "nid",
							"type": "uint256"
						}
					],
					"name": "CreationOfUser",
					"type": "event"
				}
			],
			"devdoc": {
				"methods": {}
			},
			"evm": {
				"assembly": "    /* \"contracts/LandRegFinal.sol\":97:3373  contract LandRegistration {... */\n  mstore(0x40, 0x80)\n  callvalue\n    /* \"--CODEGEN--\":8:17   */\n  dup1\n    /* \"--CODEGEN--\":5:7   */\n  iszero\n  tag_1\n  jumpi\n    /* \"--CODEGEN--\":30:31   */\n  0x0\n    /* \"--CODEGEN--\":27:28   */\n  dup1\n    /* \"--CODEGEN--\":20:32   */\n  revert\n    /* \"--CODEGEN--\":5:7   */\ntag_1:\n    /* \"contracts/LandRegFinal.sol\":97:3373  contract LandRegistration {... */\n  pop\n  dataSize(sub_0)\n  dup1\n  dataOffset(sub_0)\n  0x0\n  codecopy\n  0x0\n  return\nstop\n\nsub_0: assembly {\n        /* \"contracts/LandRegFinal.sol\":97:3373  contract LandRegistration {... */\n      mstore(0x40, 0x80)\n      jumpi(tag_1, lt(calldatasize, 0x4))\n      calldataload(0x0)\n      0x100000000000000000000000000000000000000000000000000000000\n      swap1\n      div\n      0xffffffff\n      and\n      dup1\n      0xd590f3e\n      eq\n      tag_2\n      jumpi\n      dup1\n      0x25ad91ce\n      eq\n      tag_3\n      jumpi\n      dup1\n      0x43308949\n      eq\n      tag_4\n      jumpi\n      dup1\n      0x5cb99c03\n      eq\n      tag_5\n      jumpi\n      dup1\n      0x64a66dc3\n      eq\n      tag_6\n      jumpi\n      dup1\n      0x6d8c5df1\n      eq\n      tag_7\n      jumpi\n      dup1\n      0x8c857098\n      eq\n      tag_8\n      jumpi\n      dup1\n      0x95d5712c\n      eq\n      tag_9\n      jumpi\n      dup1\n      0xbd363525\n      eq\n      tag_10\n      jumpi\n      dup1\n      0xf87b771a\n      eq\n      tag_11\n      jumpi\n    tag_1:\n      0x0\n      dup1\n      revert\n        /* \"contracts/LandRegFinal.sol\":1731:1828  function getPlotArrayLen() public view returns (uint256) {... */\n    tag_2:\n      callvalue\n        /* \"--CODEGEN--\":8:17   */\n      dup1\n        /* \"--CODEGEN--\":5:7   */\n      iszero\n      tag_12\n      jumpi\n        /* \"--CODEGEN--\":30:31   */\n      0x0\n        /* \"--CODEGEN--\":27:28   */\n      dup1\n        /* \"--CODEGEN--\":20:32   */\n      revert\n        /* \"--CODEGEN--\":5:7   */\n    tag_12:\n        /* \"contracts/LandRegFinal.sol\":1731:1828  function getPlotArrayLen() public view returns (uint256) {... */\n      pop\n      tag_13\n      jump(tag_14)\n    tag_13:\n      mload(0x40)\n      tag_15\n      swap2\n      swap1\n      jump(tag_16)\n    tag_15:\n      mload(0x40)\n      dup1\n      swap2\n      sub\n      swap1\n      return\n        /* \"contracts/LandRegFinal.sol\":576:1257  function createUser() public {... */\n    tag_3:\n      callvalue\n        /* \"--CODEGEN--\":8:17   */\n      dup1\n        /* \"--CODEGEN--\":5:7   */\n      iszero\n      tag_17\n      jumpi\n        /* \"--CODEGEN--\":30:31   */\n      0x0\n        /* \"--CODEGEN--\":27:28   */\n      dup1\n        /* \"--CODEGEN--\":20:32   */\n      revert\n        /* \"--CODEGEN--\":5:7   */\n    tag_17:\n        /* \"contracts/LandRegFinal.sol\":576:1257  function createUser() public {... */\n      pop\n      tag_18\n      jump(tag_19)\n    tag_18:\n      stop\n        /* \"contracts/LandRegFinal.sol\":2343:2514  function getUserByNid(uint256 _nid) public view returns (User) {... */\n    tag_4:\n      callvalue\n        /* \"--CODEGEN--\":8:17   */\n      dup1\n        /* \"--CODEGEN--\":5:7   */\n      iszero\n      tag_20\n      jumpi\n        /* \"--CODEGEN--\":30:31   */\n      0x0\n        /* \"--CODEGEN--\":27:28   */\n      dup1\n        /* \"--CODEGEN--\":20:32   */\n      revert\n        /* \"--CODEGEN--\":5:7   */\n    tag_20:\n        /* \"contracts/LandRegFinal.sol\":2343:2514  function getUserByNid(uint256 _nid) public view returns (User) {... */\n      pop\n      tag_21\n      0x4\n      dup1\n      calldatasize\n      sub\n      tag_22\n      swap2\n      swap1\n      dup2\n      add\n      swap1\n      jump(tag_23)\n    tag_22:\n      jump(tag_24)\n    tag_21:\n      mload(0x40)\n      tag_25\n      swap2\n      swap1\n      jump(tag_26)\n    tag_25:\n      mload(0x40)\n      dup1\n      swap2\n      sub\n      swap1\n      return\n        /* \"contracts/LandRegFinal.sol\":1500:1721  function getKhatianByHash(bytes32 khatianHash) public view returns (User) {... */\n    tag_5:\n      callvalue\n        /* \"--CODEGEN--\":8:17   */\n      dup1\n        /* \"--CODEGEN--\":5:7   */\n      iszero\n      tag_27\n      jumpi\n        /* \"--CODEGEN--\":30:31   */\n      0x0\n        /* \"--CODEGEN--\":27:28   */\n      dup1\n        /* \"--CODEGEN--\":20:32   */\n      revert\n        /* \"--CODEGEN--\":5:7   */\n    tag_27:\n        /* \"contracts/LandRegFinal.sol\":1500:1721  function getKhatianByHash(bytes32 khatianHash) public view returns (User) {... */\n      pop\n      tag_28\n      0x4\n      dup1\n      calldatasize\n      sub\n      tag_29\n      swap2\n      swap1\n      dup2\n      add\n      swap1\n      jump(tag_30)\n    tag_29:\n      jump(tag_31)\n    tag_28:\n      mload(0x40)\n      tag_32\n      swap2\n      swap1\n      jump(tag_26)\n    tag_32:\n      mload(0x40)\n      dup1\n      swap2\n      sub\n      swap1\n      return\n        /* \"contracts/LandRegFinal.sol\":2524:2700  function getUserOwnedByUid(uint256 _uid) public view returns (User) {... */\n    tag_6:\n      callvalue\n        /* \"--CODEGEN--\":8:17   */\n      dup1\n        /* \"--CODEGEN--\":5:7   */\n      iszero\n      tag_33\n      jumpi\n        /* \"--CODEGEN--\":30:31   */\n      0x0\n        /* \"--CODEGEN--\":27:28   */\n      dup1\n        /* \"--CODEGEN--\":20:32   */\n      revert\n        /* \"--CODEGEN--\":5:7   */\n    tag_33:\n        /* \"contracts/LandRegFinal.sol\":2524:2700  function getUserOwnedByUid(uint256 _uid) public view returns (User) {... */\n      pop\n      tag_34\n      0x4\n      dup1\n      calldatasize\n      sub\n      tag_35\n      swap2\n      swap1\n      dup2\n      add\n      swap1\n      jump(tag_23)\n    tag_35:\n      jump(tag_36)\n    tag_34:\n      mload(0x40)\n      tag_37\n      swap2\n      swap1\n      jump(tag_26)\n    tag_37:\n      mload(0x40)\n      dup1\n      swap2\n      sub\n      swap1\n      return\n        /* \"contracts/LandRegFinal.sol\":2167:2333  function getUserIdById(uint256 id) public view returns (User) {... */\n    tag_7:\n      callvalue\n        /* \"--CODEGEN--\":8:17   */\n      dup1\n        /* \"--CODEGEN--\":5:7   */\n      iszero\n      tag_38\n      jumpi\n        /* \"--CODEGEN--\":30:31   */\n      0x0\n        /* \"--CODEGEN--\":27:28   */\n      dup1\n        /* \"--CODEGEN--\":20:32   */\n      revert\n        /* \"--CODEGEN--\":5:7   */\n    tag_38:\n        /* \"contracts/LandRegFinal.sol\":2167:2333  function getUserIdById(uint256 id) public view returns (User) {... */\n      pop\n      tag_39\n      0x4\n      dup1\n      calldatasize\n      sub\n      tag_40\n      swap2\n      swap1\n      dup2\n      add\n      swap1\n      jump(tag_23)\n    tag_40:\n      jump(tag_41)\n    tag_39:\n      mload(0x40)\n      tag_42\n      swap2\n      swap1\n      jump(tag_26)\n    tag_42:\n      mload(0x40)\n      dup1\n      swap2\n      sub\n      swap1\n      return\n        /* \"contracts/LandRegFinal.sol\":1377:1490  function getKhatianHasById(uint256 id) public view returns (bool) {... */\n    tag_8:\n      callvalue\n        /* \"--CODEGEN--\":8:17   */\n      dup1\n        /* \"--CODEGEN--\":5:7   */\n      iszero\n      tag_43\n      jumpi\n        /* \"--CODEGEN--\":30:31   */\n      0x0\n        /* \"--CODEGEN--\":27:28   */\n      dup1\n        /* \"--CODEGEN--\":20:32   */\n      revert\n        /* \"--CODEGEN--\":5:7   */\n    tag_43:\n        /* \"contracts/LandRegFinal.sol\":1377:1490  function getKhatianHasById(uint256 id) public view returns (bool) {... */\n      pop\n      tag_44\n      0x4\n      dup1\n      calldatasize\n      sub\n      tag_45\n      swap2\n      swap1\n      dup2\n      add\n      swap1\n      jump(tag_23)\n    tag_45:\n      jump(tag_46)\n    tag_44:\n      mload(0x40)\n      tag_47\n      swap2\n      swap1\n      jump(tag_48)\n    tag_47:\n      mload(0x40)\n      dup1\n      swap2\n      sub\n      swap1\n      return\n        /* \"contracts/LandRegFinal.sol\":1838:2050  function getPlotByHash(bytes32 plotHash) public view returns (User) {... */\n    tag_9:\n      callvalue\n        /* \"--CODEGEN--\":8:17   */\n      dup1\n        /* \"--CODEGEN--\":5:7   */\n      iszero\n      tag_49\n      jumpi\n        /* \"--CODEGEN--\":30:31   */\n      0x0\n        /* \"--CODEGEN--\":27:28   */\n      dup1\n        /* \"--CODEGEN--\":20:32   */\n      revert\n        /* \"--CODEGEN--\":5:7   */\n    tag_49:\n        /* \"contracts/LandRegFinal.sol\":1838:2050  function getPlotByHash(bytes32 plotHash) public view returns (User) {... */\n      pop\n      tag_50\n      0x4\n      dup1\n      calldatasize\n      sub\n      tag_51\n      swap2\n      swap1\n      dup2\n      add\n      swap1\n      jump(tag_30)\n    tag_51:\n      jump(tag_52)\n    tag_50:\n      mload(0x40)\n      tag_53\n      swap2\n      swap1\n      jump(tag_26)\n    tag_53:\n      mload(0x40)\n      dup1\n      swap2\n      sub\n      swap1\n      return\n        /* \"contracts/LandRegFinal.sol\":1267:1367  function getKhatianArrayLen() public view returns (uint256) {... */\n    tag_10:\n      callvalue\n        /* \"--CODEGEN--\":8:17   */\n      dup1\n        /* \"--CODEGEN--\":5:7   */\n      iszero\n      tag_54\n      jumpi\n        /* \"--CODEGEN--\":30:31   */\n      0x0\n        /* \"--CODEGEN--\":27:28   */\n      dup1\n        /* \"--CODEGEN--\":20:32   */\n      revert\n        /* \"--CODEGEN--\":5:7   */\n    tag_54:\n        /* \"contracts/LandRegFinal.sol\":1267:1367  function getKhatianArrayLen() public view returns (uint256) {... */\n      pop\n      tag_55\n      jump(tag_56)\n    tag_55:\n      mload(0x40)\n      tag_57\n      swap2\n      swap1\n      jump(tag_16)\n    tag_57:\n      mload(0x40)\n      dup1\n      swap2\n      sub\n      swap1\n      return\n        /* \"contracts/LandRegFinal.sol\":2060:2157  function getUserArrayLen() public view returns (uint256) {... */\n    tag_11:\n      callvalue\n        /* \"--CODEGEN--\":8:17   */\n      dup1\n        /* \"--CODEGEN--\":5:7   */\n      iszero\n      tag_58\n      jumpi\n        /* \"--CODEGEN--\":30:31   */\n      0x0\n        /* \"--CODEGEN--\":27:28   */\n      dup1\n        /* \"--CODEGEN--\":20:32   */\n      revert\n        /* \"--CODEGEN--\":5:7   */\n    tag_58:\n        /* \"contracts/LandRegFinal.sol\":2060:2157  function getUserArrayLen() public view returns (uint256) {... */\n      pop\n      tag_59\n      jump(tag_60)\n    tag_59:\n      mload(0x40)\n      tag_61\n      swap2\n      swap1\n      jump(tag_16)\n    tag_61:\n      mload(0x40)\n      dup1\n      swap2\n      sub\n      swap1\n      return\n        /* \"contracts/LandRegFinal.sol\":1731:1828  function getPlotArrayLen() public view returns (uint256) {... */\n    tag_14:\n        /* \"contracts/LandRegFinal.sol\":1779:1786  uint256 */\n      0x0\n        /* \"contracts/LandRegFinal.sol\":1805:1814  userArray */\n      0x1\n        /* \"contracts/LandRegFinal.sol\":1805:1821  userArray.length */\n      dup1\n      sload\n      swap1\n      pop\n        /* \"contracts/LandRegFinal.sol\":1798:1821  return userArray.length */\n      swap1\n      pop\n        /* \"contracts/LandRegFinal.sol\":1731:1828  function getPlotArrayLen() public view returns (uint256) {... */\n      swap1\n      jump\t// out\n        /* \"contracts/LandRegFinal.sol\":576:1257  function createUser() public {... */\n    tag_19:\n        /* \"contracts/LandRegFinal.sol\":705:716  uint256 nid */\n      0x0\n        /* \"contracts/LandRegFinal.sol\":757:774  User storage user */\n      dup1\n        /* \"contracts/LandRegFinal.sol\":667:671  true */\n      0x1\n        /* \"contracts/LandRegFinal.sol\":623:671  userMapping[uint256(msg.sender)].isExist != true */\n      iszero\n      iszero\n        /* \"contracts/LandRegFinal.sol\":623:634  userMapping */\n      0x0\n        /* \"contracts/LandRegFinal.sol\":623:655  userMapping[uint256(msg.sender)] */\n      dup1\n        /* \"contracts/LandRegFinal.sol\":643:653  msg.sender */\n      caller\n        /* \"contracts/LandRegFinal.sol\":635:654  uint256(msg.sender) */\n      0xffffffffffffffffffffffffffffffffffffffff\n      and\n        /* \"contracts/LandRegFinal.sol\":623:655  userMapping[uint256(msg.sender)] */\n      dup2\n      mstore\n      0x20\n      add\n      swap1\n      dup2\n      mstore\n      0x20\n      add\n      0x0\n      keccak256\n        /* \"contracts/LandRegFinal.sol\":623:663  userMapping[uint256(msg.sender)].isExist */\n      0xb\n      add\n      0x0\n      swap1\n      sload\n      swap1\n      0x100\n      exp\n      swap1\n      div\n      0xff\n      and\n        /* \"contracts/LandRegFinal.sol\":623:671  userMapping[uint256(msg.sender)].isExist != true */\n      iszero\n      iszero\n      eq\n      iszero\n        /* \"contracts/LandRegFinal.sol\":615:695  require(userMapping[uint256(msg.sender)].isExist != true, \"User already exists\") */\n      iszero\n      iszero\n      tag_64\n      jumpi\n      mload(0x40)\n      0x8c379a000000000000000000000000000000000000000000000000000000000\n      dup2\n      mstore\n      0x4\n      add\n      tag_65\n      swap1\n      jump(tag_66)\n    tag_65:\n      mload(0x40)\n      dup1\n      swap2\n      sub\n      swap1\n      revert\n    tag_64:\n        /* \"contracts/LandRegFinal.sol\":727:737  msg.sender */\n      caller\n        /* \"contracts/LandRegFinal.sol\":719:738  uint256(msg.sender) */\n      0xffffffffffffffffffffffffffffffffffffffff\n      and\n        /* \"contracts/LandRegFinal.sol\":705:738  uint256 nid = uint256(msg.sender) */\n      swap2\n      pop\n        /* \"contracts/LandRegFinal.sol\":777:788  userMapping */\n      0x0\n        /* \"contracts/LandRegFinal.sol\":777:793  userMapping[nid] */\n      dup1\n        /* \"contracts/LandRegFinal.sol\":789:792  nid */\n      dup4\n        /* \"contracts/LandRegFinal.sol\":777:793  userMapping[nid] */\n      dup2\n      mstore\n      0x20\n      add\n      swap1\n      dup2\n      mstore\n      0x20\n      add\n      0x0\n      keccak256\n        /* \"contracts/LandRegFinal.sol\":757:793  User storage user = userMapping[nid] */\n      swap1\n      pop\n        /* \"contracts/LandRegFinal.sol\":827:828  0 */\n      0x0\n        /* \"contracts/LandRegFinal.sol\":819:829  bytes32(0) */\n      0x1\n      mul\n        /* \"contracts/LandRegFinal.sol\":803:807  user */\n      dup2\n        /* \"contracts/LandRegFinal.sol\":803:816  user.fullName */\n      0x0\n      add\n        /* \"contracts/LandRegFinal.sol\":803:829  user.fullName = bytes32(0) */\n      dup2\n      not(0x0)\n      and\n      swap1\n      sstore\n      pop\n        /* \"contracts/LandRegFinal.sol\":865:866  0 */\n      0x0\n        /* \"contracts/LandRegFinal.sol\":857:867  bytes32(0) */\n      0x1\n      mul\n        /* \"contracts/LandRegFinal.sol\":839:843  user */\n      dup2\n        /* \"contracts/LandRegFinal.sol\":839:854  user.fatherName */\n      0x1\n      add\n        /* \"contracts/LandRegFinal.sol\":839:867  user.fatherName = bytes32(0) */\n      dup2\n      not(0x0)\n      and\n      swap1\n      sstore\n      pop\n        /* \"contracts/LandRegFinal.sol\":903:904  0 */\n      0x0\n        /* \"contracts/LandRegFinal.sol\":895:905  bytes32(0) */\n      0x1\n      mul\n        /* \"contracts/LandRegFinal.sol\":877:881  user */\n      dup2\n        /* \"contracts/LandRegFinal.sol\":877:892  user.motherName */\n      0x2\n      add\n        /* \"contracts/LandRegFinal.sol\":877:905  user.motherName = bytes32(0) */\n      dup2\n      not(0x0)\n      and\n      swap1\n      sstore\n      pop\n        /* \"contracts/LandRegFinal.sol\":939:940  0 */\n      0x0\n        /* \"contracts/LandRegFinal.sol\":931:941  bytes32(0) */\n      0x1\n      mul\n        /* \"contracts/LandRegFinal.sol\":915:919  user */\n      dup2\n        /* \"contracts/LandRegFinal.sol\":915:928  user.district */\n      0x3\n      add\n        /* \"contracts/LandRegFinal.sol\":915:941  user.district = bytes32(0) */\n      dup2\n      not(0x0)\n      and\n      swap1\n      sstore\n      pop\n        /* \"contracts/LandRegFinal.sol\":972:973  0 */\n      0x0\n        /* \"contracts/LandRegFinal.sol\":964:974  bytes32(0) */\n      0x1\n      mul\n        /* \"contracts/LandRegFinal.sol\":951:955  user */\n      dup2\n        /* \"contracts/LandRegFinal.sol\":951:961  user.thana */\n      0x4\n      add\n        /* \"contracts/LandRegFinal.sol\":951:974  user.thana = bytes32(0) */\n      dup2\n      not(0x0)\n      and\n      swap1\n      sstore\n      pop\n        /* \"contracts/LandRegFinal.sol\":1000:1001  0 */\n      0x0\n        /* \"contracts/LandRegFinal.sol\":984:988  user */\n      dup2\n        /* \"contracts/LandRegFinal.sol\":984:997  user.postCode */\n      0x5\n      add\n        /* \"contracts/LandRegFinal.sol\":984:1001  user.postCode = 0 */\n      dup2\n      swap1\n      sstore\n      pop\n        /* \"contracts/LandRegFinal.sol\":1034:1035  0 */\n      0x0\n        /* \"contracts/LandRegFinal.sol\":1026:1036  bytes32(0) */\n      0x1\n      mul\n        /* \"contracts/LandRegFinal.sol\":1011:1015  user */\n      dup2\n        /* \"contracts/LandRegFinal.sol\":1011:1023  user.village */\n      0x6\n      add\n        /* \"contracts/LandRegFinal.sol\":1011:1036  user.village = bytes32(0) */\n      dup2\n      not(0x0)\n      and\n      swap1\n      sstore\n      pop\n        /* \"contracts/LandRegFinal.sol\":1067:1068  0 */\n      0x0\n        /* \"contracts/LandRegFinal.sol\":1059:1069  bytes32(0) */\n      0x1\n      mul\n        /* \"contracts/LandRegFinal.sol\":1046:1050  user */\n      dup2\n        /* \"contracts/LandRegFinal.sol\":1046:1056  user.email */\n      0x7\n      add\n        /* \"contracts/LandRegFinal.sol\":1046:1069  user.email = bytes32(0) */\n      dup2\n      not(0x0)\n      and\n      swap1\n      sstore\n      pop\n        /* \"contracts/LandRegFinal.sol\":1090:1091  0 */\n      0x0\n        /* \"contracts/LandRegFinal.sol\":1079:1083  user */\n      dup2\n        /* \"contracts/LandRegFinal.sol\":1079:1087  user.dob */\n      0x8\n      add\n        /* \"contracts/LandRegFinal.sol\":1079:1091  user.dob = 0 */\n      dup2\n      swap1\n      sstore\n      pop\n        /* \"contracts/LandRegFinal.sol\":1117:1118  0 */\n      0x0\n        /* \"contracts/LandRegFinal.sol\":1101:1105  user */\n      dup2\n        /* \"contracts/LandRegFinal.sol\":1101:1114  user.totalTax */\n      0x9\n      add\n        /* \"contracts/LandRegFinal.sol\":1101:1118  user.totalTax = 0 */\n      dup2\n      swap1\n      sstore\n      pop\n        /* \"contracts/LandRegFinal.sol\":1128:1149  user.fingerprint = \"\" */\n      0x20\n      mload(0x40)\n      swap1\n      dup2\n      add\n      0x40\n      mstore\n      dup1\n      0x0\n      dup2\n      mstore\n      pop\n        /* \"contracts/LandRegFinal.sol\":1128:1132  user */\n      dup2\n        /* \"contracts/LandRegFinal.sol\":1128:1144  user.fingerprint */\n      0xa\n      add\n        /* \"contracts/LandRegFinal.sol\":1128:1149  user.fingerprint = \"\" */\n      swap1\n      dup1\n      mload\n      swap1\n      0x20\n      add\n      swap1\n      tag_67\n      swap3\n      swap2\n      swap1\n      jump\t// in(tag_68)\n    tag_67:\n      pop\n        /* \"contracts/LandRegFinal.sol\":1174:1178  true */\n      0x1\n        /* \"contracts/LandRegFinal.sol\":1159:1163  user */\n      dup2\n        /* \"contracts/LandRegFinal.sol\":1159:1171  user.isExist */\n      0xb\n      add\n      0x0\n        /* \"contracts/LandRegFinal.sol\":1159:1178  user.isExist = true */\n      0x100\n      exp\n      dup2\n      sload\n      dup2\n      0xff\n      mul\n      not\n      and\n      swap1\n      dup4\n      iszero\n      iszero\n      mul\n      or\n      swap1\n      sstore\n      pop\n        /* \"contracts/LandRegFinal.sol\":1197:1206  userArray */\n      0x1\n        /* \"contracts/LandRegFinal.sol\":1212:1215  nid */\n      dup3\n        /* \"contracts/LandRegFinal.sol\":1197:1216  userArray.push(nid) */\n      swap1\n      dup1\n        /* \"--CODEGEN--\":39:40   */\n      0x1\n        /* \"--CODEGEN--\":33:36   */\n      dup2\n        /* \"--CODEGEN--\":27:37   */\n      sload\n        /* \"--CODEGEN--\":23:41   */\n      add\n        /* \"--CODEGEN--\":57:67   */\n      dup1\n        /* \"--CODEGEN--\":52:55   */\n      dup3\n        /* \"--CODEGEN--\":45:68   */\n      sstore\n        /* \"--CODEGEN--\":79:89   */\n      dup1\n        /* \"--CODEGEN--\":72:89   */\n      swap2\n      pop\n        /* \"--CODEGEN--\":0:93   */\n      pop\n        /* \"contracts/LandRegFinal.sol\":1197:1216  userArray.push(nid) */\n      swap1\n      0x1\n      dup3\n      sub\n      swap1\n      0x0\n      mstore\n      keccak256(0x0, 0x20)\n      add\n      0x0\n      swap1\n      swap2\n      swap3\n      swap1\n      swap2\n      swap1\n      swap2\n      pop\n      sstore\n      pop\n        /* \"contracts/LandRegFinal.sol\":1246:1249  nid */\n      dup2\n        /* \"contracts/LandRegFinal.sol\":1231:1250  CreationOfUser(nid) */\n      0x4caf2056c708d8e5f0be06bdeabc00f76c4f4a09efd0b8d19487beb9bb782cfb\n      mload(0x40)\n      mload(0x40)\n      dup1\n      swap2\n      sub\n      swap1\n      log2\n        /* \"contracts/LandRegFinal.sol\":576:1257  function createUser() public {... */\n      pop\n      pop\n      jump\t// out\n        /* \"contracts/LandRegFinal.sol\":2343:2514  function getUserByNid(uint256 _nid) public view returns (User) {... */\n    tag_24:\n        /* \"contracts/LandRegFinal.sol\":2400:2404  User */\n      tag_70\n      jump\t// in(tag_71)\n    tag_70:\n        /* \"contracts/LandRegFinal.sol\":2424:2435  userMapping */\n      0x0\n        /* \"contracts/LandRegFinal.sol\":2424:2441  userMapping[_nid] */\n      dup1\n        /* \"contracts/LandRegFinal.sol\":2436:2440  _nid */\n      dup4\n        /* \"contracts/LandRegFinal.sol\":2424:2441  userMapping[_nid] */\n      dup2\n      mstore\n      0x20\n      add\n      swap1\n      dup2\n      mstore\n      0x20\n      add\n      0x0\n      keccak256\n        /* \"contracts/LandRegFinal.sol\":2424:2449  userMapping[_nid].isExist */\n      0xb\n      add\n      0x0\n      swap1\n      sload\n      swap1\n      0x100\n      exp\n      swap1\n      div\n      0xff\n      and\n        /* \"contracts/LandRegFinal.sol\":2416:2473  require(userMapping[_nid].isExist, \"User does not exist\") */\n      iszero\n      iszero\n      tag_73\n      jumpi\n      mload(0x40)\n      0x8c379a000000000000000000000000000000000000000000000000000000000\n      dup2\n      mstore\n      0x4\n      add\n      tag_74\n      swap1\n      jump(tag_75)\n    tag_74:\n      mload(0x40)\n      dup1\n      swap2\n      sub\n      swap1\n      revert\n    tag_73:\n        /* \"contracts/LandRegFinal.sol\":2490:2501  userMapping */\n      0x0\n        /* \"contracts/LandRegFinal.sol\":2490:2507  userMapping[_nid] */\n      dup1\n        /* \"contracts/LandRegFinal.sol\":2502:2506  _nid */\n      dup4\n        /* \"contracts/LandRegFinal.sol\":2490:2507  userMapping[_nid] */\n      dup2\n      mstore\n      0x20\n      add\n      swap1\n      dup2\n      mstore\n      0x20\n      add\n      0x0\n      keccak256\n        /* \"contracts/LandRegFinal.sol\":2483:2507  return userMapping[_nid] */\n      0x180\n      mload(0x40)\n      swap1\n      dup2\n      add\n      0x40\n      mstore\n      swap1\n      dup2\n      0x0\n      dup3\n      add\n      sload\n      not(0x0)\n      and\n      not(0x0)\n      and\n      dup2\n      mstore\n      0x20\n      add\n      0x1\n      dup3\n      add\n      sload\n      not(0x0)\n      and\n      not(0x0)\n      and\n      dup2\n      mstore\n      0x20\n      add\n      0x2\n      dup3\n      add\n      sload\n      not(0x0)\n      and\n      not(0x0)\n      and\n      dup2\n      mstore\n      0x20\n      add\n      0x3\n      dup3\n      add\n      sload\n      not(0x0)\n      and\n      not(0x0)\n      and\n      dup2\n      mstore\n      0x20\n      add\n      0x4\n      dup3\n      add\n      sload\n      not(0x0)\n      and\n      not(0x0)\n      and\n      dup2\n      mstore\n      0x20\n      add\n      0x5\n      dup3\n      add\n      sload\n      dup2\n      mstore\n      0x20\n      add\n      0x6\n      dup3\n      add\n      sload\n      not(0x0)\n      and\n      not(0x0)\n      and\n      dup2\n      mstore\n      0x20\n      add\n      0x7\n      dup3\n      add\n      sload\n      not(0x0)\n      and\n      not(0x0)\n      and\n      dup2\n      mstore\n      0x20\n      add\n      0x8\n      dup3\n      add\n      sload\n      dup2\n      mstore\n      0x20\n      add\n      0x9\n      dup3\n      add\n      sload\n      dup2\n      mstore\n      0x20\n      add\n      0xa\n      dup3\n      add\n      dup1\n      sload\n      0x1\n      dup2\n      0x1\n      and\n      iszero\n      0x100\n      mul\n      sub\n      and\n      0x2\n      swap1\n      div\n      dup1\n      0x1f\n      add\n      0x20\n      dup1\n      swap2\n      div\n      mul\n      0x20\n      add\n      mload(0x40)\n      swap1\n      dup2\n      add\n      0x40\n      mstore\n      dup1\n      swap3\n      swap2\n      swap1\n      dup2\n      dup2\n      mstore\n      0x20\n      add\n      dup3\n      dup1\n      sload\n      0x1\n      dup2\n      0x1\n      and\n      iszero\n      0x100\n      mul\n      sub\n      and\n      0x2\n      swap1\n      div\n      dup1\n      iszero\n      tag_76\n      jumpi\n      dup1\n      0x1f\n      lt\n      tag_77\n      jumpi\n      0x100\n      dup1\n      dup4\n      sload\n      div\n      mul\n      dup4\n      mstore\n      swap2\n      0x20\n      add\n      swap2\n      jump(tag_76)\n    tag_77:\n      dup3\n      add\n      swap2\n      swap1\n      0x0\n      mstore\n      keccak256(0x0, 0x20)\n      swap1\n    tag_78:\n      dup2\n      sload\n      dup2\n      mstore\n      swap1\n      0x1\n      add\n      swap1\n      0x20\n      add\n      dup1\n      dup4\n      gt\n      tag_78\n      jumpi\n      dup3\n      swap1\n      sub\n      0x1f\n      and\n      dup3\n      add\n      swap2\n    tag_76:\n      pop\n      pop\n      pop\n      pop\n      pop\n      dup2\n      mstore\n      0x20\n      add\n      0xb\n      dup3\n      add\n      0x0\n      swap1\n      sload\n      swap1\n      0x100\n      exp\n      swap1\n      div\n      0xff\n      and\n      iszero\n      iszero\n      iszero\n      iszero\n      dup2\n      mstore\n      pop\n      pop\n      swap1\n      pop\n        /* \"contracts/LandRegFinal.sol\":2343:2514  function getUserByNid(uint256 _nid) public view returns (User) {... */\n      swap2\n      swap1\n      pop\n      jump\t// out\n        /* \"contracts/LandRegFinal.sol\":1500:1721  function getKhatianByHash(bytes32 khatianHash) public view returns (User) {... */\n    tag_31:\n        /* \"contracts/LandRegFinal.sol\":1568:1572  User */\n      tag_79\n      jump\t// in(tag_71)\n    tag_79:\n        /* \"contracts/LandRegFinal.sol\":1584:1594  uint256 id */\n      0x0\n        /* \"contracts/LandRegFinal.sol\":1605:1616  khatianHash */\n      dup3\n        /* \"contracts/LandRegFinal.sol\":1597:1617  uint256(khatianHash) */\n      0x1\n      swap1\n      div\n        /* \"contracts/LandRegFinal.sol\":1584:1617  uint256 id = uint256(khatianHash) */\n      swap1\n      pop\n        /* \"contracts/LandRegFinal.sol\":1635:1646  userMapping */\n      0x0\n        /* \"contracts/LandRegFinal.sol\":1635:1650  userMapping[id] */\n      dup1\n        /* \"contracts/LandRegFinal.sol\":1647:1649  id */\n      dup3\n        /* \"contracts/LandRegFinal.sol\":1635:1650  userMapping[id] */\n      dup2\n      mstore\n      0x20\n      add\n      swap1\n      dup2\n      mstore\n      0x20\n      add\n      0x0\n      keccak256\n        /* \"contracts/LandRegFinal.sol\":1635:1658  userMapping[id].isExist */\n      0xb\n      add\n      0x0\n      swap1\n      sload\n      swap1\n      0x100\n      exp\n      swap1\n      div\n      0xff\n      and\n        /* \"contracts/LandRegFinal.sol\":1627:1682  require(userMapping[id].isExist, \"User does not exist\") */\n      iszero\n      iszero\n      tag_81\n      jumpi\n      mload(0x40)\n      0x8c379a000000000000000000000000000000000000000000000000000000000\n      dup2\n      mstore\n      0x4\n      add\n      tag_82\n      swap1\n      jump(tag_75)\n    tag_82:\n      mload(0x40)\n      dup1\n      swap2\n      sub\n      swap1\n      revert\n    tag_81:\n        /* \"contracts/LandRegFinal.sol\":1699:1710  userMapping */\n      0x0\n        /* \"contracts/LandRegFinal.sol\":1699:1714  userMapping[id] */\n      dup1\n        /* \"contracts/LandRegFinal.sol\":1711:1713  id */\n      dup3\n        /* \"contracts/LandRegFinal.sol\":1699:1714  userMapping[id] */\n      dup2\n      mstore\n      0x20\n      add\n      swap1\n      dup2\n      mstore\n      0x20\n      add\n      0x0\n      keccak256\n        /* \"contracts/LandRegFinal.sol\":1692:1714  return userMapping[id] */\n      0x180\n      mload(0x40)\n      swap1\n      dup2\n      add\n      0x40\n      mstore\n      swap1\n      dup2\n      0x0\n      dup3\n      add\n      sload\n      not(0x0)\n      and\n      not(0x0)\n      and\n      dup2\n      mstore\n      0x20\n      add\n      0x1\n      dup3\n      add\n      sload\n      not(0x0)\n      and\n      not(0x0)\n      and\n      dup2\n      mstore\n      0x20\n      add\n      0x2\n      dup3\n      add\n      sload\n      not(0x0)\n      and\n      not(0x0)\n      and\n      dup2\n      mstore\n      0x20\n      add\n      0x3\n      dup3\n      add\n      sload\n      not(0x0)\n      and\n      not(0x0)\n      and\n      dup2\n      mstore\n      0x20\n      add\n      0x4\n      dup3\n      add\n      sload\n      not(0x0)\n      and\n      not(0x0)\n      and\n      dup2\n      mstore\n      0x20\n      add\n      0x5\n      dup3\n      add\n      sload\n      dup2\n      mstore\n      0x20\n      add\n      0x6\n      dup3\n      add\n      sload\n      not(0x0)\n      and\n      not(0x0)\n      and\n      dup2\n      mstore\n      0x20\n      add\n      0x7\n      dup3\n      add\n      sload\n      not(0x0)\n      and\n      not(0x0)\n      and\n      dup2\n      mstore\n      0x20\n      add\n      0x8\n      dup3\n      add\n      sload\n      dup2\n      mstore\n      0x20\n      add\n      0x9\n      dup3\n      add\n      sload\n      dup2\n      mstore\n      0x20\n      add\n      0xa\n      dup3\n      add\n      dup1\n      sload\n      0x1\n      dup2\n      0x1\n      and\n      iszero\n      0x100\n      mul\n      sub\n      and\n      0x2\n      swap1\n      div\n      dup1\n      0x1f\n      add\n      0x20\n      dup1\n      swap2\n      div\n      mul\n      0x20\n      add\n      mload(0x40)\n      swap1\n      dup2\n      add\n      0x40\n      mstore\n      dup1\n      swap3\n      swap2\n      swap1\n      dup2\n      dup2\n      mstore\n      0x20\n      add\n      dup3\n      dup1\n      sload\n      0x1\n      dup2\n      0x1\n      and\n      iszero\n      0x100\n      mul\n      sub\n      and\n      0x2\n      swap1\n      div\n      dup1\n      iszero\n      tag_83\n      jumpi\n      dup1\n      0x1f\n      lt\n      tag_84\n      jumpi\n      0x100\n      dup1\n      dup4\n      sload\n      div\n      mul\n      dup4\n      mstore\n      swap2\n      0x20\n      add\n      swap2\n      jump(tag_83)\n    tag_84:\n      dup3\n      add\n      swap2\n      swap1\n      0x0\n      mstore\n      keccak256(0x0, 0x20)\n      swap1\n    tag_85:\n      dup2\n      sload\n      dup2\n      mstore\n      swap1\n      0x1\n      add\n      swap1\n      0x20\n      add\n      dup1\n      dup4\n      gt\n      tag_85\n      jumpi\n      dup3\n      swap1\n      sub\n      0x1f\n      and\n      dup3\n      add\n      swap2\n    tag_83:\n      pop\n      pop\n      pop\n      pop\n      pop\n      dup2\n      mstore\n      0x20\n      add\n      0xb\n      dup3\n      add\n      0x0\n      swap1\n      sload\n      swap1\n      0x100\n      exp\n      swap1\n      div\n      0xff\n      and\n      iszero\n      iszero\n      iszero\n      iszero\n      dup2\n      mstore\n      pop\n      pop\n      swap2\n      pop\n        /* \"contracts/LandRegFinal.sol\":1500:1721  function getKhatianByHash(bytes32 khatianHash) public view returns (User) {... */\n      pop\n      swap2\n      swap1\n      pop\n      jump\t// out\n        /* \"contracts/LandRegFinal.sol\":2524:2700  function getUserOwnedByUid(uint256 _uid) public view returns (User) {... */\n    tag_36:\n        /* \"contracts/LandRegFinal.sol\":2586:2590  User */\n      tag_86\n      jump\t// in(tag_71)\n    tag_86:\n        /* \"contracts/LandRegFinal.sol\":2610:2621  userMapping */\n      0x0\n        /* \"contracts/LandRegFinal.sol\":2610:2627  userMapping[_uid] */\n      dup1\n        /* \"contracts/LandRegFinal.sol\":2622:2626  _uid */\n      dup4\n        /* \"contracts/LandRegFinal.sol\":2610:2627  userMapping[_uid] */\n      dup2\n      mstore\n      0x20\n      add\n      swap1\n      dup2\n      mstore\n      0x20\n      add\n      0x0\n      keccak256\n        /* \"contracts/LandRegFinal.sol\":2610:2635  userMapping[_uid].isExist */\n      0xb\n      add\n      0x0\n      swap1\n      sload\n      swap1\n      0x100\n      exp\n      swap1\n      div\n      0xff\n      and\n        /* \"contracts/LandRegFinal.sol\":2602:2659  require(userMapping[_uid].isExist, \"User does not exist\") */\n      iszero\n      iszero\n      tag_88\n      jumpi\n      mload(0x40)\n      0x8c379a000000000000000000000000000000000000000000000000000000000\n      dup2\n      mstore\n      0x4\n      add\n      tag_89\n      swap1\n      jump(tag_75)\n    tag_89:\n      mload(0x40)\n      dup1\n      swap2\n      sub\n      swap1\n      revert\n    tag_88:\n        /* \"contracts/LandRegFinal.sol\":2676:2687  userMapping */\n      0x0\n        /* \"contracts/LandRegFinal.sol\":2676:2693  userMapping[_uid] */\n      dup1\n        /* \"contracts/LandRegFinal.sol\":2688:2692  _uid */\n      dup4\n        /* \"contracts/LandRegFinal.sol\":2676:2693  userMapping[_uid] */\n      dup2\n      mstore\n      0x20\n      add\n      swap1\n      dup2\n      mstore\n      0x20\n      add\n      0x0\n      keccak256\n        /* \"contracts/LandRegFinal.sol\":2669:2693  return userMapping[_uid] */\n      0x180\n      mload(0x40)\n      swap1\n      dup2\n      add\n      0x40\n      mstore\n      swap1\n      dup2\n      0x0\n      dup3\n      add\n      sload\n      not(0x0)\n      and\n      not(0x0)\n      and\n      dup2\n      mstore\n      0x20\n      add\n      0x1\n      dup3\n      add\n      sload\n      not(0x0)\n      and\n      not(0x0)\n      and\n      dup2\n      mstore\n      0x20\n      add\n      0x2\n      dup3\n      add\n      sload\n      not(0x0)\n      and\n      not(0x0)\n      and\n      dup2\n      mstore\n      0x20\n      add\n      0x3\n      dup3\n      add\n      sload\n      not(0x0)\n      and\n      not(0x0)\n      and\n      dup2\n      mstore\n      0x20\n      add\n      0x4\n      dup3\n      add\n      sload\n      not(0x0)\n      and\n      not(0x0)\n      and\n      dup2\n      mstore\n      0x20\n      add\n      0x5\n      dup3\n      add\n      sload\n      dup2\n      mstore\n      0x20\n      add\n      0x6\n      dup3\n      add\n      sload\n      not(0x0)\n      and\n      not(0x0)\n      and\n      dup2\n      mstore\n      0x20\n      add\n      0x7\n      dup3\n      add\n      sload\n      not(0x0)\n      and\n      not(0x0)\n      and\n      dup2\n      mstore\n      0x20\n      add\n      0x8\n      dup3\n      add\n      sload\n      dup2\n      mstore\n      0x20\n      add\n      0x9\n      dup3\n      add\n      sload\n      dup2\n      mstore\n      0x20\n      add\n      0xa\n      dup3\n      add\n      dup1\n      sload\n      0x1\n      dup2\n      0x1\n      and\n      iszero\n      0x100\n      mul\n      sub\n      and\n      0x2\n      swap1\n      div\n      dup1\n      0x1f\n      add\n      0x20\n      dup1\n      swap2\n      div\n      mul\n      0x20\n      add\n      mload(0x40)\n      swap1\n      dup2\n      add\n      0x40\n      mstore\n      dup1\n      swap3\n      swap2\n      swap1\n      dup2\n      dup2\n      mstore\n      0x20\n      add\n      dup3\n      dup1\n      sload\n      0x1\n      dup2\n      0x1\n      and\n      iszero\n      0x100\n      mul\n      sub\n      and\n      0x2\n      swap1\n      div\n      dup1\n      iszero\n      tag_90\n      jumpi\n      dup1\n      0x1f\n      lt\n      tag_91\n      jumpi\n      0x100\n      dup1\n      dup4\n      sload\n      div\n      mul\n      dup4\n      mstore\n      swap2\n      0x20\n      add\n      swap2\n      jump(tag_90)\n    tag_91:\n      dup3\n      add\n      swap2\n      swap1\n      0x0\n      mstore\n      keccak256(0x0, 0x20)\n      swap1\n    tag_92:\n      dup2\n      sload\n      dup2\n      mstore\n      swap1\n      0x1\n      add\n      swap1\n      0x20\n      add\n      dup1\n      dup4\n      gt\n      tag_92\n      jumpi\n      dup3\n      swap1\n      sub\n      0x1f\n      and\n      dup3\n      add\n      swap2\n    tag_90:\n      pop\n      pop\n      pop\n      pop\n      pop\n      dup2\n      mstore\n      0x20\n      add\n      0xb\n      dup3\n      add\n      0x0\n      swap1\n      sload\n      swap1\n      0x100\n      exp\n      swap1\n      div\n      0xff\n      and\n      iszero\n      iszero\n      iszero\n      iszero\n      dup2\n      mstore\n      pop\n      pop\n      swap1\n      pop\n        /* \"contracts/LandRegFinal.sol\":2524:2700  function getUserOwnedByUid(uint256 _uid) public view returns (User) {... */\n      swap2\n      swap1\n      pop\n      jump\t// out\n        /* \"contracts/LandRegFinal.sol\":2167:2333  function getUserIdById(uint256 id) public view returns (User) {... */\n    tag_41:\n        /* \"contracts/LandRegFinal.sol\":2223:2227  User */\n      tag_93\n      jump\t// in(tag_71)\n    tag_93:\n        /* \"contracts/LandRegFinal.sol\":2247:2258  userMapping */\n      0x0\n        /* \"contracts/LandRegFinal.sol\":2247:2262  userMapping[id] */\n      dup1\n        /* \"contracts/LandRegFinal.sol\":2259:2261  id */\n      dup4\n        /* \"contracts/LandRegFinal.sol\":2247:2262  userMapping[id] */\n      dup2\n      mstore\n      0x20\n      add\n      swap1\n      dup2\n      mstore\n      0x20\n      add\n      0x0\n      keccak256\n        /* \"contracts/LandRegFinal.sol\":2247:2270  userMapping[id].isExist */\n      0xb\n      add\n      0x0\n      swap1\n      sload\n      swap1\n      0x100\n      exp\n      swap1\n      div\n      0xff\n      and\n        /* \"contracts/LandRegFinal.sol\":2239:2294  require(userMapping[id].isExist, \"User does not exist\") */\n      iszero\n      iszero\n      tag_95\n      jumpi\n      mload(0x40)\n      0x8c379a000000000000000000000000000000000000000000000000000000000\n      dup2\n      mstore\n      0x4\n      add\n      tag_96\n      swap1\n      jump(tag_75)\n    tag_96:\n      mload(0x40)\n      dup1\n      swap2\n      sub\n      swap1\n      revert\n    tag_95:\n        /* \"contracts/LandRegFinal.sol\":2311:2322  userMapping */\n      0x0\n        /* \"contracts/LandRegFinal.sol\":2311:2326  userMapping[id] */\n      dup1\n        /* \"contracts/LandRegFinal.sol\":2323:2325  id */\n      dup4\n        /* \"contracts/LandRegFinal.sol\":2311:2326  userMapping[id] */\n      dup2\n      mstore\n      0x20\n      add\n      swap1\n      dup2\n      mstore\n      0x20\n      add\n      0x0\n      keccak256\n        /* \"contracts/LandRegFinal.sol\":2304:2326  return userMapping[id] */\n      0x180\n      mload(0x40)\n      swap1\n      dup2\n      add\n      0x40\n      mstore\n      swap1\n      dup2\n      0x0\n      dup3\n      add\n      sload\n      not(0x0)\n      and\n      not(0x0)\n      and\n      dup2\n      mstore\n      0x20\n      add\n      0x1\n      dup3\n      add\n      sload\n      not(0x0)\n      and\n      not(0x0)\n      and\n      dup2\n      mstore\n      0x20\n      add\n      0x2\n      dup3\n      add\n      sload\n      not(0x0)\n      and\n      not(0x0)\n      and\n      dup2\n      mstore\n      0x20\n      add\n      0x3\n      dup3\n      add\n      sload\n      not(0x0)\n      and\n      not(0x0)\n      and\n      dup2\n      mstore\n      0x20\n      add\n      0x4\n      dup3\n      add\n      sload\n      not(0x0)\n      and\n      not(0x0)\n      and\n      dup2\n      mstore\n      0x20\n      add\n      0x5\n      dup3\n      add\n      sload\n      dup2\n      mstore\n      0x20\n      add\n      0x6\n      dup3\n      add\n      sload\n      not(0x0)\n      and\n      not(0x0)\n      and\n      dup2\n      mstore\n      0x20\n      add\n      0x7\n      dup3\n      add\n      sload\n      not(0x0)\n      and\n      not(0x0)\n      and\n      dup2\n      mstore\n      0x20\n      add\n      0x8\n      dup3\n      add\n      sload\n      dup2\n      mstore\n      0x20\n      add\n      0x9\n      dup3\n      add\n      sload\n      dup2\n      mstore\n      0x20\n      add\n      0xa\n      dup3\n      add\n      dup1\n      sload\n      0x1\n      dup2\n      0x1\n      and\n      iszero\n      0x100\n      mul\n      sub\n      and\n      0x2\n      swap1\n      div\n      dup1\n      0x1f\n      add\n      0x20\n      dup1\n      swap2\n      div\n      mul\n      0x20\n      add\n      mload(0x40)\n      swap1\n      dup2\n      add\n      0x40\n      mstore\n      dup1\n      swap3\n      swap2\n      swap1\n      dup2\n      dup2\n      mstore\n      0x20\n      add\n      dup3\n      dup1\n      sload\n      0x1\n      dup2\n      0x1\n      and\n      iszero\n      0x100\n      mul\n      sub\n      and\n      0x2\n      swap1\n      div\n      dup1\n      iszero\n      tag_97\n      jumpi\n      dup1\n      0x1f\n      lt\n      tag_98\n      jumpi\n      0x100\n      dup1\n      dup4\n      sload\n      div\n      mul\n      dup4\n      mstore\n      swap2\n      0x20\n      add\n      swap2\n      jump(tag_97)\n    tag_98:\n      dup3\n      add\n      swap2\n      swap1\n      0x0\n      mstore\n      keccak256(0x0, 0x20)\n      swap1\n    tag_99:\n      dup2\n      sload\n      dup2\n      mstore\n      swap1\n      0x1\n      add\n      swap1\n      0x20\n      add\n      dup1\n      dup4\n      gt\n      tag_99\n      jumpi\n      dup3\n      swap1\n      sub\n      0x1f\n      and\n      dup3\n      add\n      swap2\n    tag_97:\n      pop\n      pop\n      pop\n      pop\n      pop\n      dup2\n      mstore\n      0x20\n      add\n      0xb\n      dup3\n      add\n      0x0\n      swap1\n      sload\n      swap1\n      0x100\n      exp\n      swap1\n      div\n      0xff\n      and\n      iszero\n      iszero\n      iszero\n      iszero\n      dup2\n      mstore\n      pop\n      pop\n      swap1\n      pop\n        /* \"contracts/LandRegFinal.sol\":2167:2333  function getUserIdById(uint256 id) public view returns (User) {... */\n      swap2\n      swap1\n      pop\n      jump\t// out\n        /* \"contracts/LandRegFinal.sol\":1377:1490  function getKhatianHasById(uint256 id) public view returns (bool) {... */\n    tag_46:\n        /* \"contracts/LandRegFinal.sol\":1437:1441  bool */\n      0x0\n        /* \"contracts/LandRegFinal.sol\":1460:1471  userMapping */\n      dup1\n        /* \"contracts/LandRegFinal.sol\":1460:1475  userMapping[id] */\n      0x0\n        /* \"contracts/LandRegFinal.sol\":1472:1474  id */\n      dup4\n        /* \"contracts/LandRegFinal.sol\":1460:1475  userMapping[id] */\n      dup2\n      mstore\n      0x20\n      add\n      swap1\n      dup2\n      mstore\n      0x20\n      add\n      0x0\n      keccak256\n        /* \"contracts/LandRegFinal.sol\":1460:1483  userMapping[id].isExist */\n      0xb\n      add\n      0x0\n      swap1\n      sload\n      swap1\n      0x100\n      exp\n      swap1\n      div\n      0xff\n      and\n        /* \"contracts/LandRegFinal.sol\":1453:1483  return userMapping[id].isExist */\n      swap1\n      pop\n        /* \"contracts/LandRegFinal.sol\":1377:1490  function getKhatianHasById(uint256 id) public view returns (bool) {... */\n      swap2\n      swap1\n      pop\n      jump\t// out\n        /* \"contracts/LandRegFinal.sol\":1838:2050  function getPlotByHash(bytes32 plotHash) public view returns (User) {... */\n    tag_52:\n        /* \"contracts/LandRegFinal.sol\":1900:1904  User */\n      tag_101\n      jump\t// in(tag_71)\n    tag_101:\n        /* \"contracts/LandRegFinal.sol\":1916:1926  uint256 id */\n      0x0\n        /* \"contracts/LandRegFinal.sol\":1937:1945  plotHash */\n      dup3\n        /* \"contracts/LandRegFinal.sol\":1929:1946  uint256(plotHash) */\n      0x1\n      swap1\n      div\n        /* \"contracts/LandRegFinal.sol\":1916:1946  uint256 id = uint256(plotHash) */\n      swap1\n      pop\n        /* \"contracts/LandRegFinal.sol\":1964:1975  userMapping */\n      0x0\n        /* \"contracts/LandRegFinal.sol\":1964:1979  userMapping[id] */\n      dup1\n        /* \"contracts/LandRegFinal.sol\":1976:1978  id */\n      dup3\n        /* \"contracts/LandRegFinal.sol\":1964:1979  userMapping[id] */\n      dup2\n      mstore\n      0x20\n      add\n      swap1\n      dup2\n      mstore\n      0x20\n      add\n      0x0\n      keccak256\n        /* \"contracts/LandRegFinal.sol\":1964:1987  userMapping[id].isExist */\n      0xb\n      add\n      0x0\n      swap1\n      sload\n      swap1\n      0x100\n      exp\n      swap1\n      div\n      0xff\n      and\n        /* \"contracts/LandRegFinal.sol\":1956:2011  require(userMapping[id].isExist, \"User does not exist\") */\n      iszero\n      iszero\n      tag_103\n      jumpi\n      mload(0x40)\n      0x8c379a000000000000000000000000000000000000000000000000000000000\n      dup2\n      mstore\n      0x4\n      add\n      tag_104\n      swap1\n      jump(tag_75)\n    tag_104:\n      mload(0x40)\n      dup1\n      swap2\n      sub\n      swap1\n      revert\n    tag_103:\n        /* \"contracts/LandRegFinal.sol\":2028:2039  userMapping */\n      0x0\n        /* \"contracts/LandRegFinal.sol\":2028:2043  userMapping[id] */\n      dup1\n        /* \"contracts/LandRegFinal.sol\":2040:2042  id */\n      dup3\n        /* \"contracts/LandRegFinal.sol\":2028:2043  userMapping[id] */\n      dup2\n      mstore\n      0x20\n      add\n      swap1\n      dup2\n      mstore\n      0x20\n      add\n      0x0\n      keccak256\n        /* \"contracts/LandRegFinal.sol\":2021:2043  return userMapping[id] */\n      0x180\n      mload(0x40)\n      swap1\n      dup2\n      add\n      0x40\n      mstore\n      swap1\n      dup2\n      0x0\n      dup3\n      add\n      sload\n      not(0x0)\n      and\n      not(0x0)\n      and\n      dup2\n      mstore\n      0x20\n      add\n      0x1\n      dup3\n      add\n      sload\n      not(0x0)\n      and\n      not(0x0)\n      and\n      dup2\n      mstore\n      0x20\n      add\n      0x2\n      dup3\n      add\n      sload\n      not(0x0)\n      and\n      not(0x0)\n      and\n      dup2\n      mstore\n      0x20\n      add\n      0x3\n      dup3\n      add\n      sload\n      not(0x0)\n      and\n      not(0x0)\n      and\n      dup2\n      mstore\n      0x20\n      add\n      0x4\n      dup3\n      add\n      sload\n      not(0x0)\n      and\n      not(0x0)\n      and\n      dup2\n      mstore\n      0x20\n      add\n      0x5\n      dup3\n      add\n      sload\n      dup2\n      mstore\n      0x20\n      add\n      0x6\n      dup3\n      add\n      sload\n      not(0x0)\n      and\n      not(0x0)\n      and\n      dup2\n      mstore\n      0x20\n      add\n      0x7\n      dup3\n      add\n      sload\n      not(0x0)\n      and\n      not(0x0)\n      and\n      dup2\n      mstore\n      0x20\n      add\n      0x8\n      dup3\n      add\n      sload\n      dup2\n      mstore\n      0x20\n      add\n      0x9\n      dup3\n      add\n      sload\n      dup2\n      mstore\n      0x20\n      add\n      0xa\n      dup3\n      add\n      dup1\n      sload\n      0x1\n      dup2\n      0x1\n      and\n      iszero\n      0x100\n      mul\n      sub\n      and\n      0x2\n      swap1\n      div\n      dup1\n      0x1f\n      add\n      0x20\n      dup1\n      swap2\n      div\n      mul\n      0x20\n      add\n      mload(0x40)\n      swap1\n      dup2\n      add\n      0x40\n      mstore\n      dup1\n      swap3\n      swap2\n      swap1\n      dup2\n      dup2\n      mstore\n      0x20\n      add\n      dup3\n      dup1\n      sload\n      0x1\n      dup2\n      0x1\n      and\n      iszero\n      0x100\n      mul\n      sub\n      and\n      0x2\n      swap1\n      div\n      dup1\n      iszero\n      tag_105\n      jumpi\n      dup1\n      0x1f\n      lt\n      tag_106\n      jumpi\n      0x100\n      dup1\n      dup4\n      sload\n      div\n      mul\n      dup4\n      mstore\n      swap2\n      0x20\n      add\n      swap2\n      jump(tag_105)\n    tag_106:\n      dup3\n      add\n      swap2\n      swap1\n      0x0\n      mstore\n      keccak256(0x0, 0x20)\n      swap1\n    tag_107:\n      dup2\n      sload\n      dup2\n      mstore\n      swap1\n      0x1\n      add\n      swap1\n      0x20\n      add\n      dup1\n      dup4\n      gt\n      tag_107\n      jumpi\n      dup3\n      swap1\n      sub\n      0x1f\n      and\n      dup3\n      add\n      swap2\n    tag_105:\n      pop\n      pop\n      pop\n      pop\n      pop\n      dup2\n      mstore\n      0x20\n      add\n      0xb\n      dup3\n      add\n      0x0\n      swap1\n      sload\n      swap1\n      0x100\n      exp\n      swap1\n      div\n      0xff\n      and\n      iszero\n      iszero\n      iszero\n      iszero\n      dup2\n      mstore\n      pop\n      pop\n      swap2\n      pop\n        /* \"contracts/LandRegFinal.sol\":1838:2050  function getPlotByHash(bytes32 plotHash) public view returns (User) {... */\n      pop\n      swap2\n      swap1\n      pop\n      jump\t// out\n        /* \"contracts/LandRegFinal.sol\":1267:1367  function getKhatianArrayLen() public view returns (uint256) {... */\n    tag_56:\n        /* \"contracts/LandRegFinal.sol\":1318:1325  uint256 */\n      0x0\n        /* \"contracts/LandRegFinal.sol\":1344:1353  userArray */\n      0x1\n        /* \"contracts/LandRegFinal.sol\":1344:1360  userArray.length */\n      dup1\n      sload\n      swap1\n      pop\n        /* \"contracts/LandRegFinal.sol\":1337:1360  return userArray.length */\n      swap1\n      pop\n        /* \"contracts/LandRegFinal.sol\":1267:1367  function getKhatianArrayLen() public view returns (uint256) {... */\n      swap1\n      jump\t// out\n        /* \"contracts/LandRegFinal.sol\":2060:2157  function getUserArrayLen() public view returns (uint256) {... */\n    tag_60:\n        /* \"contracts/LandRegFinal.sol\":2108:2115  uint256 */\n      0x0\n        /* \"contracts/LandRegFinal.sol\":2134:2143  userArray */\n      0x1\n        /* \"contracts/LandRegFinal.sol\":2134:2150  userArray.length */\n      dup1\n      sload\n      swap1\n      pop\n        /* \"contracts/LandRegFinal.sol\":2127:2150  return userArray.length */\n      swap1\n      pop\n        /* \"contracts/LandRegFinal.sol\":2060:2157  function getUserArrayLen() public view returns (uint256) {... */\n      swap1\n      jump\t// out\n        /* \"contracts/LandRegFinal.sol\":97:3373  contract LandRegistration {... */\n    tag_68:\n      dup3\n      dup1\n      sload\n      0x1\n      dup2\n      0x1\n      and\n      iszero\n      0x100\n      mul\n      sub\n      and\n      0x2\n      swap1\n      div\n      swap1\n      0x0\n      mstore\n      keccak256(0x0, 0x20)\n      swap1\n      0x1f\n      add\n      0x20\n      swap1\n      div\n      dup2\n      add\n      swap3\n      dup3\n      0x1f\n      lt\n      tag_111\n      jumpi\n      dup1\n      mload\n      not(0xff)\n      and\n      dup4\n      dup1\n      add\n      or\n      dup6\n      sstore\n      jump(tag_110)\n    tag_111:\n      dup3\n      dup1\n      add\n      0x1\n      add\n      dup6\n      sstore\n      dup3\n      iszero\n      tag_110\n      jumpi\n      swap2\n      dup3\n      add\n    tag_112:\n      dup3\n      dup2\n      gt\n      iszero\n      tag_113\n      jumpi\n      dup3\n      mload\n      dup3\n      sstore\n      swap2\n      0x20\n      add\n      swap2\n      swap1\n      0x1\n      add\n      swap1\n      jump(tag_112)\n    tag_113:\n    tag_110:\n      pop\n      swap1\n      pop\n      tag_114\n      swap2\n      swap1\n      jump\t// in(tag_115)\n    tag_114:\n      pop\n      swap1\n      jump\t// out\n    tag_71:\n      0x180\n      mload(0x40)\n      swap1\n      dup2\n      add\n      0x40\n      mstore\n      dup1\n      0x0\n      dup1\n      not\n      and\n      dup2\n      mstore\n      0x20\n      add\n      0x0\n      dup1\n      not\n      and\n      dup2\n      mstore\n      0x20\n      add\n      0x0\n      dup1\n      not\n      and\n      dup2\n      mstore\n      0x20\n      add\n      0x0\n      dup1\n      not\n      and\n      dup2\n      mstore\n      0x20\n      add\n      0x0\n      dup1\n      not\n      and\n      dup2\n      mstore\n      0x20\n      add\n      0x0\n      dup2\n      mstore\n      0x20\n      add\n      0x0\n      dup1\n      not\n      and\n      dup2\n      mstore\n      0x20\n      add\n      0x0\n      dup1\n      not\n      and\n      dup2\n      mstore\n      0x20\n      add\n      0x0\n      dup2\n      mstore\n      0x20\n      add\n      0x0\n      dup2\n      mstore\n      0x20\n      add\n      0x60\n      dup2\n      mstore\n      0x20\n      add\n      iszero(iszero(0x0))\n      dup2\n      mstore\n      pop\n      swap1\n      jump\t// out\n    tag_115:\n      tag_116\n      swap2\n      swap1\n    tag_117:\n      dup1\n      dup3\n      gt\n      iszero\n      tag_118\n      jumpi\n      0x0\n      dup2\n      0x0\n      swap1\n      sstore\n      pop\n      0x1\n      add\n      jump(tag_117)\n    tag_118:\n      pop\n      swap1\n      jump\n    tag_116:\n      swap1\n      jump\t// out\n        /* \"--CODEGEN--\":5:123   */\n    tag_120:\n      0x0\n        /* \"--CODEGEN--\":72:118   */\n      tag_121\n        /* \"--CODEGEN--\":110:116   */\n      dup3\n        /* \"--CODEGEN--\":97:117   */\n      calldataload\n        /* \"--CODEGEN--\":72:118   */\n      jump(tag_122)\n    tag_121:\n        /* \"--CODEGEN--\":63:118   */\n      swap1\n      pop\n        /* \"--CODEGEN--\":57:123   */\n      swap3\n      swap2\n      pop\n      pop\n      jump\n        /* \"--CODEGEN--\":130:248   */\n    tag_124:\n      0x0\n        /* \"--CODEGEN--\":197:243   */\n      tag_125\n        /* \"--CODEGEN--\":235:241   */\n      dup3\n        /* \"--CODEGEN--\":222:242   */\n      calldataload\n        /* \"--CODEGEN--\":197:243   */\n      jump(tag_126)\n    tag_125:\n        /* \"--CODEGEN--\":188:243   */\n      swap1\n      pop\n        /* \"--CODEGEN--\":182:248   */\n      swap3\n      swap2\n      pop\n      pop\n      jump\n        /* \"--CODEGEN--\":255:496   */\n    tag_30:\n      0x0\n        /* \"--CODEGEN--\":359:361   */\n      0x20\n        /* \"--CODEGEN--\":347:356   */\n      dup3\n        /* \"--CODEGEN--\":338:345   */\n      dup5\n        /* \"--CODEGEN--\":334:357   */\n      sub\n        /* \"--CODEGEN--\":330:362   */\n      slt\n        /* \"--CODEGEN--\":327:329   */\n      iszero\n      tag_128\n      jumpi\n        /* \"--CODEGEN--\":375:376   */\n      0x0\n        /* \"--CODEGEN--\":372:373   */\n      dup1\n        /* \"--CODEGEN--\":365:377   */\n      revert\n        /* \"--CODEGEN--\":327:329   */\n    tag_128:\n        /* \"--CODEGEN--\":410:411   */\n      0x0\n        /* \"--CODEGEN--\":427:480   */\n      tag_129\n        /* \"--CODEGEN--\":472:479   */\n      dup5\n        /* \"--CODEGEN--\":463:469   */\n      dup3\n        /* \"--CODEGEN--\":452:461   */\n      dup6\n        /* \"--CODEGEN--\":448:470   */\n      add\n        /* \"--CODEGEN--\":427:480   */\n      jump(tag_120)\n    tag_129:\n        /* \"--CODEGEN--\":417:480   */\n      swap2\n      pop\n        /* \"--CODEGEN--\":389:486   */\n      pop\n        /* \"--CODEGEN--\":321:496   */\n      swap3\n      swap2\n      pop\n      pop\n      jump\n        /* \"--CODEGEN--\":503:744   */\n    tag_23:\n      0x0\n        /* \"--CODEGEN--\":607:609   */\n      0x20\n        /* \"--CODEGEN--\":595:604   */\n      dup3\n        /* \"--CODEGEN--\":586:593   */\n      dup5\n        /* \"--CODEGEN--\":582:605   */\n      sub\n        /* \"--CODEGEN--\":578:610   */\n      slt\n        /* \"--CODEGEN--\":575:577   */\n      iszero\n      tag_131\n      jumpi\n        /* \"--CODEGEN--\":623:624   */\n      0x0\n        /* \"--CODEGEN--\":620:621   */\n      dup1\n        /* \"--CODEGEN--\":613:625   */\n      revert\n        /* \"--CODEGEN--\":575:577   */\n    tag_131:\n        /* \"--CODEGEN--\":658:659   */\n      0x0\n        /* \"--CODEGEN--\":675:728   */\n      tag_132\n        /* \"--CODEGEN--\":720:727   */\n      dup5\n        /* \"--CODEGEN--\":711:717   */\n      dup3\n        /* \"--CODEGEN--\":700:709   */\n      dup6\n        /* \"--CODEGEN--\":696:718   */\n      add\n        /* \"--CODEGEN--\":675:728   */\n      jump(tag_124)\n    tag_132:\n        /* \"--CODEGEN--\":665:728   */\n      swap2\n      pop\n        /* \"--CODEGEN--\":637:734   */\n      pop\n        /* \"--CODEGEN--\":569:744   */\n      swap3\n      swap2\n      pop\n      pop\n      jump\n        /* \"--CODEGEN--\":751:852   */\n    tag_134:\n        /* \"--CODEGEN--\":818:846   */\n      tag_135\n        /* \"--CODEGEN--\":840:845   */\n      dup2\n        /* \"--CODEGEN--\":818:846   */\n      jump(tag_136)\n    tag_135:\n        /* \"--CODEGEN--\":813:816   */\n      dup3\n        /* \"--CODEGEN--\":806:847   */\n      mstore\n        /* \"--CODEGEN--\":800:852   */\n      pop\n      pop\n      jump\n        /* \"--CODEGEN--\":859:969   */\n    tag_138:\n        /* \"--CODEGEN--\":932:963   */\n      tag_139\n        /* \"--CODEGEN--\":957:962   */\n      dup2\n        /* \"--CODEGEN--\":932:963   */\n      jump(tag_140)\n    tag_139:\n        /* \"--CODEGEN--\":927:930   */\n      dup3\n        /* \"--CODEGEN--\":920:964   */\n      mstore\n        /* \"--CODEGEN--\":914:969   */\n      pop\n      pop\n      jump\n        /* \"--CODEGEN--\":976:1268   */\n    tag_142:\n      0x0\n        /* \"--CODEGEN--\":1074:1109   */\n      tag_143\n        /* \"--CODEGEN--\":1103:1108   */\n      dup3\n        /* \"--CODEGEN--\":1074:1109   */\n      jump(tag_144)\n    tag_143:\n        /* \"--CODEGEN--\":1126:1132   */\n      dup1\n        /* \"--CODEGEN--\":1121:1124   */\n      dup5\n        /* \"--CODEGEN--\":1114:1133   */\n      mstore\n        /* \"--CODEGEN--\":1138:1201   */\n      tag_145\n        /* \"--CODEGEN--\":1194:1200   */\n      dup2\n        /* \"--CODEGEN--\":1187:1191   */\n      0x20\n        /* \"--CODEGEN--\":1182:1185   */\n      dup7\n        /* \"--CODEGEN--\":1178:1192   */\n      add\n        /* \"--CODEGEN--\":1171:1175   */\n      0x20\n        /* \"--CODEGEN--\":1164:1169   */\n      dup7\n        /* \"--CODEGEN--\":1160:1176   */\n      add\n        /* \"--CODEGEN--\":1138:1201   */\n      jump(tag_146)\n    tag_145:\n        /* \"--CODEGEN--\":1233:1262   */\n      tag_147\n        /* \"--CODEGEN--\":1255:1261   */\n      dup2\n        /* \"--CODEGEN--\":1233:1262   */\n      jump(tag_148)\n    tag_147:\n        /* \"--CODEGEN--\":1226:1230   */\n      0x20\n        /* \"--CODEGEN--\":1221:1224   */\n      dup6\n        /* \"--CODEGEN--\":1217:1231   */\n      add\n        /* \"--CODEGEN--\":1213:1263   */\n      add\n        /* \"--CODEGEN--\":1206:1263   */\n      swap2\n      pop\n        /* \"--CODEGEN--\":1054:1268   */\n      pop\n      swap3\n      swap2\n      pop\n      pop\n      jump\n        /* \"--CODEGEN--\":1276:1572   */\n    tag_150:\n      0x0\n        /* \"--CODEGEN--\":1431:1433   */\n      0x13\n        /* \"--CODEGEN--\":1426:1429   */\n      dup3\n        /* \"--CODEGEN--\":1419:1434   */\n      mstore\n        /* \"--CODEGEN--\":1468:1534   */\n      0x5573657220616c72656164792065786973747300000000000000000000000000\n        /* \"--CODEGEN--\":1463:1465   */\n      0x20\n        /* \"--CODEGEN--\":1458:1461   */\n      dup4\n        /* \"--CODEGEN--\":1454:1466   */\n      add\n        /* \"--CODEGEN--\":1447:1535   */\n      mstore\n        /* \"--CODEGEN--\":1563:1565   */\n      0x40\n        /* \"--CODEGEN--\":1558:1561   */\n      dup3\n        /* \"--CODEGEN--\":1554:1566   */\n      add\n        /* \"--CODEGEN--\":1547:1566   */\n      swap1\n      pop\n        /* \"--CODEGEN--\":1412:1572   */\n      swap2\n      swap1\n      pop\n      jump\n        /* \"--CODEGEN--\":1581:1877   */\n    tag_152:\n      0x0\n        /* \"--CODEGEN--\":1736:1738   */\n      0x13\n        /* \"--CODEGEN--\":1731:1734   */\n      dup3\n        /* \"--CODEGEN--\":1724:1739   */\n      mstore\n        /* \"--CODEGEN--\":1773:1839   */\n      0x5573657220646f6573206e6f7420657869737400000000000000000000000000\n        /* \"--CODEGEN--\":1768:1770   */\n      0x20\n        /* \"--CODEGEN--\":1763:1766   */\n      dup4\n        /* \"--CODEGEN--\":1759:1771   */\n      add\n        /* \"--CODEGEN--\":1752:1840   */\n      mstore\n        /* \"--CODEGEN--\":1868:1870   */\n      0x40\n        /* \"--CODEGEN--\":1863:1866   */\n      dup3\n        /* \"--CODEGEN--\":1859:1871   */\n      add\n        /* \"--CODEGEN--\":1852:1871   */\n      swap1\n      pop\n        /* \"--CODEGEN--\":1717:1877   */\n      swap2\n      swap1\n      pop\n      jump\n        /* \"--CODEGEN--\":1952:4237   */\n    tag_154:\n      0x0\n        /* \"--CODEGEN--\":2083:2088   */\n      0x180\n        /* \"--CODEGEN--\":2078:2081   */\n      dup4\n        /* \"--CODEGEN--\":2074:2089   */\n      add\n        /* \"--CODEGEN--\":2174:2177   */\n      0x0\n        /* \"--CODEGEN--\":2167:2172   */\n      dup4\n        /* \"--CODEGEN--\":2163:2178   */\n      add\n        /* \"--CODEGEN--\":2157:2179   */\n      mload\n        /* \"--CODEGEN--\":2191:2252   */\n      tag_155\n        /* \"--CODEGEN--\":2247:2250   */\n      0x0\n        /* \"--CODEGEN--\":2242:2245   */\n      dup7\n        /* \"--CODEGEN--\":2238:2251   */\n      add\n        /* \"--CODEGEN--\":2225:2236   */\n      dup3\n        /* \"--CODEGEN--\":2191:2252   */\n      jump(tag_138)\n    tag_155:\n        /* \"--CODEGEN--\":2104:2264   */\n      pop\n        /* \"--CODEGEN--\":2346:2350   */\n      0x20\n        /* \"--CODEGEN--\":2339:2344   */\n      dup4\n        /* \"--CODEGEN--\":2335:2351   */\n      add\n        /* \"--CODEGEN--\":2329:2352   */\n      mload\n        /* \"--CODEGEN--\":2364:2426   */\n      tag_156\n        /* \"--CODEGEN--\":2420:2424   */\n      0x20\n        /* \"--CODEGEN--\":2415:2418   */\n      dup7\n        /* \"--CODEGEN--\":2411:2425   */\n      add\n        /* \"--CODEGEN--\":2398:2409   */\n      dup3\n        /* \"--CODEGEN--\":2364:2426   */\n      jump(tag_138)\n    tag_156:\n        /* \"--CODEGEN--\":2274:2438   */\n      pop\n        /* \"--CODEGEN--\":2520:2524   */\n      0x40\n        /* \"--CODEGEN--\":2513:2518   */\n      dup4\n        /* \"--CODEGEN--\":2509:2525   */\n      add\n        /* \"--CODEGEN--\":2503:2526   */\n      mload\n        /* \"--CODEGEN--\":2538:2600   */\n      tag_157\n        /* \"--CODEGEN--\":2594:2598   */\n      0x40\n        /* \"--CODEGEN--\":2589:2592   */\n      dup7\n        /* \"--CODEGEN--\":2585:2599   */\n      add\n        /* \"--CODEGEN--\":2572:2583   */\n      dup3\n        /* \"--CODEGEN--\":2538:2600   */\n      jump(tag_138)\n    tag_157:\n        /* \"--CODEGEN--\":2448:2612   */\n      pop\n        /* \"--CODEGEN--\":2692:2696   */\n      0x60\n        /* \"--CODEGEN--\":2685:2690   */\n      dup4\n        /* \"--CODEGEN--\":2681:2697   */\n      add\n        /* \"--CODEGEN--\":2675:2698   */\n      mload\n        /* \"--CODEGEN--\":2710:2772   */\n      tag_158\n        /* \"--CODEGEN--\":2766:2770   */\n      0x60\n        /* \"--CODEGEN--\":2761:2764   */\n      dup7\n        /* \"--CODEGEN--\":2757:2771   */\n      add\n        /* \"--CODEGEN--\":2744:2755   */\n      dup3\n        /* \"--CODEGEN--\":2710:2772   */\n      jump(tag_138)\n    tag_158:\n        /* \"--CODEGEN--\":2622:2784   */\n      pop\n        /* \"--CODEGEN--\":2861:2865   */\n      0x80\n        /* \"--CODEGEN--\":2854:2859   */\n      dup4\n        /* \"--CODEGEN--\":2850:2866   */\n      add\n        /* \"--CODEGEN--\":2844:2867   */\n      mload\n        /* \"--CODEGEN--\":2879:2941   */\n      tag_159\n        /* \"--CODEGEN--\":2935:2939   */\n      0x80\n        /* \"--CODEGEN--\":2930:2933   */\n      dup7\n        /* \"--CODEGEN--\":2926:2940   */\n      add\n        /* \"--CODEGEN--\":2913:2924   */\n      dup3\n        /* \"--CODEGEN--\":2879:2941   */\n      jump(tag_138)\n    tag_159:\n        /* \"--CODEGEN--\":2794:2953   */\n      pop\n        /* \"--CODEGEN--\":3033:3037   */\n      0xa0\n        /* \"--CODEGEN--\":3026:3031   */\n      dup4\n        /* \"--CODEGEN--\":3022:3038   */\n      add\n        /* \"--CODEGEN--\":3016:3039   */\n      mload\n        /* \"--CODEGEN--\":3051:3113   */\n      tag_160\n        /* \"--CODEGEN--\":3107:3111   */\n      0xa0\n        /* \"--CODEGEN--\":3102:3105   */\n      dup7\n        /* \"--CODEGEN--\":3098:3112   */\n      add\n        /* \"--CODEGEN--\":3085:3096   */\n      dup3\n        /* \"--CODEGEN--\":3051:3113   */\n      jump(tag_161)\n    tag_160:\n        /* \"--CODEGEN--\":2963:3125   */\n      pop\n        /* \"--CODEGEN--\":3204:3208   */\n      0xc0\n        /* \"--CODEGEN--\":3197:3202   */\n      dup4\n        /* \"--CODEGEN--\":3193:3209   */\n      add\n        /* \"--CODEGEN--\":3187:3210   */\n      mload\n        /* \"--CODEGEN--\":3222:3284   */\n      tag_162\n        /* \"--CODEGEN--\":3278:3282   */\n      0xc0\n        /* \"--CODEGEN--\":3273:3276   */\n      dup7\n        /* \"--CODEGEN--\":3269:3283   */\n      add\n        /* \"--CODEGEN--\":3256:3267   */\n      dup3\n        /* \"--CODEGEN--\":3222:3284   */\n      jump(tag_138)\n    tag_162:\n        /* \"--CODEGEN--\":3135:3296   */\n      pop\n        /* \"--CODEGEN--\":3373:3377   */\n      0xe0\n        /* \"--CODEGEN--\":3366:3371   */\n      dup4\n        /* \"--CODEGEN--\":3362:3378   */\n      add\n        /* \"--CODEGEN--\":3356:3379   */\n      mload\n        /* \"--CODEGEN--\":3391:3453   */\n      tag_163\n        /* \"--CODEGEN--\":3447:3451   */\n      0xe0\n        /* \"--CODEGEN--\":3442:3445   */\n      dup7\n        /* \"--CODEGEN--\":3438:3452   */\n      add\n        /* \"--CODEGEN--\":3425:3436   */\n      dup3\n        /* \"--CODEGEN--\":3391:3453   */\n      jump(tag_138)\n    tag_163:\n        /* \"--CODEGEN--\":3306:3465   */\n      pop\n        /* \"--CODEGEN--\":3540:3545   */\n      0x100\n        /* \"--CODEGEN--\":3533:3538   */\n      dup4\n        /* \"--CODEGEN--\":3529:3546   */\n      add\n        /* \"--CODEGEN--\":3523:3547   */\n      mload\n        /* \"--CODEGEN--\":3559:3622   */\n      tag_164\n        /* \"--CODEGEN--\":3615:3620   */\n      0x100\n        /* \"--CODEGEN--\":3610:3613   */\n      dup7\n        /* \"--CODEGEN--\":3606:3621   */\n      add\n        /* \"--CODEGEN--\":3593:3604   */\n      dup3\n        /* \"--CODEGEN--\":3559:3622   */\n      jump(tag_161)\n    tag_164:\n        /* \"--CODEGEN--\":3475:3634   */\n      pop\n        /* \"--CODEGEN--\":3714:3719   */\n      0x120\n        /* \"--CODEGEN--\":3707:3712   */\n      dup4\n        /* \"--CODEGEN--\":3703:3720   */\n      add\n        /* \"--CODEGEN--\":3697:3721   */\n      mload\n        /* \"--CODEGEN--\":3733:3796   */\n      tag_165\n        /* \"--CODEGEN--\":3789:3794   */\n      0x120\n        /* \"--CODEGEN--\":3784:3787   */\n      dup7\n        /* \"--CODEGEN--\":3780:3795   */\n      add\n        /* \"--CODEGEN--\":3767:3778   */\n      dup3\n        /* \"--CODEGEN--\":3733:3796   */\n      jump(tag_161)\n    tag_165:\n        /* \"--CODEGEN--\":3644:3808   */\n      pop\n        /* \"--CODEGEN--\":3891:3896   */\n      0x140\n        /* \"--CODEGEN--\":3884:3889   */\n      dup4\n        /* \"--CODEGEN--\":3880:3897   */\n      add\n        /* \"--CODEGEN--\":3874:3898   */\n      mload\n        /* \"--CODEGEN--\":3944:3947   */\n      dup5\n        /* \"--CODEGEN--\":3938:3942   */\n      dup3\n        /* \"--CODEGEN--\":3934:3948   */\n      sub\n        /* \"--CODEGEN--\":3926:3931   */\n      0x140\n        /* \"--CODEGEN--\":3921:3924   */\n      dup7\n        /* \"--CODEGEN--\":3917:3932   */\n      add\n        /* \"--CODEGEN--\":3910:3949   */\n      mstore\n        /* \"--CODEGEN--\":3964:4032   */\n      tag_166\n        /* \"--CODEGEN--\":4027:4031   */\n      dup3\n        /* \"--CODEGEN--\":4014:4025   */\n      dup3\n        /* \"--CODEGEN--\":3964:4032   */\n      jump(tag_142)\n    tag_166:\n        /* \"--CODEGEN--\":3956:4032   */\n      swap2\n      pop\n        /* \"--CODEGEN--\":3818:4044   */\n      pop\n        /* \"--CODEGEN--\":4123:4128   */\n      0x160\n        /* \"--CODEGEN--\":4116:4121   */\n      dup4\n        /* \"--CODEGEN--\":4112:4129   */\n      add\n        /* \"--CODEGEN--\":4106:4130   */\n      mload\n        /* \"--CODEGEN--\":4142:4199   */\n      tag_167\n        /* \"--CODEGEN--\":4192:4197   */\n      0x160\n        /* \"--CODEGEN--\":4187:4190   */\n      dup7\n        /* \"--CODEGEN--\":4183:4198   */\n      add\n        /* \"--CODEGEN--\":4170:4181   */\n      dup3\n        /* \"--CODEGEN--\":4142:4199   */\n      jump(tag_134)\n    tag_167:\n        /* \"--CODEGEN--\":4054:4211   */\n      pop\n        /* \"--CODEGEN--\":4228:4232   */\n      dup1\n        /* \"--CODEGEN--\":4221:4232   */\n      swap2\n      pop\n        /* \"--CODEGEN--\":2056:4237   */\n      pop\n      swap3\n      swap2\n      pop\n      pop\n      jump\n        /* \"--CODEGEN--\":4244:4354   */\n    tag_161:\n        /* \"--CODEGEN--\":4317:4348   */\n      tag_169\n        /* \"--CODEGEN--\":4342:4347   */\n      dup2\n        /* \"--CODEGEN--\":4317:4348   */\n      jump(tag_170)\n    tag_169:\n        /* \"--CODEGEN--\":4312:4315   */\n      dup3\n        /* \"--CODEGEN--\":4305:4349   */\n      mstore\n        /* \"--CODEGEN--\":4299:4354   */\n      pop\n      pop\n      jump\n        /* \"--CODEGEN--\":4361:4542   */\n    tag_48:\n      0x0\n        /* \"--CODEGEN--\":4463:4465   */\n      0x20\n        /* \"--CODEGEN--\":4452:4461   */\n      dup3\n        /* \"--CODEGEN--\":4448:4466   */\n      add\n        /* \"--CODEGEN--\":4440:4466   */\n      swap1\n      pop\n        /* \"--CODEGEN--\":4477:4532   */\n      tag_172\n        /* \"--CODEGEN--\":4529:4530   */\n      0x0\n        /* \"--CODEGEN--\":4518:4527   */\n      dup4\n        /* \"--CODEGEN--\":4514:4531   */\n      add\n        /* \"--CODEGEN--\":4505:4511   */\n      dup5\n        /* \"--CODEGEN--\":4477:4532   */\n      jump(tag_134)\n    tag_172:\n        /* \"--CODEGEN--\":4434:4542   */\n      swap3\n      swap2\n      pop\n      pop\n      jump\n        /* \"--CODEGEN--\":4549:4936   */\n    tag_66:\n      0x0\n        /* \"--CODEGEN--\":4730:4732   */\n      0x20\n        /* \"--CODEGEN--\":4719:4728   */\n      dup3\n        /* \"--CODEGEN--\":4715:4733   */\n      add\n        /* \"--CODEGEN--\":4707:4733   */\n      swap1\n      pop\n        /* \"--CODEGEN--\":4780:4789   */\n      dup2\n        /* \"--CODEGEN--\":4774:4778   */\n      dup2\n        /* \"--CODEGEN--\":4770:4790   */\n      sub\n        /* \"--CODEGEN--\":4766:4767   */\n      0x0\n        /* \"--CODEGEN--\":4755:4764   */\n      dup4\n        /* \"--CODEGEN--\":4751:4768   */\n      add\n        /* \"--CODEGEN--\":4744:4791   */\n      mstore\n        /* \"--CODEGEN--\":4805:4926   */\n      tag_174\n        /* \"--CODEGEN--\":4921:4925   */\n      dup2\n        /* \"--CODEGEN--\":4805:4926   */\n      jump(tag_150)\n    tag_174:\n        /* \"--CODEGEN--\":4797:4926   */\n      swap1\n      pop\n        /* \"--CODEGEN--\":4701:4936   */\n      swap2\n      swap1\n      pop\n      jump\n        /* \"--CODEGEN--\":4943:5330   */\n    tag_75:\n      0x0\n        /* \"--CODEGEN--\":5124:5126   */\n      0x20\n        /* \"--CODEGEN--\":5113:5122   */\n      dup3\n        /* \"--CODEGEN--\":5109:5127   */\n      add\n        /* \"--CODEGEN--\":5101:5127   */\n      swap1\n      pop\n        /* \"--CODEGEN--\":5174:5183   */\n      dup2\n        /* \"--CODEGEN--\":5168:5172   */\n      dup2\n        /* \"--CODEGEN--\":5164:5184   */\n      sub\n        /* \"--CODEGEN--\":5160:5161   */\n      0x0\n        /* \"--CODEGEN--\":5149:5158   */\n      dup4\n        /* \"--CODEGEN--\":5145:5162   */\n      add\n        /* \"--CODEGEN--\":5138:5185   */\n      mstore\n        /* \"--CODEGEN--\":5199:5320   */\n      tag_176\n        /* \"--CODEGEN--\":5315:5319   */\n      dup2\n        /* \"--CODEGEN--\":5199:5320   */\n      jump(tag_152)\n    tag_176:\n        /* \"--CODEGEN--\":5191:5320   */\n      swap1\n      pop\n        /* \"--CODEGEN--\":5095:5330   */\n      swap2\n      swap1\n      pop\n      jump\n        /* \"--CODEGEN--\":5337:5658   */\n    tag_26:\n      0x0\n        /* \"--CODEGEN--\":5485:5487   */\n      0x20\n        /* \"--CODEGEN--\":5474:5483   */\n      dup3\n        /* \"--CODEGEN--\":5470:5488   */\n      add\n        /* \"--CODEGEN--\":5462:5488   */\n      swap1\n      pop\n        /* \"--CODEGEN--\":5535:5544   */\n      dup2\n        /* \"--CODEGEN--\":5529:5533   */\n      dup2\n        /* \"--CODEGEN--\":5525:5545   */\n      sub\n        /* \"--CODEGEN--\":5521:5522   */\n      0x0\n        /* \"--CODEGEN--\":5510:5519   */\n      dup4\n        /* \"--CODEGEN--\":5506:5523   */\n      add\n        /* \"--CODEGEN--\":5499:5546   */\n      mstore\n        /* \"--CODEGEN--\":5560:5648   */\n      tag_178\n        /* \"--CODEGEN--\":5643:5647   */\n      dup2\n        /* \"--CODEGEN--\":5634:5640   */\n      dup5\n        /* \"--CODEGEN--\":5560:5648   */\n      jump(tag_154)\n    tag_178:\n        /* \"--CODEGEN--\":5552:5648   */\n      swap1\n      pop\n        /* \"--CODEGEN--\":5456:5658   */\n      swap3\n      swap2\n      pop\n      pop\n      jump\n        /* \"--CODEGEN--\":5665:5858   */\n    tag_16:\n      0x0\n        /* \"--CODEGEN--\":5773:5775   */\n      0x20\n        /* \"--CODEGEN--\":5762:5771   */\n      dup3\n        /* \"--CODEGEN--\":5758:5776   */\n      add\n        /* \"--CODEGEN--\":5750:5776   */\n      swap1\n      pop\n        /* \"--CODEGEN--\":5787:5848   */\n      tag_180\n        /* \"--CODEGEN--\":5845:5846   */\n      0x0\n        /* \"--CODEGEN--\":5834:5843   */\n      dup4\n        /* \"--CODEGEN--\":5830:5847   */\n      add\n        /* \"--CODEGEN--\":5821:5827   */\n      dup5\n        /* \"--CODEGEN--\":5787:5848   */\n      jump(tag_161)\n    tag_180:\n        /* \"--CODEGEN--\":5744:5858   */\n      swap3\n      swap2\n      pop\n      pop\n      jump\n        /* \"--CODEGEN--\":5865:5953   */\n    tag_144:\n      0x0\n        /* \"--CODEGEN--\":5942:5947   */\n      dup2\n        /* \"--CODEGEN--\":5936:5948   */\n      mload\n        /* \"--CODEGEN--\":5926:5948   */\n      swap1\n      pop\n        /* \"--CODEGEN--\":5920:5953   */\n      swap2\n      swap1\n      pop\n      jump\n        /* \"--CODEGEN--\":5960:6052   */\n    tag_136:\n      0x0\n        /* \"--CODEGEN--\":6040:6045   */\n      dup2\n        /* \"--CODEGEN--\":6033:6046   */\n      iszero\n        /* \"--CODEGEN--\":6026:6047   */\n      iszero\n        /* \"--CODEGEN--\":6015:6047   */\n      swap1\n      pop\n        /* \"--CODEGEN--\":6009:6052   */\n      swap2\n      swap1\n      pop\n      jump\n        /* \"--CODEGEN--\":6059:6138   */\n    tag_140:\n      0x0\n        /* \"--CODEGEN--\":6128:6133   */\n      dup2\n        /* \"--CODEGEN--\":6117:6133   */\n      swap1\n      pop\n        /* \"--CODEGEN--\":6111:6138   */\n      swap2\n      swap1\n      pop\n      jump\n        /* \"--CODEGEN--\":6145:6224   */\n    tag_170:\n      0x0\n        /* \"--CODEGEN--\":6214:6219   */\n      dup2\n        /* \"--CODEGEN--\":6203:6219   */\n      swap1\n      pop\n        /* \"--CODEGEN--\":6197:6224   */\n      swap2\n      swap1\n      pop\n      jump\n        /* \"--CODEGEN--\":6231:6310   */\n    tag_122:\n      0x0\n        /* \"--CODEGEN--\":6300:6305   */\n      dup2\n        /* \"--CODEGEN--\":6289:6305   */\n      swap1\n      pop\n        /* \"--CODEGEN--\":6283:6310   */\n      swap2\n      swap1\n      pop\n      jump\n        /* \"--CODEGEN--\":6317:6396   */\n    tag_126:\n      0x0\n        /* \"--CODEGEN--\":6386:6391   */\n      dup2\n        /* \"--CODEGEN--\":6375:6391   */\n      swap1\n      pop\n        /* \"--CODEGEN--\":6369:6396   */\n      swap2\n      swap1\n      pop\n      jump\n        /* \"--CODEGEN--\":6404:6672   */\n    tag_146:\n        /* \"--CODEGEN--\":6469:6470   */\n      0x0\n        /* \"--CODEGEN--\":6476:6577   */\n    tag_188:\n        /* \"--CODEGEN--\":6490:6496   */\n      dup4\n        /* \"--CODEGEN--\":6487:6488   */\n      dup2\n        /* \"--CODEGEN--\":6484:6497   */\n      lt\n        /* \"--CODEGEN--\":6476:6577   */\n      iszero\n      tag_189\n      jumpi\n        /* \"--CODEGEN--\":6566:6567   */\n      dup1\n        /* \"--CODEGEN--\":6561:6564   */\n      dup3\n        /* \"--CODEGEN--\":6557:6568   */\n      add\n        /* \"--CODEGEN--\":6551:6569   */\n      mload\n        /* \"--CODEGEN--\":6547:6548   */\n      dup2\n        /* \"--CODEGEN--\":6542:6545   */\n      dup5\n        /* \"--CODEGEN--\":6538:6549   */\n      add\n        /* \"--CODEGEN--\":6531:6570   */\n      mstore\n        /* \"--CODEGEN--\":6512:6514   */\n      0x20\n        /* \"--CODEGEN--\":6509:6510   */\n      dup2\n        /* \"--CODEGEN--\":6505:6515   */\n      add\n        /* \"--CODEGEN--\":6500:6515   */\n      swap1\n      pop\n        /* \"--CODEGEN--\":6476:6577   */\n      jump(tag_188)\n    tag_189:\n        /* \"--CODEGEN--\":6592:6598   */\n      dup4\n        /* \"--CODEGEN--\":6589:6590   */\n      dup2\n        /* \"--CODEGEN--\":6586:6599   */\n      gt\n        /* \"--CODEGEN--\":6583:6585   */\n      iszero\n      tag_191\n      jumpi\n        /* \"--CODEGEN--\":6657:6658   */\n      0x0\n        /* \"--CODEGEN--\":6648:6654   */\n      dup5\n        /* \"--CODEGEN--\":6643:6646   */\n      dup5\n        /* \"--CODEGEN--\":6639:6655   */\n      add\n        /* \"--CODEGEN--\":6632:6659   */\n      mstore\n        /* \"--CODEGEN--\":6583:6585   */\n    tag_191:\n        /* \"--CODEGEN--\":6453:6672   */\n      pop\n      pop\n      pop\n      pop\n      jump\n        /* \"--CODEGEN--\":6680:6777   */\n    tag_148:\n      0x0\n        /* \"--CODEGEN--\":6768:6770   */\n      0x1f\n        /* \"--CODEGEN--\":6764:6771   */\n      not\n        /* \"--CODEGEN--\":6759:6761   */\n      0x1f\n        /* \"--CODEGEN--\":6752:6757   */\n      dup4\n        /* \"--CODEGEN--\":6748:6762   */\n      add\n        /* \"--CODEGEN--\":6744:6772   */\n      and\n        /* \"--CODEGEN--\":6734:6772   */\n      swap1\n      pop\n        /* \"--CODEGEN--\":6728:6777   */\n      swap2\n      swap1\n      pop\n      jump\n\n    auxdata: 0xa265627a7a7230582057baf586c7721de82d7ffdd1b321e319a6b35df56ec589eba55fab0ac3c488e86c6578706572696d656e74616cf50037\n}\n",
				"bytecode": {
					"linkReferences": {},
					"object": "608060405234801561001057600080fd5b50611359806100206000396000f3006080604052600436106100a4576000357c0100000000000000000000000000000000000000000000000000000000900463ffffffff1680630d590f3e146100a957806325ad91ce146100d457806343308949146100eb5780635cb99c031461012857806364a66dc3146101655780636d8c5df1146101a25780638c857098146101df57806395d5712c1461021c578063bd36352514610259578063f87b771a14610284575b600080fd5b3480156100b557600080fd5b506100be6102af565b6040516100cb9190611281565b60405180910390f35b3480156100e057600080fd5b506100e96102bc565b005b3480156100f757600080fd5b50610112600480360361010d9190810190611006565b6104a6565b60405161011f919061125f565b60405180910390f35b34801561013457600080fd5b5061014f600480360361014a9190810190610fdd565b610691565b60405161015c919061125f565b60405180910390f35b34801561017157600080fd5b5061018c60048036036101879190810190611006565b610886565b604051610199919061125f565b60405180910390f35b3480156101ae57600080fd5b506101c960048036036101c49190810190611006565b610a71565b6040516101d6919061125f565b60405180910390f35b3480156101eb57600080fd5b5061020660048036036102019190810190611006565b610c5c565b6040516102139190611204565b60405180910390f35b34801561022857600080fd5b50610243600480360361023e9190810190610fdd565b610c88565b604051610250919061125f565b60405180910390f35b34801561026557600080fd5b5061026e610e7d565b60405161027b9190611281565b60405180910390f35b34801561029057600080fd5b50610299610e8a565b6040516102a69190611281565b60405180910390f35b6000600180549050905090565b600080600115156000803373ffffffffffffffffffffffffffffffffffffffff168152602001908152602001600020600b0160009054906101000a900460ff16151514151515610341576040517f08c379a00000000000000000000000000000000000000000000000000000000081526004016103389061121f565b60405180910390fd5b3373ffffffffffffffffffffffffffffffffffffffff16915060008083815260200190815260200160002090506000600102816000018160001916905550600060010281600101816000191690555060006001028160020181600019169055506000600102816003018160001916905550600060010281600401816000191690555060008160050181905550600060010281600601816000191690555060006001028160070181600019169055506000816008018190555060008160090181905550602060405190810160405280600081525081600a01908051906020019061042b929190610e97565b50600181600b0160006101000a81548160ff0219169083151502179055506001829080600181540180825580915050906001820390600052602060002001600090919290919091505550817f4caf2056c708d8e5f0be06bdeabc00f76c4f4a09efd0b8d19487beb9bb782cfb60405160405180910390a25050565b6104ae610f17565b600080838152602001908152602001600020600b0160009054906101000a900460ff161515610512576040517f08c379a00000000000000000000000000000000000000000000000000000000081526004016105099061123f565b60405180910390fd5b6000808381526020019081526020016000206101806040519081016040529081600082015460001916600019168152602001600182015460001916600019168152602001600282015460001916600019168152602001600382015460001916600019168152602001600482015460001916600019168152602001600582015481526020016006820154600019166000191681526020016007820154600019166000191681526020016008820154815260200160098201548152602001600a82018054600181600116156101000203166002900480601f0160208091040260200160405190810160405280929190818152602001828054600181600116156101000203166002900480156106665780601f1061063b57610100808354040283529160200191610666565b820191906000526020600020905b81548152906001019060200180831161064957829003601f168201915b50505050508152602001600b820160009054906101000a900460ff1615151515815250509050919050565b610699610f17565b600082600190049050600080828152602001908152602001600020600b0160009054906101000a900460ff161515610706576040517f08c379a00000000000000000000000000000000000000000000000000000000081526004016106fd9061123f565b60405180910390fd5b6000808281526020019081526020016000206101806040519081016040529081600082015460001916600019168152602001600182015460001916600019168152602001600282015460001916600019168152602001600382015460001916600019168152602001600482015460001916600019168152602001600582015481526020016006820154600019166000191681526020016007820154600019166000191681526020016008820154815260200160098201548152602001600a82018054600181600116156101000203166002900480601f01602080910402602001604051908101604052809291908181526020018280546001816001161561010002031660029004801561085a5780601f1061082f5761010080835404028352916020019161085a565b820191906000526020600020905b81548152906001019060200180831161083d57829003601f168201915b50505050508152602001600b820160009054906101000a900460ff161515151581525050915050919050565b61088e610f17565b600080838152602001908152602001600020600b0160009054906101000a900460ff1615156108f2576040517f08c379a00000000000000000000000000000000000000000000000000000000081526004016108e99061123f565b60405180910390fd5b6000808381526020019081526020016000206101806040519081016040529081600082015460001916600019168152602001600182015460001916600019168152602001600282015460001916600019168152602001600382015460001916600019168152602001600482015460001916600019168152602001600582015481526020016006820154600019166000191681526020016007820154600019166000191681526020016008820154815260200160098201548152602001600a82018054600181600116156101000203166002900480601f016020809104026020016040519081016040528092919081815260200182805460018160011615610100020316600290048015610a465780601f10610a1b57610100808354040283529160200191610a46565b820191906000526020600020905b815481529060010190602001808311610a2957829003601f168201915b50505050508152602001600b820160009054906101000a900460ff1615151515815250509050919050565b610a79610f17565b600080838152602001908152602001600020600b0160009054906101000a900460ff161515610add576040517f08c379a0000000000000000000000000000000000000000000000000000000008152600401610ad49061123f565b60405180910390fd5b6000808381526020019081526020016000206101806040519081016040529081600082015460001916600019168152602001600182015460001916600019168152602001600282015460001916600019168152602001600382015460001916600019168152602001600482015460001916600019168152602001600582015481526020016006820154600019166000191681526020016007820154600019166000191681526020016008820154815260200160098201548152602001600a82018054600181600116156101000203166002900480601f016020809104026020016040519081016040528092919081815260200182805460018160011615610100020316600290048015610c315780601f10610c0657610100808354040283529160200191610c31565b820191906000526020600020905b815481529060010190602001808311610c1457829003601f168201915b50505050508152602001600b820160009054906101000a900460ff1615151515815250509050919050565b6000806000838152602001908152602001600020600b0160009054906101000a900460ff169050919050565b610c90610f17565b600082600190049050600080828152602001908152602001600020600b0160009054906101000a900460ff161515610cfd576040517f08c379a0000000000000000000000000000000000000000000000000000000008152600401610cf49061123f565b60405180910390fd5b6000808281526020019081526020016000206101806040519081016040529081600082015460001916600019168152602001600182015460001916600019168152602001600282015460001916600019168152602001600382015460001916600019168152602001600482015460001916600019168152602001600582015481526020016006820154600019166000191681526020016007820154600019166000191681526020016008820154815260200160098201548152602001600a82018054600181600116156101000203166002900480601f016020809104026020016040519081016040528092919081815260200182805460018160011615610100020316600290048015610e515780601f10610e2657610100808354040283529160200191610e51565b820191906000526020600020905b815481529060010190602001808311610e3457829003601f168201915b50505050508152602001600b820160009054906101000a900460ff161515151581525050915050919050565b6000600180549050905090565b6000600180549050905090565b828054600181600116156101000203166002900490600052602060002090601f016020900481019282601f10610ed857805160ff1916838001178555610f06565b82800160010185558215610f06579182015b82811115610f05578251825591602001919060010190610eea565b5b509050610f139190610f90565b5090565b6101806040519081016040528060008019168152602001600080191681526020016000801916815260200160008019168152602001600080191681526020016000815260200160008019168152602001600080191681526020016000815260200160008152602001606081526020016000151581525090565b610fb291905b80821115610fae576000816000905550600101610f96565b5090565b90565b6000610fc182356112c7565b905092915050565b6000610fd582356112d1565b905092915050565b600060208284031215610fef57600080fd5b6000610ffd84828501610fb5565b91505092915050565b60006020828403121561101857600080fd5b600061102684828501610fc9565b91505092915050565b611038816112a7565b82525050565b611047816112b3565b82525050565b60006110588261129c565b80845261106c8160208601602086016112db565b6110758161130e565b602085010191505092915050565b6000601382527f5573657220616c726561647920657869737473000000000000000000000000006020830152604082019050919050565b6000601382527f5573657220646f6573206e6f74206578697374000000000000000000000000006020830152604082019050919050565b60006101808301600083015161110a600086018261103e565b50602083015161111d602086018261103e565b506040830151611130604086018261103e565b506060830151611143606086018261103e565b506080830151611156608086018261103e565b5060a083015161116960a08601826111f5565b5060c083015161117c60c086018261103e565b5060e083015161118f60e086018261103e565b506101008301516111a46101008601826111f5565b506101208301516111b96101208601826111f5565b506101408301518482036101408601526111d3828261104d565b9150506101608301516111ea61016086018261102f565b508091505092915050565b6111fe816112bd565b82525050565b6000602082019050611219600083018461102f565b92915050565b6000602082019050818103600083015261123881611083565b9050919050565b60006020820190508181036000830152611258816110ba565b9050919050565b6000602082019050818103600083015261127981846110f1565b905092915050565b600060208201905061129660008301846111f5565b92915050565b600081519050919050565b60008115159050919050565b6000819050919050565b6000819050919050565b6000819050919050565b6000819050919050565b60005b838110156112f95780820151818401526020810190506112de565b83811115611308576000848401525b50505050565b6000601f19601f83011690509190505600a265627a7a7230582057baf586c7721de82d7ffdd1b321e319a6b35df56ec589eba55fab0ac3c488e86c6578706572696d656e74616cf50037",
					"opcodes": "PUSH1 0x80 PUSH1 0x40 MSTORE CALLVALUE DUP1 ISZERO PUSH2 0x10 JUMPI PUSH1 0x0 DUP1 REVERT JUMPDEST POP PUSH2 0x1359 DUP1 PUSH2 0x20 PUSH1 0x0 CODECOPY PUSH1 0x0 RETURN STOP PUSH1 0x80 PUSH1 0x40 MSTORE PUSH1 0x4 CALLDATASIZE LT PUSH2 0xA4 JUMPI PUSH1 0x0 CALLDATALOAD PUSH29 0x100000000000000000000000000000000000000000000000000000000 SWAP1 DIV PUSH4 0xFFFFFFFF AND DUP1 PUSH4 0xD590F3E EQ PUSH2 0xA9 JUMPI DUP1 PUSH4 0x25AD91CE EQ PUSH2 0xD4 JUMPI DUP1 PUSH4 0x43308949 EQ PUSH2 0xEB JUMPI DUP1 PUSH4 0x5CB99C03 EQ PUSH2 0x128 JUMPI DUP1 PUSH4 0x64A66DC3 EQ PUSH2 0x165 JUMPI DUP1 PUSH4 0x6D8C5DF1 EQ PUSH2 0x1A2 JUMPI DUP1 PUSH4 0x8C857098 EQ PUSH2 0x1DF JUMPI DUP1 PUSH4 0x95D5712C EQ PUSH2 0x21C JUMPI DUP1 PUSH4 0xBD363525 EQ PUSH2 0x259 JUMPI DUP1 PUSH4 0xF87B771A EQ PUSH2 0x284 JUMPI JUMPDEST PUSH1 0x0 DUP1 REVERT JUMPDEST CALLVALUE DUP1 ISZERO PUSH2 0xB5 JUMPI PUSH1 0x0 DUP1 REVERT JUMPDEST POP PUSH2 0xBE PUSH2 0x2AF JUMP JUMPDEST PUSH1 0x40 MLOAD PUSH2 0xCB SWAP2 SWAP1 PUSH2 0x1281 JUMP JUMPDEST PUSH1 0x40 MLOAD DUP1 SWAP2 SUB SWAP1 RETURN JUMPDEST CALLVALUE DUP1 ISZERO PUSH2 0xE0 JUMPI PUSH1 0x0 DUP1 REVERT JUMPDEST POP PUSH2 0xE9 PUSH2 0x2BC JUMP JUMPDEST STOP JUMPDEST CALLVALUE DUP1 ISZERO PUSH2 0xF7 JUMPI PUSH1 0x0 DUP1 REVERT JUMPDEST POP PUSH2 0x112 PUSH1 0x4 DUP1 CALLDATASIZE SUB PUSH2 0x10D SWAP2 SWAP1 DUP2 ADD SWAP1 PUSH2 0x1006 JUMP JUMPDEST PUSH2 0x4A6 JUMP JUMPDEST PUSH1 0x40 MLOAD PUSH2 0x11F SWAP2 SWAP1 PUSH2 0x125F JUMP JUMPDEST PUSH1 0x40 MLOAD DUP1 SWAP2 SUB SWAP1 RETURN JUMPDEST CALLVALUE DUP1 ISZERO PUSH2 0x134 JUMPI PUSH1 0x0 DUP1 REVERT JUMPDEST POP PUSH2 0x14F PUSH1 0x4 DUP1 CALLDATASIZE SUB PUSH2 0x14A SWAP2 SWAP1 DUP2 ADD SWAP1 PUSH2 0xFDD JUMP JUMPDEST PUSH2 0x691 JUMP JUMPDEST PUSH1 0x40 MLOAD PUSH2 0x15C SWAP2 SWAP1 PUSH2 0x125F JUMP JUMPDEST PUSH1 0x40 MLOAD DUP1 SWAP2 SUB SWAP1 RETURN JUMPDEST CALLVALUE DUP1 ISZERO PUSH2 0x171 JUMPI PUSH1 0x0 DUP1 REVERT JUMPDEST POP PUSH2 0x18C PUSH1 0x4 DUP1 CALLDATASIZE SUB PUSH2 0x187 SWAP2 SWAP1 DUP2 ADD SWAP1 PUSH2 0x1006 JUMP JUMPDEST PUSH2 0x886 JUMP JUMPDEST PUSH1 0x40 MLOAD PUSH2 0x199 SWAP2 SWAP1 PUSH2 0x125F JUMP JUMPDEST PUSH1 0x40 MLOAD DUP1 SWAP2 SUB SWAP1 RETURN JUMPDEST CALLVALUE DUP1 ISZERO PUSH2 0x1AE JUMPI PUSH1 0x0 DUP1 REVERT JUMPDEST POP PUSH2 0x1C9 PUSH1 0x4 DUP1 CALLDATASIZE SUB PUSH2 0x1C4 SWAP2 SWAP1 DUP2 ADD SWAP1 PUSH2 0x1006 JUMP JUMPDEST PUSH2 0xA71 JUMP JUMPDEST PUSH1 0x40 MLOAD PUSH2 0x1D6 SWAP2 SWAP1 PUSH2 0x125F JUMP JUMPDEST PUSH1 0x40 MLOAD DUP1 SWAP2 SUB SWAP1 RETURN JUMPDEST CALLVALUE DUP1 ISZERO PUSH2 0x1EB JUMPI PUSH1 0x0 DUP1 REVERT JUMPDEST POP PUSH2 0x206 PUSH1 0x4 DUP1 CALLDATASIZE SUB PUSH2 0x201 SWAP2 SWAP1 DUP2 ADD SWAP1 PUSH2 0x1006 JUMP JUMPDEST PUSH2 0xC5C JUMP JUMPDEST PUSH1 0x40 MLOAD PUSH2 0x213 SWAP2 SWAP1 PUSH2 0x1204 JUMP JUMPDEST PUSH1 0x40 MLOAD DUP1 SWAP2 SUB SWAP1 RETURN JUMPDEST CALLVALUE DUP1 ISZERO PUSH2 0x228 JUMPI PUSH1 0x0 DUP1 REVERT JUMPDEST POP PUSH2 0x243 PUSH1 0x4 DUP1 CALLDATASIZE SUB PUSH2 0x23E SWAP2 SWAP1 DUP2 ADD SWAP1 PUSH2 0xFDD JUMP JUMPDEST PUSH2 0xC88 JUMP JUMPDEST PUSH1 0x40 MLOAD PUSH2 0x250 SWAP2 SWAP1 PUSH2 0x125F JUMP JUMPDEST PUSH1 0x40 MLOAD DUP1 SWAP2 SUB SWAP1 RETURN JUMPDEST CALLVALUE DUP1 ISZERO PUSH2 0x265 JUMPI PUSH1 0x0 DUP1 REVERT JUMPDEST POP PUSH2 0x26E PUSH2 0xE7D JUMP JUMPDEST PUSH1 0x40 MLOAD PUSH2 0x27B SWAP2 SWAP1 PUSH2 0x1281 JUMP JUMPDEST PUSH1 0x40 MLOAD DUP1 SWAP2 SUB SWAP1 RETURN JUMPDEST CALLVALUE DUP1 ISZERO PUSH2 0x290 JUMPI PUSH1 0x0 DUP1 REVERT JUMPDEST POP PUSH2 0x299 PUSH2 0xE8A JUMP JUMPDEST PUSH1 0x40 MLOAD PUSH2 0x2A6 SWAP2 SWAP1 PUSH2 0x1281 JUMP JUMPDEST PUSH1 0x40 MLOAD DUP1 SWAP2 SUB SWAP1 RETURN JUMPDEST PUSH1 0x0 PUSH1 0x1 DUP1 SLOAD SWAP1 POP SWAP1 POP SWAP1 JUMP JUMPDEST PUSH1 0x0 DUP1 PUSH1 0x1 ISZERO ISZERO PUSH1 0x0 DUP1 CALLER PUSH20 0xFFFFFFFFFFFFFFFFFFFFFFFFFFFFFFFFFFFFFFFF AND DUP2 MSTORE PUSH1 0x20 ADD SWAP1 DUP2 MSTORE PUSH1 0x20 ADD PUSH1 0x0 KECCAK256 PUSH1 0xB ADD PUSH1 0x0 SWAP1 SLOAD SWAP1 PUSH2 0x100 EXP SWAP1 DIV PUSH1 0xFF AND ISZERO ISZERO EQ ISZERO ISZERO ISZERO PUSH2 0x341 JUMPI PUSH1 0x40 MLOAD PUSH32 0x8C379A000000000000000000000000000000000000000000000000000000000 DUP2 MSTORE PUSH1 0x4 ADD PUSH2 0x338 SWAP1 PUSH2 0x121F JUMP JUMPDEST PUSH1 0x40 MLOAD DUP1 SWAP2 SUB SWAP1 REVERT JUMPDEST CALLER PUSH20 0xFFFFFFFFFFFFFFFFFFFFFFFFFFFFFFFFFFFFFFFF AND SWAP2 POP PUSH1 0x0 DUP1 DUP4 DUP2 MSTORE PUSH1 0x20 ADD SWAP1 DUP2 MSTORE PUSH1 0x20 ADD PUSH1 0x0 KECCAK256 SWAP1 POP PUSH1 0x0 PUSH1 0x1 MUL DUP2 PUSH1 0x0 ADD DUP2 PUSH1 0x0 NOT AND SWAP1 SSTORE POP PUSH1 0x0 PUSH1 0x1 MUL DUP2 PUSH1 0x1 ADD DUP2 PUSH1 0x0 NOT AND SWAP1 SSTORE POP PUSH1 0x0 PUSH1 0x1 MUL DUP2 PUSH1 0x2 ADD DUP2 PUSH1 0x0 NOT AND SWAP1 SSTORE POP PUSH1 0x0 PUSH1 0x1 MUL DUP2 PUSH1 0x3 ADD DUP2 PUSH1 0x0 NOT AND SWAP1 SSTORE POP PUSH1 0x0 PUSH1 0x1 MUL DUP2 PUSH1 0x4 ADD DUP2 PUSH1 0x0 NOT AND SWAP1 SSTORE POP PUSH1 0x0 DUP2 PUSH1 0x5 ADD DUP2 SWAP1 SSTORE POP PUSH1 0x0 PUSH1 0x1 MUL DUP2 PUSH1 0x6 ADD DUP2 PUSH1 0x0 NOT AND SWAP1 SSTORE POP PUSH1 0x0 PUSH1 0x1 MUL DUP2 PUSH1 0x7 ADD DUP2 PUSH1 0x0 NOT AND SWAP1 SSTORE POP PUSH1 0x0 DUP2 PUSH1 0x8 ADD DUP2 SWAP1 SSTORE POP PUSH1 0x0 DUP2 PUSH1 0x9 ADD DUP2 SWAP1 SSTORE POP PUSH1 0x20 PUSH1 0x40 MLOAD SWAP1 DUP2 ADD PUSH1 0x40 MSTORE DUP1 PUSH1 0x0 DUP2 MSTORE POP DUP2 PUSH1 0xA ADD SWAP1 DUP1 MLOAD SWAP1 PUSH1 0x20 ADD SWAP1 PUSH2 0x42B SWAP3 SWAP2 SWAP1 PUSH2 0xE97 JUMP JUMPDEST POP PUSH1 0x1 DUP2 PUSH1 0xB ADD PUSH1 0x0 PUSH2 0x100 EXP DUP2 SLOAD DUP2 PUSH1 0xFF MUL NOT AND SWAP1 DUP4 ISZERO ISZERO MUL OR SWAP1 SSTORE POP PUSH1 0x1 DUP3 SWAP1 DUP1 PUSH1 0x1 DUP2 SLOAD ADD DUP1 DUP3 SSTORE DUP1 SWAP2 POP POP SWAP1 PUSH1 0x1 DUP3 SUB SWAP1 PUSH1 0x0 MSTORE PUSH1 0x20 PUSH1 0x0 KECCAK256 ADD PUSH1 0x0 SWAP1 SWAP2 SWAP3 SWAP1 SWAP2 SWAP1 SWAP2 POP SSTORE POP DUP2 PUSH32 0x4CAF2056C708D8E5F0BE06BDEABC00F76C4F4A09EFD0B8D19487BEB9BB782CFB PUSH1 0x40 MLOAD PUSH1 0x40 MLOAD DUP1 SWAP2 SUB SWAP1 LOG2 POP POP JUMP JUMPDEST PUSH2 0x4AE PUSH2 0xF17 JUMP JUMPDEST PUSH1 0x0 DUP1 DUP4 DUP2 MSTORE PUSH1 0x20 ADD SWAP1 DUP2 MSTORE PUSH1 0x20 ADD PUSH1 0x0 KECCAK256 PUSH1 0xB ADD PUSH1 0x0 SWAP1 SLOAD SWAP1 PUSH2 0x100 EXP SWAP1 DIV PUSH1 0xFF AND ISZERO ISZERO PUSH2 0x512 JUMPI PUSH1 0x40 MLOAD PUSH32 0x8C379A000000000000000000000000000000000000000000000000000000000 DUP2 MSTORE PUSH1 0x4 ADD PUSH2 0x509 SWAP1 PUSH2 0x123F JUMP JUMPDEST PUSH1 0x40 MLOAD DUP1 SWAP2 SUB SWAP1 REVERT JUMPDEST PUSH1 0x0 DUP1 DUP4 DUP2 MSTORE PUSH1 0x20 ADD SWAP1 DUP2 MSTORE PUSH1 0x20 ADD PUSH1 0x0 KECCAK256 PUSH2 0x180 PUSH1 0x40 MLOAD SWAP1 DUP2 ADD PUSH1 0x40 MSTORE SWAP1 DUP2 PUSH1 0x0 DUP3 ADD SLOAD PUSH1 0x0 NOT AND PUSH1 0x0 NOT AND DUP2 MSTORE PUSH1 0x20 ADD PUSH1 0x1 DUP3 ADD SLOAD PUSH1 0x0 NOT AND PUSH1 0x0 NOT AND DUP2 MSTORE PUSH1 0x20 ADD PUSH1 0x2 DUP3 ADD SLOAD PUSH1 0x0 NOT AND PUSH1 0x0 NOT AND DUP2 MSTORE PUSH1 0x20 ADD PUSH1 0x3 DUP3 ADD SLOAD PUSH1 0x0 NOT AND PUSH1 0x0 NOT AND DUP2 MSTORE PUSH1 0x20 ADD PUSH1 0x4 DUP3 ADD SLOAD PUSH1 0x0 NOT AND PUSH1 0x0 NOT AND DUP2 MSTORE PUSH1 0x20 ADD PUSH1 0x5 DUP3 ADD SLOAD DUP2 MSTORE PUSH1 0x20 ADD PUSH1 0x6 DUP3 ADD SLOAD PUSH1 0x0 NOT AND PUSH1 0x0 NOT AND DUP2 MSTORE PUSH1 0x20 ADD PUSH1 0x7 DUP3 ADD SLOAD PUSH1 0x0 NOT AND PUSH1 0x0 NOT AND DUP2 MSTORE PUSH1 0x20 ADD PUSH1 0x8 DUP3 ADD SLOAD DUP2 MSTORE PUSH1 0x20 ADD PUSH1 0x9 DUP3 ADD SLOAD DUP2 MSTORE PUSH1 0x20 ADD PUSH1 0xA DUP3 ADD DUP1 SLOAD PUSH1 0x1 DUP2 PUSH1 0x1 AND ISZERO PUSH2 0x100 MUL SUB AND PUSH1 0x2 SWAP1 DIV DUP1 PUSH1 0x1F ADD PUSH1 0x20 DUP1 SWAP2 DIV MUL PUSH1 0x20 ADD PUSH1 0x40 MLOAD SWAP1 DUP2 ADD PUSH1 0x40 MSTORE DUP1 SWAP3 SWAP2 SWAP1 DUP2 DUP2 MSTORE PUSH1 0x20 ADD DUP3 DUP1 SLOAD PUSH1 0x1 DUP2 PUSH1 0x1 AND ISZERO PUSH2 0x100 MUL SUB AND PUSH1 0x2 SWAP1 DIV DUP1 ISZERO PUSH2 0x666 JUMPI DUP1 PUSH1 0x1F LT PUSH2 0x63B JUMPI PUSH2 0x100 DUP1 DUP4 SLOAD DIV MUL DUP4 MSTORE SWAP2 PUSH1 0x20 ADD SWAP2 PUSH2 0x666 JUMP JUMPDEST DUP3 ADD SWAP2 SWAP1 PUSH1 0x0 MSTORE PUSH1 0x20 PUSH1 0x0 KECCAK256 SWAP1 JUMPDEST DUP2 SLOAD DUP2 MSTORE SWAP1 PUSH1 0x1 ADD SWAP1 PUSH1 0x20 ADD DUP1 DUP4 GT PUSH2 0x649 JUMPI DUP3 SWAP1 SUB PUSH1 0x1F AND DUP3 ADD SWAP2 JUMPDEST POP POP POP POP POP DUP2 MSTORE PUSH1 0x20 ADD PUSH1 0xB DUP3 ADD PUSH1 0x0 SWAP1 SLOAD SWAP1 PUSH2 0x100 EXP SWAP1 DIV PUSH1 0xFF AND ISZERO ISZERO ISZERO ISZERO DUP2 MSTORE POP POP SWAP1 POP SWAP2 SWAP1 POP JUMP JUMPDEST PUSH2 0x699 PUSH2 0xF17 JUMP JUMPDEST PUSH1 0x0 DUP3 PUSH1 0x1 SWAP1 DIV SWAP1 POP PUSH1 0x0 DUP1 DUP3 DUP2 MSTORE PUSH1 0x20 ADD SWAP1 DUP2 MSTORE PUSH1 0x20 ADD PUSH1 0x0 KECCAK256 PUSH1 0xB ADD PUSH1 0x0 SWAP1 SLOAD SWAP1 PUSH2 0x100 EXP SWAP1 DIV PUSH1 0xFF AND ISZERO ISZERO PUSH2 0x706 JUMPI PUSH1 0x40 MLOAD PUSH32 0x8C379A000000000000000000000000000000000000000000000000000000000 DUP2 MSTORE PUSH1 0x4 ADD PUSH2 0x6FD SWAP1 PUSH2 0x123F JUMP JUMPDEST PUSH1 0x40 MLOAD DUP1 SWAP2 SUB SWAP1 REVERT JUMPDEST PUSH1 0x0 DUP1 DUP3 DUP2 MSTORE PUSH1 0x20 ADD SWAP1 DUP2 MSTORE PUSH1 0x20 ADD PUSH1 0x0 KECCAK256 PUSH2 0x180 PUSH1 0x40 MLOAD SWAP1 DUP2 ADD PUSH1 0x40 MSTORE SWAP1 DUP2 PUSH1 0x0 DUP3 ADD SLOAD PUSH1 0x0 NOT AND PUSH1 0x0 NOT AND DUP2 MSTORE PUSH1 0x20 ADD PUSH1 0x1 DUP3 ADD SLOAD PUSH1 0x0 NOT AND PUSH1 0x0 NOT AND DUP2 MSTORE PUSH1 0x20 ADD PUSH1 0x2 DUP3 ADD SLOAD PUSH1 0x0 NOT AND PUSH1 0x0 NOT AND DUP2 MSTORE PUSH1 0x20 ADD PUSH1 0x3 DUP3 ADD SLOAD PUSH1 0x0 NOT AND PUSH1 0x0 NOT AND DUP2 MSTORE PUSH1 0x20 ADD PUSH1 0x4 DUP3 ADD SLOAD PUSH1 0x0 NOT AND PUSH1 0x0 NOT AND DUP2 MSTORE PUSH1 0x20 ADD PUSH1 0x5 DUP3 ADD SLOAD DUP2 MSTORE PUSH1 0x20 ADD PUSH1 0x6 DUP3 ADD SLOAD PUSH1 0x0 NOT AND PUSH1 0x0 NOT AND DUP2 MSTORE PUSH1 0x20 ADD PUSH1 0x7 DUP3 ADD SLOAD PUSH1 0x0 NOT AND PUSH1 0x0 NOT AND DUP2 MSTORE PUSH1 0x20 ADD PUSH1 0x8 DUP3 ADD SLOAD DUP2 MSTORE PUSH1 0x20 ADD PUSH1 0x9 DUP3 ADD SLOAD DUP2 MSTORE PUSH1 0x20 ADD PUSH1 0xA DUP3 ADD DUP1 SLOAD PUSH1 0x1 DUP2 PUSH1 0x1 AND ISZERO PUSH2 0x100 MUL SUB AND PUSH1 0x2 SWAP1 DIV DUP1 PUSH1 0x1F ADD PUSH1 0x20 DUP1 SWAP2 DIV MUL PUSH1 0x20 ADD PUSH1 0x40 MLOAD SWAP1 DUP2 ADD PUSH1 0x40 MSTORE DUP1 SWAP3 SWAP2 SWAP1 DUP2 DUP2 MSTORE PUSH1 0x20 ADD DUP3 DUP1 SLOAD PUSH1 0x1 DUP2 PUSH1 0x1 AND ISZERO PUSH2 0x100 MUL SUB AND PUSH1 0x2 SWAP1 DIV DUP1 ISZERO PUSH2 0x85A JUMPI DUP1 PUSH1 0x1F LT PUSH2 0x82F JUMPI PUSH2 0x100 DUP1 DUP4 SLOAD DIV MUL DUP4 MSTORE SWAP2 PUSH1 0x20 ADD SWAP2 PUSH2 0x85A JUMP JUMPDEST DUP3 ADD SWAP2 SWAP1 PUSH1 0x0 MSTORE PUSH1 0x20 PUSH1 0x0 KECCAK256 SWAP1 JUMPDEST DUP2 SLOAD DUP2 MSTORE SWAP1 PUSH1 0x1 ADD SWAP1 PUSH1 0x20 ADD DUP1 DUP4 GT PUSH2 0x83D JUMPI DUP3 SWAP1 SUB PUSH1 0x1F AND DUP3 ADD SWAP2 JUMPDEST POP POP POP POP POP DUP2 MSTORE PUSH1 0x20 ADD PUSH1 0xB DUP3 ADD PUSH1 0x0 SWAP1 SLOAD SWAP1 PUSH2 0x100 EXP SWAP1 DIV PUSH1 0xFF AND ISZERO ISZERO ISZERO ISZERO DUP2 MSTORE POP POP SWAP2 POP POP SWAP2 SWAP1 POP JUMP JUMPDEST PUSH2 0x88E PUSH2 0xF17 JUMP JUMPDEST PUSH1 0x0 DUP1 DUP4 DUP2 MSTORE PUSH1 0x20 ADD SWAP1 DUP2 MSTORE PUSH1 0x20 ADD PUSH1 0x0 KECCAK256 PUSH1 0xB ADD PUSH1 0x0 SWAP1 SLOAD SWAP1 PUSH2 0x100 EXP SWAP1 DIV PUSH1 0xFF AND ISZERO ISZERO PUSH2 0x8F2 JUMPI PUSH1 0x40 MLOAD PUSH32 0x8C379A000000000000000000000000000000000000000000000000000000000 DUP2 MSTORE PUSH1 0x4 ADD PUSH2 0x8E9 SWAP1 PUSH2 0x123F JUMP JUMPDEST PUSH1 0x40 MLOAD DUP1 SWAP2 SUB SWAP1 REVERT JUMPDEST PUSH1 0x0 DUP1 DUP4 DUP2 MSTORE PUSH1 0x20 ADD SWAP1 DUP2 MSTORE PUSH1 0x20 ADD PUSH1 0x0 KECCAK256 PUSH2 0x180 PUSH1 0x40 MLOAD SWAP1 DUP2 ADD PUSH1 0x40 MSTORE SWAP1 DUP2 PUSH1 0x0 DUP3 ADD SLOAD PUSH1 0x0 NOT AND PUSH1 0x0 NOT AND DUP2 MSTORE PUSH1 0x20 ADD PUSH1 0x1 DUP3 ADD SLOAD PUSH1 0x0 NOT AND PUSH1 0x0 NOT AND DUP2 MSTORE PUSH1 0x20 ADD PUSH1 0x2 DUP3 ADD SLOAD PUSH1 0x0 NOT AND PUSH1 0x0 NOT AND DUP2 MSTORE PUSH1 0x20 ADD PUSH1 0x3 DUP3 ADD SLOAD PUSH1 0x0 NOT AND PUSH1 0x0 NOT AND DUP2 MSTORE PUSH1 0x20 ADD PUSH1 0x4 DUP3 ADD SLOAD PUSH1 0x0 NOT AND PUSH1 0x0 NOT AND DUP2 MSTORE PUSH1 0x20 ADD PUSH1 0x5 DUP3 ADD SLOAD DUP2 MSTORE PUSH1 0x20 ADD PUSH1 0x6 DUP3 ADD SLOAD PUSH1 0x0 NOT AND PUSH1 0x0 NOT AND DUP2 MSTORE PUSH1 0x20 ADD PUSH1 0x7 DUP3 ADD SLOAD PUSH1 0x0 NOT AND PUSH1 0x0 NOT AND DUP2 MSTORE PUSH1 0x20 ADD PUSH1 0x8 DUP3 ADD SLOAD DUP2 MSTORE PUSH1 0x20 ADD PUSH1 0x9 DUP3 ADD SLOAD DUP2 MSTORE PUSH1 0x20 ADD PUSH1 0xA DUP3 ADD DUP1 SLOAD PUSH1 0x1 DUP2 PUSH1 0x1 AND ISZERO PUSH2 0x100 MUL SUB AND PUSH1 0x2 SWAP1 DIV DUP1 PUSH1 0x1F ADD PUSH1 0x20 DUP1 SWAP2 DIV MUL PUSH1 0x20 ADD PUSH1 0x40 MLOAD SWAP1 DUP2 ADD PUSH1 0x40 MSTORE DUP1 SWAP3 SWAP2 SWAP1 DUP2 DUP2 MSTORE PUSH1 0x20 ADD DUP3 DUP1 SLOAD PUSH1 0x1 DUP2 PUSH1 0x1 AND ISZERO PUSH2 0x100 MUL SUB AND PUSH1 0x2 SWAP1 DIV DUP1 ISZERO PUSH2 0xA46 JUMPI DUP1 PUSH1 0x1F LT PUSH2 0xA1B JUMPI PUSH2 0x100 DUP1 DUP4 SLOAD DIV MUL DUP4 MSTORE SWAP2 PUSH1 0x20 ADD SWAP2 PUSH2 0xA46 JUMP JUMPDEST DUP3 ADD SWAP2 SWAP1 PUSH1 0x0 MSTORE PUSH1 0x20 PUSH1 0x0 KECCAK256 SWAP1 JUMPDEST DUP2 SLOAD DUP2 MSTORE SWAP1 PUSH1 0x1 ADD SWAP1 PUSH1 0x20 ADD DUP1 DUP4 GT PUSH2 0xA29 JUMPI DUP3 SWAP1 SUB PUSH1 0x1F AND DUP3 ADD SWAP2 JUMPDEST POP POP POP POP POP DUP2 MSTORE PUSH1 0x20 ADD PUSH1 0xB DUP3 ADD PUSH1 0x0 SWAP1 SLOAD SWAP1 PUSH2 0x100 EXP SWAP1 DIV PUSH1 0xFF AND ISZERO ISZERO ISZERO ISZERO DUP2 MSTORE POP POP SWAP1 POP SWAP2 SWAP1 POP JUMP JUMPDEST PUSH2 0xA79 PUSH2 0xF17 JUMP JUMPDEST PUSH1 0x0 DUP1 DUP4 DUP2 MSTORE PUSH1 0x20 ADD SWAP1 DUP2 MSTORE PUSH1 0x20 ADD PUSH1 0x0 KECCAK256 PUSH1 0xB ADD PUSH1 0x0 SWAP1 SLOAD SWAP1 PUSH2 0x100 EXP SWAP1 DIV PUSH1 0xFF AND ISZERO ISZERO PUSH2 0xADD JUMPI PUSH1 0x40 MLOAD PUSH32 0x8C379A000000000000000000000000000000000000000000000000000000000 DUP2 MSTORE PUSH1 0x4 ADD PUSH2 0xAD4 SWAP1 PUSH2 0x123F JUMP JUMPDEST PUSH1 0x40 MLOAD DUP1 SWAP2 SUB SWAP1 REVERT JUMPDEST PUSH1 0x0 DUP1 DUP4 DUP2 MSTORE PUSH1 0x20 ADD SWAP1 DUP2 MSTORE PUSH1 0x20 ADD PUSH1 0x0 KECCAK256 PUSH2 0x180 PUSH1 0x40 MLOAD SWAP1 DUP2 ADD PUSH1 0x40 MSTORE SWAP1 DUP2 PUSH1 0x0 DUP3 ADD SLOAD PUSH1 0x0 NOT AND PUSH1 0x0 NOT AND DUP2 MSTORE PUSH1 0x20 ADD PUSH1 0x1 DUP3 ADD SLOAD PUSH1 0x0 NOT AND PUSH1 0x0 NOT AND DUP2 MSTORE PUSH1 0x20 ADD PUSH1 0x2 DUP3 ADD SLOAD PUSH1 0x0 NOT AND PUSH1 0x0 NOT AND DUP2 MSTORE PUSH1 0x20 ADD PUSH1 0x3 DUP3 ADD SLOAD PUSH1 0x0 NOT AND PUSH1 0x0 NOT AND DUP2 MSTORE PUSH1 0x20 ADD PUSH1 0x4 DUP3 ADD SLOAD PUSH1 0x0 NOT AND PUSH1 0x0 NOT AND DUP2 MSTORE PUSH1 0x20 ADD PUSH1 0x5 DUP3 ADD SLOAD DUP2 MSTORE PUSH1 0x20 ADD PUSH1 0x6 DUP3 ADD SLOAD PUSH1 0x0 NOT AND PUSH1 0x0 NOT AND DUP2 MSTORE PUSH1 0x20 ADD PUSH1 0x7 DUP3 ADD SLOAD PUSH1 0x0 NOT AND PUSH1 0x0 NOT AND DUP2 MSTORE PUSH1 0x20 ADD PUSH1 0x8 DUP3 ADD SLOAD DUP2 MSTORE PUSH1 0x20 ADD PUSH1 0x9 DUP3 ADD SLOAD DUP2 MSTORE PUSH1 0x20 ADD PUSH1 0xA DUP3 ADD DUP1 SLOAD PUSH1 0x1 DUP2 PUSH1 0x1 AND ISZERO PUSH2 0x100 MUL SUB AND PUSH1 0x2 SWAP1 DIV DUP1 PUSH1 0x1F ADD PUSH1 0x20 DUP1 SWAP2 DIV MUL PUSH1 0x20 ADD PUSH1 0x40 MLOAD SWAP1 DUP2 ADD PUSH1 0x40 MSTORE DUP1 SWAP3 SWAP2 SWAP1 DUP2 DUP2 MSTORE PUSH1 0x20 ADD DUP3 DUP1 SLOAD PUSH1 0x1 DUP2 PUSH1 0x1 AND ISZERO PUSH2 0x100 MUL SUB AND PUSH1 0x2 SWAP1 DIV DUP1 ISZERO PUSH2 0xC31 JUMPI DUP1 PUSH1 0x1F LT PUSH2 0xC06 JUMPI PUSH2 0x100 DUP1 DUP4 SLOAD DIV MUL DUP4 MSTORE SWAP2 PUSH1 0x20 ADD SWAP2 PUSH2 0xC31 JUMP JUMPDEST DUP3 ADD SWAP2 SWAP1 PUSH1 0x0 MSTORE PUSH1 0x20 PUSH1 0x0 KECCAK256 SWAP1 JUMPDEST DUP2 SLOAD DUP2 MSTORE SWAP1 PUSH1 0x1 ADD SWAP1 PUSH1 0x20 ADD DUP1 DUP4 GT PUSH2 0xC14 JUMPI DUP3 SWAP1 SUB PUSH1 0x1F AND DUP3 ADD SWAP2 JUMPDEST POP POP POP POP POP DUP2 MSTORE PUSH1 0x20 ADD PUSH1 0xB DUP3 ADD PUSH1 0x0 SWAP1 SLOAD SWAP1 PUSH2 0x100 EXP SWAP1 DIV PUSH1 0xFF AND ISZERO ISZERO ISZERO ISZERO DUP2 MSTORE POP POP SWAP1 POP SWAP2 SWAP1 POP JUMP JUMPDEST PUSH1 0x0 DUP1 PUSH1 0x0 DUP4 DUP2 MSTORE PUSH1 0x20 ADD SWAP1 DUP2 MSTORE PUSH1 0x20 ADD PUSH1 0x0 KECCAK256 PUSH1 0xB ADD PUSH1 0x0 SWAP1 SLOAD SWAP1 PUSH2 0x100 EXP SWAP1 DIV PUSH1 0xFF AND SWAP1 POP SWAP2 SWAP1 POP JUMP JUMPDEST PUSH2 0xC90 PUSH2 0xF17 JUMP JUMPDEST PUSH1 0x0 DUP3 PUSH1 0x1 SWAP1 DIV SWAP1 POP PUSH1 0x0 DUP1 DUP3 DUP2 MSTORE PUSH1 0x20 ADD SWAP1 DUP2 MSTORE PUSH1 0x20 ADD PUSH1 0x0 KECCAK256 PUSH1 0xB ADD PUSH1 0x0 SWAP1 SLOAD SWAP1 PUSH2 0x100 EXP SWAP1 DIV PUSH1 0xFF AND ISZERO ISZERO PUSH2 0xCFD JUMPI PUSH1 0x40 MLOAD PUSH32 0x8C379A000000000000000000000000000000000000000000000000000000000 DUP2 MSTORE PUSH1 0x4 ADD PUSH2 0xCF4 SWAP1 PUSH2 0x123F JUMP JUMPDEST PUSH1 0x40 MLOAD DUP1 SWAP2 SUB SWAP1 REVERT JUMPDEST PUSH1 0x0 DUP1 DUP3 DUP2 MSTORE PUSH1 0x20 ADD SWAP1 DUP2 MSTORE PUSH1 0x20 ADD PUSH1 0x0 KECCAK256 PUSH2 0x180 PUSH1 0x40 MLOAD SWAP1 DUP2 ADD PUSH1 0x40 MSTORE SWAP1 DUP2 PUSH1 0x0 DUP3 ADD SLOAD PUSH1 0x0 NOT AND PUSH1 0x0 NOT AND DUP2 MSTORE PUSH1 0x20 ADD PUSH1 0x1 DUP3 ADD SLOAD PUSH1 0x0 NOT AND PUSH1 0x0 NOT AND DUP2 MSTORE PUSH1 0x20 ADD PUSH1 0x2 DUP3 ADD SLOAD PUSH1 0x0 NOT AND PUSH1 0x0 NOT AND DUP2 MSTORE PUSH1 0x20 ADD PUSH1 0x3 DUP3 ADD SLOAD PUSH1 0x0 NOT AND PUSH1 0x0 NOT AND DUP2 MSTORE PUSH1 0x20 ADD PUSH1 0x4 DUP3 ADD SLOAD PUSH1 0x0 NOT AND PUSH1 0x0 NOT AND DUP2 MSTORE PUSH1 0x20 ADD PUSH1 0x5 DUP3 ADD SLOAD DUP2 MSTORE PUSH1 0x20 ADD PUSH1 0x6 DUP3 ADD SLOAD PUSH1 0x0 NOT AND PUSH1 0x0 NOT AND DUP2 MSTORE PUSH1 0x20 ADD PUSH1 0x7 DUP3 ADD SLOAD PUSH1 0x0 NOT AND PUSH1 0x0 NOT AND DUP2 MSTORE PUSH1 0x20 ADD PUSH1 0x8 DUP3 ADD SLOAD DUP2 MSTORE PUSH1 0x20 ADD PUSH1 0x9 DUP3 ADD SLOAD DUP2 MSTORE PUSH1 0x20 ADD PUSH1 0xA DUP3 ADD DUP1 SLOAD PUSH1 0x1 DUP2 PUSH1 0x1 AND ISZERO PUSH2 0x100 MUL SUB AND PUSH1 0x2 SWAP1 DIV DUP1 PUSH1 0x1F ADD PUSH1 0x20 DUP1 SWAP2 DIV MUL PUSH1 0x20 ADD PUSH1 0x40 MLOAD SWAP1 DUP2 ADD PUSH1 0x40 MSTORE DUP1 SWAP3 SWAP2 SWAP1 DUP2 DUP2 MSTORE PUSH1 0x20 ADD DUP3 DUP1 SLOAD PUSH1 0x1 DUP2 PUSH1 0x1 AND ISZERO PUSH2 0x100 MUL SUB AND PUSH1 0x2 SWAP1 DIV DUP1 ISZERO PUSH2 0xE51 JUMPI DUP1 PUSH1 0x1F LT PUSH2 0xE26 JUMPI PUSH2 0x100 DUP1 DUP4 SLOAD DIV MUL DUP4 MSTORE SWAP2 PUSH1 0x20 ADD SWAP2 PUSH2 0xE51 JUMP JUMPDEST DUP3 ADD SWAP2 SWAP1 PUSH1 0x0 MSTORE PUSH1 0x20 PUSH1 0x0 KECCAK256 SWAP1 JUMPDEST DUP2 SLOAD DUP2 MSTORE SWAP1 PUSH1 0x1 ADD SWAP1 PUSH1 0x20 ADD DUP1 DUP4 GT PUSH2 0xE34 JUMPI DUP3 SWAP1 SUB PUSH1 0x1F AND DUP3 ADD SWAP2 JUMPDEST POP POP POP POP POP DUP2 MSTORE PUSH1 0x20 ADD PUSH1 0xB DUP3 ADD PUSH1 0x0 SWAP1 SLOAD SWAP1 PUSH2 0x100 EXP SWAP1 DIV PUSH1 0xFF AND ISZERO ISZERO ISZERO ISZERO DUP2 MSTORE POP POP SWAP2 POP POP SWAP2 SWAP1 POP JUMP JUMPDEST PUSH1 0x0 PUSH1 0x1 DUP1 SLOAD SWAP1 POP SWAP1 POP SWAP1 JUMP JUMPDEST PUSH1 0x0 PUSH1 0x1 DUP1 SLOAD SWAP1 POP SWAP1 POP SWAP1 JUMP JUMPDEST DUP3 DUP1 SLOAD PUSH1 0x1 DUP2 PUSH1 0x1 AND ISZERO PUSH2 0x100 MUL SUB AND PUSH1 0x2 SWAP1 DIV SWAP1 PUSH1 0x0 MSTORE PUSH1 0x20 PUSH1 0x0 KECCAK256 SWAP1 PUSH1 0x1F ADD PUSH1 0x20 SWAP1 DIV DUP2 ADD SWAP3 DUP3 PUSH1 0x1F LT PUSH2 0xED8 JUMPI DUP1 MLOAD PUSH1 0xFF NOT AND DUP4 DUP1 ADD OR DUP6 SSTORE PUSH2 0xF06 JUMP JUMPDEST DUP3 DUP1 ADD PUSH1 0x1 ADD DUP6 SSTORE DUP3 ISZERO PUSH2 0xF06 JUMPI SWAP2 DUP3 ADD JUMPDEST DUP3 DUP2 GT ISZERO PUSH2 0xF05 JUMPI DUP3 MLOAD DUP3 SSTORE SWAP2 PUSH1 0x20 ADD SWAP2 SWAP1 PUSH1 0x1 ADD SWAP1 PUSH2 0xEEA JUMP JUMPDEST JUMPDEST POP SWAP1 POP PUSH2 0xF13 SWAP2 SWAP1 PUSH2 0xF90 JUMP JUMPDEST POP SWAP1 JUMP JUMPDEST PUSH2 0x180 PUSH1 0x40 MLOAD SWAP1 DUP2 ADD PUSH1 0x40 MSTORE DUP1 PUSH1 0x0 DUP1 NOT AND DUP2 MSTORE PUSH1 0x20 ADD PUSH1 0x0 DUP1 NOT AND DUP2 MSTORE PUSH1 0x20 ADD PUSH1 0x0 DUP1 NOT AND DUP2 MSTORE PUSH1 0x20 ADD PUSH1 0x0 DUP1 NOT AND DUP2 MSTORE PUSH1 0x20 ADD PUSH1 0x0 DUP1 NOT AND DUP2 MSTORE PUSH1 0x20 ADD PUSH1 0x0 DUP2 MSTORE PUSH1 0x20 ADD PUSH1 0x0 DUP1 NOT AND DUP2 MSTORE PUSH1 0x20 ADD PUSH1 0x0 DUP1 NOT AND DUP2 MSTORE PUSH1 0x20 ADD PUSH1 0x0 DUP2 MSTORE PUSH1 0x20 ADD PUSH1 0x0 DUP2 MSTORE PUSH1 0x20 ADD PUSH1 0x60 DUP2 MSTORE PUSH1 0x20 ADD PUSH1 0x0 ISZERO ISZERO DUP2 MSTORE POP SWAP1 JUMP JUMPDEST PUSH2 0xFB2 SWAP2 SWAP1 JUMPDEST DUP1 DUP3 GT ISZERO PUSH2 0xFAE JUMPI PUSH1 0x0 DUP2 PUSH1 0x0 SWAP1 SSTORE POP PUSH1 0x1 ADD PUSH2 0xF96 JUMP JUMPDEST POP SWAP1 JUMP JUMPDEST SWAP1 JUMP JUMPDEST PUSH1 0x0 PUSH2 0xFC1 DUP3 CALLDATALOAD PUSH2 0x12C7 JUMP JUMPDEST SWAP1 POP SWAP3 SWAP2 POP POP JUMP JUMPDEST PUSH1 0x0 PUSH2 0xFD5 DUP3 CALLDATALOAD PUSH2 0x12D1 JUMP JUMPDEST SWAP1 POP SWAP3 SWAP2 POP POP JUMP JUMPDEST PUSH1 0x0 PUSH1 0x20 DUP3 DUP5 SUB SLT ISZERO PUSH2 0xFEF JUMPI PUSH1 0x0 DUP1 REVERT JUMPDEST PUSH1 0x0 PUSH2 0xFFD DUP5 DUP3 DUP6 ADD PUSH2 0xFB5 JUMP JUMPDEST SWAP2 POP POP SWAP3 SWAP2 POP POP JUMP JUMPDEST PUSH1 0x0 PUSH1 0x20 DUP3 DUP5 SUB SLT ISZERO PUSH2 0x1018 JUMPI PUSH1 0x0 DUP1 REVERT JUMPDEST PUSH1 0x0 PUSH2 0x1026 DUP5 DUP3 DUP6 ADD PUSH2 0xFC9 JUMP JUMPDEST SWAP2 POP POP SWAP3 SWAP2 POP POP JUMP JUMPDEST PUSH2 0x1038 DUP2 PUSH2 0x12A7 JUMP JUMPDEST DUP3 MSTORE POP POP JUMP JUMPDEST PUSH2 0x1047 DUP2 PUSH2 0x12B3 JUMP JUMPDEST DUP3 MSTORE POP POP JUMP JUMPDEST PUSH1 0x0 PUSH2 0x1058 DUP3 PUSH2 0x129C JUMP JUMPDEST DUP1 DUP5 MSTORE PUSH2 0x106C DUP2 PUSH1 0x20 DUP7 ADD PUSH1 0x20 DUP7 ADD PUSH2 0x12DB JUMP JUMPDEST PUSH2 0x1075 DUP2 PUSH2 0x130E JUMP JUMPDEST PUSH1 0x20 DUP6 ADD ADD SWAP2 POP POP SWAP3 SWAP2 POP POP JUMP JUMPDEST PUSH1 0x0 PUSH1 0x13 DUP3 MSTORE PUSH32 0x5573657220616C72656164792065786973747300000000000000000000000000 PUSH1 0x20 DUP4 ADD MSTORE PUSH1 0x40 DUP3 ADD SWAP1 POP SWAP2 SWAP1 POP JUMP JUMPDEST PUSH1 0x0 PUSH1 0x13 DUP3 MSTORE PUSH32 0x5573657220646F6573206E6F7420657869737400000000000000000000000000 PUSH1 0x20 DUP4 ADD MSTORE PUSH1 0x40 DUP3 ADD SWAP1 POP SWAP2 SWAP1 POP JUMP JUMPDEST PUSH1 0x0 PUSH2 0x180 DUP4 ADD PUSH1 0x0 DUP4 ADD MLOAD PUSH2 0x110A PUSH1 0x0 DUP7 ADD DUP3 PUSH2 0x103E JUMP JUMPDEST POP PUSH1 0x20 DUP4 ADD MLOAD PUSH2 0x111D PUSH1 0x20 DUP7 ADD DUP3 PUSH2 0x103E JUMP JUMPDEST POP PUSH1 0x40 DUP4 ADD MLOAD PUSH2 0x1130 PUSH1 0x40 DUP7 ADD DUP3 PUSH2 0x103E JUMP JUMPDEST POP PUSH1 0x60 DUP4 ADD MLOAD PUSH2 0x1143 PUSH1 0x60 DUP7 ADD DUP3 PUSH2 0x103E JUMP JUMPDEST POP PUSH1 0x80 DUP4 ADD MLOAD PUSH2 0x1156 PUSH1 0x80 DUP7 ADD DUP3 PUSH2 0x103E JUMP JUMPDEST POP PUSH1 0xA0 DUP4 ADD MLOAD PUSH2 0x1169 PUSH1 0xA0 DUP7 ADD DUP3 PUSH2 0x11F5 JUMP JUMPDEST POP PUSH1 0xC0 DUP4 ADD MLOAD PUSH2 0x117C PUSH1 0xC0 DUP7 ADD DUP3 PUSH2 0x103E JUMP JUMPDEST POP PUSH1 0xE0 DUP4 ADD MLOAD PUSH2 0x118F PUSH1 0xE0 DUP7 ADD DUP3 PUSH2 0x103E JUMP JUMPDEST POP PUSH2 0x100 DUP4 ADD MLOAD PUSH2 0x11A4 PUSH2 0x100 DUP7 ADD DUP3 PUSH2 0x11F5 JUMP JUMPDEST POP PUSH2 0x120 DUP4 ADD MLOAD PUSH2 0x11B9 PUSH2 0x120 DUP7 ADD DUP3 PUSH2 0x11F5 JUMP JUMPDEST POP PUSH2 0x140 DUP4 ADD MLOAD DUP5 DUP3 SUB PUSH2 0x140 DUP7 ADD MSTORE PUSH2 0x11D3 DUP3 DUP3 PUSH2 0x104D JUMP JUMPDEST SWAP2 POP POP PUSH2 0x160 DUP4 ADD MLOAD PUSH2 0x11EA PUSH2 0x160 DUP7 ADD DUP3 PUSH2 0x102F JUMP JUMPDEST POP DUP1 SWAP2 POP POP SWAP3 SWAP2 POP POP JUMP JUMPDEST PUSH2 0x11FE DUP2 PUSH2 0x12BD JUMP JUMPDEST DUP3 MSTORE POP POP JUMP JUMPDEST PUSH1 0x0 PUSH1 0x20 DUP3 ADD SWAP1 POP PUSH2 0x1219 PUSH1 0x0 DUP4 ADD DUP5 PUSH2 0x102F JUMP JUMPDEST SWAP3 SWAP2 POP POP JUMP JUMPDEST PUSH1 0x0 PUSH1 0x20 DUP3 ADD SWAP1 POP DUP2 DUP2 SUB PUSH1 0x0 DUP4 ADD MSTORE PUSH2 0x1238 DUP2 PUSH2 0x1083 JUMP JUMPDEST SWAP1 POP SWAP2 SWAP1 POP JUMP JUMPDEST PUSH1 0x0 PUSH1 0x20 DUP3 ADD SWAP1 POP DUP2 DUP2 SUB PUSH1 0x0 DUP4 ADD MSTORE PUSH2 0x1258 DUP2 PUSH2 0x10BA JUMP JUMPDEST SWAP1 POP SWAP2 SWAP1 POP JUMP JUMPDEST PUSH1 0x0 PUSH1 0x20 DUP3 ADD SWAP1 POP DUP2 DUP2 SUB PUSH1 0x0 DUP4 ADD MSTORE PUSH2 0x1279 DUP2 DUP5 PUSH2 0x10F1 JUMP JUMPDEST SWAP1 POP SWAP3 SWAP2 POP POP JUMP JUMPDEST PUSH1 0x0 PUSH1 0x20 DUP3 ADD SWAP1 POP PUSH2 0x1296 PUSH1 0x0 DUP4 ADD DUP5 PUSH2 0x11F5 JUMP JUMPDEST SWAP3 SWAP2 POP POP JUMP JUMPDEST PUSH1 0x0 DUP2 MLOAD SWAP1 POP SWAP2 SWAP1 POP JUMP JUMPDEST PUSH1 0x0 DUP2 ISZERO ISZERO SWAP1 POP SWAP2 SWAP1 POP JUMP JUMPDEST PUSH1 0x0 DUP2 SWAP1 POP SWAP2 SWAP1 POP JUMP JUMPDEST PUSH1 0x0 DUP2 SWAP1 POP SWAP2 SWAP1 POP JUMP JUMPDEST PUSH1 0x0 DUP2 SWAP1 POP SWAP2 SWAP1 POP JUMP JUMPDEST PUSH1 0x0 DUP2 SWAP1 POP SWAP2 SWAP1 POP JUMP JUMPDEST PUSH1 0x0 JUMPDEST DUP4 DUP2 LT ISZERO PUSH2 0x12F9 JUMPI DUP1 DUP3 ADD MLOAD DUP2 DUP5 ADD MSTORE PUSH1 0x20 DUP2 ADD SWAP1 POP PUSH2 0x12DE JUMP JUMPDEST DUP4 DUP2 GT ISZERO PUSH2 0x1308 JUMPI PUSH1 0x0 DUP5 DUP5 ADD MSTORE JUMPDEST POP POP POP POP JUMP JUMPDEST PUSH1 0x0 PUSH1 0x1F NOT PUSH1 0x1F DUP4 ADD AND SWAP1 POP SWAP2 SWAP1 POP JUMP STOP LOG2 PUSH6 0x627A7A723058 KECCAK256 JUMPI 0xba 0xf5 DUP7 0xc7 PUSH19 0x1DE82D7FFDD1B321E319A6B35DF56EC589EBA5 0x5f 0xab EXP 0xc3 0xc4 DUP9 0xe8 PUSH13 0x6578706572696D656E74616CF5 STOP CALLDATACOPY "
				},
				"gasEstimates": {
					"creation": {
						"codeDepositCost": "990600",
						"executionCost": "1027",
						"totalCost": "991627"
					},
					"external": {
						"createUser()": "infinite",
						"getKhatianArrayLen()": "710",
						"getKhatianByHash(bytes32)": "infinite",
						"getKhatianHasById(uint256)": "997",
						"getPlotArrayLen()": "534",
						"getPlotByHash(bytes32)": "infinite",
						"getUserArrayLen()": "732",
						"getUserByNid(uint256)": "infinite",
						"getUserIdById(uint256)": "infinite",
						"getUserOwnedByUid(uint256)": "infinite"
					},
					"internal": {
						"stringToBytes32(string memory)": "infinite",
						"toUpper(string memory)": "infinite"
					}
				},
				"methodIdentifiers": {
					"createUser()": "25ad91ce",
					"getKhatianArrayLen()": "bd363525",
					"getKhatianByHash(bytes32)": "5cb99c03",
					"getKhatianHasById(uint256)": "8c857098",
					"getPlotArrayLen()": "0d590f3e",
					"getPlotByHash(bytes32)": "95d5712c",
					"getUserArrayLen()": "f87b771a",
					"getUserByNid(uint256)": "43308949",
					"getUserIdById(uint256)": "6d8c5df1",
					"getUserOwnedByUid(uint256)": "64a66dc3"
				}
			},
			"userdoc": {
				"methods": {}
			}
		}
	}
}