{
	"contracts/LandRecordFactory.sol": {
		"landRegistration": {
			"abi": [
				{
					"constant": false,
					"inputs": [
						{
							"name": "_khatianiId",
							"type": "uint64"
						},
						{
							"name": "_plotHash",
							"type": "bytes32"
						},
						{
							"name": "_percentOwn",
							"type": "uint16"
						},
						{
							"name": "_buyFrom",
							"type": "bytes32"
						},
						{
							"name": "_user",
							"type": "uint256[]"
						},
						{
							"name": "_percentage",
							"type": "uint16[]"
						}
					],
					"name": "addKhatianFromOld",
					"outputs": [],
					"payable": false,
					"stateMutability": "nonpayable",
					"type": "function"
				},
				{
					"constant": true,
					"inputs": [],
					"name": "getPlotArrayLen",
					"outputs": [
						{
							"name": "len",
							"type": "uint256"
						}
					],
					"payable": false,
					"stateMutability": "view",
					"type": "function"
				},
				{
					"constant": false,
					"inputs": [
						{
							"name": "_division",
							"type": "string"
						},
						{
							"name": "_district",
							"type": "string"
						},
						{
							"name": "_thana",
							"type": "string"
						},
						{
							"name": "_JLNo",
							"type": "uint16"
						},
						{
							"name": "_plotNo",
							"type": "uint16"
						},
						{
							"name": "_plotType",
							"type": "uint8"
						},
						{
							"name": "_plotArea",
							"type": "uint32"
						}
					],
					"name": "addPlot",
					"outputs": [],
					"payable": false,
					"stateMutability": "nonpayable",
					"type": "function"
				},
				{
					"constant": true,
					"inputs": [
						{
							"name": "_nid",
							"type": "uint256"
						}
					],
					"name": "getUserByNid",
					"outputs": [
						{
							"name": "fullName",
							"type": "bytes32"
						},
						{
							"name": "fatheName",
							"type": "bytes32"
						},
						{
							"name": "district",
							"type": "bytes32"
						},
						{
							"name": "thana",
							"type": "bytes32"
						},
						{
							"name": "postCode",
							"type": "uint24"
						},
						{
							"name": "village",
							"type": "bytes32"
						}
					],
					"payable": false,
					"stateMutability": "view",
					"type": "function"
				},
				{
					"constant": true,
					"inputs": [
						{
							"name": "khatianHash",
							"type": "bytes32"
						}
					],
					"name": "getKhatianByHash",
					"outputs": [
						{
							"name": "khatianiId",
							"type": "uint64"
						},
						{
							"name": "plotHash",
							"type": "bytes32"
						},
						{
							"name": "percentOwn",
							"type": "uint16"
						},
						{
							"name": "buyFrom",
							"type": "bytes32"
						},
						{
							"name": "sellTo",
							"type": "bytes32[]"
						},
						{
							"name": "sellPercentage",
							"type": "uint16[]"
						},
						{
							"name": "ownerArray",
							"type": "uint256[]"
						},
						{
							"name": "perOwnerPercentage",
							"type": "uint16[]"
						}
					],
					"payable": false,
					"stateMutability": "view",
					"type": "function"
				},
				{
					"constant": false,
					"inputs": [
						{
							"name": "_khatianiId",
							"type": "uint64"
						},
						{
							"name": "_plotHash",
							"type": "bytes32"
						},
						{
							"name": "_percentOwn",
							"type": "uint16"
						},
						{
							"name": "_user",
							"type": "uint256[]"
						},
						{
							"name": "_percentage",
							"type": "uint16[]"
						}
					],
					"name": "addKhatianNew",
					"outputs": [],
					"payable": false,
					"stateMutability": "nonpayable",
					"type": "function"
				},
				{
					"constant": true,
					"inputs": [
						{
							"name": "_uid",
							"type": "uint256"
						}
					],
					"name": "getUserOwnedByUid",
					"outputs": [
						{
							"name": "number",
							"type": "uint256"
						},
						{
							"name": "khatianList",
							"type": "bytes32[]"
						}
					],
					"payable": false,
					"stateMutability": "view",
					"type": "function"
				},
				{
					"constant": false,
					"inputs": [
						{
							"name": "_uid",
							"type": "uint256"
						},
						{
							"name": "_khatianHash",
							"type": "bytes32"
						}
					],
					"name": "addUserOwned",
					"outputs": [],
					"payable": false,
					"stateMutability": "nonpayable",
					"type": "function"
				},
				{
					"constant": true,
					"inputs": [
						{
							"name": "id",
							"type": "uint256"
						}
					],
					"name": "getUserIdById",
					"outputs": [
						{
							"name": "UserId",
							"type": "uint256"
						}
					],
					"payable": false,
					"stateMutability": "view",
					"type": "function"
				},
				{
					"constant": true,
					"inputs": [
						{
							"name": "id",
							"type": "uint256"
						}
					],
					"name": "getKhatianHasById",
					"outputs": [
						{
							"name": "khatianHash",
							"type": "bytes32"
						}
					],
					"payable": false,
					"stateMutability": "view",
					"type": "function"
				},
				{
					"constant": true,
					"inputs": [
						{
							"name": "plotHash",
							"type": "bytes32"
						}
					],
					"name": "getPlotByHash",
					"outputs": [
						{
							"name": "division",
							"type": "bytes32"
						},
						{
							"name": "district",
							"type": "bytes32"
						},
						{
							"name": "thana",
							"type": "bytes32"
						},
						{
							"name": "JLNo",
							"type": "uint16"
						},
						{
							"name": "plotNo",
							"type": "uint16"
						},
						{
							"name": "plotType",
							"type": "uint8"
						},
						{
							"name": "plotArea",
							"type": "uint32"
						}
					],
					"payable": false,
					"stateMutability": "view",
					"type": "function"
				},
				{
					"constant": true,
					"inputs": [],
					"name": "getKhatianArrayLen",
					"outputs": [
						{
							"name": "len",
							"type": "uint256"
						}
					],
					"payable": false,
					"stateMutability": "view",
					"type": "function"
				},
				{
					"constant": false,
					"inputs": [
						{
							"name": "_fullName",
							"type": "string"
						},
						{
							"name": "_fatheName",
							"type": "string"
						},
						{
							"name": "_district",
							"type": "string"
						},
						{
							"name": "_thana",
							"type": "string"
						},
						{
							"name": "_postCode",
							"type": "uint24"
						},
						{
							"name": "_village",
							"type": "string"
						},
						{
							"name": "_nid",
							"type": "uint256"
						}
					],
					"name": "creatNewUser",
					"outputs": [],
					"payable": false,
					"stateMutability": "nonpayable",
					"type": "function"
				},
				{
					"constant": true,
					"inputs": [
						{
							"name": "id",
							"type": "uint256"
						}
					],
					"name": "getPlotHashById",
					"outputs": [
						{
							"name": "plotHash",
							"type": "bytes32"
						}
					],
					"payable": false,
					"stateMutability": "view",
					"type": "function"
				},
				{
					"constant": true,
					"inputs": [],
					"name": "getUserArrayLen",
					"outputs": [
						{
							"name": "len",
							"type": "uint256"
						}
					],
					"payable": false,
					"stateMutability": "view",
					"type": "function"
				},
				{
					"inputs": [],
					"payable": false,
					"stateMutability": "nonpayable",
					"type": "constructor"
				},
				{
					"anonymous": false,
					"inputs": [
						{
							"indexed": false,
							"name": "plotHash",
							"type": "bytes32"
						}
					],
					"name": "creationOfplot",
					"type": "event"
				},
				{
					"anonymous": false,
					"inputs": [
						{
							"indexed": false,
							"name": "nid",
							"type": "uint256"
						}
					],
					"name": "creationOfUser",
					"type": "event"
				},
				{
					"anonymous": false,
					"inputs": [
						{
							"indexed": false,
							"name": "khatianHash",
							"type": "bytes32"
						}
					],
					"name": "creationOfKhatian",
					"type": "event"
				}
			],
			"devdoc": {
				"methods": {}
			},
			"evm": {
				"assembly": "    /* \"contracts/LandRecordFactory.sol\":63:10042  contract landRegistration {... */\n  mstore(0x40, 0x80)\n    /* \"contracts/LandRecordFactory.sol\":1357:1421  constructor() public {... */\n  callvalue\n    /* \"--CODEGEN--\":8:17   */\n  dup1\n    /* \"--CODEGEN--\":5:7   */\n  iszero\n  tag_1\n  jumpi\n    /* \"--CODEGEN--\":30:31   */\n  0x0\n    /* \"--CODEGEN--\":27:28   */\n  dup1\n    /* \"--CODEGEN--\":20:32   */\n  revert\n    /* \"--CODEGEN--\":5:7   */\ntag_1:\n    /* \"contracts/LandRecordFactory.sol\":1357:1421  constructor() public {... */\n  pop\n    /* \"contracts/LandRecordFactory.sol\":1404:1414  msg.sender */\n  caller\n    /* \"contracts/LandRecordFactory.sol\":1388:1401  contarctOwner */\n  0x7\n  0x0\n    /* \"contracts/LandRecordFactory.sol\":1388:1414  contarctOwner = msg.sender */\n  0x100\n  exp\n  dup2\n  sload\n  dup2\n  0xffffffffffffffffffffffffffffffffffffffff\n  mul\n  not\n  and\n  swap1\n  dup4\n  0xffffffffffffffffffffffffffffffffffffffff\n  and\n  mul\n  or\n  swap1\n  sstore\n  pop\n    /* \"contracts/LandRecordFactory.sol\":63:10042  contract landRegistration {... */\n  dataSize(sub_0)\n  dup1\n  dataOffset(sub_0)\n  0x0\n  codecopy\n  0x0\n  return\nstop\n\nsub_0: assembly {\n        /* \"contracts/LandRecordFactory.sol\":63:10042  contract landRegistration {... */\n      mstore(0x40, 0x80)\n      jumpi(tag_1, lt(calldatasize, 0x4))\n      calldataload(0x0)\n      0x100000000000000000000000000000000000000000000000000000000\n      swap1\n      div\n      0xffffffff\n      and\n      dup1\n      0xc6f421e\n      eq\n      tag_2\n      jumpi\n      dup1\n      0xd590f3e\n      eq\n      tag_3\n      jumpi\n      dup1\n      0x209a731c\n      eq\n      tag_4\n      jumpi\n      dup1\n      0x43308949\n      eq\n      tag_5\n      jumpi\n      dup1\n      0x5cb99c03\n      eq\n      tag_6\n      jumpi\n      dup1\n      0x61b69478\n      eq\n      tag_7\n      jumpi\n      dup1\n      0x64a66dc3\n      eq\n      tag_8\n      jumpi\n      dup1\n      0x688f86fa\n      eq\n      tag_9\n      jumpi\n      dup1\n      0x6d8c5df1\n      eq\n      tag_10\n      jumpi\n      dup1\n      0x8c857098\n      eq\n      tag_11\n      jumpi\n      dup1\n      0x95d5712c\n      eq\n      tag_12\n      jumpi\n      dup1\n      0xbd363525\n      eq\n      tag_13\n      jumpi\n      dup1\n      0xebde4207\n      eq\n      tag_14\n      jumpi\n      dup1\n      0xeffdc6f8\n      eq\n      tag_15\n      jumpi\n      dup1\n      0xf87b771a\n      eq\n      tag_16\n      jumpi\n    tag_1:\n      0x0\n      dup1\n      revert\n        /* \"contracts/LandRecordFactory.sol\":2620:4281  function addKhatianFromOld(uint64 _khatianiId, bytes32 _plotHash, uint16 _percentOwn, bytes32 _buyFrom, uint[] _user, uint16[] _percentage) public{... */\n    tag_2:\n      callvalue\n        /* \"--CODEGEN--\":8:17   */\n      dup1\n        /* \"--CODEGEN--\":5:7   */\n      iszero\n      tag_17\n      jumpi\n        /* \"--CODEGEN--\":30:31   */\n      0x0\n        /* \"--CODEGEN--\":27:28   */\n      dup1\n        /* \"--CODEGEN--\":20:32   */\n      revert\n        /* \"--CODEGEN--\":5:7   */\n    tag_17:\n        /* \"contracts/LandRecordFactory.sol\":2620:4281  function addKhatianFromOld(uint64 _khatianiId, bytes32 _plotHash, uint16 _percentOwn, bytes32 _buyFrom, uint[] _user, uint16[] _percentage) public{... */\n      pop\n      tag_18\n      0x4\n      dup1\n      calldatasize\n      sub\n      dup2\n      add\n      swap1\n      dup1\n      dup1\n      calldataload\n      0xffffffffffffffff\n      and\n      swap1\n      0x20\n      add\n      swap1\n      swap3\n      swap2\n      swap1\n      dup1\n      calldataload\n      not(0x0)\n      and\n      swap1\n      0x20\n      add\n      swap1\n      swap3\n      swap2\n      swap1\n      dup1\n      calldataload\n      0xffff\n      and\n      swap1\n      0x20\n      add\n      swap1\n      swap3\n      swap2\n      swap1\n      dup1\n      calldataload\n      not(0x0)\n      and\n      swap1\n      0x20\n      add\n      swap1\n      swap3\n      swap2\n      swap1\n      dup1\n      calldataload\n      swap1\n      0x20\n      add\n      swap1\n      dup3\n      add\n      dup1\n      calldataload\n      swap1\n      0x20\n      add\n      swap1\n      dup1\n      dup1\n      0x20\n      mul\n      0x20\n      add\n      mload(0x40)\n      swap1\n      dup2\n      add\n      0x40\n      mstore\n      dup1\n      swap4\n      swap3\n      swap2\n      swap1\n      dup2\n      dup2\n      mstore\n      0x20\n      add\n      dup4\n      dup4\n      0x20\n      mul\n      dup1\n      dup3\n      dup5\n      calldatacopy\n      dup3\n      add\n      swap2\n      pop\n      pop\n      pop\n      pop\n      pop\n      pop\n      swap2\n      swap3\n      swap2\n      swap3\n      swap1\n      dup1\n      calldataload\n      swap1\n      0x20\n      add\n      swap1\n      dup3\n      add\n      dup1\n      calldataload\n      swap1\n      0x20\n      add\n      swap1\n      dup1\n      dup1\n      0x20\n      mul\n      0x20\n      add\n      mload(0x40)\n      swap1\n      dup2\n      add\n      0x40\n      mstore\n      dup1\n      swap4\n      swap3\n      swap2\n      swap1\n      dup2\n      dup2\n      mstore\n      0x20\n      add\n      dup4\n      dup4\n      0x20\n      mul\n      dup1\n      dup3\n      dup5\n      calldatacopy\n      dup3\n      add\n      swap2\n      pop\n      pop\n      pop\n      pop\n      pop\n      pop\n      swap2\n      swap3\n      swap2\n      swap3\n      swap1\n      pop\n      pop\n      pop\n      jump(tag_19)\n    tag_18:\n      stop\n        /* \"contracts/LandRecordFactory.sol\":6593:6689  function getPlotArrayLen() public view returns(uint len){... */\n    tag_3:\n      callvalue\n        /* \"--CODEGEN--\":8:17   */\n      dup1\n        /* \"--CODEGEN--\":5:7   */\n      iszero\n      tag_20\n      jumpi\n        /* \"--CODEGEN--\":30:31   */\n      0x0\n        /* \"--CODEGEN--\":27:28   */\n      dup1\n        /* \"--CODEGEN--\":20:32   */\n      revert\n        /* \"--CODEGEN--\":5:7   */\n    tag_20:\n        /* \"contracts/LandRecordFactory.sol\":6593:6689  function getPlotArrayLen() public view returns(uint len){... */\n      pop\n      tag_21\n      jump(tag_22)\n    tag_21:\n      mload(0x40)\n      dup1\n      dup3\n      dup2\n      mstore\n      0x20\n      add\n      swap2\n      pop\n      pop\n      mload(0x40)\n      dup1\n      swap2\n      sub\n      swap1\n      return\n        /* \"contracts/LandRecordFactory.sol\":5549:6578  function addPlot(string _division, string _district, string _thana, uint16 _JLNo, uint16 _plotNo, uint8 _plotType, uint32 _plotArea) public{... */\n    tag_4:\n      callvalue\n        /* \"--CODEGEN--\":8:17   */\n      dup1\n        /* \"--CODEGEN--\":5:7   */\n      iszero\n      tag_23\n      jumpi\n        /* \"--CODEGEN--\":30:31   */\n      0x0\n        /* \"--CODEGEN--\":27:28   */\n      dup1\n        /* \"--CODEGEN--\":20:32   */\n      revert\n        /* \"--CODEGEN--\":5:7   */\n    tag_23:\n        /* \"contracts/LandRecordFactory.sol\":5549:6578  function addPlot(string _division, string _district, string _thana, uint16 _JLNo, uint16 _plotNo, uint8 _plotType, uint32 _plotArea) public{... */\n      pop\n      tag_24\n      0x4\n      dup1\n      calldatasize\n      sub\n      dup2\n      add\n      swap1\n      dup1\n      dup1\n      calldataload\n      swap1\n      0x20\n      add\n      swap1\n      dup3\n      add\n      dup1\n      calldataload\n      swap1\n      0x20\n      add\n      swap1\n      dup1\n      dup1\n      0x1f\n      add\n      0x20\n      dup1\n      swap2\n      div\n      mul\n      0x20\n      add\n      mload(0x40)\n      swap1\n      dup2\n      add\n      0x40\n      mstore\n      dup1\n      swap4\n      swap3\n      swap2\n      swap1\n      dup2\n      dup2\n      mstore\n      0x20\n      add\n      dup4\n      dup4\n      dup1\n      dup3\n      dup5\n      calldatacopy\n      dup3\n      add\n      swap2\n      pop\n      pop\n      pop\n      pop\n      pop\n      pop\n      swap2\n      swap3\n      swap2\n      swap3\n      swap1\n      dup1\n      calldataload\n      swap1\n      0x20\n      add\n      swap1\n      dup3\n      add\n      dup1\n      calldataload\n      swap1\n      0x20\n      add\n      swap1\n      dup1\n      dup1\n      0x1f\n      add\n      0x20\n      dup1\n      swap2\n      div\n      mul\n      0x20\n      add\n      mload(0x40)\n      swap1\n      dup2\n      add\n      0x40\n      mstore\n      dup1\n      swap4\n      swap3\n      swap2\n      swap1\n      dup2\n      dup2\n      mstore\n      0x20\n      add\n      dup4\n      dup4\n      dup1\n      dup3\n      dup5\n      calldatacopy\n      dup3\n      add\n      swap2\n      pop\n      pop\n      pop\n      pop\n      pop\n      pop\n      swap2\n      swap3\n      swap2\n      swap3\n      swap1\n      dup1\n      calldataload\n      swap1\n      0x20\n      add\n      swap1\n      dup3\n      add\n      dup1\n      calldataload\n      swap1\n      0x20\n      add\n      swap1\n      dup1\n      dup1\n      0x1f\n      add\n      0x20\n      dup1\n      swap2\n      div\n      mul\n      0x20\n      add\n      mload(0x40)\n      swap1\n      dup2\n      add\n      0x40\n      mstore\n      dup1\n      swap4\n      swap3\n      swap2\n      swap1\n      dup2\n      dup2\n      mstore\n      0x20\n      add\n      dup4\n      dup4\n      dup1\n      dup3\n      dup5\n      calldatacopy\n      dup3\n      add\n      swap2\n      pop\n      pop\n      pop\n      pop\n      pop\n      pop\n      swap2\n      swap3\n      swap2\n      swap3\n      swap1\n      dup1\n      calldataload\n      0xffff\n      and\n      swap1\n      0x20\n      add\n      swap1\n      swap3\n      swap2\n      swap1\n      dup1\n      calldataload\n      0xffff\n      and\n      swap1\n      0x20\n      add\n      swap1\n      swap3\n      swap2\n      swap1\n      dup1\n      calldataload\n      0xff\n      and\n      swap1\n      0x20\n      add\n      swap1\n      swap3\n      swap2\n      swap1\n      dup1\n      calldataload\n      0xffffffff\n      and\n      swap1\n      0x20\n      add\n      swap1\n      swap3\n      swap2\n      swap1\n      pop\n      pop\n      pop\n      jump(tag_25)\n    tag_24:\n      stop\n        /* \"contracts/LandRecordFactory.sol\":8634:9147  function getUserByNid(uint _nid) public view returns(bytes32 fullName, bytes32 fatheName, bytes32 district, bytes32 thana, uint24 postCode, bytes32 village){... */\n    tag_5:\n      callvalue\n        /* \"--CODEGEN--\":8:17   */\n      dup1\n        /* \"--CODEGEN--\":5:7   */\n      iszero\n      tag_26\n      jumpi\n        /* \"--CODEGEN--\":30:31   */\n      0x0\n        /* \"--CODEGEN--\":27:28   */\n      dup1\n        /* \"--CODEGEN--\":20:32   */\n      revert\n        /* \"--CODEGEN--\":5:7   */\n    tag_26:\n        /* \"contracts/LandRecordFactory.sol\":8634:9147  function getUserByNid(uint _nid) public view returns(bytes32 fullName, bytes32 fatheName, bytes32 district, bytes32 thana, uint24 postCode, bytes32 village){... */\n      pop\n      tag_27\n      0x4\n      dup1\n      calldatasize\n      sub\n      dup2\n      add\n      swap1\n      dup1\n      dup1\n      calldataload\n      swap1\n      0x20\n      add\n      swap1\n      swap3\n      swap2\n      swap1\n      pop\n      pop\n      pop\n      jump(tag_28)\n    tag_27:\n      mload(0x40)\n      dup1\n      dup8\n      not(0x0)\n      and\n      not(0x0)\n      and\n      dup2\n      mstore\n      0x20\n      add\n      dup7\n      not(0x0)\n      and\n      not(0x0)\n      and\n      dup2\n      mstore\n      0x20\n      add\n      dup6\n      not(0x0)\n      and\n      not(0x0)\n      and\n      dup2\n      mstore\n      0x20\n      add\n      dup5\n      not(0x0)\n      and\n      not(0x0)\n      and\n      dup2\n      mstore\n      0x20\n      add\n      dup4\n      0xffffff\n      and\n      0xffffff\n      and\n      dup2\n      mstore\n      0x20\n      add\n      dup3\n      not(0x0)\n      and\n      not(0x0)\n      and\n      dup2\n      mstore\n      0x20\n      add\n      swap7\n      pop\n      pop\n      pop\n      pop\n      pop\n      pop\n      pop\n      mload(0x40)\n      dup1\n      swap2\n      sub\n      swap1\n      return\n        /* \"contracts/LandRecordFactory.sol\":4712:5539  function getKhatianByHash(bytes32 khatianHash) public view returns(uint64 khatianiId, bytes32 plotHash, uint16 percentOwn, bytes32 buyFrom, bytes32[] sellTo, uint16[] sellPercentage, uint[] ownerArray, uint16[] perOwnerPercentage){... */\n    tag_6:\n      callvalue\n        /* \"--CODEGEN--\":8:17   */\n      dup1\n        /* \"--CODEGEN--\":5:7   */\n      iszero\n      tag_29\n      jumpi\n        /* \"--CODEGEN--\":30:31   */\n      0x0\n        /* \"--CODEGEN--\":27:28   */\n      dup1\n        /* \"--CODEGEN--\":20:32   */\n      revert\n        /* \"--CODEGEN--\":5:7   */\n    tag_29:\n        /* \"contracts/LandRecordFactory.sol\":4712:5539  function getKhatianByHash(bytes32 khatianHash) public view returns(uint64 khatianiId, bytes32 plotHash, uint16 percentOwn, bytes32 buyFrom, bytes32[] sellTo, uint16[] sellPercentage, uint[] ownerArray, uint16[] perOwnerPercentage){... */\n      pop\n      tag_30\n      0x4\n      dup1\n      calldatasize\n      sub\n      dup2\n      add\n      swap1\n      dup1\n      dup1\n      calldataload\n      not(0x0)\n      and\n      swap1\n      0x20\n      add\n      swap1\n      swap3\n      swap2\n      swap1\n      pop\n      pop\n      pop\n      jump(tag_31)\n    tag_30:\n      mload(0x40)\n      dup1\n      dup10\n      0xffffffffffffffff\n      and\n      0xffffffffffffffff\n      and\n      dup2\n      mstore\n      0x20\n      add\n      dup9\n      not(0x0)\n      and\n      not(0x0)\n      and\n      dup2\n      mstore\n      0x20\n      add\n      dup8\n      0xffff\n      and\n      0xffff\n      and\n      dup2\n      mstore\n      0x20\n      add\n      dup7\n      not(0x0)\n      and\n      not(0x0)\n      and\n      dup2\n      mstore\n      0x20\n      add\n      dup1\n      0x20\n      add\n      dup1\n      0x20\n      add\n      dup1\n      0x20\n      add\n      dup1\n      0x20\n      add\n      dup6\n      dup2\n      sub\n      dup6\n      mstore\n      dup10\n      dup2\n      dup2\n      mload\n      dup2\n      mstore\n      0x20\n      add\n      swap2\n      pop\n      dup1\n      mload\n      swap1\n      0x20\n      add\n      swap1\n      0x20\n      mul\n      dup1\n      dup4\n      dup4\n        /* \"--CODEGEN--\":23:24   */\n      0x0\n        /* \"--CODEGEN--\":8:108   */\n    tag_32:\n        /* \"--CODEGEN--\":33:36   */\n      dup4\n        /* \"--CODEGEN--\":30:31   */\n      dup2\n        /* \"--CODEGEN--\":27:37   */\n      lt\n        /* \"--CODEGEN--\":8:108   */\n      iszero\n      tag_33\n      jumpi\n        /* \"--CODEGEN--\":99:100   */\n      dup1\n        /* \"--CODEGEN--\":94:97   */\n      dup3\n        /* \"--CODEGEN--\":90:101   */\n      add\n        /* \"--CODEGEN--\":84:102   */\n      mload\n        /* \"--CODEGEN--\":80:81   */\n      dup2\n        /* \"--CODEGEN--\":75:78   */\n      dup5\n        /* \"--CODEGEN--\":71:82   */\n      add\n        /* \"--CODEGEN--\":64:103   */\n      mstore\n        /* \"--CODEGEN--\":52:54   */\n      0x20\n        /* \"--CODEGEN--\":49:50   */\n      dup2\n        /* \"--CODEGEN--\":45:55   */\n      add\n        /* \"--CODEGEN--\":40:55   */\n      swap1\n      pop\n        /* \"--CODEGEN--\":8:108   */\n      jump(tag_32)\n    tag_33:\n        /* \"--CODEGEN--\":12:26   */\n      pop\n        /* \"contracts/LandRecordFactory.sol\":4712:5539  function getKhatianByHash(bytes32 khatianHash) public view returns(uint64 khatianiId, bytes32 plotHash, uint16 percentOwn, bytes32 buyFrom, bytes32[] sellTo, uint16[] sellPercentage, uint[] ownerArray, uint16[] perOwnerPercentage){... */\n      pop\n      pop\n      pop\n      swap1\n      pop\n      add\n      dup6\n      dup2\n      sub\n      dup5\n      mstore\n      dup9\n      dup2\n      dup2\n      mload\n      dup2\n      mstore\n      0x20\n      add\n      swap2\n      pop\n      dup1\n      mload\n      swap1\n      0x20\n      add\n      swap1\n      0x20\n      mul\n      dup1\n      dup4\n      dup4\n        /* \"--CODEGEN--\":23:24   */\n      0x0\n        /* \"--CODEGEN--\":8:108   */\n    tag_35:\n        /* \"--CODEGEN--\":33:36   */\n      dup4\n        /* \"--CODEGEN--\":30:31   */\n      dup2\n        /* \"--CODEGEN--\":27:37   */\n      lt\n        /* \"--CODEGEN--\":8:108   */\n      iszero\n      tag_36\n      jumpi\n        /* \"--CODEGEN--\":99:100   */\n      dup1\n        /* \"--CODEGEN--\":94:97   */\n      dup3\n        /* \"--CODEGEN--\":90:101   */\n      add\n        /* \"--CODEGEN--\":84:102   */\n      mload\n        /* \"--CODEGEN--\":80:81   */\n      dup2\n        /* \"--CODEGEN--\":75:78   */\n      dup5\n        /* \"--CODEGEN--\":71:82   */\n      add\n        /* \"--CODEGEN--\":64:103   */\n      mstore\n        /* \"--CODEGEN--\":52:54   */\n      0x20\n        /* \"--CODEGEN--\":49:50   */\n      dup2\n        /* \"--CODEGEN--\":45:55   */\n      add\n        /* \"--CODEGEN--\":40:55   */\n      swap1\n      pop\n        /* \"--CODEGEN--\":8:108   */\n      jump(tag_35)\n    tag_36:\n        /* \"--CODEGEN--\":12:26   */\n      pop\n        /* \"contracts/LandRecordFactory.sol\":4712:5539  function getKhatianByHash(bytes32 khatianHash) public view returns(uint64 khatianiId, bytes32 plotHash, uint16 percentOwn, bytes32 buyFrom, bytes32[] sellTo, uint16[] sellPercentage, uint[] ownerArray, uint16[] perOwnerPercentage){... */\n      pop\n      pop\n      pop\n      swap1\n      pop\n      add\n      dup6\n      dup2\n      sub\n      dup4\n      mstore\n      dup8\n      dup2\n      dup2\n      mload\n      dup2\n      mstore\n      0x20\n      add\n      swap2\n      pop\n      dup1\n      mload\n      swap1\n      0x20\n      add\n      swap1\n      0x20\n      mul\n      dup1\n      dup4\n      dup4\n        /* \"--CODEGEN--\":23:24   */\n      0x0\n        /* \"--CODEGEN--\":8:108   */\n    tag_38:\n        /* \"--CODEGEN--\":33:36   */\n      dup4\n        /* \"--CODEGEN--\":30:31   */\n      dup2\n        /* \"--CODEGEN--\":27:37   */\n      lt\n        /* \"--CODEGEN--\":8:108   */\n      iszero\n      tag_39\n      jumpi\n        /* \"--CODEGEN--\":99:100   */\n      dup1\n        /* \"--CODEGEN--\":94:97   */\n      dup3\n        /* \"--CODEGEN--\":90:101   */\n      add\n        /* \"--CODEGEN--\":84:102   */\n      mload\n        /* \"--CODEGEN--\":80:81   */\n      dup2\n        /* \"--CODEGEN--\":75:78   */\n      dup5\n        /* \"--CODEGEN--\":71:82   */\n      add\n        /* \"--CODEGEN--\":64:103   */\n      mstore\n        /* \"--CODEGEN--\":52:54   */\n      0x20\n        /* \"--CODEGEN--\":49:50   */\n      dup2\n        /* \"--CODEGEN--\":45:55   */\n      add\n        /* \"--CODEGEN--\":40:55   */\n      swap1\n      pop\n        /* \"--CODEGEN--\":8:108   */\n      jump(tag_38)\n    tag_39:\n        /* \"--CODEGEN--\":12:26   */\n      pop\n        /* \"contracts/LandRecordFactory.sol\":4712:5539  function getKhatianByHash(bytes32 khatianHash) public view returns(uint64 khatianiId, bytes32 plotHash, uint16 percentOwn, bytes32 buyFrom, bytes32[] sellTo, uint16[] sellPercentage, uint[] ownerArray, uint16[] perOwnerPercentage){... */\n      pop\n      pop\n      pop\n      swap1\n      pop\n      add\n      dup6\n      dup2\n      sub\n      dup3\n      mstore\n      dup7\n      dup2\n      dup2\n      mload\n      dup2\n      mstore\n      0x20\n      add\n      swap2\n      pop\n      dup1\n      mload\n      swap1\n      0x20\n      add\n      swap1\n      0x20\n      mul\n      dup1\n      dup4\n      dup4\n        /* \"--CODEGEN--\":23:24   */\n      0x0\n        /* \"--CODEGEN--\":8:108   */\n    tag_41:\n        /* \"--CODEGEN--\":33:36   */\n      dup4\n        /* \"--CODEGEN--\":30:31   */\n      dup2\n        /* \"--CODEGEN--\":27:37   */\n      lt\n        /* \"--CODEGEN--\":8:108   */\n      iszero\n      tag_42\n      jumpi\n        /* \"--CODEGEN--\":99:100   */\n      dup1\n        /* \"--CODEGEN--\":94:97   */\n      dup3\n        /* \"--CODEGEN--\":90:101   */\n      add\n        /* \"--CODEGEN--\":84:102   */\n      mload\n        /* \"--CODEGEN--\":80:81   */\n      dup2\n        /* \"--CODEGEN--\":75:78   */\n      dup5\n        /* \"--CODEGEN--\":71:82   */\n      add\n        /* \"--CODEGEN--\":64:103   */\n      mstore\n        /* \"--CODEGEN--\":52:54   */\n      0x20\n        /* \"--CODEGEN--\":49:50   */\n      dup2\n        /* \"--CODEGEN--\":45:55   */\n      add\n        /* \"--CODEGEN--\":40:55   */\n      swap1\n      pop\n        /* \"--CODEGEN--\":8:108   */\n      jump(tag_41)\n    tag_42:\n        /* \"--CODEGEN--\":12:26   */\n      pop\n        /* \"contracts/LandRecordFactory.sol\":4712:5539  function getKhatianByHash(bytes32 khatianHash) public view returns(uint64 khatianiId, bytes32 plotHash, uint16 percentOwn, bytes32 buyFrom, bytes32[] sellTo, uint16[] sellPercentage, uint[] ownerArray, uint16[] perOwnerPercentage){... */\n      pop\n      pop\n      pop\n      swap1\n      pop\n      add\n      swap13\n      pop\n      pop\n      pop\n      pop\n      pop\n      pop\n      pop\n      pop\n      pop\n      pop\n      pop\n      pop\n      pop\n      mload(0x40)\n      dup1\n      swap2\n      sub\n      swap1\n      return\n        /* \"contracts/LandRecordFactory.sol\":1431:2610  function addKhatianNew(uint64 _khatianiId, bytes32 _plotHash, uint16 _percentOwn, uint[] _user, uint16[] _percentage) public{... */\n    tag_7:\n      callvalue\n        /* \"--CODEGEN--\":8:17   */\n      dup1\n        /* \"--CODEGEN--\":5:7   */\n      iszero\n      tag_44\n      jumpi\n        /* \"--CODEGEN--\":30:31   */\n      0x0\n        /* \"--CODEGEN--\":27:28   */\n      dup1\n        /* \"--CODEGEN--\":20:32   */\n      revert\n        /* \"--CODEGEN--\":5:7   */\n    tag_44:\n        /* \"contracts/LandRecordFactory.sol\":1431:2610  function addKhatianNew(uint64 _khatianiId, bytes32 _plotHash, uint16 _percentOwn, uint[] _user, uint16[] _percentage) public{... */\n      pop\n      tag_45\n      0x4\n      dup1\n      calldatasize\n      sub\n      dup2\n      add\n      swap1\n      dup1\n      dup1\n      calldataload\n      0xffffffffffffffff\n      and\n      swap1\n      0x20\n      add\n      swap1\n      swap3\n      swap2\n      swap1\n      dup1\n      calldataload\n      not(0x0)\n      and\n      swap1\n      0x20\n      add\n      swap1\n      swap3\n      swap2\n      swap1\n      dup1\n      calldataload\n      0xffff\n      and\n      swap1\n      0x20\n      add\n      swap1\n      swap3\n      swap2\n      swap1\n      dup1\n      calldataload\n      swap1\n      0x20\n      add\n      swap1\n      dup3\n      add\n      dup1\n      calldataload\n      swap1\n      0x20\n      add\n      swap1\n      dup1\n      dup1\n      0x20\n      mul\n      0x20\n      add\n      mload(0x40)\n      swap1\n      dup2\n      add\n      0x40\n      mstore\n      dup1\n      swap4\n      swap3\n      swap2\n      swap1\n      dup2\n      dup2\n      mstore\n      0x20\n      add\n      dup4\n      dup4\n      0x20\n      mul\n      dup1\n      dup3\n      dup5\n      calldatacopy\n      dup3\n      add\n      swap2\n      pop\n      pop\n      pop\n      pop\n      pop\n      pop\n      swap2\n      swap3\n      swap2\n      swap3\n      swap1\n      dup1\n      calldataload\n      swap1\n      0x20\n      add\n      swap1\n      dup3\n      add\n      dup1\n      calldataload\n      swap1\n      0x20\n      add\n      swap1\n      dup1\n      dup1\n      0x20\n      mul\n      0x20\n      add\n      mload(0x40)\n      swap1\n      dup2\n      add\n      0x40\n      mstore\n      dup1\n      swap4\n      swap3\n      swap2\n      swap1\n      dup2\n      dup2\n      mstore\n      0x20\n      add\n      dup4\n      dup4\n      0x20\n      mul\n      dup1\n      dup3\n      dup5\n      calldatacopy\n      dup3\n      add\n      swap2\n      pop\n      pop\n      pop\n      pop\n      pop\n      pop\n      swap2\n      swap3\n      swap2\n      swap3\n      swap1\n      pop\n      pop\n      pop\n      jump(tag_46)\n    tag_45:\n      stop\n        /* \"contracts/LandRecordFactory.sol\":9157:9364  function getUserOwnedByUid(uint _uid) public view returns(uint number, bytes32[] khatianList){... */\n    tag_8:\n      callvalue\n        /* \"--CODEGEN--\":8:17   */\n      dup1\n        /* \"--CODEGEN--\":5:7   */\n      iszero\n      tag_47\n      jumpi\n        /* \"--CODEGEN--\":30:31   */\n      0x0\n        /* \"--CODEGEN--\":27:28   */\n      dup1\n        /* \"--CODEGEN--\":20:32   */\n      revert\n        /* \"--CODEGEN--\":5:7   */\n    tag_47:\n        /* \"contracts/LandRecordFactory.sol\":9157:9364  function getUserOwnedByUid(uint _uid) public view returns(uint number, bytes32[] khatianList){... */\n      pop\n      tag_48\n      0x4\n      dup1\n      calldatasize\n      sub\n      dup2\n      add\n      swap1\n      dup1\n      dup1\n      calldataload\n      swap1\n      0x20\n      add\n      swap1\n      swap3\n      swap2\n      swap1\n      pop\n      pop\n      pop\n      jump(tag_49)\n    tag_48:\n      mload(0x40)\n      dup1\n      dup4\n      dup2\n      mstore\n      0x20\n      add\n      dup1\n      0x20\n      add\n      dup3\n      dup2\n      sub\n      dup3\n      mstore\n      dup4\n      dup2\n      dup2\n      mload\n      dup2\n      mstore\n      0x20\n      add\n      swap2\n      pop\n      dup1\n      mload\n      swap1\n      0x20\n      add\n      swap1\n      0x20\n      mul\n      dup1\n      dup4\n      dup4\n        /* \"--CODEGEN--\":23:24   */\n      0x0\n        /* \"--CODEGEN--\":8:108   */\n    tag_50:\n        /* \"--CODEGEN--\":33:36   */\n      dup4\n        /* \"--CODEGEN--\":30:31   */\n      dup2\n        /* \"--CODEGEN--\":27:37   */\n      lt\n        /* \"--CODEGEN--\":8:108   */\n      iszero\n      tag_51\n      jumpi\n        /* \"--CODEGEN--\":99:100   */\n      dup1\n        /* \"--CODEGEN--\":94:97   */\n      dup3\n        /* \"--CODEGEN--\":90:101   */\n      add\n        /* \"--CODEGEN--\":84:102   */\n      mload\n        /* \"--CODEGEN--\":80:81   */\n      dup2\n        /* \"--CODEGEN--\":75:78   */\n      dup5\n        /* \"--CODEGEN--\":71:82   */\n      add\n        /* \"--CODEGEN--\":64:103   */\n      mstore\n        /* \"--CODEGEN--\":52:54   */\n      0x20\n        /* \"--CODEGEN--\":49:50   */\n      dup2\n        /* \"--CODEGEN--\":45:55   */\n      add\n        /* \"--CODEGEN--\":40:55   */\n      swap1\n      pop\n        /* \"--CODEGEN--\":8:108   */\n      jump(tag_50)\n    tag_51:\n        /* \"--CODEGEN--\":12:26   */\n      pop\n        /* \"contracts/LandRecordFactory.sol\":9157:9364  function getUserOwnedByUid(uint _uid) public view returns(uint number, bytes32[] khatianList){... */\n      pop\n      pop\n      pop\n      swap1\n      pop\n      add\n      swap4\n      pop\n      pop\n      pop\n      pop\n      mload(0x40)\n      dup1\n      swap2\n      sub\n      swap1\n      return\n        /* \"contracts/LandRecordFactory.sol\":4291:4464  function addUserOwned(uint _uid, bytes32 _khatianHash) public{... */\n    tag_9:\n      callvalue\n        /* \"--CODEGEN--\":8:17   */\n      dup1\n        /* \"--CODEGEN--\":5:7   */\n      iszero\n      tag_53\n      jumpi\n        /* \"--CODEGEN--\":30:31   */\n      0x0\n        /* \"--CODEGEN--\":27:28   */\n      dup1\n        /* \"--CODEGEN--\":20:32   */\n      revert\n        /* \"--CODEGEN--\":5:7   */\n    tag_53:\n        /* \"contracts/LandRecordFactory.sol\":4291:4464  function addUserOwned(uint _uid, bytes32 _khatianHash) public{... */\n      pop\n      tag_54\n      0x4\n      dup1\n      calldatasize\n      sub\n      dup2\n      add\n      swap1\n      dup1\n      dup1\n      calldataload\n      swap1\n      0x20\n      add\n      swap1\n      swap3\n      swap2\n      swap1\n      dup1\n      calldataload\n      not(0x0)\n      and\n      swap1\n      0x20\n      add\n      swap1\n      swap3\n      swap2\n      swap1\n      pop\n      pop\n      pop\n      jump(tag_55)\n    tag_54:\n      stop\n        /* \"contracts/LandRecordFactory.sol\":8523:8624  function getUserIdById(uint id) public view returns(uint UserId){... */\n    tag_10:\n      callvalue\n        /* \"--CODEGEN--\":8:17   */\n      dup1\n        /* \"--CODEGEN--\":5:7   */\n      iszero\n      tag_56\n      jumpi\n        /* \"--CODEGEN--\":30:31   */\n      0x0\n        /* \"--CODEGEN--\":27:28   */\n      dup1\n        /* \"--CODEGEN--\":20:32   */\n      revert\n        /* \"--CODEGEN--\":5:7   */\n    tag_56:\n        /* \"contracts/LandRecordFactory.sol\":8523:8624  function getUserIdById(uint id) public view returns(uint UserId){... */\n      pop\n      tag_57\n      0x4\n      dup1\n      calldatasize\n      sub\n      dup2\n      add\n      swap1\n      dup1\n      dup1\n      calldataload\n      swap1\n      0x20\n      add\n      swap1\n      swap3\n      swap2\n      swap1\n      pop\n      pop\n      pop\n      jump(tag_58)\n    tag_57:\n      mload(0x40)\n      dup1\n      dup3\n      dup2\n      mstore\n      0x20\n      add\n      swap2\n      pop\n      pop\n      mload(0x40)\n      dup1\n      swap2\n      sub\n      swap1\n      return\n        /* \"contracts/LandRecordFactory.sol\":4586:4702  function getKhatianHasById(uint id) public view returns(bytes32 khatianHash){... */\n    tag_11:\n      callvalue\n        /* \"--CODEGEN--\":8:17   */\n      dup1\n        /* \"--CODEGEN--\":5:7   */\n      iszero\n      tag_59\n      jumpi\n        /* \"--CODEGEN--\":30:31   */\n      0x0\n        /* \"--CODEGEN--\":27:28   */\n      dup1\n        /* \"--CODEGEN--\":20:32   */\n      revert\n        /* \"--CODEGEN--\":5:7   */\n    tag_59:\n        /* \"contracts/LandRecordFactory.sol\":4586:4702  function getKhatianHasById(uint id) public view returns(bytes32 khatianHash){... */\n      pop\n      tag_60\n      0x4\n      dup1\n      calldatasize\n      sub\n      dup2\n      add\n      swap1\n      dup1\n      dup1\n      calldataload\n      swap1\n      0x20\n      add\n      swap1\n      swap3\n      swap2\n      swap1\n      pop\n      pop\n      pop\n      jump(tag_61)\n    tag_60:\n      mload(0x40)\n      dup1\n      dup3\n      not(0x0)\n      and\n      not(0x0)\n      and\n      dup2\n      mstore\n      0x20\n      add\n      swap2\n      pop\n      pop\n      mload(0x40)\n      dup1\n      swap2\n      sub\n      swap1\n      return\n        /* \"contracts/LandRecordFactory.sol\":6817:7413  function getPlotByHash(bytes32 plotHash) public view returns(bytes32 division, bytes32 district, bytes32 thana, uint16 JLNo, uint16 plotNo, uint8 plotType, uint32 plotArea){... */\n    tag_12:\n      callvalue\n        /* \"--CODEGEN--\":8:17   */\n      dup1\n        /* \"--CODEGEN--\":5:7   */\n      iszero\n      tag_62\n      jumpi\n        /* \"--CODEGEN--\":30:31   */\n      0x0\n        /* \"--CODEGEN--\":27:28   */\n      dup1\n        /* \"--CODEGEN--\":20:32   */\n      revert\n        /* \"--CODEGEN--\":5:7   */\n    tag_62:\n        /* \"contracts/LandRecordFactory.sol\":6817:7413  function getPlotByHash(bytes32 plotHash) public view returns(bytes32 division, bytes32 district, bytes32 thana, uint16 JLNo, uint16 plotNo, uint8 plotType, uint32 plotArea){... */\n      pop\n      tag_63\n      0x4\n      dup1\n      calldatasize\n      sub\n      dup2\n      add\n      swap1\n      dup1\n      dup1\n      calldataload\n      not(0x0)\n      and\n      swap1\n      0x20\n      add\n      swap1\n      swap3\n      swap2\n      swap1\n      pop\n      pop\n      pop\n      jump(tag_64)\n    tag_63:\n      mload(0x40)\n      dup1\n      dup9\n      not(0x0)\n      and\n      not(0x0)\n      and\n      dup2\n      mstore\n      0x20\n      add\n      dup8\n      not(0x0)\n      and\n      not(0x0)\n      and\n      dup2\n      mstore\n      0x20\n      add\n      dup7\n      not(0x0)\n      and\n      not(0x0)\n      and\n      dup2\n      mstore\n      0x20\n      add\n      dup6\n      0xffff\n      and\n      0xffff\n      and\n      dup2\n      mstore\n      0x20\n      add\n      dup5\n      0xffff\n      and\n      0xffff\n      and\n      dup2\n      mstore\n      0x20\n      add\n      dup4\n      0xff\n      and\n      0xff\n      and\n      dup2\n      mstore\n      0x20\n      add\n      dup3\n      0xffffffff\n      and\n      0xffffffff\n      and\n      dup2\n      mstore\n      0x20\n      add\n      swap8\n      pop\n      pop\n      pop\n      pop\n      pop\n      pop\n      pop\n      pop\n      mload(0x40)\n      dup1\n      swap2\n      sub\n      swap1\n      return\n        /* \"contracts/LandRecordFactory.sol\":4474:4576  function getKhatianArrayLen() public view returns(uint len){... */\n    tag_13:\n      callvalue\n        /* \"--CODEGEN--\":8:17   */\n      dup1\n        /* \"--CODEGEN--\":5:7   */\n      iszero\n      tag_65\n      jumpi\n        /* \"--CODEGEN--\":30:31   */\n      0x0\n        /* \"--CODEGEN--\":27:28   */\n      dup1\n        /* \"--CODEGEN--\":20:32   */\n      revert\n        /* \"--CODEGEN--\":5:7   */\n    tag_65:\n        /* \"contracts/LandRecordFactory.sol\":4474:4576  function getKhatianArrayLen() public view returns(uint len){... */\n      pop\n      tag_66\n      jump(tag_67)\n    tag_66:\n      mload(0x40)\n      dup1\n      dup3\n      dup2\n      mstore\n      0x20\n      add\n      swap2\n      pop\n      pop\n      mload(0x40)\n      dup1\n      swap2\n      sub\n      swap1\n      return\n        /* \"contracts/LandRecordFactory.sol\":7423:8407  function creatNewUser(string _fullName, string _fatheName, string _district, string _thana, uint24 _postCode, string _village, uint _nid) public{... */\n    tag_14:\n      callvalue\n        /* \"--CODEGEN--\":8:17   */\n      dup1\n        /* \"--CODEGEN--\":5:7   */\n      iszero\n      tag_68\n      jumpi\n        /* \"--CODEGEN--\":30:31   */\n      0x0\n        /* \"--CODEGEN--\":27:28   */\n      dup1\n        /* \"--CODEGEN--\":20:32   */\n      revert\n        /* \"--CODEGEN--\":5:7   */\n    tag_68:\n        /* \"contracts/LandRecordFactory.sol\":7423:8407  function creatNewUser(string _fullName, string _fatheName, string _district, string _thana, uint24 _postCode, string _village, uint _nid) public{... */\n      pop\n      tag_69\n      0x4\n      dup1\n      calldatasize\n      sub\n      dup2\n      add\n      swap1\n      dup1\n      dup1\n      calldataload\n      swap1\n      0x20\n      add\n      swap1\n      dup3\n      add\n      dup1\n      calldataload\n      swap1\n      0x20\n      add\n      swap1\n      dup1\n      dup1\n      0x1f\n      add\n      0x20\n      dup1\n      swap2\n      div\n      mul\n      0x20\n      add\n      mload(0x40)\n      swap1\n      dup2\n      add\n      0x40\n      mstore\n      dup1\n      swap4\n      swap3\n      swap2\n      swap1\n      dup2\n      dup2\n      mstore\n      0x20\n      add\n      dup4\n      dup4\n      dup1\n      dup3\n      dup5\n      calldatacopy\n      dup3\n      add\n      swap2\n      pop\n      pop\n      pop\n      pop\n      pop\n      pop\n      swap2\n      swap3\n      swap2\n      swap3\n      swap1\n      dup1\n      calldataload\n      swap1\n      0x20\n      add\n      swap1\n      dup3\n      add\n      dup1\n      calldataload\n      swap1\n      0x20\n      add\n      swap1\n      dup1\n      dup1\n      0x1f\n      add\n      0x20\n      dup1\n      swap2\n      div\n      mul\n      0x20\n      add\n      mload(0x40)\n      swap1\n      dup2\n      add\n      0x40\n      mstore\n      dup1\n      swap4\n      swap3\n      swap2\n      swap1\n      dup2\n      dup2\n      mstore\n      0x20\n      add\n      dup4\n      dup4\n      dup1\n      dup3\n      dup5\n      calldatacopy\n      dup3\n      add\n      swap2\n      pop\n      pop\n      pop\n      pop\n      pop\n      pop\n      swap2\n      swap3\n      swap2\n      swap3\n      swap1\n      dup1\n      calldataload\n      swap1\n      0x20\n      add\n      swap1\n      dup3\n      add\n      dup1\n      calldataload\n      swap1\n      0x20\n      add\n      swap1\n      dup1\n      dup1\n      0x1f\n      add\n      0x20\n      dup1\n      swap2\n      div\n      mul\n      0x20\n      add\n      mload(0x40)\n      swap1\n      dup2\n      add\n      0x40\n      mstore\n      dup1\n      swap4\n      swap3\n      swap2\n      swap1\n      dup2\n      dup2\n      mstore\n      0x20\n      add\n      dup4\n      dup4\n      dup1\n      dup3\n      dup5\n      calldatacopy\n      dup3\n      add\n      swap2\n      pop\n      pop\n      pop\n      pop\n      pop\n      pop\n      swap2\n      swap3\n      swap2\n      swap3\n      swap1\n      dup1\n      calldataload\n      swap1\n      0x20\n      add\n      swap1\n      dup3\n      add\n      dup1\n      calldataload\n      swap1\n      0x20\n      add\n      swap1\n      dup1\n      dup1\n      0x1f\n      add\n      0x20\n      dup1\n      swap2\n      div\n      mul\n      0x20\n      add\n      mload(0x40)\n      swap1\n      dup2\n      add\n      0x40\n      mstore\n      dup1\n      swap4\n      swap3\n      swap2\n      swap1\n      dup2\n      dup2\n      mstore\n      0x20\n      add\n      dup4\n      dup4\n      dup1\n      dup3\n      dup5\n      calldatacopy\n      dup3\n      add\n      swap2\n      pop\n      pop\n      pop\n      pop\n      pop\n      pop\n      swap2\n      swap3\n      swap2\n      swap3\n      swap1\n      dup1\n      calldataload\n      0xffffff\n      and\n      swap1\n      0x20\n      add\n      swap1\n      swap3\n      swap2\n      swap1\n      dup1\n      calldataload\n      swap1\n      0x20\n      add\n      swap1\n      dup3\n      add\n      dup1\n      calldataload\n      swap1\n      0x20\n      add\n      swap1\n      dup1\n      dup1\n      0x1f\n      add\n      0x20\n      dup1\n      swap2\n      div\n      mul\n      0x20\n      add\n      mload(0x40)\n      swap1\n      dup2\n      add\n      0x40\n      mstore\n      dup1\n      swap4\n      swap3\n      swap2\n      swap1\n      dup2\n      dup2\n      mstore\n      0x20\n      add\n      dup4\n      dup4\n      dup1\n      dup3\n      dup5\n      calldatacopy\n      dup3\n      add\n      swap2\n      pop\n      pop\n      pop\n      pop\n      pop\n      pop\n      swap2\n      swap3\n      swap2\n      swap3\n      swap1\n      dup1\n      calldataload\n      swap1\n      0x20\n      add\n      swap1\n      swap3\n      swap2\n      swap1\n      pop\n      pop\n      pop\n      jump(tag_70)\n    tag_69:\n      stop\n        /* \"contracts/LandRecordFactory.sol\":6699:6807  function getPlotHashById(uint id) public view returns(bytes32 plotHash){... */\n    tag_15:\n      callvalue\n        /* \"--CODEGEN--\":8:17   */\n      dup1\n        /* \"--CODEGEN--\":5:7   */\n      iszero\n      tag_71\n      jumpi\n        /* \"--CODEGEN--\":30:31   */\n      0x0\n        /* \"--CODEGEN--\":27:28   */\n      dup1\n        /* \"--CODEGEN--\":20:32   */\n      revert\n        /* \"--CODEGEN--\":5:7   */\n    tag_71:\n        /* \"contracts/LandRecordFactory.sol\":6699:6807  function getPlotHashById(uint id) public view returns(bytes32 plotHash){... */\n      pop\n      tag_72\n      0x4\n      dup1\n      calldatasize\n      sub\n      dup2\n      add\n      swap1\n      dup1\n      dup1\n      calldataload\n      swap1\n      0x20\n      add\n      swap1\n      swap3\n      swap2\n      swap1\n      pop\n      pop\n      pop\n      jump(tag_73)\n    tag_72:\n      mload(0x40)\n      dup1\n      dup3\n      not(0x0)\n      and\n      not(0x0)\n      and\n      dup2\n      mstore\n      0x20\n      add\n      swap2\n      pop\n      pop\n      mload(0x40)\n      dup1\n      swap2\n      sub\n      swap1\n      return\n        /* \"contracts/LandRecordFactory.sol\":8417:8513  function getUserArrayLen() public view returns(uint len){... */\n    tag_16:\n      callvalue\n        /* \"--CODEGEN--\":8:17   */\n      dup1\n        /* \"--CODEGEN--\":5:7   */\n      iszero\n      tag_74\n      jumpi\n        /* \"--CODEGEN--\":30:31   */\n      0x0\n        /* \"--CODEGEN--\":27:28   */\n      dup1\n        /* \"--CODEGEN--\":20:32   */\n      revert\n        /* \"--CODEGEN--\":5:7   */\n    tag_74:\n        /* \"contracts/LandRecordFactory.sol\":8417:8513  function getUserArrayLen() public view returns(uint len){... */\n      pop\n      tag_75\n      jump(tag_76)\n    tag_75:\n      mload(0x40)\n      dup1\n      dup3\n      dup2\n      mstore\n      0x20\n      add\n      swap2\n      pop\n      pop\n      mload(0x40)\n      dup1\n      swap2\n      sub\n      swap1\n      return\n        /* \"contracts/LandRecordFactory.sol\":2620:4281  function addKhatianFromOld(uint64 _khatianiId, bytes32 _plotHash, uint16 _percentOwn, bytes32 _buyFrom, uint[] _user, uint16[] _percentage) public{... */\n    tag_19:\n        /* \"contracts/LandRecordFactory.sol\":2938:2957  bytes32 khatianHash */\n      0x0\n        /* \"contracts/LandRecordFactory.sol\":3303:3309  uint j */\n      dup1\n        /* \"contracts/LandRecordFactory.sol\":4079:4085  uint i */\n      0x0\n        /* \"contracts/LandRecordFactory.sol\":2798:2811  contarctOwner */\n      0x7\n      0x0\n      swap1\n      sload\n      swap1\n      0x100\n      exp\n      swap1\n      div\n      0xffffffffffffffffffffffffffffffffffffffff\n      and\n        /* \"contracts/LandRecordFactory.sol\":2784:2811  msg.sender == contarctOwner */\n      0xffffffffffffffffffffffffffffffffffffffff\n      and\n        /* \"contracts/LandRecordFactory.sol\":2784:2794  msg.sender */\n      caller\n        /* \"contracts/LandRecordFactory.sol\":2784:2811  msg.sender == contarctOwner */\n      0xffffffffffffffffffffffffffffffffffffffff\n      and\n      eq\n        /* \"contracts/LandRecordFactory.sol\":2776:2840  require(msg.sender == contarctOwner, \"Sender is not authorized\") */\n      iszero\n      iszero\n      tag_78\n      jumpi\n      mload(0x40)\n      0x8c379a000000000000000000000000000000000000000000000000000000000\n      dup2\n      mstore\n      0x4\n      add\n      dup1\n      dup1\n      0x20\n      add\n      dup3\n      dup2\n      sub\n      dup3\n      mstore\n      0x18\n      dup2\n      mstore\n      0x20\n      add\n      dup1\n      0x53656e646572206973206e6f7420617574686f72697a65640000000000000000\n      dup2\n      mstore\n      pop\n      0x20\n      add\n      swap2\n      pop\n      pop\n      mload(0x40)\n      dup1\n      swap2\n      sub\n      swap1\n      revert\n    tag_78:\n        /* \"contracts/LandRecordFactory.sol\":2892:2896  true */\n      0x1\n        /* \"contracts/LandRecordFactory.sol\":2858:2896  plotMapping[_plotHash].isExist == true */\n      iszero\n      iszero\n        /* \"contracts/LandRecordFactory.sol\":2858:2869  plotMapping */\n      0x3\n        /* \"contracts/LandRecordFactory.sol\":2858:2880  plotMapping[_plotHash] */\n      0x0\n        /* \"contracts/LandRecordFactory.sol\":2870:2879  _plotHash */\n      dup11\n        /* \"contracts/LandRecordFactory.sol\":2858:2880  plotMapping[_plotHash] */\n      not(0x0)\n      and\n      not(0x0)\n      and\n      dup2\n      mstore\n      0x20\n      add\n      swap1\n      dup2\n      mstore\n      0x20\n      add\n      0x0\n      keccak256\n        /* \"contracts/LandRecordFactory.sol\":2858:2888  plotMapping[_plotHash].isExist */\n      0x3\n      add\n      0x9\n      swap1\n      sload\n      swap1\n      0x100\n      exp\n      swap1\n      div\n      0xff\n      and\n        /* \"contracts/LandRecordFactory.sol\":2858:2896  plotMapping[_plotHash].isExist == true */\n      iszero\n      iszero\n      eq\n        /* \"contracts/LandRecordFactory.sol\":2850:2919  require(plotMapping[_plotHash].isExist == true, \"Plot doesn't exist\") */\n      iszero\n      iszero\n      tag_79\n      jumpi\n      mload(0x40)\n      0x8c379a000000000000000000000000000000000000000000000000000000000\n      dup2\n      mstore\n      0x4\n      add\n      dup1\n      dup1\n      0x20\n      add\n      dup3\n      dup2\n      sub\n      dup3\n      mstore\n      0x12\n      dup2\n      mstore\n      0x20\n      add\n      dup1\n      0x506c6f7420646f65736e27742065786973740000000000000000000000000000\n      dup2\n      mstore\n      pop\n      0x20\n      add\n      swap2\n      pop\n      pop\n      mload(0x40)\n      dup1\n      swap2\n      sub\n      swap1\n      revert\n    tag_79:\n        /* \"contracts/LandRecordFactory.sol\":2987:2998  _khatianiId */\n      dup9\n        /* \"contracts/LandRecordFactory.sol\":3000:3009  _plotHash */\n      dup9\n        /* \"contracts/LandRecordFactory.sol\":2970:3010  abi.encodePacked(_khatianiId, _plotHash) */\n      add(0x20, mload(0x40))\n      dup1\n      dup4\n      0xffffffffffffffff\n      and\n      0xffffffffffffffff\n      and\n      0x1000000000000000000000000000000000000000000000000\n      mul\n      dup2\n      mstore\n      0x8\n      add\n      dup3\n      not(0x0)\n      and\n      not(0x0)\n      and\n      dup2\n      mstore\n      0x20\n      add\n      swap3\n      pop\n      pop\n      pop\n      mload(0x40)\n        /* \"--CODEGEN--\":49:53   */\n      0x20\n        /* \"--CODEGEN--\":39:46   */\n      dup2\n        /* \"--CODEGEN--\":30:37   */\n      dup4\n        /* \"--CODEGEN--\":26:47   */\n      sub\n        /* \"--CODEGEN--\":22:54   */\n      sub\n        /* \"--CODEGEN--\":13:20   */\n      dup2\n        /* \"--CODEGEN--\":6:55   */\n      mstore\n        /* \"contracts/LandRecordFactory.sol\":2970:3010  abi.encodePacked(_khatianiId, _plotHash) */\n      swap1\n      0x40\n      mstore\n        /* \"contracts/LandRecordFactory.sol\":2960:3011  keccak256(abi.encodePacked(_khatianiId, _plotHash)) */\n      mload(0x40)\n      dup1\n      dup3\n      dup1\n      mload\n      swap1\n      0x20\n      add\n      swap1\n      dup1\n      dup4\n      dup4\n        /* \"--CODEGEN--\":36:189   */\n    tag_80:\n        /* \"--CODEGEN--\":66:68   */\n      0x20\n        /* \"--CODEGEN--\":61:64   */\n      dup4\n        /* \"--CODEGEN--\":58:69   */\n      lt\n        /* \"--CODEGEN--\":51:70   */\n      iszero\n        /* \"--CODEGEN--\":36:189   */\n      iszero\n      tag_81\n      jumpi\n        /* \"--CODEGEN--\":182:185   */\n      dup1\n        /* \"--CODEGEN--\":176:186   */\n      mload\n        /* \"--CODEGEN--\":171:174   */\n      dup3\n        /* \"--CODEGEN--\":164:187   */\n      mstore\n        /* \"--CODEGEN--\":98:100   */\n      0x20\n        /* \"--CODEGEN--\":93:96   */\n      dup3\n        /* \"--CODEGEN--\":89:101   */\n      add\n        /* \"--CODEGEN--\":82:101   */\n      swap2\n      pop\n        /* \"--CODEGEN--\":123:125   */\n      0x20\n        /* \"--CODEGEN--\":118:121   */\n      dup2\n        /* \"--CODEGEN--\":114:126   */\n      add\n        /* \"--CODEGEN--\":107:126   */\n      swap1\n      pop\n        /* \"--CODEGEN--\":148:150   */\n      0x20\n        /* \"--CODEGEN--\":143:146   */\n      dup4\n        /* \"--CODEGEN--\":139:151   */\n      sub\n        /* \"--CODEGEN--\":132:151   */\n      swap3\n      pop\n        /* \"--CODEGEN--\":36:189   */\n      jump(tag_80)\n    tag_81:\n        /* \"--CODEGEN--\":274:275   */\n      0x1\n        /* \"--CODEGEN--\":267:270   */\n      dup4\n        /* \"--CODEGEN--\":263:265   */\n      0x20\n        /* \"--CODEGEN--\":259:271   */\n      sub\n        /* \"--CODEGEN--\":254:257   */\n      0x100\n        /* \"--CODEGEN--\":250:272   */\n      exp\n        /* \"--CODEGEN--\":246:276   */\n      sub\n        /* \"--CODEGEN--\":315:319   */\n      dup1\n        /* \"--CODEGEN--\":311:320   */\n      not\n        /* \"--CODEGEN--\":305:308   */\n      dup3\n        /* \"--CODEGEN--\":299:309   */\n      mload\n        /* \"--CODEGEN--\":295:321   */\n      and\n        /* \"--CODEGEN--\":356:360   */\n      dup2\n        /* \"--CODEGEN--\":350:353   */\n      dup5\n        /* \"--CODEGEN--\":344:354   */\n      mload\n        /* \"--CODEGEN--\":340:361   */\n      and\n        /* \"--CODEGEN--\":389:396   */\n      dup1\n        /* \"--CODEGEN--\":380:387   */\n      dup3\n        /* \"--CODEGEN--\":377:397   */\n      or\n        /* \"--CODEGEN--\":372:375   */\n      dup6\n        /* \"--CODEGEN--\":365:398   */\n      mstore\n        /* \"--CODEGEN--\":3:402   */\n      pop\n      pop\n      pop\n        /* \"contracts/LandRecordFactory.sol\":2960:3011  keccak256(abi.encodePacked(_khatianiId, _plotHash)) */\n      pop\n      pop\n      pop\n      swap1\n      pop\n      add\n      swap2\n      pop\n      pop\n      mload(0x40)\n      dup1\n      swap2\n      sub\n      swap1\n      keccak256\n        /* \"contracts/LandRecordFactory.sol\":2938:3011  bytes32 khatianHash = keccak256(abi.encodePacked(_khatianiId, _plotHash)) */\n      swap3\n      pop\n        /* \"contracts/LandRecordFactory.sol\":3077:3081  true */\n      0x1\n        /* \"contracts/LandRecordFactory.sol\":3038:3081  khatianMapping[khatianHash].isExist != true */\n      iszero\n      iszero\n        /* \"contracts/LandRecordFactory.sol\":3038:3052  khatianMapping */\n      0x5\n        /* \"contracts/LandRecordFactory.sol\":3038:3065  khatianMapping[khatianHash] */\n      0x0\n        /* \"contracts/LandRecordFactory.sol\":3053:3064  khatianHash */\n      dup6\n        /* \"contracts/LandRecordFactory.sol\":3038:3065  khatianMapping[khatianHash] */\n      not(0x0)\n      and\n      not(0x0)\n      and\n      dup2\n      mstore\n      0x20\n      add\n      swap1\n      dup2\n      mstore\n      0x20\n      add\n      0x0\n      keccak256\n        /* \"contracts/LandRecordFactory.sol\":3038:3073  khatianMapping[khatianHash].isExist */\n      0x8\n      add\n      0x0\n      swap1\n      sload\n      swap1\n      0x100\n      exp\n      swap1\n      div\n      0xff\n      and\n        /* \"contracts/LandRecordFactory.sol\":3038:3081  khatianMapping[khatianHash].isExist != true */\n      iszero\n      iszero\n      eq\n      iszero\n        /* \"contracts/LandRecordFactory.sol\":3030:3108  require(khatianMapping[khatianHash].isExist != true, \"Khatian already exists\") */\n      iszero\n      iszero\n      tag_83\n      jumpi\n      mload(0x40)\n      0x8c379a000000000000000000000000000000000000000000000000000000000\n      dup2\n      mstore\n      0x4\n      add\n      dup1\n      dup1\n      0x20\n      add\n      dup3\n      dup2\n      sub\n      dup3\n      mstore\n      0x16\n      dup2\n      mstore\n      0x20\n      add\n      dup1\n      0x4b68617469616e20616c72656164792065786973747300000000000000000000\n      dup2\n      mstore\n      pop\n      0x20\n      add\n      swap2\n      pop\n      pop\n      mload(0x40)\n      dup1\n      swap2\n      sub\n      swap1\n      revert\n    tag_83:\n        /* \"contracts/LandRecordFactory.sol\":3126:3140  khatianMapping */\n      0x5\n        /* \"contracts/LandRecordFactory.sol\":3126:3150  khatianMapping[_buyFrom] */\n      0x0\n        /* \"contracts/LandRecordFactory.sol\":3141:3149  _buyFrom */\n      dup8\n        /* \"contracts/LandRecordFactory.sol\":3126:3150  khatianMapping[_buyFrom] */\n      not(0x0)\n      and\n      not(0x0)\n      and\n      dup2\n      mstore\n      0x20\n      add\n      swap1\n      dup2\n      mstore\n      0x20\n      add\n      0x0\n      keccak256\n        /* \"contracts/LandRecordFactory.sol\":3126:3158  khatianMapping[_buyFrom].isExist */\n      0x8\n      add\n      0x0\n      swap1\n      sload\n      swap1\n      0x100\n      exp\n      swap1\n      div\n      0xff\n      and\n        /* \"contracts/LandRecordFactory.sol\":3118:3193  require(khatianMapping[_buyFrom].isExist, \"previous Khatian doesn't exist\") */\n      iszero\n      iszero\n      tag_84\n      jumpi\n      mload(0x40)\n      0x8c379a000000000000000000000000000000000000000000000000000000000\n      dup2\n      mstore\n      0x4\n      add\n      dup1\n      dup1\n      0x20\n      add\n      dup3\n      dup2\n      sub\n      dup3\n      mstore\n      0x1e\n      dup2\n      mstore\n      0x20\n      add\n      dup1\n      0x70726576696f7573204b68617469616e20646f65736e27742065786973740000\n      dup2\n      mstore\n      pop\n      0x20\n      add\n      swap2\n      pop\n      pop\n      mload(0x40)\n      dup1\n      swap2\n      sub\n      swap1\n      revert\n    tag_84:\n        /* \"contracts/LandRecordFactory.sol\":3250:3261  _percentOwn */\n      dup7\n        /* \"contracts/LandRecordFactory.sol\":3211:3261  khatianMapping[_buyFrom].percentOwn >= _percentOwn */\n      0xffff\n      and\n        /* \"contracts/LandRecordFactory.sol\":3211:3225  khatianMapping */\n      0x5\n        /* \"contracts/LandRecordFactory.sol\":3211:3235  khatianMapping[_buyFrom] */\n      0x0\n        /* \"contracts/LandRecordFactory.sol\":3226:3234  _buyFrom */\n      dup9\n        /* \"contracts/LandRecordFactory.sol\":3211:3235  khatianMapping[_buyFrom] */\n      not(0x0)\n      and\n      not(0x0)\n      and\n      dup2\n      mstore\n      0x20\n      add\n      swap1\n      dup2\n      mstore\n      0x20\n      add\n      0x0\n      keccak256\n        /* \"contracts/LandRecordFactory.sol\":3211:3246  khatianMapping[_buyFrom].percentOwn */\n      0x2\n      add\n      0x0\n      swap1\n      sload\n      swap1\n      0x100\n      exp\n      swap1\n      div\n      0xffff\n      and\n        /* \"contracts/LandRecordFactory.sol\":3211:3261  khatianMapping[_buyFrom].percentOwn >= _percentOwn */\n      0xffff\n      and\n      lt\n      iszero\n        /* \"contracts/LandRecordFactory.sol\":3203:3289  require(khatianMapping[_buyFrom].percentOwn >= _percentOwn, \"Not enough land to sell\") */\n      iszero\n      iszero\n      tag_85\n      jumpi\n      mload(0x40)\n      0x8c379a000000000000000000000000000000000000000000000000000000000\n      dup2\n      mstore\n      0x4\n      add\n      dup1\n      dup1\n      0x20\n      add\n      dup3\n      dup2\n      sub\n      dup3\n      mstore\n      0x17\n      dup2\n      mstore\n      0x20\n      add\n      dup1\n      0x4e6f7420656e6f756768206c616e6420746f2073656c6c000000000000000000\n      dup2\n      mstore\n      pop\n      0x20\n      add\n      swap2\n      pop\n      pop\n      mload(0x40)\n      dup1\n      swap2\n      sub\n      swap1\n      revert\n    tag_85:\n        /* \"contracts/LandRecordFactory.sol\":3312:3313  0 */\n      0x0\n        /* \"contracts/LandRecordFactory.sol\":3303:3313  uint j = 0 */\n      swap2\n      pop\n        /* \"contracts/LandRecordFactory.sol\":3299:3436  for(uint j = 0; j< _user.length; j++){... */\n    tag_86:\n        /* \"contracts/LandRecordFactory.sol\":3318:3323  _user */\n      dup5\n        /* \"contracts/LandRecordFactory.sol\":3318:3330  _user.length */\n      mload\n        /* \"contracts/LandRecordFactory.sol\":3315:3316  j */\n      dup3\n        /* \"contracts/LandRecordFactory.sol\":3315:3330  j< _user.length */\n      lt\n        /* \"contracts/LandRecordFactory.sol\":3299:3436  for(uint j = 0; j< _user.length; j++){... */\n      iszero\n      tag_87\n      jumpi\n        /* \"contracts/LandRecordFactory.sol\":3392:3396  true */\n      0x1\n        /* \"contracts/LandRecordFactory.sol\":3359:3396  userMapping[_user[j]].isExist == true */\n      iszero\n      iszero\n        /* \"contracts/LandRecordFactory.sol\":3359:3370  userMapping */\n      0x1\n        /* \"contracts/LandRecordFactory.sol\":3359:3380  userMapping[_user[j]] */\n      0x0\n        /* \"contracts/LandRecordFactory.sol\":3371:3376  _user */\n      dup8\n        /* \"contracts/LandRecordFactory.sol\":3377:3378  j */\n      dup6\n        /* \"contracts/LandRecordFactory.sol\":3371:3379  _user[j] */\n      dup2\n      mload\n      dup2\n      lt\n      iszero\n      iszero\n      tag_89\n      jumpi\n      invalid\n    tag_89:\n      swap1\n      0x20\n      add\n      swap1\n      0x20\n      mul\n      add\n      mload\n        /* \"contracts/LandRecordFactory.sol\":3359:3380  userMapping[_user[j]] */\n      dup2\n      mstore\n      0x20\n      add\n      swap1\n      dup2\n      mstore\n      0x20\n      add\n      0x0\n      keccak256\n        /* \"contracts/LandRecordFactory.sol\":3359:3388  userMapping[_user[j]].isExist */\n      0x6\n      add\n      0x0\n      swap1\n      sload\n      swap1\n      0x100\n      exp\n      swap1\n      div\n      0xff\n      and\n        /* \"contracts/LandRecordFactory.sol\":3359:3396  userMapping[_user[j]].isExist == true */\n      iszero\n      iszero\n      eq\n        /* \"contracts/LandRecordFactory.sol\":3351:3425  require(userMapping[_user[j]].isExist == true, \"User's NID doesn't exist\") */\n      iszero\n      iszero\n      tag_90\n      jumpi\n      mload(0x40)\n      0x8c379a000000000000000000000000000000000000000000000000000000000\n      dup2\n      mstore\n      0x4\n      add\n      dup1\n      dup1\n      0x20\n      add\n      dup3\n      dup2\n      sub\n      dup3\n      mstore\n      0x18\n      dup2\n      mstore\n      0x20\n      add\n      dup1\n      0x557365722773204e494420646f65736e27742065786973740000000000000000\n      dup2\n      mstore\n      pop\n      0x20\n      add\n      swap2\n      pop\n      pop\n      mload(0x40)\n      dup1\n      swap2\n      sub\n      swap1\n      revert\n    tag_90:\n        /* \"contracts/LandRecordFactory.sol\":3332:3335  j++ */\n      dup2\n      dup1\n      0x1\n      add\n      swap3\n      pop\n      pop\n        /* \"contracts/LandRecordFactory.sol\":3299:3436  for(uint j = 0; j< _user.length; j++){... */\n      jump(tag_86)\n    tag_87:\n        /* \"contracts/LandRecordFactory.sol\":3454:3468  khatianMapping */\n      0x5\n        /* \"contracts/LandRecordFactory.sol\":3454:3478  khatianMapping[_buyFrom] */\n      0x0\n        /* \"contracts/LandRecordFactory.sol\":3469:3477  _buyFrom */\n      dup8\n        /* \"contracts/LandRecordFactory.sol\":3454:3478  khatianMapping[_buyFrom] */\n      not(0x0)\n      and\n      not(0x0)\n      and\n      dup2\n      mstore\n      0x20\n      add\n      swap1\n      dup2\n      mstore\n      0x20\n      add\n      0x0\n      keccak256\n        /* \"contracts/LandRecordFactory.sol\":3454:3485  khatianMapping[_buyFrom].sellTo */\n      0x4\n      add\n        /* \"contracts/LandRecordFactory.sol\":3491:3502  khatianHash */\n      dup4\n        /* \"contracts/LandRecordFactory.sol\":3454:3503  khatianMapping[_buyFrom].sellTo.push(khatianHash) */\n      swap1\n      dup1\n        /* \"--CODEGEN--\":39:40   */\n      0x1\n        /* \"--CODEGEN--\":33:36   */\n      dup2\n        /* \"--CODEGEN--\":27:37   */\n      sload\n        /* \"--CODEGEN--\":23:41   */\n      add\n        /* \"--CODEGEN--\":57:67   */\n      dup1\n        /* \"--CODEGEN--\":52:55   */\n      dup3\n        /* \"--CODEGEN--\":45:68   */\n      sstore\n        /* \"--CODEGEN--\":79:89   */\n      dup1\n        /* \"--CODEGEN--\":72:89   */\n      swap2\n      pop\n        /* \"--CODEGEN--\":0:93   */\n      pop\n        /* \"contracts/LandRecordFactory.sol\":3454:3503  khatianMapping[_buyFrom].sellTo.push(khatianHash) */\n      swap1\n      0x1\n      dup3\n      sub\n      swap1\n      0x0\n      mstore\n      keccak256(0x0, 0x20)\n      add\n      0x0\n      swap1\n      swap2\n      swap3\n      swap1\n      swap2\n      swap1\n      swap2\n      pop\n      swap1\n      not(0x0)\n      and\n      swap1\n      sstore\n      pop\n        /* \"contracts/LandRecordFactory.sol\":3513:3527  khatianMapping */\n      0x5\n        /* \"contracts/LandRecordFactory.sol\":3513:3537  khatianMapping[_buyFrom] */\n      0x0\n        /* \"contracts/LandRecordFactory.sol\":3528:3536  _buyFrom */\n      dup8\n        /* \"contracts/LandRecordFactory.sol\":3513:3537  khatianMapping[_buyFrom] */\n      not(0x0)\n      and\n      not(0x0)\n      and\n      dup2\n      mstore\n      0x20\n      add\n      swap1\n      dup2\n      mstore\n      0x20\n      add\n      0x0\n      keccak256\n        /* \"contracts/LandRecordFactory.sol\":3513:3552  khatianMapping[_buyFrom].sellPercentage */\n      0x5\n      add\n        /* \"contracts/LandRecordFactory.sol\":3558:3569  _percentOwn */\n      dup8\n        /* \"contracts/LandRecordFactory.sol\":3513:3570  khatianMapping[_buyFrom].sellPercentage.push(_percentOwn) */\n      swap1\n      dup1\n        /* \"--CODEGEN--\":39:40   */\n      0x1\n        /* \"--CODEGEN--\":33:36   */\n      dup2\n        /* \"--CODEGEN--\":27:37   */\n      sload\n        /* \"--CODEGEN--\":23:41   */\n      add\n        /* \"--CODEGEN--\":57:67   */\n      dup1\n        /* \"--CODEGEN--\":52:55   */\n      dup3\n        /* \"--CODEGEN--\":45:68   */\n      sstore\n        /* \"--CODEGEN--\":79:89   */\n      dup1\n        /* \"--CODEGEN--\":72:89   */\n      swap2\n      pop\n        /* \"--CODEGEN--\":0:93   */\n      pop\n        /* \"contracts/LandRecordFactory.sol\":3513:3570  khatianMapping[_buyFrom].sellPercentage.push(_percentOwn) */\n      swap1\n      0x1\n      dup3\n      sub\n      swap1\n      0x0\n      mstore\n      keccak256(0x0, 0x20)\n      swap1\n      0x10\n      swap2\n      dup3\n      dup3\n      div\n      add\n      swap2\n      swap1\n      mod\n      0x2\n      mul\n      swap1\n      swap2\n      swap3\n      swap1\n      swap2\n      swap1\n      swap2\n      0x100\n      exp\n      dup2\n      sload\n      dup2\n      0xffff\n      mul\n      not\n      and\n      swap1\n      dup4\n      0xffff\n      and\n      mul\n      or\n      swap1\n      sstore\n      pop\n      pop\n        /* \"contracts/LandRecordFactory.sol\":3620:3631  _percentOwn */\n      dup7\n        /* \"contracts/LandRecordFactory.sol\":3580:3594  khatianMapping */\n      0x5\n        /* \"contracts/LandRecordFactory.sol\":3580:3604  khatianMapping[_buyFrom] */\n      0x0\n        /* \"contracts/LandRecordFactory.sol\":3595:3603  _buyFrom */\n      dup9\n        /* \"contracts/LandRecordFactory.sol\":3580:3604  khatianMapping[_buyFrom] */\n      not(0x0)\n      and\n      not(0x0)\n      and\n      dup2\n      mstore\n      0x20\n      add\n      swap1\n      dup2\n      mstore\n      0x20\n      add\n      0x0\n      keccak256\n        /* \"contracts/LandRecordFactory.sol\":3580:3615  khatianMapping[_buyFrom].percentOwn */\n      0x2\n      add\n      0x0\n        /* \"contracts/LandRecordFactory.sol\":3580:3631  khatianMapping[_buyFrom].percentOwn  -= _percentOwn */\n      dup3\n      dup3\n      dup3\n      swap1\n      sload\n      swap1\n      0x100\n      exp\n      swap1\n      div\n      0xffff\n      and\n      sub\n      swap3\n      pop\n      0x100\n      exp\n      dup2\n      sload\n      dup2\n      0xffff\n      mul\n      not\n      and\n      swap1\n      dup4\n      0xffff\n      and\n      mul\n      or\n      swap1\n      sstore\n      pop\n        /* \"contracts/LandRecordFactory.sol\":3688:3696  _buyFrom */\n      dup6\n        /* \"contracts/LandRecordFactory.sol\":3650:3664  khatianMapping */\n      0x5\n        /* \"contracts/LandRecordFactory.sol\":3650:3677  khatianMapping[khatianHash] */\n      0x0\n        /* \"contracts/LandRecordFactory.sol\":3665:3676  khatianHash */\n      dup6\n        /* \"contracts/LandRecordFactory.sol\":3650:3677  khatianMapping[khatianHash] */\n      not(0x0)\n      and\n      not(0x0)\n      and\n      dup2\n      mstore\n      0x20\n      add\n      swap1\n      dup2\n      mstore\n      0x20\n      add\n      0x0\n      keccak256\n        /* \"contracts/LandRecordFactory.sol\":3650:3685  khatianMapping[khatianHash].buyFrom */\n      0x3\n      add\n        /* \"contracts/LandRecordFactory.sol\":3650:3696  khatianMapping[khatianHash].buyFrom = _buyFrom */\n      dup2\n      not(0x0)\n      and\n      swap1\n      sstore\n      pop\n        /* \"contracts/LandRecordFactory.sol\":3747:3758  _khatianiId */\n      dup9\n        /* \"contracts/LandRecordFactory.sol\":3706:3720  khatianMapping */\n      0x5\n        /* \"contracts/LandRecordFactory.sol\":3706:3733  khatianMapping[khatianHash] */\n      0x0\n        /* \"contracts/LandRecordFactory.sol\":3721:3732  khatianHash */\n      dup6\n        /* \"contracts/LandRecordFactory.sol\":3706:3733  khatianMapping[khatianHash] */\n      not(0x0)\n      and\n      not(0x0)\n      and\n      dup2\n      mstore\n      0x20\n      add\n      swap1\n      dup2\n      mstore\n      0x20\n      add\n      0x0\n      keccak256\n        /* \"contracts/LandRecordFactory.sol\":3706:3744  khatianMapping[khatianHash].khatianiId */\n      0x0\n      add\n      0x0\n        /* \"contracts/LandRecordFactory.sol\":3706:3758  khatianMapping[khatianHash].khatianiId = _khatianiId */\n      0x100\n      exp\n      dup2\n      sload\n      dup2\n      0xffffffffffffffff\n      mul\n      not\n      and\n      swap1\n      dup4\n      0xffffffffffffffff\n      and\n      mul\n      or\n      swap1\n      sstore\n      pop\n        /* \"contracts/LandRecordFactory.sol\":3807:3816  _plotHash */\n      dup8\n        /* \"contracts/LandRecordFactory.sol\":3768:3782  khatianMapping */\n      0x5\n        /* \"contracts/LandRecordFactory.sol\":3768:3795  khatianMapping[khatianHash] */\n      0x0\n        /* \"contracts/LandRecordFactory.sol\":3783:3794  khatianHash */\n      dup6\n        /* \"contracts/LandRecordFactory.sol\":3768:3795  khatianMapping[khatianHash] */\n      not(0x0)\n      and\n      not(0x0)\n      and\n      dup2\n      mstore\n      0x20\n      add\n      swap1\n      dup2\n      mstore\n      0x20\n      add\n      0x0\n      keccak256\n        /* \"contracts/LandRecordFactory.sol\":3768:3804  khatianMapping[khatianHash].plotHash */\n      0x1\n      add\n        /* \"contracts/LandRecordFactory.sol\":3768:3816  khatianMapping[khatianHash].plotHash = _plotHash */\n      dup2\n      not(0x0)\n      and\n      swap1\n      sstore\n      pop\n        /* \"contracts/LandRecordFactory.sol\":3867:3878  _percentOwn */\n      dup7\n        /* \"contracts/LandRecordFactory.sol\":3826:3840  khatianMapping */\n      0x5\n        /* \"contracts/LandRecordFactory.sol\":3826:3853  khatianMapping[khatianHash] */\n      0x0\n        /* \"contracts/LandRecordFactory.sol\":3841:3852  khatianHash */\n      dup6\n        /* \"contracts/LandRecordFactory.sol\":3826:3853  khatianMapping[khatianHash] */\n      not(0x0)\n      and\n      not(0x0)\n      and\n      dup2\n      mstore\n      0x20\n      add\n      swap1\n      dup2\n      mstore\n      0x20\n      add\n      0x0\n      keccak256\n        /* \"contracts/LandRecordFactory.sol\":3826:3864  khatianMapping[khatianHash].percentOwn */\n      0x2\n      add\n      0x0\n        /* \"contracts/LandRecordFactory.sol\":3826:3878  khatianMapping[khatianHash].percentOwn = _percentOwn */\n      0x100\n      exp\n      dup2\n      sload\n      dup2\n      0xffff\n      mul\n      not\n      and\n      swap1\n      dup4\n      0xffff\n      and\n      mul\n      or\n      swap1\n      sstore\n      pop\n        /* \"contracts/LandRecordFactory.sol\":3926:3930  true */\n      0x1\n        /* \"contracts/LandRecordFactory.sol\":3888:3902  khatianMapping */\n      0x5\n        /* \"contracts/LandRecordFactory.sol\":3888:3915  khatianMapping[khatianHash] */\n      0x0\n        /* \"contracts/LandRecordFactory.sol\":3903:3914  khatianHash */\n      dup6\n        /* \"contracts/LandRecordFactory.sol\":3888:3915  khatianMapping[khatianHash] */\n      not(0x0)\n      and\n      not(0x0)\n      and\n      dup2\n      mstore\n      0x20\n      add\n      swap1\n      dup2\n      mstore\n      0x20\n      add\n      0x0\n      keccak256\n        /* \"contracts/LandRecordFactory.sol\":3888:3923  khatianMapping[khatianHash].isExist */\n      0x8\n      add\n      0x0\n        /* \"contracts/LandRecordFactory.sol\":3888:3930  khatianMapping[khatianHash].isExist = true */\n      0x100\n      exp\n      dup2\n      sload\n      dup2\n      0xff\n      mul\n      not\n      and\n      swap1\n      dup4\n      iszero\n      iszero\n      mul\n      or\n      swap1\n      sstore\n      pop\n        /* \"contracts/LandRecordFactory.sol\":3989:4000  _percentage */\n      dup4\n        /* \"contracts/LandRecordFactory.sol\":3940:3954  khatianMapping */\n      0x5\n        /* \"contracts/LandRecordFactory.sol\":3940:3967  khatianMapping[khatianHash] */\n      0x0\n        /* \"contracts/LandRecordFactory.sol\":3955:3966  khatianHash */\n      dup6\n        /* \"contracts/LandRecordFactory.sol\":3940:3967  khatianMapping[khatianHash] */\n      not(0x0)\n      and\n      not(0x0)\n      and\n      dup2\n      mstore\n      0x20\n      add\n      swap1\n      dup2\n      mstore\n      0x20\n      add\n      0x0\n      keccak256\n        /* \"contracts/LandRecordFactory.sol\":3940:3986  khatianMapping[khatianHash].perOwnerPercentage */\n      0x7\n      add\n        /* \"contracts/LandRecordFactory.sol\":3940:4000  khatianMapping[khatianHash].perOwnerPercentage = _percentage */\n      swap1\n      dup1\n      mload\n      swap1\n      0x20\n      add\n      swap1\n      tag_93\n      swap3\n      swap2\n      swap1\n      jump\t// in(tag_94)\n    tag_93:\n      pop\n        /* \"contracts/LandRecordFactory.sol\":4051:4056  _user */\n      dup5\n        /* \"contracts/LandRecordFactory.sol\":4010:4024  khatianMapping */\n      0x5\n        /* \"contracts/LandRecordFactory.sol\":4010:4037  khatianMapping[khatianHash] */\n      0x0\n        /* \"contracts/LandRecordFactory.sol\":4025:4036  khatianHash */\n      dup6\n        /* \"contracts/LandRecordFactory.sol\":4010:4037  khatianMapping[khatianHash] */\n      not(0x0)\n      and\n      not(0x0)\n      and\n      dup2\n      mstore\n      0x20\n      add\n      swap1\n      dup2\n      mstore\n      0x20\n      add\n      0x0\n      keccak256\n        /* \"contracts/LandRecordFactory.sol\":4010:4048  khatianMapping[khatianHash].ownerArray */\n      0x6\n      add\n        /* \"contracts/LandRecordFactory.sol\":4010:4056  khatianMapping[khatianHash].ownerArray = _user */\n      swap1\n      dup1\n      mload\n      swap1\n      0x20\n      add\n      swap1\n      tag_95\n      swap3\n      swap2\n      swap1\n      jump\t// in(tag_96)\n    tag_95:\n      pop\n        /* \"contracts/LandRecordFactory.sol\":4088:4089  0 */\n      0x0\n        /* \"contracts/LandRecordFactory.sol\":4079:4089  uint i = 0 */\n      swap1\n      pop\n        /* \"contracts/LandRecordFactory.sol\":4075:4172  for(uint i = 0; i< _user.length; i++){... */\n    tag_97:\n        /* \"contracts/LandRecordFactory.sol\":4094:4099  _user */\n      dup5\n        /* \"contracts/LandRecordFactory.sol\":4094:4106  _user.length */\n      mload\n        /* \"contracts/LandRecordFactory.sol\":4091:4092  i */\n      dup2\n        /* \"contracts/LandRecordFactory.sol\":4091:4106  i< _user.length */\n      lt\n        /* \"contracts/LandRecordFactory.sol\":4075:4172  for(uint i = 0; i< _user.length; i++){... */\n      iszero\n      tag_98\n      jumpi\n        /* \"contracts/LandRecordFactory.sol\":4126:4161  addUserOwned(_user[i], khatianHash) */\n      tag_100\n        /* \"contracts/LandRecordFactory.sol\":4139:4144  _user */\n      dup6\n        /* \"contracts/LandRecordFactory.sol\":4145:4146  i */\n      dup3\n        /* \"contracts/LandRecordFactory.sol\":4139:4147  _user[i] */\n      dup2\n      mload\n      dup2\n      lt\n      iszero\n      iszero\n      tag_101\n      jumpi\n      invalid\n    tag_101:\n      swap1\n      0x20\n      add\n      swap1\n      0x20\n      mul\n      add\n      mload\n        /* \"contracts/LandRecordFactory.sol\":4149:4160  khatianHash */\n      dup5\n        /* \"contracts/LandRecordFactory.sol\":4126:4138  addUserOwned */\n      tag_55\n        /* \"contracts/LandRecordFactory.sol\":4126:4161  addUserOwned(_user[i], khatianHash) */\n      jump\t// in\n    tag_100:\n        /* \"contracts/LandRecordFactory.sol\":4108:4111  i++ */\n      dup1\n      dup1\n      0x1\n      add\n      swap2\n      pop\n      pop\n        /* \"contracts/LandRecordFactory.sol\":4075:4172  for(uint i = 0; i< _user.length; i++){... */\n      jump(tag_97)\n    tag_98:\n        /* \"contracts/LandRecordFactory.sol\":4190:4202  khatianArray */\n      0x6\n        /* \"contracts/LandRecordFactory.sol\":4208:4219  khatianHash */\n      dup4\n        /* \"contracts/LandRecordFactory.sol\":4190:4220  khatianArray.push(khatianHash) */\n      swap1\n      dup1\n        /* \"--CODEGEN--\":39:40   */\n      0x1\n        /* \"--CODEGEN--\":33:36   */\n      dup2\n        /* \"--CODEGEN--\":27:37   */\n      sload\n        /* \"--CODEGEN--\":23:41   */\n      add\n        /* \"--CODEGEN--\":57:67   */\n      dup1\n        /* \"--CODEGEN--\":52:55   */\n      dup3\n        /* \"--CODEGEN--\":45:68   */\n      sstore\n        /* \"--CODEGEN--\":79:89   */\n      dup1\n        /* \"--CODEGEN--\":72:89   */\n      swap2\n      pop\n        /* \"--CODEGEN--\":0:93   */\n      pop\n        /* \"contracts/LandRecordFactory.sol\":4190:4220  khatianArray.push(khatianHash) */\n      swap1\n      0x1\n      dup3\n      sub\n      swap1\n      0x0\n      mstore\n      keccak256(0x0, 0x20)\n      add\n      0x0\n      swap1\n      swap2\n      swap3\n      swap1\n      swap2\n      swap1\n      swap2\n      pop\n      swap1\n      not(0x0)\n      and\n      swap1\n      sstore\n      pop\n        /* \"contracts/LandRecordFactory.sol\":4244:4274  creationOfKhatian(khatianHash) */\n      0x1235df36d9864c1784ca3d5ad4397d04e3980ecf0ff7a703258c3fb6d4abf8ad\n        /* \"contracts/LandRecordFactory.sol\":4262:4273  khatianHash */\n      dup4\n        /* \"contracts/LandRecordFactory.sol\":4244:4274  creationOfKhatian(khatianHash) */\n      mload(0x40)\n      dup1\n      dup3\n      not(0x0)\n      and\n      not(0x0)\n      and\n      dup2\n      mstore\n      0x20\n      add\n      swap2\n      pop\n      pop\n      mload(0x40)\n      dup1\n      swap2\n      sub\n      swap1\n      log1\n        /* \"contracts/LandRecordFactory.sol\":2620:4281  function addKhatianFromOld(uint64 _khatianiId, bytes32 _plotHash, uint16 _percentOwn, bytes32 _buyFrom, uint[] _user, uint16[] _percentage) public{... */\n      pop\n      pop\n      pop\n      pop\n      pop\n      pop\n      pop\n      pop\n      pop\n      jump\t// out\n        /* \"contracts/LandRecordFactory.sol\":6593:6689  function getPlotArrayLen() public view returns(uint len){... */\n    tag_22:\n        /* \"contracts/LandRecordFactory.sol\":6640:6648  uint len */\n      0x0\n        /* \"contracts/LandRecordFactory.sol\":6666:6675  plotArray */\n      0x4\n        /* \"contracts/LandRecordFactory.sol\":6666:6682  plotArray.length */\n      dup1\n      sload\n      swap1\n      pop\n        /* \"contracts/LandRecordFactory.sol\":6659:6682  return plotArray.length */\n      swap1\n      pop\n        /* \"contracts/LandRecordFactory.sol\":6593:6689  function getPlotArrayLen() public view returns(uint len){... */\n      swap1\n      jump\t// out\n        /* \"contracts/LandRecordFactory.sol\":5549:6578  function addPlot(string _division, string _district, string _thana, uint16 _JLNo, uint16 _plotNo, uint8 _plotType, uint32 _plotArea) public{... */\n    tag_25:\n        /* \"contracts/LandRecordFactory.sol\":5884:5900  bytes32 plotHash */\n      0x0\n        /* \"contracts/LandRecordFactory.sol\":5720:5733  contarctOwner */\n      0x7\n      0x0\n      swap1\n      sload\n      swap1\n      0x100\n      exp\n      swap1\n      div\n      0xffffffffffffffffffffffffffffffffffffffff\n      and\n        /* \"contracts/LandRecordFactory.sol\":5706:5733  msg.sender == contarctOwner */\n      0xffffffffffffffffffffffffffffffffffffffff\n      and\n        /* \"contracts/LandRecordFactory.sol\":5706:5716  msg.sender */\n      caller\n        /* \"contracts/LandRecordFactory.sol\":5706:5733  msg.sender == contarctOwner */\n      0xffffffffffffffffffffffffffffffffffffffff\n      and\n      eq\n        /* \"contracts/LandRecordFactory.sol\":5698:5760  require(msg.sender == contarctOwner, \"You are not authorized\") */\n      iszero\n      iszero\n      tag_105\n      jumpi\n      mload(0x40)\n      0x8c379a000000000000000000000000000000000000000000000000000000000\n      dup2\n      mstore\n      0x4\n      add\n      dup1\n      dup1\n      0x20\n      add\n      dup3\n      dup2\n      sub\n      dup3\n      mstore\n      0x16\n      dup2\n      mstore\n      0x20\n      add\n      dup1\n      0x596f7520617265206e6f7420617574686f72697a656400000000000000000000\n      dup2\n      mstore\n      pop\n      0x20\n      add\n      swap2\n      pop\n      pop\n      mload(0x40)\n      dup1\n      swap2\n      sub\n      swap1\n      revert\n    tag_105:\n        /* \"contracts/LandRecordFactory.sol\":5782:5800  toUpper(_division) */\n      tag_106\n        /* \"contracts/LandRecordFactory.sol\":5790:5799  _division */\n      dup9\n        /* \"contracts/LandRecordFactory.sol\":5782:5789  toUpper */\n      tag_107\n        /* \"contracts/LandRecordFactory.sol\":5782:5800  toUpper(_division) */\n      jump\t// in\n    tag_106:\n        /* \"contracts/LandRecordFactory.sol\":5770:5800  _division = toUpper(_division) */\n      swap8\n      pop\n        /* \"contracts/LandRecordFactory.sol\":5822:5840  toUpper(_district) */\n      tag_108\n        /* \"contracts/LandRecordFactory.sol\":5830:5839  _district */\n      dup8\n        /* \"contracts/LandRecordFactory.sol\":5822:5829  toUpper */\n      tag_107\n        /* \"contracts/LandRecordFactory.sol\":5822:5840  toUpper(_district) */\n      jump\t// in\n    tag_108:\n        /* \"contracts/LandRecordFactory.sol\":5810:5840  _district = toUpper(_district) */\n      swap7\n      pop\n        /* \"contracts/LandRecordFactory.sol\":5859:5874  toUpper(_thana) */\n      tag_109\n        /* \"contracts/LandRecordFactory.sol\":5867:5873  _thana */\n      dup7\n        /* \"contracts/LandRecordFactory.sol\":5859:5866  toUpper */\n      tag_107\n        /* \"contracts/LandRecordFactory.sol\":5859:5874  toUpper(_thana) */\n      jump\t// in\n    tag_109:\n        /* \"contracts/LandRecordFactory.sol\":5850:5874  _thana = toUpper(_thana) */\n      swap6\n      pop\n        /* \"contracts/LandRecordFactory.sol\":5930:5939  _division */\n      dup8\n        /* \"contracts/LandRecordFactory.sol\":5941:5950  _district */\n      dup8\n        /* \"contracts/LandRecordFactory.sol\":5952:5958  _thana */\n      dup8\n        /* \"contracts/LandRecordFactory.sol\":5960:5965  _JLNo */\n      dup8\n        /* \"contracts/LandRecordFactory.sol\":5967:5974  _plotNo */\n      dup8\n        /* \"contracts/LandRecordFactory.sol\":5913:5975  abi.encodePacked(_division, _district, _thana, _JLNo, _plotNo) */\n      add(0x20, mload(0x40))\n      dup1\n      dup7\n      dup1\n      mload\n      swap1\n      0x20\n      add\n      swap1\n      dup1\n      dup4\n      dup4\n        /* \"--CODEGEN--\":36:189   */\n    tag_110:\n        /* \"--CODEGEN--\":66:68   */\n      0x20\n        /* \"--CODEGEN--\":61:64   */\n      dup4\n        /* \"--CODEGEN--\":58:69   */\n      lt\n        /* \"--CODEGEN--\":51:70   */\n      iszero\n        /* \"--CODEGEN--\":36:189   */\n      iszero\n      tag_111\n      jumpi\n        /* \"--CODEGEN--\":182:185   */\n      dup1\n        /* \"--CODEGEN--\":176:186   */\n      mload\n        /* \"--CODEGEN--\":171:174   */\n      dup3\n        /* \"--CODEGEN--\":164:187   */\n      mstore\n        /* \"--CODEGEN--\":98:100   */\n      0x20\n        /* \"--CODEGEN--\":93:96   */\n      dup3\n        /* \"--CODEGEN--\":89:101   */\n      add\n        /* \"--CODEGEN--\":82:101   */\n      swap2\n      pop\n        /* \"--CODEGEN--\":123:125   */\n      0x20\n        /* \"--CODEGEN--\":118:121   */\n      dup2\n        /* \"--CODEGEN--\":114:126   */\n      add\n        /* \"--CODEGEN--\":107:126   */\n      swap1\n      pop\n        /* \"--CODEGEN--\":148:150   */\n      0x20\n        /* \"--CODEGEN--\":143:146   */\n      dup4\n        /* \"--CODEGEN--\":139:151   */\n      sub\n        /* \"--CODEGEN--\":132:151   */\n      swap3\n      pop\n        /* \"--CODEGEN--\":36:189   */\n      jump(tag_110)\n    tag_111:\n        /* \"--CODEGEN--\":274:275   */\n      0x1\n        /* \"--CODEGEN--\":267:270   */\n      dup4\n        /* \"--CODEGEN--\":263:265   */\n      0x20\n        /* \"--CODEGEN--\":259:271   */\n      sub\n        /* \"--CODEGEN--\":254:257   */\n      0x100\n        /* \"--CODEGEN--\":250:272   */\n      exp\n        /* \"--CODEGEN--\":246:276   */\n      sub\n        /* \"--CODEGEN--\":315:319   */\n      dup1\n        /* \"--CODEGEN--\":311:320   */\n      not\n        /* \"--CODEGEN--\":305:308   */\n      dup3\n        /* \"--CODEGEN--\":299:309   */\n      mload\n        /* \"--CODEGEN--\":295:321   */\n      and\n        /* \"--CODEGEN--\":356:360   */\n      dup2\n        /* \"--CODEGEN--\":350:353   */\n      dup5\n        /* \"--CODEGEN--\":344:354   */\n      mload\n        /* \"--CODEGEN--\":340:361   */\n      and\n        /* \"--CODEGEN--\":389:396   */\n      dup1\n        /* \"--CODEGEN--\":380:387   */\n      dup3\n        /* \"--CODEGEN--\":377:397   */\n      or\n        /* \"--CODEGEN--\":372:375   */\n      dup6\n        /* \"--CODEGEN--\":365:398   */\n      mstore\n        /* \"--CODEGEN--\":3:402   */\n      pop\n      pop\n      pop\n        /* \"contracts/LandRecordFactory.sol\":5913:5975  abi.encodePacked(_division, _district, _thana, _JLNo, _plotNo) */\n      pop\n      pop\n      pop\n      swap1\n      pop\n      add\n      dup6\n      dup1\n      mload\n      swap1\n      0x20\n      add\n      swap1\n      dup1\n      dup4\n      dup4\n        /* \"--CODEGEN--\":36:189   */\n    tag_113:\n        /* \"--CODEGEN--\":66:68   */\n      0x20\n        /* \"--CODEGEN--\":61:64   */\n      dup4\n        /* \"--CODEGEN--\":58:69   */\n      lt\n        /* \"--CODEGEN--\":51:70   */\n      iszero\n        /* \"--CODEGEN--\":36:189   */\n      iszero\n      tag_114\n      jumpi\n        /* \"--CODEGEN--\":182:185   */\n      dup1\n        /* \"--CODEGEN--\":176:186   */\n      mload\n        /* \"--CODEGEN--\":171:174   */\n      dup3\n        /* \"--CODEGEN--\":164:187   */\n      mstore\n        /* \"--CODEGEN--\":98:100   */\n      0x20\n        /* \"--CODEGEN--\":93:96   */\n      dup3\n        /* \"--CODEGEN--\":89:101   */\n      add\n        /* \"--CODEGEN--\":82:101   */\n      swap2\n      pop\n        /* \"--CODEGEN--\":123:125   */\n      0x20\n        /* \"--CODEGEN--\":118:121   */\n      dup2\n        /* \"--CODEGEN--\":114:126   */\n      add\n        /* \"--CODEGEN--\":107:126   */\n      swap1\n      pop\n        /* \"--CODEGEN--\":148:150   */\n      0x20\n        /* \"--CODEGEN--\":143:146   */\n      dup4\n        /* \"--CODEGEN--\":139:151   */\n      sub\n        /* \"--CODEGEN--\":132:151   */\n      swap3\n      pop\n        /* \"--CODEGEN--\":36:189   */\n      jump(tag_113)\n    tag_114:\n        /* \"--CODEGEN--\":274:275   */\n      0x1\n        /* \"--CODEGEN--\":267:270   */\n      dup4\n        /* \"--CODEGEN--\":263:265   */\n      0x20\n        /* \"--CODEGEN--\":259:271   */\n      sub\n        /* \"--CODEGEN--\":254:257   */\n      0x100\n        /* \"--CODEGEN--\":250:272   */\n      exp\n        /* \"--CODEGEN--\":246:276   */\n      sub\n        /* \"--CODEGEN--\":315:319   */\n      dup1\n        /* \"--CODEGEN--\":311:320   */\n      not\n        /* \"--CODEGEN--\":305:308   */\n      dup3\n        /* \"--CODEGEN--\":299:309   */\n      mload\n        /* \"--CODEGEN--\":295:321   */\n      and\n        /* \"--CODEGEN--\":356:360   */\n      dup2\n        /* \"--CODEGEN--\":350:353   */\n      dup5\n        /* \"--CODEGEN--\":344:354   */\n      mload\n        /* \"--CODEGEN--\":340:361   */\n      and\n        /* \"--CODEGEN--\":389:396   */\n      dup1\n        /* \"--CODEGEN--\":380:387   */\n      dup3\n        /* \"--CODEGEN--\":377:397   */\n      or\n        /* \"--CODEGEN--\":372:375   */\n      dup6\n        /* \"--CODEGEN--\":365:398   */\n      mstore\n        /* \"--CODEGEN--\":3:402   */\n      pop\n      pop\n      pop\n        /* \"contracts/LandRecordFactory.sol\":5913:5975  abi.encodePacked(_division, _district, _thana, _JLNo, _plotNo) */\n      pop\n      pop\n      pop\n      swap1\n      pop\n      add\n      dup5\n      dup1\n      mload\n      swap1\n      0x20\n      add\n      swap1\n      dup1\n      dup4\n      dup4\n        /* \"--CODEGEN--\":36:189   */\n    tag_116:\n        /* \"--CODEGEN--\":66:68   */\n      0x20\n        /* \"--CODEGEN--\":61:64   */\n      dup4\n        /* \"--CODEGEN--\":58:69   */\n      lt\n        /* \"--CODEGEN--\":51:70   */\n      iszero\n        /* \"--CODEGEN--\":36:189   */\n      iszero\n      tag_117\n      jumpi\n        /* \"--CODEGEN--\":182:185   */\n      dup1\n        /* \"--CODEGEN--\":176:186   */\n      mload\n        /* \"--CODEGEN--\":171:174   */\n      dup3\n        /* \"--CODEGEN--\":164:187   */\n      mstore\n        /* \"--CODEGEN--\":98:100   */\n      0x20\n        /* \"--CODEGEN--\":93:96   */\n      dup3\n        /* \"--CODEGEN--\":89:101   */\n      add\n        /* \"--CODEGEN--\":82:101   */\n      swap2\n      pop\n        /* \"--CODEGEN--\":123:125   */\n      0x20\n        /* \"--CODEGEN--\":118:121   */\n      dup2\n        /* \"--CODEGEN--\":114:126   */\n      add\n        /* \"--CODEGEN--\":107:126   */\n      swap1\n      pop\n        /* \"--CODEGEN--\":148:150   */\n      0x20\n        /* \"--CODEGEN--\":143:146   */\n      dup4\n        /* \"--CODEGEN--\":139:151   */\n      sub\n        /* \"--CODEGEN--\":132:151   */\n      swap3\n      pop\n        /* \"--CODEGEN--\":36:189   */\n      jump(tag_116)\n    tag_117:\n        /* \"--CODEGEN--\":274:275   */\n      0x1\n        /* \"--CODEGEN--\":267:270   */\n      dup4\n        /* \"--CODEGEN--\":263:265   */\n      0x20\n        /* \"--CODEGEN--\":259:271   */\n      sub\n        /* \"--CODEGEN--\":254:257   */\n      0x100\n        /* \"--CODEGEN--\":250:272   */\n      exp\n        /* \"--CODEGEN--\":246:276   */\n      sub\n        /* \"--CODEGEN--\":315:319   */\n      dup1\n        /* \"--CODEGEN--\":311:320   */\n      not\n        /* \"--CODEGEN--\":305:308   */\n      dup3\n        /* \"--CODEGEN--\":299:309   */\n      mload\n        /* \"--CODEGEN--\":295:321   */\n      and\n        /* \"--CODEGEN--\":356:360   */\n      dup2\n        /* \"--CODEGEN--\":350:353   */\n      dup5\n        /* \"--CODEGEN--\":344:354   */\n      mload\n        /* \"--CODEGEN--\":340:361   */\n      and\n        /* \"--CODEGEN--\":389:396   */\n      dup1\n        /* \"--CODEGEN--\":380:387   */\n      dup3\n        /* \"--CODEGEN--\":377:397   */\n      or\n        /* \"--CODEGEN--\":372:375   */\n      dup6\n        /* \"--CODEGEN--\":365:398   */\n      mstore\n        /* \"--CODEGEN--\":3:402   */\n      pop\n      pop\n      pop\n        /* \"contracts/LandRecordFactory.sol\":5913:5975  abi.encodePacked(_division, _district, _thana, _JLNo, _plotNo) */\n      pop\n      pop\n      pop\n      swap1\n      pop\n      add\n      dup4\n      0xffff\n      and\n      0xffff\n      and\n      0x1000000000000000000000000000000000000000000000000000000000000\n      mul\n      dup2\n      mstore\n      0x2\n      add\n      dup3\n      0xffff\n      and\n      0xffff\n      and\n      0x1000000000000000000000000000000000000000000000000000000000000\n      mul\n      dup2\n      mstore\n      0x2\n      add\n      swap6\n      pop\n      pop\n      pop\n      pop\n      pop\n      pop\n      mload(0x40)\n        /* \"--CODEGEN--\":49:53   */\n      0x20\n        /* \"--CODEGEN--\":39:46   */\n      dup2\n        /* \"--CODEGEN--\":30:37   */\n      dup4\n        /* \"--CODEGEN--\":26:47   */\n      sub\n        /* \"--CODEGEN--\":22:54   */\n      sub\n        /* \"--CODEGEN--\":13:20   */\n      dup2\n        /* \"--CODEGEN--\":6:55   */\n      mstore\n        /* \"contracts/LandRecordFactory.sol\":5913:5975  abi.encodePacked(_division, _district, _thana, _JLNo, _plotNo) */\n      swap1\n      0x40\n      mstore\n        /* \"contracts/LandRecordFactory.sol\":5903:5976  keccak256(abi.encodePacked(_division, _district, _thana, _JLNo, _plotNo)) */\n      mload(0x40)\n      dup1\n      dup3\n      dup1\n      mload\n      swap1\n      0x20\n      add\n      swap1\n      dup1\n      dup4\n      dup4\n        /* \"--CODEGEN--\":36:189   */\n    tag_119:\n        /* \"--CODEGEN--\":66:68   */\n      0x20\n        /* \"--CODEGEN--\":61:64   */\n      dup4\n        /* \"--CODEGEN--\":58:69   */\n      lt\n        /* \"--CODEGEN--\":51:70   */\n      iszero\n        /* \"--CODEGEN--\":36:189   */\n      iszero\n      tag_120\n      jumpi\n        /* \"--CODEGEN--\":182:185   */\n      dup1\n        /* \"--CODEGEN--\":176:186   */\n      mload\n        /* \"--CODEGEN--\":171:174   */\n      dup3\n        /* \"--CODEGEN--\":164:187   */\n      mstore\n        /* \"--CODEGEN--\":98:100   */\n      0x20\n        /* \"--CODEGEN--\":93:96   */\n      dup3\n        /* \"--CODEGEN--\":89:101   */\n      add\n        /* \"--CODEGEN--\":82:101   */\n      swap2\n      pop\n        /* \"--CODEGEN--\":123:125   */\n      0x20\n        /* \"--CODEGEN--\":118:121   */\n      dup2\n        /* \"--CODEGEN--\":114:126   */\n      add\n        /* \"--CODEGEN--\":107:126   */\n      swap1\n      pop\n        /* \"--CODEGEN--\":148:150   */\n      0x20\n        /* \"--CODEGEN--\":143:146   */\n      dup4\n        /* \"--CODEGEN--\":139:151   */\n      sub\n        /* \"--CODEGEN--\":132:151   */\n      swap3\n      pop\n        /* \"--CODEGEN--\":36:189   */\n      jump(tag_119)\n    tag_120:\n        /* \"--CODEGEN--\":274:275   */\n      0x1\n        /* \"--CODEGEN--\":267:270   */\n      dup4\n        /* \"--CODEGEN--\":263:265   */\n      0x20\n        /* \"--CODEGEN--\":259:271   */\n      sub\n        /* \"--CODEGEN--\":254:257   */\n      0x100\n        /* \"--CODEGEN--\":250:272   */\n      exp\n        /* \"--CODEGEN--\":246:276   */\n      sub\n        /* \"--CODEGEN--\":315:319   */\n      dup1\n        /* \"--CODEGEN--\":311:320   */\n      not\n        /* \"--CODEGEN--\":305:308   */\n      dup3\n        /* \"--CODEGEN--\":299:309   */\n      mload\n        /* \"--CODEGEN--\":295:321   */\n      and\n        /* \"--CODEGEN--\":356:360   */\n      dup2\n        /* \"--CODEGEN--\":350:353   */\n      dup5\n        /* \"--CODEGEN--\":344:354   */\n      mload\n        /* \"--CODEGEN--\":340:361   */\n      and\n        /* \"--CODEGEN--\":389:396   */\n      dup1\n        /* \"--CODEGEN--\":380:387   */\n      dup3\n        /* \"--CODEGEN--\":377:397   */\n      or\n        /* \"--CODEGEN--\":372:375   */\n      dup6\n        /* \"--CODEGEN--\":365:398   */\n      mstore\n        /* \"--CODEGEN--\":3:402   */\n      pop\n      pop\n      pop\n        /* \"contracts/LandRecordFactory.sol\":5903:5976  keccak256(abi.encodePacked(_division, _district, _thana, _JLNo, _plotNo)) */\n      pop\n      pop\n      pop\n      swap1\n      pop\n      add\n      swap2\n      pop\n      pop\n      mload(0x40)\n      dup1\n      swap2\n      sub\n      swap1\n      keccak256\n        /* \"contracts/LandRecordFactory.sol\":5884:5976  bytes32 plotHash = keccak256(abi.encodePacked(_division, _district, _thana, _JLNo, _plotNo)) */\n      swap1\n      pop\n        /* \"contracts/LandRecordFactory.sol\":6027:6031  true */\n      0x1\n        /* \"contracts/LandRecordFactory.sol\":5994:6031  plotMapping[plotHash].isExist != true */\n      iszero\n      iszero\n        /* \"contracts/LandRecordFactory.sol\":5994:6005  plotMapping */\n      0x3\n        /* \"contracts/LandRecordFactory.sol\":5994:6015  plotMapping[plotHash] */\n      0x0\n        /* \"contracts/LandRecordFactory.sol\":6006:6014  plotHash */\n      dup4\n        /* \"contracts/LandRecordFactory.sol\":5994:6015  plotMapping[plotHash] */\n      not(0x0)\n      and\n      not(0x0)\n      and\n      dup2\n      mstore\n      0x20\n      add\n      swap1\n      dup2\n      mstore\n      0x20\n      add\n      0x0\n      keccak256\n        /* \"contracts/LandRecordFactory.sol\":5994:6023  plotMapping[plotHash].isExist */\n      0x3\n      add\n      0x9\n      swap1\n      sload\n      swap1\n      0x100\n      exp\n      swap1\n      div\n      0xff\n      and\n        /* \"contracts/LandRecordFactory.sol\":5994:6031  plotMapping[plotHash].isExist != true */\n      iszero\n      iszero\n      eq\n      iszero\n        /* \"contracts/LandRecordFactory.sol\":5986:6055  require(plotMapping[plotHash].isExist != true, \"Plot already exsits\") */\n      iszero\n      iszero\n      tag_122\n      jumpi\n      mload(0x40)\n      0x8c379a000000000000000000000000000000000000000000000000000000000\n      dup2\n      mstore\n      0x4\n      add\n      dup1\n      dup1\n      0x20\n      add\n      dup3\n      dup2\n      sub\n      dup3\n      mstore\n      0x13\n      dup2\n      mstore\n      0x20\n      add\n      dup1\n      0x506c6f7420616c72656164792065787369747300000000000000000000000000\n      dup2\n      mstore\n      pop\n      0x20\n      add\n      swap2\n      pop\n      pop\n      mload(0x40)\n      dup1\n      swap2\n      sub\n      swap1\n      revert\n    tag_122:\n        /* \"contracts/LandRecordFactory.sol\":6098:6124  stringToBytes32(_division) */\n      tag_123\n        /* \"contracts/LandRecordFactory.sol\":6114:6123  _division */\n      dup9\n        /* \"contracts/LandRecordFactory.sol\":6098:6113  stringToBytes32 */\n      tag_124\n        /* \"contracts/LandRecordFactory.sol\":6098:6124  stringToBytes32(_division) */\n      jump\t// in\n    tag_123:\n        /* \"contracts/LandRecordFactory.sol\":6065:6076  plotMapping */\n      0x3\n        /* \"contracts/LandRecordFactory.sol\":6065:6086  plotMapping[plotHash] */\n      0x0\n        /* \"contracts/LandRecordFactory.sol\":6077:6085  plotHash */\n      dup4\n        /* \"contracts/LandRecordFactory.sol\":6065:6086  plotMapping[plotHash] */\n      not(0x0)\n      and\n      not(0x0)\n      and\n      dup2\n      mstore\n      0x20\n      add\n      swap1\n      dup2\n      mstore\n      0x20\n      add\n      0x0\n      keccak256\n        /* \"contracts/LandRecordFactory.sol\":6065:6095  plotMapping[plotHash].division */\n      0x0\n      add\n        /* \"contracts/LandRecordFactory.sol\":6065:6124  plotMapping[plotHash].division = stringToBytes32(_division) */\n      dup2\n      not(0x0)\n      and\n      swap1\n      sstore\n      pop\n        /* \"contracts/LandRecordFactory.sol\":6167:6193  stringToBytes32(_district) */\n      tag_125\n        /* \"contracts/LandRecordFactory.sol\":6183:6192  _district */\n      dup8\n        /* \"contracts/LandRecordFactory.sol\":6167:6182  stringToBytes32 */\n      tag_124\n        /* \"contracts/LandRecordFactory.sol\":6167:6193  stringToBytes32(_district) */\n      jump\t// in\n    tag_125:\n        /* \"contracts/LandRecordFactory.sol\":6134:6145  plotMapping */\n      0x3\n        /* \"contracts/LandRecordFactory.sol\":6134:6155  plotMapping[plotHash] */\n      0x0\n        /* \"contracts/LandRecordFactory.sol\":6146:6154  plotHash */\n      dup4\n        /* \"contracts/LandRecordFactory.sol\":6134:6155  plotMapping[plotHash] */\n      not(0x0)\n      and\n      not(0x0)\n      and\n      dup2\n      mstore\n      0x20\n      add\n      swap1\n      dup2\n      mstore\n      0x20\n      add\n      0x0\n      keccak256\n        /* \"contracts/LandRecordFactory.sol\":6134:6164  plotMapping[plotHash].district */\n      0x1\n      add\n        /* \"contracts/LandRecordFactory.sol\":6134:6193  plotMapping[plotHash].district = stringToBytes32(_district) */\n      dup2\n      not(0x0)\n      and\n      swap1\n      sstore\n      pop\n        /* \"contracts/LandRecordFactory.sol\":6233:6256  stringToBytes32(_thana) */\n      tag_126\n        /* \"contracts/LandRecordFactory.sol\":6249:6255  _thana */\n      dup7\n        /* \"contracts/LandRecordFactory.sol\":6233:6248  stringToBytes32 */\n      tag_124\n        /* \"contracts/LandRecordFactory.sol\":6233:6256  stringToBytes32(_thana) */\n      jump\t// in\n    tag_126:\n        /* \"contracts/LandRecordFactory.sol\":6203:6214  plotMapping */\n      0x3\n        /* \"contracts/LandRecordFactory.sol\":6203:6224  plotMapping[plotHash] */\n      0x0\n        /* \"contracts/LandRecordFactory.sol\":6215:6223  plotHash */\n      dup4\n        /* \"contracts/LandRecordFactory.sol\":6203:6224  plotMapping[plotHash] */\n      not(0x0)\n      and\n      not(0x0)\n      and\n      dup2\n      mstore\n      0x20\n      add\n      swap1\n      dup2\n      mstore\n      0x20\n      add\n      0x0\n      keccak256\n        /* \"contracts/LandRecordFactory.sol\":6203:6230  plotMapping[plotHash].thana */\n      0x2\n      add\n        /* \"contracts/LandRecordFactory.sol\":6203:6256  plotMapping[plotHash].thana = stringToBytes32(_thana) */\n      dup2\n      not(0x0)\n      and\n      swap1\n      sstore\n      pop\n        /* \"contracts/LandRecordFactory.sol\":6295:6300  _JLNo */\n      dup5\n        /* \"contracts/LandRecordFactory.sol\":6266:6277  plotMapping */\n      0x3\n        /* \"contracts/LandRecordFactory.sol\":6266:6287  plotMapping[plotHash] */\n      0x0\n        /* \"contracts/LandRecordFactory.sol\":6278:6286  plotHash */\n      dup4\n        /* \"contracts/LandRecordFactory.sol\":6266:6287  plotMapping[plotHash] */\n      not(0x0)\n      and\n      not(0x0)\n      and\n      dup2\n      mstore\n      0x20\n      add\n      swap1\n      dup2\n      mstore\n      0x20\n      add\n      0x0\n      keccak256\n        /* \"contracts/LandRecordFactory.sol\":6266:6292  plotMapping[plotHash].JLNo */\n      0x3\n      add\n      0x0\n        /* \"contracts/LandRecordFactory.sol\":6266:6300  plotMapping[plotHash].JLNo = _JLNo */\n      0x100\n      exp\n      dup2\n      sload\n      dup2\n      0xffff\n      mul\n      not\n      and\n      swap1\n      dup4\n      0xffff\n      and\n      mul\n      or\n      swap1\n      sstore\n      pop\n        /* \"contracts/LandRecordFactory.sol\":6341:6348  _plotNo */\n      dup4\n        /* \"contracts/LandRecordFactory.sol\":6310:6321  plotMapping */\n      0x3\n        /* \"contracts/LandRecordFactory.sol\":6310:6331  plotMapping[plotHash] */\n      0x0\n        /* \"contracts/LandRecordFactory.sol\":6322:6330  plotHash */\n      dup4\n        /* \"contracts/LandRecordFactory.sol\":6310:6331  plotMapping[plotHash] */\n      not(0x0)\n      and\n      not(0x0)\n      and\n      dup2\n      mstore\n      0x20\n      add\n      swap1\n      dup2\n      mstore\n      0x20\n      add\n      0x0\n      keccak256\n        /* \"contracts/LandRecordFactory.sol\":6310:6338  plotMapping[plotHash].plotNo */\n      0x3\n      add\n      0x2\n        /* \"contracts/LandRecordFactory.sol\":6310:6348  plotMapping[plotHash].plotNo = _plotNo */\n      0x100\n      exp\n      dup2\n      sload\n      dup2\n      0xffff\n      mul\n      not\n      and\n      swap1\n      dup4\n      0xffff\n      and\n      mul\n      or\n      swap1\n      sstore\n      pop\n        /* \"contracts/LandRecordFactory.sol\":6391:6400  _plotType */\n      dup3\n        /* \"contracts/LandRecordFactory.sol\":6358:6369  plotMapping */\n      0x3\n        /* \"contracts/LandRecordFactory.sol\":6358:6379  plotMapping[plotHash] */\n      0x0\n        /* \"contracts/LandRecordFactory.sol\":6370:6378  plotHash */\n      dup4\n        /* \"contracts/LandRecordFactory.sol\":6358:6379  plotMapping[plotHash] */\n      not(0x0)\n      and\n      not(0x0)\n      and\n      dup2\n      mstore\n      0x20\n      add\n      swap1\n      dup2\n      mstore\n      0x20\n      add\n      0x0\n      keccak256\n        /* \"contracts/LandRecordFactory.sol\":6358:6388  plotMapping[plotHash].plotType */\n      0x3\n      add\n      0x4\n        /* \"contracts/LandRecordFactory.sol\":6358:6400  plotMapping[plotHash].plotType = _plotType */\n      0x100\n      exp\n      dup2\n      sload\n      dup2\n      0xff\n      mul\n      not\n      and\n      swap1\n      dup4\n      0xff\n      and\n      mul\n      or\n      swap1\n      sstore\n      pop\n        /* \"contracts/LandRecordFactory.sol\":6443:6452  _plotArea */\n      dup2\n        /* \"contracts/LandRecordFactory.sol\":6410:6421  plotMapping */\n      0x3\n        /* \"contracts/LandRecordFactory.sol\":6410:6431  plotMapping[plotHash] */\n      0x0\n        /* \"contracts/LandRecordFactory.sol\":6422:6430  plotHash */\n      dup4\n        /* \"contracts/LandRecordFactory.sol\":6410:6431  plotMapping[plotHash] */\n      not(0x0)\n      and\n      not(0x0)\n      and\n      dup2\n      mstore\n      0x20\n      add\n      swap1\n      dup2\n      mstore\n      0x20\n      add\n      0x0\n      keccak256\n        /* \"contracts/LandRecordFactory.sol\":6410:6440  plotMapping[plotHash].plotArea */\n      0x3\n      add\n      0x5\n        /* \"contracts/LandRecordFactory.sol\":6410:6452  plotMapping[plotHash].plotArea = _plotArea */\n      0x100\n      exp\n      dup2\n      sload\n      dup2\n      0xffffffff\n      mul\n      not\n      and\n      swap1\n      dup4\n      0xffffffff\n      and\n      mul\n      or\n      swap1\n      sstore\n      pop\n        /* \"contracts/LandRecordFactory.sol\":6494:6498  true */\n      0x1\n        /* \"contracts/LandRecordFactory.sol\":6462:6473  plotMapping */\n      0x3\n        /* \"contracts/LandRecordFactory.sol\":6462:6483  plotMapping[plotHash] */\n      0x0\n        /* \"contracts/LandRecordFactory.sol\":6474:6482  plotHash */\n      dup4\n        /* \"contracts/LandRecordFactory.sol\":6462:6483  plotMapping[plotHash] */\n      not(0x0)\n      and\n      not(0x0)\n      and\n      dup2\n      mstore\n      0x20\n      add\n      swap1\n      dup2\n      mstore\n      0x20\n      add\n      0x0\n      keccak256\n        /* \"contracts/LandRecordFactory.sol\":6462:6491  plotMapping[plotHash].isExist */\n      0x3\n      add\n      0x9\n        /* \"contracts/LandRecordFactory.sol\":6462:6498  plotMapping[plotHash].isExist = true */\n      0x100\n      exp\n      dup2\n      sload\n      dup2\n      0xff\n      mul\n      not\n      and\n      swap1\n      dup4\n      iszero\n      iszero\n      mul\n      or\n      swap1\n      sstore\n      pop\n        /* \"contracts/LandRecordFactory.sol\":6508:6517  plotArray */\n      0x4\n        /* \"contracts/LandRecordFactory.sol\":6523:6531  plotHash */\n      dup2\n        /* \"contracts/LandRecordFactory.sol\":6508:6532  plotArray.push(plotHash) */\n      swap1\n      dup1\n        /* \"--CODEGEN--\":39:40   */\n      0x1\n        /* \"--CODEGEN--\":33:36   */\n      dup2\n        /* \"--CODEGEN--\":27:37   */\n      sload\n        /* \"--CODEGEN--\":23:41   */\n      add\n        /* \"--CODEGEN--\":57:67   */\n      dup1\n        /* \"--CODEGEN--\":52:55   */\n      dup3\n        /* \"--CODEGEN--\":45:68   */\n      sstore\n        /* \"--CODEGEN--\":79:89   */\n      dup1\n        /* \"--CODEGEN--\":72:89   */\n      swap2\n      pop\n        /* \"--CODEGEN--\":0:93   */\n      pop\n        /* \"contracts/LandRecordFactory.sol\":6508:6532  plotArray.push(plotHash) */\n      swap1\n      0x1\n      dup3\n      sub\n      swap1\n      0x0\n      mstore\n      keccak256(0x0, 0x20)\n      add\n      0x0\n      swap1\n      swap2\n      swap3\n      swap1\n      swap2\n      swap1\n      swap2\n      pop\n      swap1\n      not(0x0)\n      and\n      swap1\n      sstore\n      pop\n        /* \"contracts/LandRecordFactory.sol\":6547:6571  creationOfplot(plotHash) */\n      0xc5d3bd04a5b7305cd8edf1efc2070b49098f7e9ee3e642280285add33aa0b782\n        /* \"contracts/LandRecordFactory.sol\":6562:6570  plotHash */\n      dup2\n        /* \"contracts/LandRecordFactory.sol\":6547:6571  creationOfplot(plotHash) */\n      mload(0x40)\n      dup1\n      dup3\n      not(0x0)\n      and\n      not(0x0)\n      and\n      dup2\n      mstore\n      0x20\n      add\n      swap2\n      pop\n      pop\n      mload(0x40)\n      dup1\n      swap2\n      sub\n      swap1\n      log1\n        /* \"contracts/LandRecordFactory.sol\":5549:6578  function addPlot(string _division, string _district, string _thana, uint16 _JLNo, uint16 _plotNo, uint8 _plotType, uint32 _plotArea) public{... */\n      pop\n      pop\n      pop\n      pop\n      pop\n      pop\n      pop\n      pop\n      jump\t// out\n        /* \"contracts/LandRecordFactory.sol\":8634:9147  function getUserByNid(uint _nid) public view returns(bytes32 fullName, bytes32 fatheName, bytes32 district, bytes32 thana, uint24 postCode, bytes32 village){... */\n    tag_28:\n        /* \"contracts/LandRecordFactory.sol\":8687:8703  bytes32 fullName */\n      0x0\n        /* \"contracts/LandRecordFactory.sol\":8705:8722  bytes32 fatheName */\n      dup1\n        /* \"contracts/LandRecordFactory.sol\":8724:8740  bytes32 district */\n      0x0\n        /* \"contracts/LandRecordFactory.sol\":8742:8755  bytes32 thana */\n      dup1\n        /* \"contracts/LandRecordFactory.sol\":8757:8772  uint24 postCode */\n      0x0\n        /* \"contracts/LandRecordFactory.sol\":8774:8789  bytes32 village */\n      dup1\n        /* \"contracts/LandRecordFactory.sol\":8837:8841  true */\n      0x1\n        /* \"contracts/LandRecordFactory.sol\":8808:8841  userMapping[_nid].isExist == true */\n      iszero\n      iszero\n        /* \"contracts/LandRecordFactory.sol\":8808:8819  userMapping */\n      0x1\n        /* \"contracts/LandRecordFactory.sol\":8808:8825  userMapping[_nid] */\n      0x0\n        /* \"contracts/LandRecordFactory.sol\":8820:8824  _nid */\n      dup10\n        /* \"contracts/LandRecordFactory.sol\":8808:8825  userMapping[_nid] */\n      dup2\n      mstore\n      0x20\n      add\n      swap1\n      dup2\n      mstore\n      0x20\n      add\n      0x0\n      keccak256\n        /* \"contracts/LandRecordFactory.sol\":8808:8833  userMapping[_nid].isExist */\n      0x6\n      add\n      0x0\n      swap1\n      sload\n      swap1\n      0x100\n      exp\n      swap1\n      div\n      0xff\n      and\n        /* \"contracts/LandRecordFactory.sol\":8808:8841  userMapping[_nid].isExist == true */\n      iszero\n      iszero\n      eq\n        /* \"contracts/LandRecordFactory.sol\":8800:8864  require(userMapping[_nid].isExist == true, \"User Doesn't exist\") */\n      iszero\n      iszero\n      tag_129\n      jumpi\n      mload(0x40)\n      0x8c379a000000000000000000000000000000000000000000000000000000000\n      dup2\n      mstore\n      0x4\n      add\n      dup1\n      dup1\n      0x20\n      add\n      dup3\n      dup2\n      sub\n      dup3\n      mstore\n      0x12\n      dup2\n      mstore\n      0x20\n      add\n      dup1\n      0x5573657220446f65736e27742065786973740000000000000000000000000000\n      dup2\n      mstore\n      pop\n      0x20\n      add\n      swap2\n      pop\n      pop\n      mload(0x40)\n      dup1\n      swap2\n      sub\n      swap1\n      revert\n    tag_129:\n        /* \"contracts/LandRecordFactory.sol\":8885:8896  userMapping */\n      0x1\n        /* \"contracts/LandRecordFactory.sol\":8885:8902  userMapping[_nid] */\n      0x0\n        /* \"contracts/LandRecordFactory.sol\":8897:8901  _nid */\n      dup9\n        /* \"contracts/LandRecordFactory.sol\":8885:8902  userMapping[_nid] */\n      dup2\n      mstore\n      0x20\n      add\n      swap1\n      dup2\n      mstore\n      0x20\n      add\n      0x0\n      keccak256\n        /* \"contracts/LandRecordFactory.sol\":8885:8911  userMapping[_nid].fullName */\n      0x0\n      add\n      sload\n        /* \"contracts/LandRecordFactory.sol\":8874:8911  fullName = userMapping[_nid].fullName */\n      swap6\n      pop\n        /* \"contracts/LandRecordFactory.sol\":8933:8944  userMapping */\n      0x1\n        /* \"contracts/LandRecordFactory.sol\":8933:8950  userMapping[_nid] */\n      0x0\n        /* \"contracts/LandRecordFactory.sol\":8945:8949  _nid */\n      dup9\n        /* \"contracts/LandRecordFactory.sol\":8933:8950  userMapping[_nid] */\n      dup2\n      mstore\n      0x20\n      add\n      swap1\n      dup2\n      mstore\n      0x20\n      add\n      0x0\n      keccak256\n        /* \"contracts/LandRecordFactory.sol\":8933:8960  userMapping[_nid].fatheName */\n      0x1\n      add\n      sload\n        /* \"contracts/LandRecordFactory.sol\":8921:8960  fatheName = userMapping[_nid].fatheName */\n      swap5\n      pop\n        /* \"contracts/LandRecordFactory.sol\":8981:8992  userMapping */\n      0x1\n        /* \"contracts/LandRecordFactory.sol\":8981:8998  userMapping[_nid] */\n      0x0\n        /* \"contracts/LandRecordFactory.sol\":8993:8997  _nid */\n      dup9\n        /* \"contracts/LandRecordFactory.sol\":8981:8998  userMapping[_nid] */\n      dup2\n      mstore\n      0x20\n      add\n      swap1\n      dup2\n      mstore\n      0x20\n      add\n      0x0\n      keccak256\n        /* \"contracts/LandRecordFactory.sol\":8981:9007  userMapping[_nid].district */\n      0x2\n      add\n      sload\n        /* \"contracts/LandRecordFactory.sol\":8970:9007  district = userMapping[_nid].district */\n      swap4\n      pop\n        /* \"contracts/LandRecordFactory.sol\":9025:9036  userMapping */\n      0x1\n        /* \"contracts/LandRecordFactory.sol\":9025:9042  userMapping[_nid] */\n      0x0\n        /* \"contracts/LandRecordFactory.sol\":9037:9041  _nid */\n      dup9\n        /* \"contracts/LandRecordFactory.sol\":9025:9042  userMapping[_nid] */\n      dup2\n      mstore\n      0x20\n      add\n      swap1\n      dup2\n      mstore\n      0x20\n      add\n      0x0\n      keccak256\n        /* \"contracts/LandRecordFactory.sol\":9025:9048  userMapping[_nid].thana */\n      0x3\n      add\n      sload\n        /* \"contracts/LandRecordFactory.sol\":9017:9048  thana = userMapping[_nid].thana */\n      swap3\n      pop\n        /* \"contracts/LandRecordFactory.sol\":9069:9080  userMapping */\n      0x1\n        /* \"contracts/LandRecordFactory.sol\":9069:9086  userMapping[_nid] */\n      0x0\n        /* \"contracts/LandRecordFactory.sol\":9081:9085  _nid */\n      dup9\n        /* \"contracts/LandRecordFactory.sol\":9069:9086  userMapping[_nid] */\n      dup2\n      mstore\n      0x20\n      add\n      swap1\n      dup2\n      mstore\n      0x20\n      add\n      0x0\n      keccak256\n        /* \"contracts/LandRecordFactory.sol\":9069:9095  userMapping[_nid].postCode */\n      0x4\n      add\n      0x0\n      swap1\n      sload\n      swap1\n      0x100\n      exp\n      swap1\n      div\n      0xffffff\n      and\n        /* \"contracts/LandRecordFactory.sol\":9058:9095  postCode = userMapping[_nid].postCode */\n      swap2\n      pop\n        /* \"contracts/LandRecordFactory.sol\":9115:9126  userMapping */\n      0x1\n        /* \"contracts/LandRecordFactory.sol\":9115:9132  userMapping[_nid] */\n      0x0\n        /* \"contracts/LandRecordFactory.sol\":9127:9131  _nid */\n      dup9\n        /* \"contracts/LandRecordFactory.sol\":9115:9132  userMapping[_nid] */\n      dup2\n      mstore\n      0x20\n      add\n      swap1\n      dup2\n      mstore\n      0x20\n      add\n      0x0\n      keccak256\n        /* \"contracts/LandRecordFactory.sol\":9115:9140  userMapping[_nid].village */\n      0x5\n      add\n      sload\n        /* \"contracts/LandRecordFactory.sol\":9105:9140  village = userMapping[_nid].village */\n      swap1\n      pop\n        /* \"contracts/LandRecordFactory.sol\":8634:9147  function getUserByNid(uint _nid) public view returns(bytes32 fullName, bytes32 fatheName, bytes32 district, bytes32 thana, uint24 postCode, bytes32 village){... */\n      swap2\n      swap4\n      swap6\n      pop\n      swap2\n      swap4\n      swap6\n      jump\t// out\n        /* \"contracts/LandRecordFactory.sol\":4712:5539  function getKhatianByHash(bytes32 khatianHash) public view returns(uint64 khatianiId, bytes32 plotHash, uint16 percentOwn, bytes32 buyFrom, bytes32[] sellTo, uint16[] sellPercentage, uint[] ownerArray, uint16[] perOwnerPercentage){... */\n    tag_31:\n        /* \"contracts/LandRecordFactory.sol\":4779:4796  uint64 khatianiId */\n      0x0\n        /* \"contracts/LandRecordFactory.sol\":4798:4814  bytes32 plotHash */\n      dup1\n        /* \"contracts/LandRecordFactory.sol\":4816:4833  uint16 percentOwn */\n      0x0\n        /* \"contracts/LandRecordFactory.sol\":4835:4850  bytes32 buyFrom */\n      dup1\n        /* \"contracts/LandRecordFactory.sol\":4852:4868  bytes32[] sellTo */\n      0x60\n        /* \"contracts/LandRecordFactory.sol\":4870:4893  uint16[] sellPercentage */\n      dup1\n        /* \"contracts/LandRecordFactory.sol\":4895:4912  uint[] ownerArray */\n      0x60\n        /* \"contracts/LandRecordFactory.sol\":4914:4941  uint16[] perOwnerPercentage */\n      dup1\n        /* \"contracts/LandRecordFactory.sol\":4999:5003  true */\n      0x1\n        /* \"contracts/LandRecordFactory.sol\":4960:5003  khatianMapping[khatianHash].isExist == true */\n      iszero\n      iszero\n        /* \"contracts/LandRecordFactory.sol\":4960:4974  khatianMapping */\n      0x5\n        /* \"contracts/LandRecordFactory.sol\":4960:4987  khatianMapping[khatianHash] */\n      0x0\n        /* \"contracts/LandRecordFactory.sol\":4975:4986  khatianHash */\n      dup12\n        /* \"contracts/LandRecordFactory.sol\":4960:4987  khatianMapping[khatianHash] */\n      not(0x0)\n      and\n      not(0x0)\n      and\n      dup2\n      mstore\n      0x20\n      add\n      swap1\n      dup2\n      mstore\n      0x20\n      add\n      0x0\n      keccak256\n        /* \"contracts/LandRecordFactory.sol\":4960:4995  khatianMapping[khatianHash].isExist */\n      0x8\n      add\n      0x0\n      swap1\n      sload\n      swap1\n      0x100\n      exp\n      swap1\n      div\n      0xff\n      and\n        /* \"contracts/LandRecordFactory.sol\":4960:5003  khatianMapping[khatianHash].isExist == true */\n      iszero\n      iszero\n      eq\n        /* \"contracts/LandRecordFactory.sol\":4952:5029  require(khatianMapping[khatianHash].isExist == true, \"Khatian doesn't exist\") */\n      iszero\n      iszero\n      tag_131\n      jumpi\n      mload(0x40)\n      0x8c379a000000000000000000000000000000000000000000000000000000000\n      dup2\n      mstore\n      0x4\n      add\n      dup1\n      dup1\n      0x20\n      add\n      dup3\n      dup2\n      sub\n      dup3\n      mstore\n      0x15\n      dup2\n      mstore\n      0x20\n      add\n      dup1\n      0x4b68617469616e20646f65736e27742065786973740000000000000000000000\n      dup2\n      mstore\n      pop\n      0x20\n      add\n      swap2\n      pop\n      pop\n      mload(0x40)\n      dup1\n      swap2\n      sub\n      swap1\n      revert\n    tag_131:\n        /* \"contracts/LandRecordFactory.sol\":5052:5066  khatianMapping */\n      0x5\n        /* \"contracts/LandRecordFactory.sol\":5052:5079  khatianMapping[khatianHash] */\n      0x0\n        /* \"contracts/LandRecordFactory.sol\":5067:5078  khatianHash */\n      dup11\n        /* \"contracts/LandRecordFactory.sol\":5052:5079  khatianMapping[khatianHash] */\n      not(0x0)\n      and\n      not(0x0)\n      and\n      dup2\n      mstore\n      0x20\n      add\n      swap1\n      dup2\n      mstore\n      0x20\n      add\n      0x0\n      keccak256\n        /* \"contracts/LandRecordFactory.sol\":5052:5090  khatianMapping[khatianHash].khatianiId */\n      0x0\n      add\n      0x0\n      swap1\n      sload\n      swap1\n      0x100\n      exp\n      swap1\n      div\n      0xffffffffffffffff\n      and\n        /* \"contracts/LandRecordFactory.sol\":5039:5090  khatianiId = khatianMapping[khatianHash].khatianiId */\n      swap8\n      pop\n        /* \"contracts/LandRecordFactory.sol\":5111:5125  khatianMapping */\n      0x5\n        /* \"contracts/LandRecordFactory.sol\":5111:5138  khatianMapping[khatianHash] */\n      0x0\n        /* \"contracts/LandRecordFactory.sol\":5126:5137  khatianHash */\n      dup11\n        /* \"contracts/LandRecordFactory.sol\":5111:5138  khatianMapping[khatianHash] */\n      not(0x0)\n      and\n      not(0x0)\n      and\n      dup2\n      mstore\n      0x20\n      add\n      swap1\n      dup2\n      mstore\n      0x20\n      add\n      0x0\n      keccak256\n        /* \"contracts/LandRecordFactory.sol\":5111:5147  khatianMapping[khatianHash].plotHash */\n      0x1\n      add\n      sload\n        /* \"contracts/LandRecordFactory.sol\":5100:5147  plotHash = khatianMapping[khatianHash].plotHash */\n      swap7\n      pop\n        /* \"contracts/LandRecordFactory.sol\":5170:5184  khatianMapping */\n      0x5\n        /* \"contracts/LandRecordFactory.sol\":5170:5197  khatianMapping[khatianHash] */\n      0x0\n        /* \"contracts/LandRecordFactory.sol\":5185:5196  khatianHash */\n      dup11\n        /* \"contracts/LandRecordFactory.sol\":5170:5197  khatianMapping[khatianHash] */\n      not(0x0)\n      and\n      not(0x0)\n      and\n      dup2\n      mstore\n      0x20\n      add\n      swap1\n      dup2\n      mstore\n      0x20\n      add\n      0x0\n      keccak256\n        /* \"contracts/LandRecordFactory.sol\":5170:5208  khatianMapping[khatianHash].percentOwn */\n      0x2\n      add\n      0x0\n      swap1\n      sload\n      swap1\n      0x100\n      exp\n      swap1\n      div\n      0xffff\n      and\n        /* \"contracts/LandRecordFactory.sol\":5157:5208  percentOwn = khatianMapping[khatianHash].percentOwn */\n      swap6\n      pop\n        /* \"contracts/LandRecordFactory.sol\":5228:5242  khatianMapping */\n      0x5\n        /* \"contracts/LandRecordFactory.sol\":5228:5255  khatianMapping[khatianHash] */\n      0x0\n        /* \"contracts/LandRecordFactory.sol\":5243:5254  khatianHash */\n      dup11\n        /* \"contracts/LandRecordFactory.sol\":5228:5255  khatianMapping[khatianHash] */\n      not(0x0)\n      and\n      not(0x0)\n      and\n      dup2\n      mstore\n      0x20\n      add\n      swap1\n      dup2\n      mstore\n      0x20\n      add\n      0x0\n      keccak256\n        /* \"contracts/LandRecordFactory.sol\":5228:5263  khatianMapping[khatianHash].buyFrom */\n      0x3\n      add\n      sload\n        /* \"contracts/LandRecordFactory.sol\":5218:5263  buyFrom = khatianMapping[khatianHash].buyFrom */\n      swap5\n      pop\n        /* \"contracts/LandRecordFactory.sol\":5282:5296  khatianMapping */\n      0x5\n        /* \"contracts/LandRecordFactory.sol\":5282:5309  khatianMapping[khatianHash] */\n      0x0\n        /* \"contracts/LandRecordFactory.sol\":5297:5308  khatianHash */\n      dup11\n        /* \"contracts/LandRecordFactory.sol\":5282:5309  khatianMapping[khatianHash] */\n      not(0x0)\n      and\n      not(0x0)\n      and\n      dup2\n      mstore\n      0x20\n      add\n      swap1\n      dup2\n      mstore\n      0x20\n      add\n      0x0\n      keccak256\n        /* \"contracts/LandRecordFactory.sol\":5282:5316  khatianMapping[khatianHash].sellTo */\n      0x4\n      add\n        /* \"contracts/LandRecordFactory.sol\":5273:5316  sellTo = khatianMapping[khatianHash].sellTo */\n      dup1\n      sload\n      dup1\n      0x20\n      mul\n      0x20\n      add\n      mload(0x40)\n      swap1\n      dup2\n      add\n      0x40\n      mstore\n      dup1\n      swap3\n      swap2\n      swap1\n      dup2\n      dup2\n      mstore\n      0x20\n      add\n      dup3\n      dup1\n      sload\n      dup1\n      iszero\n      tag_132\n      jumpi\n      0x20\n      mul\n      dup3\n      add\n      swap2\n      swap1\n      0x0\n      mstore\n      keccak256(0x0, 0x20)\n      swap1\n    tag_133:\n      dup2\n      sload\n      not(0x0)\n      and\n      dup2\n      mstore\n      0x20\n      add\n      swap1\n      0x1\n      add\n      swap1\n      dup1\n      dup4\n      gt\n      tag_133\n      jumpi\n    tag_132:\n      pop\n      pop\n      pop\n      pop\n      pop\n      swap4\n      pop\n        /* \"contracts/LandRecordFactory.sol\":5343:5357  khatianMapping */\n      0x5\n        /* \"contracts/LandRecordFactory.sol\":5343:5370  khatianMapping[khatianHash] */\n      0x0\n        /* \"contracts/LandRecordFactory.sol\":5358:5369  khatianHash */\n      dup11\n        /* \"contracts/LandRecordFactory.sol\":5343:5370  khatianMapping[khatianHash] */\n      not(0x0)\n      and\n      not(0x0)\n      and\n      dup2\n      mstore\n      0x20\n      add\n      swap1\n      dup2\n      mstore\n      0x20\n      add\n      0x0\n      keccak256\n        /* \"contracts/LandRecordFactory.sol\":5343:5385  khatianMapping[khatianHash].sellPercentage */\n      0x5\n      add\n        /* \"contracts/LandRecordFactory.sol\":5326:5385  sellPercentage = khatianMapping[khatianHash].sellPercentage */\n      dup1\n      sload\n      dup1\n      0x20\n      mul\n      0x20\n      add\n      mload(0x40)\n      swap1\n      dup2\n      add\n      0x40\n      mstore\n      dup1\n      swap3\n      swap2\n      swap1\n      dup2\n      dup2\n      mstore\n      0x20\n      add\n      dup3\n      dup1\n      sload\n      dup1\n      iszero\n      tag_134\n      jumpi\n      0x20\n      mul\n      dup3\n      add\n      swap2\n      swap1\n      0x0\n      mstore\n      keccak256(0x0, 0x20)\n      swap1\n      0x0\n      swap1\n    tag_135:\n      dup3\n      dup3\n      swap1\n      sload\n      swap1\n      0x100\n      exp\n      swap1\n      div\n      0xffff\n      and\n      0xffff\n      and\n      dup2\n      mstore\n      0x20\n      add\n      swap1\n      0x2\n      add\n      swap1\n      0x20\n      dup3\n      0x1\n      add\n      div\n      swap3\n      dup4\n      add\n      swap3\n      0x1\n      sub\n      dup3\n      mul\n      swap2\n      pop\n      dup1\n      dup5\n      gt\n      tag_135\n      jumpi\n      swap1\n      pop\n    tag_134:\n      pop\n      pop\n      pop\n      pop\n      pop\n      swap3\n      pop\n        /* \"contracts/LandRecordFactory.sol\":5408:5422  khatianMapping */\n      0x5\n        /* \"contracts/LandRecordFactory.sol\":5408:5435  khatianMapping[khatianHash] */\n      0x0\n        /* \"contracts/LandRecordFactory.sol\":5423:5434  khatianHash */\n      dup11\n        /* \"contracts/LandRecordFactory.sol\":5408:5435  khatianMapping[khatianHash] */\n      not(0x0)\n      and\n      not(0x0)\n      and\n      dup2\n      mstore\n      0x20\n      add\n      swap1\n      dup2\n      mstore\n      0x20\n      add\n      0x0\n      keccak256\n        /* \"contracts/LandRecordFactory.sol\":5408:5446  khatianMapping[khatianHash].ownerArray */\n      0x6\n      add\n        /* \"contracts/LandRecordFactory.sol\":5395:5446  ownerArray = khatianMapping[khatianHash].ownerArray */\n      dup1\n      sload\n      dup1\n      0x20\n      mul\n      0x20\n      add\n      mload(0x40)\n      swap1\n      dup2\n      add\n      0x40\n      mstore\n      dup1\n      swap3\n      swap2\n      swap1\n      dup2\n      dup2\n      mstore\n      0x20\n      add\n      dup3\n      dup1\n      sload\n      dup1\n      iszero\n      tag_136\n      jumpi\n      0x20\n      mul\n      dup3\n      add\n      swap2\n      swap1\n      0x0\n      mstore\n      keccak256(0x0, 0x20)\n      swap1\n    tag_137:\n      dup2\n      sload\n      dup2\n      mstore\n      0x20\n      add\n      swap1\n      0x1\n      add\n      swap1\n      dup1\n      dup4\n      gt\n      tag_137\n      jumpi\n    tag_136:\n      pop\n      pop\n      pop\n      pop\n      pop\n      swap2\n      pop\n        /* \"contracts/LandRecordFactory.sol\":5477:5491  khatianMapping */\n      0x5\n        /* \"contracts/LandRecordFactory.sol\":5477:5504  khatianMapping[khatianHash] */\n      0x0\n        /* \"contracts/LandRecordFactory.sol\":5492:5503  khatianHash */\n      dup11\n        /* \"contracts/LandRecordFactory.sol\":5477:5504  khatianMapping[khatianHash] */\n      not(0x0)\n      and\n      not(0x0)\n      and\n      dup2\n      mstore\n      0x20\n      add\n      swap1\n      dup2\n      mstore\n      0x20\n      add\n      0x0\n      keccak256\n        /* \"contracts/LandRecordFactory.sol\":5477:5523  khatianMapping[khatianHash].perOwnerPercentage */\n      0x7\n      add\n        /* \"contracts/LandRecordFactory.sol\":5456:5523  perOwnerPercentage = khatianMapping[khatianHash].perOwnerPercentage */\n      dup1\n      sload\n      dup1\n      0x20\n      mul\n      0x20\n      add\n      mload(0x40)\n      swap1\n      dup2\n      add\n      0x40\n      mstore\n      dup1\n      swap3\n      swap2\n      swap1\n      dup2\n      dup2\n      mstore\n      0x20\n      add\n      dup3\n      dup1\n      sload\n      dup1\n      iszero\n      tag_138\n      jumpi\n      0x20\n      mul\n      dup3\n      add\n      swap2\n      swap1\n      0x0\n      mstore\n      keccak256(0x0, 0x20)\n      swap1\n      0x0\n      swap1\n    tag_139:\n      dup3\n      dup3\n      swap1\n      sload\n      swap1\n      0x100\n      exp\n      swap1\n      div\n      0xffff\n      and\n      0xffff\n      and\n      dup2\n      mstore\n      0x20\n      add\n      swap1\n      0x2\n      add\n      swap1\n      0x20\n      dup3\n      0x1\n      add\n      div\n      swap3\n      dup4\n      add\n      swap3\n      0x1\n      sub\n      dup3\n      mul\n      swap2\n      pop\n      dup1\n      dup5\n      gt\n      tag_139\n      jumpi\n      swap1\n      pop\n    tag_138:\n      pop\n      pop\n      pop\n      pop\n      pop\n      swap1\n      pop\n        /* \"contracts/LandRecordFactory.sol\":4712:5539  function getKhatianByHash(bytes32 khatianHash) public view returns(uint64 khatianiId, bytes32 plotHash, uint16 percentOwn, bytes32 buyFrom, bytes32[] sellTo, uint16[] sellPercentage, uint[] ownerArray, uint16[] perOwnerPercentage){... */\n      swap2\n      swap4\n      swap6\n      swap8\n      pop\n      swap2\n      swap4\n      swap6\n      swap8\n      jump\t// out\n        /* \"contracts/LandRecordFactory.sol\":1431:2610  function addKhatianNew(uint64 _khatianiId, bytes32 _plotHash, uint16 _percentOwn, uint[] _user, uint16[] _percentage) public{... */\n    tag_46:\n        /* \"contracts/LandRecordFactory.sol\":1718:1737  bytes32 khatianHash */\n      0x0\n        /* \"contracts/LandRecordFactory.sol\":1893:1899  uint j */\n      dup1\n        /* \"contracts/LandRecordFactory.sol\":2417:2423  uint i */\n      0x0\n        /* \"contracts/LandRecordFactory.sol\":1587:1600  contarctOwner */\n      0x7\n      0x0\n      swap1\n      sload\n      swap1\n      0x100\n      exp\n      swap1\n      div\n      0xffffffffffffffffffffffffffffffffffffffff\n      and\n        /* \"contracts/LandRecordFactory.sol\":1573:1600  msg.sender == contarctOwner */\n      0xffffffffffffffffffffffffffffffffffffffff\n      and\n        /* \"contracts/LandRecordFactory.sol\":1573:1583  msg.sender */\n      caller\n        /* \"contracts/LandRecordFactory.sol\":1573:1600  msg.sender == contarctOwner */\n      0xffffffffffffffffffffffffffffffffffffffff\n      and\n      eq\n        /* \"contracts/LandRecordFactory.sol\":1565:1629  require(msg.sender == contarctOwner, \"Sender is not authorized\") */\n      iszero\n      iszero\n      tag_141\n      jumpi\n      mload(0x40)\n      0x8c379a000000000000000000000000000000000000000000000000000000000\n      dup2\n      mstore\n      0x4\n      add\n      dup1\n      dup1\n      0x20\n      add\n      dup3\n      dup2\n      sub\n      dup3\n      mstore\n      0x18\n      dup2\n      mstore\n      0x20\n      add\n      dup1\n      0x53656e646572206973206e6f7420617574686f72697a65640000000000000000\n      dup2\n      mstore\n      pop\n      0x20\n      add\n      swap2\n      pop\n      pop\n      mload(0x40)\n      dup1\n      swap2\n      sub\n      swap1\n      revert\n    tag_141:\n        /* \"contracts/LandRecordFactory.sol\":1681:1685  true */\n      0x1\n        /* \"contracts/LandRecordFactory.sol\":1647:1685  plotMapping[_plotHash].isExist == true */\n      iszero\n      iszero\n        /* \"contracts/LandRecordFactory.sol\":1647:1658  plotMapping */\n      0x3\n        /* \"contracts/LandRecordFactory.sol\":1647:1669  plotMapping[_plotHash] */\n      0x0\n        /* \"contracts/LandRecordFactory.sol\":1659:1668  _plotHash */\n      dup10\n        /* \"contracts/LandRecordFactory.sol\":1647:1669  plotMapping[_plotHash] */\n      not(0x0)\n      and\n      not(0x0)\n      and\n      dup2\n      mstore\n      0x20\n      add\n      swap1\n      dup2\n      mstore\n      0x20\n      add\n      0x0\n      keccak256\n        /* \"contracts/LandRecordFactory.sol\":1647:1677  plotMapping[_plotHash].isExist */\n      0x3\n      add\n      0x9\n      swap1\n      sload\n      swap1\n      0x100\n      exp\n      swap1\n      div\n      0xff\n      and\n        /* \"contracts/LandRecordFactory.sol\":1647:1685  plotMapping[_plotHash].isExist == true */\n      iszero\n      iszero\n      eq\n        /* \"contracts/LandRecordFactory.sol\":1639:1708  require(plotMapping[_plotHash].isExist == true, \"Plot doesn't exist\") */\n      iszero\n      iszero\n      tag_142\n      jumpi\n      mload(0x40)\n      0x8c379a000000000000000000000000000000000000000000000000000000000\n      dup2\n      mstore\n      0x4\n      add\n      dup1\n      dup1\n      0x20\n      add\n      dup3\n      dup2\n      sub\n      dup3\n      mstore\n      0x12\n      dup2\n      mstore\n      0x20\n      add\n      dup1\n      0x506c6f7420646f65736e27742065786973740000000000000000000000000000\n      dup2\n      mstore\n      pop\n      0x20\n      add\n      swap2\n      pop\n      pop\n      mload(0x40)\n      dup1\n      swap2\n      sub\n      swap1\n      revert\n    tag_142:\n        /* \"contracts/LandRecordFactory.sol\":1767:1778  _khatianiId */\n      dup8\n        /* \"contracts/LandRecordFactory.sol\":1780:1789  _plotHash */\n      dup8\n        /* \"contracts/LandRecordFactory.sol\":1750:1790  abi.encodePacked(_khatianiId, _plotHash) */\n      add(0x20, mload(0x40))\n      dup1\n      dup4\n      0xffffffffffffffff\n      and\n      0xffffffffffffffff\n      and\n      0x1000000000000000000000000000000000000000000000000\n      mul\n      dup2\n      mstore\n      0x8\n      add\n      dup3\n      not(0x0)\n      and\n      not(0x0)\n      and\n      dup2\n      mstore\n      0x20\n      add\n      swap3\n      pop\n      pop\n      pop\n      mload(0x40)\n        /* \"--CODEGEN--\":49:53   */\n      0x20\n        /* \"--CODEGEN--\":39:46   */\n      dup2\n        /* \"--CODEGEN--\":30:37   */\n      dup4\n        /* \"--CODEGEN--\":26:47   */\n      sub\n        /* \"--CODEGEN--\":22:54   */\n      sub\n        /* \"--CODEGEN--\":13:20   */\n      dup2\n        /* \"--CODEGEN--\":6:55   */\n      mstore\n        /* \"contracts/LandRecordFactory.sol\":1750:1790  abi.encodePacked(_khatianiId, _plotHash) */\n      swap1\n      0x40\n      mstore\n        /* \"contracts/LandRecordFactory.sol\":1740:1791  keccak256(abi.encodePacked(_khatianiId, _plotHash)) */\n      mload(0x40)\n      dup1\n      dup3\n      dup1\n      mload\n      swap1\n      0x20\n      add\n      swap1\n      dup1\n      dup4\n      dup4\n        /* \"--CODEGEN--\":36:189   */\n    tag_143:\n        /* \"--CODEGEN--\":66:68   */\n      0x20\n        /* \"--CODEGEN--\":61:64   */\n      dup4\n        /* \"--CODEGEN--\":58:69   */\n      lt\n        /* \"--CODEGEN--\":51:70   */\n      iszero\n        /* \"--CODEGEN--\":36:189   */\n      iszero\n      tag_144\n      jumpi\n        /* \"--CODEGEN--\":182:185   */\n      dup1\n        /* \"--CODEGEN--\":176:186   */\n      mload\n        /* \"--CODEGEN--\":171:174   */\n      dup3\n        /* \"--CODEGEN--\":164:187   */\n      mstore\n        /* \"--CODEGEN--\":98:100   */\n      0x20\n        /* \"--CODEGEN--\":93:96   */\n      dup3\n        /* \"--CODEGEN--\":89:101   */\n      add\n        /* \"--CODEGEN--\":82:101   */\n      swap2\n      pop\n        /* \"--CODEGEN--\":123:125   */\n      0x20\n        /* \"--CODEGEN--\":118:121   */\n      dup2\n        /* \"--CODEGEN--\":114:126   */\n      add\n        /* \"--CODEGEN--\":107:126   */\n      swap1\n      pop\n        /* \"--CODEGEN--\":148:150   */\n      0x20\n        /* \"--CODEGEN--\":143:146   */\n      dup4\n        /* \"--CODEGEN--\":139:151   */\n      sub\n        /* \"--CODEGEN--\":132:151   */\n      swap3\n      pop\n        /* \"--CODEGEN--\":36:189   */\n      jump(tag_143)\n    tag_144:\n        /* \"--CODEGEN--\":274:275   */\n      0x1\n        /* \"--CODEGEN--\":267:270   */\n      dup4\n        /* \"--CODEGEN--\":263:265   */\n      0x20\n        /* \"--CODEGEN--\":259:271   */\n      sub\n        /* \"--CODEGEN--\":254:257   */\n      0x100\n        /* \"--CODEGEN--\":250:272   */\n      exp\n        /* \"--CODEGEN--\":246:276   */\n      sub\n        /* \"--CODEGEN--\":315:319   */\n      dup1\n        /* \"--CODEGEN--\":311:320   */\n      not\n        /* \"--CODEGEN--\":305:308   */\n      dup3\n        /* \"--CODEGEN--\":299:309   */\n      mload\n        /* \"--CODEGEN--\":295:321   */\n      and\n        /* \"--CODEGEN--\":356:360   */\n      dup2\n        /* \"--CODEGEN--\":350:353   */\n      dup5\n        /* \"--CODEGEN--\":344:354   */\n      mload\n        /* \"--CODEGEN--\":340:361   */\n      and\n        /* \"--CODEGEN--\":389:396   */\n      dup1\n        /* \"--CODEGEN--\":380:387   */\n      dup3\n        /* \"--CODEGEN--\":377:397   */\n      or\n        /* \"--CODEGEN--\":372:375   */\n      dup6\n        /* \"--CODEGEN--\":365:398   */\n      mstore\n        /* \"--CODEGEN--\":3:402   */\n      pop\n      pop\n      pop\n        /* \"contracts/LandRecordFactory.sol\":1740:1791  keccak256(abi.encodePacked(_khatianiId, _plotHash)) */\n      pop\n      pop\n      pop\n      swap1\n      pop\n      add\n      swap2\n      pop\n      pop\n      mload(0x40)\n      dup1\n      swap2\n      sub\n      swap1\n      keccak256\n        /* \"contracts/LandRecordFactory.sol\":1718:1791  bytes32 khatianHash = keccak256(abi.encodePacked(_khatianiId, _plotHash)) */\n      swap3\n      pop\n        /* \"contracts/LandRecordFactory.sol\":1848:1852  true */\n      0x1\n        /* \"contracts/LandRecordFactory.sol\":1809:1852  khatianMapping[khatianHash].isExist != true */\n      iszero\n      iszero\n        /* \"contracts/LandRecordFactory.sol\":1809:1823  khatianMapping */\n      0x5\n        /* \"contracts/LandRecordFactory.sol\":1809:1836  khatianMapping[khatianHash] */\n      0x0\n        /* \"contracts/LandRecordFactory.sol\":1824:1835  khatianHash */\n      dup6\n        /* \"contracts/LandRecordFactory.sol\":1809:1836  khatianMapping[khatianHash] */\n      not(0x0)\n      and\n      not(0x0)\n      and\n      dup2\n      mstore\n      0x20\n      add\n      swap1\n      dup2\n      mstore\n      0x20\n      add\n      0x0\n      keccak256\n        /* \"contracts/LandRecordFactory.sol\":1809:1844  khatianMapping[khatianHash].isExist */\n      0x8\n      add\n      0x0\n      swap1\n      sload\n      swap1\n      0x100\n      exp\n      swap1\n      div\n      0xff\n      and\n        /* \"contracts/LandRecordFactory.sol\":1809:1852  khatianMapping[khatianHash].isExist != true */\n      iszero\n      iszero\n      eq\n      iszero\n        /* \"contracts/LandRecordFactory.sol\":1801:1879  require(khatianMapping[khatianHash].isExist != true, \"Khatian already exists\") */\n      iszero\n      iszero\n      tag_146\n      jumpi\n      mload(0x40)\n      0x8c379a000000000000000000000000000000000000000000000000000000000\n      dup2\n      mstore\n      0x4\n      add\n      dup1\n      dup1\n      0x20\n      add\n      dup3\n      dup2\n      sub\n      dup3\n      mstore\n      0x16\n      dup2\n      mstore\n      0x20\n      add\n      dup1\n      0x4b68617469616e20616c72656164792065786973747300000000000000000000\n      dup2\n      mstore\n      pop\n      0x20\n      add\n      swap2\n      pop\n      pop\n      mload(0x40)\n      dup1\n      swap2\n      sub\n      swap1\n      revert\n    tag_146:\n        /* \"contracts/LandRecordFactory.sol\":1902:1903  0 */\n      0x0\n        /* \"contracts/LandRecordFactory.sol\":1893:1903  uint j = 0 */\n      swap2\n      pop\n        /* \"contracts/LandRecordFactory.sol\":1889:2026  for(uint j = 0; j< _user.length; j++){... */\n    tag_147:\n        /* \"contracts/LandRecordFactory.sol\":1908:1913  _user */\n      dup5\n        /* \"contracts/LandRecordFactory.sol\":1908:1920  _user.length */\n      mload\n        /* \"contracts/LandRecordFactory.sol\":1905:1906  j */\n      dup3\n        /* \"contracts/LandRecordFactory.sol\":1905:1920  j< _user.length */\n      lt\n        /* \"contracts/LandRecordFactory.sol\":1889:2026  for(uint j = 0; j< _user.length; j++){... */\n      iszero\n      tag_148\n      jumpi\n        /* \"contracts/LandRecordFactory.sol\":1982:1986  true */\n      0x1\n        /* \"contracts/LandRecordFactory.sol\":1949:1986  userMapping[_user[j]].isExist == true */\n      iszero\n      iszero\n        /* \"contracts/LandRecordFactory.sol\":1949:1960  userMapping */\n      0x1\n        /* \"contracts/LandRecordFactory.sol\":1949:1970  userMapping[_user[j]] */\n      0x0\n        /* \"contracts/LandRecordFactory.sol\":1961:1966  _user */\n      dup8\n        /* \"contracts/LandRecordFactory.sol\":1967:1968  j */\n      dup6\n        /* \"contracts/LandRecordFactory.sol\":1961:1969  _user[j] */\n      dup2\n      mload\n      dup2\n      lt\n      iszero\n      iszero\n      tag_150\n      jumpi\n      invalid\n    tag_150:\n      swap1\n      0x20\n      add\n      swap1\n      0x20\n      mul\n      add\n      mload\n        /* \"contracts/LandRecordFactory.sol\":1949:1970  userMapping[_user[j]] */\n      dup2\n      mstore\n      0x20\n      add\n      swap1\n      dup2\n      mstore\n      0x20\n      add\n      0x0\n      keccak256\n        /* \"contracts/LandRecordFactory.sol\":1949:1978  userMapping[_user[j]].isExist */\n      0x6\n      add\n      0x0\n      swap1\n      sload\n      swap1\n      0x100\n      exp\n      swap1\n      div\n      0xff\n      and\n        /* \"contracts/LandRecordFactory.sol\":1949:1986  userMapping[_user[j]].isExist == true */\n      iszero\n      iszero\n      eq\n        /* \"contracts/LandRecordFactory.sol\":1941:2015  require(userMapping[_user[j]].isExist == true, \"User's NID doesn't exist\") */\n      iszero\n      iszero\n      tag_151\n      jumpi\n      mload(0x40)\n      0x8c379a000000000000000000000000000000000000000000000000000000000\n      dup2\n      mstore\n      0x4\n      add\n      dup1\n      dup1\n      0x20\n      add\n      dup3\n      dup2\n      sub\n      dup3\n      mstore\n      0x18\n      dup2\n      mstore\n      0x20\n      add\n      dup1\n      0x557365722773204e494420646f65736e27742065786973740000000000000000\n      dup2\n      mstore\n      pop\n      0x20\n      add\n      swap2\n      pop\n      pop\n      mload(0x40)\n      dup1\n      swap2\n      sub\n      swap1\n      revert\n    tag_151:\n        /* \"contracts/LandRecordFactory.sol\":1922:1925  j++ */\n      dup2\n      dup1\n      0x1\n      add\n      swap3\n      pop\n      pop\n        /* \"contracts/LandRecordFactory.sol\":1889:2026  for(uint j = 0; j< _user.length; j++){... */\n      jump(tag_147)\n    tag_148:\n        /* \"contracts/LandRecordFactory.sol\":2085:2096  _khatianiId */\n      dup8\n        /* \"contracts/LandRecordFactory.sol\":2044:2058  khatianMapping */\n      0x5\n        /* \"contracts/LandRecordFactory.sol\":2044:2071  khatianMapping[khatianHash] */\n      0x0\n        /* \"contracts/LandRecordFactory.sol\":2059:2070  khatianHash */\n      dup6\n        /* \"contracts/LandRecordFactory.sol\":2044:2071  khatianMapping[khatianHash] */\n      not(0x0)\n      and\n      not(0x0)\n      and\n      dup2\n      mstore\n      0x20\n      add\n      swap1\n      dup2\n      mstore\n      0x20\n      add\n      0x0\n      keccak256\n        /* \"contracts/LandRecordFactory.sol\":2044:2082  khatianMapping[khatianHash].khatianiId */\n      0x0\n      add\n      0x0\n        /* \"contracts/LandRecordFactory.sol\":2044:2096  khatianMapping[khatianHash].khatianiId = _khatianiId */\n      0x100\n      exp\n      dup2\n      sload\n      dup2\n      0xffffffffffffffff\n      mul\n      not\n      and\n      swap1\n      dup4\n      0xffffffffffffffff\n      and\n      mul\n      or\n      swap1\n      sstore\n      pop\n        /* \"contracts/LandRecordFactory.sol\":2145:2154  _plotHash */\n      dup7\n        /* \"contracts/LandRecordFactory.sol\":2106:2120  khatianMapping */\n      0x5\n        /* \"contracts/LandRecordFactory.sol\":2106:2133  khatianMapping[khatianHash] */\n      0x0\n        /* \"contracts/LandRecordFactory.sol\":2121:2132  khatianHash */\n      dup6\n        /* \"contracts/LandRecordFactory.sol\":2106:2133  khatianMapping[khatianHash] */\n      not(0x0)\n      and\n      not(0x0)\n      and\n      dup2\n      mstore\n      0x20\n      add\n      swap1\n      dup2\n      mstore\n      0x20\n      add\n      0x0\n      keccak256\n        /* \"contracts/LandRecordFactory.sol\":2106:2142  khatianMapping[khatianHash].plotHash */\n      0x1\n      add\n        /* \"contracts/LandRecordFactory.sol\":2106:2154  khatianMapping[khatianHash].plotHash = _plotHash */\n      dup2\n      not(0x0)\n      and\n      swap1\n      sstore\n      pop\n        /* \"contracts/LandRecordFactory.sol\":2205:2216  _percentOwn */\n      dup6\n        /* \"contracts/LandRecordFactory.sol\":2164:2178  khatianMapping */\n      0x5\n        /* \"contracts/LandRecordFactory.sol\":2164:2191  khatianMapping[khatianHash] */\n      0x0\n        /* \"contracts/LandRecordFactory.sol\":2179:2190  khatianHash */\n      dup6\n        /* \"contracts/LandRecordFactory.sol\":2164:2191  khatianMapping[khatianHash] */\n      not(0x0)\n      and\n      not(0x0)\n      and\n      dup2\n      mstore\n      0x20\n      add\n      swap1\n      dup2\n      mstore\n      0x20\n      add\n      0x0\n      keccak256\n        /* \"contracts/LandRecordFactory.sol\":2164:2202  khatianMapping[khatianHash].percentOwn */\n      0x2\n      add\n      0x0\n        /* \"contracts/LandRecordFactory.sol\":2164:2216  khatianMapping[khatianHash].percentOwn = _percentOwn */\n      0x100\n      exp\n      dup2\n      sload\n      dup2\n      0xffff\n      mul\n      not\n      and\n      swap1\n      dup4\n      0xffff\n      and\n      mul\n      or\n      swap1\n      sstore\n      pop\n        /* \"contracts/LandRecordFactory.sol\":2264:2268  true */\n      0x1\n        /* \"contracts/LandRecordFactory.sol\":2226:2240  khatianMapping */\n      0x5\n        /* \"contracts/LandRecordFactory.sol\":2226:2253  khatianMapping[khatianHash] */\n      0x0\n        /* \"contracts/LandRecordFactory.sol\":2241:2252  khatianHash */\n      dup6\n        /* \"contracts/LandRecordFactory.sol\":2226:2253  khatianMapping[khatianHash] */\n      not(0x0)\n      and\n      not(0x0)\n      and\n      dup2\n      mstore\n      0x20\n      add\n      swap1\n      dup2\n      mstore\n      0x20\n      add\n      0x0\n      keccak256\n        /* \"contracts/LandRecordFactory.sol\":2226:2261  khatianMapping[khatianHash].isExist */\n      0x8\n      add\n      0x0\n        /* \"contracts/LandRecordFactory.sol\":2226:2268  khatianMapping[khatianHash].isExist = true */\n      0x100\n      exp\n      dup2\n      sload\n      dup2\n      0xff\n      mul\n      not\n      and\n      swap1\n      dup4\n      iszero\n      iszero\n      mul\n      or\n      swap1\n      sstore\n      pop\n        /* \"contracts/LandRecordFactory.sol\":2327:2338  _percentage */\n      dup4\n        /* \"contracts/LandRecordFactory.sol\":2278:2292  khatianMapping */\n      0x5\n        /* \"contracts/LandRecordFactory.sol\":2278:2305  khatianMapping[khatianHash] */\n      0x0\n        /* \"contracts/LandRecordFactory.sol\":2293:2304  khatianHash */\n      dup6\n        /* \"contracts/LandRecordFactory.sol\":2278:2305  khatianMapping[khatianHash] */\n      not(0x0)\n      and\n      not(0x0)\n      and\n      dup2\n      mstore\n      0x20\n      add\n      swap1\n      dup2\n      mstore\n      0x20\n      add\n      0x0\n      keccak256\n        /* \"contracts/LandRecordFactory.sol\":2278:2324  khatianMapping[khatianHash].perOwnerPercentage */\n      0x7\n      add\n        /* \"contracts/LandRecordFactory.sol\":2278:2338  khatianMapping[khatianHash].perOwnerPercentage = _percentage */\n      swap1\n      dup1\n      mload\n      swap1\n      0x20\n      add\n      swap1\n      tag_152\n      swap3\n      swap2\n      swap1\n      jump\t// in(tag_94)\n    tag_152:\n      pop\n        /* \"contracts/LandRecordFactory.sol\":2389:2394  _user */\n      dup5\n        /* \"contracts/LandRecordFactory.sol\":2348:2362  khatianMapping */\n      0x5\n        /* \"contracts/LandRecordFactory.sol\":2348:2375  khatianMapping[khatianHash] */\n      0x0\n        /* \"contracts/LandRecordFactory.sol\":2363:2374  khatianHash */\n      dup6\n        /* \"contracts/LandRecordFactory.sol\":2348:2375  khatianMapping[khatianHash] */\n      not(0x0)\n      and\n      not(0x0)\n      and\n      dup2\n      mstore\n      0x20\n      add\n      swap1\n      dup2\n      mstore\n      0x20\n      add\n      0x0\n      keccak256\n        /* \"contracts/LandRecordFactory.sol\":2348:2386  khatianMapping[khatianHash].ownerArray */\n      0x6\n      add\n        /* \"contracts/LandRecordFactory.sol\":2348:2394  khatianMapping[khatianHash].ownerArray = _user */\n      swap1\n      dup1\n      mload\n      swap1\n      0x20\n      add\n      swap1\n      tag_153\n      swap3\n      swap2\n      swap1\n      jump\t// in(tag_96)\n    tag_153:\n      pop\n        /* \"contracts/LandRecordFactory.sol\":2426:2427  0 */\n      0x0\n        /* \"contracts/LandRecordFactory.sol\":2417:2427  uint i = 0 */\n      swap1\n      pop\n        /* \"contracts/LandRecordFactory.sol\":2413:2510  for(uint i = 0; i< _user.length; i++){... */\n    tag_154:\n        /* \"contracts/LandRecordFactory.sol\":2432:2437  _user */\n      dup5\n        /* \"contracts/LandRecordFactory.sol\":2432:2444  _user.length */\n      mload\n        /* \"contracts/LandRecordFactory.sol\":2429:2430  i */\n      dup2\n        /* \"contracts/LandRecordFactory.sol\":2429:2444  i< _user.length */\n      lt\n        /* \"contracts/LandRecordFactory.sol\":2413:2510  for(uint i = 0; i< _user.length; i++){... */\n      iszero\n      tag_155\n      jumpi\n        /* \"contracts/LandRecordFactory.sol\":2464:2499  addUserOwned(_user[i], khatianHash) */\n      tag_157\n        /* \"contracts/LandRecordFactory.sol\":2477:2482  _user */\n      dup6\n        /* \"contracts/LandRecordFactory.sol\":2483:2484  i */\n      dup3\n        /* \"contracts/LandRecordFactory.sol\":2477:2485  _user[i] */\n      dup2\n      mload\n      dup2\n      lt\n      iszero\n      iszero\n      tag_158\n      jumpi\n      invalid\n    tag_158:\n      swap1\n      0x20\n      add\n      swap1\n      0x20\n      mul\n      add\n      mload\n        /* \"contracts/LandRecordFactory.sol\":2487:2498  khatianHash */\n      dup5\n        /* \"contracts/LandRecordFactory.sol\":2464:2476  addUserOwned */\n      tag_55\n        /* \"contracts/LandRecordFactory.sol\":2464:2499  addUserOwned(_user[i], khatianHash) */\n      jump\t// in\n    tag_157:\n        /* \"contracts/LandRecordFactory.sol\":2446:2449  i++ */\n      dup1\n      dup1\n      0x1\n      add\n      swap2\n      pop\n      pop\n        /* \"contracts/LandRecordFactory.sol\":2413:2510  for(uint i = 0; i< _user.length; i++){... */\n      jump(tag_154)\n    tag_155:\n        /* \"contracts/LandRecordFactory.sol\":2528:2540  khatianArray */\n      0x6\n        /* \"contracts/LandRecordFactory.sol\":2546:2557  khatianHash */\n      dup4\n        /* \"contracts/LandRecordFactory.sol\":2528:2558  khatianArray.push(khatianHash) */\n      swap1\n      dup1\n        /* \"--CODEGEN--\":39:40   */\n      0x1\n        /* \"--CODEGEN--\":33:36   */\n      dup2\n        /* \"--CODEGEN--\":27:37   */\n      sload\n        /* \"--CODEGEN--\":23:41   */\n      add\n        /* \"--CODEGEN--\":57:67   */\n      dup1\n        /* \"--CODEGEN--\":52:55   */\n      dup3\n        /* \"--CODEGEN--\":45:68   */\n      sstore\n        /* \"--CODEGEN--\":79:89   */\n      dup1\n        /* \"--CODEGEN--\":72:89   */\n      swap2\n      pop\n        /* \"--CODEGEN--\":0:93   */\n      pop\n        /* \"contracts/LandRecordFactory.sol\":2528:2558  khatianArray.push(khatianHash) */\n      swap1\n      0x1\n      dup3\n      sub\n      swap1\n      0x0\n      mstore\n      keccak256(0x0, 0x20)\n      add\n      0x0\n      swap1\n      swap2\n      swap3\n      swap1\n      swap2\n      swap1\n      swap2\n      pop\n      swap1\n      not(0x0)\n      and\n      swap1\n      sstore\n      pop\n        /* \"contracts/LandRecordFactory.sol\":2573:2603  creationOfKhatian(khatianHash) */\n      0x1235df36d9864c1784ca3d5ad4397d04e3980ecf0ff7a703258c3fb6d4abf8ad\n        /* \"contracts/LandRecordFactory.sol\":2591:2602  khatianHash */\n      dup4\n        /* \"contracts/LandRecordFactory.sol\":2573:2603  creationOfKhatian(khatianHash) */\n      mload(0x40)\n      dup1\n      dup3\n      not(0x0)\n      and\n      not(0x0)\n      and\n      dup2\n      mstore\n      0x20\n      add\n      swap2\n      pop\n      pop\n      mload(0x40)\n      dup1\n      swap2\n      sub\n      swap1\n      log1\n        /* \"contracts/LandRecordFactory.sol\":1431:2610  function addKhatianNew(uint64 _khatianiId, bytes32 _plotHash, uint16 _percentOwn, uint[] _user, uint16[] _percentage) public{... */\n      pop\n      pop\n      pop\n      pop\n      pop\n      pop\n      pop\n      pop\n      jump\t// out\n        /* \"contracts/LandRecordFactory.sol\":9157:9364  function getUserOwnedByUid(uint _uid) public view returns(uint number, bytes32[] khatianList){... */\n    tag_49:\n        /* \"contracts/LandRecordFactory.sol\":9215:9226  uint number */\n      0x0\n        /* \"contracts/LandRecordFactory.sol\":9228:9249  bytes32[] khatianList */\n      0x60\n        /* \"contracts/LandRecordFactory.sol\":9269:9285  userOwnedMapping */\n      0x0\n        /* \"contracts/LandRecordFactory.sol\":9269:9291  userOwnedMapping[_uid] */\n      dup1\n        /* \"contracts/LandRecordFactory.sol\":9286:9290  _uid */\n      dup5\n        /* \"contracts/LandRecordFactory.sol\":9269:9291  userOwnedMapping[_uid] */\n      dup2\n      mstore\n      0x20\n      add\n      swap1\n      dup2\n      mstore\n      0x20\n      add\n      0x0\n      keccak256\n        /* \"contracts/LandRecordFactory.sol\":9269:9298  userOwnedMapping[_uid].number */\n      0x0\n      add\n      sload\n        /* \"contracts/LandRecordFactory.sol\":9260:9298  number = userOwnedMapping[_uid].number */\n      swap2\n      pop\n        /* \"contracts/LandRecordFactory.sol\":9323:9339  userOwnedMapping */\n      0x0\n        /* \"contracts/LandRecordFactory.sol\":9323:9345  userOwnedMapping[_uid] */\n      dup1\n        /* \"contracts/LandRecordFactory.sol\":9340:9344  _uid */\n      dup5\n        /* \"contracts/LandRecordFactory.sol\":9323:9345  userOwnedMapping[_uid] */\n      dup2\n      mstore\n      0x20\n      add\n      swap1\n      dup2\n      mstore\n      0x20\n      add\n      0x0\n      keccak256\n        /* \"contracts/LandRecordFactory.sol\":9323:9357  userOwnedMapping[_uid].khatianList */\n      0x1\n      add\n        /* \"contracts/LandRecordFactory.sol\":9308:9357  khatianList =  userOwnedMapping[_uid].khatianList */\n      dup1\n      sload\n      dup1\n      0x20\n      mul\n      0x20\n      add\n      mload(0x40)\n      swap1\n      dup2\n      add\n      0x40\n      mstore\n      dup1\n      swap3\n      swap2\n      swap1\n      dup2\n      dup2\n      mstore\n      0x20\n      add\n      dup3\n      dup1\n      sload\n      dup1\n      iszero\n      tag_161\n      jumpi\n      0x20\n      mul\n      dup3\n      add\n      swap2\n      swap1\n      0x0\n      mstore\n      keccak256(0x0, 0x20)\n      swap1\n    tag_162:\n      dup2\n      sload\n      not(0x0)\n      and\n      dup2\n      mstore\n      0x20\n      add\n      swap1\n      0x1\n      add\n      swap1\n      dup1\n      dup4\n      gt\n      tag_162\n      jumpi\n    tag_161:\n      pop\n      pop\n      pop\n      pop\n      pop\n      swap1\n      pop\n        /* \"contracts/LandRecordFactory.sol\":9157:9364  function getUserOwnedByUid(uint _uid) public view returns(uint number, bytes32[] khatianList){... */\n      swap2\n      pop\n      swap2\n      jump\t// out\n        /* \"contracts/LandRecordFactory.sol\":4291:4464  function addUserOwned(uint _uid, bytes32 _khatianHash) public{... */\n    tag_55:\n        /* \"contracts/LandRecordFactory.sol\":4362:4378  userOwnedMapping */\n      0x0\n        /* \"contracts/LandRecordFactory.sol\":4362:4384  userOwnedMapping[_uid] */\n      dup1\n        /* \"contracts/LandRecordFactory.sol\":4379:4383  _uid */\n      dup4\n        /* \"contracts/LandRecordFactory.sol\":4362:4384  userOwnedMapping[_uid] */\n      dup2\n      mstore\n      0x20\n      add\n      swap1\n      dup2\n      mstore\n      0x20\n      add\n      0x0\n      keccak256\n        /* \"contracts/LandRecordFactory.sol\":4362:4391  userOwnedMapping[_uid].number */\n      0x0\n      add\n      0x0\n        /* \"contracts/LandRecordFactory.sol\":4362:4394  userOwnedMapping[_uid].number ++ */\n      dup2\n      sload\n      dup1\n      swap3\n      swap2\n      swap1\n      0x1\n      add\n      swap2\n      swap1\n      pop\n      sstore\n      pop\n        /* \"contracts/LandRecordFactory.sol\":4404:4420  userOwnedMapping */\n      0x0\n        /* \"contracts/LandRecordFactory.sol\":4404:4426  userOwnedMapping[_uid] */\n      dup1\n        /* \"contracts/LandRecordFactory.sol\":4421:4425  _uid */\n      dup4\n        /* \"contracts/LandRecordFactory.sol\":4404:4426  userOwnedMapping[_uid] */\n      dup2\n      mstore\n      0x20\n      add\n      swap1\n      dup2\n      mstore\n      0x20\n      add\n      0x0\n      keccak256\n        /* \"contracts/LandRecordFactory.sol\":4404:4438  userOwnedMapping[_uid].khatianList */\n      0x1\n      add\n        /* \"contracts/LandRecordFactory.sol\":4444:4456  _khatianHash */\n      dup2\n        /* \"contracts/LandRecordFactory.sol\":4404:4457  userOwnedMapping[_uid].khatianList.push(_khatianHash) */\n      swap1\n      dup1\n        /* \"--CODEGEN--\":39:40   */\n      0x1\n        /* \"--CODEGEN--\":33:36   */\n      dup2\n        /* \"--CODEGEN--\":27:37   */\n      sload\n        /* \"--CODEGEN--\":23:41   */\n      add\n        /* \"--CODEGEN--\":57:67   */\n      dup1\n        /* \"--CODEGEN--\":52:55   */\n      dup3\n        /* \"--CODEGEN--\":45:68   */\n      sstore\n        /* \"--CODEGEN--\":79:89   */\n      dup1\n        /* \"--CODEGEN--\":72:89   */\n      swap2\n      pop\n        /* \"--CODEGEN--\":0:93   */\n      pop\n        /* \"contracts/LandRecordFactory.sol\":4404:4457  userOwnedMapping[_uid].khatianList.push(_khatianHash) */\n      swap1\n      0x1\n      dup3\n      sub\n      swap1\n      0x0\n      mstore\n      keccak256(0x0, 0x20)\n      add\n      0x0\n      swap1\n      swap2\n      swap3\n      swap1\n      swap2\n      swap1\n      swap2\n      pop\n      swap1\n      not(0x0)\n      and\n      swap1\n      sstore\n      pop\n        /* \"contracts/LandRecordFactory.sol\":4291:4464  function addUserOwned(uint _uid, bytes32 _khatianHash) public{... */\n      pop\n      pop\n      jump\t// out\n        /* \"contracts/LandRecordFactory.sol\":8523:8624  function getUserIdById(uint id) public view returns(uint UserId){... */\n    tag_58:\n        /* \"contracts/LandRecordFactory.sol\":8575:8586  uint UserId */\n      0x0\n        /* \"contracts/LandRecordFactory.sol\":8604:8613  userArray */\n      0x2\n        /* \"contracts/LandRecordFactory.sol\":8614:8616  id */\n      dup3\n        /* \"contracts/LandRecordFactory.sol\":8604:8617  userArray[id] */\n      dup2\n      sload\n      dup2\n      lt\n      iszero\n      iszero\n      tag_166\n      jumpi\n      invalid\n    tag_166:\n      swap1\n      0x0\n      mstore\n      keccak256(0x0, 0x20)\n      add\n      sload\n        /* \"contracts/LandRecordFactory.sol\":8597:8617  return userArray[id] */\n      swap1\n      pop\n        /* \"contracts/LandRecordFactory.sol\":8523:8624  function getUserIdById(uint id) public view returns(uint UserId){... */\n      swap2\n      swap1\n      pop\n      jump\t// out\n        /* \"contracts/LandRecordFactory.sol\":4586:4702  function getKhatianHasById(uint id) public view returns(bytes32 khatianHash){... */\n    tag_61:\n        /* \"contracts/LandRecordFactory.sol\":4642:4661  bytes32 khatianHash */\n      0x0\n        /* \"contracts/LandRecordFactory.sol\":4679:4691  khatianArray */\n      0x6\n        /* \"contracts/LandRecordFactory.sol\":4692:4694  id */\n      dup3\n        /* \"contracts/LandRecordFactory.sol\":4679:4695  khatianArray[id] */\n      dup2\n      sload\n      dup2\n      lt\n      iszero\n      iszero\n      tag_169\n      jumpi\n      invalid\n    tag_169:\n      swap1\n      0x0\n      mstore\n      keccak256(0x0, 0x20)\n      add\n      sload\n        /* \"contracts/LandRecordFactory.sol\":4672:4695  return khatianArray[id] */\n      swap1\n      pop\n        /* \"contracts/LandRecordFactory.sol\":4586:4702  function getKhatianHasById(uint id) public view returns(bytes32 khatianHash){... */\n      swap2\n      swap1\n      pop\n      jump\t// out\n        /* \"contracts/LandRecordFactory.sol\":6817:7413  function getPlotByHash(bytes32 plotHash) public view returns(bytes32 division, bytes32 district, bytes32 thana, uint16 JLNo, uint16 plotNo, uint8 plotType, uint32 plotArea){... */\n    tag_64:\n        /* \"contracts/LandRecordFactory.sol\":6878:6894  bytes32 division */\n      0x0\n        /* \"contracts/LandRecordFactory.sol\":6896:6912  bytes32 district */\n      dup1\n        /* \"contracts/LandRecordFactory.sol\":6914:6927  bytes32 thana */\n      0x0\n        /* \"contracts/LandRecordFactory.sol\":6929:6940  uint16 JLNo */\n      dup1\n        /* \"contracts/LandRecordFactory.sol\":6942:6955  uint16 plotNo */\n      0x0\n        /* \"contracts/LandRecordFactory.sol\":6957:6971  uint8 plotType */\n      dup1\n        /* \"contracts/LandRecordFactory.sol\":6973:6988  uint32 plotArea */\n      0x0\n        /* \"contracts/LandRecordFactory.sol\":7040:7044  true */\n      0x1\n        /* \"contracts/LandRecordFactory.sol\":7007:7044  plotMapping[plotHash].isExist == true */\n      iszero\n      iszero\n        /* \"contracts/LandRecordFactory.sol\":7007:7018  plotMapping */\n      0x3\n        /* \"contracts/LandRecordFactory.sol\":7007:7028  plotMapping[plotHash] */\n      0x0\n        /* \"contracts/LandRecordFactory.sol\":7019:7027  plotHash */\n      dup11\n        /* \"contracts/LandRecordFactory.sol\":7007:7028  plotMapping[plotHash] */\n      not(0x0)\n      and\n      not(0x0)\n      and\n      dup2\n      mstore\n      0x20\n      add\n      swap1\n      dup2\n      mstore\n      0x20\n      add\n      0x0\n      keccak256\n        /* \"contracts/LandRecordFactory.sol\":7007:7036  plotMapping[plotHash].isExist */\n      0x3\n      add\n      0x9\n      swap1\n      sload\n      swap1\n      0x100\n      exp\n      swap1\n      div\n      0xff\n      and\n        /* \"contracts/LandRecordFactory.sol\":7007:7044  plotMapping[plotHash].isExist == true */\n      iszero\n      iszero\n      eq\n        /* \"contracts/LandRecordFactory.sol\":6999:7067  require(plotMapping[plotHash].isExist == true, \"Plot doesn't exist\") */\n      iszero\n      iszero\n      tag_172\n      jumpi\n      mload(0x40)\n      0x8c379a000000000000000000000000000000000000000000000000000000000\n      dup2\n      mstore\n      0x4\n      add\n      dup1\n      dup1\n      0x20\n      add\n      dup3\n      dup2\n      sub\n      dup3\n      mstore\n      0x12\n      dup2\n      mstore\n      0x20\n      add\n      dup1\n      0x506c6f7420646f65736e27742065786973740000000000000000000000000000\n      dup2\n      mstore\n      pop\n      0x20\n      add\n      swap2\n      pop\n      pop\n      mload(0x40)\n      dup1\n      swap2\n      sub\n      swap1\n      revert\n    tag_172:\n        /* \"contracts/LandRecordFactory.sol\":7088:7099  plotMapping */\n      0x3\n        /* \"contracts/LandRecordFactory.sol\":7088:7109  plotMapping[plotHash] */\n      0x0\n        /* \"contracts/LandRecordFactory.sol\":7100:7108  plotHash */\n      dup10\n        /* \"contracts/LandRecordFactory.sol\":7088:7109  plotMapping[plotHash] */\n      not(0x0)\n      and\n      not(0x0)\n      and\n      dup2\n      mstore\n      0x20\n      add\n      swap1\n      dup2\n      mstore\n      0x20\n      add\n      0x0\n      keccak256\n        /* \"contracts/LandRecordFactory.sol\":7088:7118  plotMapping[plotHash].division */\n      0x0\n      add\n      sload\n        /* \"contracts/LandRecordFactory.sol\":7077:7118  division = plotMapping[plotHash].division */\n      swap7\n      pop\n        /* \"contracts/LandRecordFactory.sol\":7139:7150  plotMapping */\n      0x3\n        /* \"contracts/LandRecordFactory.sol\":7139:7160  plotMapping[plotHash] */\n      0x0\n        /* \"contracts/LandRecordFactory.sol\":7151:7159  plotHash */\n      dup10\n        /* \"contracts/LandRecordFactory.sol\":7139:7160  plotMapping[plotHash] */\n      not(0x0)\n      and\n      not(0x0)\n      and\n      dup2\n      mstore\n      0x20\n      add\n      swap1\n      dup2\n      mstore\n      0x20\n      add\n      0x0\n      keccak256\n        /* \"contracts/LandRecordFactory.sol\":7139:7169  plotMapping[plotHash].district */\n      0x1\n      add\n      sload\n        /* \"contracts/LandRecordFactory.sol\":7128:7169  district = plotMapping[plotHash].district */\n      swap6\n      pop\n        /* \"contracts/LandRecordFactory.sol\":7187:7198  plotMapping */\n      0x3\n        /* \"contracts/LandRecordFactory.sol\":7187:7208  plotMapping[plotHash] */\n      0x0\n        /* \"contracts/LandRecordFactory.sol\":7199:7207  plotHash */\n      dup10\n        /* \"contracts/LandRecordFactory.sol\":7187:7208  plotMapping[plotHash] */\n      not(0x0)\n      and\n      not(0x0)\n      and\n      dup2\n      mstore\n      0x20\n      add\n      swap1\n      dup2\n      mstore\n      0x20\n      add\n      0x0\n      keccak256\n        /* \"contracts/LandRecordFactory.sol\":7187:7214  plotMapping[plotHash].thana */\n      0x2\n      add\n      sload\n        /* \"contracts/LandRecordFactory.sol\":7179:7214  thana = plotMapping[plotHash].thana */\n      swap5\n      pop\n        /* \"contracts/LandRecordFactory.sol\":7231:7242  plotMapping */\n      0x3\n        /* \"contracts/LandRecordFactory.sol\":7231:7252  plotMapping[plotHash] */\n      0x0\n        /* \"contracts/LandRecordFactory.sol\":7243:7251  plotHash */\n      dup10\n        /* \"contracts/LandRecordFactory.sol\":7231:7252  plotMapping[plotHash] */\n      not(0x0)\n      and\n      not(0x0)\n      and\n      dup2\n      mstore\n      0x20\n      add\n      swap1\n      dup2\n      mstore\n      0x20\n      add\n      0x0\n      keccak256\n        /* \"contracts/LandRecordFactory.sol\":7231:7257  plotMapping[plotHash].JLNo */\n      0x3\n      add\n      0x0\n      swap1\n      sload\n      swap1\n      0x100\n      exp\n      swap1\n      div\n      0xffff\n      and\n        /* \"contracts/LandRecordFactory.sol\":7224:7257  JLNo = plotMapping[plotHash].JLNo */\n      swap4\n      pop\n        /* \"contracts/LandRecordFactory.sol\":7276:7287  plotMapping */\n      0x3\n        /* \"contracts/LandRecordFactory.sol\":7276:7297  plotMapping[plotHash] */\n      0x0\n        /* \"contracts/LandRecordFactory.sol\":7288:7296  plotHash */\n      dup10\n        /* \"contracts/LandRecordFactory.sol\":7276:7297  plotMapping[plotHash] */\n      not(0x0)\n      and\n      not(0x0)\n      and\n      dup2\n      mstore\n      0x20\n      add\n      swap1\n      dup2\n      mstore\n      0x20\n      add\n      0x0\n      keccak256\n        /* \"contracts/LandRecordFactory.sol\":7276:7304  plotMapping[plotHash].plotNo */\n      0x3\n      add\n      0x2\n      swap1\n      sload\n      swap1\n      0x100\n      exp\n      swap1\n      div\n      0xffff\n      and\n        /* \"contracts/LandRecordFactory.sol\":7267:7304  plotNo = plotMapping[plotHash].plotNo */\n      swap3\n      pop\n        /* \"contracts/LandRecordFactory.sol\":7325:7336  plotMapping */\n      0x3\n        /* \"contracts/LandRecordFactory.sol\":7325:7346  plotMapping[plotHash] */\n      0x0\n        /* \"contracts/LandRecordFactory.sol\":7337:7345  plotHash */\n      dup10\n        /* \"contracts/LandRecordFactory.sol\":7325:7346  plotMapping[plotHash] */\n      not(0x0)\n      and\n      not(0x0)\n      and\n      dup2\n      mstore\n      0x20\n      add\n      swap1\n      dup2\n      mstore\n      0x20\n      add\n      0x0\n      keccak256\n        /* \"contracts/LandRecordFactory.sol\":7325:7355  plotMapping[plotHash].plotType */\n      0x3\n      add\n      0x4\n      swap1\n      sload\n      swap1\n      0x100\n      exp\n      swap1\n      div\n      0xff\n      and\n        /* \"contracts/LandRecordFactory.sol\":7314:7355  plotType = plotMapping[plotHash].plotType */\n      swap2\n      pop\n        /* \"contracts/LandRecordFactory.sol\":7376:7387  plotMapping */\n      0x3\n        /* \"contracts/LandRecordFactory.sol\":7376:7397  plotMapping[plotHash] */\n      0x0\n        /* \"contracts/LandRecordFactory.sol\":7388:7396  plotHash */\n      dup10\n        /* \"contracts/LandRecordFactory.sol\":7376:7397  plotMapping[plotHash] */\n      not(0x0)\n      and\n      not(0x0)\n      and\n      dup2\n      mstore\n      0x20\n      add\n      swap1\n      dup2\n      mstore\n      0x20\n      add\n      0x0\n      keccak256\n        /* \"contracts/LandRecordFactory.sol\":7376:7406  plotMapping[plotHash].plotArea */\n      0x3\n      add\n      0x5\n      swap1\n      sload\n      swap1\n      0x100\n      exp\n      swap1\n      div\n      0xffffffff\n      and\n        /* \"contracts/LandRecordFactory.sol\":7365:7406  plotArea = plotMapping[plotHash].plotArea */\n      swap1\n      pop\n        /* \"contracts/LandRecordFactory.sol\":6817:7413  function getPlotByHash(bytes32 plotHash) public view returns(bytes32 division, bytes32 district, bytes32 thana, uint16 JLNo, uint16 plotNo, uint8 plotType, uint32 plotArea){... */\n      swap2\n      swap4\n      swap6\n      swap8\n      swap1\n      swap3\n      swap5\n      swap7\n      pop\n      jump\t// out\n        /* \"contracts/LandRecordFactory.sol\":4474:4576  function getKhatianArrayLen() public view returns(uint len){... */\n    tag_67:\n        /* \"contracts/LandRecordFactory.sol\":4524:4532  uint len */\n      0x0\n        /* \"contracts/LandRecordFactory.sol\":4550:4562  khatianArray */\n      0x6\n        /* \"contracts/LandRecordFactory.sol\":4550:4569  khatianArray.length */\n      dup1\n      sload\n      swap1\n      pop\n        /* \"contracts/LandRecordFactory.sol\":4543:4569  return khatianArray.length */\n      swap1\n      pop\n        /* \"contracts/LandRecordFactory.sol\":4474:4576  function getKhatianArrayLen() public view returns(uint len){... */\n      swap1\n      jump\t// out\n        /* \"contracts/LandRecordFactory.sol\":7423:8407  function creatNewUser(string _fullName, string _fatheName, string _district, string _thana, uint24 _postCode, string _village, uint _nid) public{... */\n    tag_70:\n        /* \"contracts/LandRecordFactory.sol\":7599:7612  contarctOwner */\n      0x7\n      0x0\n      swap1\n      sload\n      swap1\n      0x100\n      exp\n      swap1\n      div\n      0xffffffffffffffffffffffffffffffffffffffff\n      and\n        /* \"contracts/LandRecordFactory.sol\":7585:7612  msg.sender == contarctOwner */\n      0xffffffffffffffffffffffffffffffffffffffff\n      and\n        /* \"contracts/LandRecordFactory.sol\":7585:7595  msg.sender */\n      caller\n        /* \"contracts/LandRecordFactory.sol\":7585:7612  msg.sender == contarctOwner */\n      0xffffffffffffffffffffffffffffffffffffffff\n      and\n      eq\n        /* \"contracts/LandRecordFactory.sol\":7577:7639  require(msg.sender == contarctOwner, \"You are not authorized\") */\n      iszero\n      iszero\n      tag_175\n      jumpi\n      mload(0x40)\n      0x8c379a000000000000000000000000000000000000000000000000000000000\n      dup2\n      mstore\n      0x4\n      add\n      dup1\n      dup1\n      0x20\n      add\n      dup3\n      dup2\n      sub\n      dup3\n      mstore\n      0x16\n      dup2\n      mstore\n      0x20\n      add\n      dup1\n      0x596f7520617265206e6f7420617574686f72697a656400000000000000000000\n      dup2\n      mstore\n      pop\n      0x20\n      add\n      swap2\n      pop\n      pop\n      mload(0x40)\n      dup1\n      swap2\n      sub\n      swap1\n      revert\n    tag_175:\n        /* \"contracts/LandRecordFactory.sol\":7661:7679  toUpper(_fullName) */\n      tag_176\n        /* \"contracts/LandRecordFactory.sol\":7669:7678  _fullName */\n      dup8\n        /* \"contracts/LandRecordFactory.sol\":7661:7668  toUpper */\n      tag_107\n        /* \"contracts/LandRecordFactory.sol\":7661:7679  toUpper(_fullName) */\n      jump\t// in\n    tag_176:\n        /* \"contracts/LandRecordFactory.sol\":7649:7679  _fullName = toUpper(_fullName) */\n      swap7\n      pop\n        /* \"contracts/LandRecordFactory.sol\":7702:7721  toUpper(_fatheName) */\n      tag_177\n        /* \"contracts/LandRecordFactory.sol\":7710:7720  _fatheName */\n      dup7\n        /* \"contracts/LandRecordFactory.sol\":7702:7709  toUpper */\n      tag_107\n        /* \"contracts/LandRecordFactory.sol\":7702:7721  toUpper(_fatheName) */\n      jump\t// in\n    tag_177:\n        /* \"contracts/LandRecordFactory.sol\":7689:7721  _fatheName = toUpper(_fatheName) */\n      swap6\n      pop\n        /* \"contracts/LandRecordFactory.sol\":7743:7761  toUpper(_district) */\n      tag_178\n        /* \"contracts/LandRecordFactory.sol\":7751:7760  _district */\n      dup6\n        /* \"contracts/LandRecordFactory.sol\":7743:7750  toUpper */\n      tag_107\n        /* \"contracts/LandRecordFactory.sol\":7743:7761  toUpper(_district) */\n      jump\t// in\n    tag_178:\n        /* \"contracts/LandRecordFactory.sol\":7731:7761  _district = toUpper(_district) */\n      swap5\n      pop\n        /* \"contracts/LandRecordFactory.sol\":7780:7795  toUpper(_thana) */\n      tag_179\n        /* \"contracts/LandRecordFactory.sol\":7788:7794  _thana */\n      dup5\n        /* \"contracts/LandRecordFactory.sol\":7780:7787  toUpper */\n      tag_107\n        /* \"contracts/LandRecordFactory.sol\":7780:7795  toUpper(_thana) */\n      jump\t// in\n    tag_179:\n        /* \"contracts/LandRecordFactory.sol\":7771:7795  _thana = toUpper(_thana) */\n      swap4\n      pop\n        /* \"contracts/LandRecordFactory.sol\":7816:7833  toUpper(_village) */\n      tag_180\n        /* \"contracts/LandRecordFactory.sol\":7824:7832  _village */\n      dup3\n        /* \"contracts/LandRecordFactory.sol\":7816:7823  toUpper */\n      tag_107\n        /* \"contracts/LandRecordFactory.sol\":7816:7833  toUpper(_village) */\n      jump\t// in\n    tag_180:\n        /* \"contracts/LandRecordFactory.sol\":7805:7833  _village = toUpper(_village) */\n      swap2\n      pop\n        /* \"contracts/LandRecordFactory.sol\":7880:7885  false */\n      0x0\n        /* \"contracts/LandRecordFactory.sol\":7851:7885  userMapping[_nid].isExist == false */\n      iszero\n      iszero\n        /* \"contracts/LandRecordFactory.sol\":7851:7862  userMapping */\n      0x1\n        /* \"contracts/LandRecordFactory.sol\":7851:7868  userMapping[_nid] */\n      0x0\n        /* \"contracts/LandRecordFactory.sol\":7863:7867  _nid */\n      dup4\n        /* \"contracts/LandRecordFactory.sol\":7851:7868  userMapping[_nid] */\n      dup2\n      mstore\n      0x20\n      add\n      swap1\n      dup2\n      mstore\n      0x20\n      add\n      0x0\n      keccak256\n        /* \"contracts/LandRecordFactory.sol\":7851:7876  userMapping[_nid].isExist */\n      0x6\n      add\n      0x0\n      swap1\n      sload\n      swap1\n      0x100\n      exp\n      swap1\n      div\n      0xff\n      and\n        /* \"contracts/LandRecordFactory.sol\":7851:7885  userMapping[_nid].isExist == false */\n      iszero\n      iszero\n      eq\n        /* \"contracts/LandRecordFactory.sol\":7843:7908  require(userMapping[_nid].isExist == false, \"User already exist\") */\n      iszero\n      iszero\n      tag_181\n      jumpi\n      mload(0x40)\n      0x8c379a000000000000000000000000000000000000000000000000000000000\n      dup2\n      mstore\n      0x4\n      add\n      dup1\n      dup1\n      0x20\n      add\n      dup3\n      dup2\n      sub\n      dup3\n      mstore\n      0x12\n      dup2\n      mstore\n      0x20\n      add\n      dup1\n      0x5573657220616c72656164792065786973740000000000000000000000000000\n      dup2\n      mstore\n      pop\n      0x20\n      add\n      swap2\n      pop\n      pop\n      mload(0x40)\n      dup1\n      swap2\n      sub\n      swap1\n      revert\n    tag_181:\n        /* \"contracts/LandRecordFactory.sol\":7956:7982  stringToBytes32(_fullName) */\n      tag_182\n        /* \"contracts/LandRecordFactory.sol\":7972:7981  _fullName */\n      dup8\n        /* \"contracts/LandRecordFactory.sol\":7956:7971  stringToBytes32 */\n      tag_124\n        /* \"contracts/LandRecordFactory.sol\":7956:7982  stringToBytes32(_fullName) */\n      jump\t// in\n    tag_182:\n        /* \"contracts/LandRecordFactory.sol\":7927:7938  userMapping */\n      0x1\n        /* \"contracts/LandRecordFactory.sol\":7927:7944  userMapping[_nid] */\n      0x0\n        /* \"contracts/LandRecordFactory.sol\":7939:7943  _nid */\n      dup4\n        /* \"contracts/LandRecordFactory.sol\":7927:7944  userMapping[_nid] */\n      dup2\n      mstore\n      0x20\n      add\n      swap1\n      dup2\n      mstore\n      0x20\n      add\n      0x0\n      keccak256\n        /* \"contracts/LandRecordFactory.sol\":7927:7953  userMapping[_nid].fullName */\n      0x0\n      add\n        /* \"contracts/LandRecordFactory.sol\":7927:7982  userMapping[_nid].fullName = stringToBytes32(_fullName) */\n      dup2\n      not(0x0)\n      and\n      swap1\n      sstore\n      pop\n        /* \"contracts/LandRecordFactory.sol\":8022:8049  stringToBytes32(_fatheName) */\n      tag_183\n        /* \"contracts/LandRecordFactory.sol\":8038:8048  _fatheName */\n      dup7\n        /* \"contracts/LandRecordFactory.sol\":8022:8037  stringToBytes32 */\n      tag_124\n        /* \"contracts/LandRecordFactory.sol\":8022:8049  stringToBytes32(_fatheName) */\n      jump\t// in\n    tag_183:\n        /* \"contracts/LandRecordFactory.sol\":7992:8003  userMapping */\n      0x1\n        /* \"contracts/LandRecordFactory.sol\":7992:8009  userMapping[_nid] */\n      0x0\n        /* \"contracts/LandRecordFactory.sol\":8004:8008  _nid */\n      dup4\n        /* \"contracts/LandRecordFactory.sol\":7992:8009  userMapping[_nid] */\n      dup2\n      mstore\n      0x20\n      add\n      swap1\n      dup2\n      mstore\n      0x20\n      add\n      0x0\n      keccak256\n        /* \"contracts/LandRecordFactory.sol\":7992:8019  userMapping[_nid].fatheName */\n      0x1\n      add\n        /* \"contracts/LandRecordFactory.sol\":7992:8049  userMapping[_nid].fatheName = stringToBytes32(_fatheName) */\n      dup2\n      not(0x0)\n      and\n      swap1\n      sstore\n      pop\n        /* \"contracts/LandRecordFactory.sol\":8088:8114  stringToBytes32(_district) */\n      tag_184\n        /* \"contracts/LandRecordFactory.sol\":8104:8113  _district */\n      dup6\n        /* \"contracts/LandRecordFactory.sol\":8088:8103  stringToBytes32 */\n      tag_124\n        /* \"contracts/LandRecordFactory.sol\":8088:8114  stringToBytes32(_district) */\n      jump\t// in\n    tag_184:\n        /* \"contracts/LandRecordFactory.sol\":8059:8070  userMapping */\n      0x1\n        /* \"contracts/LandRecordFactory.sol\":8059:8076  userMapping[_nid] */\n      0x0\n        /* \"contracts/LandRecordFactory.sol\":8071:8075  _nid */\n      dup4\n        /* \"contracts/LandRecordFactory.sol\":8059:8076  userMapping[_nid] */\n      dup2\n      mstore\n      0x20\n      add\n      swap1\n      dup2\n      mstore\n      0x20\n      add\n      0x0\n      keccak256\n        /* \"contracts/LandRecordFactory.sol\":8059:8085  userMapping[_nid].district */\n      0x2\n      add\n        /* \"contracts/LandRecordFactory.sol\":8059:8114  userMapping[_nid].district = stringToBytes32(_district) */\n      dup2\n      not(0x0)\n      and\n      swap1\n      sstore\n      pop\n        /* \"contracts/LandRecordFactory.sol\":8150:8173  stringToBytes32(_thana) */\n      tag_185\n        /* \"contracts/LandRecordFactory.sol\":8166:8172  _thana */\n      dup5\n        /* \"contracts/LandRecordFactory.sol\":8150:8165  stringToBytes32 */\n      tag_124\n        /* \"contracts/LandRecordFactory.sol\":8150:8173  stringToBytes32(_thana) */\n      jump\t// in\n    tag_185:\n        /* \"contracts/LandRecordFactory.sol\":8124:8135  userMapping */\n      0x1\n        /* \"contracts/LandRecordFactory.sol\":8124:8141  userMapping[_nid] */\n      0x0\n        /* \"contracts/LandRecordFactory.sol\":8136:8140  _nid */\n      dup4\n        /* \"contracts/LandRecordFactory.sol\":8124:8141  userMapping[_nid] */\n      dup2\n      mstore\n      0x20\n      add\n      swap1\n      dup2\n      mstore\n      0x20\n      add\n      0x0\n      keccak256\n        /* \"contracts/LandRecordFactory.sol\":8124:8147  userMapping[_nid].thana */\n      0x3\n      add\n        /* \"contracts/LandRecordFactory.sol\":8124:8173  userMapping[_nid].thana = stringToBytes32(_thana) */\n      dup2\n      not(0x0)\n      and\n      swap1\n      sstore\n      pop\n        /* \"contracts/LandRecordFactory.sol\":8212:8221  _postCode */\n      dup3\n        /* \"contracts/LandRecordFactory.sol\":8183:8194  userMapping */\n      0x1\n        /* \"contracts/LandRecordFactory.sol\":8183:8200  userMapping[_nid] */\n      0x0\n        /* \"contracts/LandRecordFactory.sol\":8195:8199  _nid */\n      dup4\n        /* \"contracts/LandRecordFactory.sol\":8183:8200  userMapping[_nid] */\n      dup2\n      mstore\n      0x20\n      add\n      swap1\n      dup2\n      mstore\n      0x20\n      add\n      0x0\n      keccak256\n        /* \"contracts/LandRecordFactory.sol\":8183:8209  userMapping[_nid].postCode */\n      0x4\n      add\n      0x0\n        /* \"contracts/LandRecordFactory.sol\":8183:8221  userMapping[_nid].postCode = _postCode */\n      0x100\n      exp\n      dup2\n      sload\n      dup2\n      0xffffff\n      mul\n      not\n      and\n      swap1\n      dup4\n      0xffffff\n      and\n      mul\n      or\n      swap1\n      sstore\n      pop\n        /* \"contracts/LandRecordFactory.sol\":8259:8284  stringToBytes32(_village) */\n      tag_186\n        /* \"contracts/LandRecordFactory.sol\":8275:8283  _village */\n      dup3\n        /* \"contracts/LandRecordFactory.sol\":8259:8274  stringToBytes32 */\n      tag_124\n        /* \"contracts/LandRecordFactory.sol\":8259:8284  stringToBytes32(_village) */\n      jump\t// in\n    tag_186:\n        /* \"contracts/LandRecordFactory.sol\":8231:8242  userMapping */\n      0x1\n        /* \"contracts/LandRecordFactory.sol\":8231:8248  userMapping[_nid] */\n      0x0\n        /* \"contracts/LandRecordFactory.sol\":8243:8247  _nid */\n      dup4\n        /* \"contracts/LandRecordFactory.sol\":8231:8248  userMapping[_nid] */\n      dup2\n      mstore\n      0x20\n      add\n      swap1\n      dup2\n      mstore\n      0x20\n      add\n      0x0\n      keccak256\n        /* \"contracts/LandRecordFactory.sol\":8231:8256  userMapping[_nid].village */\n      0x5\n      add\n        /* \"contracts/LandRecordFactory.sol\":8231:8284  userMapping[_nid].village = stringToBytes32(_village) */\n      dup2\n      not(0x0)\n      and\n      swap1\n      sstore\n      pop\n        /* \"contracts/LandRecordFactory.sol\":8322:8326  true */\n      0x1\n        /* \"contracts/LandRecordFactory.sol\":8294:8305  userMapping */\n      dup1\n        /* \"contracts/LandRecordFactory.sol\":8294:8311  userMapping[_nid] */\n      0x0\n        /* \"contracts/LandRecordFactory.sol\":8306:8310  _nid */\n      dup4\n        /* \"contracts/LandRecordFactory.sol\":8294:8311  userMapping[_nid] */\n      dup2\n      mstore\n      0x20\n      add\n      swap1\n      dup2\n      mstore\n      0x20\n      add\n      0x0\n      keccak256\n        /* \"contracts/LandRecordFactory.sol\":8294:8319  userMapping[_nid].isExist */\n      0x6\n      add\n      0x0\n        /* \"contracts/LandRecordFactory.sol\":8294:8326  userMapping[_nid].isExist = true */\n      0x100\n      exp\n      dup2\n      sload\n      dup2\n      0xff\n      mul\n      not\n      and\n      swap1\n      dup4\n      iszero\n      iszero\n      mul\n      or\n      swap1\n      sstore\n      pop\n        /* \"contracts/LandRecordFactory.sol\":8345:8354  userArray */\n      0x2\n        /* \"contracts/LandRecordFactory.sol\":8360:8364  _nid */\n      dup2\n        /* \"contracts/LandRecordFactory.sol\":8345:8365  userArray.push(_nid) */\n      swap1\n      dup1\n        /* \"--CODEGEN--\":39:40   */\n      0x1\n        /* \"--CODEGEN--\":33:36   */\n      dup2\n        /* \"--CODEGEN--\":27:37   */\n      sload\n        /* \"--CODEGEN--\":23:41   */\n      add\n        /* \"--CODEGEN--\":57:67   */\n      dup1\n        /* \"--CODEGEN--\":52:55   */\n      dup3\n        /* \"--CODEGEN--\":45:68   */\n      sstore\n        /* \"--CODEGEN--\":79:89   */\n      dup1\n        /* \"--CODEGEN--\":72:89   */\n      swap2\n      pop\n        /* \"--CODEGEN--\":0:93   */\n      pop\n        /* \"contracts/LandRecordFactory.sol\":8345:8365  userArray.push(_nid) */\n      swap1\n      0x1\n      dup3\n      sub\n      swap1\n      0x0\n      mstore\n      keccak256(0x0, 0x20)\n      add\n      0x0\n      swap1\n      swap2\n      swap3\n      swap1\n      swap2\n      swap1\n      swap2\n      pop\n      sstore\n      pop\n        /* \"contracts/LandRecordFactory.sol\":8380:8400  creationOfUser(_nid) */\n      0x535c24547b8a1cfa77510748c335f9ab25a87caebe01c8b706c21cc4585787db\n        /* \"contracts/LandRecordFactory.sol\":8395:8399  _nid */\n      dup2\n        /* \"contracts/LandRecordFactory.sol\":8380:8400  creationOfUser(_nid) */\n      mload(0x40)\n      dup1\n      dup3\n      dup2\n      mstore\n      0x20\n      add\n      swap2\n      pop\n      pop\n      mload(0x40)\n      dup1\n      swap2\n      sub\n      swap1\n      log1\n        /* \"contracts/LandRecordFactory.sol\":7423:8407  function creatNewUser(string _fullName, string _fatheName, string _district, string _thana, uint24 _postCode, string _village, uint _nid) public{... */\n      pop\n      pop\n      pop\n      pop\n      pop\n      pop\n      pop\n      jump\t// out\n        /* \"contracts/LandRecordFactory.sol\":6699:6807  function getPlotHashById(uint id) public view returns(bytes32 plotHash){... */\n    tag_73:\n        /* \"contracts/LandRecordFactory.sol\":6753:6769  bytes32 plotHash */\n      0x0\n        /* \"contracts/LandRecordFactory.sol\":6787:6796  plotArray */\n      0x4\n        /* \"contracts/LandRecordFactory.sol\":6797:6799  id */\n      dup3\n        /* \"contracts/LandRecordFactory.sol\":6787:6800  plotArray[id] */\n      dup2\n      sload\n      dup2\n      lt\n      iszero\n      iszero\n      tag_189\n      jumpi\n      invalid\n    tag_189:\n      swap1\n      0x0\n      mstore\n      keccak256(0x0, 0x20)\n      add\n      sload\n        /* \"contracts/LandRecordFactory.sol\":6780:6800  return plotArray[id] */\n      swap1\n      pop\n        /* \"contracts/LandRecordFactory.sol\":6699:6807  function getPlotHashById(uint id) public view returns(bytes32 plotHash){... */\n      swap2\n      swap1\n      pop\n      jump\t// out\n        /* \"contracts/LandRecordFactory.sol\":8417:8513  function getUserArrayLen() public view returns(uint len){... */\n    tag_76:\n        /* \"contracts/LandRecordFactory.sol\":8464:8472  uint len */\n      0x0\n        /* \"contracts/LandRecordFactory.sol\":8490:8499  userArray */\n      0x2\n        /* \"contracts/LandRecordFactory.sol\":8490:8506  userArray.length */\n      dup1\n      sload\n      swap1\n      pop\n        /* \"contracts/LandRecordFactory.sol\":8483:8506  return userArray.length */\n      swap1\n      pop\n        /* \"contracts/LandRecordFactory.sol\":8417:8513  function getUserArrayLen() public view returns(uint len){... */\n      swap1\n      jump\t// out\n        /* \"contracts/LandRecordFactory.sol\":9691:10040  function toUpper(string str) internal pure returns (string) {... */\n    tag_107:\n        /* \"contracts/LandRecordFactory.sol\":9743:9749  string */\n      0x60\n        /* \"contracts/LandRecordFactory.sol\":9755:9772  bytes memory bStr */\n      dup1\n        /* \"contracts/LandRecordFactory.sol\":9789:9808  bytes memory bUpper */\n      0x60\n        /* \"contracts/LandRecordFactory.sol\":9842:9848  uint i */\n      0x0\n        /* \"contracts/LandRecordFactory.sol\":9781:9784  str */\n      dup5\n        /* \"contracts/LandRecordFactory.sol\":9755:9785  bytes memory bStr = bytes(str) */\n      swap3\n      pop\n        /* \"contracts/LandRecordFactory.sol\":9821:9825  bStr */\n      dup3\n        /* \"contracts/LandRecordFactory.sol\":9821:9832  bStr.length */\n      mload\n        /* \"contracts/LandRecordFactory.sol\":9811:9833  new bytes(bStr.length) */\n      mload(0x40)\n      swap1\n      dup1\n      dup3\n      mstore\n      dup1\n      0x1f\n      add\n      not(0x1f)\n      and\n      0x20\n      add\n      dup3\n      add\n      0x40\n      mstore\n      dup1\n      iszero\n      tag_193\n      jumpi\n      dup2\n      0x20\n      add\n        /* \"--CODEGEN--\":29:31   */\n      0x20\n        /* \"--CODEGEN--\":21:27   */\n      dup3\n        /* \"--CODEGEN--\":17:32   */\n      mul\n        /* \"--CODEGEN--\":117:121   */\n      dup1\n        /* \"--CODEGEN--\":105:115   */\n      codesize\n        /* \"--CODEGEN--\":97:103   */\n      dup4\n        /* \"--CODEGEN--\":88:122   */\n      codecopy\n        /* \"--CODEGEN--\":148:152   */\n      dup1\n        /* \"--CODEGEN--\":140:146   */\n      dup3\n        /* \"--CODEGEN--\":136:153   */\n      add\n        /* \"--CODEGEN--\":126:153   */\n      swap2\n      pop\n        /* \"--CODEGEN--\":0:157   */\n      pop\n        /* \"contracts/LandRecordFactory.sol\":9811:9833  new bytes(bStr.length) */\n      swap1\n      pop\n    tag_193:\n      pop\n        /* \"contracts/LandRecordFactory.sol\":9789:9833  bytes memory bUpper = new bytes(bStr.length) */\n      swap2\n      pop\n        /* \"contracts/LandRecordFactory.sol\":9851:9852  0 */\n      0x0\n        /* \"contracts/LandRecordFactory.sol\":9842:9852  uint i = 0 */\n      swap1\n      pop\n        /* \"contracts/LandRecordFactory.sol\":9837:10012  for (uint i = 0; i < bStr.length; i++) {... */\n    tag_194:\n        /* \"contracts/LandRecordFactory.sol\":9858:9862  bStr */\n      dup3\n        /* \"contracts/LandRecordFactory.sol\":9858:9869  bStr.length */\n      mload\n        /* \"contracts/LandRecordFactory.sol\":9854:9855  i */\n      dup2\n        /* \"contracts/LandRecordFactory.sol\":9854:9869  i < bStr.length */\n      lt\n        /* \"contracts/LandRecordFactory.sol\":9837:10012  for (uint i = 0; i < bStr.length; i++) {... */\n      iszero\n      tag_195\n      jumpi\n        /* \"contracts/LandRecordFactory.sol\":9897:9899  97 */\n      0x61\n        /* \"contracts/LandRecordFactory.sol\":9886:9899  bStr[i] >= 97 */\n      0x100000000000000000000000000000000000000000000000000000000000000\n      mul\n        /* \"contracts/LandRecordFactory.sol\":9886:9890  bStr */\n      dup4\n        /* \"contracts/LandRecordFactory.sol\":9891:9892  i */\n      dup3\n        /* \"contracts/LandRecordFactory.sol\":9886:9893  bStr[i] */\n      dup2\n      mload\n      dup2\n      lt\n      iszero\n      iszero\n      tag_197\n      jumpi\n      invalid\n    tag_197:\n      swap1\n      0x20\n      add\n      add\n      mload\n      0x100000000000000000000000000000000000000000000000000000000000000\n      swap1\n      div\n      0x100000000000000000000000000000000000000000000000000000000000000\n      mul\n        /* \"contracts/LandRecordFactory.sol\":9886:9899  bStr[i] >= 97 */\n      not(0xffffffffffffffffffffffffffffffffffffffffffffffffffffffffffffff)\n      and\n      lt\n      iszero\n        /* \"contracts/LandRecordFactory.sol\":9885:9920  (bStr[i] >= 97) && (bStr[i] <= 122) */\n      dup1\n      iszero\n      tag_198\n      jumpi\n      pop\n        /* \"contracts/LandRecordFactory.sol\":9916:9919  122 */\n      0x7a\n        /* \"contracts/LandRecordFactory.sol\":9905:9919  bStr[i] <= 122 */\n      0x100000000000000000000000000000000000000000000000000000000000000\n      mul\n        /* \"contracts/LandRecordFactory.sol\":9905:9909  bStr */\n      dup4\n        /* \"contracts/LandRecordFactory.sol\":9910:9911  i */\n      dup3\n        /* \"contracts/LandRecordFactory.sol\":9905:9912  bStr[i] */\n      dup2\n      mload\n      dup2\n      lt\n      iszero\n      iszero\n      tag_199\n      jumpi\n      invalid\n    tag_199:\n      swap1\n      0x20\n      add\n      add\n      mload\n      0x100000000000000000000000000000000000000000000000000000000000000\n      swap1\n      div\n      0x100000000000000000000000000000000000000000000000000000000000000\n      mul\n        /* \"contracts/LandRecordFactory.sol\":9905:9919  bStr[i] <= 122 */\n      not(0xffffffffffffffffffffffffffffffffffffffffffffffffffffffffffffff)\n      and\n      gt\n      iszero\n        /* \"contracts/LandRecordFactory.sol\":9885:9920  (bStr[i] >= 97) && (bStr[i] <= 122) */\n    tag_198:\n        /* \"contracts/LandRecordFactory.sol\":9881:10008  if ((bStr[i] >= 97) && (bStr[i] <= 122)) {... */\n      iszero\n      tag_200\n      jumpi\n        /* \"contracts/LandRecordFactory.sol\":9962:9964  32 */\n      0x20\n        /* \"contracts/LandRecordFactory.sol\":9951:9955  bStr */\n      dup4\n        /* \"contracts/LandRecordFactory.sol\":9956:9957  i */\n      dup3\n        /* \"contracts/LandRecordFactory.sol\":9951:9958  bStr[i] */\n      dup2\n      mload\n      dup2\n      lt\n      iszero\n      iszero\n      tag_201\n      jumpi\n      invalid\n    tag_201:\n      swap1\n      0x20\n      add\n      add\n      mload\n      0x100000000000000000000000000000000000000000000000000000000000000\n      swap1\n      div\n      0x100000000000000000000000000000000000000000000000000000000000000\n      mul\n        /* \"contracts/LandRecordFactory.sol\":9947:9959  int(bStr[i]) */\n      0x100000000000000000000000000000000000000000000000000000000000000\n      swap1\n      div\n        /* \"contracts/LandRecordFactory.sol\":9947:9964  int(bStr[i]) - 32 */\n      sub\n        /* \"contracts/LandRecordFactory.sol\":9940:9965  bytes1(int(bStr[i]) - 32) */\n      0x100000000000000000000000000000000000000000000000000000000000000\n      mul\n        /* \"contracts/LandRecordFactory.sol\":9928:9934  bUpper */\n      dup3\n        /* \"contracts/LandRecordFactory.sol\":9935:9936  i */\n      dup3\n        /* \"contracts/LandRecordFactory.sol\":9928:9937  bUpper[i] */\n      dup2\n      mload\n      dup2\n      lt\n      iszero\n      iszero\n      tag_202\n      jumpi\n      invalid\n    tag_202:\n      swap1\n      0x20\n      add\n      add\n        /* \"contracts/LandRecordFactory.sol\":9928:9965  bUpper[i] = bytes1(int(bStr[i]) - 32) */\n      swap1\n      not(0xffffffffffffffffffffffffffffffffffffffffffffffffffffffffffffff)\n      and\n      swap1\n      dup2\n      0x0\n      byte\n      swap1\n      mstore8\n      pop\n        /* \"contracts/LandRecordFactory.sol\":9881:10008  if ((bStr[i] >= 97) && (bStr[i] <= 122)) {... */\n      jump(tag_203)\n    tag_200:\n        /* \"contracts/LandRecordFactory.sol\":9995:9999  bStr */\n      dup3\n        /* \"contracts/LandRecordFactory.sol\":10000:10001  i */\n      dup2\n        /* \"contracts/LandRecordFactory.sol\":9995:10002  bStr[i] */\n      dup2\n      mload\n      dup2\n      lt\n      iszero\n      iszero\n      tag_204\n      jumpi\n      invalid\n    tag_204:\n      swap1\n      0x20\n      add\n      add\n      mload\n      0x100000000000000000000000000000000000000000000000000000000000000\n      swap1\n      div\n      0x100000000000000000000000000000000000000000000000000000000000000\n      mul\n        /* \"contracts/LandRecordFactory.sol\":9983:9989  bUpper */\n      dup3\n        /* \"contracts/LandRecordFactory.sol\":9990:9991  i */\n      dup3\n        /* \"contracts/LandRecordFactory.sol\":9983:9992  bUpper[i] */\n      dup2\n      mload\n      dup2\n      lt\n      iszero\n      iszero\n      tag_205\n      jumpi\n      invalid\n    tag_205:\n      swap1\n      0x20\n      add\n      add\n        /* \"contracts/LandRecordFactory.sol\":9983:10002  bUpper[i] = bStr[i] */\n      swap1\n      not(0xffffffffffffffffffffffffffffffffffffffffffffffffffffffffffffff)\n      and\n      swap1\n      dup2\n      0x0\n      byte\n      swap1\n      mstore8\n      pop\n        /* \"contracts/LandRecordFactory.sol\":9881:10008  if ((bStr[i] >= 97) && (bStr[i] <= 122)) {... */\n    tag_203:\n        /* \"contracts/LandRecordFactory.sol\":9871:9874  i++ */\n      dup1\n      dup1\n      0x1\n      add\n      swap2\n      pop\n      pop\n        /* \"contracts/LandRecordFactory.sol\":9837:10012  for (uint i = 0; i < bStr.length; i++) {... */\n      jump(tag_194)\n    tag_195:\n        /* \"contracts/LandRecordFactory.sol\":10029:10035  bUpper */\n      dup2\n        /* \"contracts/LandRecordFactory.sol\":10015:10036  return string(bUpper) */\n      swap4\n      pop\n        /* \"contracts/LandRecordFactory.sol\":9691:10040  function toUpper(string str) internal pure returns (string) {... */\n      pop\n      pop\n      pop\n      swap2\n      swap1\n      pop\n      jump\t// out\n        /* \"contracts/LandRecordFactory.sol\":9374:9681  function stringToBytes32(string memory source) internal pure returns (bytes32 result) {... */\n    tag_124:\n        /* \"contracts/LandRecordFactory.sol\":9444:9458  bytes32 result */\n      0x0\n        /* \"contracts/LandRecordFactory.sol\":9470:9502  bytes memory tempEmptyStringTest */\n      0x60\n        /* \"contracts/LandRecordFactory.sol\":9511:9517  source */\n      dup3\n        /* \"contracts/LandRecordFactory.sol\":9470:9518  bytes memory tempEmptyStringTest = bytes(source) */\n      swap1\n      pop\n        /* \"contracts/LandRecordFactory.sol\":9562:9563  0 */\n      0x0\n        /* \"contracts/LandRecordFactory.sol\":9532:9551  tempEmptyStringTest */\n      dup2\n        /* \"contracts/LandRecordFactory.sol\":9532:9558  tempEmptyStringTest.length */\n      mload\n        /* \"contracts/LandRecordFactory.sol\":9532:9563  tempEmptyStringTest.length == 0 */\n      eq\n        /* \"contracts/LandRecordFactory.sol\":9528:9600  if (tempEmptyStringTest.length == 0) {... */\n      iszero\n      tag_207\n      jumpi\n        /* \"contracts/LandRecordFactory.sol\":9586:9589  0x0 */\n      0x0\n        /* \"contracts/LandRecordFactory.sol\":9579:9589  return 0x0 */\n      0x1\n      mul\n      swap2\n      pop\n      jump(tag_206)\n        /* \"contracts/LandRecordFactory.sol\":9528:9600  if (tempEmptyStringTest.length == 0) {... */\n    tag_207:\n        /* \"contracts/LandRecordFactory.sol\":9661:9663  32 */\n      0x20\n        /* \"contracts/LandRecordFactory.sol\":9653:9659  source */\n      dup4\n        /* \"contracts/LandRecordFactory.sol\":9649:9664  add(source, 32) */\n      add\n        /* \"contracts/LandRecordFactory.sol\":9643:9665  mload(add(source, 32)) */\n      mload\n        /* \"contracts/LandRecordFactory.sol\":9633:9665  result := mload(add(source, 32)) */\n      swap2\n      pop\n        /* \"contracts/LandRecordFactory.sol\":9619:9675  {... */\n    tag_206:\n      pop\n      swap2\n      swap1\n      pop\n      jump\t// out\n        /* \"contracts/LandRecordFactory.sol\":63:10042  contract landRegistration {... */\n    tag_94:\n      dup3\n      dup1\n      sload\n      dup3\n      dup3\n      sstore\n      swap1\n      0x0\n      mstore\n      keccak256(0x0, 0x20)\n      swap1\n      0xf\n      add\n      0x10\n      swap1\n      div\n      dup2\n      add\n      swap3\n      dup3\n      iszero\n      tag_208\n      jumpi\n      swap2\n      0x20\n      mul\n      dup3\n      add\n      0x0\n    tag_209:\n      dup4\n      dup3\n      gt\n      iszero\n      tag_210\n      jumpi\n      dup4\n      mload\n      dup4\n      dup3\n      0x100\n      exp\n      dup2\n      sload\n      dup2\n      0xffff\n      mul\n      not\n      and\n      swap1\n      dup4\n      0xffff\n      and\n      mul\n      or\n      swap1\n      sstore\n      pop\n      swap3\n      0x20\n      add\n      swap3\n      0x2\n      add\n      0x20\n      dup2\n      0x1\n      add\n      div\n      swap3\n      dup4\n      add\n      swap3\n      0x1\n      sub\n      mul\n      jump(tag_209)\n    tag_210:\n      dup1\n      iszero\n      tag_211\n      jumpi\n      dup3\n      dup2\n      0x100\n      exp\n      dup2\n      sload\n      swap1\n      0xffff\n      mul\n      not\n      and\n      swap1\n      sstore\n      0x2\n      add\n      0x20\n      dup2\n      0x1\n      add\n      div\n      swap3\n      dup4\n      add\n      swap3\n      0x1\n      sub\n      mul\n      jump(tag_210)\n    tag_211:\n      pop\n    tag_208:\n      pop\n      swap1\n      pop\n      tag_212\n      swap2\n      swap1\n      jump\t// in(tag_213)\n    tag_212:\n      pop\n      swap1\n      jump\t// out\n    tag_96:\n      dup3\n      dup1\n      sload\n      dup3\n      dup3\n      sstore\n      swap1\n      0x0\n      mstore\n      keccak256(0x0, 0x20)\n      swap1\n      dup2\n      add\n      swap3\n      dup3\n      iszero\n      tag_214\n      jumpi\n      swap2\n      0x20\n      mul\n      dup3\n      add\n    tag_215:\n      dup3\n      dup2\n      gt\n      iszero\n      tag_216\n      jumpi\n      dup3\n      mload\n      dup3\n      sstore\n      swap2\n      0x20\n      add\n      swap2\n      swap1\n      0x1\n      add\n      swap1\n      jump(tag_215)\n    tag_216:\n    tag_214:\n      pop\n      swap1\n      pop\n      tag_217\n      swap2\n      swap1\n      jump\t// in(tag_218)\n    tag_217:\n      pop\n      swap1\n      jump\t// out\n    tag_213:\n      tag_219\n      swap2\n      swap1\n    tag_220:\n      dup1\n      dup3\n      gt\n      iszero\n      tag_221\n      jumpi\n      0x0\n      dup2\n      dup2\n      0x100\n      exp\n      dup2\n      sload\n      swap1\n      0xffff\n      mul\n      not\n      and\n      swap1\n      sstore\n      pop\n      0x1\n      add\n      jump(tag_220)\n    tag_221:\n      pop\n      swap1\n      jump\n    tag_219:\n      swap1\n      jump\t// out\n    tag_218:\n      tag_222\n      swap2\n      swap1\n    tag_223:\n      dup1\n      dup3\n      gt\n      iszero\n      tag_224\n      jumpi\n      0x0\n      dup2\n      0x0\n      swap1\n      sstore\n      pop\n      0x1\n      add\n      jump(tag_223)\n    tag_224:\n      pop\n      swap1\n      jump\n    tag_222:\n      swap1\n      jump\t// out\n\n    auxdata: 0xa165627a7a72305820b6faf470d1c03e26f3404d5ce41e0872587e80f0228253dee80bd6ff77fa75ed0029\n}\n",
				"bytecode": {
					"linkReferences": {},
					"object": "608060405234801561001057600080fd5b5033600760006101000a81548173ffffffffffffffffffffffffffffffffffffffff021916908373ffffffffffffffffffffffffffffffffffffffff160217905550612deb806100616000396000f3006080604052600436106100db576000357c0100000000000000000000000000000000000000000000000000000000900463ffffffff1680630c6f421e146100e05780630d590f3e146101c7578063209a731c146101f257806343308949146103205780635cb99c03146103b657806361b694781461055c57806364a66dc314610635578063688f86fa146106be5780636d8c5df1146106f95780638c8570981461073a57806395d5712c14610783578063bd3635251461082c578063ebde420714610857578063effdc6f8146109f1578063f87b771a14610a3a575b600080fd5b3480156100ec57600080fd5b506101c5600480360381019080803567ffffffffffffffff1690602001909291908035600019169060200190929190803561ffff16906020019092919080356000191690602001909291908035906020019082018035906020019080806020026020016040519081016040528093929190818152602001838360200280828437820191505050505050919291929080359060200190820180359060200190808060200260200160405190810160405280939291908181526020018383602002808284378201915050505050509192919290505050610a65565b005b3480156101d357600080fd5b506101dc611282565b6040518082815260200191505060405180910390f35b3480156101fe57600080fd5b5061031e600480360381019080803590602001908201803590602001908080601f0160208091040260200160405190810160405280939291908181526020018383808284378201915050505050509192919290803590602001908201803590602001908080601f0160208091040260200160405190810160405280939291908181526020018383808284378201915050505050509192919290803590602001908201803590602001908080601f0160208091040260200160405190810160405280939291908181526020018383808284378201915050505050509192919290803561ffff169060200190929190803561ffff169060200190929190803560ff169060200190929190803563ffffffff16906020019092919050505061128f565b005b34801561032c57600080fd5b5061034b60048036038101908080359060200190929190505050611821565b6040518087600019166000191681526020018660001916600019168152602001856000191660001916815260200184600019166000191681526020018362ffffff1662ffffff1681526020018260001916600019168152602001965050505050505060405180910390f35b3480156103c257600080fd5b506103e56004803603810190808035600019169060200190929190505050611977565b604051808967ffffffffffffffff1667ffffffffffffffff16815260200188600019166000191681526020018761ffff1661ffff168152602001866000191660001916815260200180602001806020018060200180602001858103855289818151815260200191508051906020019060200280838360005b8381101561047857808201518184015260208101905061045d565b50505050905001858103845288818151815260200191508051906020019060200280838360005b838110156104ba57808201518184015260208101905061049f565b50505050905001858103835287818151815260200191508051906020019060200280838360005b838110156104fc5780820151818401526020810190506104e1565b50505050905001858103825286818151815260200191508051906020019060200280838360005b8381101561053e578082015181840152602081019050610523565b505050509050019c5050505050505050505050505060405180910390f35b34801561056857600080fd5b50610633600480360381019080803567ffffffffffffffff1690602001909291908035600019169060200190929190803561ffff1690602001909291908035906020019082018035906020019080806020026020016040519081016040528093929190818152602001838360200280828437820191505050505050919291929080359060200190820180359060200190808060200260200160405190810160405280939291908181526020018383602002808284378201915050505050509192919290505050611ceb565b005b34801561064157600080fd5b5061066060048036038101908080359060200190929190505050612291565b6040518083815260200180602001828103825283818151815260200191508051906020019060200280838360005b838110156106a957808201518184015260208101905061068e565b50505050905001935050505060405180910390f35b3480156106ca57600080fd5b506106f760048036038101908080359060200190929190803560001916906020019092919050505061231c565b005b34801561070557600080fd5b506107246004803603810190808035906020019092919050505061238a565b6040518082815260200191505060405180910390f35b34801561074657600080fd5b50610765600480360381019080803590602001909291905050506123ad565b60405180826000191660001916815260200191505060405180910390f35b34801561078f57600080fd5b506107b260048036038101908080356000191690602001909291905050506123d0565b604051808860001916600019168152602001876000191660001916815260200186600019166000191681526020018561ffff1661ffff1681526020018461ffff1661ffff1681526020018360ff1660ff1681526020018263ffffffff1663ffffffff16815260200197505050505050505060405180910390f35b34801561083857600080fd5b506108416125ad565b6040518082815260200191505060405180910390f35b34801561086357600080fd5b506109ef600480360381019080803590602001908201803590602001908080601f0160208091040260200160405190810160405280939291908181526020018383808284378201915050505050509192919290803590602001908201803590602001908080601f0160208091040260200160405190810160405280939291908181526020018383808284378201915050505050509192919290803590602001908201803590602001908080601f0160208091040260200160405190810160405280939291908181526020018383808284378201915050505050509192919290803590602001908201803590602001908080601f0160208091040260200160405190810160405280939291908181526020018383808284378201915050505050509192919290803562ffffff169060200190929190803590602001908201803590602001908080601f0160208091040260200160405190810160405280939291908181526020018383808284378201915050505050509192919290803590602001909291905050506125ba565b005b3480156109fd57600080fd5b50610a1c600480360381019080803590602001909291905050506128e5565b60405180826000191660001916815260200191505060405180910390f35b348015610a4657600080fd5b50610a4f612908565b6040518082815260200191505060405180910390f35b6000806000600760009054906101000a900473ffffffffffffffffffffffffffffffffffffffff1673ffffffffffffffffffffffffffffffffffffffff163373ffffffffffffffffffffffffffffffffffffffff16141515610b2f576040517f08c379a00000000000000000000000000000000000000000000000000000000081526004018080602001828103825260188152602001807f53656e646572206973206e6f7420617574686f72697a6564000000000000000081525060200191505060405180910390fd5b60011515600360008a6000191660001916815260200190815260200160002060030160099054906101000a900460ff161515141515610bd6576040517f08c379a00000000000000000000000000000000000000000000000000000000081526004018080602001828103825260128152602001807f506c6f7420646f65736e2774206578697374000000000000000000000000000081525060200191505060405180910390fd5b8888604051602001808367ffffffffffffffff1667ffffffffffffffff1678010000000000000000000000000000000000000000000000000281526008018260001916600019168152602001925050506040516020818303038152906040526040518082805190602001908083835b602083101515610c6a5780518252602082019150602081019050602083039250610c45565b6001836020036101000a038019825116818451168082178552505050505050905001915050604051809103902092506001151560056000856000191660001916815260200190815260200160002060080160009054906101000a900460ff16151514151515610d41576040517f08c379a00000000000000000000000000000000000000000000000000000000081526004018080602001828103825260168152602001807f4b68617469616e20616c7265616479206578697374730000000000000000000081525060200191505060405180910390fd5b60056000876000191660001916815260200190815260200160002060080160009054906101000a900460ff161515610de1576040517f08c379a000000000000000000000000000000000000000000000000000000000815260040180806020018281038252601e8152602001807f70726576696f7573204b68617469616e20646f65736e2774206578697374000081525060200191505060405180910390fd5b8661ffff1660056000886000191660001916815260200190815260200160002060020160009054906101000a900461ffff1661ffff1610151515610e8d576040517f08c379a00000000000000000000000000000000000000000000000000000000081526004018080602001828103825260178152602001807f4e6f7420656e6f756768206c616e6420746f2073656c6c00000000000000000081525060200191505060405180910390fd5b600091505b8451821015610f5e5760011515600160008785815181101515610eb157fe5b90602001906020020151815260200190815260200160002060060160009054906101000a900460ff161515141515610f51576040517f08c379a00000000000000000000000000000000000000000000000000000000081526004018080602001828103825260188152602001807f557365722773204e494420646f65736e2774206578697374000000000000000081525060200191505060405180910390fd5b8180600101925050610e92565b60056000876000191660001916815260200190815260200160002060040183908060018154018082558091505090600182039060005260206000200160009091929091909150906000191690555060056000876000191660001916815260200190815260200160002060050187908060018154018082558091505090600182039060005260206000209060109182820401919006600202909192909190916101000a81548161ffff021916908361ffff160217905550508660056000886000191660001916815260200190815260200160002060020160008282829054906101000a900461ffff160392506101000a81548161ffff021916908361ffff1602179055508560056000856000191660001916815260200190815260200160002060030181600019169055508860056000856000191660001916815260200190815260200160002060000160006101000a81548167ffffffffffffffff021916908367ffffffffffffffff1602179055508760056000856000191660001916815260200190815260200160002060010181600019169055508660056000856000191660001916815260200190815260200160002060020160006101000a81548161ffff021916908361ffff160217905550600160056000856000191660001916815260200190815260200160002060080160006101000a81548160ff021916908315150217905550836005600085600019166000191681526020019081526020016000206007019080519060200190611196929190612c72565b508460056000856000191660001916815260200190815260200160002060060190805190602001906111c9929190612d1c565b50600090505b8451811015611206576111f985828151811015156111e957fe5b906020019060200201518461231c565b80806001019150506111cf565b60068390806001815401808255809150509060018203906000526020600020016000909192909190915090600019169055507f1235df36d9864c1784ca3d5ad4397d04e3980ecf0ff7a703258c3fb6d4abf8ad8360405180826000191660001916815260200191505060405180910390a1505050505050505050565b6000600480549050905090565b6000600760009054906101000a900473ffffffffffffffffffffffffffffffffffffffff1673ffffffffffffffffffffffffffffffffffffffff163373ffffffffffffffffffffffffffffffffffffffff16141515611356576040517f08c379a00000000000000000000000000000000000000000000000000000000081526004018080602001828103825260168152602001807f596f7520617265206e6f7420617574686f72697a65640000000000000000000081525060200191505060405180910390fd5b61135f88612915565b975061136a87612915565b965061137586612915565b955087878787876040516020018086805190602001908083835b6020831015156113b4578051825260208201915060208101905060208303925061138f565b6001836020036101000a03801982511681845116808217855250505050505090500185805190602001908083835b60208310151561140757805182526020820191506020810190506020830392506113e2565b6001836020036101000a03801982511681845116808217855250505050505090500184805190602001908083835b60208310151561145a5780518252602082019150602081019050602083039250611435565b6001836020036101000a0380198251168184511680821785525050505050509050018361ffff1661ffff167e010000000000000000000000000000000000000000000000000000000000000281526002018261ffff1661ffff167e01000000000000000000000000000000000000000000000000000000000000028152600201955050505050506040516020818303038152906040526040518082805190602001908083835b6020831015156115255780518252602082019150602081019050602083039250611500565b6001836020036101000a038019825116818451168082178552505050505050905001915050604051809103902090506001151560036000836000191660001916815260200190815260200160002060030160099054906101000a900460ff161515141515156115fc576040517f08c379a00000000000000000000000000000000000000000000000000000000081526004018080602001828103825260138152602001807f506c6f7420616c7265616479206578736974730000000000000000000000000081525060200191505060405180910390fd5b61160588612c47565b600360008360001916600019168152602001908152602001600020600001816000191690555061163487612c47565b600360008360001916600019168152602001908152602001600020600101816000191690555061166386612c47565b60036000836000191660001916815260200190815260200160002060020181600019169055508460036000836000191660001916815260200190815260200160002060030160006101000a81548161ffff021916908361ffff1602179055508360036000836000191660001916815260200190815260200160002060030160026101000a81548161ffff021916908361ffff1602179055508260036000836000191660001916815260200190815260200160002060030160046101000a81548160ff021916908360ff1602179055508160036000836000191660001916815260200190815260200160002060030160056101000a81548163ffffffff021916908363ffffffff160217905550600160036000836000191660001916815260200190815260200160002060030160096101000a81548160ff02191690831515021790555060048190806001815401808255809150509060018203906000526020600020016000909192909190915090600019169055507fc5d3bd04a5b7305cd8edf1efc2070b49098f7e9ee3e642280285add33aa0b7828160405180826000191660001916815260200191505060405180910390a15050505050505050565b600080600080600080600115156001600089815260200190815260200160002060060160009054906101000a900460ff1615151415156118c9576040517f08c379a00000000000000000000000000000000000000000000000000000000081526004018080602001828103825260128152602001807f5573657220446f65736e2774206578697374000000000000000000000000000081525060200191505060405180910390fd5b600160008881526020019081526020016000206000015495506001600088815260200190815260200160002060010154945060016000888152602001908152602001600020600201549350600160008881526020019081526020016000206003015492506001600088815260200190815260200160002060040160009054906101000a900462ffffff1691506001600088815260200190815260200160002060050154905091939550919395565b60008060008060608060608060011515600560008b6000191660001916815260200190815260200160002060080160009054906101000a900460ff161515141515611a2a576040517f08c379a00000000000000000000000000000000000000000000000000000000081526004018080602001828103825260158152602001807f4b68617469616e20646f65736e2774206578697374000000000000000000000081525060200191505060405180910390fd5b600560008a6000191660001916815260200190815260200160002060000160009054906101000a900467ffffffffffffffff169750600560008a60001916600019168152602001908152602001600020600101549650600560008a6000191660001916815260200190815260200160002060020160009054906101000a900461ffff169550600560008a60001916600019168152602001908152602001600020600301549450600560008a60001916600019168152602001908152602001600020600401805480602002602001604051908101604052809291908181526020018280548015611b3c57602002820191906000526020600020905b81546000191681526020019060010190808311611b24575b50505050509350600560008a60001916600019168152602001908152602001600020600501805480602002602001604051908101604052809291908181526020018280548015611bd357602002820191906000526020600020906000905b82829054906101000a900461ffff1661ffff1681526020019060020190602082600101049283019260010382029150808411611b9a5790505b50505050509250600560008a60001916600019168152602001908152602001600020600601805480602002602001604051908101604052809291908181526020018280548015611c4257602002820191906000526020600020905b815481526020019060010190808311611c2e575b50505050509150600560008a60001916600019168152602001908152602001600020600701805480602002602001604051908101604052809291908181526020018280548015611cd957602002820191906000526020600020906000905b82829054906101000a900461ffff1661ffff1681526020019060020190602082600101049283019260010382029150808411611ca05790505b50505050509050919395975091939597565b6000806000600760009054906101000a900473ffffffffffffffffffffffffffffffffffffffff1673ffffffffffffffffffffffffffffffffffffffff163373ffffffffffffffffffffffffffffffffffffffff16141515611db5576040517f08c379a00000000000000000000000000000000000000000000000000000000081526004018080602001828103825260188152602001807f53656e646572206973206e6f7420617574686f72697a6564000000000000000081525060200191505060405180910390fd5b6001151560036000896000191660001916815260200190815260200160002060030160099054906101000a900460ff161515141515611e5c576040517f08c379a00000000000000000000000000000000000000000000000000000000081526004018080602001828103825260128152602001807f506c6f7420646f65736e2774206578697374000000000000000000000000000081525060200191505060405180910390fd5b8787604051602001808367ffffffffffffffff1667ffffffffffffffff1678010000000000000000000000000000000000000000000000000281526008018260001916600019168152602001925050506040516020818303038152906040526040518082805190602001908083835b602083101515611ef05780518252602082019150602081019050602083039250611ecb565b6001836020036101000a038019825116818451168082178552505050505050905001915050604051809103902092506001151560056000856000191660001916815260200190815260200160002060080160009054906101000a900460ff16151514151515611fc7576040517f08c379a00000000000000000000000000000000000000000000000000000000081526004018080602001828103825260168152602001807f4b68617469616e20616c7265616479206578697374730000000000000000000081525060200191505060405180910390fd5b600091505b84518210156120985760011515600160008785815181101515611feb57fe5b90602001906020020151815260200190815260200160002060060160009054906101000a900460ff16151514151561208b576040517f08c379a00000000000000000000000000000000000000000000000000000000081526004018080602001828103825260188152602001807f557365722773204e494420646f65736e2774206578697374000000000000000081525060200191505060405180910390fd5b8180600101925050611fcc565b8760056000856000191660001916815260200190815260200160002060000160006101000a81548167ffffffffffffffff021916908367ffffffffffffffff1602179055508660056000856000191660001916815260200190815260200160002060010181600019169055508560056000856000191660001916815260200190815260200160002060020160006101000a81548161ffff021916908361ffff160217905550600160056000856000191660001916815260200190815260200160002060080160006101000a81548160ff0219169083151502179055508360056000856000191660001916815260200190815260200160002060070190805190602001906121a6929190612c72565b508460056000856000191660001916815260200190815260200160002060060190805190602001906121d9929190612d1c565b50600090505b84518110156122165761220985828151811015156121f957fe5b906020019060200201518461231c565b80806001019150506121df565b60068390806001815401808255809150509060018203906000526020600020016000909192909190915090600019169055507f1235df36d9864c1784ca3d5ad4397d04e3980ecf0ff7a703258c3fb6d4abf8ad8360405180826000191660001916815260200191505060405180910390a15050505050505050565b6000606060008084815260200190815260200160002060000154915060008084815260200190815260200160002060010180548060200260200160405190810160405280929190818152602001828054801561231057602002820191906000526020600020905b815460001916815260200190600101908083116122f8575b50505050509050915091565b600080838152602001908152602001600020600001600081548092919060010191905055506000808381526020019081526020016000206001018190806001815401808255809150509060018203906000526020600020016000909192909190915090600019169055505050565b600060028281548110151561239b57fe5b90600052602060002001549050919050565b60006006828154811015156123be57fe5b90600052602060002001549050919050565b600080600080600080600060011515600360008a6000191660001916815260200190815260200160002060030160099054906101000a900460ff161515141515612482576040517f08c379a00000000000000000000000000000000000000000000000000000000081526004018080602001828103825260128152602001807f506c6f7420646f65736e2774206578697374000000000000000000000000000081525060200191505060405180910390fd5b60036000896000191660001916815260200190815260200160002060000154965060036000896000191660001916815260200190815260200160002060010154955060036000896000191660001916815260200190815260200160002060020154945060036000896000191660001916815260200190815260200160002060030160009054906101000a900461ffff16935060036000896000191660001916815260200190815260200160002060030160029054906101000a900461ffff16925060036000896000191660001916815260200190815260200160002060030160049054906101000a900460ff16915060036000896000191660001916815260200190815260200160002060030160059054906101000a900463ffffffff169050919395979092949650565b6000600680549050905090565b600760009054906101000a900473ffffffffffffffffffffffffffffffffffffffff1673ffffffffffffffffffffffffffffffffffffffff163373ffffffffffffffffffffffffffffffffffffffff1614151561267f576040517f08c379a00000000000000000000000000000000000000000000000000000000081526004018080602001828103825260168152602001807f596f7520617265206e6f7420617574686f72697a65640000000000000000000081525060200191505060405180910390fd5b61268887612915565b965061269386612915565b955061269e85612915565b94506126a984612915565b93506126b482612915565b9150600015156001600083815260200190815260200160002060060160009054906101000a900460ff161515141515612755576040517f08c379a00000000000000000000000000000000000000000000000000000000081526004018080602001828103825260128152602001807f5573657220616c7265616479206578697374000000000000000000000000000081525060200191505060405180910390fd5b61275e87612c47565b60016000838152602001908152602001600020600001816000191690555061278586612c47565b6001600083815260200190815260200160002060010181600019169055506127ac85612c47565b6001600083815260200190815260200160002060020181600019169055506127d384612c47565b600160008381526020019081526020016000206003018160001916905550826001600083815260200190815260200160002060040160006101000a81548162ffffff021916908362ffffff16021790555061282d82612c47565b600160008381526020019081526020016000206005018160001916905550600180600083815260200190815260200160002060060160006101000a81548160ff02191690831515021790555060028190806001815401808255809150509060018203906000526020600020016000909192909190915055507f535c24547b8a1cfa77510748c335f9ab25a87caebe01c8b706c21cc4585787db816040518082815260200191505060405180910390a150505050505050565b60006004828154811015156128f657fe5b90600052602060002001549050919050565b6000600280549050905090565b6060806060600084925082516040519080825280601f01601f1916602001820160405280156129535781602001602082028038833980820191505090505b509150600090505b8251811015612c3c5760617f010000000000000000000000000000000000000000000000000000000000000002838281518110151561299657fe5b9060200101517f010000000000000000000000000000000000000000000000000000000000000090047f0100000000000000000000000000000000000000000000000000000000000000027effffffffffffffffffffffffffffffffffffffffffffffffffffffffffffff191610158015612aae5750607a7f0100000000000000000000000000000000000000000000000000000000000000028382815181101515612a3e57fe5b9060200101517f010000000000000000000000000000000000000000000000000000000000000090047f0100000000000000000000000000000000000000000000000000000000000000027effffffffffffffffffffffffffffffffffffffffffffffffffffffffffffff191611155b15612b975760208382815181101515612ac357fe5b9060200101517f010000000000000000000000000000000000000000000000000000000000000090047f0100000000000000000000000000000000000000000000000000000000000000027f01000000000000000000000000000000000000000000000000000000000000009004037f0100000000000000000000000000000000000000000000000000000000000000028282815181101515612b6257fe5b9060200101907effffffffffffffffffffffffffffffffffffffffffffffffffffffffffffff1916908160001a905350612c2f565b8281815181101515612ba557fe5b9060200101517f010000000000000000000000000000000000000000000000000000000000000090047f0100000000000000000000000000000000000000000000000000000000000000028282815181101515612bfe57fe5b9060200101907effffffffffffffffffffffffffffffffffffffffffffffffffffffffffffff1916908160001a9053505b808060010191505061295b565b819350505050919050565b60006060829050600081511415612c645760006001029150612c6c565b602083015191505b50919050565b82805482825590600052602060002090600f01601090048101928215612d0b5791602002820160005b83821115612cdb57835183826101000a81548161ffff021916908361ffff1602179055509260200192600201602081600101049283019260010302612c9b565b8015612d095782816101000a81549061ffff0219169055600201602081600101049283019260010302612cdb565b505b509050612d189190612d69565b5090565b828054828255906000526020600020908101928215612d58579160200282015b82811115612d57578251825591602001919060010190612d3c565b5b509050612d659190612d9a565b5090565b612d9791905b80821115612d9357600081816101000a81549061ffff021916905550600101612d6f565b5090565b90565b612dbc91905b80821115612db8576000816000905550600101612da0565b5090565b905600a165627a7a72305820b6faf470d1c03e26f3404d5ce41e0872587e80f0228253dee80bd6ff77fa75ed0029",
					"opcodes": "PUSH1 0x80 PUSH1 0x40 MSTORE CALLVALUE DUP1 ISZERO PUSH2 0x10 JUMPI PUSH1 0x0 DUP1 REVERT JUMPDEST POP CALLER PUSH1 0x7 PUSH1 0x0 PUSH2 0x100 EXP DUP2 SLOAD DUP2 PUSH20 0xFFFFFFFFFFFFFFFFFFFFFFFFFFFFFFFFFFFFFFFF MUL NOT AND SWAP1 DUP4 PUSH20 0xFFFFFFFFFFFFFFFFFFFFFFFFFFFFFFFFFFFFFFFF AND MUL OR SWAP1 SSTORE POP PUSH2 0x2DEB DUP1 PUSH2 0x61 PUSH1 0x0 CODECOPY PUSH1 0x0 RETURN STOP PUSH1 0x80 PUSH1 0x40 MSTORE PUSH1 0x4 CALLDATASIZE LT PUSH2 0xDB JUMPI PUSH1 0x0 CALLDATALOAD PUSH29 0x100000000000000000000000000000000000000000000000000000000 SWAP1 DIV PUSH4 0xFFFFFFFF AND DUP1 PUSH4 0xC6F421E EQ PUSH2 0xE0 JUMPI DUP1 PUSH4 0xD590F3E EQ PUSH2 0x1C7 JUMPI DUP1 PUSH4 0x209A731C EQ PUSH2 0x1F2 JUMPI DUP1 PUSH4 0x43308949 EQ PUSH2 0x320 JUMPI DUP1 PUSH4 0x5CB99C03 EQ PUSH2 0x3B6 JUMPI DUP1 PUSH4 0x61B69478 EQ PUSH2 0x55C JUMPI DUP1 PUSH4 0x64A66DC3 EQ PUSH2 0x635 JUMPI DUP1 PUSH4 0x688F86FA EQ PUSH2 0x6BE JUMPI DUP1 PUSH4 0x6D8C5DF1 EQ PUSH2 0x6F9 JUMPI DUP1 PUSH4 0x8C857098 EQ PUSH2 0x73A JUMPI DUP1 PUSH4 0x95D5712C EQ PUSH2 0x783 JUMPI DUP1 PUSH4 0xBD363525 EQ PUSH2 0x82C JUMPI DUP1 PUSH4 0xEBDE4207 EQ PUSH2 0x857 JUMPI DUP1 PUSH4 0xEFFDC6F8 EQ PUSH2 0x9F1 JUMPI DUP1 PUSH4 0xF87B771A EQ PUSH2 0xA3A JUMPI JUMPDEST PUSH1 0x0 DUP1 REVERT JUMPDEST CALLVALUE DUP1 ISZERO PUSH2 0xEC JUMPI PUSH1 0x0 DUP1 REVERT JUMPDEST POP PUSH2 0x1C5 PUSH1 0x4 DUP1 CALLDATASIZE SUB DUP2 ADD SWAP1 DUP1 DUP1 CALLDATALOAD PUSH8 0xFFFFFFFFFFFFFFFF AND SWAP1 PUSH1 0x20 ADD SWAP1 SWAP3 SWAP2 SWAP1 DUP1 CALLDATALOAD PUSH1 0x0 NOT AND SWAP1 PUSH1 0x20 ADD SWAP1 SWAP3 SWAP2 SWAP1 DUP1 CALLDATALOAD PUSH2 0xFFFF AND SWAP1 PUSH1 0x20 ADD SWAP1 SWAP3 SWAP2 SWAP1 DUP1 CALLDATALOAD PUSH1 0x0 NOT AND SWAP1 PUSH1 0x20 ADD SWAP1 SWAP3 SWAP2 SWAP1 DUP1 CALLDATALOAD SWAP1 PUSH1 0x20 ADD SWAP1 DUP3 ADD DUP1 CALLDATALOAD SWAP1 PUSH1 0x20 ADD SWAP1 DUP1 DUP1 PUSH1 0x20 MUL PUSH1 0x20 ADD PUSH1 0x40 MLOAD SWAP1 DUP2 ADD PUSH1 0x40 MSTORE DUP1 SWAP4 SWAP3 SWAP2 SWAP1 DUP2 DUP2 MSTORE PUSH1 0x20 ADD DUP4 DUP4 PUSH1 0x20 MUL DUP1 DUP3 DUP5 CALLDATACOPY DUP3 ADD SWAP2 POP POP POP POP POP POP SWAP2 SWAP3 SWAP2 SWAP3 SWAP1 DUP1 CALLDATALOAD SWAP1 PUSH1 0x20 ADD SWAP1 DUP3 ADD DUP1 CALLDATALOAD SWAP1 PUSH1 0x20 ADD SWAP1 DUP1 DUP1 PUSH1 0x20 MUL PUSH1 0x20 ADD PUSH1 0x40 MLOAD SWAP1 DUP2 ADD PUSH1 0x40 MSTORE DUP1 SWAP4 SWAP3 SWAP2 SWAP1 DUP2 DUP2 MSTORE PUSH1 0x20 ADD DUP4 DUP4 PUSH1 0x20 MUL DUP1 DUP3 DUP5 CALLDATACOPY DUP3 ADD SWAP2 POP POP POP POP POP POP SWAP2 SWAP3 SWAP2 SWAP3 SWAP1 POP POP POP PUSH2 0xA65 JUMP JUMPDEST STOP JUMPDEST CALLVALUE DUP1 ISZERO PUSH2 0x1D3 JUMPI PUSH1 0x0 DUP1 REVERT JUMPDEST POP PUSH2 0x1DC PUSH2 0x1282 JUMP JUMPDEST PUSH1 0x40 MLOAD DUP1 DUP3 DUP2 MSTORE PUSH1 0x20 ADD SWAP2 POP POP PUSH1 0x40 MLOAD DUP1 SWAP2 SUB SWAP1 RETURN JUMPDEST CALLVALUE DUP1 ISZERO PUSH2 0x1FE JUMPI PUSH1 0x0 DUP1 REVERT JUMPDEST POP PUSH2 0x31E PUSH1 0x4 DUP1 CALLDATASIZE SUB DUP2 ADD SWAP1 DUP1 DUP1 CALLDATALOAD SWAP1 PUSH1 0x20 ADD SWAP1 DUP3 ADD DUP1 CALLDATALOAD SWAP1 PUSH1 0x20 ADD SWAP1 DUP1 DUP1 PUSH1 0x1F ADD PUSH1 0x20 DUP1 SWAP2 DIV MUL PUSH1 0x20 ADD PUSH1 0x40 MLOAD SWAP1 DUP2 ADD PUSH1 0x40 MSTORE DUP1 SWAP4 SWAP3 SWAP2 SWAP1 DUP2 DUP2 MSTORE PUSH1 0x20 ADD DUP4 DUP4 DUP1 DUP3 DUP5 CALLDATACOPY DUP3 ADD SWAP2 POP POP POP POP POP POP SWAP2 SWAP3 SWAP2 SWAP3 SWAP1 DUP1 CALLDATALOAD SWAP1 PUSH1 0x20 ADD SWAP1 DUP3 ADD DUP1 CALLDATALOAD SWAP1 PUSH1 0x20 ADD SWAP1 DUP1 DUP1 PUSH1 0x1F ADD PUSH1 0x20 DUP1 SWAP2 DIV MUL PUSH1 0x20 ADD PUSH1 0x40 MLOAD SWAP1 DUP2 ADD PUSH1 0x40 MSTORE DUP1 SWAP4 SWAP3 SWAP2 SWAP1 DUP2 DUP2 MSTORE PUSH1 0x20 ADD DUP4 DUP4 DUP1 DUP3 DUP5 CALLDATACOPY DUP3 ADD SWAP2 POP POP POP POP POP POP SWAP2 SWAP3 SWAP2 SWAP3 SWAP1 DUP1 CALLDATALOAD SWAP1 PUSH1 0x20 ADD SWAP1 DUP3 ADD DUP1 CALLDATALOAD SWAP1 PUSH1 0x20 ADD SWAP1 DUP1 DUP1 PUSH1 0x1F ADD PUSH1 0x20 DUP1 SWAP2 DIV MUL PUSH1 0x20 ADD PUSH1 0x40 MLOAD SWAP1 DUP2 ADD PUSH1 0x40 MSTORE DUP1 SWAP4 SWAP3 SWAP2 SWAP1 DUP2 DUP2 MSTORE PUSH1 0x20 ADD DUP4 DUP4 DUP1 DUP3 DUP5 CALLDATACOPY DUP3 ADD SWAP2 POP POP POP POP POP POP SWAP2 SWAP3 SWAP2 SWAP3 SWAP1 DUP1 CALLDATALOAD PUSH2 0xFFFF AND SWAP1 PUSH1 0x20 ADD SWAP1 SWAP3 SWAP2 SWAP1 DUP1 CALLDATALOAD PUSH2 0xFFFF AND SWAP1 PUSH1 0x20 ADD SWAP1 SWAP3 SWAP2 SWAP1 DUP1 CALLDATALOAD PUSH1 0xFF AND SWAP1 PUSH1 0x20 ADD SWAP1 SWAP3 SWAP2 SWAP1 DUP1 CALLDATALOAD PUSH4 0xFFFFFFFF AND SWAP1 PUSH1 0x20 ADD SWAP1 SWAP3 SWAP2 SWAP1 POP POP POP PUSH2 0x128F JUMP JUMPDEST STOP JUMPDEST CALLVALUE DUP1 ISZERO PUSH2 0x32C JUMPI PUSH1 0x0 DUP1 REVERT JUMPDEST POP PUSH2 0x34B PUSH1 0x4 DUP1 CALLDATASIZE SUB DUP2 ADD SWAP1 DUP1 DUP1 CALLDATALOAD SWAP1 PUSH1 0x20 ADD SWAP1 SWAP3 SWAP2 SWAP1 POP POP POP PUSH2 0x1821 JUMP JUMPDEST PUSH1 0x40 MLOAD DUP1 DUP8 PUSH1 0x0 NOT AND PUSH1 0x0 NOT AND DUP2 MSTORE PUSH1 0x20 ADD DUP7 PUSH1 0x0 NOT AND PUSH1 0x0 NOT AND DUP2 MSTORE PUSH1 0x20 ADD DUP6 PUSH1 0x0 NOT AND PUSH1 0x0 NOT AND DUP2 MSTORE PUSH1 0x20 ADD DUP5 PUSH1 0x0 NOT AND PUSH1 0x0 NOT AND DUP2 MSTORE PUSH1 0x20 ADD DUP4 PUSH3 0xFFFFFF AND PUSH3 0xFFFFFF AND DUP2 MSTORE PUSH1 0x20 ADD DUP3 PUSH1 0x0 NOT AND PUSH1 0x0 NOT AND DUP2 MSTORE PUSH1 0x20 ADD SWAP7 POP POP POP POP POP POP POP PUSH1 0x40 MLOAD DUP1 SWAP2 SUB SWAP1 RETURN JUMPDEST CALLVALUE DUP1 ISZERO PUSH2 0x3C2 JUMPI PUSH1 0x0 DUP1 REVERT JUMPDEST POP PUSH2 0x3E5 PUSH1 0x4 DUP1 CALLDATASIZE SUB DUP2 ADD SWAP1 DUP1 DUP1 CALLDATALOAD PUSH1 0x0 NOT AND SWAP1 PUSH1 0x20 ADD SWAP1 SWAP3 SWAP2 SWAP1 POP POP POP PUSH2 0x1977 JUMP JUMPDEST PUSH1 0x40 MLOAD DUP1 DUP10 PUSH8 0xFFFFFFFFFFFFFFFF AND PUSH8 0xFFFFFFFFFFFFFFFF AND DUP2 MSTORE PUSH1 0x20 ADD DUP9 PUSH1 0x0 NOT AND PUSH1 0x0 NOT AND DUP2 MSTORE PUSH1 0x20 ADD DUP8 PUSH2 0xFFFF AND PUSH2 0xFFFF AND DUP2 MSTORE PUSH1 0x20 ADD DUP7 PUSH1 0x0 NOT AND PUSH1 0x0 NOT AND DUP2 MSTORE PUSH1 0x20 ADD DUP1 PUSH1 0x20 ADD DUP1 PUSH1 0x20 ADD DUP1 PUSH1 0x20 ADD DUP1 PUSH1 0x20 ADD DUP6 DUP2 SUB DUP6 MSTORE DUP10 DUP2 DUP2 MLOAD DUP2 MSTORE PUSH1 0x20 ADD SWAP2 POP DUP1 MLOAD SWAP1 PUSH1 0x20 ADD SWAP1 PUSH1 0x20 MUL DUP1 DUP4 DUP4 PUSH1 0x0 JUMPDEST DUP4 DUP2 LT ISZERO PUSH2 0x478 JUMPI DUP1 DUP3 ADD MLOAD DUP2 DUP5 ADD MSTORE PUSH1 0x20 DUP2 ADD SWAP1 POP PUSH2 0x45D JUMP JUMPDEST POP POP POP POP SWAP1 POP ADD DUP6 DUP2 SUB DUP5 MSTORE DUP9 DUP2 DUP2 MLOAD DUP2 MSTORE PUSH1 0x20 ADD SWAP2 POP DUP1 MLOAD SWAP1 PUSH1 0x20 ADD SWAP1 PUSH1 0x20 MUL DUP1 DUP4 DUP4 PUSH1 0x0 JUMPDEST DUP4 DUP2 LT ISZERO PUSH2 0x4BA JUMPI DUP1 DUP3 ADD MLOAD DUP2 DUP5 ADD MSTORE PUSH1 0x20 DUP2 ADD SWAP1 POP PUSH2 0x49F JUMP JUMPDEST POP POP POP POP SWAP1 POP ADD DUP6 DUP2 SUB DUP4 MSTORE DUP8 DUP2 DUP2 MLOAD DUP2 MSTORE PUSH1 0x20 ADD SWAP2 POP DUP1 MLOAD SWAP1 PUSH1 0x20 ADD SWAP1 PUSH1 0x20 MUL DUP1 DUP4 DUP4 PUSH1 0x0 JUMPDEST DUP4 DUP2 LT ISZERO PUSH2 0x4FC JUMPI DUP1 DUP3 ADD MLOAD DUP2 DUP5 ADD MSTORE PUSH1 0x20 DUP2 ADD SWAP1 POP PUSH2 0x4E1 JUMP JUMPDEST POP POP POP POP SWAP1 POP ADD DUP6 DUP2 SUB DUP3 MSTORE DUP7 DUP2 DUP2 MLOAD DUP2 MSTORE PUSH1 0x20 ADD SWAP2 POP DUP1 MLOAD SWAP1 PUSH1 0x20 ADD SWAP1 PUSH1 0x20 MUL DUP1 DUP4 DUP4 PUSH1 0x0 JUMPDEST DUP4 DUP2 LT ISZERO PUSH2 0x53E JUMPI DUP1 DUP3 ADD MLOAD DUP2 DUP5 ADD MSTORE PUSH1 0x20 DUP2 ADD SWAP1 POP PUSH2 0x523 JUMP JUMPDEST POP POP POP POP SWAP1 POP ADD SWAP13 POP POP POP POP POP POP POP POP POP POP POP POP POP PUSH1 0x40 MLOAD DUP1 SWAP2 SUB SWAP1 RETURN JUMPDEST CALLVALUE DUP1 ISZERO PUSH2 0x568 JUMPI PUSH1 0x0 DUP1 REVERT JUMPDEST POP PUSH2 0x633 PUSH1 0x4 DUP1 CALLDATASIZE SUB DUP2 ADD SWAP1 DUP1 DUP1 CALLDATALOAD PUSH8 0xFFFFFFFFFFFFFFFF AND SWAP1 PUSH1 0x20 ADD SWAP1 SWAP3 SWAP2 SWAP1 DUP1 CALLDATALOAD PUSH1 0x0 NOT AND SWAP1 PUSH1 0x20 ADD SWAP1 SWAP3 SWAP2 SWAP1 DUP1 CALLDATALOAD PUSH2 0xFFFF AND SWAP1 PUSH1 0x20 ADD SWAP1 SWAP3 SWAP2 SWAP1 DUP1 CALLDATALOAD SWAP1 PUSH1 0x20 ADD SWAP1 DUP3 ADD DUP1 CALLDATALOAD SWAP1 PUSH1 0x20 ADD SWAP1 DUP1 DUP1 PUSH1 0x20 MUL PUSH1 0x20 ADD PUSH1 0x40 MLOAD SWAP1 DUP2 ADD PUSH1 0x40 MSTORE DUP1 SWAP4 SWAP3 SWAP2 SWAP1 DUP2 DUP2 MSTORE PUSH1 0x20 ADD DUP4 DUP4 PUSH1 0x20 MUL DUP1 DUP3 DUP5 CALLDATACOPY DUP3 ADD SWAP2 POP POP POP POP POP POP SWAP2 SWAP3 SWAP2 SWAP3 SWAP1 DUP1 CALLDATALOAD SWAP1 PUSH1 0x20 ADD SWAP1 DUP3 ADD DUP1 CALLDATALOAD SWAP1 PUSH1 0x20 ADD SWAP1 DUP1 DUP1 PUSH1 0x20 MUL PUSH1 0x20 ADD PUSH1 0x40 MLOAD SWAP1 DUP2 ADD PUSH1 0x40 MSTORE DUP1 SWAP4 SWAP3 SWAP2 SWAP1 DUP2 DUP2 MSTORE PUSH1 0x20 ADD DUP4 DUP4 PUSH1 0x20 MUL DUP1 DUP3 DUP5 CALLDATACOPY DUP3 ADD SWAP2 POP POP POP POP POP POP SWAP2 SWAP3 SWAP2 SWAP3 SWAP1 POP POP POP PUSH2 0x1CEB JUMP JUMPDEST STOP JUMPDEST CALLVALUE DUP1 ISZERO PUSH2 0x641 JUMPI PUSH1 0x0 DUP1 REVERT JUMPDEST POP PUSH2 0x660 PUSH1 0x4 DUP1 CALLDATASIZE SUB DUP2 ADD SWAP1 DUP1 DUP1 CALLDATALOAD SWAP1 PUSH1 0x20 ADD SWAP1 SWAP3 SWAP2 SWAP1 POP POP POP PUSH2 0x2291 JUMP JUMPDEST PUSH1 0x40 MLOAD DUP1 DUP4 DUP2 MSTORE PUSH1 0x20 ADD DUP1 PUSH1 0x20 ADD DUP3 DUP2 SUB DUP3 MSTORE DUP4 DUP2 DUP2 MLOAD DUP2 MSTORE PUSH1 0x20 ADD SWAP2 POP DUP1 MLOAD SWAP1 PUSH1 0x20 ADD SWAP1 PUSH1 0x20 MUL DUP1 DUP4 DUP4 PUSH1 0x0 JUMPDEST DUP4 DUP2 LT ISZERO PUSH2 0x6A9 JUMPI DUP1 DUP3 ADD MLOAD DUP2 DUP5 ADD MSTORE PUSH1 0x20 DUP2 ADD SWAP1 POP PUSH2 0x68E JUMP JUMPDEST POP POP POP POP SWAP1 POP ADD SWAP4 POP POP POP POP PUSH1 0x40 MLOAD DUP1 SWAP2 SUB SWAP1 RETURN JUMPDEST CALLVALUE DUP1 ISZERO PUSH2 0x6CA JUMPI PUSH1 0x0 DUP1 REVERT JUMPDEST POP PUSH2 0x6F7 PUSH1 0x4 DUP1 CALLDATASIZE SUB DUP2 ADD SWAP1 DUP1 DUP1 CALLDATALOAD SWAP1 PUSH1 0x20 ADD SWAP1 SWAP3 SWAP2 SWAP1 DUP1 CALLDATALOAD PUSH1 0x0 NOT AND SWAP1 PUSH1 0x20 ADD SWAP1 SWAP3 SWAP2 SWAP1 POP POP POP PUSH2 0x231C JUMP JUMPDEST STOP JUMPDEST CALLVALUE DUP1 ISZERO PUSH2 0x705 JUMPI PUSH1 0x0 DUP1 REVERT JUMPDEST POP PUSH2 0x724 PUSH1 0x4 DUP1 CALLDATASIZE SUB DUP2 ADD SWAP1 DUP1 DUP1 CALLDATALOAD SWAP1 PUSH1 0x20 ADD SWAP1 SWAP3 SWAP2 SWAP1 POP POP POP PUSH2 0x238A JUMP JUMPDEST PUSH1 0x40 MLOAD DUP1 DUP3 DUP2 MSTORE PUSH1 0x20 ADD SWAP2 POP POP PUSH1 0x40 MLOAD DUP1 SWAP2 SUB SWAP1 RETURN JUMPDEST CALLVALUE DUP1 ISZERO PUSH2 0x746 JUMPI PUSH1 0x0 DUP1 REVERT JUMPDEST POP PUSH2 0x765 PUSH1 0x4 DUP1 CALLDATASIZE SUB DUP2 ADD SWAP1 DUP1 DUP1 CALLDATALOAD SWAP1 PUSH1 0x20 ADD SWAP1 SWAP3 SWAP2 SWAP1 POP POP POP PUSH2 0x23AD JUMP JUMPDEST PUSH1 0x40 MLOAD DUP1 DUP3 PUSH1 0x0 NOT AND PUSH1 0x0 NOT AND DUP2 MSTORE PUSH1 0x20 ADD SWAP2 POP POP PUSH1 0x40 MLOAD DUP1 SWAP2 SUB SWAP1 RETURN JUMPDEST CALLVALUE DUP1 ISZERO PUSH2 0x78F JUMPI PUSH1 0x0 DUP1 REVERT JUMPDEST POP PUSH2 0x7B2 PUSH1 0x4 DUP1 CALLDATASIZE SUB DUP2 ADD SWAP1 DUP1 DUP1 CALLDATALOAD PUSH1 0x0 NOT AND SWAP1 PUSH1 0x20 ADD SWAP1 SWAP3 SWAP2 SWAP1 POP POP POP PUSH2 0x23D0 JUMP JUMPDEST PUSH1 0x40 MLOAD DUP1 DUP9 PUSH1 0x0 NOT AND PUSH1 0x0 NOT AND DUP2 MSTORE PUSH1 0x20 ADD DUP8 PUSH1 0x0 NOT AND PUSH1 0x0 NOT AND DUP2 MSTORE PUSH1 0x20 ADD DUP7 PUSH1 0x0 NOT AND PUSH1 0x0 NOT AND DUP2 MSTORE PUSH1 0x20 ADD DUP6 PUSH2 0xFFFF AND PUSH2 0xFFFF AND DUP2 MSTORE PUSH1 0x20 ADD DUP5 PUSH2 0xFFFF AND PUSH2 0xFFFF AND DUP2 MSTORE PUSH1 0x20 ADD DUP4 PUSH1 0xFF AND PUSH1 0xFF AND DUP2 MSTORE PUSH1 0x20 ADD DUP3 PUSH4 0xFFFFFFFF AND PUSH4 0xFFFFFFFF AND DUP2 MSTORE PUSH1 0x20 ADD SWAP8 POP POP POP POP POP POP POP POP PUSH1 0x40 MLOAD DUP1 SWAP2 SUB SWAP1 RETURN JUMPDEST CALLVALUE DUP1 ISZERO PUSH2 0x838 JUMPI PUSH1 0x0 DUP1 REVERT JUMPDEST POP PUSH2 0x841 PUSH2 0x25AD JUMP JUMPDEST PUSH1 0x40 MLOAD DUP1 DUP3 DUP2 MSTORE PUSH1 0x20 ADD SWAP2 POP POP PUSH1 0x40 MLOAD DUP1 SWAP2 SUB SWAP1 RETURN JUMPDEST CALLVALUE DUP1 ISZERO PUSH2 0x863 JUMPI PUSH1 0x0 DUP1 REVERT JUMPDEST POP PUSH2 0x9EF PUSH1 0x4 DUP1 CALLDATASIZE SUB DUP2 ADD SWAP1 DUP1 DUP1 CALLDATALOAD SWAP1 PUSH1 0x20 ADD SWAP1 DUP3 ADD DUP1 CALLDATALOAD SWAP1 PUSH1 0x20 ADD SWAP1 DUP1 DUP1 PUSH1 0x1F ADD PUSH1 0x20 DUP1 SWAP2 DIV MUL PUSH1 0x20 ADD PUSH1 0x40 MLOAD SWAP1 DUP2 ADD PUSH1 0x40 MSTORE DUP1 SWAP4 SWAP3 SWAP2 SWAP1 DUP2 DUP2 MSTORE PUSH1 0x20 ADD DUP4 DUP4 DUP1 DUP3 DUP5 CALLDATACOPY DUP3 ADD SWAP2 POP POP POP POP POP POP SWAP2 SWAP3 SWAP2 SWAP3 SWAP1 DUP1 CALLDATALOAD SWAP1 PUSH1 0x20 ADD SWAP1 DUP3 ADD DUP1 CALLDATALOAD SWAP1 PUSH1 0x20 ADD SWAP1 DUP1 DUP1 PUSH1 0x1F ADD PUSH1 0x20 DUP1 SWAP2 DIV MUL PUSH1 0x20 ADD PUSH1 0x40 MLOAD SWAP1 DUP2 ADD PUSH1 0x40 MSTORE DUP1 SWAP4 SWAP3 SWAP2 SWAP1 DUP2 DUP2 MSTORE PUSH1 0x20 ADD DUP4 DUP4 DUP1 DUP3 DUP5 CALLDATACOPY DUP3 ADD SWAP2 POP POP POP POP POP POP SWAP2 SWAP3 SWAP2 SWAP3 SWAP1 DUP1 CALLDATALOAD SWAP1 PUSH1 0x20 ADD SWAP1 DUP3 ADD DUP1 CALLDATALOAD SWAP1 PUSH1 0x20 ADD SWAP1 DUP1 DUP1 PUSH1 0x1F ADD PUSH1 0x20 DUP1 SWAP2 DIV MUL PUSH1 0x20 ADD PUSH1 0x40 MLOAD SWAP1 DUP2 ADD PUSH1 0x40 MSTORE DUP1 SWAP4 SWAP3 SWAP2 SWAP1 DUP2 DUP2 MSTORE PUSH1 0x20 ADD DUP4 DUP4 DUP1 DUP3 DUP5 CALLDATACOPY DUP3 ADD SWAP2 POP POP POP POP POP POP SWAP2 SWAP3 SWAP2 SWAP3 SWAP1 DUP1 CALLDATALOAD SWAP1 PUSH1 0x20 ADD SWAP1 DUP3 ADD DUP1 CALLDATALOAD SWAP1 PUSH1 0x20 ADD SWAP1 DUP1 DUP1 PUSH1 0x1F ADD PUSH1 0x20 DUP1 SWAP2 DIV MUL PUSH1 0x20 ADD PUSH1 0x40 MLOAD SWAP1 DUP2 ADD PUSH1 0x40 MSTORE DUP1 SWAP4 SWAP3 SWAP2 SWAP1 DUP2 DUP2 MSTORE PUSH1 0x20 ADD DUP4 DUP4 DUP1 DUP3 DUP5 CALLDATACOPY DUP3 ADD SWAP2 POP POP POP POP POP POP SWAP2 SWAP3 SWAP2 SWAP3 SWAP1 DUP1 CALLDATALOAD PUSH3 0xFFFFFF AND SWAP1 PUSH1 0x20 ADD SWAP1 SWAP3 SWAP2 SWAP1 DUP1 CALLDATALOAD SWAP1 PUSH1 0x20 ADD SWAP1 DUP3 ADD DUP1 CALLDATALOAD SWAP1 PUSH1 0x20 ADD SWAP1 DUP1 DUP1 PUSH1 0x1F ADD PUSH1 0x20 DUP1 SWAP2 DIV MUL PUSH1 0x20 ADD PUSH1 0x40 MLOAD SWAP1 DUP2 ADD PUSH1 0x40 MSTORE DUP1 SWAP4 SWAP3 SWAP2 SWAP1 DUP2 DUP2 MSTORE PUSH1 0x20 ADD DUP4 DUP4 DUP1 DUP3 DUP5 CALLDATACOPY DUP3 ADD SWAP2 POP POP POP POP POP POP SWAP2 SWAP3 SWAP2 SWAP3 SWAP1 DUP1 CALLDATALOAD SWAP1 PUSH1 0x20 ADD SWAP1 SWAP3 SWAP2 SWAP1 POP POP POP PUSH2 0x25BA JUMP JUMPDEST STOP JUMPDEST CALLVALUE DUP1 ISZERO PUSH2 0x9FD JUMPI PUSH1 0x0 DUP1 REVERT JUMPDEST POP PUSH2 0xA1C PUSH1 0x4 DUP1 CALLDATASIZE SUB DUP2 ADD SWAP1 DUP1 DUP1 CALLDATALOAD SWAP1 PUSH1 0x20 ADD SWAP1 SWAP3 SWAP2 SWAP1 POP POP POP PUSH2 0x28E5 JUMP JUMPDEST PUSH1 0x40 MLOAD DUP1 DUP3 PUSH1 0x0 NOT AND PUSH1 0x0 NOT AND DUP2 MSTORE PUSH1 0x20 ADD SWAP2 POP POP PUSH1 0x40 MLOAD DUP1 SWAP2 SUB SWAP1 RETURN JUMPDEST CALLVALUE DUP1 ISZERO PUSH2 0xA46 JUMPI PUSH1 0x0 DUP1 REVERT JUMPDEST POP PUSH2 0xA4F PUSH2 0x2908 JUMP JUMPDEST PUSH1 0x40 MLOAD DUP1 DUP3 DUP2 MSTORE PUSH1 0x20 ADD SWAP2 POP POP PUSH1 0x40 MLOAD DUP1 SWAP2 SUB SWAP1 RETURN JUMPDEST PUSH1 0x0 DUP1 PUSH1 0x0 PUSH1 0x7 PUSH1 0x0 SWAP1 SLOAD SWAP1 PUSH2 0x100 EXP SWAP1 DIV PUSH20 0xFFFFFFFFFFFFFFFFFFFFFFFFFFFFFFFFFFFFFFFF AND PUSH20 0xFFFFFFFFFFFFFFFFFFFFFFFFFFFFFFFFFFFFFFFF AND CALLER PUSH20 0xFFFFFFFFFFFFFFFFFFFFFFFFFFFFFFFFFFFFFFFF AND EQ ISZERO ISZERO PUSH2 0xB2F JUMPI PUSH1 0x40 MLOAD PUSH32 0x8C379A000000000000000000000000000000000000000000000000000000000 DUP2 MSTORE PUSH1 0x4 ADD DUP1 DUP1 PUSH1 0x20 ADD DUP3 DUP2 SUB DUP3 MSTORE PUSH1 0x18 DUP2 MSTORE PUSH1 0x20 ADD DUP1 PUSH32 0x53656E646572206973206E6F7420617574686F72697A65640000000000000000 DUP2 MSTORE POP PUSH1 0x20 ADD SWAP2 POP POP PUSH1 0x40 MLOAD DUP1 SWAP2 SUB SWAP1 REVERT JUMPDEST PUSH1 0x1 ISZERO ISZERO PUSH1 0x3 PUSH1 0x0 DUP11 PUSH1 0x0 NOT AND PUSH1 0x0 NOT AND DUP2 MSTORE PUSH1 0x20 ADD SWAP1 DUP2 MSTORE PUSH1 0x20 ADD PUSH1 0x0 KECCAK256 PUSH1 0x3 ADD PUSH1 0x9 SWAP1 SLOAD SWAP1 PUSH2 0x100 EXP SWAP1 DIV PUSH1 0xFF AND ISZERO ISZERO EQ ISZERO ISZERO PUSH2 0xBD6 JUMPI PUSH1 0x40 MLOAD PUSH32 0x8C379A000000000000000000000000000000000000000000000000000000000 DUP2 MSTORE PUSH1 0x4 ADD DUP1 DUP1 PUSH1 0x20 ADD DUP3 DUP2 SUB DUP3 MSTORE PUSH1 0x12 DUP2 MSTORE PUSH1 0x20 ADD DUP1 PUSH32 0x506C6F7420646F65736E27742065786973740000000000000000000000000000 DUP2 MSTORE POP PUSH1 0x20 ADD SWAP2 POP POP PUSH1 0x40 MLOAD DUP1 SWAP2 SUB SWAP1 REVERT JUMPDEST DUP9 DUP9 PUSH1 0x40 MLOAD PUSH1 0x20 ADD DUP1 DUP4 PUSH8 0xFFFFFFFFFFFFFFFF AND PUSH8 0xFFFFFFFFFFFFFFFF AND PUSH25 0x1000000000000000000000000000000000000000000000000 MUL DUP2 MSTORE PUSH1 0x8 ADD DUP3 PUSH1 0x0 NOT AND PUSH1 0x0 NOT AND DUP2 MSTORE PUSH1 0x20 ADD SWAP3 POP POP POP PUSH1 0x40 MLOAD PUSH1 0x20 DUP2 DUP4 SUB SUB DUP2 MSTORE SWAP1 PUSH1 0x40 MSTORE PUSH1 0x40 MLOAD DUP1 DUP3 DUP1 MLOAD SWAP1 PUSH1 0x20 ADD SWAP1 DUP1 DUP4 DUP4 JUMPDEST PUSH1 0x20 DUP4 LT ISZERO ISZERO PUSH2 0xC6A JUMPI DUP1 MLOAD DUP3 MSTORE PUSH1 0x20 DUP3 ADD SWAP2 POP PUSH1 0x20 DUP2 ADD SWAP1 POP PUSH1 0x20 DUP4 SUB SWAP3 POP PUSH2 0xC45 JUMP JUMPDEST PUSH1 0x1 DUP4 PUSH1 0x20 SUB PUSH2 0x100 EXP SUB DUP1 NOT DUP3 MLOAD AND DUP2 DUP5 MLOAD AND DUP1 DUP3 OR DUP6 MSTORE POP POP POP POP POP POP SWAP1 POP ADD SWAP2 POP POP PUSH1 0x40 MLOAD DUP1 SWAP2 SUB SWAP1 KECCAK256 SWAP3 POP PUSH1 0x1 ISZERO ISZERO PUSH1 0x5 PUSH1 0x0 DUP6 PUSH1 0x0 NOT AND PUSH1 0x0 NOT AND DUP2 MSTORE PUSH1 0x20 ADD SWAP1 DUP2 MSTORE PUSH1 0x20 ADD PUSH1 0x0 KECCAK256 PUSH1 0x8 ADD PUSH1 0x0 SWAP1 SLOAD SWAP1 PUSH2 0x100 EXP SWAP1 DIV PUSH1 0xFF AND ISZERO ISZERO EQ ISZERO ISZERO ISZERO PUSH2 0xD41 JUMPI PUSH1 0x40 MLOAD PUSH32 0x8C379A000000000000000000000000000000000000000000000000000000000 DUP2 MSTORE PUSH1 0x4 ADD DUP1 DUP1 PUSH1 0x20 ADD DUP3 DUP2 SUB DUP3 MSTORE PUSH1 0x16 DUP2 MSTORE PUSH1 0x20 ADD DUP1 PUSH32 0x4B68617469616E20616C72656164792065786973747300000000000000000000 DUP2 MSTORE POP PUSH1 0x20 ADD SWAP2 POP POP PUSH1 0x40 MLOAD DUP1 SWAP2 SUB SWAP1 REVERT JUMPDEST PUSH1 0x5 PUSH1 0x0 DUP8 PUSH1 0x0 NOT AND PUSH1 0x0 NOT AND DUP2 MSTORE PUSH1 0x20 ADD SWAP1 DUP2 MSTORE PUSH1 0x20 ADD PUSH1 0x0 KECCAK256 PUSH1 0x8 ADD PUSH1 0x0 SWAP1 SLOAD SWAP1 PUSH2 0x100 EXP SWAP1 DIV PUSH1 0xFF AND ISZERO ISZERO PUSH2 0xDE1 JUMPI PUSH1 0x40 MLOAD PUSH32 0x8C379A000000000000000000000000000000000000000000000000000000000 DUP2 MSTORE PUSH1 0x4 ADD DUP1 DUP1 PUSH1 0x20 ADD DUP3 DUP2 SUB DUP3 MSTORE PUSH1 0x1E DUP2 MSTORE PUSH1 0x20 ADD DUP1 PUSH32 0x70726576696F7573204B68617469616E20646F65736E27742065786973740000 DUP2 MSTORE POP PUSH1 0x20 ADD SWAP2 POP POP PUSH1 0x40 MLOAD DUP1 SWAP2 SUB SWAP1 REVERT JUMPDEST DUP7 PUSH2 0xFFFF AND PUSH1 0x5 PUSH1 0x0 DUP9 PUSH1 0x0 NOT AND PUSH1 0x0 NOT AND DUP2 MSTORE PUSH1 0x20 ADD SWAP1 DUP2 MSTORE PUSH1 0x20 ADD PUSH1 0x0 KECCAK256 PUSH1 0x2 ADD PUSH1 0x0 SWAP1 SLOAD SWAP1 PUSH2 0x100 EXP SWAP1 DIV PUSH2 0xFFFF AND PUSH2 0xFFFF AND LT ISZERO ISZERO ISZERO PUSH2 0xE8D JUMPI PUSH1 0x40 MLOAD PUSH32 0x8C379A000000000000000000000000000000000000000000000000000000000 DUP2 MSTORE PUSH1 0x4 ADD DUP1 DUP1 PUSH1 0x20 ADD DUP3 DUP2 SUB DUP3 MSTORE PUSH1 0x17 DUP2 MSTORE PUSH1 0x20 ADD DUP1 PUSH32 0x4E6F7420656E6F756768206C616E6420746F2073656C6C000000000000000000 DUP2 MSTORE POP PUSH1 0x20 ADD SWAP2 POP POP PUSH1 0x40 MLOAD DUP1 SWAP2 SUB SWAP1 REVERT JUMPDEST PUSH1 0x0 SWAP2 POP JUMPDEST DUP5 MLOAD DUP3 LT ISZERO PUSH2 0xF5E JUMPI PUSH1 0x1 ISZERO ISZERO PUSH1 0x1 PUSH1 0x0 DUP8 DUP6 DUP2 MLOAD DUP2 LT ISZERO ISZERO PUSH2 0xEB1 JUMPI INVALID JUMPDEST SWAP1 PUSH1 0x20 ADD SWAP1 PUSH1 0x20 MUL ADD MLOAD DUP2 MSTORE PUSH1 0x20 ADD SWAP1 DUP2 MSTORE PUSH1 0x20 ADD PUSH1 0x0 KECCAK256 PUSH1 0x6 ADD PUSH1 0x0 SWAP1 SLOAD SWAP1 PUSH2 0x100 EXP SWAP1 DIV PUSH1 0xFF AND ISZERO ISZERO EQ ISZERO ISZERO PUSH2 0xF51 JUMPI PUSH1 0x40 MLOAD PUSH32 0x8C379A000000000000000000000000000000000000000000000000000000000 DUP2 MSTORE PUSH1 0x4 ADD DUP1 DUP1 PUSH1 0x20 ADD DUP3 DUP2 SUB DUP3 MSTORE PUSH1 0x18 DUP2 MSTORE PUSH1 0x20 ADD DUP1 PUSH32 0x557365722773204E494420646F65736E27742065786973740000000000000000 DUP2 MSTORE POP PUSH1 0x20 ADD SWAP2 POP POP PUSH1 0x40 MLOAD DUP1 SWAP2 SUB SWAP1 REVERT JUMPDEST DUP2 DUP1 PUSH1 0x1 ADD SWAP3 POP POP PUSH2 0xE92 JUMP JUMPDEST PUSH1 0x5 PUSH1 0x0 DUP8 PUSH1 0x0 NOT AND PUSH1 0x0 NOT AND DUP2 MSTORE PUSH1 0x20 ADD SWAP1 DUP2 MSTORE PUSH1 0x20 ADD PUSH1 0x0 KECCAK256 PUSH1 0x4 ADD DUP4 SWAP1 DUP1 PUSH1 0x1 DUP2 SLOAD ADD DUP1 DUP3 SSTORE DUP1 SWAP2 POP POP SWAP1 PUSH1 0x1 DUP3 SUB SWAP1 PUSH1 0x0 MSTORE PUSH1 0x20 PUSH1 0x0 KECCAK256 ADD PUSH1 0x0 SWAP1 SWAP2 SWAP3 SWAP1 SWAP2 SWAP1 SWAP2 POP SWAP1 PUSH1 0x0 NOT AND SWAP1 SSTORE POP PUSH1 0x5 PUSH1 0x0 DUP8 PUSH1 0x0 NOT AND PUSH1 0x0 NOT AND DUP2 MSTORE PUSH1 0x20 ADD SWAP1 DUP2 MSTORE PUSH1 0x20 ADD PUSH1 0x0 KECCAK256 PUSH1 0x5 ADD DUP8 SWAP1 DUP1 PUSH1 0x1 DUP2 SLOAD ADD DUP1 DUP3 SSTORE DUP1 SWAP2 POP POP SWAP1 PUSH1 0x1 DUP3 SUB SWAP1 PUSH1 0x0 MSTORE PUSH1 0x20 PUSH1 0x0 KECCAK256 SWAP1 PUSH1 0x10 SWAP2 DUP3 DUP3 DIV ADD SWAP2 SWAP1 MOD PUSH1 0x2 MUL SWAP1 SWAP2 SWAP3 SWAP1 SWAP2 SWAP1 SWAP2 PUSH2 0x100 EXP DUP2 SLOAD DUP2 PUSH2 0xFFFF MUL NOT AND SWAP1 DUP4 PUSH2 0xFFFF AND MUL OR SWAP1 SSTORE POP POP DUP7 PUSH1 0x5 PUSH1 0x0 DUP9 PUSH1 0x0 NOT AND PUSH1 0x0 NOT AND DUP2 MSTORE PUSH1 0x20 ADD SWAP1 DUP2 MSTORE PUSH1 0x20 ADD PUSH1 0x0 KECCAK256 PUSH1 0x2 ADD PUSH1 0x0 DUP3 DUP3 DUP3 SWAP1 SLOAD SWAP1 PUSH2 0x100 EXP SWAP1 DIV PUSH2 0xFFFF AND SUB SWAP3 POP PUSH2 0x100 EXP DUP2 SLOAD DUP2 PUSH2 0xFFFF MUL NOT AND SWAP1 DUP4 PUSH2 0xFFFF AND MUL OR SWAP1 SSTORE POP DUP6 PUSH1 0x5 PUSH1 0x0 DUP6 PUSH1 0x0 NOT AND PUSH1 0x0 NOT AND DUP2 MSTORE PUSH1 0x20 ADD SWAP1 DUP2 MSTORE PUSH1 0x20 ADD PUSH1 0x0 KECCAK256 PUSH1 0x3 ADD DUP2 PUSH1 0x0 NOT AND SWAP1 SSTORE POP DUP9 PUSH1 0x5 PUSH1 0x0 DUP6 PUSH1 0x0 NOT AND PUSH1 0x0 NOT AND DUP2 MSTORE PUSH1 0x20 ADD SWAP1 DUP2 MSTORE PUSH1 0x20 ADD PUSH1 0x0 KECCAK256 PUSH1 0x0 ADD PUSH1 0x0 PUSH2 0x100 EXP DUP2 SLOAD DUP2 PUSH8 0xFFFFFFFFFFFFFFFF MUL NOT AND SWAP1 DUP4 PUSH8 0xFFFFFFFFFFFFFFFF AND MUL OR SWAP1 SSTORE POP DUP8 PUSH1 0x5 PUSH1 0x0 DUP6 PUSH1 0x0 NOT AND PUSH1 0x0 NOT AND DUP2 MSTORE PUSH1 0x20 ADD SWAP1 DUP2 MSTORE PUSH1 0x20 ADD PUSH1 0x0 KECCAK256 PUSH1 0x1 ADD DUP2 PUSH1 0x0 NOT AND SWAP1 SSTORE POP DUP7 PUSH1 0x5 PUSH1 0x0 DUP6 PUSH1 0x0 NOT AND PUSH1 0x0 NOT AND DUP2 MSTORE PUSH1 0x20 ADD SWAP1 DUP2 MSTORE PUSH1 0x20 ADD PUSH1 0x0 KECCAK256 PUSH1 0x2 ADD PUSH1 0x0 PUSH2 0x100 EXP DUP2 SLOAD DUP2 PUSH2 0xFFFF MUL NOT AND SWAP1 DUP4 PUSH2 0xFFFF AND MUL OR SWAP1 SSTORE POP PUSH1 0x1 PUSH1 0x5 PUSH1 0x0 DUP6 PUSH1 0x0 NOT AND PUSH1 0x0 NOT AND DUP2 MSTORE PUSH1 0x20 ADD SWAP1 DUP2 MSTORE PUSH1 0x20 ADD PUSH1 0x0 KECCAK256 PUSH1 0x8 ADD PUSH1 0x0 PUSH2 0x100 EXP DUP2 SLOAD DUP2 PUSH1 0xFF MUL NOT AND SWAP1 DUP4 ISZERO ISZERO MUL OR SWAP1 SSTORE POP DUP4 PUSH1 0x5 PUSH1 0x0 DUP6 PUSH1 0x0 NOT AND PUSH1 0x0 NOT AND DUP2 MSTORE PUSH1 0x20 ADD SWAP1 DUP2 MSTORE PUSH1 0x20 ADD PUSH1 0x0 KECCAK256 PUSH1 0x7 ADD SWAP1 DUP1 MLOAD SWAP1 PUSH1 0x20 ADD SWAP1 PUSH2 0x1196 SWAP3 SWAP2 SWAP1 PUSH2 0x2C72 JUMP JUMPDEST POP DUP5 PUSH1 0x5 PUSH1 0x0 DUP6 PUSH1 0x0 NOT AND PUSH1 0x0 NOT AND DUP2 MSTORE PUSH1 0x20 ADD SWAP1 DUP2 MSTORE PUSH1 0x20 ADD PUSH1 0x0 KECCAK256 PUSH1 0x6 ADD SWAP1 DUP1 MLOAD SWAP1 PUSH1 0x20 ADD SWAP1 PUSH2 0x11C9 SWAP3 SWAP2 SWAP1 PUSH2 0x2D1C JUMP JUMPDEST POP PUSH1 0x0 SWAP1 POP JUMPDEST DUP5 MLOAD DUP2 LT ISZERO PUSH2 0x1206 JUMPI PUSH2 0x11F9 DUP6 DUP3 DUP2 MLOAD DUP2 LT ISZERO ISZERO PUSH2 0x11E9 JUMPI INVALID JUMPDEST SWAP1 PUSH1 0x20 ADD SWAP1 PUSH1 0x20 MUL ADD MLOAD DUP5 PUSH2 0x231C JUMP JUMPDEST DUP1 DUP1 PUSH1 0x1 ADD SWAP2 POP POP PUSH2 0x11CF JUMP JUMPDEST PUSH1 0x6 DUP4 SWAP1 DUP1 PUSH1 0x1 DUP2 SLOAD ADD DUP1 DUP3 SSTORE DUP1 SWAP2 POP POP SWAP1 PUSH1 0x1 DUP3 SUB SWAP1 PUSH1 0x0 MSTORE PUSH1 0x20 PUSH1 0x0 KECCAK256 ADD PUSH1 0x0 SWAP1 SWAP2 SWAP3 SWAP1 SWAP2 SWAP1 SWAP2 POP SWAP1 PUSH1 0x0 NOT AND SWAP1 SSTORE POP PUSH32 0x1235DF36D9864C1784CA3D5AD4397D04E3980ECF0FF7A703258C3FB6D4ABF8AD DUP4 PUSH1 0x40 MLOAD DUP1 DUP3 PUSH1 0x0 NOT AND PUSH1 0x0 NOT AND DUP2 MSTORE PUSH1 0x20 ADD SWAP2 POP POP PUSH1 0x40 MLOAD DUP1 SWAP2 SUB SWAP1 LOG1 POP POP POP POP POP POP POP POP POP JUMP JUMPDEST PUSH1 0x0 PUSH1 0x4 DUP1 SLOAD SWAP1 POP SWAP1 POP SWAP1 JUMP JUMPDEST PUSH1 0x0 PUSH1 0x7 PUSH1 0x0 SWAP1 SLOAD SWAP1 PUSH2 0x100 EXP SWAP1 DIV PUSH20 0xFFFFFFFFFFFFFFFFFFFFFFFFFFFFFFFFFFFFFFFF AND PUSH20 0xFFFFFFFFFFFFFFFFFFFFFFFFFFFFFFFFFFFFFFFF AND CALLER PUSH20 0xFFFFFFFFFFFFFFFFFFFFFFFFFFFFFFFFFFFFFFFF AND EQ ISZERO ISZERO PUSH2 0x1356 JUMPI PUSH1 0x40 MLOAD PUSH32 0x8C379A000000000000000000000000000000000000000000000000000000000 DUP2 MSTORE PUSH1 0x4 ADD DUP1 DUP1 PUSH1 0x20 ADD DUP3 DUP2 SUB DUP3 MSTORE PUSH1 0x16 DUP2 MSTORE PUSH1 0x20 ADD DUP1 PUSH32 0x596F7520617265206E6F7420617574686F72697A656400000000000000000000 DUP2 MSTORE POP PUSH1 0x20 ADD SWAP2 POP POP PUSH1 0x40 MLOAD DUP1 SWAP2 SUB SWAP1 REVERT JUMPDEST PUSH2 0x135F DUP9 PUSH2 0x2915 JUMP JUMPDEST SWAP8 POP PUSH2 0x136A DUP8 PUSH2 0x2915 JUMP JUMPDEST SWAP7 POP PUSH2 0x1375 DUP7 PUSH2 0x2915 JUMP JUMPDEST SWAP6 POP DUP8 DUP8 DUP8 DUP8 DUP8 PUSH1 0x40 MLOAD PUSH1 0x20 ADD DUP1 DUP7 DUP1 MLOAD SWAP1 PUSH1 0x20 ADD SWAP1 DUP1 DUP4 DUP4 JUMPDEST PUSH1 0x20 DUP4 LT ISZERO ISZERO PUSH2 0x13B4 JUMPI DUP1 MLOAD DUP3 MSTORE PUSH1 0x20 DUP3 ADD SWAP2 POP PUSH1 0x20 DUP2 ADD SWAP1 POP PUSH1 0x20 DUP4 SUB SWAP3 POP PUSH2 0x138F JUMP JUMPDEST PUSH1 0x1 DUP4 PUSH1 0x20 SUB PUSH2 0x100 EXP SUB DUP1 NOT DUP3 MLOAD AND DUP2 DUP5 MLOAD AND DUP1 DUP3 OR DUP6 MSTORE POP POP POP POP POP POP SWAP1 POP ADD DUP6 DUP1 MLOAD SWAP1 PUSH1 0x20 ADD SWAP1 DUP1 DUP4 DUP4 JUMPDEST PUSH1 0x20 DUP4 LT ISZERO ISZERO PUSH2 0x1407 JUMPI DUP1 MLOAD DUP3 MSTORE PUSH1 0x20 DUP3 ADD SWAP2 POP PUSH1 0x20 DUP2 ADD SWAP1 POP PUSH1 0x20 DUP4 SUB SWAP3 POP PUSH2 0x13E2 JUMP JUMPDEST PUSH1 0x1 DUP4 PUSH1 0x20 SUB PUSH2 0x100 EXP SUB DUP1 NOT DUP3 MLOAD AND DUP2 DUP5 MLOAD AND DUP1 DUP3 OR DUP6 MSTORE POP POP POP POP POP POP SWAP1 POP ADD DUP5 DUP1 MLOAD SWAP1 PUSH1 0x20 ADD SWAP1 DUP1 DUP4 DUP4 JUMPDEST PUSH1 0x20 DUP4 LT ISZERO ISZERO PUSH2 0x145A JUMPI DUP1 MLOAD DUP3 MSTORE PUSH1 0x20 DUP3 ADD SWAP2 POP PUSH1 0x20 DUP2 ADD SWAP1 POP PUSH1 0x20 DUP4 SUB SWAP3 POP PUSH2 0x1435 JUMP JUMPDEST PUSH1 0x1 DUP4 PUSH1 0x20 SUB PUSH2 0x100 EXP SUB DUP1 NOT DUP3 MLOAD AND DUP2 DUP5 MLOAD AND DUP1 DUP3 OR DUP6 MSTORE POP POP POP POP POP POP SWAP1 POP ADD DUP4 PUSH2 0xFFFF AND PUSH2 0xFFFF AND PUSH31 0x1000000000000000000000000000000000000000000000000000000000000 MUL DUP2 MSTORE PUSH1 0x2 ADD DUP3 PUSH2 0xFFFF AND PUSH2 0xFFFF AND PUSH31 0x1000000000000000000000000000000000000000000000000000000000000 MUL DUP2 MSTORE PUSH1 0x2 ADD SWAP6 POP POP POP POP POP POP PUSH1 0x40 MLOAD PUSH1 0x20 DUP2 DUP4 SUB SUB DUP2 MSTORE SWAP1 PUSH1 0x40 MSTORE PUSH1 0x40 MLOAD DUP1 DUP3 DUP1 MLOAD SWAP1 PUSH1 0x20 ADD SWAP1 DUP1 DUP4 DUP4 JUMPDEST PUSH1 0x20 DUP4 LT ISZERO ISZERO PUSH2 0x1525 JUMPI DUP1 MLOAD DUP3 MSTORE PUSH1 0x20 DUP3 ADD SWAP2 POP PUSH1 0x20 DUP2 ADD SWAP1 POP PUSH1 0x20 DUP4 SUB SWAP3 POP PUSH2 0x1500 JUMP JUMPDEST PUSH1 0x1 DUP4 PUSH1 0x20 SUB PUSH2 0x100 EXP SUB DUP1 NOT DUP3 MLOAD AND DUP2 DUP5 MLOAD AND DUP1 DUP3 OR DUP6 MSTORE POP POP POP POP POP POP SWAP1 POP ADD SWAP2 POP POP PUSH1 0x40 MLOAD DUP1 SWAP2 SUB SWAP1 KECCAK256 SWAP1 POP PUSH1 0x1 ISZERO ISZERO PUSH1 0x3 PUSH1 0x0 DUP4 PUSH1 0x0 NOT AND PUSH1 0x0 NOT AND DUP2 MSTORE PUSH1 0x20 ADD SWAP1 DUP2 MSTORE PUSH1 0x20 ADD PUSH1 0x0 KECCAK256 PUSH1 0x3 ADD PUSH1 0x9 SWAP1 SLOAD SWAP1 PUSH2 0x100 EXP SWAP1 DIV PUSH1 0xFF AND ISZERO ISZERO EQ ISZERO ISZERO ISZERO PUSH2 0x15FC JUMPI PUSH1 0x40 MLOAD PUSH32 0x8C379A000000000000000000000000000000000000000000000000000000000 DUP2 MSTORE PUSH1 0x4 ADD DUP1 DUP1 PUSH1 0x20 ADD DUP3 DUP2 SUB DUP3 MSTORE PUSH1 0x13 DUP2 MSTORE PUSH1 0x20 ADD DUP1 PUSH32 0x506C6F7420616C72656164792065787369747300000000000000000000000000 DUP2 MSTORE POP PUSH1 0x20 ADD SWAP2 POP POP PUSH1 0x40 MLOAD DUP1 SWAP2 SUB SWAP1 REVERT JUMPDEST PUSH2 0x1605 DUP9 PUSH2 0x2C47 JUMP JUMPDEST PUSH1 0x3 PUSH1 0x0 DUP4 PUSH1 0x0 NOT AND PUSH1 0x0 NOT AND DUP2 MSTORE PUSH1 0x20 ADD SWAP1 DUP2 MSTORE PUSH1 0x20 ADD PUSH1 0x0 KECCAK256 PUSH1 0x0 ADD DUP2 PUSH1 0x0 NOT AND SWAP1 SSTORE POP PUSH2 0x1634 DUP8 PUSH2 0x2C47 JUMP JUMPDEST PUSH1 0x3 PUSH1 0x0 DUP4 PUSH1 0x0 NOT AND PUSH1 0x0 NOT AND DUP2 MSTORE PUSH1 0x20 ADD SWAP1 DUP2 MSTORE PUSH1 0x20 ADD PUSH1 0x0 KECCAK256 PUSH1 0x1 ADD DUP2 PUSH1 0x0 NOT AND SWAP1 SSTORE POP PUSH2 0x1663 DUP7 PUSH2 0x2C47 JUMP JUMPDEST PUSH1 0x3 PUSH1 0x0 DUP4 PUSH1 0x0 NOT AND PUSH1 0x0 NOT AND DUP2 MSTORE PUSH1 0x20 ADD SWAP1 DUP2 MSTORE PUSH1 0x20 ADD PUSH1 0x0 KECCAK256 PUSH1 0x2 ADD DUP2 PUSH1 0x0 NOT AND SWAP1 SSTORE POP DUP5 PUSH1 0x3 PUSH1 0x0 DUP4 PUSH1 0x0 NOT AND PUSH1 0x0 NOT AND DUP2 MSTORE PUSH1 0x20 ADD SWAP1 DUP2 MSTORE PUSH1 0x20 ADD PUSH1 0x0 KECCAK256 PUSH1 0x3 ADD PUSH1 0x0 PUSH2 0x100 EXP DUP2 SLOAD DUP2 PUSH2 0xFFFF MUL NOT AND SWAP1 DUP4 PUSH2 0xFFFF AND MUL OR SWAP1 SSTORE POP DUP4 PUSH1 0x3 PUSH1 0x0 DUP4 PUSH1 0x0 NOT AND PUSH1 0x0 NOT AND DUP2 MSTORE PUSH1 0x20 ADD SWAP1 DUP2 MSTORE PUSH1 0x20 ADD PUSH1 0x0 KECCAK256 PUSH1 0x3 ADD PUSH1 0x2 PUSH2 0x100 EXP DUP2 SLOAD DUP2 PUSH2 0xFFFF MUL NOT AND SWAP1 DUP4 PUSH2 0xFFFF AND MUL OR SWAP1 SSTORE POP DUP3 PUSH1 0x3 PUSH1 0x0 DUP4 PUSH1 0x0 NOT AND PUSH1 0x0 NOT AND DUP2 MSTORE PUSH1 0x20 ADD SWAP1 DUP2 MSTORE PUSH1 0x20 ADD PUSH1 0x0 KECCAK256 PUSH1 0x3 ADD PUSH1 0x4 PUSH2 0x100 EXP DUP2 SLOAD DUP2 PUSH1 0xFF MUL NOT AND SWAP1 DUP4 PUSH1 0xFF AND MUL OR SWAP1 SSTORE POP DUP2 PUSH1 0x3 PUSH1 0x0 DUP4 PUSH1 0x0 NOT AND PUSH1 0x0 NOT AND DUP2 MSTORE PUSH1 0x20 ADD SWAP1 DUP2 MSTORE PUSH1 0x20 ADD PUSH1 0x0 KECCAK256 PUSH1 0x3 ADD PUSH1 0x5 PUSH2 0x100 EXP DUP2 SLOAD DUP2 PUSH4 0xFFFFFFFF MUL NOT AND SWAP1 DUP4 PUSH4 0xFFFFFFFF AND MUL OR SWAP1 SSTORE POP PUSH1 0x1 PUSH1 0x3 PUSH1 0x0 DUP4 PUSH1 0x0 NOT AND PUSH1 0x0 NOT AND DUP2 MSTORE PUSH1 0x20 ADD SWAP1 DUP2 MSTORE PUSH1 0x20 ADD PUSH1 0x0 KECCAK256 PUSH1 0x3 ADD PUSH1 0x9 PUSH2 0x100 EXP DUP2 SLOAD DUP2 PUSH1 0xFF MUL NOT AND SWAP1 DUP4 ISZERO ISZERO MUL OR SWAP1 SSTORE POP PUSH1 0x4 DUP2 SWAP1 DUP1 PUSH1 0x1 DUP2 SLOAD ADD DUP1 DUP3 SSTORE DUP1 SWAP2 POP POP SWAP1 PUSH1 0x1 DUP3 SUB SWAP1 PUSH1 0x0 MSTORE PUSH1 0x20 PUSH1 0x0 KECCAK256 ADD PUSH1 0x0 SWAP1 SWAP2 SWAP3 SWAP1 SWAP2 SWAP1 SWAP2 POP SWAP1 PUSH1 0x0 NOT AND SWAP1 SSTORE POP PUSH32 0xC5D3BD04A5B7305CD8EDF1EFC2070B49098F7E9EE3E642280285ADD33AA0B782 DUP2 PUSH1 0x40 MLOAD DUP1 DUP3 PUSH1 0x0 NOT AND PUSH1 0x0 NOT AND DUP2 MSTORE PUSH1 0x20 ADD SWAP2 POP POP PUSH1 0x40 MLOAD DUP1 SWAP2 SUB SWAP1 LOG1 POP POP POP POP POP POP POP POP JUMP JUMPDEST PUSH1 0x0 DUP1 PUSH1 0x0 DUP1 PUSH1 0x0 DUP1 PUSH1 0x1 ISZERO ISZERO PUSH1 0x1 PUSH1 0x0 DUP10 DUP2 MSTORE PUSH1 0x20 ADD SWAP1 DUP2 MSTORE PUSH1 0x20 ADD PUSH1 0x0 KECCAK256 PUSH1 0x6 ADD PUSH1 0x0 SWAP1 SLOAD SWAP1 PUSH2 0x100 EXP SWAP1 DIV PUSH1 0xFF AND ISZERO ISZERO EQ ISZERO ISZERO PUSH2 0x18C9 JUMPI PUSH1 0x40 MLOAD PUSH32 0x8C379A000000000000000000000000000000000000000000000000000000000 DUP2 MSTORE PUSH1 0x4 ADD DUP1 DUP1 PUSH1 0x20 ADD DUP3 DUP2 SUB DUP3 MSTORE PUSH1 0x12 DUP2 MSTORE PUSH1 0x20 ADD DUP1 PUSH32 0x5573657220446F65736E27742065786973740000000000000000000000000000 DUP2 MSTORE POP PUSH1 0x20 ADD SWAP2 POP POP PUSH1 0x40 MLOAD DUP1 SWAP2 SUB SWAP1 REVERT JUMPDEST PUSH1 0x1 PUSH1 0x0 DUP9 DUP2 MSTORE PUSH1 0x20 ADD SWAP1 DUP2 MSTORE PUSH1 0x20 ADD PUSH1 0x0 KECCAK256 PUSH1 0x0 ADD SLOAD SWAP6 POP PUSH1 0x1 PUSH1 0x0 DUP9 DUP2 MSTORE PUSH1 0x20 ADD SWAP1 DUP2 MSTORE PUSH1 0x20 ADD PUSH1 0x0 KECCAK256 PUSH1 0x1 ADD SLOAD SWAP5 POP PUSH1 0x1 PUSH1 0x0 DUP9 DUP2 MSTORE PUSH1 0x20 ADD SWAP1 DUP2 MSTORE PUSH1 0x20 ADD PUSH1 0x0 KECCAK256 PUSH1 0x2 ADD SLOAD SWAP4 POP PUSH1 0x1 PUSH1 0x0 DUP9 DUP2 MSTORE PUSH1 0x20 ADD SWAP1 DUP2 MSTORE PUSH1 0x20 ADD PUSH1 0x0 KECCAK256 PUSH1 0x3 ADD SLOAD SWAP3 POP PUSH1 0x1 PUSH1 0x0 DUP9 DUP2 MSTORE PUSH1 0x20 ADD SWAP1 DUP2 MSTORE PUSH1 0x20 ADD PUSH1 0x0 KECCAK256 PUSH1 0x4 ADD PUSH1 0x0 SWAP1 SLOAD SWAP1 PUSH2 0x100 EXP SWAP1 DIV PUSH3 0xFFFFFF AND SWAP2 POP PUSH1 0x1 PUSH1 0x0 DUP9 DUP2 MSTORE PUSH1 0x20 ADD SWAP1 DUP2 MSTORE PUSH1 0x20 ADD PUSH1 0x0 KECCAK256 PUSH1 0x5 ADD SLOAD SWAP1 POP SWAP2 SWAP4 SWAP6 POP SWAP2 SWAP4 SWAP6 JUMP JUMPDEST PUSH1 0x0 DUP1 PUSH1 0x0 DUP1 PUSH1 0x60 DUP1 PUSH1 0x60 DUP1 PUSH1 0x1 ISZERO ISZERO PUSH1 0x5 PUSH1 0x0 DUP12 PUSH1 0x0 NOT AND PUSH1 0x0 NOT AND DUP2 MSTORE PUSH1 0x20 ADD SWAP1 DUP2 MSTORE PUSH1 0x20 ADD PUSH1 0x0 KECCAK256 PUSH1 0x8 ADD PUSH1 0x0 SWAP1 SLOAD SWAP1 PUSH2 0x100 EXP SWAP1 DIV PUSH1 0xFF AND ISZERO ISZERO EQ ISZERO ISZERO PUSH2 0x1A2A JUMPI PUSH1 0x40 MLOAD PUSH32 0x8C379A000000000000000000000000000000000000000000000000000000000 DUP2 MSTORE PUSH1 0x4 ADD DUP1 DUP1 PUSH1 0x20 ADD DUP3 DUP2 SUB DUP3 MSTORE PUSH1 0x15 DUP2 MSTORE PUSH1 0x20 ADD DUP1 PUSH32 0x4B68617469616E20646F65736E27742065786973740000000000000000000000 DUP2 MSTORE POP PUSH1 0x20 ADD SWAP2 POP POP PUSH1 0x40 MLOAD DUP1 SWAP2 SUB SWAP1 REVERT JUMPDEST PUSH1 0x5 PUSH1 0x0 DUP11 PUSH1 0x0 NOT AND PUSH1 0x0 NOT AND DUP2 MSTORE PUSH1 0x20 ADD SWAP1 DUP2 MSTORE PUSH1 0x20 ADD PUSH1 0x0 KECCAK256 PUSH1 0x0 ADD PUSH1 0x0 SWAP1 SLOAD SWAP1 PUSH2 0x100 EXP SWAP1 DIV PUSH8 0xFFFFFFFFFFFFFFFF AND SWAP8 POP PUSH1 0x5 PUSH1 0x0 DUP11 PUSH1 0x0 NOT AND PUSH1 0x0 NOT AND DUP2 MSTORE PUSH1 0x20 ADD SWAP1 DUP2 MSTORE PUSH1 0x20 ADD PUSH1 0x0 KECCAK256 PUSH1 0x1 ADD SLOAD SWAP7 POP PUSH1 0x5 PUSH1 0x0 DUP11 PUSH1 0x0 NOT AND PUSH1 0x0 NOT AND DUP2 MSTORE PUSH1 0x20 ADD SWAP1 DUP2 MSTORE PUSH1 0x20 ADD PUSH1 0x0 KECCAK256 PUSH1 0x2 ADD PUSH1 0x0 SWAP1 SLOAD SWAP1 PUSH2 0x100 EXP SWAP1 DIV PUSH2 0xFFFF AND SWAP6 POP PUSH1 0x5 PUSH1 0x0 DUP11 PUSH1 0x0 NOT AND PUSH1 0x0 NOT AND DUP2 MSTORE PUSH1 0x20 ADD SWAP1 DUP2 MSTORE PUSH1 0x20 ADD PUSH1 0x0 KECCAK256 PUSH1 0x3 ADD SLOAD SWAP5 POP PUSH1 0x5 PUSH1 0x0 DUP11 PUSH1 0x0 NOT AND PUSH1 0x0 NOT AND DUP2 MSTORE PUSH1 0x20 ADD SWAP1 DUP2 MSTORE PUSH1 0x20 ADD PUSH1 0x0 KECCAK256 PUSH1 0x4 ADD DUP1 SLOAD DUP1 PUSH1 0x20 MUL PUSH1 0x20 ADD PUSH1 0x40 MLOAD SWAP1 DUP2 ADD PUSH1 0x40 MSTORE DUP1 SWAP3 SWAP2 SWAP1 DUP2 DUP2 MSTORE PUSH1 0x20 ADD DUP3 DUP1 SLOAD DUP1 ISZERO PUSH2 0x1B3C JUMPI PUSH1 0x20 MUL DUP3 ADD SWAP2 SWAP1 PUSH1 0x0 MSTORE PUSH1 0x20 PUSH1 0x0 KECCAK256 SWAP1 JUMPDEST DUP2 SLOAD PUSH1 0x0 NOT AND DUP2 MSTORE PUSH1 0x20 ADD SWAP1 PUSH1 0x1 ADD SWAP1 DUP1 DUP4 GT PUSH2 0x1B24 JUMPI JUMPDEST POP POP POP POP POP SWAP4 POP PUSH1 0x5 PUSH1 0x0 DUP11 PUSH1 0x0 NOT AND PUSH1 0x0 NOT AND DUP2 MSTORE PUSH1 0x20 ADD SWAP1 DUP2 MSTORE PUSH1 0x20 ADD PUSH1 0x0 KECCAK256 PUSH1 0x5 ADD DUP1 SLOAD DUP1 PUSH1 0x20 MUL PUSH1 0x20 ADD PUSH1 0x40 MLOAD SWAP1 DUP2 ADD PUSH1 0x40 MSTORE DUP1 SWAP3 SWAP2 SWAP1 DUP2 DUP2 MSTORE PUSH1 0x20 ADD DUP3 DUP1 SLOAD DUP1 ISZERO PUSH2 0x1BD3 JUMPI PUSH1 0x20 MUL DUP3 ADD SWAP2 SWAP1 PUSH1 0x0 MSTORE PUSH1 0x20 PUSH1 0x0 KECCAK256 SWAP1 PUSH1 0x0 SWAP1 JUMPDEST DUP3 DUP3 SWAP1 SLOAD SWAP1 PUSH2 0x100 EXP SWAP1 DIV PUSH2 0xFFFF AND PUSH2 0xFFFF AND DUP2 MSTORE PUSH1 0x20 ADD SWAP1 PUSH1 0x2 ADD SWAP1 PUSH1 0x20 DUP3 PUSH1 0x1 ADD DIV SWAP3 DUP4 ADD SWAP3 PUSH1 0x1 SUB DUP3 MUL SWAP2 POP DUP1 DUP5 GT PUSH2 0x1B9A JUMPI SWAP1 POP JUMPDEST POP POP POP POP POP SWAP3 POP PUSH1 0x5 PUSH1 0x0 DUP11 PUSH1 0x0 NOT AND PUSH1 0x0 NOT AND DUP2 MSTORE PUSH1 0x20 ADD SWAP1 DUP2 MSTORE PUSH1 0x20 ADD PUSH1 0x0 KECCAK256 PUSH1 0x6 ADD DUP1 SLOAD DUP1 PUSH1 0x20 MUL PUSH1 0x20 ADD PUSH1 0x40 MLOAD SWAP1 DUP2 ADD PUSH1 0x40 MSTORE DUP1 SWAP3 SWAP2 SWAP1 DUP2 DUP2 MSTORE PUSH1 0x20 ADD DUP3 DUP1 SLOAD DUP1 ISZERO PUSH2 0x1C42 JUMPI PUSH1 0x20 MUL DUP3 ADD SWAP2 SWAP1 PUSH1 0x0 MSTORE PUSH1 0x20 PUSH1 0x0 KECCAK256 SWAP1 JUMPDEST DUP2 SLOAD DUP2 MSTORE PUSH1 0x20 ADD SWAP1 PUSH1 0x1 ADD SWAP1 DUP1 DUP4 GT PUSH2 0x1C2E JUMPI JUMPDEST POP POP POP POP POP SWAP2 POP PUSH1 0x5 PUSH1 0x0 DUP11 PUSH1 0x0 NOT AND PUSH1 0x0 NOT AND DUP2 MSTORE PUSH1 0x20 ADD SWAP1 DUP2 MSTORE PUSH1 0x20 ADD PUSH1 0x0 KECCAK256 PUSH1 0x7 ADD DUP1 SLOAD DUP1 PUSH1 0x20 MUL PUSH1 0x20 ADD PUSH1 0x40 MLOAD SWAP1 DUP2 ADD PUSH1 0x40 MSTORE DUP1 SWAP3 SWAP2 SWAP1 DUP2 DUP2 MSTORE PUSH1 0x20 ADD DUP3 DUP1 SLOAD DUP1 ISZERO PUSH2 0x1CD9 JUMPI PUSH1 0x20 MUL DUP3 ADD SWAP2 SWAP1 PUSH1 0x0 MSTORE PUSH1 0x20 PUSH1 0x0 KECCAK256 SWAP1 PUSH1 0x0 SWAP1 JUMPDEST DUP3 DUP3 SWAP1 SLOAD SWAP1 PUSH2 0x100 EXP SWAP1 DIV PUSH2 0xFFFF AND PUSH2 0xFFFF AND DUP2 MSTORE PUSH1 0x20 ADD SWAP1 PUSH1 0x2 ADD SWAP1 PUSH1 0x20 DUP3 PUSH1 0x1 ADD DIV SWAP3 DUP4 ADD SWAP3 PUSH1 0x1 SUB DUP3 MUL SWAP2 POP DUP1 DUP5 GT PUSH2 0x1CA0 JUMPI SWAP1 POP JUMPDEST POP POP POP POP POP SWAP1 POP SWAP2 SWAP4 SWAP6 SWAP8 POP SWAP2 SWAP4 SWAP6 SWAP8 JUMP JUMPDEST PUSH1 0x0 DUP1 PUSH1 0x0 PUSH1 0x7 PUSH1 0x0 SWAP1 SLOAD SWAP1 PUSH2 0x100 EXP SWAP1 DIV PUSH20 0xFFFFFFFFFFFFFFFFFFFFFFFFFFFFFFFFFFFFFFFF AND PUSH20 0xFFFFFFFFFFFFFFFFFFFFFFFFFFFFFFFFFFFFFFFF AND CALLER PUSH20 0xFFFFFFFFFFFFFFFFFFFFFFFFFFFFFFFFFFFFFFFF AND EQ ISZERO ISZERO PUSH2 0x1DB5 JUMPI PUSH1 0x40 MLOAD PUSH32 0x8C379A000000000000000000000000000000000000000000000000000000000 DUP2 MSTORE PUSH1 0x4 ADD DUP1 DUP1 PUSH1 0x20 ADD DUP3 DUP2 SUB DUP3 MSTORE PUSH1 0x18 DUP2 MSTORE PUSH1 0x20 ADD DUP1 PUSH32 0x53656E646572206973206E6F7420617574686F72697A65640000000000000000 DUP2 MSTORE POP PUSH1 0x20 ADD SWAP2 POP POP PUSH1 0x40 MLOAD DUP1 SWAP2 SUB SWAP1 REVERT JUMPDEST PUSH1 0x1 ISZERO ISZERO PUSH1 0x3 PUSH1 0x0 DUP10 PUSH1 0x0 NOT AND PUSH1 0x0 NOT AND DUP2 MSTORE PUSH1 0x20 ADD SWAP1 DUP2 MSTORE PUSH1 0x20 ADD PUSH1 0x0 KECCAK256 PUSH1 0x3 ADD PUSH1 0x9 SWAP1 SLOAD SWAP1 PUSH2 0x100 EXP SWAP1 DIV PUSH1 0xFF AND ISZERO ISZERO EQ ISZERO ISZERO PUSH2 0x1E5C JUMPI PUSH1 0x40 MLOAD PUSH32 0x8C379A000000000000000000000000000000000000000000000000000000000 DUP2 MSTORE PUSH1 0x4 ADD DUP1 DUP1 PUSH1 0x20 ADD DUP3 DUP2 SUB DUP3 MSTORE PUSH1 0x12 DUP2 MSTORE PUSH1 0x20 ADD DUP1 PUSH32 0x506C6F7420646F65736E27742065786973740000000000000000000000000000 DUP2 MSTORE POP PUSH1 0x20 ADD SWAP2 POP POP PUSH1 0x40 MLOAD DUP1 SWAP2 SUB SWAP1 REVERT JUMPDEST DUP8 DUP8 PUSH1 0x40 MLOAD PUSH1 0x20 ADD DUP1 DUP4 PUSH8 0xFFFFFFFFFFFFFFFF AND PUSH8 0xFFFFFFFFFFFFFFFF AND PUSH25 0x1000000000000000000000000000000000000000000000000 MUL DUP2 MSTORE PUSH1 0x8 ADD DUP3 PUSH1 0x0 NOT AND PUSH1 0x0 NOT AND DUP2 MSTORE PUSH1 0x20 ADD SWAP3 POP POP POP PUSH1 0x40 MLOAD PUSH1 0x20 DUP2 DUP4 SUB SUB DUP2 MSTORE SWAP1 PUSH1 0x40 MSTORE PUSH1 0x40 MLOAD DUP1 DUP3 DUP1 MLOAD SWAP1 PUSH1 0x20 ADD SWAP1 DUP1 DUP4 DUP4 JUMPDEST PUSH1 0x20 DUP4 LT ISZERO ISZERO PUSH2 0x1EF0 JUMPI DUP1 MLOAD DUP3 MSTORE PUSH1 0x20 DUP3 ADD SWAP2 POP PUSH1 0x20 DUP2 ADD SWAP1 POP PUSH1 0x20 DUP4 SUB SWAP3 POP PUSH2 0x1ECB JUMP JUMPDEST PUSH1 0x1 DUP4 PUSH1 0x20 SUB PUSH2 0x100 EXP SUB DUP1 NOT DUP3 MLOAD AND DUP2 DUP5 MLOAD AND DUP1 DUP3 OR DUP6 MSTORE POP POP POP POP POP POP SWAP1 POP ADD SWAP2 POP POP PUSH1 0x40 MLOAD DUP1 SWAP2 SUB SWAP1 KECCAK256 SWAP3 POP PUSH1 0x1 ISZERO ISZERO PUSH1 0x5 PUSH1 0x0 DUP6 PUSH1 0x0 NOT AND PUSH1 0x0 NOT AND DUP2 MSTORE PUSH1 0x20 ADD SWAP1 DUP2 MSTORE PUSH1 0x20 ADD PUSH1 0x0 KECCAK256 PUSH1 0x8 ADD PUSH1 0x0 SWAP1 SLOAD SWAP1 PUSH2 0x100 EXP SWAP1 DIV PUSH1 0xFF AND ISZERO ISZERO EQ ISZERO ISZERO ISZERO PUSH2 0x1FC7 JUMPI PUSH1 0x40 MLOAD PUSH32 0x8C379A000000000000000000000000000000000000000000000000000000000 DUP2 MSTORE PUSH1 0x4 ADD DUP1 DUP1 PUSH1 0x20 ADD DUP3 DUP2 SUB DUP3 MSTORE PUSH1 0x16 DUP2 MSTORE PUSH1 0x20 ADD DUP1 PUSH32 0x4B68617469616E20616C72656164792065786973747300000000000000000000 DUP2 MSTORE POP PUSH1 0x20 ADD SWAP2 POP POP PUSH1 0x40 MLOAD DUP1 SWAP2 SUB SWAP1 REVERT JUMPDEST PUSH1 0x0 SWAP2 POP JUMPDEST DUP5 MLOAD DUP3 LT ISZERO PUSH2 0x2098 JUMPI PUSH1 0x1 ISZERO ISZERO PUSH1 0x1 PUSH1 0x0 DUP8 DUP6 DUP2 MLOAD DUP2 LT ISZERO ISZERO PUSH2 0x1FEB JUMPI INVALID JUMPDEST SWAP1 PUSH1 0x20 ADD SWAP1 PUSH1 0x20 MUL ADD MLOAD DUP2 MSTORE PUSH1 0x20 ADD SWAP1 DUP2 MSTORE PUSH1 0x20 ADD PUSH1 0x0 KECCAK256 PUSH1 0x6 ADD PUSH1 0x0 SWAP1 SLOAD SWAP1 PUSH2 0x100 EXP SWAP1 DIV PUSH1 0xFF AND ISZERO ISZERO EQ ISZERO ISZERO PUSH2 0x208B JUMPI PUSH1 0x40 MLOAD PUSH32 0x8C379A000000000000000000000000000000000000000000000000000000000 DUP2 MSTORE PUSH1 0x4 ADD DUP1 DUP1 PUSH1 0x20 ADD DUP3 DUP2 SUB DUP3 MSTORE PUSH1 0x18 DUP2 MSTORE PUSH1 0x20 ADD DUP1 PUSH32 0x557365722773204E494420646F65736E27742065786973740000000000000000 DUP2 MSTORE POP PUSH1 0x20 ADD SWAP2 POP POP PUSH1 0x40 MLOAD DUP1 SWAP2 SUB SWAP1 REVERT JUMPDEST DUP2 DUP1 PUSH1 0x1 ADD SWAP3 POP POP PUSH2 0x1FCC JUMP JUMPDEST DUP8 PUSH1 0x5 PUSH1 0x0 DUP6 PUSH1 0x0 NOT AND PUSH1 0x0 NOT AND DUP2 MSTORE PUSH1 0x20 ADD SWAP1 DUP2 MSTORE PUSH1 0x20 ADD PUSH1 0x0 KECCAK256 PUSH1 0x0 ADD PUSH1 0x0 PUSH2 0x100 EXP DUP2 SLOAD DUP2 PUSH8 0xFFFFFFFFFFFFFFFF MUL NOT AND SWAP1 DUP4 PUSH8 0xFFFFFFFFFFFFFFFF AND MUL OR SWAP1 SSTORE POP DUP7 PUSH1 0x5 PUSH1 0x0 DUP6 PUSH1 0x0 NOT AND PUSH1 0x0 NOT AND DUP2 MSTORE PUSH1 0x20 ADD SWAP1 DUP2 MSTORE PUSH1 0x20 ADD PUSH1 0x0 KECCAK256 PUSH1 0x1 ADD DUP2 PUSH1 0x0 NOT AND SWAP1 SSTORE POP DUP6 PUSH1 0x5 PUSH1 0x0 DUP6 PUSH1 0x0 NOT AND PUSH1 0x0 NOT AND DUP2 MSTORE PUSH1 0x20 ADD SWAP1 DUP2 MSTORE PUSH1 0x20 ADD PUSH1 0x0 KECCAK256 PUSH1 0x2 ADD PUSH1 0x0 PUSH2 0x100 EXP DUP2 SLOAD DUP2 PUSH2 0xFFFF MUL NOT AND SWAP1 DUP4 PUSH2 0xFFFF AND MUL OR SWAP1 SSTORE POP PUSH1 0x1 PUSH1 0x5 PUSH1 0x0 DUP6 PUSH1 0x0 NOT AND PUSH1 0x0 NOT AND DUP2 MSTORE PUSH1 0x20 ADD SWAP1 DUP2 MSTORE PUSH1 0x20 ADD PUSH1 0x0 KECCAK256 PUSH1 0x8 ADD PUSH1 0x0 PUSH2 0x100 EXP DUP2 SLOAD DUP2 PUSH1 0xFF MUL NOT AND SWAP1 DUP4 ISZERO ISZERO MUL OR SWAP1 SSTORE POP DUP4 PUSH1 0x5 PUSH1 0x0 DUP6 PUSH1 0x0 NOT AND PUSH1 0x0 NOT AND DUP2 MSTORE PUSH1 0x20 ADD SWAP1 DUP2 MSTORE PUSH1 0x20 ADD PUSH1 0x0 KECCAK256 PUSH1 0x7 ADD SWAP1 DUP1 MLOAD SWAP1 PUSH1 0x20 ADD SWAP1 PUSH2 0x21A6 SWAP3 SWAP2 SWAP1 PUSH2 0x2C72 JUMP JUMPDEST POP DUP5 PUSH1 0x5 PUSH1 0x0 DUP6 PUSH1 0x0 NOT AND PUSH1 0x0 NOT AND DUP2 MSTORE PUSH1 0x20 ADD SWAP1 DUP2 MSTORE PUSH1 0x20 ADD PUSH1 0x0 KECCAK256 PUSH1 0x6 ADD SWAP1 DUP1 MLOAD SWAP1 PUSH1 0x20 ADD SWAP1 PUSH2 0x21D9 SWAP3 SWAP2 SWAP1 PUSH2 0x2D1C JUMP JUMPDEST POP PUSH1 0x0 SWAP1 POP JUMPDEST DUP5 MLOAD DUP2 LT ISZERO PUSH2 0x2216 JUMPI PUSH2 0x2209 DUP6 DUP3 DUP2 MLOAD DUP2 LT ISZERO ISZERO PUSH2 0x21F9 JUMPI INVALID JUMPDEST SWAP1 PUSH1 0x20 ADD SWAP1 PUSH1 0x20 MUL ADD MLOAD DUP5 PUSH2 0x231C JUMP JUMPDEST DUP1 DUP1 PUSH1 0x1 ADD SWAP2 POP POP PUSH2 0x21DF JUMP JUMPDEST PUSH1 0x6 DUP4 SWAP1 DUP1 PUSH1 0x1 DUP2 SLOAD ADD DUP1 DUP3 SSTORE DUP1 SWAP2 POP POP SWAP1 PUSH1 0x1 DUP3 SUB SWAP1 PUSH1 0x0 MSTORE PUSH1 0x20 PUSH1 0x0 KECCAK256 ADD PUSH1 0x0 SWAP1 SWAP2 SWAP3 SWAP1 SWAP2 SWAP1 SWAP2 POP SWAP1 PUSH1 0x0 NOT AND SWAP1 SSTORE POP PUSH32 0x1235DF36D9864C1784CA3D5AD4397D04E3980ECF0FF7A703258C3FB6D4ABF8AD DUP4 PUSH1 0x40 MLOAD DUP1 DUP3 PUSH1 0x0 NOT AND PUSH1 0x0 NOT AND DUP2 MSTORE PUSH1 0x20 ADD SWAP2 POP POP PUSH1 0x40 MLOAD DUP1 SWAP2 SUB SWAP1 LOG1 POP POP POP POP POP POP POP POP JUMP JUMPDEST PUSH1 0x0 PUSH1 0x60 PUSH1 0x0 DUP1 DUP5 DUP2 MSTORE PUSH1 0x20 ADD SWAP1 DUP2 MSTORE PUSH1 0x20 ADD PUSH1 0x0 KECCAK256 PUSH1 0x0 ADD SLOAD SWAP2 POP PUSH1 0x0 DUP1 DUP5 DUP2 MSTORE PUSH1 0x20 ADD SWAP1 DUP2 MSTORE PUSH1 0x20 ADD PUSH1 0x0 KECCAK256 PUSH1 0x1 ADD DUP1 SLOAD DUP1 PUSH1 0x20 MUL PUSH1 0x20 ADD PUSH1 0x40 MLOAD SWAP1 DUP2 ADD PUSH1 0x40 MSTORE DUP1 SWAP3 SWAP2 SWAP1 DUP2 DUP2 MSTORE PUSH1 0x20 ADD DUP3 DUP1 SLOAD DUP1 ISZERO PUSH2 0x2310 JUMPI PUSH1 0x20 MUL DUP3 ADD SWAP2 SWAP1 PUSH1 0x0 MSTORE PUSH1 0x20 PUSH1 0x0 KECCAK256 SWAP1 JUMPDEST DUP2 SLOAD PUSH1 0x0 NOT AND DUP2 MSTORE PUSH1 0x20 ADD SWAP1 PUSH1 0x1 ADD SWAP1 DUP1 DUP4 GT PUSH2 0x22F8 JUMPI JUMPDEST POP POP POP POP POP SWAP1 POP SWAP2 POP SWAP2 JUMP JUMPDEST PUSH1 0x0 DUP1 DUP4 DUP2 MSTORE PUSH1 0x20 ADD SWAP1 DUP2 MSTORE PUSH1 0x20 ADD PUSH1 0x0 KECCAK256 PUSH1 0x0 ADD PUSH1 0x0 DUP2 SLOAD DUP1 SWAP3 SWAP2 SWAP1 PUSH1 0x1 ADD SWAP2 SWAP1 POP SSTORE POP PUSH1 0x0 DUP1 DUP4 DUP2 MSTORE PUSH1 0x20 ADD SWAP1 DUP2 MSTORE PUSH1 0x20 ADD PUSH1 0x0 KECCAK256 PUSH1 0x1 ADD DUP2 SWAP1 DUP1 PUSH1 0x1 DUP2 SLOAD ADD DUP1 DUP3 SSTORE DUP1 SWAP2 POP POP SWAP1 PUSH1 0x1 DUP3 SUB SWAP1 PUSH1 0x0 MSTORE PUSH1 0x20 PUSH1 0x0 KECCAK256 ADD PUSH1 0x0 SWAP1 SWAP2 SWAP3 SWAP1 SWAP2 SWAP1 SWAP2 POP SWAP1 PUSH1 0x0 NOT AND SWAP1 SSTORE POP POP POP JUMP JUMPDEST PUSH1 0x0 PUSH1 0x2 DUP3 DUP2 SLOAD DUP2 LT ISZERO ISZERO PUSH2 0x239B JUMPI INVALID JUMPDEST SWAP1 PUSH1 0x0 MSTORE PUSH1 0x20 PUSH1 0x0 KECCAK256 ADD SLOAD SWAP1 POP SWAP2 SWAP1 POP JUMP JUMPDEST PUSH1 0x0 PUSH1 0x6 DUP3 DUP2 SLOAD DUP2 LT ISZERO ISZERO PUSH2 0x23BE JUMPI INVALID JUMPDEST SWAP1 PUSH1 0x0 MSTORE PUSH1 0x20 PUSH1 0x0 KECCAK256 ADD SLOAD SWAP1 POP SWAP2 SWAP1 POP JUMP JUMPDEST PUSH1 0x0 DUP1 PUSH1 0x0 DUP1 PUSH1 0x0 DUP1 PUSH1 0x0 PUSH1 0x1 ISZERO ISZERO PUSH1 0x3 PUSH1 0x0 DUP11 PUSH1 0x0 NOT AND PUSH1 0x0 NOT AND DUP2 MSTORE PUSH1 0x20 ADD SWAP1 DUP2 MSTORE PUSH1 0x20 ADD PUSH1 0x0 KECCAK256 PUSH1 0x3 ADD PUSH1 0x9 SWAP1 SLOAD SWAP1 PUSH2 0x100 EXP SWAP1 DIV PUSH1 0xFF AND ISZERO ISZERO EQ ISZERO ISZERO PUSH2 0x2482 JUMPI PUSH1 0x40 MLOAD PUSH32 0x8C379A000000000000000000000000000000000000000000000000000000000 DUP2 MSTORE PUSH1 0x4 ADD DUP1 DUP1 PUSH1 0x20 ADD DUP3 DUP2 SUB DUP3 MSTORE PUSH1 0x12 DUP2 MSTORE PUSH1 0x20 ADD DUP1 PUSH32 0x506C6F7420646F65736E27742065786973740000000000000000000000000000 DUP2 MSTORE POP PUSH1 0x20 ADD SWAP2 POP POP PUSH1 0x40 MLOAD DUP1 SWAP2 SUB SWAP1 REVERT JUMPDEST PUSH1 0x3 PUSH1 0x0 DUP10 PUSH1 0x0 NOT AND PUSH1 0x0 NOT AND DUP2 MSTORE PUSH1 0x20 ADD SWAP1 DUP2 MSTORE PUSH1 0x20 ADD PUSH1 0x0 KECCAK256 PUSH1 0x0 ADD SLOAD SWAP7 POP PUSH1 0x3 PUSH1 0x0 DUP10 PUSH1 0x0 NOT AND PUSH1 0x0 NOT AND DUP2 MSTORE PUSH1 0x20 ADD SWAP1 DUP2 MSTORE PUSH1 0x20 ADD PUSH1 0x0 KECCAK256 PUSH1 0x1 ADD SLOAD SWAP6 POP PUSH1 0x3 PUSH1 0x0 DUP10 PUSH1 0x0 NOT AND PUSH1 0x0 NOT AND DUP2 MSTORE PUSH1 0x20 ADD SWAP1 DUP2 MSTORE PUSH1 0x20 ADD PUSH1 0x0 KECCAK256 PUSH1 0x2 ADD SLOAD SWAP5 POP PUSH1 0x3 PUSH1 0x0 DUP10 PUSH1 0x0 NOT AND PUSH1 0x0 NOT AND DUP2 MSTORE PUSH1 0x20 ADD SWAP1 DUP2 MSTORE PUSH1 0x20 ADD PUSH1 0x0 KECCAK256 PUSH1 0x3 ADD PUSH1 0x0 SWAP1 SLOAD SWAP1 PUSH2 0x100 EXP SWAP1 DIV PUSH2 0xFFFF AND SWAP4 POP PUSH1 0x3 PUSH1 0x0 DUP10 PUSH1 0x0 NOT AND PUSH1 0x0 NOT AND DUP2 MSTORE PUSH1 0x20 ADD SWAP1 DUP2 MSTORE PUSH1 0x20 ADD PUSH1 0x0 KECCAK256 PUSH1 0x3 ADD PUSH1 0x2 SWAP1 SLOAD SWAP1 PUSH2 0x100 EXP SWAP1 DIV PUSH2 0xFFFF AND SWAP3 POP PUSH1 0x3 PUSH1 0x0 DUP10 PUSH1 0x0 NOT AND PUSH1 0x0 NOT AND DUP2 MSTORE PUSH1 0x20 ADD SWAP1 DUP2 MSTORE PUSH1 0x20 ADD PUSH1 0x0 KECCAK256 PUSH1 0x3 ADD PUSH1 0x4 SWAP1 SLOAD SWAP1 PUSH2 0x100 EXP SWAP1 DIV PUSH1 0xFF AND SWAP2 POP PUSH1 0x3 PUSH1 0x0 DUP10 PUSH1 0x0 NOT AND PUSH1 0x0 NOT AND DUP2 MSTORE PUSH1 0x20 ADD SWAP1 DUP2 MSTORE PUSH1 0x20 ADD PUSH1 0x0 KECCAK256 PUSH1 0x3 ADD PUSH1 0x5 SWAP1 SLOAD SWAP1 PUSH2 0x100 EXP SWAP1 DIV PUSH4 0xFFFFFFFF AND SWAP1 POP SWAP2 SWAP4 SWAP6 SWAP8 SWAP1 SWAP3 SWAP5 SWAP7 POP JUMP JUMPDEST PUSH1 0x0 PUSH1 0x6 DUP1 SLOAD SWAP1 POP SWAP1 POP SWAP1 JUMP JUMPDEST PUSH1 0x7 PUSH1 0x0 SWAP1 SLOAD SWAP1 PUSH2 0x100 EXP SWAP1 DIV PUSH20 0xFFFFFFFFFFFFFFFFFFFFFFFFFFFFFFFFFFFFFFFF AND PUSH20 0xFFFFFFFFFFFFFFFFFFFFFFFFFFFFFFFFFFFFFFFF AND CALLER PUSH20 0xFFFFFFFFFFFFFFFFFFFFFFFFFFFFFFFFFFFFFFFF AND EQ ISZERO ISZERO PUSH2 0x267F JUMPI PUSH1 0x40 MLOAD PUSH32 0x8C379A000000000000000000000000000000000000000000000000000000000 DUP2 MSTORE PUSH1 0x4 ADD DUP1 DUP1 PUSH1 0x20 ADD DUP3 DUP2 SUB DUP3 MSTORE PUSH1 0x16 DUP2 MSTORE PUSH1 0x20 ADD DUP1 PUSH32 0x596F7520617265206E6F7420617574686F72697A656400000000000000000000 DUP2 MSTORE POP PUSH1 0x20 ADD SWAP2 POP POP PUSH1 0x40 MLOAD DUP1 SWAP2 SUB SWAP1 REVERT JUMPDEST PUSH2 0x2688 DUP8 PUSH2 0x2915 JUMP JUMPDEST SWAP7 POP PUSH2 0x2693 DUP7 PUSH2 0x2915 JUMP JUMPDEST SWAP6 POP PUSH2 0x269E DUP6 PUSH2 0x2915 JUMP JUMPDEST SWAP5 POP PUSH2 0x26A9 DUP5 PUSH2 0x2915 JUMP JUMPDEST SWAP4 POP PUSH2 0x26B4 DUP3 PUSH2 0x2915 JUMP JUMPDEST SWAP2 POP PUSH1 0x0 ISZERO ISZERO PUSH1 0x1 PUSH1 0x0 DUP4 DUP2 MSTORE PUSH1 0x20 ADD SWAP1 DUP2 MSTORE PUSH1 0x20 ADD PUSH1 0x0 KECCAK256 PUSH1 0x6 ADD PUSH1 0x0 SWAP1 SLOAD SWAP1 PUSH2 0x100 EXP SWAP1 DIV PUSH1 0xFF AND ISZERO ISZERO EQ ISZERO ISZERO PUSH2 0x2755 JUMPI PUSH1 0x40 MLOAD PUSH32 0x8C379A000000000000000000000000000000000000000000000000000000000 DUP2 MSTORE PUSH1 0x4 ADD DUP1 DUP1 PUSH1 0x20 ADD DUP3 DUP2 SUB DUP3 MSTORE PUSH1 0x12 DUP2 MSTORE PUSH1 0x20 ADD DUP1 PUSH32 0x5573657220616C72656164792065786973740000000000000000000000000000 DUP2 MSTORE POP PUSH1 0x20 ADD SWAP2 POP POP PUSH1 0x40 MLOAD DUP1 SWAP2 SUB SWAP1 REVERT JUMPDEST PUSH2 0x275E DUP8 PUSH2 0x2C47 JUMP JUMPDEST PUSH1 0x1 PUSH1 0x0 DUP4 DUP2 MSTORE PUSH1 0x20 ADD SWAP1 DUP2 MSTORE PUSH1 0x20 ADD PUSH1 0x0 KECCAK256 PUSH1 0x0 ADD DUP2 PUSH1 0x0 NOT AND SWAP1 SSTORE POP PUSH2 0x2785 DUP7 PUSH2 0x2C47 JUMP JUMPDEST PUSH1 0x1 PUSH1 0x0 DUP4 DUP2 MSTORE PUSH1 0x20 ADD SWAP1 DUP2 MSTORE PUSH1 0x20 ADD PUSH1 0x0 KECCAK256 PUSH1 0x1 ADD DUP2 PUSH1 0x0 NOT AND SWAP1 SSTORE POP PUSH2 0x27AC DUP6 PUSH2 0x2C47 JUMP JUMPDEST PUSH1 0x1 PUSH1 0x0 DUP4 DUP2 MSTORE PUSH1 0x20 ADD SWAP1 DUP2 MSTORE PUSH1 0x20 ADD PUSH1 0x0 KECCAK256 PUSH1 0x2 ADD DUP2 PUSH1 0x0 NOT AND SWAP1 SSTORE POP PUSH2 0x27D3 DUP5 PUSH2 0x2C47 JUMP JUMPDEST PUSH1 0x1 PUSH1 0x0 DUP4 DUP2 MSTORE PUSH1 0x20 ADD SWAP1 DUP2 MSTORE PUSH1 0x20 ADD PUSH1 0x0 KECCAK256 PUSH1 0x3 ADD DUP2 PUSH1 0x0 NOT AND SWAP1 SSTORE POP DUP3 PUSH1 0x1 PUSH1 0x0 DUP4 DUP2 MSTORE PUSH1 0x20 ADD SWAP1 DUP2 MSTORE PUSH1 0x20 ADD PUSH1 0x0 KECCAK256 PUSH1 0x4 ADD PUSH1 0x0 PUSH2 0x100 EXP DUP2 SLOAD DUP2 PUSH3 0xFFFFFF MUL NOT AND SWAP1 DUP4 PUSH3 0xFFFFFF AND MUL OR SWAP1 SSTORE POP PUSH2 0x282D DUP3 PUSH2 0x2C47 JUMP JUMPDEST PUSH1 0x1 PUSH1 0x0 DUP4 DUP2 MSTORE PUSH1 0x20 ADD SWAP1 DUP2 MSTORE PUSH1 0x20 ADD PUSH1 0x0 KECCAK256 PUSH1 0x5 ADD DUP2 PUSH1 0x0 NOT AND SWAP1 SSTORE POP PUSH1 0x1 DUP1 PUSH1 0x0 DUP4 DUP2 MSTORE PUSH1 0x20 ADD SWAP1 DUP2 MSTORE PUSH1 0x20 ADD PUSH1 0x0 KECCAK256 PUSH1 0x6 ADD PUSH1 0x0 PUSH2 0x100 EXP DUP2 SLOAD DUP2 PUSH1 0xFF MUL NOT AND SWAP1 DUP4 ISZERO ISZERO MUL OR SWAP1 SSTORE POP PUSH1 0x2 DUP2 SWAP1 DUP1 PUSH1 0x1 DUP2 SLOAD ADD DUP1 DUP3 SSTORE DUP1 SWAP2 POP POP SWAP1 PUSH1 0x1 DUP3 SUB SWAP1 PUSH1 0x0 MSTORE PUSH1 0x20 PUSH1 0x0 KECCAK256 ADD PUSH1 0x0 SWAP1 SWAP2 SWAP3 SWAP1 SWAP2 SWAP1 SWAP2 POP SSTORE POP PUSH32 0x535C24547B8A1CFA77510748C335F9AB25A87CAEBE01C8B706C21CC4585787DB DUP2 PUSH1 0x40 MLOAD DUP1 DUP3 DUP2 MSTORE PUSH1 0x20 ADD SWAP2 POP POP PUSH1 0x40 MLOAD DUP1 SWAP2 SUB SWAP1 LOG1 POP POP POP POP POP POP POP JUMP JUMPDEST PUSH1 0x0 PUSH1 0x4 DUP3 DUP2 SLOAD DUP2 LT ISZERO ISZERO PUSH2 0x28F6 JUMPI INVALID JUMPDEST SWAP1 PUSH1 0x0 MSTORE PUSH1 0x20 PUSH1 0x0 KECCAK256 ADD SLOAD SWAP1 POP SWAP2 SWAP1 POP JUMP JUMPDEST PUSH1 0x0 PUSH1 0x2 DUP1 SLOAD SWAP1 POP SWAP1 POP SWAP1 JUMP JUMPDEST PUSH1 0x60 DUP1 PUSH1 0x60 PUSH1 0x0 DUP5 SWAP3 POP DUP3 MLOAD PUSH1 0x40 MLOAD SWAP1 DUP1 DUP3 MSTORE DUP1 PUSH1 0x1F ADD PUSH1 0x1F NOT AND PUSH1 0x20 ADD DUP3 ADD PUSH1 0x40 MSTORE DUP1 ISZERO PUSH2 0x2953 JUMPI DUP2 PUSH1 0x20 ADD PUSH1 0x20 DUP3 MUL DUP1 CODESIZE DUP4 CODECOPY DUP1 DUP3 ADD SWAP2 POP POP SWAP1 POP JUMPDEST POP SWAP2 POP PUSH1 0x0 SWAP1 POP JUMPDEST DUP3 MLOAD DUP2 LT ISZERO PUSH2 0x2C3C JUMPI PUSH1 0x61 PUSH32 0x100000000000000000000000000000000000000000000000000000000000000 MUL DUP4 DUP3 DUP2 MLOAD DUP2 LT ISZERO ISZERO PUSH2 0x2996 JUMPI INVALID JUMPDEST SWAP1 PUSH1 0x20 ADD ADD MLOAD PUSH32 0x100000000000000000000000000000000000000000000000000000000000000 SWAP1 DIV PUSH32 0x100000000000000000000000000000000000000000000000000000000000000 MUL PUSH31 0xFFFFFFFFFFFFFFFFFFFFFFFFFFFFFFFFFFFFFFFFFFFFFFFFFFFFFFFFFFFFFF NOT AND LT ISZERO DUP1 ISZERO PUSH2 0x2AAE JUMPI POP PUSH1 0x7A PUSH32 0x100000000000000000000000000000000000000000000000000000000000000 MUL DUP4 DUP3 DUP2 MLOAD DUP2 LT ISZERO ISZERO PUSH2 0x2A3E JUMPI INVALID JUMPDEST SWAP1 PUSH1 0x20 ADD ADD MLOAD PUSH32 0x100000000000000000000000000000000000000000000000000000000000000 SWAP1 DIV PUSH32 0x100000000000000000000000000000000000000000000000000000000000000 MUL PUSH31 0xFFFFFFFFFFFFFFFFFFFFFFFFFFFFFFFFFFFFFFFFFFFFFFFFFFFFFFFFFFFFFF NOT AND GT ISZERO JUMPDEST ISZERO PUSH2 0x2B97 JUMPI PUSH1 0x20 DUP4 DUP3 DUP2 MLOAD DUP2 LT ISZERO ISZERO PUSH2 0x2AC3 JUMPI INVALID JUMPDEST SWAP1 PUSH1 0x20 ADD ADD MLOAD PUSH32 0x100000000000000000000000000000000000000000000000000000000000000 SWAP1 DIV PUSH32 0x100000000000000000000000000000000000000000000000000000000000000 MUL PUSH32 0x100000000000000000000000000000000000000000000000000000000000000 SWAP1 DIV SUB PUSH32 0x100000000000000000000000000000000000000000000000000000000000000 MUL DUP3 DUP3 DUP2 MLOAD DUP2 LT ISZERO ISZERO PUSH2 0x2B62 JUMPI INVALID JUMPDEST SWAP1 PUSH1 0x20 ADD ADD SWAP1 PUSH31 0xFFFFFFFFFFFFFFFFFFFFFFFFFFFFFFFFFFFFFFFFFFFFFFFFFFFFFFFFFFFFFF NOT AND SWAP1 DUP2 PUSH1 0x0 BYTE SWAP1 MSTORE8 POP PUSH2 0x2C2F JUMP JUMPDEST DUP3 DUP2 DUP2 MLOAD DUP2 LT ISZERO ISZERO PUSH2 0x2BA5 JUMPI INVALID JUMPDEST SWAP1 PUSH1 0x20 ADD ADD MLOAD PUSH32 0x100000000000000000000000000000000000000000000000000000000000000 SWAP1 DIV PUSH32 0x100000000000000000000000000000000000000000000000000000000000000 MUL DUP3 DUP3 DUP2 MLOAD DUP2 LT ISZERO ISZERO PUSH2 0x2BFE JUMPI INVALID JUMPDEST SWAP1 PUSH1 0x20 ADD ADD SWAP1 PUSH31 0xFFFFFFFFFFFFFFFFFFFFFFFFFFFFFFFFFFFFFFFFFFFFFFFFFFFFFFFFFFFFFF NOT AND SWAP1 DUP2 PUSH1 0x0 BYTE SWAP1 MSTORE8 POP JUMPDEST DUP1 DUP1 PUSH1 0x1 ADD SWAP2 POP POP PUSH2 0x295B JUMP JUMPDEST DUP2 SWAP4 POP POP POP POP SWAP2 SWAP1 POP JUMP JUMPDEST PUSH1 0x0 PUSH1 0x60 DUP3 SWAP1 POP PUSH1 0x0 DUP2 MLOAD EQ ISZERO PUSH2 0x2C64 JUMPI PUSH1 0x0 PUSH1 0x1 MUL SWAP2 POP PUSH2 0x2C6C JUMP JUMPDEST PUSH1 0x20 DUP4 ADD MLOAD SWAP2 POP JUMPDEST POP SWAP2 SWAP1 POP JUMP JUMPDEST DUP3 DUP1 SLOAD DUP3 DUP3 SSTORE SWAP1 PUSH1 0x0 MSTORE PUSH1 0x20 PUSH1 0x0 KECCAK256 SWAP1 PUSH1 0xF ADD PUSH1 0x10 SWAP1 DIV DUP2 ADD SWAP3 DUP3 ISZERO PUSH2 0x2D0B JUMPI SWAP2 PUSH1 0x20 MUL DUP3 ADD PUSH1 0x0 JUMPDEST DUP4 DUP3 GT ISZERO PUSH2 0x2CDB JUMPI DUP4 MLOAD DUP4 DUP3 PUSH2 0x100 EXP DUP2 SLOAD DUP2 PUSH2 0xFFFF MUL NOT AND SWAP1 DUP4 PUSH2 0xFFFF AND MUL OR SWAP1 SSTORE POP SWAP3 PUSH1 0x20 ADD SWAP3 PUSH1 0x2 ADD PUSH1 0x20 DUP2 PUSH1 0x1 ADD DIV SWAP3 DUP4 ADD SWAP3 PUSH1 0x1 SUB MUL PUSH2 0x2C9B JUMP JUMPDEST DUP1 ISZERO PUSH2 0x2D09 JUMPI DUP3 DUP2 PUSH2 0x100 EXP DUP2 SLOAD SWAP1 PUSH2 0xFFFF MUL NOT AND SWAP1 SSTORE PUSH1 0x2 ADD PUSH1 0x20 DUP2 PUSH1 0x1 ADD DIV SWAP3 DUP4 ADD SWAP3 PUSH1 0x1 SUB MUL PUSH2 0x2CDB JUMP JUMPDEST POP JUMPDEST POP SWAP1 POP PUSH2 0x2D18 SWAP2 SWAP1 PUSH2 0x2D69 JUMP JUMPDEST POP SWAP1 JUMP JUMPDEST DUP3 DUP1 SLOAD DUP3 DUP3 SSTORE SWAP1 PUSH1 0x0 MSTORE PUSH1 0x20 PUSH1 0x0 KECCAK256 SWAP1 DUP2 ADD SWAP3 DUP3 ISZERO PUSH2 0x2D58 JUMPI SWAP2 PUSH1 0x20 MUL DUP3 ADD JUMPDEST DUP3 DUP2 GT ISZERO PUSH2 0x2D57 JUMPI DUP3 MLOAD DUP3 SSTORE SWAP2 PUSH1 0x20 ADD SWAP2 SWAP1 PUSH1 0x1 ADD SWAP1 PUSH2 0x2D3C JUMP JUMPDEST JUMPDEST POP SWAP1 POP PUSH2 0x2D65 SWAP2 SWAP1 PUSH2 0x2D9A JUMP JUMPDEST POP SWAP1 JUMP JUMPDEST PUSH2 0x2D97 SWAP2 SWAP1 JUMPDEST DUP1 DUP3 GT ISZERO PUSH2 0x2D93 JUMPI PUSH1 0x0 DUP2 DUP2 PUSH2 0x100 EXP DUP2 SLOAD SWAP1 PUSH2 0xFFFF MUL NOT AND SWAP1 SSTORE POP PUSH1 0x1 ADD PUSH2 0x2D6F JUMP JUMPDEST POP SWAP1 JUMP JUMPDEST SWAP1 JUMP JUMPDEST PUSH2 0x2DBC SWAP2 SWAP1 JUMPDEST DUP1 DUP3 GT ISZERO PUSH2 0x2DB8 JUMPI PUSH1 0x0 DUP2 PUSH1 0x0 SWAP1 SSTORE POP PUSH1 0x1 ADD PUSH2 0x2DA0 JUMP JUMPDEST POP SWAP1 JUMP JUMPDEST SWAP1 JUMP STOP LOG1 PUSH6 0x627A7A723058 KECCAK256 0xb6 STATICCALL DELEGATECALL PUSH17 0xD1C03E26F3404D5CE41E0872587E80F022 DUP3 MSTORE8 0xde 0xe8 SIGNEXTEND 0xd6 SELFDESTRUCT PUSH24 0xFA75ED002900000000000000000000000000000000000000 "
				},
				"gasEstimates": {
					"creation": {
						"codeDepositCost": "2351000",
						"executionCost": "22789",
						"totalCost": "2373789"
					},
					"external": {
						"addKhatianFromOld(uint64,bytes32,uint16,bytes32,uint256[],uint16[])": "infinite",
						"addKhatianNew(uint64,bytes32,uint16,uint256[],uint16[])": "infinite",
						"addPlot(string,string,string,uint16,uint16,uint8,uint32)": "infinite",
						"addUserOwned(uint256,bytes32)": "61134",
						"creatNewUser(string,string,string,string,uint24,string,uint256)": "infinite",
						"getKhatianArrayLen()": "652",
						"getKhatianByHash(bytes32)": "infinite",
						"getKhatianHasById(uint256)": "965",
						"getPlotArrayLen()": "432",
						"getPlotByHash(bytes32)": "3635",
						"getPlotHashById(uint256)": "1053",
						"getUserArrayLen()": "718",
						"getUserByNid(uint256)": "2699",
						"getUserIdById(uint256)": "925",
						"getUserOwnedByUid(uint256)": "infinite"
					},
					"internal": {
						"stringToBytes32(string memory)": "infinite",
						"toUpper(string memory)": "infinite"
					}
				},
				"methodIdentifiers": {
					"addKhatianFromOld(uint64,bytes32,uint16,bytes32,uint256[],uint16[])": "0c6f421e",
					"addKhatianNew(uint64,bytes32,uint16,uint256[],uint16[])": "61b69478",
					"addPlot(string,string,string,uint16,uint16,uint8,uint32)": "209a731c",
					"addUserOwned(uint256,bytes32)": "688f86fa",
					"creatNewUser(string,string,string,string,uint24,string,uint256)": "ebde4207",
					"getKhatianArrayLen()": "bd363525",
					"getKhatianByHash(bytes32)": "5cb99c03",
					"getKhatianHasById(uint256)": "8c857098",
					"getPlotArrayLen()": "0d590f3e",
					"getPlotByHash(bytes32)": "95d5712c",
					"getPlotHashById(uint256)": "effdc6f8",
					"getUserArrayLen()": "f87b771a",
					"getUserByNid(uint256)": "43308949",
					"getUserIdById(uint256)": "6d8c5df1",
					"getUserOwnedByUid(uint256)": "64a66dc3"
				}
			},
			"userdoc": {
				"methods": {}
			}
		}
	}
}