{
	"data": {
		"bytecode": {
			"linkReferences": {},
			"object": "608060405234801561000f575f80fd5b505f60068190555061354f806100245f395ff3fe60806040526004361061019f575f3560e01c806369c212f6116100eb578063b2865b1911610089578063c9112d5911610063578063c9112d591461060e578063ca67c07414610636578063cc3f755914610672578063effdc6f81461069a576101a6565b8063b2865b1914610567578063b655fda2146105aa578063c8a62b21146105d2576101a6565b806381f1d75c116100c557806381f1d75c146104b35780638459c305146104db57806395d5712c14610503578063a9d54e8f1461053f576101a6565b806369c212f61461042757806373bb756e146104635780637d5e5f3e1461048b576101a6565b806332889d98116101585780635cb99c03116101325780635cb99c031461035f5780635cd5ad251461039b5780635d0decc3146103d7578063638dfea9146103ff576101a6565b806332889d98146102cf5780634257d82a146102f7578063490b3e601461031f576101a6565b806302c5a651146101a857806307973ccf146101d05780631021ee9c146101fa578063118b95351461023657806311a8aeaf1461027d57806325ad91ce146102b9576101a6565b366101a657005b005b3480156101b3575f80fd5b506101ce60048036038101906101c991906120bb565b6106d6565b005b3480156101db575f80fd5b506101e46107a9565b6040516101f19190612111565b60405180910390f35b348015610205575f80fd5b50610220600480360381019061021b919061212a565b6107af565b60405161022d9190612255565b60405180910390f35b348015610241575f80fd5b5061025c6004803603810190610257919061212a565b6108e6565b6040516102749c9b9a99989796959493929190612328565b60405180910390f35b348015610288575f80fd5b506102a3600480360381019061029e9190612411565b6109d3565b6040516102b0919061243c565b60405180910390f35b3480156102c4575f80fd5b506102cd6109f3565b005b3480156102da575f80fd5b506102f560048036038101906102f09190612581565b610bc1565b005b348015610302575f80fd5b5061031d60048036038101906103189190612618565b610c9d565b005b34801561032a575f80fd5b5061034560048036038101906103409190612656565b610de1565b6040516103569594939291906126ac565b60405180910390f35b34801561036a575f80fd5b5061038560048036038101906103809190612656565b610e3f565b6040516103929190612951565b60405180910390f35b3480156103a6575f80fd5b506103c160048036038101906103bc9190612411565b6110ee565b6040516103ce919061243c565b60405180910390f35b3480156103e2575f80fd5b506103fd60048036038101906103f891906120bb565b611172565b005b34801561040a575f80fd5b50610425600480360381019061042091906120bb565b611245565b005b348015610432575f80fd5b5061044d6004803603810190610448919061212a565b611318565b60405161045a9190612aba565b60405180910390f35b34801561046e575f80fd5b5061048960048036038101906104849190612ada565b611507565b005b348015610496575f80fd5b506104b160048036038101906104ac9190612ada565b6115da565b005b3480156104be575f80fd5b506104d960048036038101906104d491906120bb565b6116ad565b005b3480156104e6575f80fd5b5061050160048036038101906104fc9190612ada565b611780565b005b34801561050e575f80fd5b5061052960048036038101906105249190612656565b611853565b6040516105369190612bf1565b60405180910390f35b34801561054a575f80fd5b50610565600480360381019061056091906120bb565b61199a565b005b348015610572575f80fd5b5061058d60048036038101906105889190612656565b611a6d565b6040516105a1989796959493929190612c29565b60405180910390f35b3480156105b5575f80fd5b506105d060048036038101906105cb91906120bb565b611af6565b005b3480156105dd575f80fd5b506105f860048036038101906105f3919061212a565b611bc8565b6040516106059190612111565b60405180910390f35b348015610619575f80fd5b50610634600480360381019061062f9190612d23565b611be2565b005b348015610641575f80fd5b5061065c60048036038101906106579190612411565b611d6a565b604051610669919061243c565b60405180910390f35b34801561067d575f80fd5b50610698600480360381019061069391906120bb565b611d8a565b005b3480156106a5575f80fd5b506106c060048036038101906106bb9190612411565b611e5d565b6040516106cd919061243c565b60405180910390f35b5f803373ffffffffffffffffffffffffffffffffffffffff1673ffffffffffffffffffffffffffffffffffffffff1681526020019081526020015f20600b015f9054906101000a900460ff16610761576040517f08c379a000000000000000000000000000000000000000000000000000000000815260040161075890612e1e565b60405180910390fd5b805f808473ffffffffffffffffffffffffffffffffffffffff1673ffffffffffffffffffffffffffffffffffffffff1681526020019081526020015f20600301819055505050565b60065481565b6107b7611ee1565b5f60015f8473ffffffffffffffffffffffffffffffffffffffff1673ffffffffffffffffffffffffffffffffffffffff1681526020019081526020015f205f015411610838576040517f08c379a000000000000000000000000000000000000000000000000000000000815260040161082f90612e86565b60405180910390fd5b60015f8373ffffffffffffffffffffffffffffffffffffffff1673ffffffffffffffffffffffffffffffffffffffff1681526020019081526020015f206040518060400160405290815f8201548152602001600182018054806020026020016040519081016040528092919081815260200182805480156108d657602002820191905f5260205f20905b8154815260200190600101908083116108c2575b5050505050815250509050919050565b5f602052805f5260405f205f91509050805f01549080600101549080600201549080600301549080600401549080600501549080600601549080600701549080600801549080600901549080600a01805461094090612ed1565b80601f016020809104026020016040519081016040528092919081815260200182805461096c90612ed1565b80156109b75780601f1061098e576101008083540402835291602001916109b7565b820191905f5260205f20905b81548152906001019060200180831161099a57829003601f168201915b50505050509080600b015f9054906101000a900460ff1690508c565b600581815481106109e2575f80fd5b905f5260205f20015f915090505481565b5f803373ffffffffffffffffffffffffffffffffffffffff1673ffffffffffffffffffffffffffffffffffffffff1681526020019081526020015f20600b015f9054906101000a900460ff1615610a7f576040517f08c379a0000000000000000000000000000000000000000000000000000000008152600401610a7690612f4b565b60405180910390fd5b5f805f3373ffffffffffffffffffffffffffffffffffffffff1673ffffffffffffffffffffffffffffffffffffffff1681526020019081526020015f2090505f801b815f01819055505f801b81600101819055505f801b81600201819055505f801b81600301819055505f801b81600401819055505f81600501819055505f801b81600601819055505f801b81600701819055505f81600801819055505f816009018190555060405180602001604052805f81525081600a019081610b449190613106565b50600181600b015f6101000a81548160ff02191690831515021790555060065f815480929190610b7390613202565b91905055506006543373ffffffffffffffffffffffffffffffffffffffff167fb23e32d17aa5bd5150257cb0f0484e7af024e3174fa58f18526866759440b5f160405160405180910390a350565b5f803373ffffffffffffffffffffffffffffffffffffffff1673ffffffffffffffffffffffffffffffffffffffff1681526020019081526020015f20600b015f9054906101000a900460ff16610c4c576040517f08c379a0000000000000000000000000000000000000000000000000000000008152600401610c4390612e1e565b60405180910390fd5b805f808473ffffffffffffffffffffffffffffffffffffffff1673ffffffffffffffffffffffffffffffffffffffff1681526020019081526020015f20600a019081610c989190613106565b505050565b60025f8281526020019081526020015f206008015f9054906101000a900460ff1615610cfe576040517f08c379a0000000000000000000000000000000000000000000000000000000008152600401610cf590613293565b60405180910390fd5b5f60025f8381526020019081526020015f20905082815f015f6101000a81548167ffffffffffffffff021916908367ffffffffffffffff1602179055508181600101819055505f816002015f6101000a81548161ffff021916908361ffff1602179055505f801b81600301819055506001816008015f6101000a81548160ff021916908315150217905550600482908060018154018082558091505060019003905f5260205f20015f9091909190915055817fc8087d40871a0423fb8f59afd44e84b66c9030e0d4156eb69b46af475c96102160405160405180910390a2505050565b6002602052805f5260405f205f91509050805f015f9054906101000a900467ffffffffffffffff1690806001015490806002015f9054906101000a900461ffff1690806003015490806008015f9054906101000a900460ff16905085565b610e47611efa565b60025f8381526020019081526020015f206008015f9054906101000a900460ff16610ea7576040517f08c379a0000000000000000000000000000000000000000000000000000000008152600401610e9e906132fb565b60405180910390fd5b60025f8381526020019081526020015f20604051806101200160405290815f82015f9054906101000a900467ffffffffffffffff1667ffffffffffffffff1667ffffffffffffffff16815260200160018201548152602001600282015f9054906101000a900461ffff1661ffff1661ffff1681526020016003820154815260200160048201805480602002602001604051908101604052809291908181526020018280548015610f7457602002820191905f5260205f20905b815481526020019060010190808311610f60575b5050505050815260200160058201805480602002602001604051908101604052809291908181526020018280548015610ff157602002820191905f5260205f20905f905b82829054906101000a900461ffff1661ffff1681526020019060020190602082600101049283019260010382029150808411610fb85790505b505050505081526020016006820180548060200260200160405190810160405280929190818152602001828054801561104757602002820191905f5260205f20905b815481526020019060010190808311611033575b50505050508152602001600782018054806020026020016040519081016040528092919081815260200182805480156110c457602002820191905f5260205f20905f905b82829054906101000a900461ffff1661ffff168152602001906002019060208260010104928301926001038202915080841161108b5790505b50505050508152602001600882015f9054906101000a900460ff1615151515815250509050919050565b5f808211801561110357506004805490508211155b611142576040517f08c379a000000000000000000000000000000000000000000000000000000000815260040161113990613363565b60405180910390fd5b60046001836111519190613381565b81548110611162576111616133b4565b5b905f5260205f2001549050919050565b5f803373ffffffffffffffffffffffffffffffffffffffff1673ffffffffffffffffffffffffffffffffffffffff1681526020019081526020015f20600b015f9054906101000a900460ff166111fd576040517f08c379a00000000000000000000000000000000000000000000000000000000081526004016111f490612e1e565b60405180910390fd5b805f808473ffffffffffffffffffffffffffffffffffffffff1673ffffffffffffffffffffffffffffffffffffffff1681526020019081526020015f20600601819055505050565b5f803373ffffffffffffffffffffffffffffffffffffffff1673ffffffffffffffffffffffffffffffffffffffff1681526020019081526020015f20600b015f9054906101000a900460ff166112d0576040517f08c379a00000000000000000000000000000000000000000000000000000000081526004016112c790612e1e565b60405180910390fd5b805f808473ffffffffffffffffffffffffffffffffffffffff1673ffffffffffffffffffffffffffffffffffffffff1681526020019081526020015f20600101819055505050565b611320611f57565b5f808373ffffffffffffffffffffffffffffffffffffffff1673ffffffffffffffffffffffffffffffffffffffff1681526020019081526020015f20600b015f9054906101000a900460ff166113ab576040517f08c379a00000000000000000000000000000000000000000000000000000000081526004016113a290612e1e565b60405180910390fd5b5f808373ffffffffffffffffffffffffffffffffffffffff1673ffffffffffffffffffffffffffffffffffffffff1681526020019081526020015f20604051806101800160405290815f8201548152602001600182015481526020016002820154815260200160038201548152602001600482015481526020016005820154815260200160068201548152602001600782015481526020016008820154815260200160098201548152602001600a8201805461146690612ed1565b80601f016020809104026020016040519081016040528092919081815260200182805461149290612ed1565b80156114dd5780601f106114b4576101008083540402835291602001916114dd565b820191905f5260205f20905b8154815290600101906020018083116114c057829003601f168201915b50505050508152602001600b82015f9054906101000a900460ff1615151515815250509050919050565b5f803373ffffffffffffffffffffffffffffffffffffffff1673ffffffffffffffffffffffffffffffffffffffff1681526020019081526020015f20600b015f9054906101000a900460ff16611592576040517f08c379a000000000000000000000000000000000000000000000000000000000815260040161158990612e1e565b60405180910390fd5b805f808473ffffffffffffffffffffffffffffffffffffffff1673ffffffffffffffffffffffffffffffffffffffff1681526020019081526020015f20600901819055505050565b5f803373ffffffffffffffffffffffffffffffffffffffff1673ffffffffffffffffffffffffffffffffffffffff1681526020019081526020015f20600b015f9054906101000a900460ff16611665576040517f08c379a000000000000000000000000000000000000000000000000000000000815260040161165c90612e1e565b60405180910390fd5b805f808473ffffffffffffffffffffffffffffffffffffffff1673ffffffffffffffffffffffffffffffffffffffff1681526020019081526020015f20600801819055505050565b5f803373ffffffffffffffffffffffffffffffffffffffff1673ffffffffffffffffffffffffffffffffffffffff1681526020019081526020015f20600b015f9054906101000a900460ff16611738576040517f08c379a000000000000000000000000000000000000000000000000000000000815260040161172f90612e1e565b60405180910390fd5b805f808473ffffffffffffffffffffffffffffffffffffffff1673ffffffffffffffffffffffffffffffffffffffff1681526020019081526020015f20600701819055505050565b5f803373ffffffffffffffffffffffffffffffffffffffff1673ffffffffffffffffffffffffffffffffffffffff1681526020019081526020015f20600b015f9054906101000a900460ff1661180b576040517f08c379a000000000000000000000000000000000000000000000000000000000815260040161180290612e1e565b60405180910390fd5b805f808473ffffffffffffffffffffffffffffffffffffffff1673ffffffffffffffffffffffffffffffffffffffff1681526020019081526020015f20600501819055505050565b61185b611fc4565b60035f8381526020019081526020015f2060030160099054906101000a900460ff166118bc576040517f08c379a00000000000000000000000000000000000000000000000000000000081526004016118b39061342b565b60405180910390fd5b60035f8381526020019081526020015f20604051806101000160405290815f82015481526020016001820154815260200160028201548152602001600382015f9054906101000a900461ffff1661ffff1661ffff1681526020016003820160029054906101000a900461ffff1661ffff1661ffff1681526020016003820160049054906101000a900460ff1660ff1660ff1681526020016003820160059054906101000a900463ffffffff1663ffffffff1663ffffffff1681526020016003820160099054906101000a900460ff1615151515815250509050919050565b5f803373ffffffffffffffffffffffffffffffffffffffff1673ffffffffffffffffffffffffffffffffffffffff1681526020019081526020015f20600b015f9054906101000a900460ff16611a25576040517f08c379a0000000000000000000000000000000000000000000000000000000008152600401611a1c90612e1e565b60405180910390fd5b805f808473ffffffffffffffffffffffffffffffffffffffff1673ffffffffffffffffffffffffffffffffffffffff1681526020019081526020015f20600201819055505050565b6003602052805f5260405f205f91509050805f015490806001015490806002015490806003015f9054906101000a900461ffff16908060030160029054906101000a900461ffff16908060030160049054906101000a900460ff16908060030160059054906101000a900463ffffffff16908060030160099054906101000a900460ff16905088565b5f803373ffffffffffffffffffffffffffffffffffffffff1673ffffffffffffffffffffffffffffffffffffffff1681526020019081526020015f20600b015f9054906101000a900460ff16611b81576040517f08c379a0000000000000000000000000000000000000000000000000000000008152600401611b7890612e1e565b60405180910390fd5b805f808473ffffffffffffffffffffffffffffffffffffffff1673ffffffffffffffffffffffffffffffffffffffff1681526020019081526020015f205f01819055505050565b6001602052805f5260405f205f91509050805f0154905081565b60035f8981526020019081526020015f2060030160099054906101000a900460ff1615611c44576040517f08c379a0000000000000000000000000000000000000000000000000000000008152600401611c3b90613493565b60405180910390fd5b5f60035f8a81526020019081526020015f20905087815f018190555086816001018190555085816002018190555084816003015f6101000a81548161ffff021916908361ffff160217905550838160030160026101000a81548161ffff021916908361ffff160217905550828160030160046101000a81548160ff021916908360ff160217905550818160030160056101000a81548163ffffffff021916908363ffffffff16021790555060018160030160096101000a81548160ff021916908315150217905550600589908060018154018082558091505060019003905f5260205f20015f9091909190915055887f4f8a415507f52d0e32a3c353717514afc9dc632a93e949a7478433099d16049b60405160405180910390a2505050505050505050565b60048181548110611d79575f80fd5b905f5260205f20015f915090505481565b5f803373ffffffffffffffffffffffffffffffffffffffff1673ffffffffffffffffffffffffffffffffffffffff1681526020019081526020015f20600b015f9054906101000a900460ff16611e15576040517f08c379a0000000000000000000000000000000000000000000000000000000008152600401611e0c90612e1e565b60405180910390fd5b805f808473ffffffffffffffffffffffffffffffffffffffff1673ffffffffffffffffffffffffffffffffffffffff1681526020019081526020015f20600401819055505050565b5f8082118015611e7257506005805490508211155b611eb1576040517f08c379a0000000000000000000000000000000000000000000000000000000008152600401611ea8906134fb565b60405180910390fd5b6005600183611ec09190613381565b81548110611ed157611ed06133b4565b5b905f5260205f2001549050919050565b60405180604001604052805f8152602001606081525090565b6040518061012001604052805f67ffffffffffffffff1681526020015f80191681526020015f61ffff1681526020015f8019168152602001606081526020016060815260200160608152602001606081526020015f151581525090565b6040518061018001604052805f80191681526020015f80191681526020015f80191681526020015f80191681526020015f80191681526020015f81526020015f80191681526020015f80191681526020015f81526020015f8152602001606081526020015f151581525090565b6040518061010001604052805f80191681526020015f80191681526020015f80191681526020015f61ffff1681526020015f61ffff1681526020015f60ff1681526020015f63ffffffff1681526020015f151581525090565b5f604051905090565b5f80fd5b5f80fd5b5f73ffffffffffffffffffffffffffffffffffffffff82169050919050565b5f6120578261202e565b9050919050565b6120678161204d565b8114612071575f80fd5b50565b5f813590506120828161205e565b92915050565b5f819050919050565b61209a81612088565b81146120a4575f80fd5b50565b5f813590506120b581612091565b92915050565b5f80604083850312156120d1576120d0612026565b5b5f6120de85828601612074565b92505060206120ef858286016120a7565b9150509250929050565b5f819050919050565b61210b816120f9565b82525050565b5f6020820190506121245f830184612102565b92915050565b5f6020828403121561213f5761213e612026565b5b5f61214c84828501612074565b91505092915050565b61215e816120f9565b82525050565b5f81519050919050565b5f82825260208201905092915050565b5f819050602082019050919050565b61219681612088565b82525050565b5f6121a7838361218d565b60208301905092915050565b5f602082019050919050565b5f6121c982612164565b6121d3818561216e565b93506121de8361217e565b805f5b8381101561220e5781516121f5888261219c565b9750612200836121b3565b9250506001810190506121e1565b5085935050505092915050565b5f604083015f8301516122305f860182612155565b506020830151848203602086015261224882826121bf565b9150508091505092915050565b5f6020820190508181035f83015261226d818461221b565b905092915050565b61227e81612088565b82525050565b5f81519050919050565b5f82825260208201905092915050565b5f5b838110156122bb5780820151818401526020810190506122a0565b5f8484015250505050565b5f601f19601f8301169050919050565b5f6122e082612284565b6122ea818561228e565b93506122fa81856020860161229e565b612303816122c6565b840191505092915050565b5f8115159050919050565b6123228161230e565b82525050565b5f6101808201905061233c5f83018f612275565b612349602083018e612275565b612356604083018d612275565b612363606083018c612275565b612370608083018b612275565b61237d60a083018a612102565b61238a60c0830189612275565b61239760e0830188612275565b6123a5610100830187612102565b6123b3610120830186612102565b8181036101408301526123c681856122d6565b90506123d6610160830184612319565b9d9c50505050505050505050505050565b6123f0816120f9565b81146123fa575f80fd5b50565b5f8135905061240b816123e7565b92915050565b5f6020828403121561242657612425612026565b5b5f612433848285016123fd565b91505092915050565b5f60208201905061244f5f830184612275565b92915050565b5f80fd5b5f80fd5b7f4e487b71000000000000000000000000000000000000000000000000000000005f52604160045260245ffd5b612493826122c6565b810181811067ffffffffffffffff821117156124b2576124b161245d565b5b80604052505050565b5f6124c461201d565b90506124d0828261248a565b919050565b5f67ffffffffffffffff8211156124ef576124ee61245d565b5b6124f8826122c6565b9050602081019050919050565b828183375f83830152505050565b5f612525612520846124d5565b6124bb565b90508281526020810184848401111561254157612540612459565b5b61254c848285612505565b509392505050565b5f82601f83011261256857612567612455565b5b8135612578848260208601612513565b91505092915050565b5f806040838503121561259757612596612026565b5b5f6125a485828601612074565b925050602083013567ffffffffffffffff8111156125c5576125c461202a565b5b6125d185828601612554565b9150509250929050565b5f67ffffffffffffffff82169050919050565b6125f7816125db565b8114612601575f80fd5b50565b5f81359050612612816125ee565b92915050565b5f806040838503121561262e5761262d612026565b5b5f61263b85828601612604565b925050602061264c858286016120a7565b9150509250929050565b5f6020828403121561266b5761266a612026565b5b5f612678848285016120a7565b91505092915050565b61268a816125db565b82525050565b5f61ffff82169050919050565b6126a681612690565b82525050565b5f60a0820190506126bf5f830188612681565b6126cc6020830187612275565b6126d9604083018661269d565b6126e66060830185612275565b6126f36080830184612319565b9695505050505050565b612706816125db565b82525050565b61271581612690565b82525050565b5f81519050919050565b5f82825260208201905092915050565b5f819050602082019050919050565b5f61274f838361270c565b60208301905092915050565b5f602082019050919050565b5f6127718261271b565b61277b8185612725565b935061278683612735565b805f5b838110156127b657815161279d8882612744565b97506127a88361275b565b925050600181019050612789565b5085935050505092915050565b5f81519050919050565b5f82825260208201905092915050565b5f819050602082019050919050565b5f6127f78383612155565b60208301905092915050565b5f602082019050919050565b5f612819826127c3565b61282381856127cd565b935061282e836127dd565b805f5b8381101561285e57815161284588826127ec565b975061285083612803565b925050600181019050612831565b5085935050505092915050565b6128748161230e565b82525050565b5f61012083015f8301516128905f8601826126fd565b5060208301516128a3602086018261218d565b5060408301516128b6604086018261270c565b5060608301516128c9606086018261218d565b50608083015184820360808601526128e182826121bf565b91505060a083015184820360a08601526128fb8282612767565b91505060c083015184820360c0860152612915828261280f565b91505060e083015184820360e086015261292f8282612767565b91505061010083015161294661010086018261286b565b508091505092915050565b5f6020820190508181035f830152612969818461287a565b905092915050565b5f82825260208201905092915050565b5f61298b82612284565b6129958185612971565b93506129a581856020860161229e565b6129ae816122c6565b840191505092915050565b5f61018083015f8301516129cf5f86018261218d565b5060208301516129e2602086018261218d565b5060408301516129f5604086018261218d565b506060830151612a08606086018261218d565b506080830151612a1b608086018261218d565b5060a0830151612a2e60a0860182612155565b5060c0830151612a4160c086018261218d565b5060e0830151612a5460e086018261218d565b50610100830151612a69610100860182612155565b50610120830151612a7e610120860182612155565b50610140830151848203610140860152612a988282612981565b915050610160830151612aaf61016086018261286b565b508091505092915050565b5f6020820190508181035f830152612ad281846129b9565b905092915050565b5f8060408385031215612af057612aef612026565b5b5f612afd85828601612074565b9250506020612b0e858286016123fd565b9150509250929050565b5f60ff82169050919050565b612b2d81612b18565b82525050565b5f63ffffffff82169050919050565b612b4b81612b33565b82525050565b61010082015f820151612b665f85018261218d565b506020820151612b79602085018261218d565b506040820151612b8c604085018261218d565b506060820151612b9f606085018261270c565b506080820151612bb2608085018261270c565b5060a0820151612bc560a0850182612b24565b5060c0820151612bd860c0850182612b42565b5060e0820151612beb60e085018261286b565b50505050565b5f61010082019050612c055f830184612b51565b92915050565b612c1481612b18565b82525050565b612c2381612b33565b82525050565b5f61010082019050612c3d5f83018b612275565b612c4a602083018a612275565b612c576040830189612275565b612c64606083018861269d565b612c71608083018761269d565b612c7e60a0830186612c0b565b612c8b60c0830185612c1a565b612c9860e0830184612319565b9998505050505050505050565b612cae81612690565b8114612cb8575f80fd5b50565b5f81359050612cc981612ca5565b92915050565b612cd881612b18565b8114612ce2575f80fd5b50565b5f81359050612cf381612ccf565b92915050565b612d0281612b33565b8114612d0c575f80fd5b50565b5f81359050612d1d81612cf9565b92915050565b5f805f805f805f80610100898b031215612d4057612d3f612026565b5b5f612d4d8b828c016120a7565b9850506020612d5e8b828c016120a7565b9750506040612d6f8b828c016120a7565b9650506060612d808b828c016120a7565b9550506080612d918b828c01612cbb565b94505060a0612da28b828c01612cbb565b93505060c0612db38b828c01612ce5565b92505060e0612dc48b828c01612d0f565b9150509295985092959890939650565b7f5573657220646f6573206e6f74206578697374000000000000000000000000005f82015250565b5f612e0860138361228e565b9150612e1382612dd4565b602082019050919050565b5f6020820190508181035f830152612e3581612dfc565b9050919050565b7f5573657220646f6573206e6f74206f776e20616e79206b68617469616e0000005f82015250565b5f612e70601d8361228e565b9150612e7b82612e3c565b602082019050919050565b5f6020820190508181035f830152612e9d81612e64565b9050919050565b7f4e487b71000000000000000000000000000000000000000000000000000000005f52602260045260245ffd5b5f6002820490506001821680612ee857607f821691505b602082108103612efb57612efa612ea4565b5b50919050565b7f5573657220616c726561647920657869737473000000000000000000000000005f82015250565b5f612f3560138361228e565b9150612f4082612f01565b602082019050919050565b5f6020820190508181035f830152612f6281612f29565b9050919050565b5f819050815f5260205f209050919050565b5f6020601f8301049050919050565b5f82821b905092915050565b5f60088302612fc57fffffffffffffffffffffffffffffffffffffffffffffffffffffffffffffffff82612f8a565b612fcf8683612f8a565b95508019841693508086168417925050509392505050565b5f819050919050565b5f61300a613005613000846120f9565b612fe7565b6120f9565b9050919050565b5f819050919050565b61302383612ff0565b61303761302f82613011565b848454612f96565b825550505050565b5f90565b61304b61303f565b61305681848461301a565b505050565b5b818110156130795761306e5f82613043565b60018101905061305c565b5050565b601f8211156130be5761308f81612f69565b61309884612f7b565b810160208510156130a7578190505b6130bb6130b385612f7b565b83018261305b565b50505b505050565b5f82821c905092915050565b5f6130de5f19846008026130c3565b1980831691505092915050565b5f6130f683836130cf565b9150826002028217905092915050565b61310f82612284565b67ffffffffffffffff8111156131285761312761245d565b5b6131328254612ed1565b61313d82828561307d565b5f60209050601f83116001811461316e575f841561315c578287015190505b61316685826130eb565b8655506131cd565b601f19841661317c86612f69565b5f5b828110156131a35784890151825560018201915060208501945060208101905061317e565b868310156131c057848901516131bc601f8916826130cf565b8355505b6001600288020188555050505b505050505050565b7f4e487b71000000000000000000000000000000000000000000000000000000005f52601160045260245ffd5b5f61320c826120f9565b91507fffffffffffffffffffffffffffffffffffffffffffffffffffffffffffffffff820361323e5761323d6131d5565b5b600182019050919050565b7f4b68617469616e20616c726561647920657869737473000000000000000000005f82015250565b5f61327d60168361228e565b915061328882613249565b602082019050919050565b5f6020820190508181035f8301526132aa81613271565b9050919050565b7f4b68617469616e20646f6573206e6f74206578697374000000000000000000005f82015250565b5f6132e560168361228e565b91506132f0826132b1565b602082019050919050565b5f6020820190508181035f830152613312816132d9565b9050919050565b7f496e76616c6964204b68617469616e20494400000000000000000000000000005f82015250565b5f61334d60128361228e565b915061335882613319565b602082019050919050565b5f6020820190508181035f83015261337a81613341565b9050919050565b5f61338b826120f9565b9150613396836120f9565b92508282039050818111156133ae576133ad6131d5565b5b92915050565b7f4e487b71000000000000000000000000000000000000000000000000000000005f52603260045260245ffd5b7f506c6f7420646f6573206e6f74206578697374000000000000000000000000005f82015250565b5f61341560138361228e565b9150613420826133e1565b602082019050919050565b5f6020820190508181035f83015261344281613409565b9050919050565b7f506c6f7420616c726561647920657869737473000000000000000000000000005f82015250565b5f61347d60138361228e565b915061348882613449565b602082019050919050565b5f6020820190508181035f8301526134aa81613471565b9050919050565b7f496e76616c696420506c6f7420494400000000000000000000000000000000005f82015250565b5f6134e5600f8361228e565b91506134f0826134b1565b602082019050919050565b5f6020820190508181035f830152613512816134d9565b905091905056fea2646970667358221220838ff613dedbaf359efba7cfc5b1e733b894c12f14cba3205c25268f7cdb9ebd64736f6c63430008140033",
			"opcodes": "PUSH1 0x80 PUSH1 0x40 MSTORE CALLVALUE DUP1 ISZERO PUSH2 0xF JUMPI PUSH0 DUP1 REVERT JUMPDEST POP PUSH0 PUSH1 0x6 DUP2 SWAP1 SSTORE POP PUSH2 0x354F DUP1 PUSH2 0x24 PUSH0 CODECOPY PUSH0 RETURN INVALID PUSH1 0x80 PUSH1 0x40 MSTORE PUSH1 0x4 CALLDATASIZE LT PUSH2 0x19F JUMPI PUSH0 CALLDATALOAD PUSH1 0xE0 SHR DUP1 PUSH4 0x69C212F6 GT PUSH2 0xEB JUMPI DUP1 PUSH4 0xB2865B19 GT PUSH2 0x89 JUMPI DUP1 PUSH4 0xC9112D59 GT PUSH2 0x63 JUMPI DUP1 PUSH4 0xC9112D59 EQ PUSH2 0x60E JUMPI DUP1 PUSH4 0xCA67C074 EQ PUSH2 0x636 JUMPI DUP1 PUSH4 0xCC3F7559 EQ PUSH2 0x672 JUMPI DUP1 PUSH4 0xEFFDC6F8 EQ PUSH2 0x69A JUMPI PUSH2 0x1A6 JUMP JUMPDEST DUP1 PUSH4 0xB2865B19 EQ PUSH2 0x567 JUMPI DUP1 PUSH4 0xB655FDA2 EQ PUSH2 0x5AA JUMPI DUP1 PUSH4 0xC8A62B21 EQ PUSH2 0x5D2 JUMPI PUSH2 0x1A6 JUMP JUMPDEST DUP1 PUSH4 0x81F1D75C GT PUSH2 0xC5 JUMPI DUP1 PUSH4 0x81F1D75C EQ PUSH2 0x4B3 JUMPI DUP1 PUSH4 0x8459C305 EQ PUSH2 0x4DB JUMPI DUP1 PUSH4 0x95D5712C EQ PUSH2 0x503 JUMPI DUP1 PUSH4 0xA9D54E8F EQ PUSH2 0x53F JUMPI PUSH2 0x1A6 JUMP JUMPDEST DUP1 PUSH4 0x69C212F6 EQ PUSH2 0x427 JUMPI DUP1 PUSH4 0x73BB756E EQ PUSH2 0x463 JUMPI DUP1 PUSH4 0x7D5E5F3E EQ PUSH2 0x48B JUMPI PUSH2 0x1A6 JUMP JUMPDEST DUP1 PUSH4 0x32889D98 GT PUSH2 0x158 JUMPI DUP1 PUSH4 0x5CB99C03 GT PUSH2 0x132 JUMPI DUP1 PUSH4 0x5CB99C03 EQ PUSH2 0x35F JUMPI DUP1 PUSH4 0x5CD5AD25 EQ PUSH2 0x39B JUMPI DUP1 PUSH4 0x5D0DECC3 EQ PUSH2 0x3D7 JUMPI DUP1 PUSH4 0x638DFEA9 EQ PUSH2 0x3FF JUMPI PUSH2 0x1A6 JUMP JUMPDEST DUP1 PUSH4 0x32889D98 EQ PUSH2 0x2CF JUMPI DUP1 PUSH4 0x4257D82A EQ PUSH2 0x2F7 JUMPI DUP1 PUSH4 0x490B3E60 EQ PUSH2 0x31F JUMPI PUSH2 0x1A6 JUMP JUMPDEST DUP1 PUSH4 0x2C5A651 EQ PUSH2 0x1A8 JUMPI DUP1 PUSH4 0x7973CCF EQ PUSH2 0x1D0 JUMPI DUP1 PUSH4 0x1021EE9C EQ PUSH2 0x1FA JUMPI DUP1 PUSH4 0x118B9535 EQ PUSH2 0x236 JUMPI DUP1 PUSH4 0x11A8AEAF EQ PUSH2 0x27D JUMPI DUP1 PUSH4 0x25AD91CE EQ PUSH2 0x2B9 JUMPI PUSH2 0x1A6 JUMP JUMPDEST CALLDATASIZE PUSH2 0x1A6 JUMPI STOP JUMPDEST STOP JUMPDEST CALLVALUE DUP1 ISZERO PUSH2 0x1B3 JUMPI PUSH0 DUP1 REVERT JUMPDEST POP PUSH2 0x1CE PUSH1 0x4 DUP1 CALLDATASIZE SUB DUP2 ADD SWAP1 PUSH2 0x1C9 SWAP2 SWAP1 PUSH2 0x20BB JUMP JUMPDEST PUSH2 0x6D6 JUMP JUMPDEST STOP JUMPDEST CALLVALUE DUP1 ISZERO PUSH2 0x1DB JUMPI PUSH0 DUP1 REVERT JUMPDEST POP PUSH2 0x1E4 PUSH2 0x7A9 JUMP JUMPDEST PUSH1 0x40 MLOAD PUSH2 0x1F1 SWAP2 SWAP1 PUSH2 0x2111 JUMP JUMPDEST PUSH1 0x40 MLOAD DUP1 SWAP2 SUB SWAP1 RETURN JUMPDEST CALLVALUE DUP1 ISZERO PUSH2 0x205 JUMPI PUSH0 DUP1 REVERT JUMPDEST POP PUSH2 0x220 PUSH1 0x4 DUP1 CALLDATASIZE SUB DUP2 ADD SWAP1 PUSH2 0x21B SWAP2 SWAP1 PUSH2 0x212A JUMP JUMPDEST PUSH2 0x7AF JUMP JUMPDEST PUSH1 0x40 MLOAD PUSH2 0x22D SWAP2 SWAP1 PUSH2 0x2255 JUMP JUMPDEST PUSH1 0x40 MLOAD DUP1 SWAP2 SUB SWAP1 RETURN JUMPDEST CALLVALUE DUP1 ISZERO PUSH2 0x241 JUMPI PUSH0 DUP1 REVERT JUMPDEST POP PUSH2 0x25C PUSH1 0x4 DUP1 CALLDATASIZE SUB DUP2 ADD SWAP1 PUSH2 0x257 SWAP2 SWAP1 PUSH2 0x212A JUMP JUMPDEST PUSH2 0x8E6 JUMP JUMPDEST PUSH1 0x40 MLOAD PUSH2 0x274 SWAP13 SWAP12 SWAP11 SWAP10 SWAP9 SWAP8 SWAP7 SWAP6 SWAP5 SWAP4 SWAP3 SWAP2 SWAP1 PUSH2 0x2328 JUMP JUMPDEST PUSH1 0x40 MLOAD DUP1 SWAP2 SUB SWAP1 RETURN JUMPDEST CALLVALUE DUP1 ISZERO PUSH2 0x288 JUMPI PUSH0 DUP1 REVERT JUMPDEST POP PUSH2 0x2A3 PUSH1 0x4 DUP1 CALLDATASIZE SUB DUP2 ADD SWAP1 PUSH2 0x29E SWAP2 SWAP1 PUSH2 0x2411 JUMP JUMPDEST PUSH2 0x9D3 JUMP JUMPDEST PUSH1 0x40 MLOAD PUSH2 0x2B0 SWAP2 SWAP1 PUSH2 0x243C JUMP JUMPDEST PUSH1 0x40 MLOAD DUP1 SWAP2 SUB SWAP1 RETURN JUMPDEST CALLVALUE DUP1 ISZERO PUSH2 0x2C4 JUMPI PUSH0 DUP1 REVERT JUMPDEST POP PUSH2 0x2CD PUSH2 0x9F3 JUMP JUMPDEST STOP JUMPDEST CALLVALUE DUP1 ISZERO PUSH2 0x2DA JUMPI PUSH0 DUP1 REVERT JUMPDEST POP PUSH2 0x2F5 PUSH1 0x4 DUP1 CALLDATASIZE SUB DUP2 ADD SWAP1 PUSH2 0x2F0 SWAP2 SWAP1 PUSH2 0x2581 JUMP JUMPDEST PUSH2 0xBC1 JUMP JUMPDEST STOP JUMPDEST CALLVALUE DUP1 ISZERO PUSH2 0x302 JUMPI PUSH0 DUP1 REVERT JUMPDEST POP PUSH2 0x31D PUSH1 0x4 DUP1 CALLDATASIZE SUB DUP2 ADD SWAP1 PUSH2 0x318 SWAP2 SWAP1 PUSH2 0x2618 JUMP JUMPDEST PUSH2 0xC9D JUMP JUMPDEST STOP JUMPDEST CALLVALUE DUP1 ISZERO PUSH2 0x32A JUMPI PUSH0 DUP1 REVERT JUMPDEST POP PUSH2 0x345 PUSH1 0x4 DUP1 CALLDATASIZE SUB DUP2 ADD SWAP1 PUSH2 0x340 SWAP2 SWAP1 PUSH2 0x2656 JUMP JUMPDEST PUSH2 0xDE1 JUMP JUMPDEST PUSH1 0x40 MLOAD PUSH2 0x356 SWAP6 SWAP5 SWAP4 SWAP3 SWAP2 SWAP1 PUSH2 0x26AC JUMP JUMPDEST PUSH1 0x40 MLOAD DUP1 SWAP2 SUB SWAP1 RETURN JUMPDEST CALLVALUE DUP1 ISZERO PUSH2 0x36A JUMPI PUSH0 DUP1 REVERT JUMPDEST POP PUSH2 0x385 PUSH1 0x4 DUP1 CALLDATASIZE SUB DUP2 ADD SWAP1 PUSH2 0x380 SWAP2 SWAP1 PUSH2 0x2656 JUMP JUMPDEST PUSH2 0xE3F JUMP JUMPDEST PUSH1 0x40 MLOAD PUSH2 0x392 SWAP2 SWAP1 PUSH2 0x2951 JUMP JUMPDEST PUSH1 0x40 MLOAD DUP1 SWAP2 SUB SWAP1 RETURN JUMPDEST CALLVALUE DUP1 ISZERO PUSH2 0x3A6 JUMPI PUSH0 DUP1 REVERT JUMPDEST POP PUSH2 0x3C1 PUSH1 0x4 DUP1 CALLDATASIZE SUB DUP2 ADD SWAP1 PUSH2 0x3BC SWAP2 SWAP1 PUSH2 0x2411 JUMP JUMPDEST PUSH2 0x10EE JUMP JUMPDEST PUSH1 0x40 MLOAD PUSH2 0x3CE SWAP2 SWAP1 PUSH2 0x243C JUMP JUMPDEST PUSH1 0x40 MLOAD DUP1 SWAP2 SUB SWAP1 RETURN JUMPDEST CALLVALUE DUP1 ISZERO PUSH2 0x3E2 JUMPI PUSH0 DUP1 REVERT JUMPDEST POP PUSH2 0x3FD PUSH1 0x4 DUP1 CALLDATASIZE SUB DUP2 ADD SWAP1 PUSH2 0x3F8 SWAP2 SWAP1 PUSH2 0x20BB JUMP JUMPDEST PUSH2 0x1172 JUMP JUMPDEST STOP JUMPDEST CALLVALUE DUP1 ISZERO PUSH2 0x40A JUMPI PUSH0 DUP1 REVERT JUMPDEST POP PUSH2 0x425 PUSH1 0x4 DUP1 CALLDATASIZE SUB DUP2 ADD SWAP1 PUSH2 0x420 SWAP2 SWAP1 PUSH2 0x20BB JUMP JUMPDEST PUSH2 0x1245 JUMP JUMPDEST STOP JUMPDEST CALLVALUE DUP1 ISZERO PUSH2 0x432 JUMPI PUSH0 DUP1 REVERT JUMPDEST POP PUSH2 0x44D PUSH1 0x4 DUP1 CALLDATASIZE SUB DUP2 ADD SWAP1 PUSH2 0x448 SWAP2 SWAP1 PUSH2 0x212A JUMP JUMPDEST PUSH2 0x1318 JUMP JUMPDEST PUSH1 0x40 MLOAD PUSH2 0x45A SWAP2 SWAP1 PUSH2 0x2ABA JUMP JUMPDEST PUSH1 0x40 MLOAD DUP1 SWAP2 SUB SWAP1 RETURN JUMPDEST CALLVALUE DUP1 ISZERO PUSH2 0x46E JUMPI PUSH0 DUP1 REVERT JUMPDEST POP PUSH2 0x489 PUSH1 0x4 DUP1 CALLDATASIZE SUB DUP2 ADD SWAP1 PUSH2 0x484 SWAP2 SWAP1 PUSH2 0x2ADA JUMP JUMPDEST PUSH2 0x1507 JUMP JUMPDEST STOP JUMPDEST CALLVALUE DUP1 ISZERO PUSH2 0x496 JUMPI PUSH0 DUP1 REVERT JUMPDEST POP PUSH2 0x4B1 PUSH1 0x4 DUP1 CALLDATASIZE SUB DUP2 ADD SWAP1 PUSH2 0x4AC SWAP2 SWAP1 PUSH2 0x2ADA JUMP JUMPDEST PUSH2 0x15DA JUMP JUMPDEST STOP JUMPDEST CALLVALUE DUP1 ISZERO PUSH2 0x4BE JUMPI PUSH0 DUP1 REVERT JUMPDEST POP PUSH2 0x4D9 PUSH1 0x4 DUP1 CALLDATASIZE SUB DUP2 ADD SWAP1 PUSH2 0x4D4 SWAP2 SWAP1 PUSH2 0x20BB JUMP JUMPDEST PUSH2 0x16AD JUMP JUMPDEST STOP JUMPDEST CALLVALUE DUP1 ISZERO PUSH2 0x4E6 JUMPI PUSH0 DUP1 REVERT JUMPDEST POP PUSH2 0x501 PUSH1 0x4 DUP1 CALLDATASIZE SUB DUP2 ADD SWAP1 PUSH2 0x4FC SWAP2 SWAP1 PUSH2 0x2ADA JUMP JUMPDEST PUSH2 0x1780 JUMP JUMPDEST STOP JUMPDEST CALLVALUE DUP1 ISZERO PUSH2 0x50E JUMPI PUSH0 DUP1 REVERT JUMPDEST POP PUSH2 0x529 PUSH1 0x4 DUP1 CALLDATASIZE SUB DUP2 ADD SWAP1 PUSH2 0x524 SWAP2 SWAP1 PUSH2 0x2656 JUMP JUMPDEST PUSH2 0x1853 JUMP JUMPDEST PUSH1 0x40 MLOAD PUSH2 0x536 SWAP2 SWAP1 PUSH2 0x2BF1 JUMP JUMPDEST PUSH1 0x40 MLOAD DUP1 SWAP2 SUB SWAP1 RETURN JUMPDEST CALLVALUE DUP1 ISZERO PUSH2 0x54A JUMPI PUSH0 DUP1 REVERT JUMPDEST POP PUSH2 0x565 PUSH1 0x4 DUP1 CALLDATASIZE SUB DUP2 ADD SWAP1 PUSH2 0x560 SWAP2 SWAP1 PUSH2 0x20BB JUMP JUMPDEST PUSH2 0x199A JUMP JUMPDEST STOP JUMPDEST CALLVALUE DUP1 ISZERO PUSH2 0x572 JUMPI PUSH0 DUP1 REVERT JUMPDEST POP PUSH2 0x58D PUSH1 0x4 DUP1 CALLDATASIZE SUB DUP2 ADD SWAP1 PUSH2 0x588 SWAP2 SWAP1 PUSH2 0x2656 JUMP JUMPDEST PUSH2 0x1A6D JUMP JUMPDEST PUSH1 0x40 MLOAD PUSH2 0x5A1 SWAP9 SWAP8 SWAP7 SWAP6 SWAP5 SWAP4 SWAP3 SWAP2 SWAP1 PUSH2 0x2C29 JUMP JUMPDEST PUSH1 0x40 MLOAD DUP1 SWAP2 SUB SWAP1 RETURN JUMPDEST CALLVALUE DUP1 ISZERO PUSH2 0x5B5 JUMPI PUSH0 DUP1 REVERT JUMPDEST POP PUSH2 0x5D0 PUSH1 0x4 DUP1 CALLDATASIZE SUB DUP2 ADD SWAP1 PUSH2 0x5CB SWAP2 SWAP1 PUSH2 0x20BB JUMP JUMPDEST PUSH2 0x1AF6 JUMP JUMPDEST STOP JUMPDEST CALLVALUE DUP1 ISZERO PUSH2 0x5DD JUMPI PUSH0 DUP1 REVERT JUMPDEST POP PUSH2 0x5F8 PUSH1 0x4 DUP1 CALLDATASIZE SUB DUP2 ADD SWAP1 PUSH2 0x5F3 SWAP2 SWAP1 PUSH2 0x212A JUMP JUMPDEST PUSH2 0x1BC8 JUMP JUMPDEST PUSH1 0x40 MLOAD PUSH2 0x605 SWAP2 SWAP1 PUSH2 0x2111 JUMP JUMPDEST PUSH1 0x40 MLOAD DUP1 SWAP2 SUB SWAP1 RETURN JUMPDEST CALLVALUE DUP1 ISZERO PUSH2 0x619 JUMPI PUSH0 DUP1 REVERT JUMPDEST POP PUSH2 0x634 PUSH1 0x4 DUP1 CALLDATASIZE SUB DUP2 ADD SWAP1 PUSH2 0x62F SWAP2 SWAP1 PUSH2 0x2D23 JUMP JUMPDEST PUSH2 0x1BE2 JUMP JUMPDEST STOP JUMPDEST CALLVALUE DUP1 ISZERO PUSH2 0x641 JUMPI PUSH0 DUP1 REVERT JUMPDEST POP PUSH2 0x65C PUSH1 0x4 DUP1 CALLDATASIZE SUB DUP2 ADD SWAP1 PUSH2 0x657 SWAP2 SWAP1 PUSH2 0x2411 JUMP JUMPDEST PUSH2 0x1D6A JUMP JUMPDEST PUSH1 0x40 MLOAD PUSH2 0x669 SWAP2 SWAP1 PUSH2 0x243C JUMP JUMPDEST PUSH1 0x40 MLOAD DUP1 SWAP2 SUB SWAP1 RETURN JUMPDEST CALLVALUE DUP1 ISZERO PUSH2 0x67D JUMPI PUSH0 DUP1 REVERT JUMPDEST POP PUSH2 0x698 PUSH1 0x4 DUP1 CALLDATASIZE SUB DUP2 ADD SWAP1 PUSH2 0x693 SWAP2 SWAP1 PUSH2 0x20BB JUMP JUMPDEST PUSH2 0x1D8A JUMP JUMPDEST STOP JUMPDEST CALLVALUE DUP1 ISZERO PUSH2 0x6A5 JUMPI PUSH0 DUP1 REVERT JUMPDEST POP PUSH2 0x6C0 PUSH1 0x4 DUP1 CALLDATASIZE SUB DUP2 ADD SWAP1 PUSH2 0x6BB SWAP2 SWAP1 PUSH2 0x2411 JUMP JUMPDEST PUSH2 0x1E5D JUMP JUMPDEST PUSH1 0x40 MLOAD PUSH2 0x6CD SWAP2 SWAP1 PUSH2 0x243C JUMP JUMPDEST PUSH1 0x40 MLOAD DUP1 SWAP2 SUB SWAP1 RETURN JUMPDEST PUSH0 DUP1 CALLER PUSH20 0xFFFFFFFFFFFFFFFFFFFFFFFFFFFFFFFFFFFFFFFF AND PUSH20 0xFFFFFFFFFFFFFFFFFFFFFFFFFFFFFFFFFFFFFFFF AND DUP2 MSTORE PUSH1 0x20 ADD SWAP1 DUP2 MSTORE PUSH1 0x20 ADD PUSH0 KECCAK256 PUSH1 0xB ADD PUSH0 SWAP1 SLOAD SWAP1 PUSH2 0x100 EXP SWAP1 DIV PUSH1 0xFF AND PUSH2 0x761 JUMPI PUSH1 0x40 MLOAD PUSH32 0x8C379A000000000000000000000000000000000000000000000000000000000 DUP2 MSTORE PUSH1 0x4 ADD PUSH2 0x758 SWAP1 PUSH2 0x2E1E JUMP JUMPDEST PUSH1 0x40 MLOAD DUP1 SWAP2 SUB SWAP1 REVERT JUMPDEST DUP1 PUSH0 DUP1 DUP5 PUSH20 0xFFFFFFFFFFFFFFFFFFFFFFFFFFFFFFFFFFFFFFFF AND PUSH20 0xFFFFFFFFFFFFFFFFFFFFFFFFFFFFFFFFFFFFFFFF AND DUP2 MSTORE PUSH1 0x20 ADD SWAP1 DUP2 MSTORE PUSH1 0x20 ADD PUSH0 KECCAK256 PUSH1 0x3 ADD DUP2 SWAP1 SSTORE POP POP POP JUMP JUMPDEST PUSH1 0x6 SLOAD DUP2 JUMP JUMPDEST PUSH2 0x7B7 PUSH2 0x1EE1 JUMP JUMPDEST PUSH0 PUSH1 0x1 PUSH0 DUP5 PUSH20 0xFFFFFFFFFFFFFFFFFFFFFFFFFFFFFFFFFFFFFFFF AND PUSH20 0xFFFFFFFFFFFFFFFFFFFFFFFFFFFFFFFFFFFFFFFF AND DUP2 MSTORE PUSH1 0x20 ADD SWAP1 DUP2 MSTORE PUSH1 0x20 ADD PUSH0 KECCAK256 PUSH0 ADD SLOAD GT PUSH2 0x838 JUMPI PUSH1 0x40 MLOAD PUSH32 0x8C379A000000000000000000000000000000000000000000000000000000000 DUP2 MSTORE PUSH1 0x4 ADD PUSH2 0x82F SWAP1 PUSH2 0x2E86 JUMP JUMPDEST PUSH1 0x40 MLOAD DUP1 SWAP2 SUB SWAP1 REVERT JUMPDEST PUSH1 0x1 PUSH0 DUP4 PUSH20 0xFFFFFFFFFFFFFFFFFFFFFFFFFFFFFFFFFFFFFFFF AND PUSH20 0xFFFFFFFFFFFFFFFFFFFFFFFFFFFFFFFFFFFFFFFF AND DUP2 MSTORE PUSH1 0x20 ADD SWAP1 DUP2 MSTORE PUSH1 0x20 ADD PUSH0 KECCAK256 PUSH1 0x40 MLOAD DUP1 PUSH1 0x40 ADD PUSH1 0x40 MSTORE SWAP1 DUP2 PUSH0 DUP3 ADD SLOAD DUP2 MSTORE PUSH1 0x20 ADD PUSH1 0x1 DUP3 ADD DUP1 SLOAD DUP1 PUSH1 0x20 MUL PUSH1 0x20 ADD PUSH1 0x40 MLOAD SWAP1 DUP2 ADD PUSH1 0x40 MSTORE DUP1 SWAP3 SWAP2 SWAP1 DUP2 DUP2 MSTORE PUSH1 0x20 ADD DUP3 DUP1 SLOAD DUP1 ISZERO PUSH2 0x8D6 JUMPI PUSH1 0x20 MUL DUP3 ADD SWAP2 SWAP1 PUSH0 MSTORE PUSH1 0x20 PUSH0 KECCAK256 SWAP1 JUMPDEST DUP2 SLOAD DUP2 MSTORE PUSH1 0x20 ADD SWAP1 PUSH1 0x1 ADD SWAP1 DUP1 DUP4 GT PUSH2 0x8C2 JUMPI JUMPDEST POP POP POP POP POP DUP2 MSTORE POP POP SWAP1 POP SWAP2 SWAP1 POP JUMP JUMPDEST PUSH0 PUSH1 0x20 MSTORE DUP1 PUSH0 MSTORE PUSH1 0x40 PUSH0 KECCAK256 PUSH0 SWAP2 POP SWAP1 POP DUP1 PUSH0 ADD SLOAD SWAP1 DUP1 PUSH1 0x1 ADD SLOAD SWAP1 DUP1 PUSH1 0x2 ADD SLOAD SWAP1 DUP1 PUSH1 0x3 ADD SLOAD SWAP1 DUP1 PUSH1 0x4 ADD SLOAD SWAP1 DUP1 PUSH1 0x5 ADD SLOAD SWAP1 DUP1 PUSH1 0x6 ADD SLOAD SWAP1 DUP1 PUSH1 0x7 ADD SLOAD SWAP1 DUP1 PUSH1 0x8 ADD SLOAD SWAP1 DUP1 PUSH1 0x9 ADD SLOAD SWAP1 DUP1 PUSH1 0xA ADD DUP1 SLOAD PUSH2 0x940 SWAP1 PUSH2 0x2ED1 JUMP JUMPDEST DUP1 PUSH1 0x1F ADD PUSH1 0x20 DUP1 SWAP2 DIV MUL PUSH1 0x20 ADD PUSH1 0x40 MLOAD SWAP1 DUP2 ADD PUSH1 0x40 MSTORE DUP1 SWAP3 SWAP2 SWAP1 DUP2 DUP2 MSTORE PUSH1 0x20 ADD DUP3 DUP1 SLOAD PUSH2 0x96C SWAP1 PUSH2 0x2ED1 JUMP JUMPDEST DUP1 ISZERO PUSH2 0x9B7 JUMPI DUP1 PUSH1 0x1F LT PUSH2 0x98E JUMPI PUSH2 0x100 DUP1 DUP4 SLOAD DIV MUL DUP4 MSTORE SWAP2 PUSH1 0x20 ADD SWAP2 PUSH2 0x9B7 JUMP JUMPDEST DUP3 ADD SWAP2 SWAP1 PUSH0 MSTORE PUSH1 0x20 PUSH0 KECCAK256 SWAP1 JUMPDEST DUP2 SLOAD DUP2 MSTORE SWAP1 PUSH1 0x1 ADD SWAP1 PUSH1 0x20 ADD DUP1 DUP4 GT PUSH2 0x99A JUMPI DUP3 SWAP1 SUB PUSH1 0x1F AND DUP3 ADD SWAP2 JUMPDEST POP POP POP POP POP SWAP1 DUP1 PUSH1 0xB ADD PUSH0 SWAP1 SLOAD SWAP1 PUSH2 0x100 EXP SWAP1 DIV PUSH1 0xFF AND SWAP1 POP DUP13 JUMP JUMPDEST PUSH1 0x5 DUP2 DUP2 SLOAD DUP2 LT PUSH2 0x9E2 JUMPI PUSH0 DUP1 REVERT JUMPDEST SWAP1 PUSH0 MSTORE PUSH1 0x20 PUSH0 KECCAK256 ADD PUSH0 SWAP2 POP SWAP1 POP SLOAD DUP2 JUMP JUMPDEST PUSH0 DUP1 CALLER PUSH20 0xFFFFFFFFFFFFFFFFFFFFFFFFFFFFFFFFFFFFFFFF AND PUSH20 0xFFFFFFFFFFFFFFFFFFFFFFFFFFFFFFFFFFFFFFFF AND DUP2 MSTORE PUSH1 0x20 ADD SWAP1 DUP2 MSTORE PUSH1 0x20 ADD PUSH0 KECCAK256 PUSH1 0xB ADD PUSH0 SWAP1 SLOAD SWAP1 PUSH2 0x100 EXP SWAP1 DIV PUSH1 0xFF AND ISZERO PUSH2 0xA7F JUMPI PUSH1 0x40 MLOAD PUSH32 0x8C379A000000000000000000000000000000000000000000000000000000000 DUP2 MSTORE PUSH1 0x4 ADD PUSH2 0xA76 SWAP1 PUSH2 0x2F4B JUMP JUMPDEST PUSH1 0x40 MLOAD DUP1 SWAP2 SUB SWAP1 REVERT JUMPDEST PUSH0 DUP1 PUSH0 CALLER PUSH20 0xFFFFFFFFFFFFFFFFFFFFFFFFFFFFFFFFFFFFFFFF AND PUSH20 0xFFFFFFFFFFFFFFFFFFFFFFFFFFFFFFFFFFFFFFFF AND DUP2 MSTORE PUSH1 0x20 ADD SWAP1 DUP2 MSTORE PUSH1 0x20 ADD PUSH0 KECCAK256 SWAP1 POP PUSH0 DUP1 SHL DUP2 PUSH0 ADD DUP2 SWAP1 SSTORE POP PUSH0 DUP1 SHL DUP2 PUSH1 0x1 ADD DUP2 SWAP1 SSTORE POP PUSH0 DUP1 SHL DUP2 PUSH1 0x2 ADD DUP2 SWAP1 SSTORE POP PUSH0 DUP1 SHL DUP2 PUSH1 0x3 ADD DUP2 SWAP1 SSTORE POP PUSH0 DUP1 SHL DUP2 PUSH1 0x4 ADD DUP2 SWAP1 SSTORE POP PUSH0 DUP2 PUSH1 0x5 ADD DUP2 SWAP1 SSTORE POP PUSH0 DUP1 SHL DUP2 PUSH1 0x6 ADD DUP2 SWAP1 SSTORE POP PUSH0 DUP1 SHL DUP2 PUSH1 0x7 ADD DUP2 SWAP1 SSTORE POP PUSH0 DUP2 PUSH1 0x8 ADD DUP2 SWAP1 SSTORE POP PUSH0 DUP2 PUSH1 0x9 ADD DUP2 SWAP1 SSTORE POP PUSH1 0x40 MLOAD DUP1 PUSH1 0x20 ADD PUSH1 0x40 MSTORE DUP1 PUSH0 DUP2 MSTORE POP DUP2 PUSH1 0xA ADD SWAP1 DUP2 PUSH2 0xB44 SWAP2 SWAP1 PUSH2 0x3106 JUMP JUMPDEST POP PUSH1 0x1 DUP2 PUSH1 0xB ADD PUSH0 PUSH2 0x100 EXP DUP2 SLOAD DUP2 PUSH1 0xFF MUL NOT AND SWAP1 DUP4 ISZERO ISZERO MUL OR SWAP1 SSTORE POP PUSH1 0x6 PUSH0 DUP2 SLOAD DUP1 SWAP3 SWAP2 SWAP1 PUSH2 0xB73 SWAP1 PUSH2 0x3202 JUMP JUMPDEST SWAP2 SWAP1 POP SSTORE POP PUSH1 0x6 SLOAD CALLER PUSH20 0xFFFFFFFFFFFFFFFFFFFFFFFFFFFFFFFFFFFFFFFF AND PUSH32 0xB23E32D17AA5BD5150257CB0F0484E7AF024E3174FA58F18526866759440B5F1 PUSH1 0x40 MLOAD PUSH1 0x40 MLOAD DUP1 SWAP2 SUB SWAP1 LOG3 POP JUMP JUMPDEST PUSH0 DUP1 CALLER PUSH20 0xFFFFFFFFFFFFFFFFFFFFFFFFFFFFFFFFFFFFFFFF AND PUSH20 0xFFFFFFFFFFFFFFFFFFFFFFFFFFFFFFFFFFFFFFFF AND DUP2 MSTORE PUSH1 0x20 ADD SWAP1 DUP2 MSTORE PUSH1 0x20 ADD PUSH0 KECCAK256 PUSH1 0xB ADD PUSH0 SWAP1 SLOAD SWAP1 PUSH2 0x100 EXP SWAP1 DIV PUSH1 0xFF AND PUSH2 0xC4C JUMPI PUSH1 0x40 MLOAD PUSH32 0x8C379A000000000000000000000000000000000000000000000000000000000 DUP2 MSTORE PUSH1 0x4 ADD PUSH2 0xC43 SWAP1 PUSH2 0x2E1E JUMP JUMPDEST PUSH1 0x40 MLOAD DUP1 SWAP2 SUB SWAP1 REVERT JUMPDEST DUP1 PUSH0 DUP1 DUP5 PUSH20 0xFFFFFFFFFFFFFFFFFFFFFFFFFFFFFFFFFFFFFFFF AND PUSH20 0xFFFFFFFFFFFFFFFFFFFFFFFFFFFFFFFFFFFFFFFF AND DUP2 MSTORE PUSH1 0x20 ADD SWAP1 DUP2 MSTORE PUSH1 0x20 ADD PUSH0 KECCAK256 PUSH1 0xA ADD SWAP1 DUP2 PUSH2 0xC98 SWAP2 SWAP1 PUSH2 0x3106 JUMP JUMPDEST POP POP POP JUMP JUMPDEST PUSH1 0x2 PUSH0 DUP3 DUP2 MSTORE PUSH1 0x20 ADD SWAP1 DUP2 MSTORE PUSH1 0x20 ADD PUSH0 KECCAK256 PUSH1 0x8 ADD PUSH0 SWAP1 SLOAD SWAP1 PUSH2 0x100 EXP SWAP1 DIV PUSH1 0xFF AND ISZERO PUSH2 0xCFE JUMPI PUSH1 0x40 MLOAD PUSH32 0x8C379A000000000000000000000000000000000000000000000000000000000 DUP2 MSTORE PUSH1 0x4 ADD PUSH2 0xCF5 SWAP1 PUSH2 0x3293 JUMP JUMPDEST PUSH1 0x40 MLOAD DUP1 SWAP2 SUB SWAP1 REVERT JUMPDEST PUSH0 PUSH1 0x2 PUSH0 DUP4 DUP2 MSTORE PUSH1 0x20 ADD SWAP1 DUP2 MSTORE PUSH1 0x20 ADD PUSH0 KECCAK256 SWAP1 POP DUP3 DUP2 PUSH0 ADD PUSH0 PUSH2 0x100 EXP DUP2 SLOAD DUP2 PUSH8 0xFFFFFFFFFFFFFFFF MUL NOT AND SWAP1 DUP4 PUSH8 0xFFFFFFFFFFFFFFFF AND MUL OR SWAP1 SSTORE POP DUP2 DUP2 PUSH1 0x1 ADD DUP2 SWAP1 SSTORE POP PUSH0 DUP2 PUSH1 0x2 ADD PUSH0 PUSH2 0x100 EXP DUP2 SLOAD DUP2 PUSH2 0xFFFF MUL NOT AND SWAP1 DUP4 PUSH2 0xFFFF AND MUL OR SWAP1 SSTORE POP PUSH0 DUP1 SHL DUP2 PUSH1 0x3 ADD DUP2 SWAP1 SSTORE POP PUSH1 0x1 DUP2 PUSH1 0x8 ADD PUSH0 PUSH2 0x100 EXP DUP2 SLOAD DUP2 PUSH1 0xFF MUL NOT AND SWAP1 DUP4 ISZERO ISZERO MUL OR SWAP1 SSTORE POP PUSH1 0x4 DUP3 SWAP1 DUP1 PUSH1 0x1 DUP2 SLOAD ADD DUP1 DUP3 SSTORE DUP1 SWAP2 POP POP PUSH1 0x1 SWAP1 SUB SWAP1 PUSH0 MSTORE PUSH1 0x20 PUSH0 KECCAK256 ADD PUSH0 SWAP1 SWAP2 SWAP1 SWAP2 SWAP1 SWAP2 POP SSTORE DUP2 PUSH32 0xC8087D40871A0423FB8F59AFD44E84B66C9030E0D4156EB69B46AF475C961021 PUSH1 0x40 MLOAD PUSH1 0x40 MLOAD DUP1 SWAP2 SUB SWAP1 LOG2 POP POP POP JUMP JUMPDEST PUSH1 0x2 PUSH1 0x20 MSTORE DUP1 PUSH0 MSTORE PUSH1 0x40 PUSH0 KECCAK256 PUSH0 SWAP2 POP SWAP1 POP DUP1 PUSH0 ADD PUSH0 SWAP1 SLOAD SWAP1 PUSH2 0x100 EXP SWAP1 DIV PUSH8 0xFFFFFFFFFFFFFFFF AND SWAP1 DUP1 PUSH1 0x1 ADD SLOAD SWAP1 DUP1 PUSH1 0x2 ADD PUSH0 SWAP1 SLOAD SWAP1 PUSH2 0x100 EXP SWAP1 DIV PUSH2 0xFFFF AND SWAP1 DUP1 PUSH1 0x3 ADD SLOAD SWAP1 DUP1 PUSH1 0x8 ADD PUSH0 SWAP1 SLOAD SWAP1 PUSH2 0x100 EXP SWAP1 DIV PUSH1 0xFF AND SWAP1 POP DUP6 JUMP JUMPDEST PUSH2 0xE47 PUSH2 0x1EFA JUMP JUMPDEST PUSH1 0x2 PUSH0 DUP4 DUP2 MSTORE PUSH1 0x20 ADD SWAP1 DUP2 MSTORE PUSH1 0x20 ADD PUSH0 KECCAK256 PUSH1 0x8 ADD PUSH0 SWAP1 SLOAD SWAP1 PUSH2 0x100 EXP SWAP1 DIV PUSH1 0xFF AND PUSH2 0xEA7 JUMPI PUSH1 0x40 MLOAD PUSH32 0x8C379A000000000000000000000000000000000000000000000000000000000 DUP2 MSTORE PUSH1 0x4 ADD PUSH2 0xE9E SWAP1 PUSH2 0x32FB JUMP JUMPDEST PUSH1 0x40 MLOAD DUP1 SWAP2 SUB SWAP1 REVERT JUMPDEST PUSH1 0x2 PUSH0 DUP4 DUP2 MSTORE PUSH1 0x20 ADD SWAP1 DUP2 MSTORE PUSH1 0x20 ADD PUSH0 KECCAK256 PUSH1 0x40 MLOAD DUP1 PUSH2 0x120 ADD PUSH1 0x40 MSTORE SWAP1 DUP2 PUSH0 DUP3 ADD PUSH0 SWAP1 SLOAD SWAP1 PUSH2 0x100 EXP SWAP1 DIV PUSH8 0xFFFFFFFFFFFFFFFF AND PUSH8 0xFFFFFFFFFFFFFFFF AND PUSH8 0xFFFFFFFFFFFFFFFF AND DUP2 MSTORE PUSH1 0x20 ADD PUSH1 0x1 DUP3 ADD SLOAD DUP2 MSTORE PUSH1 0x20 ADD PUSH1 0x2 DUP3 ADD PUSH0 SWAP1 SLOAD SWAP1 PUSH2 0x100 EXP SWAP1 DIV PUSH2 0xFFFF AND PUSH2 0xFFFF AND PUSH2 0xFFFF AND DUP2 MSTORE PUSH1 0x20 ADD PUSH1 0x3 DUP3 ADD SLOAD DUP2 MSTORE PUSH1 0x20 ADD PUSH1 0x4 DUP3 ADD DUP1 SLOAD DUP1 PUSH1 0x20 MUL PUSH1 0x20 ADD PUSH1 0x40 MLOAD SWAP1 DUP2 ADD PUSH1 0x40 MSTORE DUP1 SWAP3 SWAP2 SWAP1 DUP2 DUP2 MSTORE PUSH1 0x20 ADD DUP3 DUP1 SLOAD DUP1 ISZERO PUSH2 0xF74 JUMPI PUSH1 0x20 MUL DUP3 ADD SWAP2 SWAP1 PUSH0 MSTORE PUSH1 0x20 PUSH0 KECCAK256 SWAP1 JUMPDEST DUP2 SLOAD DUP2 MSTORE PUSH1 0x20 ADD SWAP1 PUSH1 0x1 ADD SWAP1 DUP1 DUP4 GT PUSH2 0xF60 JUMPI JUMPDEST POP POP POP POP POP DUP2 MSTORE PUSH1 0x20 ADD PUSH1 0x5 DUP3 ADD DUP1 SLOAD DUP1 PUSH1 0x20 MUL PUSH1 0x20 ADD PUSH1 0x40 MLOAD SWAP1 DUP2 ADD PUSH1 0x40 MSTORE DUP1 SWAP3 SWAP2 SWAP1 DUP2 DUP2 MSTORE PUSH1 0x20 ADD DUP3 DUP1 SLOAD DUP1 ISZERO PUSH2 0xFF1 JUMPI PUSH1 0x20 MUL DUP3 ADD SWAP2 SWAP1 PUSH0 MSTORE PUSH1 0x20 PUSH0 KECCAK256 SWAP1 PUSH0 SWAP1 JUMPDEST DUP3 DUP3 SWAP1 SLOAD SWAP1 PUSH2 0x100 EXP SWAP1 DIV PUSH2 0xFFFF AND PUSH2 0xFFFF AND DUP2 MSTORE PUSH1 0x20 ADD SWAP1 PUSH1 0x2 ADD SWAP1 PUSH1 0x20 DUP3 PUSH1 0x1 ADD DIV SWAP3 DUP4 ADD SWAP3 PUSH1 0x1 SUB DUP3 MUL SWAP2 POP DUP1 DUP5 GT PUSH2 0xFB8 JUMPI SWAP1 POP JUMPDEST POP POP POP POP POP DUP2 MSTORE PUSH1 0x20 ADD PUSH1 0x6 DUP3 ADD DUP1 SLOAD DUP1 PUSH1 0x20 MUL PUSH1 0x20 ADD PUSH1 0x40 MLOAD SWAP1 DUP2 ADD PUSH1 0x40 MSTORE DUP1 SWAP3 SWAP2 SWAP1 DUP2 DUP2 MSTORE PUSH1 0x20 ADD DUP3 DUP1 SLOAD DUP1 ISZERO PUSH2 0x1047 JUMPI PUSH1 0x20 MUL DUP3 ADD SWAP2 SWAP1 PUSH0 MSTORE PUSH1 0x20 PUSH0 KECCAK256 SWAP1 JUMPDEST DUP2 SLOAD DUP2 MSTORE PUSH1 0x20 ADD SWAP1 PUSH1 0x1 ADD SWAP1 DUP1 DUP4 GT PUSH2 0x1033 JUMPI JUMPDEST POP POP POP POP POP DUP2 MSTORE PUSH1 0x20 ADD PUSH1 0x7 DUP3 ADD DUP1 SLOAD DUP1 PUSH1 0x20 MUL PUSH1 0x20 ADD PUSH1 0x40 MLOAD SWAP1 DUP2 ADD PUSH1 0x40 MSTORE DUP1 SWAP3 SWAP2 SWAP1 DUP2 DUP2 MSTORE PUSH1 0x20 ADD DUP3 DUP1 SLOAD DUP1 ISZERO PUSH2 0x10C4 JUMPI PUSH1 0x20 MUL DUP3 ADD SWAP2 SWAP1 PUSH0 MSTORE PUSH1 0x20 PUSH0 KECCAK256 SWAP1 PUSH0 SWAP1 JUMPDEST DUP3 DUP3 SWAP1 SLOAD SWAP1 PUSH2 0x100 EXP SWAP1 DIV PUSH2 0xFFFF AND PUSH2 0xFFFF AND DUP2 MSTORE PUSH1 0x20 ADD SWAP1 PUSH1 0x2 ADD SWAP1 PUSH1 0x20 DUP3 PUSH1 0x1 ADD DIV SWAP3 DUP4 ADD SWAP3 PUSH1 0x1 SUB DUP3 MUL SWAP2 POP DUP1 DUP5 GT PUSH2 0x108B JUMPI SWAP1 POP JUMPDEST POP POP POP POP POP DUP2 MSTORE PUSH1 0x20 ADD PUSH1 0x8 DUP3 ADD PUSH0 SWAP1 SLOAD SWAP1 PUSH2 0x100 EXP SWAP1 DIV PUSH1 0xFF AND ISZERO ISZERO ISZERO ISZERO DUP2 MSTORE POP POP SWAP1 POP SWAP2 SWAP1 POP JUMP JUMPDEST PUSH0 DUP1 DUP3 GT DUP1 ISZERO PUSH2 0x1103 JUMPI POP PUSH1 0x4 DUP1 SLOAD SWAP1 POP DUP3 GT ISZERO JUMPDEST PUSH2 0x1142 JUMPI PUSH1 0x40 MLOAD PUSH32 0x8C379A000000000000000000000000000000000000000000000000000000000 DUP2 MSTORE PUSH1 0x4 ADD PUSH2 0x1139 SWAP1 PUSH2 0x3363 JUMP JUMPDEST PUSH1 0x40 MLOAD DUP1 SWAP2 SUB SWAP1 REVERT JUMPDEST PUSH1 0x4 PUSH1 0x1 DUP4 PUSH2 0x1151 SWAP2 SWAP1 PUSH2 0x3381 JUMP JUMPDEST DUP2 SLOAD DUP2 LT PUSH2 0x1162 JUMPI PUSH2 0x1161 PUSH2 0x33B4 JUMP JUMPDEST JUMPDEST SWAP1 PUSH0 MSTORE PUSH1 0x20 PUSH0 KECCAK256 ADD SLOAD SWAP1 POP SWAP2 SWAP1 POP JUMP JUMPDEST PUSH0 DUP1 CALLER PUSH20 0xFFFFFFFFFFFFFFFFFFFFFFFFFFFFFFFFFFFFFFFF AND PUSH20 0xFFFFFFFFFFFFFFFFFFFFFFFFFFFFFFFFFFFFFFFF AND DUP2 MSTORE PUSH1 0x20 ADD SWAP1 DUP2 MSTORE PUSH1 0x20 ADD PUSH0 KECCAK256 PUSH1 0xB ADD PUSH0 SWAP1 SLOAD SWAP1 PUSH2 0x100 EXP SWAP1 DIV PUSH1 0xFF AND PUSH2 0x11FD JUMPI PUSH1 0x40 MLOAD PUSH32 0x8C379A000000000000000000000000000000000000000000000000000000000 DUP2 MSTORE PUSH1 0x4 ADD PUSH2 0x11F4 SWAP1 PUSH2 0x2E1E JUMP JUMPDEST PUSH1 0x40 MLOAD DUP1 SWAP2 SUB SWAP1 REVERT JUMPDEST DUP1 PUSH0 DUP1 DUP5 PUSH20 0xFFFFFFFFFFFFFFFFFFFFFFFFFFFFFFFFFFFFFFFF AND PUSH20 0xFFFFFFFFFFFFFFFFFFFFFFFFFFFFFFFFFFFFFFFF AND DUP2 MSTORE PUSH1 0x20 ADD SWAP1 DUP2 MSTORE PUSH1 0x20 ADD PUSH0 KECCAK256 PUSH1 0x6 ADD DUP2 SWAP1 SSTORE POP POP POP JUMP JUMPDEST PUSH0 DUP1 CALLER PUSH20 0xFFFFFFFFFFFFFFFFFFFFFFFFFFFFFFFFFFFFFFFF AND PUSH20 0xFFFFFFFFFFFFFFFFFFFFFFFFFFFFFFFFFFFFFFFF AND DUP2 MSTORE PUSH1 0x20 ADD SWAP1 DUP2 MSTORE PUSH1 0x20 ADD PUSH0 KECCAK256 PUSH1 0xB ADD PUSH0 SWAP1 SLOAD SWAP1 PUSH2 0x100 EXP SWAP1 DIV PUSH1 0xFF AND PUSH2 0x12D0 JUMPI PUSH1 0x40 MLOAD PUSH32 0x8C379A000000000000000000000000000000000000000000000000000000000 DUP2 MSTORE PUSH1 0x4 ADD PUSH2 0x12C7 SWAP1 PUSH2 0x2E1E JUMP JUMPDEST PUSH1 0x40 MLOAD DUP1 SWAP2 SUB SWAP1 REVERT JUMPDEST DUP1 PUSH0 DUP1 DUP5 PUSH20 0xFFFFFFFFFFFFFFFFFFFFFFFFFFFFFFFFFFFFFFFF AND PUSH20 0xFFFFFFFFFFFFFFFFFFFFFFFFFFFFFFFFFFFFFFFF AND DUP2 MSTORE PUSH1 0x20 ADD SWAP1 DUP2 MSTORE PUSH1 0x20 ADD PUSH0 KECCAK256 PUSH1 0x1 ADD DUP2 SWAP1 SSTORE POP POP POP JUMP JUMPDEST PUSH2 0x1320 PUSH2 0x1F57 JUMP JUMPDEST PUSH0 DUP1 DUP4 PUSH20 0xFFFFFFFFFFFFFFFFFFFFFFFFFFFFFFFFFFFFFFFF AND PUSH20 0xFFFFFFFFFFFFFFFFFFFFFFFFFFFFFFFFFFFFFFFF AND DUP2 MSTORE PUSH1 0x20 ADD SWAP1 DUP2 MSTORE PUSH1 0x20 ADD PUSH0 KECCAK256 PUSH1 0xB ADD PUSH0 SWAP1 SLOAD SWAP1 PUSH2 0x100 EXP SWAP1 DIV PUSH1 0xFF AND PUSH2 0x13AB JUMPI PUSH1 0x40 MLOAD PUSH32 0x8C379A000000000000000000000000000000000000000000000000000000000 DUP2 MSTORE PUSH1 0x4 ADD PUSH2 0x13A2 SWAP1 PUSH2 0x2E1E JUMP JUMPDEST PUSH1 0x40 MLOAD DUP1 SWAP2 SUB SWAP1 REVERT JUMPDEST PUSH0 DUP1 DUP4 PUSH20 0xFFFFFFFFFFFFFFFFFFFFFFFFFFFFFFFFFFFFFFFF AND PUSH20 0xFFFFFFFFFFFFFFFFFFFFFFFFFFFFFFFFFFFFFFFF AND DUP2 MSTORE PUSH1 0x20 ADD SWAP1 DUP2 MSTORE PUSH1 0x20 ADD PUSH0 KECCAK256 PUSH1 0x40 MLOAD DUP1 PUSH2 0x180 ADD PUSH1 0x40 MSTORE SWAP1 DUP2 PUSH0 DUP3 ADD SLOAD DUP2 MSTORE PUSH1 0x20 ADD PUSH1 0x1 DUP3 ADD SLOAD DUP2 MSTORE PUSH1 0x20 ADD PUSH1 0x2 DUP3 ADD SLOAD DUP2 MSTORE PUSH1 0x20 ADD PUSH1 0x3 DUP3 ADD SLOAD DUP2 MSTORE PUSH1 0x20 ADD PUSH1 0x4 DUP3 ADD SLOAD DUP2 MSTORE PUSH1 0x20 ADD PUSH1 0x5 DUP3 ADD SLOAD DUP2 MSTORE PUSH1 0x20 ADD PUSH1 0x6 DUP3 ADD SLOAD DUP2 MSTORE PUSH1 0x20 ADD PUSH1 0x7 DUP3 ADD SLOAD DUP2 MSTORE PUSH1 0x20 ADD PUSH1 0x8 DUP3 ADD SLOAD DUP2 MSTORE PUSH1 0x20 ADD PUSH1 0x9 DUP3 ADD SLOAD DUP2 MSTORE PUSH1 0x20 ADD PUSH1 0xA DUP3 ADD DUP1 SLOAD PUSH2 0x1466 SWAP1 PUSH2 0x2ED1 JUMP JUMPDEST DUP1 PUSH1 0x1F ADD PUSH1 0x20 DUP1 SWAP2 DIV MUL PUSH1 0x20 ADD PUSH1 0x40 MLOAD SWAP1 DUP2 ADD PUSH1 0x40 MSTORE DUP1 SWAP3 SWAP2 SWAP1 DUP2 DUP2 MSTORE PUSH1 0x20 ADD DUP3 DUP1 SLOAD PUSH2 0x1492 SWAP1 PUSH2 0x2ED1 JUMP JUMPDEST DUP1 ISZERO PUSH2 0x14DD JUMPI DUP1 PUSH1 0x1F LT PUSH2 0x14B4 JUMPI PUSH2 0x100 DUP1 DUP4 SLOAD DIV MUL DUP4 MSTORE SWAP2 PUSH1 0x20 ADD SWAP2 PUSH2 0x14DD JUMP JUMPDEST DUP3 ADD SWAP2 SWAP1 PUSH0 MSTORE PUSH1 0x20 PUSH0 KECCAK256 SWAP1 JUMPDEST DUP2 SLOAD DUP2 MSTORE SWAP1 PUSH1 0x1 ADD SWAP1 PUSH1 0x20 ADD DUP1 DUP4 GT PUSH2 0x14C0 JUMPI DUP3 SWAP1 SUB PUSH1 0x1F AND DUP3 ADD SWAP2 JUMPDEST POP POP POP POP POP DUP2 MSTORE PUSH1 0x20 ADD PUSH1 0xB DUP3 ADD PUSH0 SWAP1 SLOAD SWAP1 PUSH2 0x100 EXP SWAP1 DIV PUSH1 0xFF AND ISZERO ISZERO ISZERO ISZERO DUP2 MSTORE POP POP SWAP1 POP SWAP2 SWAP1 POP JUMP JUMPDEST PUSH0 DUP1 CALLER PUSH20 0xFFFFFFFFFFFFFFFFFFFFFFFFFFFFFFFFFFFFFFFF AND PUSH20 0xFFFFFFFFFFFFFFFFFFFFFFFFFFFFFFFFFFFFFFFF AND DUP2 MSTORE PUSH1 0x20 ADD SWAP1 DUP2 MSTORE PUSH1 0x20 ADD PUSH0 KECCAK256 PUSH1 0xB ADD PUSH0 SWAP1 SLOAD SWAP1 PUSH2 0x100 EXP SWAP1 DIV PUSH1 0xFF AND PUSH2 0x1592 JUMPI PUSH1 0x40 MLOAD PUSH32 0x8C379A000000000000000000000000000000000000000000000000000000000 DUP2 MSTORE PUSH1 0x4 ADD PUSH2 0x1589 SWAP1 PUSH2 0x2E1E JUMP JUMPDEST PUSH1 0x40 MLOAD DUP1 SWAP2 SUB SWAP1 REVERT JUMPDEST DUP1 PUSH0 DUP1 DUP5 PUSH20 0xFFFFFFFFFFFFFFFFFFFFFFFFFFFFFFFFFFFFFFFF AND PUSH20 0xFFFFFFFFFFFFFFFFFFFFFFFFFFFFFFFFFFFFFFFF AND DUP2 MSTORE PUSH1 0x20 ADD SWAP1 DUP2 MSTORE PUSH1 0x20 ADD PUSH0 KECCAK256 PUSH1 0x9 ADD DUP2 SWAP1 SSTORE POP POP POP JUMP JUMPDEST PUSH0 DUP1 CALLER PUSH20 0xFFFFFFFFFFFFFFFFFFFFFFFFFFFFFFFFFFFFFFFF AND PUSH20 0xFFFFFFFFFFFFFFFFFFFFFFFFFFFFFFFFFFFFFFFF AND DUP2 MSTORE PUSH1 0x20 ADD SWAP1 DUP2 MSTORE PUSH1 0x20 ADD PUSH0 KECCAK256 PUSH1 0xB ADD PUSH0 SWAP1 SLOAD SWAP1 PUSH2 0x100 EXP SWAP1 DIV PUSH1 0xFF AND PUSH2 0x1665 JUMPI PUSH1 0x40 MLOAD PUSH32 0x8C379A000000000000000000000000000000000000000000000000000000000 DUP2 MSTORE PUSH1 0x4 ADD PUSH2 0x165C SWAP1 PUSH2 0x2E1E JUMP JUMPDEST PUSH1 0x40 MLOAD DUP1 SWAP2 SUB SWAP1 REVERT JUMPDEST DUP1 PUSH0 DUP1 DUP5 PUSH20 0xFFFFFFFFFFFFFFFFFFFFFFFFFFFFFFFFFFFFFFFF AND PUSH20 0xFFFFFFFFFFFFFFFFFFFFFFFFFFFFFFFFFFFFFFFF AND DUP2 MSTORE PUSH1 0x20 ADD SWAP1 DUP2 MSTORE PUSH1 0x20 ADD PUSH0 KECCAK256 PUSH1 0x8 ADD DUP2 SWAP1 SSTORE POP POP POP JUMP JUMPDEST PUSH0 DUP1 CALLER PUSH20 0xFFFFFFFFFFFFFFFFFFFFFFFFFFFFFFFFFFFFFFFF AND PUSH20 0xFFFFFFFFFFFFFFFFFFFFFFFFFFFFFFFFFFFFFFFF AND DUP2 MSTORE PUSH1 0x20 ADD SWAP1 DUP2 MSTORE PUSH1 0x20 ADD PUSH0 KECCAK256 PUSH1 0xB ADD PUSH0 SWAP1 SLOAD SWAP1 PUSH2 0x100 EXP SWAP1 DIV PUSH1 0xFF AND PUSH2 0x1738 JUMPI PUSH1 0x40 MLOAD PUSH32 0x8C379A000000000000000000000000000000000000000000000000000000000 DUP2 MSTORE PUSH1 0x4 ADD PUSH2 0x172F SWAP1 PUSH2 0x2E1E JUMP JUMPDEST PUSH1 0x40 MLOAD DUP1 SWAP2 SUB SWAP1 REVERT JUMPDEST DUP1 PUSH0 DUP1 DUP5 PUSH20 0xFFFFFFFFFFFFFFFFFFFFFFFFFFFFFFFFFFFFFFFF AND PUSH20 0xFFFFFFFFFFFFFFFFFFFFFFFFFFFFFFFFFFFFFFFF AND DUP2 MSTORE PUSH1 0x20 ADD SWAP1 DUP2 MSTORE PUSH1 0x20 ADD PUSH0 KECCAK256 PUSH1 0x7 ADD DUP2 SWAP1 SSTORE POP POP POP JUMP JUMPDEST PUSH0 DUP1 CALLER PUSH20 0xFFFFFFFFFFFFFFFFFFFFFFFFFFFFFFFFFFFFFFFF AND PUSH20 0xFFFFFFFFFFFFFFFFFFFFFFFFFFFFFFFFFFFFFFFF AND DUP2 MSTORE PUSH1 0x20 ADD SWAP1 DUP2 MSTORE PUSH1 0x20 ADD PUSH0 KECCAK256 PUSH1 0xB ADD PUSH0 SWAP1 SLOAD SWAP1 PUSH2 0x100 EXP SWAP1 DIV PUSH1 0xFF AND PUSH2 0x180B JUMPI PUSH1 0x40 MLOAD PUSH32 0x8C379A000000000000000000000000000000000000000000000000000000000 DUP2 MSTORE PUSH1 0x4 ADD PUSH2 0x1802 SWAP1 PUSH2 0x2E1E JUMP JUMPDEST PUSH1 0x40 MLOAD DUP1 SWAP2 SUB SWAP1 REVERT JUMPDEST DUP1 PUSH0 DUP1 DUP5 PUSH20 0xFFFFFFFFFFFFFFFFFFFFFFFFFFFFFFFFFFFFFFFF AND PUSH20 0xFFFFFFFFFFFFFFFFFFFFFFFFFFFFFFFFFFFFFFFF AND DUP2 MSTORE PUSH1 0x20 ADD SWAP1 DUP2 MSTORE PUSH1 0x20 ADD PUSH0 KECCAK256 PUSH1 0x5 ADD DUP2 SWAP1 SSTORE POP POP POP JUMP JUMPDEST PUSH2 0x185B PUSH2 0x1FC4 JUMP JUMPDEST PUSH1 0x3 PUSH0 DUP4 DUP2 MSTORE PUSH1 0x20 ADD SWAP1 DUP2 MSTORE PUSH1 0x20 ADD PUSH0 KECCAK256 PUSH1 0x3 ADD PUSH1 0x9 SWAP1 SLOAD SWAP1 PUSH2 0x100 EXP SWAP1 DIV PUSH1 0xFF AND PUSH2 0x18BC JUMPI PUSH1 0x40 MLOAD PUSH32 0x8C379A000000000000000000000000000000000000000000000000000000000 DUP2 MSTORE PUSH1 0x4 ADD PUSH2 0x18B3 SWAP1 PUSH2 0x342B JUMP JUMPDEST PUSH1 0x40 MLOAD DUP1 SWAP2 SUB SWAP1 REVERT JUMPDEST PUSH1 0x3 PUSH0 DUP4 DUP2 MSTORE PUSH1 0x20 ADD SWAP1 DUP2 MSTORE PUSH1 0x20 ADD PUSH0 KECCAK256 PUSH1 0x40 MLOAD DUP1 PUSH2 0x100 ADD PUSH1 0x40 MSTORE SWAP1 DUP2 PUSH0 DUP3 ADD SLOAD DUP2 MSTORE PUSH1 0x20 ADD PUSH1 0x1 DUP3 ADD SLOAD DUP2 MSTORE PUSH1 0x20 ADD PUSH1 0x2 DUP3 ADD SLOAD DUP2 MSTORE PUSH1 0x20 ADD PUSH1 0x3 DUP3 ADD PUSH0 SWAP1 SLOAD SWAP1 PUSH2 0x100 EXP SWAP1 DIV PUSH2 0xFFFF AND PUSH2 0xFFFF AND PUSH2 0xFFFF AND DUP2 MSTORE PUSH1 0x20 ADD PUSH1 0x3 DUP3 ADD PUSH1 0x2 SWAP1 SLOAD SWAP1 PUSH2 0x100 EXP SWAP1 DIV PUSH2 0xFFFF AND PUSH2 0xFFFF AND PUSH2 0xFFFF AND DUP2 MSTORE PUSH1 0x20 ADD PUSH1 0x3 DUP3 ADD PUSH1 0x4 SWAP1 SLOAD SWAP1 PUSH2 0x100 EXP SWAP1 DIV PUSH1 0xFF AND PUSH1 0xFF AND PUSH1 0xFF AND DUP2 MSTORE PUSH1 0x20 ADD PUSH1 0x3 DUP3 ADD PUSH1 0x5 SWAP1 SLOAD SWAP1 PUSH2 0x100 EXP SWAP1 DIV PUSH4 0xFFFFFFFF AND PUSH4 0xFFFFFFFF AND PUSH4 0xFFFFFFFF AND DUP2 MSTORE PUSH1 0x20 ADD PUSH1 0x3 DUP3 ADD PUSH1 0x9 SWAP1 SLOAD SWAP1 PUSH2 0x100 EXP SWAP1 DIV PUSH1 0xFF AND ISZERO ISZERO ISZERO ISZERO DUP2 MSTORE POP POP SWAP1 POP SWAP2 SWAP1 POP JUMP JUMPDEST PUSH0 DUP1 CALLER PUSH20 0xFFFFFFFFFFFFFFFFFFFFFFFFFFFFFFFFFFFFFFFF AND PUSH20 0xFFFFFFFFFFFFFFFFFFFFFFFFFFFFFFFFFFFFFFFF AND DUP2 MSTORE PUSH1 0x20 ADD SWAP1 DUP2 MSTORE PUSH1 0x20 ADD PUSH0 KECCAK256 PUSH1 0xB ADD PUSH0 SWAP1 SLOAD SWAP1 PUSH2 0x100 EXP SWAP1 DIV PUSH1 0xFF AND PUSH2 0x1A25 JUMPI PUSH1 0x40 MLOAD PUSH32 0x8C379A000000000000000000000000000000000000000000000000000000000 DUP2 MSTORE PUSH1 0x4 ADD PUSH2 0x1A1C SWAP1 PUSH2 0x2E1E JUMP JUMPDEST PUSH1 0x40 MLOAD DUP1 SWAP2 SUB SWAP1 REVERT JUMPDEST DUP1 PUSH0 DUP1 DUP5 PUSH20 0xFFFFFFFFFFFFFFFFFFFFFFFFFFFFFFFFFFFFFFFF AND PUSH20 0xFFFFFFFFFFFFFFFFFFFFFFFFFFFFFFFFFFFFFFFF AND DUP2 MSTORE PUSH1 0x20 ADD SWAP1 DUP2 MSTORE PUSH1 0x20 ADD PUSH0 KECCAK256 PUSH1 0x2 ADD DUP2 SWAP1 SSTORE POP POP POP JUMP JUMPDEST PUSH1 0x3 PUSH1 0x20 MSTORE DUP1 PUSH0 MSTORE PUSH1 0x40 PUSH0 KECCAK256 PUSH0 SWAP2 POP SWAP1 POP DUP1 PUSH0 ADD SLOAD SWAP1 DUP1 PUSH1 0x1 ADD SLOAD SWAP1 DUP1 PUSH1 0x2 ADD SLOAD SWAP1 DUP1 PUSH1 0x3 ADD PUSH0 SWAP1 SLOAD SWAP1 PUSH2 0x100 EXP SWAP1 DIV PUSH2 0xFFFF AND SWAP1 DUP1 PUSH1 0x3 ADD PUSH1 0x2 SWAP1 SLOAD SWAP1 PUSH2 0x100 EXP SWAP1 DIV PUSH2 0xFFFF AND SWAP1 DUP1 PUSH1 0x3 ADD PUSH1 0x4 SWAP1 SLOAD SWAP1 PUSH2 0x100 EXP SWAP1 DIV PUSH1 0xFF AND SWAP1 DUP1 PUSH1 0x3 ADD PUSH1 0x5 SWAP1 SLOAD SWAP1 PUSH2 0x100 EXP SWAP1 DIV PUSH4 0xFFFFFFFF AND SWAP1 DUP1 PUSH1 0x3 ADD PUSH1 0x9 SWAP1 SLOAD SWAP1 PUSH2 0x100 EXP SWAP1 DIV PUSH1 0xFF AND SWAP1 POP DUP9 JUMP JUMPDEST PUSH0 DUP1 CALLER PUSH20 0xFFFFFFFFFFFFFFFFFFFFFFFFFFFFFFFFFFFFFFFF AND PUSH20 0xFFFFFFFFFFFFFFFFFFFFFFFFFFFFFFFFFFFFFFFF AND DUP2 MSTORE PUSH1 0x20 ADD SWAP1 DUP2 MSTORE PUSH1 0x20 ADD PUSH0 KECCAK256 PUSH1 0xB ADD PUSH0 SWAP1 SLOAD SWAP1 PUSH2 0x100 EXP SWAP1 DIV PUSH1 0xFF AND PUSH2 0x1B81 JUMPI PUSH1 0x40 MLOAD PUSH32 0x8C379A000000000000000000000000000000000000000000000000000000000 DUP2 MSTORE PUSH1 0x4 ADD PUSH2 0x1B78 SWAP1 PUSH2 0x2E1E JUMP JUMPDEST PUSH1 0x40 MLOAD DUP1 SWAP2 SUB SWAP1 REVERT JUMPDEST DUP1 PUSH0 DUP1 DUP5 PUSH20 0xFFFFFFFFFFFFFFFFFFFFFFFFFFFFFFFFFFFFFFFF AND PUSH20 0xFFFFFFFFFFFFFFFFFFFFFFFFFFFFFFFFFFFFFFFF AND DUP2 MSTORE PUSH1 0x20 ADD SWAP1 DUP2 MSTORE PUSH1 0x20 ADD PUSH0 KECCAK256 PUSH0 ADD DUP2 SWAP1 SSTORE POP POP POP JUMP JUMPDEST PUSH1 0x1 PUSH1 0x20 MSTORE DUP1 PUSH0 MSTORE PUSH1 0x40 PUSH0 KECCAK256 PUSH0 SWAP2 POP SWAP1 POP DUP1 PUSH0 ADD SLOAD SWAP1 POP DUP2 JUMP JUMPDEST PUSH1 0x3 PUSH0 DUP10 DUP2 MSTORE PUSH1 0x20 ADD SWAP1 DUP2 MSTORE PUSH1 0x20 ADD PUSH0 KECCAK256 PUSH1 0x3 ADD PUSH1 0x9 SWAP1 SLOAD SWAP1 PUSH2 0x100 EXP SWAP1 DIV PUSH1 0xFF AND ISZERO PUSH2 0x1C44 JUMPI PUSH1 0x40 MLOAD PUSH32 0x8C379A000000000000000000000000000000000000000000000000000000000 DUP2 MSTORE PUSH1 0x4 ADD PUSH2 0x1C3B SWAP1 PUSH2 0x3493 JUMP JUMPDEST PUSH1 0x40 MLOAD DUP1 SWAP2 SUB SWAP1 REVERT JUMPDEST PUSH0 PUSH1 0x3 PUSH0 DUP11 DUP2 MSTORE PUSH1 0x20 ADD SWAP1 DUP2 MSTORE PUSH1 0x20 ADD PUSH0 KECCAK256 SWAP1 POP DUP8 DUP2 PUSH0 ADD DUP2 SWAP1 SSTORE POP DUP7 DUP2 PUSH1 0x1 ADD DUP2 SWAP1 SSTORE POP DUP6 DUP2 PUSH1 0x2 ADD DUP2 SWAP1 SSTORE POP DUP5 DUP2 PUSH1 0x3 ADD PUSH0 PUSH2 0x100 EXP DUP2 SLOAD DUP2 PUSH2 0xFFFF MUL NOT AND SWAP1 DUP4 PUSH2 0xFFFF AND MUL OR SWAP1 SSTORE POP DUP4 DUP2 PUSH1 0x3 ADD PUSH1 0x2 PUSH2 0x100 EXP DUP2 SLOAD DUP2 PUSH2 0xFFFF MUL NOT AND SWAP1 DUP4 PUSH2 0xFFFF AND MUL OR SWAP1 SSTORE POP DUP3 DUP2 PUSH1 0x3 ADD PUSH1 0x4 PUSH2 0x100 EXP DUP2 SLOAD DUP2 PUSH1 0xFF MUL NOT AND SWAP1 DUP4 PUSH1 0xFF AND MUL OR SWAP1 SSTORE POP DUP2 DUP2 PUSH1 0x3 ADD PUSH1 0x5 PUSH2 0x100 EXP DUP2 SLOAD DUP2 PUSH4 0xFFFFFFFF MUL NOT AND SWAP1 DUP4 PUSH4 0xFFFFFFFF AND MUL OR SWAP1 SSTORE POP PUSH1 0x1 DUP2 PUSH1 0x3 ADD PUSH1 0x9 PUSH2 0x100 EXP DUP2 SLOAD DUP2 PUSH1 0xFF MUL NOT AND SWAP1 DUP4 ISZERO ISZERO MUL OR SWAP1 SSTORE POP PUSH1 0x5 DUP10 SWAP1 DUP1 PUSH1 0x1 DUP2 SLOAD ADD DUP1 DUP3 SSTORE DUP1 SWAP2 POP POP PUSH1 0x1 SWAP1 SUB SWAP1 PUSH0 MSTORE PUSH1 0x20 PUSH0 KECCAK256 ADD PUSH0 SWAP1 SWAP2 SWAP1 SWAP2 SWAP1 SWAP2 POP SSTORE DUP9 PUSH32 0x4F8A415507F52D0E32A3C353717514AFC9DC632A93E949A7478433099D16049B PUSH1 0x40 MLOAD PUSH1 0x40 MLOAD DUP1 SWAP2 SUB SWAP1 LOG2 POP POP POP POP POP POP POP POP POP JUMP JUMPDEST PUSH1 0x4 DUP2 DUP2 SLOAD DUP2 LT PUSH2 0x1D79 JUMPI PUSH0 DUP1 REVERT JUMPDEST SWAP1 PUSH0 MSTORE PUSH1 0x20 PUSH0 KECCAK256 ADD PUSH0 SWAP2 POP SWAP1 POP SLOAD DUP2 JUMP JUMPDEST PUSH0 DUP1 CALLER PUSH20 0xFFFFFFFFFFFFFFFFFFFFFFFFFFFFFFFFFFFFFFFF AND PUSH20 0xFFFFFFFFFFFFFFFFFFFFFFFFFFFFFFFFFFFFFFFF AND DUP2 MSTORE PUSH1 0x20 ADD SWAP1 DUP2 MSTORE PUSH1 0x20 ADD PUSH0 KECCAK256 PUSH1 0xB ADD PUSH0 SWAP1 SLOAD SWAP1 PUSH2 0x100 EXP SWAP1 DIV PUSH1 0xFF AND PUSH2 0x1E15 JUMPI PUSH1 0x40 MLOAD PUSH32 0x8C379A000000000000000000000000000000000000000000000000000000000 DUP2 MSTORE PUSH1 0x4 ADD PUSH2 0x1E0C SWAP1 PUSH2 0x2E1E JUMP JUMPDEST PUSH1 0x40 MLOAD DUP1 SWAP2 SUB SWAP1 REVERT JUMPDEST DUP1 PUSH0 DUP1 DUP5 PUSH20 0xFFFFFFFFFFFFFFFFFFFFFFFFFFFFFFFFFFFFFFFF AND PUSH20 0xFFFFFFFFFFFFFFFFFFFFFFFFFFFFFFFFFFFFFFFF AND DUP2 MSTORE PUSH1 0x20 ADD SWAP1 DUP2 MSTORE PUSH1 0x20 ADD PUSH0 KECCAK256 PUSH1 0x4 ADD DUP2 SWAP1 SSTORE POP POP POP JUMP JUMPDEST PUSH0 DUP1 DUP3 GT DUP1 ISZERO PUSH2 0x1E72 JUMPI POP PUSH1 0x5 DUP1 SLOAD SWAP1 POP DUP3 GT ISZERO JUMPDEST PUSH2 0x1EB1 JUMPI PUSH1 0x40 MLOAD PUSH32 0x8C379A000000000000000000000000000000000000000000000000000000000 DUP2 MSTORE PUSH1 0x4 ADD PUSH2 0x1EA8 SWAP1 PUSH2 0x34FB JUMP JUMPDEST PUSH1 0x40 MLOAD DUP1 SWAP2 SUB SWAP1 REVERT JUMPDEST PUSH1 0x5 PUSH1 0x1 DUP4 PUSH2 0x1EC0 SWAP2 SWAP1 PUSH2 0x3381 JUMP JUMPDEST DUP2 SLOAD DUP2 LT PUSH2 0x1ED1 JUMPI PUSH2 0x1ED0 PUSH2 0x33B4 JUMP JUMPDEST JUMPDEST SWAP1 PUSH0 MSTORE PUSH1 0x20 PUSH0 KECCAK256 ADD SLOAD SWAP1 POP SWAP2 SWAP1 POP JUMP JUMPDEST PUSH1 0x40 MLOAD DUP1 PUSH1 0x40 ADD PUSH1 0x40 MSTORE DUP1 PUSH0 DUP2 MSTORE PUSH1 0x20 ADD PUSH1 0x60 DUP2 MSTORE POP SWAP1 JUMP JUMPDEST PUSH1 0x40 MLOAD DUP1 PUSH2 0x120 ADD PUSH1 0x40 MSTORE DUP1 PUSH0 PUSH8 0xFFFFFFFFFFFFFFFF AND DUP2 MSTORE PUSH1 0x20 ADD PUSH0 DUP1 NOT AND DUP2 MSTORE PUSH1 0x20 ADD PUSH0 PUSH2 0xFFFF AND DUP2 MSTORE PUSH1 0x20 ADD PUSH0 DUP1 NOT AND DUP2 MSTORE PUSH1 0x20 ADD PUSH1 0x60 DUP2 MSTORE PUSH1 0x20 ADD PUSH1 0x60 DUP2 MSTORE PUSH1 0x20 ADD PUSH1 0x60 DUP2 MSTORE PUSH1 0x20 ADD PUSH1 0x60 DUP2 MSTORE PUSH1 0x20 ADD PUSH0 ISZERO ISZERO DUP2 MSTORE POP SWAP1 JUMP JUMPDEST PUSH1 0x40 MLOAD DUP1 PUSH2 0x180 ADD PUSH1 0x40 MSTORE DUP1 PUSH0 DUP1 NOT AND DUP2 MSTORE PUSH1 0x20 ADD PUSH0 DUP1 NOT AND DUP2 MSTORE PUSH1 0x20 ADD PUSH0 DUP1 NOT AND DUP2 MSTORE PUSH1 0x20 ADD PUSH0 DUP1 NOT AND DUP2 MSTORE PUSH1 0x20 ADD PUSH0 DUP1 NOT AND DUP2 MSTORE PUSH1 0x20 ADD PUSH0 DUP2 MSTORE PUSH1 0x20 ADD PUSH0 DUP1 NOT AND DUP2 MSTORE PUSH1 0x20 ADD PUSH0 DUP1 NOT AND DUP2 MSTORE PUSH1 0x20 ADD PUSH0 DUP2 MSTORE PUSH1 0x20 ADD PUSH0 DUP2 MSTORE PUSH1 0x20 ADD PUSH1 0x60 DUP2 MSTORE PUSH1 0x20 ADD PUSH0 ISZERO ISZERO DUP2 MSTORE POP SWAP1 JUMP JUMPDEST PUSH1 0x40 MLOAD DUP1 PUSH2 0x100 ADD PUSH1 0x40 MSTORE DUP1 PUSH0 DUP1 NOT AND DUP2 MSTORE PUSH1 0x20 ADD PUSH0 DUP1 NOT AND DUP2 MSTORE PUSH1 0x20 ADD PUSH0 DUP1 NOT AND DUP2 MSTORE PUSH1 0x20 ADD PUSH0 PUSH2 0xFFFF AND DUP2 MSTORE PUSH1 0x20 ADD PUSH0 PUSH2 0xFFFF AND DUP2 MSTORE PUSH1 0x20 ADD PUSH0 PUSH1 0xFF AND DUP2 MSTORE PUSH1 0x20 ADD PUSH0 PUSH4 0xFFFFFFFF AND DUP2 MSTORE PUSH1 0x20 ADD PUSH0 ISZERO ISZERO DUP2 MSTORE POP SWAP1 JUMP JUMPDEST PUSH0 PUSH1 0x40 MLOAD SWAP1 POP SWAP1 JUMP JUMPDEST PUSH0 DUP1 REVERT JUMPDEST PUSH0 DUP1 REVERT JUMPDEST PUSH0 PUSH20 0xFFFFFFFFFFFFFFFFFFFFFFFFFFFFFFFFFFFFFFFF DUP3 AND SWAP1 POP SWAP2 SWAP1 POP JUMP JUMPDEST PUSH0 PUSH2 0x2057 DUP3 PUSH2 0x202E JUMP JUMPDEST SWAP1 POP SWAP2 SWAP1 POP JUMP JUMPDEST PUSH2 0x2067 DUP2 PUSH2 0x204D JUMP JUMPDEST DUP2 EQ PUSH2 0x2071 JUMPI PUSH0 DUP1 REVERT JUMPDEST POP JUMP JUMPDEST PUSH0 DUP2 CALLDATALOAD SWAP1 POP PUSH2 0x2082 DUP2 PUSH2 0x205E JUMP JUMPDEST SWAP3 SWAP2 POP POP JUMP JUMPDEST PUSH0 DUP2 SWAP1 POP SWAP2 SWAP1 POP JUMP JUMPDEST PUSH2 0x209A DUP2 PUSH2 0x2088 JUMP JUMPDEST DUP2 EQ PUSH2 0x20A4 JUMPI PUSH0 DUP1 REVERT JUMPDEST POP JUMP JUMPDEST PUSH0 DUP2 CALLDATALOAD SWAP1 POP PUSH2 0x20B5 DUP2 PUSH2 0x2091 JUMP JUMPDEST SWAP3 SWAP2 POP POP JUMP JUMPDEST PUSH0 DUP1 PUSH1 0x40 DUP4 DUP6 SUB SLT ISZERO PUSH2 0x20D1 JUMPI PUSH2 0x20D0 PUSH2 0x2026 JUMP JUMPDEST JUMPDEST PUSH0 PUSH2 0x20DE DUP6 DUP3 DUP7 ADD PUSH2 0x2074 JUMP JUMPDEST SWAP3 POP POP PUSH1 0x20 PUSH2 0x20EF DUP6 DUP3 DUP7 ADD PUSH2 0x20A7 JUMP JUMPDEST SWAP2 POP POP SWAP3 POP SWAP3 SWAP1 POP JUMP JUMPDEST PUSH0 DUP2 SWAP1 POP SWAP2 SWAP1 POP JUMP JUMPDEST PUSH2 0x210B DUP2 PUSH2 0x20F9 JUMP JUMPDEST DUP3 MSTORE POP POP JUMP JUMPDEST PUSH0 PUSH1 0x20 DUP3 ADD SWAP1 POP PUSH2 0x2124 PUSH0 DUP4 ADD DUP5 PUSH2 0x2102 JUMP JUMPDEST SWAP3 SWAP2 POP POP JUMP JUMPDEST PUSH0 PUSH1 0x20 DUP3 DUP5 SUB SLT ISZERO PUSH2 0x213F JUMPI PUSH2 0x213E PUSH2 0x2026 JUMP JUMPDEST JUMPDEST PUSH0 PUSH2 0x214C DUP5 DUP3 DUP6 ADD PUSH2 0x2074 JUMP JUMPDEST SWAP2 POP POP SWAP3 SWAP2 POP POP JUMP JUMPDEST PUSH2 0x215E DUP2 PUSH2 0x20F9 JUMP JUMPDEST DUP3 MSTORE POP POP JUMP JUMPDEST PUSH0 DUP2 MLOAD SWAP1 POP SWAP2 SWAP1 POP JUMP JUMPDEST PUSH0 DUP3 DUP3 MSTORE PUSH1 0x20 DUP3 ADD SWAP1 POP SWAP3 SWAP2 POP POP JUMP JUMPDEST PUSH0 DUP2 SWAP1 POP PUSH1 0x20 DUP3 ADD SWAP1 POP SWAP2 SWAP1 POP JUMP JUMPDEST PUSH2 0x2196 DUP2 PUSH2 0x2088 JUMP JUMPDEST DUP3 MSTORE POP POP JUMP JUMPDEST PUSH0 PUSH2 0x21A7 DUP4 DUP4 PUSH2 0x218D JUMP JUMPDEST PUSH1 0x20 DUP4 ADD SWAP1 POP SWAP3 SWAP2 POP POP JUMP JUMPDEST PUSH0 PUSH1 0x20 DUP3 ADD SWAP1 POP SWAP2 SWAP1 POP JUMP JUMPDEST PUSH0 PUSH2 0x21C9 DUP3 PUSH2 0x2164 JUMP JUMPDEST PUSH2 0x21D3 DUP2 DUP6 PUSH2 0x216E JUMP JUMPDEST SWAP4 POP PUSH2 0x21DE DUP4 PUSH2 0x217E JUMP JUMPDEST DUP1 PUSH0 JUMPDEST DUP4 DUP2 LT ISZERO PUSH2 0x220E JUMPI DUP2 MLOAD PUSH2 0x21F5 DUP9 DUP3 PUSH2 0x219C JUMP JUMPDEST SWAP8 POP PUSH2 0x2200 DUP4 PUSH2 0x21B3 JUMP JUMPDEST SWAP3 POP POP PUSH1 0x1 DUP2 ADD SWAP1 POP PUSH2 0x21E1 JUMP JUMPDEST POP DUP6 SWAP4 POP POP POP POP SWAP3 SWAP2 POP POP JUMP JUMPDEST PUSH0 PUSH1 0x40 DUP4 ADD PUSH0 DUP4 ADD MLOAD PUSH2 0x2230 PUSH0 DUP7 ADD DUP3 PUSH2 0x2155 JUMP JUMPDEST POP PUSH1 0x20 DUP4 ADD MLOAD DUP5 DUP3 SUB PUSH1 0x20 DUP7 ADD MSTORE PUSH2 0x2248 DUP3 DUP3 PUSH2 0x21BF JUMP JUMPDEST SWAP2 POP POP DUP1 SWAP2 POP POP SWAP3 SWAP2 POP POP JUMP JUMPDEST PUSH0 PUSH1 0x20 DUP3 ADD SWAP1 POP DUP2 DUP2 SUB PUSH0 DUP4 ADD MSTORE PUSH2 0x226D DUP2 DUP5 PUSH2 0x221B JUMP JUMPDEST SWAP1 POP SWAP3 SWAP2 POP POP JUMP JUMPDEST PUSH2 0x227E DUP2 PUSH2 0x2088 JUMP JUMPDEST DUP3 MSTORE POP POP JUMP JUMPDEST PUSH0 DUP2 MLOAD SWAP1 POP SWAP2 SWAP1 POP JUMP JUMPDEST PUSH0 DUP3 DUP3 MSTORE PUSH1 0x20 DUP3 ADD SWAP1 POP SWAP3 SWAP2 POP POP JUMP JUMPDEST PUSH0 JUMPDEST DUP4 DUP2 LT ISZERO PUSH2 0x22BB JUMPI DUP1 DUP3 ADD MLOAD DUP2 DUP5 ADD MSTORE PUSH1 0x20 DUP2 ADD SWAP1 POP PUSH2 0x22A0 JUMP JUMPDEST PUSH0 DUP5 DUP5 ADD MSTORE POP POP POP POP JUMP JUMPDEST PUSH0 PUSH1 0x1F NOT PUSH1 0x1F DUP4 ADD AND SWAP1 POP SWAP2 SWAP1 POP JUMP JUMPDEST PUSH0 PUSH2 0x22E0 DUP3 PUSH2 0x2284 JUMP JUMPDEST PUSH2 0x22EA DUP2 DUP6 PUSH2 0x228E JUMP JUMPDEST SWAP4 POP PUSH2 0x22FA DUP2 DUP6 PUSH1 0x20 DUP7 ADD PUSH2 0x229E JUMP JUMPDEST PUSH2 0x2303 DUP2 PUSH2 0x22C6 JUMP JUMPDEST DUP5 ADD SWAP2 POP POP SWAP3 SWAP2 POP POP JUMP JUMPDEST PUSH0 DUP2 ISZERO ISZERO SWAP1 POP SWAP2 SWAP1 POP JUMP JUMPDEST PUSH2 0x2322 DUP2 PUSH2 0x230E JUMP JUMPDEST DUP3 MSTORE POP POP JUMP JUMPDEST PUSH0 PUSH2 0x180 DUP3 ADD SWAP1 POP PUSH2 0x233C PUSH0 DUP4 ADD DUP16 PUSH2 0x2275 JUMP JUMPDEST PUSH2 0x2349 PUSH1 0x20 DUP4 ADD DUP15 PUSH2 0x2275 JUMP JUMPDEST PUSH2 0x2356 PUSH1 0x40 DUP4 ADD DUP14 PUSH2 0x2275 JUMP JUMPDEST PUSH2 0x2363 PUSH1 0x60 DUP4 ADD DUP13 PUSH2 0x2275 JUMP JUMPDEST PUSH2 0x2370 PUSH1 0x80 DUP4 ADD DUP12 PUSH2 0x2275 JUMP JUMPDEST PUSH2 0x237D PUSH1 0xA0 DUP4 ADD DUP11 PUSH2 0x2102 JUMP JUMPDEST PUSH2 0x238A PUSH1 0xC0 DUP4 ADD DUP10 PUSH2 0x2275 JUMP JUMPDEST PUSH2 0x2397 PUSH1 0xE0 DUP4 ADD DUP9 PUSH2 0x2275 JUMP JUMPDEST PUSH2 0x23A5 PUSH2 0x100 DUP4 ADD DUP8 PUSH2 0x2102 JUMP JUMPDEST PUSH2 0x23B3 PUSH2 0x120 DUP4 ADD DUP7 PUSH2 0x2102 JUMP JUMPDEST DUP2 DUP2 SUB PUSH2 0x140 DUP4 ADD MSTORE PUSH2 0x23C6 DUP2 DUP6 PUSH2 0x22D6 JUMP JUMPDEST SWAP1 POP PUSH2 0x23D6 PUSH2 0x160 DUP4 ADD DUP5 PUSH2 0x2319 JUMP JUMPDEST SWAP14 SWAP13 POP POP POP POP POP POP POP POP POP POP POP POP POP JUMP JUMPDEST PUSH2 0x23F0 DUP2 PUSH2 0x20F9 JUMP JUMPDEST DUP2 EQ PUSH2 0x23FA JUMPI PUSH0 DUP1 REVERT JUMPDEST POP JUMP JUMPDEST PUSH0 DUP2 CALLDATALOAD SWAP1 POP PUSH2 0x240B DUP2 PUSH2 0x23E7 JUMP JUMPDEST SWAP3 SWAP2 POP POP JUMP JUMPDEST PUSH0 PUSH1 0x20 DUP3 DUP5 SUB SLT ISZERO PUSH2 0x2426 JUMPI PUSH2 0x2425 PUSH2 0x2026 JUMP JUMPDEST JUMPDEST PUSH0 PUSH2 0x2433 DUP5 DUP3 DUP6 ADD PUSH2 0x23FD JUMP JUMPDEST SWAP2 POP POP SWAP3 SWAP2 POP POP JUMP JUMPDEST PUSH0 PUSH1 0x20 DUP3 ADD SWAP1 POP PUSH2 0x244F PUSH0 DUP4 ADD DUP5 PUSH2 0x2275 JUMP JUMPDEST SWAP3 SWAP2 POP POP JUMP JUMPDEST PUSH0 DUP1 REVERT JUMPDEST PUSH0 DUP1 REVERT JUMPDEST PUSH32 0x4E487B7100000000000000000000000000000000000000000000000000000000 PUSH0 MSTORE PUSH1 0x41 PUSH1 0x4 MSTORE PUSH1 0x24 PUSH0 REVERT JUMPDEST PUSH2 0x2493 DUP3 PUSH2 0x22C6 JUMP JUMPDEST DUP2 ADD DUP2 DUP2 LT PUSH8 0xFFFFFFFFFFFFFFFF DUP3 GT OR ISZERO PUSH2 0x24B2 JUMPI PUSH2 0x24B1 PUSH2 0x245D JUMP JUMPDEST JUMPDEST DUP1 PUSH1 0x40 MSTORE POP POP POP JUMP JUMPDEST PUSH0 PUSH2 0x24C4 PUSH2 0x201D JUMP JUMPDEST SWAP1 POP PUSH2 0x24D0 DUP3 DUP3 PUSH2 0x248A JUMP JUMPDEST SWAP2 SWAP1 POP JUMP JUMPDEST PUSH0 PUSH8 0xFFFFFFFFFFFFFFFF DUP3 GT ISZERO PUSH2 0x24EF JUMPI PUSH2 0x24EE PUSH2 0x245D JUMP JUMPDEST JUMPDEST PUSH2 0x24F8 DUP3 PUSH2 0x22C6 JUMP JUMPDEST SWAP1 POP PUSH1 0x20 DUP2 ADD SWAP1 POP SWAP2 SWAP1 POP JUMP JUMPDEST DUP3 DUP2 DUP4 CALLDATACOPY PUSH0 DUP4 DUP4 ADD MSTORE POP POP POP JUMP JUMPDEST PUSH0 PUSH2 0x2525 PUSH2 0x2520 DUP5 PUSH2 0x24D5 JUMP JUMPDEST PUSH2 0x24BB JUMP JUMPDEST SWAP1 POP DUP3 DUP2 MSTORE PUSH1 0x20 DUP2 ADD DUP5 DUP5 DUP5 ADD GT ISZERO PUSH2 0x2541 JUMPI PUSH2 0x2540 PUSH2 0x2459 JUMP JUMPDEST JUMPDEST PUSH2 0x254C DUP5 DUP3 DUP6 PUSH2 0x2505 JUMP JUMPDEST POP SWAP4 SWAP3 POP POP POP JUMP JUMPDEST PUSH0 DUP3 PUSH1 0x1F DUP4 ADD SLT PUSH2 0x2568 JUMPI PUSH2 0x2567 PUSH2 0x2455 JUMP JUMPDEST JUMPDEST DUP2 CALLDATALOAD PUSH2 0x2578 DUP5 DUP3 PUSH1 0x20 DUP7 ADD PUSH2 0x2513 JUMP JUMPDEST SWAP2 POP POP SWAP3 SWAP2 POP POP JUMP JUMPDEST PUSH0 DUP1 PUSH1 0x40 DUP4 DUP6 SUB SLT ISZERO PUSH2 0x2597 JUMPI PUSH2 0x2596 PUSH2 0x2026 JUMP JUMPDEST JUMPDEST PUSH0 PUSH2 0x25A4 DUP6 DUP3 DUP7 ADD PUSH2 0x2074 JUMP JUMPDEST SWAP3 POP POP PUSH1 0x20 DUP4 ADD CALLDATALOAD PUSH8 0xFFFFFFFFFFFFFFFF DUP2 GT ISZERO PUSH2 0x25C5 JUMPI PUSH2 0x25C4 PUSH2 0x202A JUMP JUMPDEST JUMPDEST PUSH2 0x25D1 DUP6 DUP3 DUP7 ADD PUSH2 0x2554 JUMP JUMPDEST SWAP2 POP POP SWAP3 POP SWAP3 SWAP1 POP JUMP JUMPDEST PUSH0 PUSH8 0xFFFFFFFFFFFFFFFF DUP3 AND SWAP1 POP SWAP2 SWAP1 POP JUMP JUMPDEST PUSH2 0x25F7 DUP2 PUSH2 0x25DB JUMP JUMPDEST DUP2 EQ PUSH2 0x2601 JUMPI PUSH0 DUP1 REVERT JUMPDEST POP JUMP JUMPDEST PUSH0 DUP2 CALLDATALOAD SWAP1 POP PUSH2 0x2612 DUP2 PUSH2 0x25EE JUMP JUMPDEST SWAP3 SWAP2 POP POP JUMP JUMPDEST PUSH0 DUP1 PUSH1 0x40 DUP4 DUP6 SUB SLT ISZERO PUSH2 0x262E JUMPI PUSH2 0x262D PUSH2 0x2026 JUMP JUMPDEST JUMPDEST PUSH0 PUSH2 0x263B DUP6 DUP3 DUP7 ADD PUSH2 0x2604 JUMP JUMPDEST SWAP3 POP POP PUSH1 0x20 PUSH2 0x264C DUP6 DUP3 DUP7 ADD PUSH2 0x20A7 JUMP JUMPDEST SWAP2 POP POP SWAP3 POP SWAP3 SWAP1 POP JUMP JUMPDEST PUSH0 PUSH1 0x20 DUP3 DUP5 SUB SLT ISZERO PUSH2 0x266B JUMPI PUSH2 0x266A PUSH2 0x2026 JUMP JUMPDEST JUMPDEST PUSH0 PUSH2 0x2678 DUP5 DUP3 DUP6 ADD PUSH2 0x20A7 JUMP JUMPDEST SWAP2 POP POP SWAP3 SWAP2 POP POP JUMP JUMPDEST PUSH2 0x268A DUP2 PUSH2 0x25DB JUMP JUMPDEST DUP3 MSTORE POP POP JUMP JUMPDEST PUSH0 PUSH2 0xFFFF DUP3 AND SWAP1 POP SWAP2 SWAP1 POP JUMP JUMPDEST PUSH2 0x26A6 DUP2 PUSH2 0x2690 JUMP JUMPDEST DUP3 MSTORE POP POP JUMP JUMPDEST PUSH0 PUSH1 0xA0 DUP3 ADD SWAP1 POP PUSH2 0x26BF PUSH0 DUP4 ADD DUP9 PUSH2 0x2681 JUMP JUMPDEST PUSH2 0x26CC PUSH1 0x20 DUP4 ADD DUP8 PUSH2 0x2275 JUMP JUMPDEST PUSH2 0x26D9 PUSH1 0x40 DUP4 ADD DUP7 PUSH2 0x269D JUMP JUMPDEST PUSH2 0x26E6 PUSH1 0x60 DUP4 ADD DUP6 PUSH2 0x2275 JUMP JUMPDEST PUSH2 0x26F3 PUSH1 0x80 DUP4 ADD DUP5 PUSH2 0x2319 JUMP JUMPDEST SWAP7 SWAP6 POP POP POP POP POP POP JUMP JUMPDEST PUSH2 0x2706 DUP2 PUSH2 0x25DB JUMP JUMPDEST DUP3 MSTORE POP POP JUMP JUMPDEST PUSH2 0x2715 DUP2 PUSH2 0x2690 JUMP JUMPDEST DUP3 MSTORE POP POP JUMP JUMPDEST PUSH0 DUP2 MLOAD SWAP1 POP SWAP2 SWAP1 POP JUMP JUMPDEST PUSH0 DUP3 DUP3 MSTORE PUSH1 0x20 DUP3 ADD SWAP1 POP SWAP3 SWAP2 POP POP JUMP JUMPDEST PUSH0 DUP2 SWAP1 POP PUSH1 0x20 DUP3 ADD SWAP1 POP SWAP2 SWAP1 POP JUMP JUMPDEST PUSH0 PUSH2 0x274F DUP4 DUP4 PUSH2 0x270C JUMP JUMPDEST PUSH1 0x20 DUP4 ADD SWAP1 POP SWAP3 SWAP2 POP POP JUMP JUMPDEST PUSH0 PUSH1 0x20 DUP3 ADD SWAP1 POP SWAP2 SWAP1 POP JUMP JUMPDEST PUSH0 PUSH2 0x2771 DUP3 PUSH2 0x271B JUMP JUMPDEST PUSH2 0x277B DUP2 DUP6 PUSH2 0x2725 JUMP JUMPDEST SWAP4 POP PUSH2 0x2786 DUP4 PUSH2 0x2735 JUMP JUMPDEST DUP1 PUSH0 JUMPDEST DUP4 DUP2 LT ISZERO PUSH2 0x27B6 JUMPI DUP2 MLOAD PUSH2 0x279D DUP9 DUP3 PUSH2 0x2744 JUMP JUMPDEST SWAP8 POP PUSH2 0x27A8 DUP4 PUSH2 0x275B JUMP JUMPDEST SWAP3 POP POP PUSH1 0x1 DUP2 ADD SWAP1 POP PUSH2 0x2789 JUMP JUMPDEST POP DUP6 SWAP4 POP POP POP POP SWAP3 SWAP2 POP POP JUMP JUMPDEST PUSH0 DUP2 MLOAD SWAP1 POP SWAP2 SWAP1 POP JUMP JUMPDEST PUSH0 DUP3 DUP3 MSTORE PUSH1 0x20 DUP3 ADD SWAP1 POP SWAP3 SWAP2 POP POP JUMP JUMPDEST PUSH0 DUP2 SWAP1 POP PUSH1 0x20 DUP3 ADD SWAP1 POP SWAP2 SWAP1 POP JUMP JUMPDEST PUSH0 PUSH2 0x27F7 DUP4 DUP4 PUSH2 0x2155 JUMP JUMPDEST PUSH1 0x20 DUP4 ADD SWAP1 POP SWAP3 SWAP2 POP POP JUMP JUMPDEST PUSH0 PUSH1 0x20 DUP3 ADD SWAP1 POP SWAP2 SWAP1 POP JUMP JUMPDEST PUSH0 PUSH2 0x2819 DUP3 PUSH2 0x27C3 JUMP JUMPDEST PUSH2 0x2823 DUP2 DUP6 PUSH2 0x27CD JUMP JUMPDEST SWAP4 POP PUSH2 0x282E DUP4 PUSH2 0x27DD JUMP JUMPDEST DUP1 PUSH0 JUMPDEST DUP4 DUP2 LT ISZERO PUSH2 0x285E JUMPI DUP2 MLOAD PUSH2 0x2845 DUP9 DUP3 PUSH2 0x27EC JUMP JUMPDEST SWAP8 POP PUSH2 0x2850 DUP4 PUSH2 0x2803 JUMP JUMPDEST SWAP3 POP POP PUSH1 0x1 DUP2 ADD SWAP1 POP PUSH2 0x2831 JUMP JUMPDEST POP DUP6 SWAP4 POP POP POP POP SWAP3 SWAP2 POP POP JUMP JUMPDEST PUSH2 0x2874 DUP2 PUSH2 0x230E JUMP JUMPDEST DUP3 MSTORE POP POP JUMP JUMPDEST PUSH0 PUSH2 0x120 DUP4 ADD PUSH0 DUP4 ADD MLOAD PUSH2 0x2890 PUSH0 DUP7 ADD DUP3 PUSH2 0x26FD JUMP JUMPDEST POP PUSH1 0x20 DUP4 ADD MLOAD PUSH2 0x28A3 PUSH1 0x20 DUP7 ADD DUP3 PUSH2 0x218D JUMP JUMPDEST POP PUSH1 0x40 DUP4 ADD MLOAD PUSH2 0x28B6 PUSH1 0x40 DUP7 ADD DUP3 PUSH2 0x270C JUMP JUMPDEST POP PUSH1 0x60 DUP4 ADD MLOAD PUSH2 0x28C9 PUSH1 0x60 DUP7 ADD DUP3 PUSH2 0x218D JUMP JUMPDEST POP PUSH1 0x80 DUP4 ADD MLOAD DUP5 DUP3 SUB PUSH1 0x80 DUP7 ADD MSTORE PUSH2 0x28E1 DUP3 DUP3 PUSH2 0x21BF JUMP JUMPDEST SWAP2 POP POP PUSH1 0xA0 DUP4 ADD MLOAD DUP5 DUP3 SUB PUSH1 0xA0 DUP7 ADD MSTORE PUSH2 0x28FB DUP3 DUP3 PUSH2 0x2767 JUMP JUMPDEST SWAP2 POP POP PUSH1 0xC0 DUP4 ADD MLOAD DUP5 DUP3 SUB PUSH1 0xC0 DUP7 ADD MSTORE PUSH2 0x2915 DUP3 DUP3 PUSH2 0x280F JUMP JUMPDEST SWAP2 POP POP PUSH1 0xE0 DUP4 ADD MLOAD DUP5 DUP3 SUB PUSH1 0xE0 DUP7 ADD MSTORE PUSH2 0x292F DUP3 DUP3 PUSH2 0x2767 JUMP JUMPDEST SWAP2 POP POP PUSH2 0x100 DUP4 ADD MLOAD PUSH2 0x2946 PUSH2 0x100 DUP7 ADD DUP3 PUSH2 0x286B JUMP JUMPDEST POP DUP1 SWAP2 POP POP SWAP3 SWAP2 POP POP JUMP JUMPDEST PUSH0 PUSH1 0x20 DUP3 ADD SWAP1 POP DUP2 DUP2 SUB PUSH0 DUP4 ADD MSTORE PUSH2 0x2969 DUP2 DUP5 PUSH2 0x287A JUMP JUMPDEST SWAP1 POP SWAP3 SWAP2 POP POP JUMP JUMPDEST PUSH0 DUP3 DUP3 MSTORE PUSH1 0x20 DUP3 ADD SWAP1 POP SWAP3 SWAP2 POP POP JUMP JUMPDEST PUSH0 PUSH2 0x298B DUP3 PUSH2 0x2284 JUMP JUMPDEST PUSH2 0x2995 DUP2 DUP6 PUSH2 0x2971 JUMP JUMPDEST SWAP4 POP PUSH2 0x29A5 DUP2 DUP6 PUSH1 0x20 DUP7 ADD PUSH2 0x229E JUMP JUMPDEST PUSH2 0x29AE DUP2 PUSH2 0x22C6 JUMP JUMPDEST DUP5 ADD SWAP2 POP POP SWAP3 SWAP2 POP POP JUMP JUMPDEST PUSH0 PUSH2 0x180 DUP4 ADD PUSH0 DUP4 ADD MLOAD PUSH2 0x29CF PUSH0 DUP7 ADD DUP3 PUSH2 0x218D JUMP JUMPDEST POP PUSH1 0x20 DUP4 ADD MLOAD PUSH2 0x29E2 PUSH1 0x20 DUP7 ADD DUP3 PUSH2 0x218D JUMP JUMPDEST POP PUSH1 0x40 DUP4 ADD MLOAD PUSH2 0x29F5 PUSH1 0x40 DUP7 ADD DUP3 PUSH2 0x218D JUMP JUMPDEST POP PUSH1 0x60 DUP4 ADD MLOAD PUSH2 0x2A08 PUSH1 0x60 DUP7 ADD DUP3 PUSH2 0x218D JUMP JUMPDEST POP PUSH1 0x80 DUP4 ADD MLOAD PUSH2 0x2A1B PUSH1 0x80 DUP7 ADD DUP3 PUSH2 0x218D JUMP JUMPDEST POP PUSH1 0xA0 DUP4 ADD MLOAD PUSH2 0x2A2E PUSH1 0xA0 DUP7 ADD DUP3 PUSH2 0x2155 JUMP JUMPDEST POP PUSH1 0xC0 DUP4 ADD MLOAD PUSH2 0x2A41 PUSH1 0xC0 DUP7 ADD DUP3 PUSH2 0x218D JUMP JUMPDEST POP PUSH1 0xE0 DUP4 ADD MLOAD PUSH2 0x2A54 PUSH1 0xE0 DUP7 ADD DUP3 PUSH2 0x218D JUMP JUMPDEST POP PUSH2 0x100 DUP4 ADD MLOAD PUSH2 0x2A69 PUSH2 0x100 DUP7 ADD DUP3 PUSH2 0x2155 JUMP JUMPDEST POP PUSH2 0x120 DUP4 ADD MLOAD PUSH2 0x2A7E PUSH2 0x120 DUP7 ADD DUP3 PUSH2 0x2155 JUMP JUMPDEST POP PUSH2 0x140 DUP4 ADD MLOAD DUP5 DUP3 SUB PUSH2 0x140 DUP7 ADD MSTORE PUSH2 0x2A98 DUP3 DUP3 PUSH2 0x2981 JUMP JUMPDEST SWAP2 POP POP PUSH2 0x160 DUP4 ADD MLOAD PUSH2 0x2AAF PUSH2 0x160 DUP7 ADD DUP3 PUSH2 0x286B JUMP JUMPDEST POP DUP1 SWAP2 POP POP SWAP3 SWAP2 POP POP JUMP JUMPDEST PUSH0 PUSH1 0x20 DUP3 ADD SWAP1 POP DUP2 DUP2 SUB PUSH0 DUP4 ADD MSTORE PUSH2 0x2AD2 DUP2 DUP5 PUSH2 0x29B9 JUMP JUMPDEST SWAP1 POP SWAP3 SWAP2 POP POP JUMP JUMPDEST PUSH0 DUP1 PUSH1 0x40 DUP4 DUP6 SUB SLT ISZERO PUSH2 0x2AF0 JUMPI PUSH2 0x2AEF PUSH2 0x2026 JUMP JUMPDEST JUMPDEST PUSH0 PUSH2 0x2AFD DUP6 DUP3 DUP7 ADD PUSH2 0x2074 JUMP JUMPDEST SWAP3 POP POP PUSH1 0x20 PUSH2 0x2B0E DUP6 DUP3 DUP7 ADD PUSH2 0x23FD JUMP JUMPDEST SWAP2 POP POP SWAP3 POP SWAP3 SWAP1 POP JUMP JUMPDEST PUSH0 PUSH1 0xFF DUP3 AND SWAP1 POP SWAP2 SWAP1 POP JUMP JUMPDEST PUSH2 0x2B2D DUP2 PUSH2 0x2B18 JUMP JUMPDEST DUP3 MSTORE POP POP JUMP JUMPDEST PUSH0 PUSH4 0xFFFFFFFF DUP3 AND SWAP1 POP SWAP2 SWAP1 POP JUMP JUMPDEST PUSH2 0x2B4B DUP2 PUSH2 0x2B33 JUMP JUMPDEST DUP3 MSTORE POP POP JUMP JUMPDEST PUSH2 0x100 DUP3 ADD PUSH0 DUP3 ADD MLOAD PUSH2 0x2B66 PUSH0 DUP6 ADD DUP3 PUSH2 0x218D JUMP JUMPDEST POP PUSH1 0x20 DUP3 ADD MLOAD PUSH2 0x2B79 PUSH1 0x20 DUP6 ADD DUP3 PUSH2 0x218D JUMP JUMPDEST POP PUSH1 0x40 DUP3 ADD MLOAD PUSH2 0x2B8C PUSH1 0x40 DUP6 ADD DUP3 PUSH2 0x218D JUMP JUMPDEST POP PUSH1 0x60 DUP3 ADD MLOAD PUSH2 0x2B9F PUSH1 0x60 DUP6 ADD DUP3 PUSH2 0x270C JUMP JUMPDEST POP PUSH1 0x80 DUP3 ADD MLOAD PUSH2 0x2BB2 PUSH1 0x80 DUP6 ADD DUP3 PUSH2 0x270C JUMP JUMPDEST POP PUSH1 0xA0 DUP3 ADD MLOAD PUSH2 0x2BC5 PUSH1 0xA0 DUP6 ADD DUP3 PUSH2 0x2B24 JUMP JUMPDEST POP PUSH1 0xC0 DUP3 ADD MLOAD PUSH2 0x2BD8 PUSH1 0xC0 DUP6 ADD DUP3 PUSH2 0x2B42 JUMP JUMPDEST POP PUSH1 0xE0 DUP3 ADD MLOAD PUSH2 0x2BEB PUSH1 0xE0 DUP6 ADD DUP3 PUSH2 0x286B JUMP JUMPDEST POP POP POP POP JUMP JUMPDEST PUSH0 PUSH2 0x100 DUP3 ADD SWAP1 POP PUSH2 0x2C05 PUSH0 DUP4 ADD DUP5 PUSH2 0x2B51 JUMP JUMPDEST SWAP3 SWAP2 POP POP JUMP JUMPDEST PUSH2 0x2C14 DUP2 PUSH2 0x2B18 JUMP JUMPDEST DUP3 MSTORE POP POP JUMP JUMPDEST PUSH2 0x2C23 DUP2 PUSH2 0x2B33 JUMP JUMPDEST DUP3 MSTORE POP POP JUMP JUMPDEST PUSH0 PUSH2 0x100 DUP3 ADD SWAP1 POP PUSH2 0x2C3D PUSH0 DUP4 ADD DUP12 PUSH2 0x2275 JUMP JUMPDEST PUSH2 0x2C4A PUSH1 0x20 DUP4 ADD DUP11 PUSH2 0x2275 JUMP JUMPDEST PUSH2 0x2C57 PUSH1 0x40 DUP4 ADD DUP10 PUSH2 0x2275 JUMP JUMPDEST PUSH2 0x2C64 PUSH1 0x60 DUP4 ADD DUP9 PUSH2 0x269D JUMP JUMPDEST PUSH2 0x2C71 PUSH1 0x80 DUP4 ADD DUP8 PUSH2 0x269D JUMP JUMPDEST PUSH2 0x2C7E PUSH1 0xA0 DUP4 ADD DUP7 PUSH2 0x2C0B JUMP JUMPDEST PUSH2 0x2C8B PUSH1 0xC0 DUP4 ADD DUP6 PUSH2 0x2C1A JUMP JUMPDEST PUSH2 0x2C98 PUSH1 0xE0 DUP4 ADD DUP5 PUSH2 0x2319 JUMP JUMPDEST SWAP10 SWAP9 POP POP POP POP POP POP POP POP POP JUMP JUMPDEST PUSH2 0x2CAE DUP2 PUSH2 0x2690 JUMP JUMPDEST DUP2 EQ PUSH2 0x2CB8 JUMPI PUSH0 DUP1 REVERT JUMPDEST POP JUMP JUMPDEST PUSH0 DUP2 CALLDATALOAD SWAP1 POP PUSH2 0x2CC9 DUP2 PUSH2 0x2CA5 JUMP JUMPDEST SWAP3 SWAP2 POP POP JUMP JUMPDEST PUSH2 0x2CD8 DUP2 PUSH2 0x2B18 JUMP JUMPDEST DUP2 EQ PUSH2 0x2CE2 JUMPI PUSH0 DUP1 REVERT JUMPDEST POP JUMP JUMPDEST PUSH0 DUP2 CALLDATALOAD SWAP1 POP PUSH2 0x2CF3 DUP2 PUSH2 0x2CCF JUMP JUMPDEST SWAP3 SWAP2 POP POP JUMP JUMPDEST PUSH2 0x2D02 DUP2 PUSH2 0x2B33 JUMP JUMPDEST DUP2 EQ PUSH2 0x2D0C JUMPI PUSH0 DUP1 REVERT JUMPDEST POP JUMP JUMPDEST PUSH0 DUP2 CALLDATALOAD SWAP1 POP PUSH2 0x2D1D DUP2 PUSH2 0x2CF9 JUMP JUMPDEST SWAP3 SWAP2 POP POP JUMP JUMPDEST PUSH0 DUP1 PUSH0 DUP1 PUSH0 DUP1 PUSH0 DUP1 PUSH2 0x100 DUP10 DUP12 SUB SLT ISZERO PUSH2 0x2D40 JUMPI PUSH2 0x2D3F PUSH2 0x2026 JUMP JUMPDEST JUMPDEST PUSH0 PUSH2 0x2D4D DUP12 DUP3 DUP13 ADD PUSH2 0x20A7 JUMP JUMPDEST SWAP9 POP POP PUSH1 0x20 PUSH2 0x2D5E DUP12 DUP3 DUP13 ADD PUSH2 0x20A7 JUMP JUMPDEST SWAP8 POP POP PUSH1 0x40 PUSH2 0x2D6F DUP12 DUP3 DUP13 ADD PUSH2 0x20A7 JUMP JUMPDEST SWAP7 POP POP PUSH1 0x60 PUSH2 0x2D80 DUP12 DUP3 DUP13 ADD PUSH2 0x20A7 JUMP JUMPDEST SWAP6 POP POP PUSH1 0x80 PUSH2 0x2D91 DUP12 DUP3 DUP13 ADD PUSH2 0x2CBB JUMP JUMPDEST SWAP5 POP POP PUSH1 0xA0 PUSH2 0x2DA2 DUP12 DUP3 DUP13 ADD PUSH2 0x2CBB JUMP JUMPDEST SWAP4 POP POP PUSH1 0xC0 PUSH2 0x2DB3 DUP12 DUP3 DUP13 ADD PUSH2 0x2CE5 JUMP JUMPDEST SWAP3 POP POP PUSH1 0xE0 PUSH2 0x2DC4 DUP12 DUP3 DUP13 ADD PUSH2 0x2D0F JUMP JUMPDEST SWAP2 POP POP SWAP3 SWAP6 SWAP9 POP SWAP3 SWAP6 SWAP9 SWAP1 SWAP4 SWAP7 POP JUMP JUMPDEST PUSH32 0x5573657220646F6573206E6F7420657869737400000000000000000000000000 PUSH0 DUP3 ADD MSTORE POP JUMP JUMPDEST PUSH0 PUSH2 0x2E08 PUSH1 0x13 DUP4 PUSH2 0x228E JUMP JUMPDEST SWAP2 POP PUSH2 0x2E13 DUP3 PUSH2 0x2DD4 JUMP JUMPDEST PUSH1 0x20 DUP3 ADD SWAP1 POP SWAP2 SWAP1 POP JUMP JUMPDEST PUSH0 PUSH1 0x20 DUP3 ADD SWAP1 POP DUP2 DUP2 SUB PUSH0 DUP4 ADD MSTORE PUSH2 0x2E35 DUP2 PUSH2 0x2DFC JUMP JUMPDEST SWAP1 POP SWAP2 SWAP1 POP JUMP JUMPDEST PUSH32 0x5573657220646F6573206E6F74206F776E20616E79206B68617469616E000000 PUSH0 DUP3 ADD MSTORE POP JUMP JUMPDEST PUSH0 PUSH2 0x2E70 PUSH1 0x1D DUP4 PUSH2 0x228E JUMP JUMPDEST SWAP2 POP PUSH2 0x2E7B DUP3 PUSH2 0x2E3C JUMP JUMPDEST PUSH1 0x20 DUP3 ADD SWAP1 POP SWAP2 SWAP1 POP JUMP JUMPDEST PUSH0 PUSH1 0x20 DUP3 ADD SWAP1 POP DUP2 DUP2 SUB PUSH0 DUP4 ADD MSTORE PUSH2 0x2E9D DUP2 PUSH2 0x2E64 JUMP JUMPDEST SWAP1 POP SWAP2 SWAP1 POP JUMP JUMPDEST PUSH32 0x4E487B7100000000000000000000000000000000000000000000000000000000 PUSH0 MSTORE PUSH1 0x22 PUSH1 0x4 MSTORE PUSH1 0x24 PUSH0 REVERT JUMPDEST PUSH0 PUSH1 0x2 DUP3 DIV SWAP1 POP PUSH1 0x1 DUP3 AND DUP1 PUSH2 0x2EE8 JUMPI PUSH1 0x7F DUP3 AND SWAP2 POP JUMPDEST PUSH1 0x20 DUP3 LT DUP2 SUB PUSH2 0x2EFB JUMPI PUSH2 0x2EFA PUSH2 0x2EA4 JUMP JUMPDEST JUMPDEST POP SWAP2 SWAP1 POP JUMP JUMPDEST PUSH32 0x5573657220616C72656164792065786973747300000000000000000000000000 PUSH0 DUP3 ADD MSTORE POP JUMP JUMPDEST PUSH0 PUSH2 0x2F35 PUSH1 0x13 DUP4 PUSH2 0x228E JUMP JUMPDEST SWAP2 POP PUSH2 0x2F40 DUP3 PUSH2 0x2F01 JUMP JUMPDEST PUSH1 0x20 DUP3 ADD SWAP1 POP SWAP2 SWAP1 POP JUMP JUMPDEST PUSH0 PUSH1 0x20 DUP3 ADD SWAP1 POP DUP2 DUP2 SUB PUSH0 DUP4 ADD MSTORE PUSH2 0x2F62 DUP2 PUSH2 0x2F29 JUMP JUMPDEST SWAP1 POP SWAP2 SWAP1 POP JUMP JUMPDEST PUSH0 DUP2 SWAP1 POP DUP2 PUSH0 MSTORE PUSH1 0x20 PUSH0 KECCAK256 SWAP1 POP SWAP2 SWAP1 POP JUMP JUMPDEST PUSH0 PUSH1 0x20 PUSH1 0x1F DUP4 ADD DIV SWAP1 POP SWAP2 SWAP1 POP JUMP JUMPDEST PUSH0 DUP3 DUP3 SHL SWAP1 POP SWAP3 SWAP2 POP POP JUMP JUMPDEST PUSH0 PUSH1 0x8 DUP4 MUL PUSH2 0x2FC5 PUSH32 0xFFFFFFFFFFFFFFFFFFFFFFFFFFFFFFFFFFFFFFFFFFFFFFFFFFFFFFFFFFFFFFFF DUP3 PUSH2 0x2F8A JUMP JUMPDEST PUSH2 0x2FCF DUP7 DUP4 PUSH2 0x2F8A JUMP JUMPDEST SWAP6 POP DUP1 NOT DUP5 AND SWAP4 POP DUP1 DUP7 AND DUP5 OR SWAP3 POP POP POP SWAP4 SWAP3 POP POP POP JUMP JUMPDEST PUSH0 DUP2 SWAP1 POP SWAP2 SWAP1 POP JUMP JUMPDEST PUSH0 PUSH2 0x300A PUSH2 0x3005 PUSH2 0x3000 DUP5 PUSH2 0x20F9 JUMP JUMPDEST PUSH2 0x2FE7 JUMP JUMPDEST PUSH2 0x20F9 JUMP JUMPDEST SWAP1 POP SWAP2 SWAP1 POP JUMP JUMPDEST PUSH0 DUP2 SWAP1 POP SWAP2 SWAP1 POP JUMP JUMPDEST PUSH2 0x3023 DUP4 PUSH2 0x2FF0 JUMP JUMPDEST PUSH2 0x3037 PUSH2 0x302F DUP3 PUSH2 0x3011 JUMP JUMPDEST DUP5 DUP5 SLOAD PUSH2 0x2F96 JUMP JUMPDEST DUP3 SSTORE POP POP POP POP JUMP JUMPDEST PUSH0 SWAP1 JUMP JUMPDEST PUSH2 0x304B PUSH2 0x303F JUMP JUMPDEST PUSH2 0x3056 DUP2 DUP5 DUP5 PUSH2 0x301A JUMP JUMPDEST POP POP POP JUMP JUMPDEST JUMPDEST DUP2 DUP2 LT ISZERO PUSH2 0x3079 JUMPI PUSH2 0x306E PUSH0 DUP3 PUSH2 0x3043 JUMP JUMPDEST PUSH1 0x1 DUP2 ADD SWAP1 POP PUSH2 0x305C JUMP JUMPDEST POP POP JUMP JUMPDEST PUSH1 0x1F DUP3 GT ISZERO PUSH2 0x30BE JUMPI PUSH2 0x308F DUP2 PUSH2 0x2F69 JUMP JUMPDEST PUSH2 0x3098 DUP5 PUSH2 0x2F7B JUMP JUMPDEST DUP2 ADD PUSH1 0x20 DUP6 LT ISZERO PUSH2 0x30A7 JUMPI DUP2 SWAP1 POP JUMPDEST PUSH2 0x30BB PUSH2 0x30B3 DUP6 PUSH2 0x2F7B JUMP JUMPDEST DUP4 ADD DUP3 PUSH2 0x305B JUMP JUMPDEST POP POP JUMPDEST POP POP POP JUMP JUMPDEST PUSH0 DUP3 DUP3 SHR SWAP1 POP SWAP3 SWAP2 POP POP JUMP JUMPDEST PUSH0 PUSH2 0x30DE PUSH0 NOT DUP5 PUSH1 0x8 MUL PUSH2 0x30C3 JUMP JUMPDEST NOT DUP1 DUP4 AND SWAP2 POP POP SWAP3 SWAP2 POP POP JUMP JUMPDEST PUSH0 PUSH2 0x30F6 DUP4 DUP4 PUSH2 0x30CF JUMP JUMPDEST SWAP2 POP DUP3 PUSH1 0x2 MUL DUP3 OR SWAP1 POP SWAP3 SWAP2 POP POP JUMP JUMPDEST PUSH2 0x310F DUP3 PUSH2 0x2284 JUMP JUMPDEST PUSH8 0xFFFFFFFFFFFFFFFF DUP2 GT ISZERO PUSH2 0x3128 JUMPI PUSH2 0x3127 PUSH2 0x245D JUMP JUMPDEST JUMPDEST PUSH2 0x3132 DUP3 SLOAD PUSH2 0x2ED1 JUMP JUMPDEST PUSH2 0x313D DUP3 DUP3 DUP6 PUSH2 0x307D JUMP JUMPDEST PUSH0 PUSH1 0x20 SWAP1 POP PUSH1 0x1F DUP4 GT PUSH1 0x1 DUP2 EQ PUSH2 0x316E JUMPI PUSH0 DUP5 ISZERO PUSH2 0x315C JUMPI DUP3 DUP8 ADD MLOAD SWAP1 POP JUMPDEST PUSH2 0x3166 DUP6 DUP3 PUSH2 0x30EB JUMP JUMPDEST DUP7 SSTORE POP PUSH2 0x31CD JUMP JUMPDEST PUSH1 0x1F NOT DUP5 AND PUSH2 0x317C DUP7 PUSH2 0x2F69 JUMP JUMPDEST PUSH0 JUMPDEST DUP3 DUP2 LT ISZERO PUSH2 0x31A3 JUMPI DUP5 DUP10 ADD MLOAD DUP3 SSTORE PUSH1 0x1 DUP3 ADD SWAP2 POP PUSH1 0x20 DUP6 ADD SWAP5 POP PUSH1 0x20 DUP2 ADD SWAP1 POP PUSH2 0x317E JUMP JUMPDEST DUP7 DUP4 LT ISZERO PUSH2 0x31C0 JUMPI DUP5 DUP10 ADD MLOAD PUSH2 0x31BC PUSH1 0x1F DUP10 AND DUP3 PUSH2 0x30CF JUMP JUMPDEST DUP4 SSTORE POP JUMPDEST PUSH1 0x1 PUSH1 0x2 DUP9 MUL ADD DUP9 SSTORE POP POP POP JUMPDEST POP POP POP POP POP POP JUMP JUMPDEST PUSH32 0x4E487B7100000000000000000000000000000000000000000000000000000000 PUSH0 MSTORE PUSH1 0x11 PUSH1 0x4 MSTORE PUSH1 0x24 PUSH0 REVERT JUMPDEST PUSH0 PUSH2 0x320C DUP3 PUSH2 0x20F9 JUMP JUMPDEST SWAP2 POP PUSH32 0xFFFFFFFFFFFFFFFFFFFFFFFFFFFFFFFFFFFFFFFFFFFFFFFFFFFFFFFFFFFFFFFF DUP3 SUB PUSH2 0x323E JUMPI PUSH2 0x323D PUSH2 0x31D5 JUMP JUMPDEST JUMPDEST PUSH1 0x1 DUP3 ADD SWAP1 POP SWAP2 SWAP1 POP JUMP JUMPDEST PUSH32 0x4B68617469616E20616C72656164792065786973747300000000000000000000 PUSH0 DUP3 ADD MSTORE POP JUMP JUMPDEST PUSH0 PUSH2 0x327D PUSH1 0x16 DUP4 PUSH2 0x228E JUMP JUMPDEST SWAP2 POP PUSH2 0x3288 DUP3 PUSH2 0x3249 JUMP JUMPDEST PUSH1 0x20 DUP3 ADD SWAP1 POP SWAP2 SWAP1 POP JUMP JUMPDEST PUSH0 PUSH1 0x20 DUP3 ADD SWAP1 POP DUP2 DUP2 SUB PUSH0 DUP4 ADD MSTORE PUSH2 0x32AA DUP2 PUSH2 0x3271 JUMP JUMPDEST SWAP1 POP SWAP2 SWAP1 POP JUMP JUMPDEST PUSH32 0x4B68617469616E20646F6573206E6F7420657869737400000000000000000000 PUSH0 DUP3 ADD MSTORE POP JUMP JUMPDEST PUSH0 PUSH2 0x32E5 PUSH1 0x16 DUP4 PUSH2 0x228E JUMP JUMPDEST SWAP2 POP PUSH2 0x32F0 DUP3 PUSH2 0x32B1 JUMP JUMPDEST PUSH1 0x20 DUP3 ADD SWAP1 POP SWAP2 SWAP1 POP JUMP JUMPDEST PUSH0 PUSH1 0x20 DUP3 ADD SWAP1 POP DUP2 DUP2 SUB PUSH0 DUP4 ADD MSTORE PUSH2 0x3312 DUP2 PUSH2 0x32D9 JUMP JUMPDEST SWAP1 POP SWAP2 SWAP1 POP JUMP JUMPDEST PUSH32 0x496E76616C6964204B68617469616E2049440000000000000000000000000000 PUSH0 DUP3 ADD MSTORE POP JUMP JUMPDEST PUSH0 PUSH2 0x334D PUSH1 0x12 DUP4 PUSH2 0x228E JUMP JUMPDEST SWAP2 POP PUSH2 0x3358 DUP3 PUSH2 0x3319 JUMP JUMPDEST PUSH1 0x20 DUP3 ADD SWAP1 POP SWAP2 SWAP1 POP JUMP JUMPDEST PUSH0 PUSH1 0x20 DUP3 ADD SWAP1 POP DUP2 DUP2 SUB PUSH0 DUP4 ADD MSTORE PUSH2 0x337A DUP2 PUSH2 0x3341 JUMP JUMPDEST SWAP1 POP SWAP2 SWAP1 POP JUMP JUMPDEST PUSH0 PUSH2 0x338B DUP3 PUSH2 0x20F9 JUMP JUMPDEST SWAP2 POP PUSH2 0x3396 DUP4 PUSH2 0x20F9 JUMP JUMPDEST SWAP3 POP DUP3 DUP3 SUB SWAP1 POP DUP2 DUP2 GT ISZERO PUSH2 0x33AE JUMPI PUSH2 0x33AD PUSH2 0x31D5 JUMP JUMPDEST JUMPDEST SWAP3 SWAP2 POP POP JUMP JUMPDEST PUSH32 0x4E487B7100000000000000000000000000000000000000000000000000000000 PUSH0 MSTORE PUSH1 0x32 PUSH1 0x4 MSTORE PUSH1 0x24 PUSH0 REVERT JUMPDEST PUSH32 0x506C6F7420646F6573206E6F7420657869737400000000000000000000000000 PUSH0 DUP3 ADD MSTORE POP JUMP JUMPDEST PUSH0 PUSH2 0x3415 PUSH1 0x13 DUP4 PUSH2 0x228E JUMP JUMPDEST SWAP2 POP PUSH2 0x3420 DUP3 PUSH2 0x33E1 JUMP JUMPDEST PUSH1 0x20 DUP3 ADD SWAP1 POP SWAP2 SWAP1 POP JUMP JUMPDEST PUSH0 PUSH1 0x20 DUP3 ADD SWAP1 POP DUP2 DUP2 SUB PUSH0 DUP4 ADD MSTORE PUSH2 0x3442 DUP2 PUSH2 0x3409 JUMP JUMPDEST SWAP1 POP SWAP2 SWAP1 POP JUMP JUMPDEST PUSH32 0x506C6F7420616C72656164792065786973747300000000000000000000000000 PUSH0 DUP3 ADD MSTORE POP JUMP JUMPDEST PUSH0 PUSH2 0x347D PUSH1 0x13 DUP4 PUSH2 0x228E JUMP JUMPDEST SWAP2 POP PUSH2 0x3488 DUP3 PUSH2 0x3449 JUMP JUMPDEST PUSH1 0x20 DUP3 ADD SWAP1 POP SWAP2 SWAP1 POP JUMP JUMPDEST PUSH0 PUSH1 0x20 DUP3 ADD SWAP1 POP DUP2 DUP2 SUB PUSH0 DUP4 ADD MSTORE PUSH2 0x34AA DUP2 PUSH2 0x3471 JUMP JUMPDEST SWAP1 POP SWAP2 SWAP1 POP JUMP JUMPDEST PUSH32 0x496E76616C696420506C6F742049440000000000000000000000000000000000 PUSH0 DUP3 ADD MSTORE POP JUMP JUMPDEST PUSH0 PUSH2 0x34E5 PUSH1 0xF DUP4 PUSH2 0x228E JUMP JUMPDEST SWAP2 POP PUSH2 0x34F0 DUP3 PUSH2 0x34B1 JUMP JUMPDEST PUSH1 0x20 DUP3 ADD SWAP1 POP SWAP2 SWAP1 POP JUMP JUMPDEST PUSH0 PUSH1 0x20 DUP3 ADD SWAP1 POP DUP2 DUP2 SUB PUSH0 DUP4 ADD MSTORE PUSH2 0x3512 DUP2 PUSH2 0x34D9 JUMP JUMPDEST SWAP1 POP SWAP2 SWAP1 POP JUMP INVALID LOG2 PUSH5 0x6970667358 0x22 SLT KECCAK256 DUP4 DUP16 0xF6 SGT 0xDE 0xDB 0xAF CALLDATALOAD SWAP15 0xFB 0xA7 0xCF 0xC5 0xB1 0xE7 CALLER 0xB8 SWAP5 0xC1 0x2F EQ 0xCB LOG3 KECCAK256 0x5C 0x25 0x26 DUP16 PUSH29 0xDB9EBD64736F6C63430008140033000000000000000000000000000000 "
		},
		"gasEstimates": {
			"creation": {
				"codeDepositCost": "2729400",
				"executionCost": "7980",
				"totalCost": "2737380"
			},
			"external": {
				"": "240",
				"createKhatian(uint64,bytes32)": "150505",
				"createPlot(bytes32,bytes32,bytes32,bytes32,uint16,uint16,uint8,uint32)": "infinite",
				"createUser()": "infinite",
				"getKhatianByHash(bytes32)": "infinite",
				"getKhatianHashById(uint256)": "infinite",
				"getPlotByHash(bytes32)": "infinite",
				"getPlotHashById(uint256)": "infinite",
				"getUserByAddress(address)": "infinite",
				"getUserOwnedByAddress(address)": "infinite",
				"khatianArray(uint256)": "4937",
				"khatianMapping(bytes32)": "infinite",
				"plotArray(uint256)": "4983",
				"plotMapping(bytes32)": "infinite",
				"updateFingerprint(address,string)": "infinite",
				"updateUserDOB(address,uint256)": "25163",
				"updateUserDistrict(address,bytes32)": "25097",
				"updateUserEmail(address,bytes32)": "25118",
				"updateUserFatherName(address,bytes32)": "25184",
				"updateUserFullName(address,bytes32)": "25139",
				"updateUserMotherName(address,bytes32)": "25184",
				"updateUserPostCode(address,uint256)": "25140",
				"updateUserThana(address,bytes32)": "25161",
				"updateUserTotalTax(address,uint256)": "25141",
				"updateUserVillage(address,bytes32)": "25162",
				"userCount()": "2471",
				"userMapping(address)": "infinite",
				"userOwnedMapping(address)": "2904"
			}
		},
		"methodIdentifiers": {
			"createKhatian(uint64,bytes32)": "4257d82a",
			"createPlot(bytes32,bytes32,bytes32,bytes32,uint16,uint16,uint8,uint32)": "c9112d59",
			"createUser()": "25ad91ce",
			"getKhatianByHash(bytes32)": "5cb99c03",
			"getKhatianHashById(uint256)": "5cd5ad25",
			"getPlotByHash(bytes32)": "95d5712c",
			"getPlotHashById(uint256)": "effdc6f8",
			"getUserByAddress(address)": "69c212f6",
			"getUserOwnedByAddress(address)": "1021ee9c",
			"khatianArray(uint256)": "ca67c074",
			"khatianMapping(bytes32)": "490b3e60",
			"plotArray(uint256)": "11a8aeaf",
			"plotMapping(bytes32)": "b2865b19",
			"updateFingerprint(address,string)": "32889d98",
			"updateUserDOB(address,uint256)": "7d5e5f3e",
			"updateUserDistrict(address,bytes32)": "02c5a651",
			"updateUserEmail(address,bytes32)": "81f1d75c",
			"updateUserFatherName(address,bytes32)": "638dfea9",
			"updateUserFullName(address,bytes32)": "b655fda2",
			"updateUserMotherName(address,bytes32)": "a9d54e8f",
			"updateUserPostCode(address,uint256)": "8459c305",
			"updateUserThana(address,bytes32)": "cc3f7559",
			"updateUserTotalTax(address,uint256)": "73bb756e",
			"updateUserVillage(address,bytes32)": "5d0decc3",
			"userCount()": "07973ccf",
			"userMapping(address)": "118b9535",
			"userOwnedMapping(address)": "c8a62b21"
		}
	},
	"abi": [
		{
			"inputs": [],
			"stateMutability": "nonpayable",
			"type": "constructor"
		},
		{
			"anonymous": false,
			"inputs": [
				{
					"indexed": true,
					"internalType": "bytes32",
					"name": "khatianHash",
					"type": "bytes32"
				}
			],
			"name": "CreationOfKhatian",
			"type": "event"
		},
		{
			"anonymous": false,
			"inputs": [
				{
					"indexed": true,
					"internalType": "bytes32",
					"name": "plotHash",
					"type": "bytes32"
				}
			],
			"name": "CreationOfPlot",
			"type": "event"
		},
		{
			"anonymous": false,
			"inputs": [
				{
					"indexed": true,
					"internalType": "address",
					"name": "userAddress",
					"type": "address"
				},
				{
					"indexed": true,
					"internalType": "uint256",
					"name": "userId",
					"type": "uint256"
				}
			],
			"name": "CreationOfUser",
			"type": "event"
		},
		{
			"stateMutability": "payable",
			"type": "fallback"
		},
		{
			"inputs": [
				{
					"internalType": "uint64",
					"name": "khatianiId",
					"type": "uint64"
				},
				{
					"internalType": "bytes32",
					"name": "plotHash",
					"type": "bytes32"
				}
			],
			"name": "createKhatian",
			"outputs": [],
			"stateMutability": "nonpayable",
			"type": "function"
		},
		{
			"inputs": [
				{
					"internalType": "bytes32",
					"name": "plotHash",
					"type": "bytes32"
				},
				{
					"internalType": "bytes32",
					"name": "division",
					"type": "bytes32"
				},
				{
					"internalType": "bytes32",
					"name": "district",
					"type": "bytes32"
				},
				{
					"internalType": "bytes32",
					"name": "thana",
					"type": "bytes32"
				},
				{
					"internalType": "uint16",
					"name": "JLNo",
					"type": "uint16"
				},
				{
					"internalType": "uint16",
					"name": "plotNo",
					"type": "uint16"
				},
				{
					"internalType": "uint8",
					"name": "plotType",
					"type": "uint8"
				},
				{
					"internalType": "uint32",
					"name": "plotArea",
					"type": "uint32"
				}
			],
			"name": "createPlot",
			"outputs": [],
			"stateMutability": "nonpayable",
			"type": "function"
		},
		{
			"inputs": [],
			"name": "createUser",
			"outputs": [],
			"stateMutability": "nonpayable",
			"type": "function"
		},
		{
			"inputs": [
				{
					"internalType": "bytes32",
					"name": "khatianHash",
					"type": "bytes32"
				}
			],
			"name": "getKhatianByHash",
			"outputs": [
				{
					"components": [
						{
							"internalType": "uint64",
							"name": "khatianiId",
							"type": "uint64"
						},
						{
							"internalType": "bytes32",
							"name": "plotHash",
							"type": "bytes32"
						},
						{
							"internalType": "uint16",
							"name": "percentOwn",
							"type": "uint16"
						},
						{
							"internalType": "bytes32",
							"name": "buyFrom",
							"type": "bytes32"
						},
						{
							"internalType": "bytes32[]",
							"name": "sellTo",
							"type": "bytes32[]"
						},
						{
							"internalType": "uint16[]",
							"name": "sellPercentage",
							"type": "uint16[]"
						},
						{
							"internalType": "uint256[]",
							"name": "ownerArray",
							"type": "uint256[]"
						},
						{
							"internalType": "uint16[]",
							"name": "perOwnerPercentage",
							"type": "uint16[]"
						},
						{
							"internalType": "bool",
							"name": "isExist",
							"type": "bool"
						}
					],
					"internalType": "struct LandRegistration.Khatian",
					"name": "",
					"type": "tuple"
				}
			],
			"stateMutability": "view",
			"type": "function"
		},
		{
			"inputs": [
				{
					"internalType": "uint256",
					"name": "id",
					"type": "uint256"
				}
			],
			"name": "getKhatianHashById",
			"outputs": [
				{
					"internalType": "bytes32",
					"name": "",
					"type": "bytes32"
				}
			],
			"stateMutability": "view",
			"type": "function"
		},
		{
			"inputs": [
				{
					"internalType": "bytes32",
					"name": "plotHash",
					"type": "bytes32"
				}
			],
			"name": "getPlotByHash",
			"outputs": [
				{
					"components": [
						{
							"internalType": "bytes32",
							"name": "division",
							"type": "bytes32"
						},
						{
							"internalType": "bytes32",
							"name": "district",
							"type": "bytes32"
						},
						{
							"internalType": "bytes32",
							"name": "thana",
							"type": "bytes32"
						},
						{
							"internalType": "uint16",
							"name": "JLNo",
							"type": "uint16"
						},
						{
							"internalType": "uint16",
							"name": "plotNo",
							"type": "uint16"
						},
						{
							"internalType": "uint8",
							"name": "plotType",
							"type": "uint8"
						},
						{
							"internalType": "uint32",
							"name": "plotArea",
							"type": "uint32"
						},
						{
							"internalType": "bool",
							"name": "isExist",
							"type": "bool"
						}
					],
					"internalType": "struct LandRegistration.Plot",
					"name": "",
					"type": "tuple"
				}
			],
			"stateMutability": "view",
			"type": "function"
		},
		{
			"inputs": [
				{
					"internalType": "uint256",
					"name": "id",
					"type": "uint256"
				}
			],
			"name": "getPlotHashById",
			"outputs": [
				{
					"internalType": "bytes32",
					"name": "",
					"type": "bytes32"
				}
			],
			"stateMutability": "view",
			"type": "function"
		},
		{
			"inputs": [
				{
					"internalType": "address",
					"name": "_address",
					"type": "address"
				}
			],
			"name": "getUserByAddress",
			"outputs": [
				{
					"components": [
						{
							"internalType": "bytes32",
							"name": "fullName",
							"type": "bytes32"
						},
						{
							"internalType": "bytes32",
							"name": "fatherName",
							"type": "bytes32"
						},
						{
							"internalType": "bytes32",
							"name": "motherName",
							"type": "bytes32"
						},
						{
							"internalType": "bytes32",
							"name": "district",
							"type": "bytes32"
						},
						{
							"internalType": "bytes32",
							"name": "thana",
							"type": "bytes32"
						},
						{
							"internalType": "uint256",
							"name": "postCode",
							"type": "uint256"
						},
						{
							"internalType": "bytes32",
							"name": "village",
							"type": "bytes32"
						},
						{
							"internalType": "bytes32",
							"name": "email",
							"type": "bytes32"
						},
						{
							"internalType": "uint256",
							"name": "dob",
							"type": "uint256"
						},
						{
							"internalType": "uint256",
							"name": "totalTax",
							"type": "uint256"
						},
						{
							"internalType": "string",
							"name": "fingerprint",
							"type": "string"
						},
						{
							"internalType": "bool",
							"name": "isExist",
							"type": "bool"
						}
					],
					"internalType": "struct LandRegistration.User",
					"name": "",
					"type": "tuple"
				}
			],
			"stateMutability": "view",
			"type": "function"
		},
		{
			"inputs": [
				{
					"internalType": "address",
					"name": "_address",
					"type": "address"
				}
			],
			"name": "getUserOwnedByAddress",
			"outputs": [
				{
					"components": [
						{
							"internalType": "uint256",
							"name": "number",
							"type": "uint256"
						},
						{
							"internalType": "bytes32[]",
							"name": "khatianList",
							"type": "bytes32[]"
						}
					],
					"internalType": "struct LandRegistration.UserOwned",
					"name": "",
					"type": "tuple"
				}
			],
			"stateMutability": "view",
			"type": "function"
		},
		{
			"inputs": [
				{
					"internalType": "uint256",
					"name": "",
					"type": "uint256"
				}
			],
			"name": "khatianArray",
			"outputs": [
				{
					"internalType": "bytes32",
					"name": "",
					"type": "bytes32"
				}
			],
			"stateMutability": "view",
			"type": "function"
		},
		{
			"inputs": [
				{
					"internalType": "bytes32",
					"name": "",
					"type": "bytes32"
				}
			],
			"name": "khatianMapping",
			"outputs": [
				{
					"internalType": "uint64",
					"name": "khatianiId",
					"type": "uint64"
				},
				{
					"internalType": "bytes32",
					"name": "plotHash",
					"type": "bytes32"
				},
				{
					"internalType": "uint16",
					"name": "percentOwn",
					"type": "uint16"
				},
				{
					"internalType": "bytes32",
					"name": "buyFrom",
					"type": "bytes32"
				},
				{
					"internalType": "bool",
					"name": "isExist",
					"type": "bool"
				}
			],
			"stateMutability": "view",
			"type": "function"
		},
		{
			"inputs": [
				{
					"internalType": "uint256",
					"name": "",
					"type": "uint256"
				}
			],
			"name": "plotArray",
			"outputs": [
				{
					"internalType": "bytes32",
					"name": "",
					"type": "bytes32"
				}
			],
			"stateMutability": "view",
			"type": "function"
		},
		{
			"inputs": [
				{
					"internalType": "bytes32",
					"name": "",
					"type": "bytes32"
				}
			],
			"name": "plotMapping",
			"outputs": [
				{
					"internalType": "bytes32",
					"name": "division",
					"type": "bytes32"
				},
				{
					"internalType": "bytes32",
					"name": "district",
					"type": "bytes32"
				},
				{
					"internalType": "bytes32",
					"name": "thana",
					"type": "bytes32"
				},
				{
					"internalType": "uint16",
					"name": "JLNo",
					"type": "uint16"
				},
				{
					"internalType": "uint16",
					"name": "plotNo",
					"type": "uint16"
				},
				{
					"internalType": "uint8",
					"name": "plotType",
					"type": "uint8"
				},
				{
					"internalType": "uint32",
					"name": "plotArea",
					"type": "uint32"
				},
				{
					"internalType": "bool",
					"name": "isExist",
					"type": "bool"
				}
			],
			"stateMutability": "view",
			"type": "function"
		},
		{
			"inputs": [
				{
					"internalType": "address",
					"name": "_address",
					"type": "address"
				},
				{
					"internalType": "string",
					"name": "fingerprint",
					"type": "string"
				}
			],
			"name": "updateFingerprint",
			"outputs": [],
			"stateMutability": "nonpayable",
			"type": "function"
		},
		{
			"inputs": [
				{
					"internalType": "address",
					"name": "_address",
					"type": "address"
				},
				{
					"internalType": "uint256",
					"name": "dob",
					"type": "uint256"
				}
			],
			"name": "updateUserDOB",
			"outputs": [],
			"stateMutability": "nonpayable",
			"type": "function"
		},
		{
			"inputs": [
				{
					"internalType": "address",
					"name": "_address",
					"type": "address"
				},
				{
					"internalType": "bytes32",
					"name": "district",
					"type": "bytes32"
				}
			],
			"name": "updateUserDistrict",
			"outputs": [],
			"stateMutability": "nonpayable",
			"type": "function"
		},
		{
			"inputs": [
				{
					"internalType": "address",
					"name": "_address",
					"type": "address"
				},
				{
					"internalType": "bytes32",
					"name": "email",
					"type": "bytes32"
				}
			],
			"name": "updateUserEmail",
			"outputs": [],
			"stateMutability": "nonpayable",
			"type": "function"
		},
		{
			"inputs": [
				{
					"internalType": "address",
					"name": "_address",
					"type": "address"
				},
				{
					"internalType": "bytes32",
					"name": "fatherName",
					"type": "bytes32"
				}
			],
			"name": "updateUserFatherName",
			"outputs": [],
			"stateMutability": "nonpayable",
			"type": "function"
		},
		{
			"inputs": [
				{
					"internalType": "address",
					"name": "_address",
					"type": "address"
				},
				{
					"internalType": "bytes32",
					"name": "fullName",
					"type": "bytes32"
				}
			],
			"name": "updateUserFullName",
			"outputs": [],
			"stateMutability": "nonpayable",
			"type": "function"
		},
		{
			"inputs": [
				{
					"internalType": "address",
					"name": "_address",
					"type": "address"
				},
				{
					"internalType": "bytes32",
					"name": "motherName",
					"type": "bytes32"
				}
			],
			"name": "updateUserMotherName",
			"outputs": [],
			"stateMutability": "nonpayable",
			"type": "function"
		},
		{
			"inputs": [
				{
					"internalType": "address",
					"name": "_address",
					"type": "address"
				},
				{
					"internalType": "uint256",
					"name": "postCode",
					"type": "uint256"
				}
			],
			"name": "updateUserPostCode",
			"outputs": [],
			"stateMutability": "nonpayable",
			"type": "function"
		},
		{
			"inputs": [
				{
					"internalType": "address",
					"name": "_address",
					"type": "address"
				},
				{
					"internalType": "bytes32",
					"name": "thana",
					"type": "bytes32"
				}
			],
			"name": "updateUserThana",
			"outputs": [],
			"stateMutability": "nonpayable",
			"type": "function"
		},
		{
			"inputs": [
				{
					"internalType": "address",
					"name": "_address",
					"type": "address"
				},
				{
					"internalType": "uint256",
					"name": "totalTax",
					"type": "uint256"
				}
			],
			"name": "updateUserTotalTax",
			"outputs": [],
			"stateMutability": "nonpayable",
			"type": "function"
		},
		{
			"inputs": [
				{
					"internalType": "address",
					"name": "_address",
					"type": "address"
				},
				{
					"internalType": "bytes32",
					"name": "village",
					"type": "bytes32"
				}
			],
			"name": "updateUserVillage",
			"outputs": [],
			"stateMutability": "nonpayable",
			"type": "function"
		},
		{
			"inputs": [],
			"name": "userCount",
			"outputs": [
				{
					"internalType": "uint256",
					"name": "",
					"type": "uint256"
				}
			],
			"stateMutability": "view",
			"type": "function"
		},
		{
			"inputs": [
				{
					"internalType": "address",
					"name": "",
					"type": "address"
				}
			],
			"name": "userMapping",
			"outputs": [
				{
					"internalType": "bytes32",
					"name": "fullName",
					"type": "bytes32"
				},
				{
					"internalType": "bytes32",
					"name": "fatherName",
					"type": "bytes32"
				},
				{
					"internalType": "bytes32",
					"name": "motherName",
					"type": "bytes32"
				},
				{
					"internalType": "bytes32",
					"name": "district",
					"type": "bytes32"
				},
				{
					"internalType": "bytes32",
					"name": "thana",
					"type": "bytes32"
				},
				{
					"internalType": "uint256",
					"name": "postCode",
					"type": "uint256"
				},
				{
					"internalType": "bytes32",
					"name": "village",
					"type": "bytes32"
				},
				{
					"internalType": "bytes32",
					"name": "email",
					"type": "bytes32"
				},
				{
					"internalType": "uint256",
					"name": "dob",
					"type": "uint256"
				},
				{
					"internalType": "uint256",
					"name": "totalTax",
					"type": "uint256"
				},
				{
					"internalType": "string",
					"name": "fingerprint",
					"type": "string"
				},
				{
					"internalType": "bool",
					"name": "isExist",
					"type": "bool"
				}
			],
			"stateMutability": "view",
			"type": "function"
		},
		{
			"inputs": [
				{
					"internalType": "address",
					"name": "",
					"type": "address"
				}
			],
			"name": "userOwnedMapping",
			"outputs": [
				{
					"internalType": "uint256",
					"name": "number",
					"type": "uint256"
				}
			],
			"stateMutability": "view",
			"type": "function"
		},
		{
			"stateMutability": "payable",
			"type": "receive"
		}
	]
}