{
  "contractName": "LandRecordToken",
  "abi": [
    {
      "inputs": [
        {
          "internalType": "string",
          "name": "name",
          "type": "string"
        },
        {
          "internalType": "string",
          "name": "symbol",
          "type": "string"
        }
      ],
      "stateMutability": "nonpayable",
      "type": "constructor"
    },
    {
      "anonymous": false,
      "inputs": [
        {
          "indexed": true,
          "internalType": "address",
          "name": "owner",
          "type": "address"
        },
        {
          "indexed": true,
          "internalType": "address",
          "name": "spender",
          "type": "address"
        },
        {
          "indexed": false,
          "internalType": "uint256",
          "name": "value",
          "type": "uint256"
        }
      ],
      "name": "Approval",
      "type": "event"
    },
    {
      "anonymous": false,
      "inputs": [
        {
          "indexed": true,
          "internalType": "address",
          "name": "from",
          "type": "address"
        },
        {
          "indexed": true,
          "internalType": "address",
          "name": "to",
          "type": "address"
        },
        {
          "indexed": false,
          "internalType": "uint256",
          "name": "value",
          "type": "uint256"
        }
      ],
      "name": "Transfer",
      "type": "event"
    },
    {
      "inputs": [
        {
          "internalType": "address",
          "name": "owner",
          "type": "address"
        },
        {
          "internalType": "address",
          "name": "spender",
          "type": "address"
        }
      ],
      "name": "allowance",
      "outputs": [
        {
          "internalType": "uint256",
          "name": "",
          "type": "uint256"
        }
      ],
      "stateMutability": "view",
      "type": "function"
    },
    {
      "inputs": [
        {
          "internalType": "address",
          "name": "spender",
          "type": "address"
        },
        {
          "internalType": "uint256",
          "name": "amount",
          "type": "uint256"
        }
      ],
      "name": "approve",
      "outputs": [
        {
          "internalType": "bool",
          "name": "",
          "type": "bool"
        }
      ],
      "stateMutability": "nonpayable",
      "type": "function"
    },
    {
      "inputs": [
        {
          "internalType": "address",
          "name": "account",
          "type": "address"
        }
      ],
      "name": "balanceOf",
      "outputs": [
        {
          "internalType": "uint256",
          "name": "",
          "type": "uint256"
        }
      ],
      "stateMutability": "view",
      "type": "function"
    },
    {
      "inputs": [],
      "name": "decimals",
      "outputs": [
        {
          "internalType": "uint8",
          "name": "",
          "type": "uint8"
        }
      ],
      "stateMutability": "view",
      "type": "function"
    },
    {
      "inputs": [
        {
          "internalType": "address",
          "name": "spender",
          "type": "address"
        },
        {
          "internalType": "uint256",
          "name": "subtractedValue",
          "type": "uint256"
        }
      ],
      "name": "decreaseAllowance",
      "outputs": [
        {
          "internalType": "bool",
          "name": "",
          "type": "bool"
        }
      ],
      "stateMutability": "nonpayable",
      "type": "function"
    },
    {
      "inputs": [
        {
          "internalType": "address",
          "name": "spender",
          "type": "address"
        },
        {
          "internalType": "uint256",
          "name": "addedValue",
          "type": "uint256"
        }
      ],
      "name": "increaseAllowance",
      "outputs": [
        {
          "internalType": "bool",
          "name": "",
          "type": "bool"
        }
      ],
      "stateMutability": "nonpayable",
      "type": "function"
    },
    {
      "inputs": [],
      "name": "name",
      "outputs": [
        {
          "internalType": "string",
          "name": "",
          "type": "string"
        }
      ],
      "stateMutability": "view",
      "type": "function"
    },
    {
      "inputs": [],
      "name": "symbol",
      "outputs": [
        {
          "internalType": "string",
          "name": "",
          "type": "string"
        }
      ],
      "stateMutability": "view",
      "type": "function"
    },
    {
      "inputs": [],
      "name": "totalSupply",
      "outputs": [
        {
          "internalType": "uint256",
          "name": "",
          "type": "uint256"
        }
      ],
      "stateMutability": "view",
      "type": "function"
    },
    {
      "inputs": [
        {
          "internalType": "address",
          "name": "to",
          "type": "address"
        },
        {
          "internalType": "uint256",
          "name": "amount",
          "type": "uint256"
        }
      ],
      "name": "transfer",
      "outputs": [
        {
          "internalType": "bool",
          "name": "",
          "type": "bool"
        }
      ],
      "stateMutability": "nonpayable",
      "type": "function"
    },
    {
      "inputs": [
        {
          "internalType": "address",
          "name": "from",
          "type": "address"
        },
        {
          "internalType": "address",
          "name": "to",
          "type": "address"
        },
        {
          "internalType": "uint256",
          "name": "amount",
          "type": "uint256"
        }
      ],
      "name": "transferFrom",
      "outputs": [
        {
          "internalType": "bool",
          "name": "",
          "type": "bool"
        }
      ],
      "stateMutability": "nonpayable",
      "type": "function"
    },
    {
      "inputs": [
        {
          "internalType": "string",
          "name": "_ownerName",
          "type": "string"
        },
        {
          "internalType": "address",
          "name": "_ownerAddress",
          "type": "address"
        }
      ],
      "name": "createToken",
      "outputs": [
        {
          "internalType": "uint256",
          "name": "",
          "type": "uint256"
        }
      ],
      "stateMutability": "nonpayable",
      "type": "function"
    }
  ],
  "bytecode": "0x60806040523480156200001157600080fd5b5060405162002153380380620021538339818101604052810190620000379190620003b7565b818181600390816200004a919062000687565b5080600490816200005c919062000687565b5050506200009c3362000074620000a460201b60201c565b600a620000829190620008fe565b60646200009091906200094f565b620000ad60201b60201c565b505062000a86565b60006012905090565b600073ffffffffffffffffffffffffffffffffffffffff168273ffffffffffffffffffffffffffffffffffffffff16036200011f576040517f08c379a00000000000000000000000000000000000000000000000000000000081526004016200011690620009fb565b60405180910390fd5b62000133600083836200021a60201b60201c565b806002600082825462000147919062000a1d565b92505081905550806000808473ffffffffffffffffffffffffffffffffffffffff1673ffffffffffffffffffffffffffffffffffffffff168152602001908152602001600020600082825401925050819055508173ffffffffffffffffffffffffffffffffffffffff16600073ffffffffffffffffffffffffffffffffffffffff167fddf252ad1be2c89b69c2b068fc378daa952ba7f163c4a11628f55a4df523b3ef83604051620001fa919062000a69565b60405180910390a362000216600083836200021f60201b60201c565b5050565b505050565b505050565b6000604051905090565b600080fd5b600080fd5b600080fd5b600080fd5b6000601f19601f8301169050919050565b7f4e487b7100000000000000000000000000000000000000000000000000000000600052604160045260246000fd5b6200028d8262000242565b810181811067ffffffffffffffff82111715620002af57620002ae62000253565b5b80604052505050565b6000620002c462000224565b9050620002d2828262000282565b919050565b600067ffffffffffffffff821115620002f557620002f462000253565b5b620003008262000242565b9050602081019050919050565b60005b838110156200032d57808201518184015260208101905062000310565b60008484015250505050565b6000620003506200034a84620002d7565b620002b8565b9050828152602081018484840111156200036f576200036e6200023d565b5b6200037c8482856200030d565b509392505050565b600082601f8301126200039c576200039b62000238565b5b8151620003ae84826020860162000339565b91505092915050565b60008060408385031215620003d157620003d06200022e565b5b600083015167ffffffffffffffff811115620003f257620003f162000233565b5b620004008582860162000384565b925050602083015167ffffffffffffffff81111562000424576200042362000233565b5b620004328582860162000384565b9150509250929050565b600081519050919050565b7f4e487b7100000000000000000000000000000000000000000000000000000000600052602260045260246000fd5b600060028204905060018216806200048f57607f821691505b602082108103620004a557620004a462000447565b5b50919050565b60008190508160005260206000209050919050565b60006020601f8301049050919050565b600082821b905092915050565b6000600883026200050f7fffffffffffffffffffffffffffffffffffffffffffffffffffffffffffffffff82620004d0565b6200051b8683620004d0565b95508019841693508086168417925050509392505050565b6000819050919050565b6000819050919050565b600062000568620005626200055c8462000533565b6200053d565b62000533565b9050919050565b6000819050919050565b620005848362000547565b6200059c62000593826200056f565b848454620004dd565b825550505050565b600090565b620005b3620005a4565b620005c081848462000579565b505050565b5b81811015620005e857620005dc600082620005a9565b600181019050620005c6565b5050565b601f82111562000637576200060181620004ab565b6200060c84620004c0565b810160208510156200061c578190505b620006346200062b85620004c0565b830182620005c5565b50505b505050565b600082821c905092915050565b60006200065c600019846008026200063c565b1980831691505092915050565b600062000677838362000649565b9150826002028217905092915050565b62000692826200043c565b67ffffffffffffffff811115620006ae57620006ad62000253565b5b620006ba825462000476565b620006c7828285620005ec565b600060209050601f831160018114620006ff5760008415620006ea578287015190505b620006f6858262000669565b86555062000766565b601f1984166200070f86620004ab565b60005b82811015620007395784890151825560018201915060208501945060208101905062000712565b8683101562000759578489015162000755601f89168262000649565b8355505b6001600288020188555050505b505050505050565b7f4e487b7100000000000000000000000000000000000000000000000000000000600052601160045260246000fd5b60008160011c9050919050565b6000808291508390505b6001851115620007fc57808604811115620007d457620007d36200076e565b5b6001851615620007e45780820291505b8081029050620007f4856200079d565b9450620007b4565b94509492505050565b600082620008175760019050620008ea565b81620008275760009050620008ea565b81600181146200084057600281146200084b5762000881565b6001915050620008ea565b60ff84111562000860576200085f6200076e565b5b8360020a9150848211156200087a57620008796200076e565b5b50620008ea565b5060208310610133831016604e8410600b8410161715620008bb5782820a905083811115620008b557620008b46200076e565b5b620008ea565b620008ca8484846001620007aa565b92509050818404811115620008e457620008e36200076e565b5b81810290505b9392505050565b600060ff82169050919050565b60006200090b8262000533565b91506200091883620008f1565b9250620009477fffffffffffffffffffffffffffffffffffffffffffffffffffffffffffffffff848462000805565b905092915050565b60006200095c8262000533565b9150620009698362000533565b9250828202620009798162000533565b915082820484148315176200099357620009926200076e565b5b5092915050565b600082825260208201905092915050565b7f45524332303a206d696e7420746f20746865207a65726f206164647265737300600082015250565b6000620009e3601f836200099a565b9150620009f082620009ab565b602082019050919050565b6000602082019050818103600083015262000a1681620009d4565b9050919050565b600062000a2a8262000533565b915062000a378362000533565b925082820190508082111562000a525762000a516200076e565b5b92915050565b62000a638162000533565b82525050565b600060208201905062000a80600083018462000a58565b92915050565b6116bd8062000a966000396000f3fe608060405234801561001057600080fd5b50600436106100b45760003560e01c806370a082311161007157806370a08231146101a357806395d89b41146101d3578063a2119377146101f1578063a457c2d714610221578063a9059cbb14610251578063dd62ed3e14610281576100b4565b806306fdde03146100b9578063095ea7b3146100d757806318160ddd1461010757806323b872dd14610125578063313ce567146101555780633950935114610173575b600080fd5b6100c16102b1565b6040516100ce9190610ce2565b60405180910390f35b6100f160048036038101906100ec9190610dac565b610343565b6040516100fe9190610e07565b60405180910390f35b61010f610366565b60405161011c9190610e31565b60405180910390f35b61013f600480360381019061013a9190610e4c565b610370565b60405161014c9190610e07565b60405180910390f35b61015d61039f565b60405161016a9190610ebb565b60405180910390f35b61018d60048036038101906101889190610dac565b6103a8565b60405161019a9190610e07565b60405180910390f35b6101bd60048036038101906101b89190610ed6565b6103df565b6040516101ca9190610e31565b60405180910390f35b6101db610427565b6040516101e89190610ce2565b60405180910390f35b61020b60048036038101906102069190611038565b6104b9565b6040516102189190610e31565b60405180910390f35b61023b60048036038101906102369190610dac565b6104fe565b6040516102489190610e07565b60405180910390f35b61026b60048036038101906102669190610dac565b610575565b6040516102789190610e07565b60405180910390f35b61029b60048036038101906102969190611094565b610598565b6040516102a89190610e31565b60405180910390f35b6060600380546102c090611103565b80601f01602080910402602001604051908101604052809291908181526020018280546102ec90611103565b80156103395780601f1061030e57610100808354040283529160200191610339565b820191906000526020600020905b81548152906001019060200180831161031c57829003601f168201915b5050505050905090565b60008061034e61061f565b905061035b818585610627565b600191505092915050565b6000600254905090565b60008061037b61061f565b90506103888582856107f0565b61039385858561087c565b60019150509392505050565b60006012905090565b6000806103b361061f565b90506103d48185856103c58589610598565b6103cf9190611163565b610627565b600191505092915050565b60008060008373ffffffffffffffffffffffffffffffffffffffff1673ffffffffffffffffffffffffffffffffffffffff168152602001908152602001600020549050919050565b60606004805461043690611103565b80601f016020809104026020016040519081016040528092919081815260200182805461046290611103565b80156104af5780601f10610484576101008083540402835291602001916104af565b820191906000526020600020905b81548152906001019060200180831161049257829003601f168201915b5050505050905090565b60008083836040516020016104cf92919061121b565b6040516020818303038152906040528051906020012060001c90506104f48382610af2565b8091505092915050565b60008061050961061f565b905060006105178286610598565b90508381101561055c576040517f08c379a0000000000000000000000000000000000000000000000000000000008152600401610553906112b5565b60405180910390fd5b6105698286868403610627565b60019250505092915050565b60008061058061061f565b905061058d81858561087c565b600191505092915050565b6000600160008473ffffffffffffffffffffffffffffffffffffffff1673ffffffffffffffffffffffffffffffffffffffff16815260200190815260200160002060008373ffffffffffffffffffffffffffffffffffffffff1673ffffffffffffffffffffffffffffffffffffffff16815260200190815260200160002054905092915050565b600033905090565b600073ffffffffffffffffffffffffffffffffffffffff168373ffffffffffffffffffffffffffffffffffffffff1603610696576040517f08c379a000000000000000000000000000000000000000000000000000000000815260040161068d90611347565b60405180910390fd5b600073ffffffffffffffffffffffffffffffffffffffff168273ffffffffffffffffffffffffffffffffffffffff1603610705576040517f08c379a00000000000000000000000000000000000000000000000000000000081526004016106fc906113d9565b60405180910390fd5b80600160008573ffffffffffffffffffffffffffffffffffffffff1673ffffffffffffffffffffffffffffffffffffffff16815260200190815260200160002060008473ffffffffffffffffffffffffffffffffffffffff1673ffffffffffffffffffffffffffffffffffffffff168152602001908152602001600020819055508173ffffffffffffffffffffffffffffffffffffffff168373ffffffffffffffffffffffffffffffffffffffff167f8c5be1e5ebec7d5bd14f71427d1e84f3dd0314c0f7b2291e5b200ac8c7c3b925836040516107e39190610e31565b60405180910390a3505050565b60006107fc8484610598565b90507fffffffffffffffffffffffffffffffffffffffffffffffffffffffffffffffff81146108765781811015610868576040517f08c379a000000000000000000000000000000000000000000000000000000000815260040161085f90611445565b60405180910390fd5b6108758484848403610627565b5b50505050565b600073ffffffffffffffffffffffffffffffffffffffff168373ffffffffffffffffffffffffffffffffffffffff16036108eb576040517f08c379a00000000000000000000000000000000000000000000000000000000081526004016108e2906114d7565b60405180910390fd5b600073ffffffffffffffffffffffffffffffffffffffff168273ffffffffffffffffffffffffffffffffffffffff160361095a576040517f08c379a000000000000000000000000000000000000000000000000000000000815260040161095190611569565b60405180910390fd5b610965838383610c48565b60008060008573ffffffffffffffffffffffffffffffffffffffff1673ffffffffffffffffffffffffffffffffffffffff168152602001908152602001600020549050818110156109eb576040517f08c379a00000000000000000000000000000000000000000000000000000000081526004016109e2906115fb565b60405180910390fd5b8181036000808673ffffffffffffffffffffffffffffffffffffffff1673ffffffffffffffffffffffffffffffffffffffff16815260200190815260200160002081905550816000808573ffffffffffffffffffffffffffffffffffffffff1673ffffffffffffffffffffffffffffffffffffffff168152602001908152602001600020600082825401925050819055508273ffffffffffffffffffffffffffffffffffffffff168473ffffffffffffffffffffffffffffffffffffffff167fddf252ad1be2c89b69c2b068fc378daa952ba7f163c4a11628f55a4df523b3ef84604051610ad99190610e31565b60405180910390a3610aec848484610c4d565b50505050565b600073ffffffffffffffffffffffffffffffffffffffff168273ffffffffffffffffffffffffffffffffffffffff1603610b61576040517f08c379a0000000000000000000000000000000000000000000000000000000008152600401610b5890611667565b60405180910390fd5b610b6d60008383610c48565b8060026000828254610b7f9190611163565b92505081905550806000808473ffffffffffffffffffffffffffffffffffffffff1673ffffffffffffffffffffffffffffffffffffffff168152602001908152602001600020600082825401925050819055508173ffffffffffffffffffffffffffffffffffffffff16600073ffffffffffffffffffffffffffffffffffffffff167fddf252ad1be2c89b69c2b068fc378daa952ba7f163c4a11628f55a4df523b3ef83604051610c309190610e31565b60405180910390a3610c4460008383610c4d565b5050565b505050565b505050565b600081519050919050565b600082825260208201905092915050565b60005b83811015610c8c578082015181840152602081019050610c71565b60008484015250505050565b6000601f19601f8301169050919050565b6000610cb482610c52565b610cbe8185610c5d565b9350610cce818560208601610c6e565b610cd781610c98565b840191505092915050565b60006020820190508181036000830152610cfc8184610ca9565b905092915050565b6000604051905090565b600080fd5b600080fd5b600073ffffffffffffffffffffffffffffffffffffffff82169050919050565b6000610d4382610d18565b9050919050565b610d5381610d38565b8114610d5e57600080fd5b50565b600081359050610d7081610d4a565b92915050565b6000819050919050565b610d8981610d76565b8114610d9457600080fd5b50565b600081359050610da681610d80565b92915050565b60008060408385031215610dc357610dc2610d0e565b5b6000610dd185828601610d61565b9250506020610de285828601610d97565b9150509250929050565b60008115159050919050565b610e0181610dec565b82525050565b6000602082019050610e1c6000830184610df8565b92915050565b610e2b81610d76565b82525050565b6000602082019050610e466000830184610e22565b92915050565b600080600060608486031215610e6557610e64610d0e565b5b6000610e7386828701610d61565b9350506020610e8486828701610d61565b9250506040610e9586828701610d97565b9150509250925092565b600060ff82169050919050565b610eb581610e9f565b82525050565b6000602082019050610ed06000830184610eac565b92915050565b600060208284031215610eec57610eeb610d0e565b5b6000610efa84828501610d61565b91505092915050565b600080fd5b600080fd5b7f4e487b7100000000000000000000000000000000000000000000000000000000600052604160045260246000fd5b610f4582610c98565b810181811067ffffffffffffffff82111715610f6457610f63610f0d565b5b80604052505050565b6000610f77610d04565b9050610f838282610f3c565b919050565b600067ffffffffffffffff821115610fa357610fa2610f0d565b5b610fac82610c98565b9050602081019050919050565b82818337600083830152505050565b6000610fdb610fd684610f88565b610f6d565b905082815260208101848484011115610ff757610ff6610f08565b5b611002848285610fb9565b509392505050565b600082601f83011261101f5761101e610f03565b5b813561102f848260208601610fc8565b91505092915050565b6000806040838503121561104f5761104e610d0e565b5b600083013567ffffffffffffffff81111561106d5761106c610d13565b5b6110798582860161100a565b925050602061108a85828601610d61565b9150509250929050565b600080604083850312156110ab576110aa610d0e565b5b60006110b985828601610d61565b92505060206110ca85828601610d61565b9150509250929050565b7f4e487b7100000000000000000000000000000000000000000000000000000000600052602260045260246000fd5b6000600282049050600182168061111b57607f821691505b60208210810361112e5761112d6110d4565b5b50919050565b7f4e487b7100000000000000000000000000000000000000000000000000000000600052601160045260246000fd5b600061116e82610d76565b915061117983610d76565b925082820190508082111561119157611190611134565b5b92915050565b600081905092915050565b60006111ad82610c52565b6111b78185611197565b93506111c7818560208601610c6e565b80840191505092915050565b60008160601b9050919050565b60006111eb826111d3565b9050919050565b60006111fd826111e0565b9050919050565b61121561121082610d38565b6111f2565b82525050565b600061122782856111a2565b91506112338284611204565b6014820191508190509392505050565b7f45524332303a2064656372656173656420616c6c6f77616e63652062656c6f7760008201527f207a65726f000000000000000000000000000000000000000000000000000000602082015250565b600061129f602583610c5d565b91506112aa82611243565b604082019050919050565b600060208201905081810360008301526112ce81611292565b9050919050565b7f45524332303a20617070726f76652066726f6d20746865207a65726f2061646460008201527f7265737300000000000000000000000000000000000000000000000000000000602082015250565b6000611331602483610c5d565b915061133c826112d5565b604082019050919050565b6000602082019050818103600083015261136081611324565b9050919050565b7f45524332303a20617070726f766520746f20746865207a65726f20616464726560008201527f7373000000000000000000000000000000000000000000000000000000000000602082015250565b60006113c3602283610c5d565b91506113ce82611367565b604082019050919050565b600060208201905081810360008301526113f2816113b6565b9050919050565b7f45524332303a20696e73756666696369656e7420616c6c6f77616e6365000000600082015250565b600061142f601d83610c5d565b915061143a826113f9565b602082019050919050565b6000602082019050818103600083015261145e81611422565b9050919050565b7f45524332303a207472616e736665722066726f6d20746865207a65726f20616460008201527f6472657373000000000000000000000000000000000000000000000000000000602082015250565b60006114c1602583610c5d565b91506114cc82611465565b604082019050919050565b600060208201905081810360008301526114f0816114b4565b9050919050565b7f45524332303a207472616e7366657220746f20746865207a65726f206164647260008201527f6573730000000000000000000000000000000000000000000000000000000000602082015250565b6000611553602383610c5d565b915061155e826114f7565b604082019050919050565b6000602082019050818103600083015261158281611546565b9050919050565b7f45524332303a207472616e7366657220616d6f756e742065786365656473206260008201527f616c616e63650000000000000000000000000000000000000000000000000000602082015250565b60006115e5602683610c5d565b91506115f082611589565b604082019050919050565b60006020820190508181036000830152611614816115d8565b9050919050565b7f45524332303a206d696e7420746f20746865207a65726f206164647265737300600082015250565b6000611651601f83610c5d565b915061165c8261161b565b602082019050919050565b6000602082019050818103600083015261168081611644565b905091905056fea2646970667358221220ccd709d79e693347032d450fa097cf7d5b0cde9a3bf95ad3cd9a423e8d4f04c264736f6c63430008120033",
  "immutableReferences": {},
  "source": "// SPDX-License-Identifier: GPL-3.0\n\npragma solidity >=0.7.0 <0.9.0;\n\nimport \"@openzeppelin/contracts/token/ERC20/ERC20.sol\";\n//import \"https://github.com/OpenZeppelin/openzeppelin-contracts/blob/v4.4.0/contracts/token/ERC20/ERC20.sol\";\n\ncontract LandRecordToken is ERC20 {\n    constructor(string memory name, string memory symbol) ERC20(name, symbol) {\n        _mint(msg.sender, 100 * 10 ** decimals());\n    }\n\n    function createToken(string memory _ownerName, address _ownerAddress) public returns (uint) {\n        uint tokenId = uint(keccak256(abi.encodePacked(_ownerName, _ownerAddress)));\n        _mint(_ownerAddress, tokenId);\n        return tokenId;\n    }\n}\n",
  "sourcePath": "/home/shakil/Desktop/BLRM-Solidity/contracts/LandRecordToken.sol",
  "compiler": {
    "name": "solc",
    "version": "0.8.18+commit.87f61d96.Emscripten.clang"
  },
  "schemaVersion": "3.4.13",
  "updatedAt": "2023-05-17T04:33:55.335Z",
  "devdoc": {
    "events": {
      "Approval(address,address,uint256)": {
        "details": "Emitted when the allowance of a `spender` for an `owner` is set by a call to {approve}. `value` is the new allowance."
      },
      "Transfer(address,address,uint256)": {
        "details": "Emitted when `value` tokens are moved from one account (`from`) to another (`to`). Note that `value` may be zero."
      }
    },
    "kind": "dev",
    "methods": {
      "allowance(address,address)": {
        "details": "See {IERC20-allowance}."
      },
      "approve(address,uint256)": {
        "details": "See {IERC20-approve}. NOTE: If `amount` is the maximum `uint256`, the allowance is not updated on `transferFrom`. This is semantically equivalent to an infinite approval. Requirements: - `spender` cannot be the zero address."
      },
      "balanceOf(address)": {
        "details": "See {IERC20-balanceOf}."
      },
      "decimals()": {
        "details": "Returns the number of decimals used to get its user representation. For example, if `decimals` equals `2`, a balance of `505` tokens should be displayed to a user as `5.05` (`505 / 10 ** 2`). Tokens usually opt for a value of 18, imitating the relationship between Ether and Wei. This is the value {ERC20} uses, unless this function is overridden; NOTE: This information is only used for _display_ purposes: it in no way affects any of the arithmetic of the contract, including {IERC20-balanceOf} and {IERC20-transfer}."
      },
      "decreaseAllowance(address,uint256)": {
        "details": "Atomically decreases the allowance granted to `spender` by the caller. This is an alternative to {approve} that can be used as a mitigation for problems described in {IERC20-approve}. Emits an {Approval} event indicating the updated allowance. Requirements: - `spender` cannot be the zero address. - `spender` must have allowance for the caller of at least `subtractedValue`."
      },
      "increaseAllowance(address,uint256)": {
        "details": "Atomically increases the allowance granted to `spender` by the caller. This is an alternative to {approve} that can be used as a mitigation for problems described in {IERC20-approve}. Emits an {Approval} event indicating the updated allowance. Requirements: - `spender` cannot be the zero address."
      },
      "name()": {
        "details": "Returns the name of the token."
      },
      "symbol()": {
        "details": "Returns the symbol of the token, usually a shorter version of the name."
      },
      "totalSupply()": {
        "details": "See {IERC20-totalSupply}."
      },
      "transfer(address,uint256)": {
        "details": "See {IERC20-transfer}. Requirements: - `to` cannot be the zero address. - the caller must have a balance of at least `amount`."
      },
      "transferFrom(address,address,uint256)": {
        "details": "See {IERC20-transferFrom}. Emits an {Approval} event indicating the updated allowance. This is not required by the EIP. See the note at the beginning of {ERC20}. NOTE: Does not update the allowance if the current allowance is the maximum `uint256`. Requirements: - `from` and `to` cannot be the zero address. - `from` must have a balance of at least `amount`. - the caller must have allowance for ``from``'s tokens of at least `amount`."
      }
    },
    "version": 1
  },
  "userdoc": {
    "kind": "user",
    "methods": {},
    "version": 1
  }
}