{
  "contractName": "landRegistration",
  "abi": [
    {
      "inputs": [],
      "payable": false,
      "stateMutability": "nonpayable",
      "type": "constructor"
    },
    {
      "anonymous": false,
      "inputs": [
        {
          "indexed": false,
          "name": "plotHash",
          "type": "bytes32"
        }
      ],
      "name": "creationOfplot",
      "type": "event"
    },
    {
      "anonymous": false,
      "inputs": [
        {
          "indexed": false,
          "name": "nid",
          "type": "uint256"
        }
      ],
      "name": "creationOfUser",
      "type": "event"
    },
    {
      "anonymous": false,
      "inputs": [
        {
          "indexed": false,
          "name": "khatianHash",
          "type": "bytes32"
        }
      ],
      "name": "creationOfKhatian",
      "type": "event"
    },
    {
      "constant": false,
      "inputs": [
        {
          "name": "_khatianiId",
          "type": "uint64"
        },
        {
          "name": "_plotHash",
          "type": "bytes32"
        },
        {
          "name": "_percentOwn",
          "type": "uint16"
        },
        {
          "name": "_user",
          "type": "uint256[]"
        },
        {
          "name": "_percentage",
          "type": "uint16[]"
        }
      ],
      "name": "addKhatianNew",
      "outputs": [],
      "payable": false,
      "stateMutability": "nonpayable",
      "type": "function"
    },
    {
      "constant": false,
      "inputs": [
        {
          "name": "_khatianiId",
          "type": "uint64"
        },
        {
          "name": "_plotHash",
          "type": "bytes32"
        },
        {
          "name": "_percentOwn",
          "type": "uint16"
        },
        {
          "name": "_buyFrom",
          "type": "bytes32"
        },
        {
          "name": "_user",
          "type": "uint256[]"
        },
        {
          "name": "_percentage",
          "type": "uint16[]"
        }
      ],
      "name": "addKhatianFromOld",
      "outputs": [],
      "payable": false,
      "stateMutability": "nonpayable",
      "type": "function"
    },
    {
      "constant": false,
      "inputs": [
        {
          "name": "_uid",
          "type": "uint256"
        },
        {
          "name": "_khatianHash",
          "type": "bytes32"
        }
      ],
      "name": "addUserOwned",
      "outputs": [],
      "payable": false,
      "stateMutability": "nonpayable",
      "type": "function"
    },
    {
      "constant": true,
      "inputs": [],
      "name": "getKhatianArrayLen",
      "outputs": [
        {
          "name": "len",
          "type": "uint256"
        }
      ],
      "payable": false,
      "stateMutability": "view",
      "type": "function"
    },
    {
      "constant": true,
      "inputs": [
        {
          "name": "id",
          "type": "uint256"
        }
      ],
      "name": "getKhatianHasById",
      "outputs": [
        {
          "name": "khatianHash",
          "type": "bytes32"
        }
      ],
      "payable": false,
      "stateMutability": "view",
      "type": "function"
    },
    {
      "constant": true,
      "inputs": [
        {
          "name": "khatianHash",
          "type": "bytes32"
        }
      ],
      "name": "getKhatianByHash",
      "outputs": [
        {
          "name": "khatianiId",
          "type": "uint64"
        },
        {
          "name": "plotHash",
          "type": "bytes32"
        },
        {
          "name": "percentOwn",
          "type": "uint16"
        },
        {
          "name": "buyFrom",
          "type": "bytes32"
        },
        {
          "name": "sellTo",
          "type": "bytes32[]"
        },
        {
          "name": "sellPercentage",
          "type": "uint16[]"
        },
        {
          "name": "ownerArray",
          "type": "uint256[]"
        },
        {
          "name": "perOwnerPercentage",
          "type": "uint16[]"
        }
      ],
      "payable": false,
      "stateMutability": "view",
      "type": "function"
    },
    {
      "constant": false,
      "inputs": [
        {
          "name": "_division",
          "type": "string"
        },
        {
          "name": "_district",
          "type": "string"
        },
        {
          "name": "_thana",
          "type": "string"
        },
        {
          "name": "_JLNo",
          "type": "uint16"
        },
        {
          "name": "_plotNo",
          "type": "uint16"
        },
        {
          "name": "_plotType",
          "type": "uint8"
        },
        {
          "name": "_plotArea",
          "type": "uint32"
        }
      ],
      "name": "addPlot",
      "outputs": [],
      "payable": false,
      "stateMutability": "nonpayable",
      "type": "function"
    },
    {
      "constant": true,
      "inputs": [],
      "name": "getPlotArrayLen",
      "outputs": [
        {
          "name": "len",
          "type": "uint256"
        }
      ],
      "payable": false,
      "stateMutability": "view",
      "type": "function"
    },
    {
      "constant": true,
      "inputs": [
        {
          "name": "id",
          "type": "uint256"
        }
      ],
      "name": "getPlotHashById",
      "outputs": [
        {
          "name": "plotHash",
          "type": "bytes32"
        }
      ],
      "payable": false,
      "stateMutability": "view",
      "type": "function"
    },
    {
      "constant": true,
      "inputs": [
        {
          "name": "plotHash",
          "type": "bytes32"
        }
      ],
      "name": "getPlotByHash",
      "outputs": [
        {
          "name": "division",
          "type": "bytes32"
        },
        {
          "name": "district",
          "type": "bytes32"
        },
        {
          "name": "thana",
          "type": "bytes32"
        },
        {
          "name": "JLNo",
          "type": "uint16"
        },
        {
          "name": "plotNo",
          "type": "uint16"
        },
        {
          "name": "plotType",
          "type": "uint8"
        },
        {
          "name": "plotArea",
          "type": "uint32"
        }
      ],
      "payable": false,
      "stateMutability": "view",
      "type": "function"
    },
    {
      "constant": false,
      "inputs": [
        {
          "name": "_fullName",
          "type": "string"
        },
        {
          "name": "_fatheName",
          "type": "string"
        },
        {
          "name": "_district",
          "type": "string"
        },
        {
          "name": "_thana",
          "type": "string"
        },
        {
          "name": "_postCode",
          "type": "uint24"
        },
        {
          "name": "_village",
          "type": "string"
        },
        {
          "name": "_nid",
          "type": "uint256"
        }
      ],
      "name": "creatNewUser",
      "outputs": [],
      "payable": false,
      "stateMutability": "nonpayable",
      "type": "function"
    },
    {
      "constant": true,
      "inputs": [],
      "name": "getUserArrayLen",
      "outputs": [
        {
          "name": "len",
          "type": "uint256"
        }
      ],
      "payable": false,
      "stateMutability": "view",
      "type": "function"
    },
    {
      "constant": true,
      "inputs": [
        {
          "name": "id",
          "type": "uint256"
        }
      ],
      "name": "getUserIdById",
      "outputs": [
        {
          "name": "UserId",
          "type": "uint256"
        }
      ],
      "payable": false,
      "stateMutability": "view",
      "type": "function"
    },
    {
      "constant": true,
      "inputs": [
        {
          "name": "_nid",
          "type": "uint256"
        }
      ],
      "name": "getUserByNid",
      "outputs": [
        {
          "name": "fullName",
          "type": "bytes32"
        },
        {
          "name": "fatheName",
          "type": "bytes32"
        },
        {
          "name": "district",
          "type": "bytes32"
        },
        {
          "name": "thana",
          "type": "bytes32"
        },
        {
          "name": "postCode",
          "type": "uint24"
        },
        {
          "name": "village",
          "type": "bytes32"
        }
      ],
      "payable": false,
      "stateMutability": "view",
      "type": "function"
    },
    {
      "constant": true,
      "inputs": [
        {
          "name": "_uid",
          "type": "uint256"
        }
      ],
      "name": "getUserOwnedByUid",
      "outputs": [
        {
          "name": "number",
          "type": "uint256"
        },
        {
          "name": "khatianList",
          "type": "bytes32[]"
        }
      ],
      "payable": false,
      "stateMutability": "view",
      "type": "function"
    }
  ],
  "bytecode": "0x608060405234801561001057600080fd5b5033600760006101000a81548173ffffffffffffffffffffffffffffffffffffffff021916908373ffffffffffffffffffffffffffffffffffffffff160217905550612deb806100616000396000f3006080604052600436106100db576000357c0100000000000000000000000000000000000000000000000000000000900463ffffffff1680630c6f421e146100e05780630d590f3e146101c7578063209a731c146101f257806343308949146103205780635cb99c03146103b657806361b694781461055c57806364a66dc314610635578063688f86fa146106be5780636d8c5df1146106f95780638c8570981461073a57806395d5712c14610783578063bd3635251461082c578063ebde420714610857578063effdc6f8146109f1578063f87b771a14610a3a575b600080fd5b3480156100ec57600080fd5b506101c5600480360381019080803567ffffffffffffffff1690602001909291908035600019169060200190929190803561ffff16906020019092919080356000191690602001909291908035906020019082018035906020019080806020026020016040519081016040528093929190818152602001838360200280828437820191505050505050919291929080359060200190820180359060200190808060200260200160405190810160405280939291908181526020018383602002808284378201915050505050509192919290505050610a65565b005b3480156101d357600080fd5b506101dc611282565b6040518082815260200191505060405180910390f35b3480156101fe57600080fd5b5061031e600480360381019080803590602001908201803590602001908080601f0160208091040260200160405190810160405280939291908181526020018383808284378201915050505050509192919290803590602001908201803590602001908080601f0160208091040260200160405190810160405280939291908181526020018383808284378201915050505050509192919290803590602001908201803590602001908080601f0160208091040260200160405190810160405280939291908181526020018383808284378201915050505050509192919290803561ffff169060200190929190803561ffff169060200190929190803560ff169060200190929190803563ffffffff16906020019092919050505061128f565b005b34801561032c57600080fd5b5061034b60048036038101908080359060200190929190505050611821565b6040518087600019166000191681526020018660001916600019168152602001856000191660001916815260200184600019166000191681526020018362ffffff1662ffffff1681526020018260001916600019168152602001965050505050505060405180910390f35b3480156103c257600080fd5b506103e56004803603810190808035600019169060200190929190505050611977565b604051808967ffffffffffffffff1667ffffffffffffffff16815260200188600019166000191681526020018761ffff1661ffff168152602001866000191660001916815260200180602001806020018060200180602001858103855289818151815260200191508051906020019060200280838360005b8381101561047857808201518184015260208101905061045d565b50505050905001858103845288818151815260200191508051906020019060200280838360005b838110156104ba57808201518184015260208101905061049f565b50505050905001858103835287818151815260200191508051906020019060200280838360005b838110156104fc5780820151818401526020810190506104e1565b50505050905001858103825286818151815260200191508051906020019060200280838360005b8381101561053e578082015181840152602081019050610523565b505050509050019c5050505050505050505050505060405180910390f35b34801561056857600080fd5b50610633600480360381019080803567ffffffffffffffff1690602001909291908035600019169060200190929190803561ffff1690602001909291908035906020019082018035906020019080806020026020016040519081016040528093929190818152602001838360200280828437820191505050505050919291929080359060200190820180359060200190808060200260200160405190810160405280939291908181526020018383602002808284378201915050505050509192919290505050611ceb565b005b34801561064157600080fd5b5061066060048036038101908080359060200190929190505050612291565b6040518083815260200180602001828103825283818151815260200191508051906020019060200280838360005b838110156106a957808201518184015260208101905061068e565b50505050905001935050505060405180910390f35b3480156106ca57600080fd5b506106f760048036038101908080359060200190929190803560001916906020019092919050505061231c565b005b34801561070557600080fd5b506107246004803603810190808035906020019092919050505061238a565b6040518082815260200191505060405180910390f35b34801561074657600080fd5b50610765600480360381019080803590602001909291905050506123ad565b60405180826000191660001916815260200191505060405180910390f35b34801561078f57600080fd5b506107b260048036038101908080356000191690602001909291905050506123d0565b604051808860001916600019168152602001876000191660001916815260200186600019166000191681526020018561ffff1661ffff1681526020018461ffff1661ffff1681526020018360ff1660ff1681526020018263ffffffff1663ffffffff16815260200197505050505050505060405180910390f35b34801561083857600080fd5b506108416125ad565b6040518082815260200191505060405180910390f35b34801561086357600080fd5b506109ef600480360381019080803590602001908201803590602001908080601f0160208091040260200160405190810160405280939291908181526020018383808284378201915050505050509192919290803590602001908201803590602001908080601f0160208091040260200160405190810160405280939291908181526020018383808284378201915050505050509192919290803590602001908201803590602001908080601f0160208091040260200160405190810160405280939291908181526020018383808284378201915050505050509192919290803590602001908201803590602001908080601f0160208091040260200160405190810160405280939291908181526020018383808284378201915050505050509192919290803562ffffff169060200190929190803590602001908201803590602001908080601f0160208091040260200160405190810160405280939291908181526020018383808284378201915050505050509192919290803590602001909291905050506125ba565b005b3480156109fd57600080fd5b50610a1c600480360381019080803590602001909291905050506128e5565b60405180826000191660001916815260200191505060405180910390f35b348015610a4657600080fd5b50610a4f612908565b6040518082815260200191505060405180910390f35b6000806000600760009054906101000a900473ffffffffffffffffffffffffffffffffffffffff1673ffffffffffffffffffffffffffffffffffffffff163373ffffffffffffffffffffffffffffffffffffffff16141515610b2f576040517f08c379a00000000000000000000000000000000000000000000000000000000081526004018080602001828103825260188152602001807f53656e646572206973206e6f7420617574686f72697a6564000000000000000081525060200191505060405180910390fd5b60011515600360008a6000191660001916815260200190815260200160002060030160099054906101000a900460ff161515141515610bd6576040517f08c379a00000000000000000000000000000000000000000000000000000000081526004018080602001828103825260128152602001807f506c6f7420646f65736e2774206578697374000000000000000000000000000081525060200191505060405180910390fd5b8888604051602001808367ffffffffffffffff1667ffffffffffffffff1678010000000000000000000000000000000000000000000000000281526008018260001916600019168152602001925050506040516020818303038152906040526040518082805190602001908083835b602083101515610c6a5780518252602082019150602081019050602083039250610c45565b6001836020036101000a038019825116818451168082178552505050505050905001915050604051809103902092506001151560056000856000191660001916815260200190815260200160002060080160009054906101000a900460ff16151514151515610d41576040517f08c379a00000000000000000000000000000000000000000000000000000000081526004018080602001828103825260168152602001807f4b68617469616e20616c7265616479206578697374730000000000000000000081525060200191505060405180910390fd5b60056000876000191660001916815260200190815260200160002060080160009054906101000a900460ff161515610de1576040517f08c379a000000000000000000000000000000000000000000000000000000000815260040180806020018281038252601e8152602001807f70726576696f7573204b68617469616e20646f65736e2774206578697374000081525060200191505060405180910390fd5b8661ffff1660056000886000191660001916815260200190815260200160002060020160009054906101000a900461ffff1661ffff1610151515610e8d576040517f08c379a00000000000000000000000000000000000000000000000000000000081526004018080602001828103825260178152602001807f4e6f7420656e6f756768206c616e6420746f2073656c6c00000000000000000081525060200191505060405180910390fd5b600091505b8451821015610f5e5760011515600160008785815181101515610eb157fe5b90602001906020020151815260200190815260200160002060060160009054906101000a900460ff161515141515610f51576040517f08c379a00000000000000000000000000000000000000000000000000000000081526004018080602001828103825260188152602001807f557365722773204e494420646f65736e2774206578697374000000000000000081525060200191505060405180910390fd5b8180600101925050610e92565b60056000876000191660001916815260200190815260200160002060040183908060018154018082558091505090600182039060005260206000200160009091929091909150906000191690555060056000876000191660001916815260200190815260200160002060050187908060018154018082558091505090600182039060005260206000209060109182820401919006600202909192909190916101000a81548161ffff021916908361ffff160217905550508660056000886000191660001916815260200190815260200160002060020160008282829054906101000a900461ffff160392506101000a81548161ffff021916908361ffff1602179055508560056000856000191660001916815260200190815260200160002060030181600019169055508860056000856000191660001916815260200190815260200160002060000160006101000a81548167ffffffffffffffff021916908367ffffffffffffffff1602179055508760056000856000191660001916815260200190815260200160002060010181600019169055508660056000856000191660001916815260200190815260200160002060020160006101000a81548161ffff021916908361ffff160217905550600160056000856000191660001916815260200190815260200160002060080160006101000a81548160ff021916908315150217905550836005600085600019166000191681526020019081526020016000206007019080519060200190611196929190612c72565b508460056000856000191660001916815260200190815260200160002060060190805190602001906111c9929190612d1c565b50600090505b8451811015611206576111f985828151811015156111e957fe5b906020019060200201518461231c565b80806001019150506111cf565b60068390806001815401808255809150509060018203906000526020600020016000909192909190915090600019169055507f1235df36d9864c1784ca3d5ad4397d04e3980ecf0ff7a703258c3fb6d4abf8ad8360405180826000191660001916815260200191505060405180910390a1505050505050505050565b6000600480549050905090565b6000600760009054906101000a900473ffffffffffffffffffffffffffffffffffffffff1673ffffffffffffffffffffffffffffffffffffffff163373ffffffffffffffffffffffffffffffffffffffff16141515611356576040517f08c379a00000000000000000000000000000000000000000000000000000000081526004018080602001828103825260168152602001807f596f7520617265206e6f7420617574686f72697a65640000000000000000000081525060200191505060405180910390fd5b61135f88612915565b975061136a87612915565b965061137586612915565b955087878787876040516020018086805190602001908083835b6020831015156113b4578051825260208201915060208101905060208303925061138f565b6001836020036101000a03801982511681845116808217855250505050505090500185805190602001908083835b60208310151561140757805182526020820191506020810190506020830392506113e2565b6001836020036101000a03801982511681845116808217855250505050505090500184805190602001908083835b60208310151561145a5780518252602082019150602081019050602083039250611435565b6001836020036101000a0380198251168184511680821785525050505050509050018361ffff1661ffff167e010000000000000000000000000000000000000000000000000000000000000281526002018261ffff1661ffff167e01000000000000000000000000000000000000000000000000000000000000028152600201955050505050506040516020818303038152906040526040518082805190602001908083835b6020831015156115255780518252602082019150602081019050602083039250611500565b6001836020036101000a038019825116818451168082178552505050505050905001915050604051809103902090506001151560036000836000191660001916815260200190815260200160002060030160099054906101000a900460ff161515141515156115fc576040517f08c379a00000000000000000000000000000000000000000000000000000000081526004018080602001828103825260138152602001807f506c6f7420616c7265616479206578736974730000000000000000000000000081525060200191505060405180910390fd5b61160588612c47565b600360008360001916600019168152602001908152602001600020600001816000191690555061163487612c47565b600360008360001916600019168152602001908152602001600020600101816000191690555061166386612c47565b60036000836000191660001916815260200190815260200160002060020181600019169055508460036000836000191660001916815260200190815260200160002060030160006101000a81548161ffff021916908361ffff1602179055508360036000836000191660001916815260200190815260200160002060030160026101000a81548161ffff021916908361ffff1602179055508260036000836000191660001916815260200190815260200160002060030160046101000a81548160ff021916908360ff1602179055508160036000836000191660001916815260200190815260200160002060030160056101000a81548163ffffffff021916908363ffffffff160217905550600160036000836000191660001916815260200190815260200160002060030160096101000a81548160ff02191690831515021790555060048190806001815401808255809150509060018203906000526020600020016000909192909190915090600019169055507fc5d3bd04a5b7305cd8edf1efc2070b49098f7e9ee3e642280285add33aa0b7828160405180826000191660001916815260200191505060405180910390a15050505050505050565b600080600080600080600115156001600089815260200190815260200160002060060160009054906101000a900460ff1615151415156118c9576040517f08c379a00000000000000000000000000000000000000000000000000000000081526004018080602001828103825260128152602001807f5573657220446f65736e2774206578697374000000000000000000000000000081525060200191505060405180910390fd5b600160008881526020019081526020016000206000015495506001600088815260200190815260200160002060010154945060016000888152602001908152602001600020600201549350600160008881526020019081526020016000206003015492506001600088815260200190815260200160002060040160009054906101000a900462ffffff1691506001600088815260200190815260200160002060050154905091939550919395565b60008060008060608060608060011515600560008b6000191660001916815260200190815260200160002060080160009054906101000a900460ff161515141515611a2a576040517f08c379a00000000000000000000000000000000000000000000000000000000081526004018080602001828103825260158152602001807f4b68617469616e20646f65736e2774206578697374000000000000000000000081525060200191505060405180910390fd5b600560008a6000191660001916815260200190815260200160002060000160009054906101000a900467ffffffffffffffff169750600560008a60001916600019168152602001908152602001600020600101549650600560008a6000191660001916815260200190815260200160002060020160009054906101000a900461ffff169550600560008a60001916600019168152602001908152602001600020600301549450600560008a60001916600019168152602001908152602001600020600401805480602002602001604051908101604052809291908181526020018280548015611b3c57602002820191906000526020600020905b81546000191681526020019060010190808311611b24575b50505050509350600560008a60001916600019168152602001908152602001600020600501805480602002602001604051908101604052809291908181526020018280548015611bd357602002820191906000526020600020906000905b82829054906101000a900461ffff1661ffff1681526020019060020190602082600101049283019260010382029150808411611b9a5790505b50505050509250600560008a60001916600019168152602001908152602001600020600601805480602002602001604051908101604052809291908181526020018280548015611c4257602002820191906000526020600020905b815481526020019060010190808311611c2e575b50505050509150600560008a60001916600019168152602001908152602001600020600701805480602002602001604051908101604052809291908181526020018280548015611cd957602002820191906000526020600020906000905b82829054906101000a900461ffff1661ffff1681526020019060020190602082600101049283019260010382029150808411611ca05790505b50505050509050919395975091939597565b6000806000600760009054906101000a900473ffffffffffffffffffffffffffffffffffffffff1673ffffffffffffffffffffffffffffffffffffffff163373ffffffffffffffffffffffffffffffffffffffff16141515611db5576040517f08c379a00000000000000000000000000000000000000000000000000000000081526004018080602001828103825260188152602001807f53656e646572206973206e6f7420617574686f72697a6564000000000000000081525060200191505060405180910390fd5b6001151560036000896000191660001916815260200190815260200160002060030160099054906101000a900460ff161515141515611e5c576040517f08c379a00000000000000000000000000000000000000000000000000000000081526004018080602001828103825260128152602001807f506c6f7420646f65736e2774206578697374000000000000000000000000000081525060200191505060405180910390fd5b8787604051602001808367ffffffffffffffff1667ffffffffffffffff1678010000000000000000000000000000000000000000000000000281526008018260001916600019168152602001925050506040516020818303038152906040526040518082805190602001908083835b602083101515611ef05780518252602082019150602081019050602083039250611ecb565b6001836020036101000a038019825116818451168082178552505050505050905001915050604051809103902092506001151560056000856000191660001916815260200190815260200160002060080160009054906101000a900460ff16151514151515611fc7576040517f08c379a00000000000000000000000000000000000000000000000000000000081526004018080602001828103825260168152602001807f4b68617469616e20616c7265616479206578697374730000000000000000000081525060200191505060405180910390fd5b600091505b84518210156120985760011515600160008785815181101515611feb57fe5b90602001906020020151815260200190815260200160002060060160009054906101000a900460ff16151514151561208b576040517f08c379a00000000000000000000000000000000000000000000000000000000081526004018080602001828103825260188152602001807f557365722773204e494420646f65736e2774206578697374000000000000000081525060200191505060405180910390fd5b8180600101925050611fcc565b8760056000856000191660001916815260200190815260200160002060000160006101000a81548167ffffffffffffffff021916908367ffffffffffffffff1602179055508660056000856000191660001916815260200190815260200160002060010181600019169055508560056000856000191660001916815260200190815260200160002060020160006101000a81548161ffff021916908361ffff160217905550600160056000856000191660001916815260200190815260200160002060080160006101000a81548160ff0219169083151502179055508360056000856000191660001916815260200190815260200160002060070190805190602001906121a6929190612c72565b508460056000856000191660001916815260200190815260200160002060060190805190602001906121d9929190612d1c565b50600090505b84518110156122165761220985828151811015156121f957fe5b906020019060200201518461231c565b80806001019150506121df565b60068390806001815401808255809150509060018203906000526020600020016000909192909190915090600019169055507f1235df36d9864c1784ca3d5ad4397d04e3980ecf0ff7a703258c3fb6d4abf8ad8360405180826000191660001916815260200191505060405180910390a15050505050505050565b6000606060008084815260200190815260200160002060000154915060008084815260200190815260200160002060010180548060200260200160405190810160405280929190818152602001828054801561231057602002820191906000526020600020905b815460001916815260200190600101908083116122f8575b50505050509050915091565b600080838152602001908152602001600020600001600081548092919060010191905055506000808381526020019081526020016000206001018190806001815401808255809150509060018203906000526020600020016000909192909190915090600019169055505050565b600060028281548110151561239b57fe5b90600052602060002001549050919050565b60006006828154811015156123be57fe5b90600052602060002001549050919050565b600080600080600080600060011515600360008a6000191660001916815260200190815260200160002060030160099054906101000a900460ff161515141515612482576040517f08c379a00000000000000000000000000000000000000000000000000000000081526004018080602001828103825260128152602001807f506c6f7420646f65736e2774206578697374000000000000000000000000000081525060200191505060405180910390fd5b60036000896000191660001916815260200190815260200160002060000154965060036000896000191660001916815260200190815260200160002060010154955060036000896000191660001916815260200190815260200160002060020154945060036000896000191660001916815260200190815260200160002060030160009054906101000a900461ffff16935060036000896000191660001916815260200190815260200160002060030160029054906101000a900461ffff16925060036000896000191660001916815260200190815260200160002060030160049054906101000a900460ff16915060036000896000191660001916815260200190815260200160002060030160059054906101000a900463ffffffff169050919395979092949650565b6000600680549050905090565b600760009054906101000a900473ffffffffffffffffffffffffffffffffffffffff1673ffffffffffffffffffffffffffffffffffffffff163373ffffffffffffffffffffffffffffffffffffffff1614151561267f576040517f08c379a00000000000000000000000000000000000000000000000000000000081526004018080602001828103825260168152602001807f596f7520617265206e6f7420617574686f72697a65640000000000000000000081525060200191505060405180910390fd5b61268887612915565b965061269386612915565b955061269e85612915565b94506126a984612915565b93506126b482612915565b9150600015156001600083815260200190815260200160002060060160009054906101000a900460ff161515141515612755576040517f08c379a00000000000000000000000000000000000000000000000000000000081526004018080602001828103825260128152602001807f5573657220616c7265616479206578697374000000000000000000000000000081525060200191505060405180910390fd5b61275e87612c47565b60016000838152602001908152602001600020600001816000191690555061278586612c47565b6001600083815260200190815260200160002060010181600019169055506127ac85612c47565b6001600083815260200190815260200160002060020181600019169055506127d384612c47565b600160008381526020019081526020016000206003018160001916905550826001600083815260200190815260200160002060040160006101000a81548162ffffff021916908362ffffff16021790555061282d82612c47565b600160008381526020019081526020016000206005018160001916905550600180600083815260200190815260200160002060060160006101000a81548160ff02191690831515021790555060028190806001815401808255809150509060018203906000526020600020016000909192909190915055507f535c24547b8a1cfa77510748c335f9ab25a87caebe01c8b706c21cc4585787db816040518082815260200191505060405180910390a150505050505050565b60006004828154811015156128f657fe5b90600052602060002001549050919050565b6000600280549050905090565b6060806060600084925082516040519080825280601f01601f1916602001820160405280156129535781602001602082028038833980820191505090505b509150600090505b8251811015612c3c5760617f010000000000000000000000000000000000000000000000000000000000000002838281518110151561299657fe5b9060200101517f010000000000000000000000000000000000000000000000000000000000000090047f0100000000000000000000000000000000000000000000000000000000000000027effffffffffffffffffffffffffffffffffffffffffffffffffffffffffffff191610158015612aae5750607a7f0100000000000000000000000000000000000000000000000000000000000000028382815181101515612a3e57fe5b9060200101517f010000000000000000000000000000000000000000000000000000000000000090047f0100000000000000000000000000000000000000000000000000000000000000027effffffffffffffffffffffffffffffffffffffffffffffffffffffffffffff191611155b15612b975760208382815181101515612ac357fe5b9060200101517f010000000000000000000000000000000000000000000000000000000000000090047f0100000000000000000000000000000000000000000000000000000000000000027f01000000000000000000000000000000000000000000000000000000000000009004037f0100000000000000000000000000000000000000000000000000000000000000028282815181101515612b6257fe5b9060200101907effffffffffffffffffffffffffffffffffffffffffffffffffffffffffffff1916908160001a905350612c2f565b8281815181101515612ba557fe5b9060200101517f010000000000000000000000000000000000000000000000000000000000000090047f0100000000000000000000000000000000000000000000000000000000000000028282815181101515612bfe57fe5b9060200101907effffffffffffffffffffffffffffffffffffffffffffffffffffffffffffff1916908160001a9053505b808060010191505061295b565b819350505050919050565b60006060829050600081511415612c645760006001029150612c6c565b602083015191505b50919050565b82805482825590600052602060002090600f01601090048101928215612d0b5791602002820160005b83821115612cdb57835183826101000a81548161ffff021916908361ffff1602179055509260200192600201602081600101049283019260010302612c9b565b8015612d095782816101000a81549061ffff0219169055600201602081600101049283019260010302612cdb565b505b509050612d189190612d69565b5090565b828054828255906000526020600020908101928215612d58579160200282015b82811115612d57578251825591602001919060010190612d3c565b5b509050612d659190612d9a565b5090565b612d9791905b80821115612d9357600081816101000a81549061ffff021916905550600101612d6f565b5090565b90565b612dbc91905b80821115612db8576000816000905550600101612da0565b5090565b905600a165627a7a7230582041d9455a2fd7e0f2455de4a9484ab816eb1e316ccb4501509cee5b31477d98630029",
  "source": "// SPDX-License-Identifier: GPL-3.0\n\npragma solidity ^0.4.25;\n\ncontract landRegistration {\n    \n    struct userDetail{\n        bytes32 fullName;\n        bytes32 fatheName;\n        bytes32 district;\n        bytes32 thana;\n        uint24 postCode;\n        bytes32 village;\n        bool isExist;\n    }\n    \n    struct userOwned{\n        uint number;\n        bytes32[] khatianList;\n    }\n    \n    struct khatian{\n        uint64 khatianiId;\n        bytes32 plotHash;\n        uint16 percentOwn;\n        bytes32 buyFrom;\n        bytes32[] sellTo;\n        uint16[] sellPercentage;\n        uint[] ownerArray;\n        uint16[] perOwnerPercentage;\n        bool isExist;\n    }\n    \n    struct plot{\n        bytes32 division;\n        bytes32 district;\n        bytes32 thana;\n        uint16 JLNo;\n        uint16 plotNo;\n        uint8 plotType;\n        uint32 plotArea;\n        bool isExist;\n    }\n    \n    mapping (uint => userOwned)  userOwnedMapping;\n    \n    mapping (uint => userDetail)  userMapping;\n    uint[]   userArray;\n    \n    mapping (bytes32 => plot)  plotMapping;\n    bytes32[]   plotArray;\n    \n    mapping (bytes32 => khatian)  khatianMapping;\n    bytes32[]   khatianArray;\n    \n    \n    address contarctOwner;\n    \n    event creationOfplot(bytes32 plotHash);\n    event creationOfUser(uint nid);\n    event creationOfKhatian(bytes32 khatianHash);\n    \n    constructor() public {\n        contarctOwner = msg.sender;\n    }\n    \n    function addKhatianNew(uint64 _khatianiId, bytes32 _plotHash, uint16 _percentOwn, uint[] _user, uint16[] _percentage) public{\n        require(msg.sender == contarctOwner, \"Sender is not authorized\");\n        require(plotMapping[_plotHash].isExist == true, \"Plot doesn't exist\");\n        bytes32 khatianHash = keccak256(abi.encodePacked(_khatianiId, _plotHash));\n        require(khatianMapping[khatianHash].isExist != true, \"Khatian already exists\");\n        for(uint j = 0; j< _user.length; j++){\n             require(userMapping[_user[j]].isExist == true, \"User's NID doesn't exist\");\n        }\n        \n        khatianMapping[khatianHash].khatianiId = _khatianiId;\n        khatianMapping[khatianHash].plotHash = _plotHash;\n        khatianMapping[khatianHash].percentOwn = _percentOwn;\n        khatianMapping[khatianHash].isExist = true;\n        khatianMapping[khatianHash].perOwnerPercentage = _percentage;\n        khatianMapping[khatianHash].ownerArray = _user;\n        \n        for(uint i = 0; i< _user.length; i++){\n            addUserOwned(_user[i], khatianHash);\n        }\n        \n        khatianArray.push(khatianHash);\n        emit creationOfKhatian(khatianHash);\n    }\n    \n    function addKhatianFromOld(uint64 _khatianiId, bytes32 _plotHash, uint16 _percentOwn, bytes32 _buyFrom, uint[] _user, uint16[] _percentage) public{\n        require(msg.sender == contarctOwner, \"Sender is not authorized\");\n        require(plotMapping[_plotHash].isExist == true, \"Plot doesn't exist\");\n        \n        bytes32 khatianHash = keccak256(abi.encodePacked(_khatianiId, _plotHash));\n        \n        require(khatianMapping[khatianHash].isExist != true, \"Khatian already exists\");\n        require(khatianMapping[_buyFrom].isExist, \"previous Khatian doesn't exist\");\n        require(khatianMapping[_buyFrom].percentOwn >= _percentOwn, \"Not enough land to sell\");\n        for(uint j = 0; j< _user.length; j++){\n             require(userMapping[_user[j]].isExist == true, \"User's NID doesn't exist\");\n        }\n        \n        khatianMapping[_buyFrom].sellTo.push(khatianHash);\n        khatianMapping[_buyFrom].sellPercentage.push(_percentOwn);\n        khatianMapping[_buyFrom].percentOwn  -= _percentOwn;\n        \n        khatianMapping[khatianHash].buyFrom = _buyFrom;\n        khatianMapping[khatianHash].khatianiId = _khatianiId;\n        khatianMapping[khatianHash].plotHash = _plotHash;\n        khatianMapping[khatianHash].percentOwn = _percentOwn;\n        khatianMapping[khatianHash].isExist = true;\n        khatianMapping[khatianHash].perOwnerPercentage = _percentage;\n        khatianMapping[khatianHash].ownerArray = _user;\n        \n        for(uint i = 0; i< _user.length; i++){\n            addUserOwned(_user[i], khatianHash);\n        }\n        \n        khatianArray.push(khatianHash);\n        \n        emit creationOfKhatian(khatianHash);\n    }\n    \n    function addUserOwned(uint _uid, bytes32 _khatianHash) public{\n        userOwnedMapping[_uid].number ++;\n        userOwnedMapping[_uid].khatianList.push(_khatianHash);\n    }\n    \n    function getKhatianArrayLen() public view returns(uint len){\n        return khatianArray.length;\n    }\n    \n    function getKhatianHasById(uint id) public view returns(bytes32 khatianHash){\n        return khatianArray[id];\n    }\n    \n    function getKhatianByHash(bytes32 khatianHash) public view returns(uint64 khatianiId, bytes32 plotHash, uint16 percentOwn, bytes32 buyFrom, bytes32[] sellTo, uint16[] sellPercentage, uint[] ownerArray, uint16[] perOwnerPercentage){\n        require(khatianMapping[khatianHash].isExist == true, \"Khatian doesn't exist\");\n        khatianiId = khatianMapping[khatianHash].khatianiId;\n        plotHash = khatianMapping[khatianHash].plotHash;\n        percentOwn = khatianMapping[khatianHash].percentOwn;\n        buyFrom = khatianMapping[khatianHash].buyFrom;\n        sellTo = khatianMapping[khatianHash].sellTo;\n        sellPercentage = khatianMapping[khatianHash].sellPercentage;\n        ownerArray = khatianMapping[khatianHash].ownerArray;\n        perOwnerPercentage = khatianMapping[khatianHash].perOwnerPercentage;\n        \n    }\n    \n    function addPlot(string _division, string _district, string _thana, uint16 _JLNo, uint16 _plotNo, uint8 _plotType, uint32 _plotArea) public{\n        require(msg.sender == contarctOwner, \"You are not authorized\");\n        _division = toUpper(_division);\n        _district = toUpper(_district);\n        _thana = toUpper(_thana);\n        bytes32 plotHash = keccak256(abi.encodePacked(_division, _district, _thana, _JLNo, _plotNo));\n        require(plotMapping[plotHash].isExist != true, \"Plot already exsits\");\n        plotMapping[plotHash].division = stringToBytes32(_division);\n        plotMapping[plotHash].district = stringToBytes32(_district);\n        plotMapping[plotHash].thana = stringToBytes32(_thana);\n        plotMapping[plotHash].JLNo = _JLNo;\n        plotMapping[plotHash].plotNo = _plotNo;\n        plotMapping[plotHash].plotType = _plotType;\n        plotMapping[plotHash].plotArea = _plotArea;\n        plotMapping[plotHash].isExist = true;\n        plotArray.push(plotHash);\n        emit creationOfplot(plotHash);\n    }\n    \n    \n    function getPlotArrayLen() public view returns(uint len){\n        return plotArray.length;\n    }\n    \n    function getPlotHashById(uint id) public view returns(bytes32 plotHash){\n        return plotArray[id];\n    }\n    \n    function getPlotByHash(bytes32 plotHash) public view returns(bytes32 division, bytes32 district, bytes32 thana, uint16 JLNo, uint16 plotNo, uint8 plotType, uint32 plotArea){\n        require(plotMapping[plotHash].isExist == true, \"Plot doesn't exist\");\n        division = plotMapping[plotHash].division;\n        district = plotMapping[plotHash].district;\n        thana = plotMapping[plotHash].thana;\n        JLNo = plotMapping[plotHash].JLNo;\n        plotNo = plotMapping[plotHash].plotNo;\n        plotType = plotMapping[plotHash].plotType;\n        plotArea = plotMapping[plotHash].plotArea;\n    }\n    \n    function creatNewUser(string _fullName, string _fatheName, string _district, string _thana, uint24 _postCode, string _village, uint _nid) public{\n        require(msg.sender == contarctOwner, \"You are not authorized\");\n        _fullName = toUpper(_fullName);\n        _fatheName = toUpper(_fatheName);\n        _district = toUpper(_district);\n        _thana = toUpper(_thana);\n        _village = toUpper(_village);\n        require(userMapping[_nid].isExist == false, \"User already exist\");\n        \n        userMapping[_nid].fullName = stringToBytes32(_fullName);\n        userMapping[_nid].fatheName = stringToBytes32(_fatheName);\n        userMapping[_nid].district = stringToBytes32(_district);\n        userMapping[_nid].thana = stringToBytes32(_thana);\n        userMapping[_nid].postCode = _postCode;\n        userMapping[_nid].village = stringToBytes32(_village);\n        userMapping[_nid].isExist = true;\n        \n        userArray.push(_nid);\n        emit creationOfUser(_nid);\n    }\n    \n    function getUserArrayLen() public view returns(uint len){\n        return userArray.length;\n    }\n    \n    function getUserIdById(uint id) public view returns(uint UserId){\n        return userArray[id];\n    }\n    \n    function getUserByNid(uint _nid) public view returns(bytes32 fullName, bytes32 fatheName, bytes32 district, bytes32 thana, uint24 postCode, bytes32 village){\n        require(userMapping[_nid].isExist == true, \"User Doesn't exist\");\n        fullName = userMapping[_nid].fullName;\n        fatheName = userMapping[_nid].fatheName;\n        district = userMapping[_nid].district;\n        thana = userMapping[_nid].thana;\n        postCode = userMapping[_nid].postCode;\n        village = userMapping[_nid].village;\n    }\n    \n    function getUserOwnedByUid(uint _uid) public view returns(uint number, bytes32[] khatianList){\n        number = userOwnedMapping[_uid].number;\n        khatianList =  userOwnedMapping[_uid].khatianList;\n    }\n    \n    function stringToBytes32(string memory source) internal pure returns (bytes32 result) {\n        bytes memory tempEmptyStringTest = bytes(source);\n        if (tempEmptyStringTest.length == 0) {\n            return 0x0;\n        }\n\n        assembly {\n            result := mload(add(source, 32))\n        }\n    }\n    \n    function toUpper(string str) internal pure returns (string) {\n\t\tbytes memory bStr = bytes(str);\n\t\tbytes memory bUpper = new bytes(bStr.length);\n\t\tfor (uint i = 0; i < bStr.length; i++) {\n\t\t\tif ((bStr[i] >= 97) && (bStr[i] <= 122)) {\n\t\t\t\tbUpper[i] = bytes1(int(bStr[i]) - 32);\n\t\t\t} else {\n\t\t\t\tbUpper[i] = bStr[i];\n\t\t\t}\n\t\t}\n\t\treturn string(bUpper);\n\t}\n}",
  "sourcePath": "/home/shakil/Desktop/BLRM-Solidity/contracts/LandRecordFactory.sol",
  "compiler": {
    "name": "solc",
    "version": "0.4.26+commit.4563c3fc.Emscripten.clang"
  },
  "schemaVersion": "3.4.13",
  "updatedAt": "2023-06-16T09:27:14.019Z",
  "devdoc": {
    "methods": {}
  },
  "userdoc": {
    "methods": {}
  }
}