{
  "contractName": "LandRecordFactory",
  "abi": [
    {
      "inputs": [],
      "stateMutability": "nonpayable",
      "type": "constructor"
    },
    {
      "inputs": [
        {
          "internalType": "uint256",
          "name": "",
          "type": "uint256"
        }
      ],
      "name": "deployedLandRecords",
      "outputs": [
        {
          "internalType": "address",
          "name": "",
          "type": "address"
        }
      ],
      "stateMutability": "view",
      "type": "function"
    },
    {
      "inputs": [],
      "name": "token",
      "outputs": [
        {
          "internalType": "contract LandRecordToken",
          "name": "",
          "type": "address"
        }
      ],
      "stateMutability": "view",
      "type": "function"
    },
    {
      "inputs": [
        {
          "internalType": "string",
          "name": "_ownerName",
          "type": "string"
        },
        {
          "internalType": "uint256",
          "name": "_area",
          "type": "uint256"
        },
        {
          "internalType": "address",
          "name": "_ownerAddress",
          "type": "address"
        }
      ],
      "name": "createLandRecord",
      "outputs": [],
      "stateMutability": "nonpayable",
      "type": "function"
    },
    {
      "inputs": [],
      "name": "getDeployedLandRecords",
      "outputs": [
        {
          "internalType": "address[]",
          "name": "",
          "type": "address[]"
        }
      ],
      "stateMutability": "view",
      "type": "function"
    }
  ],
  "bytecode": "0x608060405234801561001057600080fd5b5060405161001d90610088565b6100269061013f565b604051809103906000f080158015610042573d6000803e3d6000fd5b50600160006101000a81548173ffffffffffffffffffffffffffffffffffffffff021916908373ffffffffffffffffffffffffffffffffffffffff160217905550610172565b61215480620019dc83390190565b600082825260208201905092915050565b7f4c616e645265636f7264546f6b656e0000000000000000000000000000000000600082015250565b60006100dd600f83610096565b91506100e8826100a7565b602082019050919050565b7f4c52540000000000000000000000000000000000000000000000000000000000600082015250565b6000610129600383610096565b9150610134826100f3565b602082019050919050565b60006040820190508181036000830152610158816100d0565b9050818103602083015261016b8161011c565b9050919050565b61185a80620001826000396000f3fe608060405234801561001057600080fd5b506004361061004c5760003560e01c80633759e4d714610051578063d2a79e011461006d578063eb911e5b1461009d578063fc0c546a146100bb575b600080fd5b61006b600480360381019061006691906104f9565b6100d9565b005b61008760048036038101906100829190610568565b61020b565b60405161009491906105a4565b60405180910390f35b6100a561024a565b6040516100b2919061067d565b60405180910390f35b6100c36102d8565b6040516100d091906106fe565b60405180910390f35b6000600160009054906101000a900473ffffffffffffffffffffffffffffffffffffffff1660405161010a906102fe565b61011491906106fe565b604051809103906000f080158015610130573d6000803e3d6000fd5b5090508073ffffffffffffffffffffffffffffffffffffffff1663074046f08585856040518463ffffffff1660e01b8152600401610170939291906107a7565b600060405180830381600087803b15801561018a57600080fd5b505af115801561019e573d6000803e3d6000fd5b505050506000819080600181540180825580915050600190039060005260206000200160009091909190916101000a81548173ffffffffffffffffffffffffffffffffffffffff021916908373ffffffffffffffffffffffffffffffffffffffff16021790555050505050565b6000818154811061021b57600080fd5b906000526020600020016000915054906101000a900473ffffffffffffffffffffffffffffffffffffffff1681565b606060008054806020026020016040519081016040528092919081815260200182805480156102ce57602002820191906000526020600020905b8160009054906101000a900473ffffffffffffffffffffffffffffffffffffffff1673ffffffffffffffffffffffffffffffffffffffff1681526020019060010190808311610284575b5050505050905090565b600160009054906101000a900473ffffffffffffffffffffffffffffffffffffffff1681565b61103f806107e683390190565b6000604051905090565b600080fd5b600080fd5b600080fd5b600080fd5b6000601f19601f8301169050919050565b7f4e487b7100000000000000000000000000000000000000000000000000000000600052604160045260246000fd5b61037282610329565b810181811067ffffffffffffffff821117156103915761039061033a565b5b80604052505050565b60006103a461030b565b90506103b08282610369565b919050565b600067ffffffffffffffff8211156103d0576103cf61033a565b5b6103d982610329565b9050602081019050919050565b82818337600083830152505050565b6000610408610403846103b5565b61039a565b90508281526020810184848401111561042457610423610324565b5b61042f8482856103e6565b509392505050565b600082601f83011261044c5761044b61031f565b5b813561045c8482602086016103f5565b91505092915050565b6000819050919050565b61047881610465565b811461048357600080fd5b50565b6000813590506104958161046f565b92915050565b600073ffffffffffffffffffffffffffffffffffffffff82169050919050565b60006104c68261049b565b9050919050565b6104d6816104bb565b81146104e157600080fd5b50565b6000813590506104f3816104cd565b92915050565b60008060006060848603121561051257610511610315565b5b600084013567ffffffffffffffff8111156105305761052f61031a565b5b61053c86828701610437565b935050602061054d86828701610486565b925050604061055e868287016104e4565b9150509250925092565b60006020828403121561057e5761057d610315565b5b600061058c84828501610486565b91505092915050565b61059e816104bb565b82525050565b60006020820190506105b96000830184610595565b92915050565b600081519050919050565b600082825260208201905092915050565b6000819050602082019050919050565b6105f4816104bb565b82525050565b600061060683836105eb565b60208301905092915050565b6000602082019050919050565b600061062a826105bf565b61063481856105ca565b935061063f836105db565b8060005b8381101561067057815161065788826105fa565b975061066283610612565b925050600181019050610643565b5085935050505092915050565b60006020820190508181036000830152610697818461061f565b905092915050565b6000819050919050565b60006106c46106bf6106ba8461049b565b61069f565b61049b565b9050919050565b60006106d6826106a9565b9050919050565b60006106e8826106cb565b9050919050565b6106f8816106dd565b82525050565b600060208201905061071360008301846106ef565b92915050565b600081519050919050565b600082825260208201905092915050565b60005b83811015610753578082015181840152602081019050610738565b60008484015250505050565b600061076a82610719565b6107748185610724565b9350610784818560208601610735565b61078d81610329565b840191505092915050565b6107a181610465565b82525050565b600060608201905081810360008301526107c1818661075f565b90506107d06020830185610798565b6107dd6040830184610595565b94935050505056fe60806040523480156200001157600080fd5b506040516200103f3803806200103f8339818101604052810190620000379190620000fd565b80600360006101000a81548173ffffffffffffffffffffffffffffffffffffffff021916908373ffffffffffffffffffffffffffffffffffffffff160217905550506200012f565b600080fd5b600073ffffffffffffffffffffffffffffffffffffffff82169050919050565b6000620000b18262000084565b9050919050565b6000620000c582620000a4565b9050919050565b620000d781620000b8565b8114620000e357600080fd5b50565b600081519050620000f781620000cc565b92915050565b6000602082840312156200011657620001156200007f565b5b60006200012684828501620000e6565b91505092915050565b610f00806200013f6000396000f3fe608060405234801561001057600080fd5b50600436106100625760003560e01c8063074046f0146100675780633446106714610083578063552d7105146100b7578063900407bc146100e7578063b3d4e03314610105578063fc0c546a14610135575b600080fd5b610081600480360381019061007c919061074c565b610153565b005b61009d600480360381019061009891906107bb565b61038c565b6040516100ae959493929190610885565b60405180910390f35b6100d160048036038101906100cc91906108df565b61046a565b6040516100de91906109ca565b60405180910390f35b6100ef610501565b6040516100fc91906109ec565b60405180910390f35b61011f600480360381019061011a9190610a07565b610507565b60405161012c91906109ec565b60405180910390f35b61013d610538565b60405161014a9190610aa6565b60405180910390f35b60008081548092919061016590610af0565b91905055506000600360009054906101000a900473ffffffffffffffffffffffffffffffffffffffff1673ffffffffffffffffffffffffffffffffffffffff1663a211937785846040518363ffffffff1660e01b81526004016101c9929190610b38565b6020604051808303816000875af11580156101e8573d6000803e3d6000fd5b505050506040513d601f19601f8201168201806040525081019061020c9190610b7d565b90506040518060a0016040528060005481526020018581526020018481526020018373ffffffffffffffffffffffffffffffffffffffff1681526020018281525060016000805481526020019081526020016000206000820151816000015560208201518160010190816102809190610dac565b506040820151816002015560608201518160030160006101000a81548173ffffffffffffffffffffffffffffffffffffffff021916908373ffffffffffffffffffffffffffffffffffffffff16021790555060808201518160040155905050600260008373ffffffffffffffffffffffffffffffffffffffff1673ffffffffffffffffffffffffffffffffffffffff16815260200190815260200160002060005490806001815401808255809150506001900390600052602060002001600090919091909150557fac4189a1e8a05e52347eac46e21c0e3256c23c7bfca58ef576f2d88a40d0e0be60005485858560405161037e9493929190610e7e565b60405180910390a150505050565b60016020528060005260406000206000915090508060000154908060010180546103b590610bd9565b80601f01602080910402602001604051908101604052809291908181526020018280546103e190610bd9565b801561042e5780601f106104035761010080835404028352916020019161042e565b820191906000526020600020905b81548152906001019060200180831161041157829003601f168201915b5050505050908060020154908060030160009054906101000a900473ffffffffffffffffffffffffffffffffffffffff16908060040154905085565b6060600260008373ffffffffffffffffffffffffffffffffffffffff1673ffffffffffffffffffffffffffffffffffffffff1681526020019081526020016000208054806020026020016040519081016040528092919081815260200182805480156104f557602002820191906000526020600020905b8154815260200190600101908083116104e1575b50505050509050919050565b60005481565b6002602052816000526040600020818154811061052357600080fd5b90600052602060002001600091509150505481565b600360009054906101000a900473ffffffffffffffffffffffffffffffffffffffff1681565b6000604051905090565b600080fd5b600080fd5b600080fd5b600080fd5b6000601f19601f8301169050919050565b7f4e487b7100000000000000000000000000000000000000000000000000000000600052604160045260246000fd5b6105c58261057c565b810181811067ffffffffffffffff821117156105e4576105e361058d565b5b80604052505050565b60006105f761055e565b905061060382826105bc565b919050565b600067ffffffffffffffff8211156106235761062261058d565b5b61062c8261057c565b9050602081019050919050565b82818337600083830152505050565b600061065b61065684610608565b6105ed565b90508281526020810184848401111561067757610676610577565b5b610682848285610639565b509392505050565b600082601f83011261069f5761069e610572565b5b81356106af848260208601610648565b91505092915050565b6000819050919050565b6106cb816106b8565b81146106d657600080fd5b50565b6000813590506106e8816106c2565b92915050565b600073ffffffffffffffffffffffffffffffffffffffff82169050919050565b6000610719826106ee565b9050919050565b6107298161070e565b811461073457600080fd5b50565b60008135905061074681610720565b92915050565b60008060006060848603121561076557610764610568565b5b600084013567ffffffffffffffff8111156107835761078261056d565b5b61078f8682870161068a565b93505060206107a0868287016106d9565b92505060406107b186828701610737565b9150509250925092565b6000602082840312156107d1576107d0610568565b5b60006107df848285016106d9565b91505092915050565b6107f1816106b8565b82525050565b600081519050919050565b600082825260208201905092915050565b60005b83811015610831578082015181840152602081019050610816565b60008484015250505050565b6000610848826107f7565b6108528185610802565b9350610862818560208601610813565b61086b8161057c565b840191505092915050565b61087f8161070e565b82525050565b600060a08201905061089a60008301886107e8565b81810360208301526108ac818761083d565b90506108bb60408301866107e8565b6108c86060830185610876565b6108d560808301846107e8565b9695505050505050565b6000602082840312156108f5576108f4610568565b5b600061090384828501610737565b91505092915050565b600081519050919050565b600082825260208201905092915050565b6000819050602082019050919050565b610941816106b8565b82525050565b60006109538383610938565b60208301905092915050565b6000602082019050919050565b60006109778261090c565b6109818185610917565b935061098c83610928565b8060005b838110156109bd5781516109a48882610947565b97506109af8361095f565b925050600181019050610990565b5085935050505092915050565b600060208201905081810360008301526109e4818461096c565b905092915050565b6000602082019050610a0160008301846107e8565b92915050565b60008060408385031215610a1e57610a1d610568565b5b6000610a2c85828601610737565b9250506020610a3d858286016106d9565b9150509250929050565b6000819050919050565b6000610a6c610a67610a62846106ee565b610a47565b6106ee565b9050919050565b6000610a7e82610a51565b9050919050565b6000610a9082610a73565b9050919050565b610aa081610a85565b82525050565b6000602082019050610abb6000830184610a97565b92915050565b7f4e487b7100000000000000000000000000000000000000000000000000000000600052601160045260246000fd5b6000610afb826106b8565b91507fffffffffffffffffffffffffffffffffffffffffffffffffffffffffffffffff8203610b2d57610b2c610ac1565b5b600182019050919050565b60006040820190508181036000830152610b52818561083d565b9050610b616020830184610876565b9392505050565b600081519050610b77816106c2565b92915050565b600060208284031215610b9357610b92610568565b5b6000610ba184828501610b68565b91505092915050565b7f4e487b7100000000000000000000000000000000000000000000000000000000600052602260045260246000fd5b60006002820490506001821680610bf157607f821691505b602082108103610c0457610c03610baa565b5b50919050565b60008190508160005260206000209050919050565b60006020601f8301049050919050565b600082821b905092915050565b600060088302610c6c7fffffffffffffffffffffffffffffffffffffffffffffffffffffffffffffffff82610c2f565b610c768683610c2f565b95508019841693508086168417925050509392505050565b6000610ca9610ca4610c9f846106b8565b610a47565b6106b8565b9050919050565b6000819050919050565b610cc383610c8e565b610cd7610ccf82610cb0565b848454610c3c565b825550505050565b600090565b610cec610cdf565b610cf7818484610cba565b505050565b5b81811015610d1b57610d10600082610ce4565b600181019050610cfd565b5050565b601f821115610d6057610d3181610c0a565b610d3a84610c1f565b81016020851015610d49578190505b610d5d610d5585610c1f565b830182610cfc565b50505b505050565b600082821c905092915050565b6000610d8360001984600802610d65565b1980831691505092915050565b6000610d9c8383610d72565b9150826002028217905092915050565b610db5826107f7565b67ffffffffffffffff811115610dce57610dcd61058d565b5b610dd88254610bd9565b610de3828285610d1f565b600060209050601f831160018114610e165760008415610e04578287015190505b610e0e8582610d90565b865550610e76565b601f198416610e2486610c0a565b60005b82811015610e4c57848901518255600182019150602085019450602081019050610e27565b86831015610e695784890151610e65601f891682610d72565b8355505b6001600288020188555050505b505050505050565b6000608082019050610e9360008301876107e8565b8181036020830152610ea5818661083d565b9050610eb460408301856107e8565b610ec16060830184610876565b9594505050505056fea26469706673582212206cd1cd6cadb16e00d9ebc1b0a1626d00c2b86c21b99779f80300330f96daa86564736f6c63430008130033a26469706673582212203372f9b7cfbf314963fe4f1ae147ef882ec1f62126fc611fa0a1ac238e172eb664736f6c6343000813003360806040523480156200001157600080fd5b5060405162002154380380620021548339818101604052810190620000379190620003b8565b818181600390816200004a919062000688565b5080600490816200005c919062000688565b5050506200009d3362000074620000a560201b60201c565b600a620000829190620008ff565b6103e862000091919062000950565b620000ae60201b60201c565b505062000a87565b60006012905090565b600073ffffffffffffffffffffffffffffffffffffffff168273ffffffffffffffffffffffffffffffffffffffff160362000120576040517f08c379a00000000000000000000000000000000000000000000000000000000081526004016200011790620009fc565b60405180910390fd5b62000134600083836200021b60201b60201c565b806002600082825462000148919062000a1e565b92505081905550806000808473ffffffffffffffffffffffffffffffffffffffff1673ffffffffffffffffffffffffffffffffffffffff168152602001908152602001600020600082825401925050819055508173ffffffffffffffffffffffffffffffffffffffff16600073ffffffffffffffffffffffffffffffffffffffff167fddf252ad1be2c89b69c2b068fc378daa952ba7f163c4a11628f55a4df523b3ef83604051620001fb919062000a6a565b60405180910390a362000217600083836200022060201b60201c565b5050565b505050565b505050565b6000604051905090565b600080fd5b600080fd5b600080fd5b600080fd5b6000601f19601f8301169050919050565b7f4e487b7100000000000000000000000000000000000000000000000000000000600052604160045260246000fd5b6200028e8262000243565b810181811067ffffffffffffffff82111715620002b057620002af62000254565b5b80604052505050565b6000620002c562000225565b9050620002d3828262000283565b919050565b600067ffffffffffffffff821115620002f657620002f562000254565b5b620003018262000243565b9050602081019050919050565b60005b838110156200032e57808201518184015260208101905062000311565b60008484015250505050565b6000620003516200034b84620002d8565b620002b9565b90508281526020810184848401111562000370576200036f6200023e565b5b6200037d8482856200030e565b509392505050565b600082601f8301126200039d576200039c62000239565b5b8151620003af8482602086016200033a565b91505092915050565b60008060408385031215620003d257620003d16200022f565b5b600083015167ffffffffffffffff811115620003f357620003f262000234565b5b620004018582860162000385565b925050602083015167ffffffffffffffff81111562000425576200042462000234565b5b620004338582860162000385565b9150509250929050565b600081519050919050565b7f4e487b7100000000000000000000000000000000000000000000000000000000600052602260045260246000fd5b600060028204905060018216806200049057607f821691505b602082108103620004a657620004a562000448565b5b50919050565b60008190508160005260206000209050919050565b60006020601f8301049050919050565b600082821b905092915050565b600060088302620005107fffffffffffffffffffffffffffffffffffffffffffffffffffffffffffffffff82620004d1565b6200051c8683620004d1565b95508019841693508086168417925050509392505050565b6000819050919050565b6000819050919050565b600062000569620005636200055d8462000534565b6200053e565b62000534565b9050919050565b6000819050919050565b620005858362000548565b6200059d620005948262000570565b848454620004de565b825550505050565b600090565b620005b4620005a5565b620005c18184846200057a565b505050565b5b81811015620005e957620005dd600082620005aa565b600181019050620005c7565b5050565b601f82111562000638576200060281620004ac565b6200060d84620004c1565b810160208510156200061d578190505b620006356200062c85620004c1565b830182620005c6565b50505b505050565b600082821c905092915050565b60006200065d600019846008026200063d565b1980831691505092915050565b60006200067883836200064a565b9150826002028217905092915050565b62000693826200043d565b67ffffffffffffffff811115620006af57620006ae62000254565b5b620006bb825462000477565b620006c8828285620005ed565b600060209050601f831160018114620007005760008415620006eb578287015190505b620006f785826200066a565b86555062000767565b601f1984166200071086620004ac565b60005b828110156200073a5784890151825560018201915060208501945060208101905062000713565b868310156200075a578489015162000756601f8916826200064a565b8355505b6001600288020188555050505b505050505050565b7f4e487b7100000000000000000000000000000000000000000000000000000000600052601160045260246000fd5b60008160011c9050919050565b6000808291508390505b6001851115620007fd57808604811115620007d557620007d46200076f565b5b6001851615620007e55780820291505b8081029050620007f5856200079e565b9450620007b5565b94509492505050565b600082620008185760019050620008eb565b81620008285760009050620008eb565b81600181146200084157600281146200084c5762000882565b6001915050620008eb565b60ff8411156200086157620008606200076f565b5b8360020a9150848211156200087b576200087a6200076f565b5b50620008eb565b5060208310610133831016604e8410600b8410161715620008bc5782820a905083811115620008b657620008b56200076f565b5b620008eb565b620008cb8484846001620007ab565b92509050818404811115620008e557620008e46200076f565b5b81810290505b9392505050565b600060ff82169050919050565b60006200090c8262000534565b91506200091983620008f2565b9250620009487fffffffffffffffffffffffffffffffffffffffffffffffffffffffffffffffff848462000806565b905092915050565b60006200095d8262000534565b91506200096a8362000534565b92508282026200097a8162000534565b915082820484148315176200099457620009936200076f565b5b5092915050565b600082825260208201905092915050565b7f45524332303a206d696e7420746f20746865207a65726f206164647265737300600082015250565b6000620009e4601f836200099b565b9150620009f182620009ac565b602082019050919050565b6000602082019050818103600083015262000a1781620009d5565b9050919050565b600062000a2b8262000534565b915062000a388362000534565b925082820190508082111562000a535762000a526200076f565b5b92915050565b62000a648162000534565b82525050565b600060208201905062000a81600083018462000a59565b92915050565b6116bd8062000a976000396000f3fe608060405234801561001057600080fd5b50600436106100b45760003560e01c806370a082311161007157806370a08231146101a357806395d89b41146101d3578063a2119377146101f1578063a457c2d714610221578063a9059cbb14610251578063dd62ed3e14610281576100b4565b806306fdde03146100b9578063095ea7b3146100d757806318160ddd1461010757806323b872dd14610125578063313ce567146101555780633950935114610173575b600080fd5b6100c16102b1565b6040516100ce9190610ce2565b60405180910390f35b6100f160048036038101906100ec9190610dac565b610343565b6040516100fe9190610e07565b60405180910390f35b61010f610366565b60405161011c9190610e31565b60405180910390f35b61013f600480360381019061013a9190610e4c565b610370565b60405161014c9190610e07565b60405180910390f35b61015d61039f565b60405161016a9190610ebb565b60405180910390f35b61018d60048036038101906101889190610dac565b6103a8565b60405161019a9190610e07565b60405180910390f35b6101bd60048036038101906101b89190610ed6565b6103df565b6040516101ca9190610e31565b60405180910390f35b6101db610427565b6040516101e89190610ce2565b60405180910390f35b61020b60048036038101906102069190611038565b6104b9565b6040516102189190610e31565b60405180910390f35b61023b60048036038101906102369190610dac565b6104fe565b6040516102489190610e07565b60405180910390f35b61026b60048036038101906102669190610dac565b610575565b6040516102789190610e07565b60405180910390f35b61029b60048036038101906102969190611094565b610598565b6040516102a89190610e31565b60405180910390f35b6060600380546102c090611103565b80601f01602080910402602001604051908101604052809291908181526020018280546102ec90611103565b80156103395780601f1061030e57610100808354040283529160200191610339565b820191906000526020600020905b81548152906001019060200180831161031c57829003601f168201915b5050505050905090565b60008061034e61061f565b905061035b818585610627565b600191505092915050565b6000600254905090565b60008061037b61061f565b90506103888582856107f0565b61039385858561087c565b60019150509392505050565b60006012905090565b6000806103b361061f565b90506103d48185856103c58589610598565b6103cf9190611163565b610627565b600191505092915050565b60008060008373ffffffffffffffffffffffffffffffffffffffff1673ffffffffffffffffffffffffffffffffffffffff168152602001908152602001600020549050919050565b60606004805461043690611103565b80601f016020809104026020016040519081016040528092919081815260200182805461046290611103565b80156104af5780601f10610484576101008083540402835291602001916104af565b820191906000526020600020905b81548152906001019060200180831161049257829003601f168201915b5050505050905090565b60008083836040516020016104cf92919061121b565b6040516020818303038152906040528051906020012060001c90506104f48382610af2565b8091505092915050565b60008061050961061f565b905060006105178286610598565b90508381101561055c576040517f08c379a0000000000000000000000000000000000000000000000000000000008152600401610553906112b5565b60405180910390fd5b6105698286868403610627565b60019250505092915050565b60008061058061061f565b905061058d81858561087c565b600191505092915050565b6000600160008473ffffffffffffffffffffffffffffffffffffffff1673ffffffffffffffffffffffffffffffffffffffff16815260200190815260200160002060008373ffffffffffffffffffffffffffffffffffffffff1673ffffffffffffffffffffffffffffffffffffffff16815260200190815260200160002054905092915050565b600033905090565b600073ffffffffffffffffffffffffffffffffffffffff168373ffffffffffffffffffffffffffffffffffffffff1603610696576040517f08c379a000000000000000000000000000000000000000000000000000000000815260040161068d90611347565b60405180910390fd5b600073ffffffffffffffffffffffffffffffffffffffff168273ffffffffffffffffffffffffffffffffffffffff1603610705576040517f08c379a00000000000000000000000000000000000000000000000000000000081526004016106fc906113d9565b60405180910390fd5b80600160008573ffffffffffffffffffffffffffffffffffffffff1673ffffffffffffffffffffffffffffffffffffffff16815260200190815260200160002060008473ffffffffffffffffffffffffffffffffffffffff1673ffffffffffffffffffffffffffffffffffffffff168152602001908152602001600020819055508173ffffffffffffffffffffffffffffffffffffffff168373ffffffffffffffffffffffffffffffffffffffff167f8c5be1e5ebec7d5bd14f71427d1e84f3dd0314c0f7b2291e5b200ac8c7c3b925836040516107e39190610e31565b60405180910390a3505050565b60006107fc8484610598565b90507fffffffffffffffffffffffffffffffffffffffffffffffffffffffffffffffff81146108765781811015610868576040517f08c379a000000000000000000000000000000000000000000000000000000000815260040161085f90611445565b60405180910390fd5b6108758484848403610627565b5b50505050565b600073ffffffffffffffffffffffffffffffffffffffff168373ffffffffffffffffffffffffffffffffffffffff16036108eb576040517f08c379a00000000000000000000000000000000000000000000000000000000081526004016108e2906114d7565b60405180910390fd5b600073ffffffffffffffffffffffffffffffffffffffff168273ffffffffffffffffffffffffffffffffffffffff160361095a576040517f08c379a000000000000000000000000000000000000000000000000000000000815260040161095190611569565b60405180910390fd5b610965838383610c48565b60008060008573ffffffffffffffffffffffffffffffffffffffff1673ffffffffffffffffffffffffffffffffffffffff168152602001908152602001600020549050818110156109eb576040517f08c379a00000000000000000000000000000000000000000000000000000000081526004016109e2906115fb565b60405180910390fd5b8181036000808673ffffffffffffffffffffffffffffffffffffffff1673ffffffffffffffffffffffffffffffffffffffff16815260200190815260200160002081905550816000808573ffffffffffffffffffffffffffffffffffffffff1673ffffffffffffffffffffffffffffffffffffffff168152602001908152602001600020600082825401925050819055508273ffffffffffffffffffffffffffffffffffffffff168473ffffffffffffffffffffffffffffffffffffffff167fddf252ad1be2c89b69c2b068fc378daa952ba7f163c4a11628f55a4df523b3ef84604051610ad99190610e31565b60405180910390a3610aec848484610c4d565b50505050565b600073ffffffffffffffffffffffffffffffffffffffff168273ffffffffffffffffffffffffffffffffffffffff1603610b61576040517f08c379a0000000000000000000000000000000000000000000000000000000008152600401610b5890611667565b60405180910390fd5b610b6d60008383610c48565b8060026000828254610b7f9190611163565b92505081905550806000808473ffffffffffffffffffffffffffffffffffffffff1673ffffffffffffffffffffffffffffffffffffffff168152602001908152602001600020600082825401925050819055508173ffffffffffffffffffffffffffffffffffffffff16600073ffffffffffffffffffffffffffffffffffffffff167fddf252ad1be2c89b69c2b068fc378daa952ba7f163c4a11628f55a4df523b3ef83604051610c309190610e31565b60405180910390a3610c4460008383610c4d565b5050565b505050565b505050565b600081519050919050565b600082825260208201905092915050565b60005b83811015610c8c578082015181840152602081019050610c71565b60008484015250505050565b6000601f19601f8301169050919050565b6000610cb482610c52565b610cbe8185610c5d565b9350610cce818560208601610c6e565b610cd781610c98565b840191505092915050565b60006020820190508181036000830152610cfc8184610ca9565b905092915050565b6000604051905090565b600080fd5b600080fd5b600073ffffffffffffffffffffffffffffffffffffffff82169050919050565b6000610d4382610d18565b9050919050565b610d5381610d38565b8114610d5e57600080fd5b50565b600081359050610d7081610d4a565b92915050565b6000819050919050565b610d8981610d76565b8114610d9457600080fd5b50565b600081359050610da681610d80565b92915050565b60008060408385031215610dc357610dc2610d0e565b5b6000610dd185828601610d61565b9250506020610de285828601610d97565b9150509250929050565b60008115159050919050565b610e0181610dec565b82525050565b6000602082019050610e1c6000830184610df8565b92915050565b610e2b81610d76565b82525050565b6000602082019050610e466000830184610e22565b92915050565b600080600060608486031215610e6557610e64610d0e565b5b6000610e7386828701610d61565b9350506020610e8486828701610d61565b9250506040610e9586828701610d97565b9150509250925092565b600060ff82169050919050565b610eb581610e9f565b82525050565b6000602082019050610ed06000830184610eac565b92915050565b600060208284031215610eec57610eeb610d0e565b5b6000610efa84828501610d61565b91505092915050565b600080fd5b600080fd5b7f4e487b7100000000000000000000000000000000000000000000000000000000600052604160045260246000fd5b610f4582610c98565b810181811067ffffffffffffffff82111715610f6457610f63610f0d565b5b80604052505050565b6000610f77610d04565b9050610f838282610f3c565b919050565b600067ffffffffffffffff821115610fa357610fa2610f0d565b5b610fac82610c98565b9050602081019050919050565b82818337600083830152505050565b6000610fdb610fd684610f88565b610f6d565b905082815260208101848484011115610ff757610ff6610f08565b5b611002848285610fb9565b509392505050565b600082601f83011261101f5761101e610f03565b5b813561102f848260208601610fc8565b91505092915050565b6000806040838503121561104f5761104e610d0e565b5b600083013567ffffffffffffffff81111561106d5761106c610d13565b5b6110798582860161100a565b925050602061108a85828601610d61565b9150509250929050565b600080604083850312156110ab576110aa610d0e565b5b60006110b985828601610d61565b92505060206110ca85828601610d61565b9150509250929050565b7f4e487b7100000000000000000000000000000000000000000000000000000000600052602260045260246000fd5b6000600282049050600182168061111b57607f821691505b60208210810361112e5761112d6110d4565b5b50919050565b7f4e487b7100000000000000000000000000000000000000000000000000000000600052601160045260246000fd5b600061116e82610d76565b915061117983610d76565b925082820190508082111561119157611190611134565b5b92915050565b600081905092915050565b60006111ad82610c52565b6111b78185611197565b93506111c7818560208601610c6e565b80840191505092915050565b60008160601b9050919050565b60006111eb826111d3565b9050919050565b60006111fd826111e0565b9050919050565b61121561121082610d38565b6111f2565b82525050565b600061122782856111a2565b91506112338284611204565b6014820191508190509392505050565b7f45524332303a2064656372656173656420616c6c6f77616e63652062656c6f7760008201527f207a65726f000000000000000000000000000000000000000000000000000000602082015250565b600061129f602583610c5d565b91506112aa82611243565b604082019050919050565b600060208201905081810360008301526112ce81611292565b9050919050565b7f45524332303a20617070726f76652066726f6d20746865207a65726f2061646460008201527f7265737300000000000000000000000000000000000000000000000000000000602082015250565b6000611331602483610c5d565b915061133c826112d5565b604082019050919050565b6000602082019050818103600083015261136081611324565b9050919050565b7f45524332303a20617070726f766520746f20746865207a65726f20616464726560008201527f7373000000000000000000000000000000000000000000000000000000000000602082015250565b60006113c3602283610c5d565b91506113ce82611367565b604082019050919050565b600060208201905081810360008301526113f2816113b6565b9050919050565b7f45524332303a20696e73756666696369656e7420616c6c6f77616e6365000000600082015250565b600061142f601d83610c5d565b915061143a826113f9565b602082019050919050565b6000602082019050818103600083015261145e81611422565b9050919050565b7f45524332303a207472616e736665722066726f6d20746865207a65726f20616460008201527f6472657373000000000000000000000000000000000000000000000000000000602082015250565b60006114c1602583610c5d565b91506114cc82611465565b604082019050919050565b600060208201905081810360008301526114f0816114b4565b9050919050565b7f45524332303a207472616e7366657220746f20746865207a65726f206164647260008201527f6573730000000000000000000000000000000000000000000000000000000000602082015250565b6000611553602383610c5d565b915061155e826114f7565b604082019050919050565b6000602082019050818103600083015261158281611546565b9050919050565b7f45524332303a207472616e7366657220616d6f756e742065786365656473206260008201527f616c616e63650000000000000000000000000000000000000000000000000000602082015250565b60006115e5602683610c5d565b91506115f082611589565b604082019050919050565b60006020820190508181036000830152611614816115d8565b9050919050565b7f45524332303a206d696e7420746f20746865207a65726f206164647265737300600082015250565b6000611651601f83610c5d565b915061165c8261161b565b602082019050919050565b6000602082019050818103600083015261168081611644565b905091905056fea2646970667358221220c84ffc976f5cf15eb84a64960deff60813f7bfa3b81c5c8a19578bc00615d89664736f6c63430008130033",
  "immutableReferences": {},
  "source": "// SPDX-License-Identifier: GPL-3.0\n\npragma solidity >=0.7.0 <0.9.0;\n\nimport \"./LandRecord.sol\";\nimport \"./LandRecordToken.sol\";\n\ncontract LandRecordFactory {\n    address[] public deployedLandRecords;\n    LandRecordToken public token;\n\n    constructor() {\n        token = new LandRecordToken(\"LandRecordToken\", \"LRT\");\n    }\n\n    function createLandRecord(string memory _ownerName, uint _area, address _ownerAddress) public {\n        LandRecord newLandRecord = new LandRecord(token);\n        newLandRecord.createRecord(_ownerName, _area, _ownerAddress);\n        deployedLandRecords.push(address(newLandRecord));\n    }\n\n    function getDeployedLandRecords() public view returns (address[] memory) {\n        return deployedLandRecords;\n    }\n}\n",
  "sourcePath": "/home/shakil/Desktop/BLRM-Solidity/contracts/LandRecordFactory.sol",
  "compiler": {
    "name": "solc",
    "version": "0.8.19+commit.7dd6d404.Emscripten.clang"
  },
  "schemaVersion": "3.4.13",
  "updatedAt": "2023-05-17T02:27:21.094Z",
  "devdoc": {
    "kind": "dev",
    "methods": {},
    "version": 1
  },
  "userdoc": {
    "kind": "user",
    "methods": {},
    "version": 1
  }
}