{
  "contractName": "LandRegistration",
  "abi": [
    {
      "anonymous": false,
      "inputs": [
        {
          "indexed": true,
          "name": "nid",
          "type": "uint256"
        }
      ],
      "name": "CreationOfUser",
      "type": "event"
    },
    {
      "constant": false,
      "inputs": [],
      "name": "createUser",
      "outputs": [],
      "payable": false,
      "stateMutability": "nonpayable",
      "type": "function"
    },
    {
      "constant": true,
      "inputs": [],
      "name": "getKhatianArrayLen",
      "outputs": [
        {
          "name": "",
          "type": "uint256"
        }
      ],
      "payable": false,
      "stateMutability": "view",
      "type": "function"
    },
    {
      "constant": true,
      "inputs": [
        {
          "name": "id",
          "type": "uint256"
        }
      ],
      "name": "getKhatianHasById",
      "outputs": [
        {
          "name": "",
          "type": "bool"
        }
      ],
      "payable": false,
      "stateMutability": "view",
      "type": "function"
    },
    {
      "constant": true,
      "inputs": [
        {
          "name": "khatianHash",
          "type": "bytes32"
        }
      ],
      "name": "getKhatianByHash",
      "outputs": [
        {
          "components": [
            {
              "name": "fullName",
              "type": "bytes32"
            },
            {
              "name": "fatherName",
              "type": "bytes32"
            },
            {
              "name": "motherName",
              "type": "bytes32"
            },
            {
              "name": "district",
              "type": "bytes32"
            },
            {
              "name": "thana",
              "type": "bytes32"
            },
            {
              "name": "postCode",
              "type": "uint256"
            },
            {
              "name": "village",
              "type": "bytes32"
            },
            {
              "name": "email",
              "type": "bytes32"
            },
            {
              "name": "dob",
              "type": "uint256"
            },
            {
              "name": "totalTax",
              "type": "uint256"
            },
            {
              "name": "fingerprint",
              "type": "string"
            },
            {
              "name": "isExist",
              "type": "bool"
            }
          ],
          "name": "",
          "type": "tuple"
        }
      ],
      "payable": false,
      "stateMutability": "view",
      "type": "function"
    },
    {
      "constant": true,
      "inputs": [],
      "name": "getPlotArrayLen",
      "outputs": [
        {
          "name": "",
          "type": "uint256"
        }
      ],
      "payable": false,
      "stateMutability": "view",
      "type": "function"
    },
    {
      "constant": true,
      "inputs": [
        {
          "name": "plotHash",
          "type": "bytes32"
        }
      ],
      "name": "getPlotByHash",
      "outputs": [
        {
          "components": [
            {
              "name": "fullName",
              "type": "bytes32"
            },
            {
              "name": "fatherName",
              "type": "bytes32"
            },
            {
              "name": "motherName",
              "type": "bytes32"
            },
            {
              "name": "district",
              "type": "bytes32"
            },
            {
              "name": "thana",
              "type": "bytes32"
            },
            {
              "name": "postCode",
              "type": "uint256"
            },
            {
              "name": "village",
              "type": "bytes32"
            },
            {
              "name": "email",
              "type": "bytes32"
            },
            {
              "name": "dob",
              "type": "uint256"
            },
            {
              "name": "totalTax",
              "type": "uint256"
            },
            {
              "name": "fingerprint",
              "type": "string"
            },
            {
              "name": "isExist",
              "type": "bool"
            }
          ],
          "name": "",
          "type": "tuple"
        }
      ],
      "payable": false,
      "stateMutability": "view",
      "type": "function"
    },
    {
      "constant": true,
      "inputs": [],
      "name": "getUserArrayLen",
      "outputs": [
        {
          "name": "",
          "type": "uint256"
        }
      ],
      "payable": false,
      "stateMutability": "view",
      "type": "function"
    },
    {
      "constant": true,
      "inputs": [
        {
          "name": "id",
          "type": "uint256"
        }
      ],
      "name": "getUserIdById",
      "outputs": [
        {
          "components": [
            {
              "name": "fullName",
              "type": "bytes32"
            },
            {
              "name": "fatherName",
              "type": "bytes32"
            },
            {
              "name": "motherName",
              "type": "bytes32"
            },
            {
              "name": "district",
              "type": "bytes32"
            },
            {
              "name": "thana",
              "type": "bytes32"
            },
            {
              "name": "postCode",
              "type": "uint256"
            },
            {
              "name": "village",
              "type": "bytes32"
            },
            {
              "name": "email",
              "type": "bytes32"
            },
            {
              "name": "dob",
              "type": "uint256"
            },
            {
              "name": "totalTax",
              "type": "uint256"
            },
            {
              "name": "fingerprint",
              "type": "string"
            },
            {
              "name": "isExist",
              "type": "bool"
            }
          ],
          "name": "",
          "type": "tuple"
        }
      ],
      "payable": false,
      "stateMutability": "view",
      "type": "function"
    },
    {
      "constant": true,
      "inputs": [
        {
          "name": "_nid",
          "type": "uint256"
        }
      ],
      "name": "getUserByNid",
      "outputs": [
        {
          "components": [
            {
              "name": "fullName",
              "type": "bytes32"
            },
            {
              "name": "fatherName",
              "type": "bytes32"
            },
            {
              "name": "motherName",
              "type": "bytes32"
            },
            {
              "name": "district",
              "type": "bytes32"
            },
            {
              "name": "thana",
              "type": "bytes32"
            },
            {
              "name": "postCode",
              "type": "uint256"
            },
            {
              "name": "village",
              "type": "bytes32"
            },
            {
              "name": "email",
              "type": "bytes32"
            },
            {
              "name": "dob",
              "type": "uint256"
            },
            {
              "name": "totalTax",
              "type": "uint256"
            },
            {
              "name": "fingerprint",
              "type": "string"
            },
            {
              "name": "isExist",
              "type": "bool"
            }
          ],
          "name": "",
          "type": "tuple"
        }
      ],
      "payable": false,
      "stateMutability": "view",
      "type": "function"
    },
    {
      "constant": true,
      "inputs": [
        {
          "name": "_uid",
          "type": "uint256"
        }
      ],
      "name": "getUserOwnedByUid",
      "outputs": [
        {
          "components": [
            {
              "name": "fullName",
              "type": "bytes32"
            },
            {
              "name": "fatherName",
              "type": "bytes32"
            },
            {
              "name": "motherName",
              "type": "bytes32"
            },
            {
              "name": "district",
              "type": "bytes32"
            },
            {
              "name": "thana",
              "type": "bytes32"
            },
            {
              "name": "postCode",
              "type": "uint256"
            },
            {
              "name": "village",
              "type": "bytes32"
            },
            {
              "name": "email",
              "type": "bytes32"
            },
            {
              "name": "dob",
              "type": "uint256"
            },
            {
              "name": "totalTax",
              "type": "uint256"
            },
            {
              "name": "fingerprint",
              "type": "string"
            },
            {
              "name": "isExist",
              "type": "bool"
            }
          ],
          "name": "",
          "type": "tuple"
        }
      ],
      "payable": false,
      "stateMutability": "view",
      "type": "function"
    }
  ],
  "bytecode": "0x608060405234801561001057600080fd5b50611359806100206000396000f3006080604052600436106100a4576000357c0100000000000000000000000000000000000000000000000000000000900463ffffffff1680630d590f3e146100a957806325ad91ce146100d457806343308949146100eb5780635cb99c031461012857806364a66dc3146101655780636d8c5df1146101a25780638c857098146101df57806395d5712c1461021c578063bd36352514610259578063f87b771a14610284575b600080fd5b3480156100b557600080fd5b506100be6102af565b6040516100cb9190611281565b60405180910390f35b3480156100e057600080fd5b506100e96102bc565b005b3480156100f757600080fd5b50610112600480360361010d9190810190611006565b6104a6565b60405161011f919061125f565b60405180910390f35b34801561013457600080fd5b5061014f600480360361014a9190810190610fdd565b610691565b60405161015c919061125f565b60405180910390f35b34801561017157600080fd5b5061018c60048036036101879190810190611006565b610886565b604051610199919061125f565b60405180910390f35b3480156101ae57600080fd5b506101c960048036036101c49190810190611006565b610a71565b6040516101d6919061125f565b60405180910390f35b3480156101eb57600080fd5b5061020660048036036102019190810190611006565b610c5c565b6040516102139190611204565b60405180910390f35b34801561022857600080fd5b50610243600480360361023e9190810190610fdd565b610c88565b604051610250919061125f565b60405180910390f35b34801561026557600080fd5b5061026e610e7d565b60405161027b9190611281565b60405180910390f35b34801561029057600080fd5b50610299610e8a565b6040516102a69190611281565b60405180910390f35b6000600180549050905090565b600080600115156000803373ffffffffffffffffffffffffffffffffffffffff168152602001908152602001600020600b0160009054906101000a900460ff16151514151515610341576040517f08c379a00000000000000000000000000000000000000000000000000000000081526004016103389061121f565b60405180910390fd5b3373ffffffffffffffffffffffffffffffffffffffff16915060008083815260200190815260200160002090506000600102816000018160001916905550600060010281600101816000191690555060006001028160020181600019169055506000600102816003018160001916905550600060010281600401816000191690555060008160050181905550600060010281600601816000191690555060006001028160070181600019169055506000816008018190555060008160090181905550602060405190810160405280600081525081600a01908051906020019061042b929190610e97565b50600181600b0160006101000a81548160ff0219169083151502179055506001829080600181540180825580915050906001820390600052602060002001600090919290919091505550817f4caf2056c708d8e5f0be06bdeabc00f76c4f4a09efd0b8d19487beb9bb782cfb60405160405180910390a25050565b6104ae610f17565b600080838152602001908152602001600020600b0160009054906101000a900460ff161515610512576040517f08c379a00000000000000000000000000000000000000000000000000000000081526004016105099061123f565b60405180910390fd5b6000808381526020019081526020016000206101806040519081016040529081600082015460001916600019168152602001600182015460001916600019168152602001600282015460001916600019168152602001600382015460001916600019168152602001600482015460001916600019168152602001600582015481526020016006820154600019166000191681526020016007820154600019166000191681526020016008820154815260200160098201548152602001600a82018054600181600116156101000203166002900480601f0160208091040260200160405190810160405280929190818152602001828054600181600116156101000203166002900480156106665780601f1061063b57610100808354040283529160200191610666565b820191906000526020600020905b81548152906001019060200180831161064957829003601f168201915b50505050508152602001600b820160009054906101000a900460ff1615151515815250509050919050565b610699610f17565b600082600190049050600080828152602001908152602001600020600b0160009054906101000a900460ff161515610706576040517f08c379a00000000000000000000000000000000000000000000000000000000081526004016106fd9061123f565b60405180910390fd5b6000808281526020019081526020016000206101806040519081016040529081600082015460001916600019168152602001600182015460001916600019168152602001600282015460001916600019168152602001600382015460001916600019168152602001600482015460001916600019168152602001600582015481526020016006820154600019166000191681526020016007820154600019166000191681526020016008820154815260200160098201548152602001600a82018054600181600116156101000203166002900480601f01602080910402602001604051908101604052809291908181526020018280546001816001161561010002031660029004801561085a5780601f1061082f5761010080835404028352916020019161085a565b820191906000526020600020905b81548152906001019060200180831161083d57829003601f168201915b50505050508152602001600b820160009054906101000a900460ff161515151581525050915050919050565b61088e610f17565b600080838152602001908152602001600020600b0160009054906101000a900460ff1615156108f2576040517f08c379a00000000000000000000000000000000000000000000000000000000081526004016108e99061123f565b60405180910390fd5b6000808381526020019081526020016000206101806040519081016040529081600082015460001916600019168152602001600182015460001916600019168152602001600282015460001916600019168152602001600382015460001916600019168152602001600482015460001916600019168152602001600582015481526020016006820154600019166000191681526020016007820154600019166000191681526020016008820154815260200160098201548152602001600a82018054600181600116156101000203166002900480601f016020809104026020016040519081016040528092919081815260200182805460018160011615610100020316600290048015610a465780601f10610a1b57610100808354040283529160200191610a46565b820191906000526020600020905b815481529060010190602001808311610a2957829003601f168201915b50505050508152602001600b820160009054906101000a900460ff1615151515815250509050919050565b610a79610f17565b600080838152602001908152602001600020600b0160009054906101000a900460ff161515610add576040517f08c379a0000000000000000000000000000000000000000000000000000000008152600401610ad49061123f565b60405180910390fd5b6000808381526020019081526020016000206101806040519081016040529081600082015460001916600019168152602001600182015460001916600019168152602001600282015460001916600019168152602001600382015460001916600019168152602001600482015460001916600019168152602001600582015481526020016006820154600019166000191681526020016007820154600019166000191681526020016008820154815260200160098201548152602001600a82018054600181600116156101000203166002900480601f016020809104026020016040519081016040528092919081815260200182805460018160011615610100020316600290048015610c315780601f10610c0657610100808354040283529160200191610c31565b820191906000526020600020905b815481529060010190602001808311610c1457829003601f168201915b50505050508152602001600b820160009054906101000a900460ff1615151515815250509050919050565b6000806000838152602001908152602001600020600b0160009054906101000a900460ff169050919050565b610c90610f17565b600082600190049050600080828152602001908152602001600020600b0160009054906101000a900460ff161515610cfd576040517f08c379a0000000000000000000000000000000000000000000000000000000008152600401610cf49061123f565b60405180910390fd5b6000808281526020019081526020016000206101806040519081016040529081600082015460001916600019168152602001600182015460001916600019168152602001600282015460001916600019168152602001600382015460001916600019168152602001600482015460001916600019168152602001600582015481526020016006820154600019166000191681526020016007820154600019166000191681526020016008820154815260200160098201548152602001600a82018054600181600116156101000203166002900480601f016020809104026020016040519081016040528092919081815260200182805460018160011615610100020316600290048015610e515780601f10610e2657610100808354040283529160200191610e51565b820191906000526020600020905b815481529060010190602001808311610e3457829003601f168201915b50505050508152602001600b820160009054906101000a900460ff161515151581525050915050919050565b6000600180549050905090565b6000600180549050905090565b828054600181600116156101000203166002900490600052602060002090601f016020900481019282601f10610ed857805160ff1916838001178555610f06565b82800160010185558215610f06579182015b82811115610f05578251825591602001919060010190610eea565b5b509050610f139190610f90565b5090565b6101806040519081016040528060008019168152602001600080191681526020016000801916815260200160008019168152602001600080191681526020016000815260200160008019168152602001600080191681526020016000815260200160008152602001606081526020016000151581525090565b610fb291905b80821115610fae576000816000905550600101610f96565b5090565b90565b6000610fc182356112c7565b905092915050565b6000610fd582356112d1565b905092915050565b600060208284031215610fef57600080fd5b6000610ffd84828501610fb5565b91505092915050565b60006020828403121561101857600080fd5b600061102684828501610fc9565b91505092915050565b611038816112a7565b82525050565b611047816112b3565b82525050565b60006110588261129c565b80845261106c8160208601602086016112db565b6110758161130e565b602085010191505092915050565b6000601382527f5573657220616c726561647920657869737473000000000000000000000000006020830152604082019050919050565b6000601382527f5573657220646f6573206e6f74206578697374000000000000000000000000006020830152604082019050919050565b60006101808301600083015161110a600086018261103e565b50602083015161111d602086018261103e565b506040830151611130604086018261103e565b506060830151611143606086018261103e565b506080830151611156608086018261103e565b5060a083015161116960a08601826111f5565b5060c083015161117c60c086018261103e565b5060e083015161118f60e086018261103e565b506101008301516111a46101008601826111f5565b506101208301516111b96101208601826111f5565b506101408301518482036101408601526111d3828261104d565b9150506101608301516111ea61016086018261102f565b508091505092915050565b6111fe816112bd565b82525050565b6000602082019050611219600083018461102f565b92915050565b6000602082019050818103600083015261123881611083565b9050919050565b60006020820190508181036000830152611258816110ba565b9050919050565b6000602082019050818103600083015261127981846110f1565b905092915050565b600060208201905061129660008301846111f5565b92915050565b600081519050919050565b60008115159050919050565b6000819050919050565b6000819050919050565b6000819050919050565b6000819050919050565b60005b838110156112f95780820151818401526020810190506112de565b83811115611308576000848401525b50505050565b6000601f19601f83011690509190505600a265627a7a723058200a0ab7054ce8e3989f5633dd69721f6ce90d36fda09e933cc01b60f2727bec446c6578706572696d656e74616cf50037",
  "source": "// SPDX-License-Identifier: GPL-3.0\n\npragma solidity ^0.4.25;\n\npragma experimental ABIEncoderV2;\ncontract LandRegistration {\n    struct User {\n        bytes32 fullName;\n        bytes32 fatherName;\n        bytes32 motherName;\n        bytes32 district;\n        bytes32 thana;\n        uint256 postCode;\n        bytes32 village;\n        bytes32 email;\n        uint256 dob;\n        uint256 totalTax;\n        string fingerprint;\n        bool isExist;\n    }\n\n    mapping(uint256 => User) userMapping;\n    uint256[] userArray;\n    \n    event CreationOfUser(uint256 indexed nid);\n\n    function createUser() public {\n        require(userMapping[uint256(msg.sender)].isExist != true, \"User already exists\");\n        uint256 nid = uint256(msg.sender);\n        \n        User storage user = userMapping[nid];\n        user.fullName = bytes32(0);\n        user.fatherName = bytes32(0);\n        user.motherName = bytes32(0);\n        user.district = bytes32(0);\n        user.thana = bytes32(0);\n        user.postCode = 0;\n        user.village = bytes32(0);\n        user.email = bytes32(0);\n        user.dob = 0;\n        user.totalTax = 0;\n        user.fingerprint = \"\";\n        user.isExist = true;\n        \n        userArray.push(nid);\n        emit CreationOfUser(nid);\n    }\n    \n    function getKhatianArrayLen() public view returns (uint256) {\n        return userArray.length;\n    }\n    \n    function getKhatianHasById(uint256 id) public view returns (bool) {\n        return userMapping[id].isExist;\n    }\n    \n    function getKhatianByHash(bytes32 khatianHash) public view returns (User) {\n        uint256 id = uint256(khatianHash);\n        require(userMapping[id].isExist, \"User does not exist\");\n        return userMapping[id];\n    }\n    \n    function getPlotArrayLen() public view returns (uint256) {\n        return userArray.length;\n    }\n    \n    function getPlotByHash(bytes32 plotHash) public view returns (User) {\n        uint256 id = uint256(plotHash);\n        require(userMapping[id].isExist, \"User does not exist\");\n        return userMapping[id];\n    }\n    \n    function getUserArrayLen() public view returns (uint256) {\n        return userArray.length;\n    }\n    \n    function getUserIdById(uint256 id) public view returns (User) {\n        require(userMapping[id].isExist, \"User does not exist\");\n        return userMapping[id];\n    }\n    \n    function getUserByNid(uint256 _nid) public view returns (User) {\n        require(userMapping[_nid].isExist, \"User does not exist\");\n        return userMapping[_nid];\n    }\n    \n    function getUserOwnedByUid(uint256 _uid) public view returns (User) {\n        require(userMapping[_uid].isExist, \"User does not exist\");\n        return userMapping[_uid];\n    }\n    function stringToBytes32(string memory source) internal pure returns (bytes32 result) {\n        bytes memory tempEmptyStringTest = bytes(source);\n        if (tempEmptyStringTest.length == 0) {\n            return 0x0;\n        }\n\n        assembly {\n            result := mload(add(source, 32))\n        }\n    }\n    \n    function toUpper(string str) internal pure returns (string) {\n\t\tbytes memory bStr = bytes(str);\n\t\tbytes memory bUpper = new bytes(bStr.length);\n\t\tfor (uint i = 0; i < bStr.length; i++) {\n\t\t\tif ((bStr[i] >= 97) && (bStr[i] <= 122)) {\n\t\t\t\tbUpper[i] = bytes1(int(bStr[i]) - 32);\n\t\t\t} else {\n\t\t\t\tbUpper[i] = bStr[i];\n\t\t\t}\n\t\t}\n\t\treturn string(bUpper);\n\t}\n}\n\n/*\n\n1. `createUser()`: Creates a new user and stores their information in the `userMapping` mapping, also adds the user ID to the `userArray`.\n2. `getKhatianArrayLen()`: Returns the length of the `userArray`, representing the number of users.\n3. `getKhatianHasById(uint256 id)`: Checks if a user with the given ID exists in the `userMapping`.\n4. `getKhatianByHash(bytes32 khatianHash)`: Retrieves the user information associated with the given hash value (ID), provided the user exists.\n5. `getPlotArrayLen()`: Returns the length of the `userArray`, representing the number of plots.\n6. `getPlotByHash(bytes32 plotHash)`: Retrieves the user information associated with the given plot hash value (ID), provided the user exists.\n7. `getUserArrayLen()`: Returns the length of the `userArray`, representing the number of users.\n8. `getUserIdById(uint256 id)`: Retrieves the user information associated with the given user ID, provided the user exists.\n9. `getUserByNid(uint256 _nid)`: Retrieves the user information associated with the given National ID (NID), provided the user exists.\n10. `getUserOwnedByUid(uint256 _uid)`: Retrieves the user information associated with the given user ID (UID), provided the user exists.\n11. `stringToBytes32(string memory source) internal pure returns (bytes32 result)`: Converts a string to bytes32.\n12. `toUpper(string str) internal pure returns (string)`: Converts a string to uppercase.\n\nThese functions allow for creating users, retrieving user information by various parameters, and performing utility tasks such as converting strings and modifying their case.\n*/",
  "sourcePath": "/home/shakil/Desktop/BLRM-Solidity/contracts/LandRegFinal.sol",
  "compiler": {
    "name": "solc",
    "version": "0.4.26+commit.4563c3fc.Emscripten.clang"
  },
  "schemaVersion": "3.4.13",
  "updatedAt": "2023-06-16T09:26:20.376Z",
  "devdoc": {
    "methods": {}
  },
  "userdoc": {
    "methods": {}
  }
}