{
  "contractName": "LandRecord",
  "abi": [
    {
      "inputs": [
        {
          "internalType": "contract LandRecordToken",
          "name": "_token",
          "type": "address"
        }
      ],
      "stateMutability": "nonpayable",
      "type": "constructor"
    },
    {
      "anonymous": false,
      "inputs": [
        {
          "indexed": false,
          "internalType": "uint256",
          "name": "id",
          "type": "uint256"
        },
        {
          "indexed": false,
          "internalType": "string",
          "name": "ownerName",
          "type": "string"
        },
        {
          "indexed": false,
          "internalType": "uint256",
          "name": "area",
          "type": "uint256"
        },
        {
          "indexed": false,
          "internalType": "address",
          "name": "ownerAddress",
          "type": "address"
        }
      ],
      "name": "RecordCreated",
      "type": "event"
    },
    {
      "inputs": [
        {
          "internalType": "address",
          "name": "",
          "type": "address"
        },
        {
          "internalType": "uint256",
          "name": "",
          "type": "uint256"
        }
      ],
      "name": "ownerRecords",
      "outputs": [
        {
          "internalType": "uint256",
          "name": "",
          "type": "uint256"
        }
      ],
      "stateMutability": "view",
      "type": "function"
    },
    {
      "inputs": [],
      "name": "recordCount",
      "outputs": [
        {
          "internalType": "uint256",
          "name": "",
          "type": "uint256"
        }
      ],
      "stateMutability": "view",
      "type": "function"
    },
    {
      "inputs": [
        {
          "internalType": "uint256",
          "name": "",
          "type": "uint256"
        }
      ],
      "name": "records",
      "outputs": [
        {
          "internalType": "uint256",
          "name": "id",
          "type": "uint256"
        },
        {
          "internalType": "string",
          "name": "ownerName",
          "type": "string"
        },
        {
          "internalType": "uint256",
          "name": "area",
          "type": "uint256"
        },
        {
          "internalType": "address",
          "name": "ownerAddress",
          "type": "address"
        },
        {
          "internalType": "uint256",
          "name": "tokenId",
          "type": "uint256"
        }
      ],
      "stateMutability": "view",
      "type": "function"
    },
    {
      "inputs": [],
      "name": "token",
      "outputs": [
        {
          "internalType": "contract LandRecordToken",
          "name": "",
          "type": "address"
        }
      ],
      "stateMutability": "view",
      "type": "function"
    },
    {
      "inputs": [
        {
          "internalType": "string",
          "name": "_ownerName",
          "type": "string"
        },
        {
          "internalType": "uint256",
          "name": "_area",
          "type": "uint256"
        },
        {
          "internalType": "address",
          "name": "_ownerAddress",
          "type": "address"
        }
      ],
      "name": "createRecord",
      "outputs": [],
      "stateMutability": "nonpayable",
      "type": "function"
    },
    {
      "inputs": [
        {
          "internalType": "address",
          "name": "_ownerAddress",
          "type": "address"
        }
      ],
      "name": "getRecordsByOwner",
      "outputs": [
        {
          "internalType": "uint256[]",
          "name": "",
          "type": "uint256[]"
        }
      ],
      "stateMutability": "view",
      "type": "function"
    }
  ],
  "bytecode": "0x60806040523480156200001157600080fd5b506040516200103f3803806200103f8339818101604052810190620000379190620000fd565b80600360006101000a81548173ffffffffffffffffffffffffffffffffffffffff021916908373ffffffffffffffffffffffffffffffffffffffff160217905550506200012f565b600080fd5b600073ffffffffffffffffffffffffffffffffffffffff82169050919050565b6000620000b18262000084565b9050919050565b6000620000c582620000a4565b9050919050565b620000d781620000b8565b8114620000e357600080fd5b50565b600081519050620000f781620000cc565b92915050565b6000602082840312156200011657620001156200007f565b5b60006200012684828501620000e6565b91505092915050565b610f00806200013f6000396000f3fe608060405234801561001057600080fd5b50600436106100625760003560e01c8063074046f0146100675780633446106714610083578063552d7105146100b7578063900407bc146100e7578063b3d4e03314610105578063fc0c546a14610135575b600080fd5b610081600480360381019061007c919061074c565b610153565b005b61009d600480360381019061009891906107bb565b61038c565b6040516100ae959493929190610885565b60405180910390f35b6100d160048036038101906100cc91906108df565b61046a565b6040516100de91906109ca565b60405180910390f35b6100ef610501565b6040516100fc91906109ec565b60405180910390f35b61011f600480360381019061011a9190610a07565b610507565b60405161012c91906109ec565b60405180910390f35b61013d610538565b60405161014a9190610aa6565b60405180910390f35b60008081548092919061016590610af0565b91905055506000600360009054906101000a900473ffffffffffffffffffffffffffffffffffffffff1673ffffffffffffffffffffffffffffffffffffffff1663a211937785846040518363ffffffff1660e01b81526004016101c9929190610b38565b6020604051808303816000875af11580156101e8573d6000803e3d6000fd5b505050506040513d601f19601f8201168201806040525081019061020c9190610b7d565b90506040518060a0016040528060005481526020018581526020018481526020018373ffffffffffffffffffffffffffffffffffffffff1681526020018281525060016000805481526020019081526020016000206000820151816000015560208201518160010190816102809190610dac565b506040820151816002015560608201518160030160006101000a81548173ffffffffffffffffffffffffffffffffffffffff021916908373ffffffffffffffffffffffffffffffffffffffff16021790555060808201518160040155905050600260008373ffffffffffffffffffffffffffffffffffffffff1673ffffffffffffffffffffffffffffffffffffffff16815260200190815260200160002060005490806001815401808255809150506001900390600052602060002001600090919091909150557fac4189a1e8a05e52347eac46e21c0e3256c23c7bfca58ef576f2d88a40d0e0be60005485858560405161037e9493929190610e7e565b60405180910390a150505050565b60016020528060005260406000206000915090508060000154908060010180546103b590610bd9565b80601f01602080910402602001604051908101604052809291908181526020018280546103e190610bd9565b801561042e5780601f106104035761010080835404028352916020019161042e565b820191906000526020600020905b81548152906001019060200180831161041157829003601f168201915b5050505050908060020154908060030160009054906101000a900473ffffffffffffffffffffffffffffffffffffffff16908060040154905085565b6060600260008373ffffffffffffffffffffffffffffffffffffffff1673ffffffffffffffffffffffffffffffffffffffff1681526020019081526020016000208054806020026020016040519081016040528092919081815260200182805480156104f557602002820191906000526020600020905b8154815260200190600101908083116104e1575b50505050509050919050565b60005481565b6002602052816000526040600020818154811061052357600080fd5b90600052602060002001600091509150505481565b600360009054906101000a900473ffffffffffffffffffffffffffffffffffffffff1681565b6000604051905090565b600080fd5b600080fd5b600080fd5b600080fd5b6000601f19601f8301169050919050565b7f4e487b7100000000000000000000000000000000000000000000000000000000600052604160045260246000fd5b6105c58261057c565b810181811067ffffffffffffffff821117156105e4576105e361058d565b5b80604052505050565b60006105f761055e565b905061060382826105bc565b919050565b600067ffffffffffffffff8211156106235761062261058d565b5b61062c8261057c565b9050602081019050919050565b82818337600083830152505050565b600061065b61065684610608565b6105ed565b90508281526020810184848401111561067757610676610577565b5b610682848285610639565b509392505050565b600082601f83011261069f5761069e610572565b5b81356106af848260208601610648565b91505092915050565b6000819050919050565b6106cb816106b8565b81146106d657600080fd5b50565b6000813590506106e8816106c2565b92915050565b600073ffffffffffffffffffffffffffffffffffffffff82169050919050565b6000610719826106ee565b9050919050565b6107298161070e565b811461073457600080fd5b50565b60008135905061074681610720565b92915050565b60008060006060848603121561076557610764610568565b5b600084013567ffffffffffffffff8111156107835761078261056d565b5b61078f8682870161068a565b93505060206107a0868287016106d9565b92505060406107b186828701610737565b9150509250925092565b6000602082840312156107d1576107d0610568565b5b60006107df848285016106d9565b91505092915050565b6107f1816106b8565b82525050565b600081519050919050565b600082825260208201905092915050565b60005b83811015610831578082015181840152602081019050610816565b60008484015250505050565b6000610848826107f7565b6108528185610802565b9350610862818560208601610813565b61086b8161057c565b840191505092915050565b61087f8161070e565b82525050565b600060a08201905061089a60008301886107e8565b81810360208301526108ac818761083d565b90506108bb60408301866107e8565b6108c86060830185610876565b6108d560808301846107e8565b9695505050505050565b6000602082840312156108f5576108f4610568565b5b600061090384828501610737565b91505092915050565b600081519050919050565b600082825260208201905092915050565b6000819050602082019050919050565b610941816106b8565b82525050565b60006109538383610938565b60208301905092915050565b6000602082019050919050565b60006109778261090c565b6109818185610917565b935061098c83610928565b8060005b838110156109bd5781516109a48882610947565b97506109af8361095f565b925050600181019050610990565b5085935050505092915050565b600060208201905081810360008301526109e4818461096c565b905092915050565b6000602082019050610a0160008301846107e8565b92915050565b60008060408385031215610a1e57610a1d610568565b5b6000610a2c85828601610737565b9250506020610a3d858286016106d9565b9150509250929050565b6000819050919050565b6000610a6c610a67610a62846106ee565b610a47565b6106ee565b9050919050565b6000610a7e82610a51565b9050919050565b6000610a9082610a73565b9050919050565b610aa081610a85565b82525050565b6000602082019050610abb6000830184610a97565b92915050565b7f4e487b7100000000000000000000000000000000000000000000000000000000600052601160045260246000fd5b6000610afb826106b8565b91507fffffffffffffffffffffffffffffffffffffffffffffffffffffffffffffffff8203610b2d57610b2c610ac1565b5b600182019050919050565b60006040820190508181036000830152610b52818561083d565b9050610b616020830184610876565b9392505050565b600081519050610b77816106c2565b92915050565b600060208284031215610b9357610b92610568565b5b6000610ba184828501610b68565b91505092915050565b7f4e487b7100000000000000000000000000000000000000000000000000000000600052602260045260246000fd5b60006002820490506001821680610bf157607f821691505b602082108103610c0457610c03610baa565b5b50919050565b60008190508160005260206000209050919050565b60006020601f8301049050919050565b600082821b905092915050565b600060088302610c6c7fffffffffffffffffffffffffffffffffffffffffffffffffffffffffffffffff82610c2f565b610c768683610c2f565b95508019841693508086168417925050509392505050565b6000610ca9610ca4610c9f846106b8565b610a47565b6106b8565b9050919050565b6000819050919050565b610cc383610c8e565b610cd7610ccf82610cb0565b848454610c3c565b825550505050565b600090565b610cec610cdf565b610cf7818484610cba565b505050565b5b81811015610d1b57610d10600082610ce4565b600181019050610cfd565b5050565b601f821115610d6057610d3181610c0a565b610d3a84610c1f565b81016020851015610d49578190505b610d5d610d5585610c1f565b830182610cfc565b50505b505050565b600082821c905092915050565b6000610d8360001984600802610d65565b1980831691505092915050565b6000610d9c8383610d72565b9150826002028217905092915050565b610db5826107f7565b67ffffffffffffffff811115610dce57610dcd61058d565b5b610dd88254610bd9565b610de3828285610d1f565b600060209050601f831160018114610e165760008415610e04578287015190505b610e0e8582610d90565b865550610e76565b601f198416610e2486610c0a565b60005b82811015610e4c57848901518255600182019150602085019450602081019050610e27565b86831015610e695784890151610e65601f891682610d72565b8355505b6001600288020188555050505b505050505050565b6000608082019050610e9360008301876107e8565b8181036020830152610ea5818661083d565b9050610eb460408301856107e8565b610ec16060830184610876565b9594505050505056fea26469706673582212207b70f98fe3b57d7597251b13f723261911f0fabe9c0d38344a43fe281b0c664d64736f6c63430008120033",
  "immutableReferences": {},
  "source": "// SPDX-License-Identifier: GPL-3.0\n\npragma solidity >=0.7.0 <0.9.0;\n/**\n   * @title LandRecord\n   * @dev this contract creates all parameters for users and creates token\n   * @custom:dev-run-script scripts/deploy_with_ethers.ts\n   */\n\nimport \"./LandRecordToken.sol\";\n\ncontract LandRecord {\n    struct Record {\n        uint id;\n        string ownerName;\n        uint area;\n        address ownerAddress;\n        uint tokenId;\n    }\n\n    uint public recordCount;\n    mapping (uint => Record) public records;\n    mapping (address => uint[]) public ownerRecords;\n\n    LandRecordToken public token;\n\n    event RecordCreated(uint id, string ownerName, uint area, address ownerAddress);\n\n    constructor(LandRecordToken _token) {\n        token = _token;\n    }\n\n    function createRecord(string memory _ownerName, uint _area, address _ownerAddress) public {\n        recordCount++;\n        uint tokenId = token.createToken(_ownerName, _ownerAddress);\n        records[recordCount] = Record(recordCount, _ownerName, _area, _ownerAddress, tokenId);\n        ownerRecords[_ownerAddress].push(recordCount);\n        emit RecordCreated(recordCount, _ownerName, _area, _ownerAddress);\n    }\n\n    function getRecordsByOwner(address _ownerAddress) public view returns (uint[] memory) {\n        return ownerRecords[_ownerAddress];\n    }\n}\n",
  "sourcePath": "/home/shakil/Desktop/BLRM-Solidity/contracts/LandRecord.sol",
  "compiler": {
    "name": "solc",
    "version": "0.8.18+commit.87f61d96.Emscripten.clang"
  },
  "schemaVersion": "3.4.13",
  "updatedAt": "2023-05-17T04:33:55.237Z",
  "devdoc": {
    "kind": "dev",
    "methods": {},
    "version": 1
  },
  "userdoc": {
    "kind": "user",
    "methods": {},
    "version": 1
  }
}