{
  "contractName": "LandRegistration",
  "abi": [
    {
      "inputs": [],
      "stateMutability": "nonpayable",
      "type": "constructor"
    },
    {
      "anonymous": false,
      "inputs": [
        {
          "indexed": true,
          "internalType": "bytes32",
          "name": "khatianHash",
          "type": "bytes32"
        }
      ],
      "name": "CreationOfKhatian",
      "type": "event"
    },
    {
      "anonymous": false,
      "inputs": [
        {
          "indexed": true,
          "internalType": "bytes32",
          "name": "plotHash",
          "type": "bytes32"
        }
      ],
      "name": "CreationOfPlot",
      "type": "event"
    },
    {
      "anonymous": false,
      "inputs": [
        {
          "indexed": true,
          "internalType": "address",
          "name": "userAddress",
          "type": "address"
        },
        {
          "indexed": true,
          "internalType": "uint256",
          "name": "userId",
          "type": "uint256"
        }
      ],
      "name": "CreationOfUser",
      "type": "event"
    },
    {
      "stateMutability": "payable",
      "type": "fallback"
    },
    {
      "inputs": [
        {
          "internalType": "uint256",
          "name": "",
          "type": "uint256"
        }
      ],
      "name": "khatianArray",
      "outputs": [
        {
          "internalType": "bytes32",
          "name": "",
          "type": "bytes32"
        }
      ],
      "stateMutability": "view",
      "type": "function"
    },
    {
      "inputs": [
        {
          "internalType": "bytes32",
          "name": "",
          "type": "bytes32"
        }
      ],
      "name": "khatianMapping",
      "outputs": [
        {
          "internalType": "uint64",
          "name": "khatianiId",
          "type": "uint64"
        },
        {
          "internalType": "bytes32",
          "name": "plotHash",
          "type": "bytes32"
        },
        {
          "internalType": "uint16",
          "name": "percentOwn",
          "type": "uint16"
        },
        {
          "internalType": "bytes32",
          "name": "buyFrom",
          "type": "bytes32"
        },
        {
          "internalType": "bool",
          "name": "isExist",
          "type": "bool"
        }
      ],
      "stateMutability": "view",
      "type": "function"
    },
    {
      "inputs": [
        {
          "internalType": "uint256",
          "name": "",
          "type": "uint256"
        }
      ],
      "name": "plotArray",
      "outputs": [
        {
          "internalType": "bytes32",
          "name": "",
          "type": "bytes32"
        }
      ],
      "stateMutability": "view",
      "type": "function"
    },
    {
      "inputs": [
        {
          "internalType": "bytes32",
          "name": "",
          "type": "bytes32"
        }
      ],
      "name": "plotMapping",
      "outputs": [
        {
          "internalType": "bytes32",
          "name": "division",
          "type": "bytes32"
        },
        {
          "internalType": "bytes32",
          "name": "district",
          "type": "bytes32"
        },
        {
          "internalType": "bytes32",
          "name": "thana",
          "type": "bytes32"
        },
        {
          "internalType": "uint16",
          "name": "JLNo",
          "type": "uint16"
        },
        {
          "internalType": "uint16",
          "name": "plotNo",
          "type": "uint16"
        },
        {
          "internalType": "uint8",
          "name": "plotType",
          "type": "uint8"
        },
        {
          "internalType": "uint32",
          "name": "plotArea",
          "type": "uint32"
        },
        {
          "internalType": "bool",
          "name": "isExist",
          "type": "bool"
        }
      ],
      "stateMutability": "view",
      "type": "function"
    },
    {
      "inputs": [],
      "name": "userCount",
      "outputs": [
        {
          "internalType": "uint256",
          "name": "",
          "type": "uint256"
        }
      ],
      "stateMutability": "view",
      "type": "function"
    },
    {
      "inputs": [
        {
          "internalType": "address",
          "name": "",
          "type": "address"
        }
      ],
      "name": "userMapping",
      "outputs": [
        {
          "internalType": "bytes32",
          "name": "fullName",
          "type": "bytes32"
        },
        {
          "internalType": "bytes32",
          "name": "fatherName",
          "type": "bytes32"
        },
        {
          "internalType": "bytes32",
          "name": "motherName",
          "type": "bytes32"
        },
        {
          "internalType": "bytes32",
          "name": "district",
          "type": "bytes32"
        },
        {
          "internalType": "bytes32",
          "name": "thana",
          "type": "bytes32"
        },
        {
          "internalType": "uint256",
          "name": "postCode",
          "type": "uint256"
        },
        {
          "internalType": "bytes32",
          "name": "village",
          "type": "bytes32"
        },
        {
          "internalType": "bytes32",
          "name": "email",
          "type": "bytes32"
        },
        {
          "internalType": "uint256",
          "name": "dob",
          "type": "uint256"
        },
        {
          "internalType": "uint256",
          "name": "totalTax",
          "type": "uint256"
        },
        {
          "internalType": "string",
          "name": "fingerprint",
          "type": "string"
        },
        {
          "internalType": "bool",
          "name": "isExist",
          "type": "bool"
        }
      ],
      "stateMutability": "view",
      "type": "function"
    },
    {
      "inputs": [
        {
          "internalType": "address",
          "name": "",
          "type": "address"
        }
      ],
      "name": "userOwnedMapping",
      "outputs": [
        {
          "internalType": "uint256",
          "name": "number",
          "type": "uint256"
        }
      ],
      "stateMutability": "view",
      "type": "function"
    },
    {
      "stateMutability": "payable",
      "type": "receive"
    },
    {
      "inputs": [],
      "name": "createUser",
      "outputs": [],
      "stateMutability": "nonpayable",
      "type": "function"
    },
    {
      "inputs": [
        {
          "internalType": "uint64",
          "name": "khatianiId",
          "type": "uint64"
        },
        {
          "internalType": "bytes32",
          "name": "plotHash",
          "type": "bytes32"
        }
      ],
      "name": "createKhatian",
      "outputs": [],
      "stateMutability": "nonpayable",
      "type": "function"
    },
    {
      "inputs": [
        {
          "internalType": "bytes32",
          "name": "plotHash",
          "type": "bytes32"
        },
        {
          "internalType": "bytes32",
          "name": "division",
          "type": "bytes32"
        },
        {
          "internalType": "bytes32",
          "name": "district",
          "type": "bytes32"
        },
        {
          "internalType": "bytes32",
          "name": "thana",
          "type": "bytes32"
        },
        {
          "internalType": "uint16",
          "name": "JLNo",
          "type": "uint16"
        },
        {
          "internalType": "uint16",
          "name": "plotNo",
          "type": "uint16"
        },
        {
          "internalType": "uint8",
          "name": "plotType",
          "type": "uint8"
        },
        {
          "internalType": "uint32",
          "name": "plotArea",
          "type": "uint32"
        }
      ],
      "name": "createPlot",
      "outputs": [],
      "stateMutability": "nonpayable",
      "type": "function"
    },
    {
      "inputs": [
        {
          "internalType": "address",
          "name": "_address",
          "type": "address"
        }
      ],
      "name": "getUserByAddress",
      "outputs": [
        {
          "components": [
            {
              "internalType": "bytes32",
              "name": "fullName",
              "type": "bytes32"
            },
            {
              "internalType": "bytes32",
              "name": "fatherName",
              "type": "bytes32"
            },
            {
              "internalType": "bytes32",
              "name": "motherName",
              "type": "bytes32"
            },
            {
              "internalType": "bytes32",
              "name": "district",
              "type": "bytes32"
            },
            {
              "internalType": "bytes32",
              "name": "thana",
              "type": "bytes32"
            },
            {
              "internalType": "uint256",
              "name": "postCode",
              "type": "uint256"
            },
            {
              "internalType": "bytes32",
              "name": "village",
              "type": "bytes32"
            },
            {
              "internalType": "bytes32",
              "name": "email",
              "type": "bytes32"
            },
            {
              "internalType": "uint256",
              "name": "dob",
              "type": "uint256"
            },
            {
              "internalType": "uint256",
              "name": "totalTax",
              "type": "uint256"
            },
            {
              "internalType": "string",
              "name": "fingerprint",
              "type": "string"
            },
            {
              "internalType": "bool",
              "name": "isExist",
              "type": "bool"
            }
          ],
          "internalType": "struct LandRegistration.User",
          "name": "",
          "type": "tuple"
        }
      ],
      "stateMutability": "view",
      "type": "function"
    },
    {
      "inputs": [
        {
          "internalType": "address",
          "name": "_address",
          "type": "address"
        }
      ],
      "name": "getUserOwnedByAddress",
      "outputs": [
        {
          "components": [
            {
              "internalType": "uint256",
              "name": "number",
              "type": "uint256"
            },
            {
              "internalType": "bytes32[]",
              "name": "khatianList",
              "type": "bytes32[]"
            }
          ],
          "internalType": "struct LandRegistration.UserOwned",
          "name": "",
          "type": "tuple"
        }
      ],
      "stateMutability": "view",
      "type": "function"
    },
    {
      "inputs": [
        {
          "internalType": "address",
          "name": "_address",
          "type": "address"
        },
        {
          "internalType": "bytes32",
          "name": "fullName",
          "type": "bytes32"
        }
      ],
      "name": "updateUserFullName",
      "outputs": [],
      "stateMutability": "nonpayable",
      "type": "function"
    },
    {
      "inputs": [
        {
          "internalType": "address",
          "name": "_address",
          "type": "address"
        },
        {
          "internalType": "bytes32",
          "name": "fatherName",
          "type": "bytes32"
        }
      ],
      "name": "updateUserFatherName",
      "outputs": [],
      "stateMutability": "nonpayable",
      "type": "function"
    },
    {
      "inputs": [
        {
          "internalType": "address",
          "name": "_address",
          "type": "address"
        },
        {
          "internalType": "bytes32",
          "name": "motherName",
          "type": "bytes32"
        }
      ],
      "name": "updateUserMotherName",
      "outputs": [],
      "stateMutability": "nonpayable",
      "type": "function"
    },
    {
      "inputs": [
        {
          "internalType": "address",
          "name": "_address",
          "type": "address"
        },
        {
          "internalType": "bytes32",
          "name": "district",
          "type": "bytes32"
        }
      ],
      "name": "updateUserDistrict",
      "outputs": [],
      "stateMutability": "nonpayable",
      "type": "function"
    },
    {
      "inputs": [
        {
          "internalType": "address",
          "name": "_address",
          "type": "address"
        },
        {
          "internalType": "bytes32",
          "name": "thana",
          "type": "bytes32"
        }
      ],
      "name": "updateUserThana",
      "outputs": [],
      "stateMutability": "nonpayable",
      "type": "function"
    },
    {
      "inputs": [
        {
          "internalType": "address",
          "name": "_address",
          "type": "address"
        },
        {
          "internalType": "uint256",
          "name": "postCode",
          "type": "uint256"
        }
      ],
      "name": "updateUserPostCode",
      "outputs": [],
      "stateMutability": "nonpayable",
      "type": "function"
    },
    {
      "inputs": [
        {
          "internalType": "address",
          "name": "_address",
          "type": "address"
        },
        {
          "internalType": "bytes32",
          "name": "village",
          "type": "bytes32"
        }
      ],
      "name": "updateUserVillage",
      "outputs": [],
      "stateMutability": "nonpayable",
      "type": "function"
    },
    {
      "inputs": [
        {
          "internalType": "address",
          "name": "_address",
          "type": "address"
        },
        {
          "internalType": "bytes32",
          "name": "email",
          "type": "bytes32"
        }
      ],
      "name": "updateUserEmail",
      "outputs": [],
      "stateMutability": "nonpayable",
      "type": "function"
    },
    {
      "inputs": [
        {
          "internalType": "address",
          "name": "_address",
          "type": "address"
        },
        {
          "internalType": "uint256",
          "name": "dob",
          "type": "uint256"
        }
      ],
      "name": "updateUserDOB",
      "outputs": [],
      "stateMutability": "nonpayable",
      "type": "function"
    },
    {
      "inputs": [
        {
          "internalType": "address",
          "name": "_address",
          "type": "address"
        },
        {
          "internalType": "uint256",
          "name": "totalTax",
          "type": "uint256"
        }
      ],
      "name": "updateUserTotalTax",
      "outputs": [],
      "stateMutability": "nonpayable",
      "type": "function"
    },
    {
      "inputs": [
        {
          "internalType": "address",
          "name": "_address",
          "type": "address"
        },
        {
          "internalType": "string",
          "name": "fingerprint",
          "type": "string"
        }
      ],
      "name": "updateFingerprint",
      "outputs": [],
      "stateMutability": "nonpayable",
      "type": "function"
    },
    {
      "inputs": [
        {
          "internalType": "uint256",
          "name": "id",
          "type": "uint256"
        }
      ],
      "name": "getKhatianHashById",
      "outputs": [
        {
          "internalType": "bytes32",
          "name": "",
          "type": "bytes32"
        }
      ],
      "stateMutability": "view",
      "type": "function"
    },
    {
      "inputs": [
        {
          "internalType": "uint256",
          "name": "id",
          "type": "uint256"
        }
      ],
      "name": "getPlotHashById",
      "outputs": [
        {
          "internalType": "bytes32",
          "name": "",
          "type": "bytes32"
        }
      ],
      "stateMutability": "view",
      "type": "function"
    },
    {
      "inputs": [
        {
          "internalType": "bytes32",
          "name": "khatianHash",
          "type": "bytes32"
        }
      ],
      "name": "getKhatianByHash",
      "outputs": [
        {
          "components": [
            {
              "internalType": "uint64",
              "name": "khatianiId",
              "type": "uint64"
            },
            {
              "internalType": "bytes32",
              "name": "plotHash",
              "type": "bytes32"
            },
            {
              "internalType": "uint16",
              "name": "percentOwn",
              "type": "uint16"
            },
            {
              "internalType": "bytes32",
              "name": "buyFrom",
              "type": "bytes32"
            },
            {
              "internalType": "bytes32[]",
              "name": "sellTo",
              "type": "bytes32[]"
            },
            {
              "internalType": "uint16[]",
              "name": "sellPercentage",
              "type": "uint16[]"
            },
            {
              "internalType": "uint256[]",
              "name": "ownerArray",
              "type": "uint256[]"
            },
            {
              "internalType": "uint16[]",
              "name": "perOwnerPercentage",
              "type": "uint16[]"
            },
            {
              "internalType": "bool",
              "name": "isExist",
              "type": "bool"
            }
          ],
          "internalType": "struct LandRegistration.Khatian",
          "name": "",
          "type": "tuple"
        }
      ],
      "stateMutability": "view",
      "type": "function"
    },
    {
      "inputs": [
        {
          "internalType": "bytes32",
          "name": "plotHash",
          "type": "bytes32"
        }
      ],
      "name": "getPlotByHash",
      "outputs": [
        {
          "components": [
            {
              "internalType": "bytes32",
              "name": "division",
              "type": "bytes32"
            },
            {
              "internalType": "bytes32",
              "name": "district",
              "type": "bytes32"
            },
            {
              "internalType": "bytes32",
              "name": "thana",
              "type": "bytes32"
            },
            {
              "internalType": "uint16",
              "name": "JLNo",
              "type": "uint16"
            },
            {
              "internalType": "uint16",
              "name": "plotNo",
              "type": "uint16"
            },
            {
              "internalType": "uint8",
              "name": "plotType",
              "type": "uint8"
            },
            {
              "internalType": "uint32",
              "name": "plotArea",
              "type": "uint32"
            },
            {
              "internalType": "bool",
              "name": "isExist",
              "type": "bool"
            }
          ],
          "internalType": "struct LandRegistration.Plot",
          "name": "",
          "type": "tuple"
        }
      ],
      "stateMutability": "view",
      "type": "function"
    }
  ],
  "bytecode": "0x608060405234801561000f575f80fd5b505f60068190555061354f806100245f395ff3fe60806040526004361061019f575f3560e01c806369c212f6116100eb578063b2865b1911610089578063c9112d5911610063578063c9112d591461060e578063ca67c07414610636578063cc3f755914610672578063effdc6f81461069a576101a6565b8063b2865b1914610567578063b655fda2146105aa578063c8a62b21146105d2576101a6565b806381f1d75c116100c557806381f1d75c146104b35780638459c305146104db57806395d5712c14610503578063a9d54e8f1461053f576101a6565b806369c212f61461042757806373bb756e146104635780637d5e5f3e1461048b576101a6565b806332889d98116101585780635cb99c03116101325780635cb99c031461035f5780635cd5ad251461039b5780635d0decc3146103d7578063638dfea9146103ff576101a6565b806332889d98146102cf5780634257d82a146102f7578063490b3e601461031f576101a6565b806302c5a651146101a857806307973ccf146101d05780631021ee9c146101fa578063118b95351461023657806311a8aeaf1461027d57806325ad91ce146102b9576101a6565b366101a657005b005b3480156101b3575f80fd5b506101ce60048036038101906101c991906120bb565b6106d6565b005b3480156101db575f80fd5b506101e46107a9565b6040516101f19190612111565b60405180910390f35b348015610205575f80fd5b50610220600480360381019061021b919061212a565b6107af565b60405161022d9190612255565b60405180910390f35b348015610241575f80fd5b5061025c6004803603810190610257919061212a565b6108e6565b6040516102749c9b9a99989796959493929190612328565b60405180910390f35b348015610288575f80fd5b506102a3600480360381019061029e9190612411565b6109d3565b6040516102b0919061243c565b60405180910390f35b3480156102c4575f80fd5b506102cd6109f3565b005b3480156102da575f80fd5b506102f560048036038101906102f09190612581565b610bc1565b005b348015610302575f80fd5b5061031d60048036038101906103189190612618565b610c9d565b005b34801561032a575f80fd5b5061034560048036038101906103409190612656565b610de1565b6040516103569594939291906126ac565b60405180910390f35b34801561036a575f80fd5b5061038560048036038101906103809190612656565b610e3f565b6040516103929190612951565b60405180910390f35b3480156103a6575f80fd5b506103c160048036038101906103bc9190612411565b6110ee565b6040516103ce919061243c565b60405180910390f35b3480156103e2575f80fd5b506103fd60048036038101906103f891906120bb565b611172565b005b34801561040a575f80fd5b50610425600480360381019061042091906120bb565b611245565b005b348015610432575f80fd5b5061044d6004803603810190610448919061212a565b611318565b60405161045a9190612aba565b60405180910390f35b34801561046e575f80fd5b5061048960048036038101906104849190612ada565b611507565b005b348015610496575f80fd5b506104b160048036038101906104ac9190612ada565b6115da565b005b3480156104be575f80fd5b506104d960048036038101906104d491906120bb565b6116ad565b005b3480156104e6575f80fd5b5061050160048036038101906104fc9190612ada565b611780565b005b34801561050e575f80fd5b5061052960048036038101906105249190612656565b611853565b6040516105369190612bf1565b60405180910390f35b34801561054a575f80fd5b50610565600480360381019061056091906120bb565b61199a565b005b348015610572575f80fd5b5061058d60048036038101906105889190612656565b611a6d565b6040516105a1989796959493929190612c29565b60405180910390f35b3480156105b5575f80fd5b506105d060048036038101906105cb91906120bb565b611af6565b005b3480156105dd575f80fd5b506105f860048036038101906105f3919061212a565b611bc8565b6040516106059190612111565b60405180910390f35b348015610619575f80fd5b50610634600480360381019061062f9190612d23565b611be2565b005b348015610641575f80fd5b5061065c60048036038101906106579190612411565b611d6a565b604051610669919061243c565b60405180910390f35b34801561067d575f80fd5b50610698600480360381019061069391906120bb565b611d8a565b005b3480156106a5575f80fd5b506106c060048036038101906106bb9190612411565b611e5d565b6040516106cd919061243c565b60405180910390f35b5f803373ffffffffffffffffffffffffffffffffffffffff1673ffffffffffffffffffffffffffffffffffffffff1681526020019081526020015f20600b015f9054906101000a900460ff16610761576040517f08c379a000000000000000000000000000000000000000000000000000000000815260040161075890612e1e565b60405180910390fd5b805f808473ffffffffffffffffffffffffffffffffffffffff1673ffffffffffffffffffffffffffffffffffffffff1681526020019081526020015f20600301819055505050565b60065481565b6107b7611ee1565b5f60015f8473ffffffffffffffffffffffffffffffffffffffff1673ffffffffffffffffffffffffffffffffffffffff1681526020019081526020015f205f015411610838576040517f08c379a000000000000000000000000000000000000000000000000000000000815260040161082f90612e86565b60405180910390fd5b60015f8373ffffffffffffffffffffffffffffffffffffffff1673ffffffffffffffffffffffffffffffffffffffff1681526020019081526020015f206040518060400160405290815f8201548152602001600182018054806020026020016040519081016040528092919081815260200182805480156108d657602002820191905f5260205f20905b8154815260200190600101908083116108c2575b5050505050815250509050919050565b5f602052805f5260405f205f91509050805f01549080600101549080600201549080600301549080600401549080600501549080600601549080600701549080600801549080600901549080600a01805461094090612ed1565b80601f016020809104026020016040519081016040528092919081815260200182805461096c90612ed1565b80156109b75780601f1061098e576101008083540402835291602001916109b7565b820191905f5260205f20905b81548152906001019060200180831161099a57829003601f168201915b50505050509080600b015f9054906101000a900460ff1690508c565b600581815481106109e2575f80fd5b905f5260205f20015f915090505481565b5f803373ffffffffffffffffffffffffffffffffffffffff1673ffffffffffffffffffffffffffffffffffffffff1681526020019081526020015f20600b015f9054906101000a900460ff1615610a7f576040517f08c379a0000000000000000000000000000000000000000000000000000000008152600401610a7690612f4b565b60405180910390fd5b5f805f3373ffffffffffffffffffffffffffffffffffffffff1673ffffffffffffffffffffffffffffffffffffffff1681526020019081526020015f2090505f801b815f01819055505f801b81600101819055505f801b81600201819055505f801b81600301819055505f801b81600401819055505f81600501819055505f801b81600601819055505f801b81600701819055505f81600801819055505f816009018190555060405180602001604052805f81525081600a019081610b449190613106565b50600181600b015f6101000a81548160ff02191690831515021790555060065f815480929190610b7390613202565b91905055506006543373ffffffffffffffffffffffffffffffffffffffff167fb23e32d17aa5bd5150257cb0f0484e7af024e3174fa58f18526866759440b5f160405160405180910390a350565b5f803373ffffffffffffffffffffffffffffffffffffffff1673ffffffffffffffffffffffffffffffffffffffff1681526020019081526020015f20600b015f9054906101000a900460ff16610c4c576040517f08c379a0000000000000000000000000000000000000000000000000000000008152600401610c4390612e1e565b60405180910390fd5b805f808473ffffffffffffffffffffffffffffffffffffffff1673ffffffffffffffffffffffffffffffffffffffff1681526020019081526020015f20600a019081610c989190613106565b505050565b60025f8281526020019081526020015f206008015f9054906101000a900460ff1615610cfe576040517f08c379a0000000000000000000000000000000000000000000000000000000008152600401610cf590613293565b60405180910390fd5b5f60025f8381526020019081526020015f20905082815f015f6101000a81548167ffffffffffffffff021916908367ffffffffffffffff1602179055508181600101819055505f816002015f6101000a81548161ffff021916908361ffff1602179055505f801b81600301819055506001816008015f6101000a81548160ff021916908315150217905550600482908060018154018082558091505060019003905f5260205f20015f9091909190915055817fc8087d40871a0423fb8f59afd44e84b66c9030e0d4156eb69b46af475c96102160405160405180910390a2505050565b6002602052805f5260405f205f91509050805f015f9054906101000a900467ffffffffffffffff1690806001015490806002015f9054906101000a900461ffff1690806003015490806008015f9054906101000a900460ff16905085565b610e47611efa565b60025f8381526020019081526020015f206008015f9054906101000a900460ff16610ea7576040517f08c379a0000000000000000000000000000000000000000000000000000000008152600401610e9e906132fb565b60405180910390fd5b60025f8381526020019081526020015f20604051806101200160405290815f82015f9054906101000a900467ffffffffffffffff1667ffffffffffffffff1667ffffffffffffffff16815260200160018201548152602001600282015f9054906101000a900461ffff1661ffff1661ffff1681526020016003820154815260200160048201805480602002602001604051908101604052809291908181526020018280548015610f7457602002820191905f5260205f20905b815481526020019060010190808311610f60575b5050505050815260200160058201805480602002602001604051908101604052809291908181526020018280548015610ff157602002820191905f5260205f20905f905b82829054906101000a900461ffff1661ffff1681526020019060020190602082600101049283019260010382029150808411610fb85790505b505050505081526020016006820180548060200260200160405190810160405280929190818152602001828054801561104757602002820191905f5260205f20905b815481526020019060010190808311611033575b50505050508152602001600782018054806020026020016040519081016040528092919081815260200182805480156110c457602002820191905f5260205f20905f905b82829054906101000a900461ffff1661ffff168152602001906002019060208260010104928301926001038202915080841161108b5790505b50505050508152602001600882015f9054906101000a900460ff1615151515815250509050919050565b5f808211801561110357506004805490508211155b611142576040517f08c379a000000000000000000000000000000000000000000000000000000000815260040161113990613363565b60405180910390fd5b60046001836111519190613381565b81548110611162576111616133b4565b5b905f5260205f2001549050919050565b5f803373ffffffffffffffffffffffffffffffffffffffff1673ffffffffffffffffffffffffffffffffffffffff1681526020019081526020015f20600b015f9054906101000a900460ff166111fd576040517f08c379a00000000000000000000000000000000000000000000000000000000081526004016111f490612e1e565b60405180910390fd5b805f808473ffffffffffffffffffffffffffffffffffffffff1673ffffffffffffffffffffffffffffffffffffffff1681526020019081526020015f20600601819055505050565b5f803373ffffffffffffffffffffffffffffffffffffffff1673ffffffffffffffffffffffffffffffffffffffff1681526020019081526020015f20600b015f9054906101000a900460ff166112d0576040517f08c379a00000000000000000000000000000000000000000000000000000000081526004016112c790612e1e565b60405180910390fd5b805f808473ffffffffffffffffffffffffffffffffffffffff1673ffffffffffffffffffffffffffffffffffffffff1681526020019081526020015f20600101819055505050565b611320611f57565b5f808373ffffffffffffffffffffffffffffffffffffffff1673ffffffffffffffffffffffffffffffffffffffff1681526020019081526020015f20600b015f9054906101000a900460ff166113ab576040517f08c379a00000000000000000000000000000000000000000000000000000000081526004016113a290612e1e565b60405180910390fd5b5f808373ffffffffffffffffffffffffffffffffffffffff1673ffffffffffffffffffffffffffffffffffffffff1681526020019081526020015f20604051806101800160405290815f8201548152602001600182015481526020016002820154815260200160038201548152602001600482015481526020016005820154815260200160068201548152602001600782015481526020016008820154815260200160098201548152602001600a8201805461146690612ed1565b80601f016020809104026020016040519081016040528092919081815260200182805461149290612ed1565b80156114dd5780601f106114b4576101008083540402835291602001916114dd565b820191905f5260205f20905b8154815290600101906020018083116114c057829003601f168201915b50505050508152602001600b82015f9054906101000a900460ff1615151515815250509050919050565b5f803373ffffffffffffffffffffffffffffffffffffffff1673ffffffffffffffffffffffffffffffffffffffff1681526020019081526020015f20600b015f9054906101000a900460ff16611592576040517f08c379a000000000000000000000000000000000000000000000000000000000815260040161158990612e1e565b60405180910390fd5b805f808473ffffffffffffffffffffffffffffffffffffffff1673ffffffffffffffffffffffffffffffffffffffff1681526020019081526020015f20600901819055505050565b5f803373ffffffffffffffffffffffffffffffffffffffff1673ffffffffffffffffffffffffffffffffffffffff1681526020019081526020015f20600b015f9054906101000a900460ff16611665576040517f08c379a000000000000000000000000000000000000000000000000000000000815260040161165c90612e1e565b60405180910390fd5b805f808473ffffffffffffffffffffffffffffffffffffffff1673ffffffffffffffffffffffffffffffffffffffff1681526020019081526020015f20600801819055505050565b5f803373ffffffffffffffffffffffffffffffffffffffff1673ffffffffffffffffffffffffffffffffffffffff1681526020019081526020015f20600b015f9054906101000a900460ff16611738576040517f08c379a000000000000000000000000000000000000000000000000000000000815260040161172f90612e1e565b60405180910390fd5b805f808473ffffffffffffffffffffffffffffffffffffffff1673ffffffffffffffffffffffffffffffffffffffff1681526020019081526020015f20600701819055505050565b5f803373ffffffffffffffffffffffffffffffffffffffff1673ffffffffffffffffffffffffffffffffffffffff1681526020019081526020015f20600b015f9054906101000a900460ff1661180b576040517f08c379a000000000000000000000000000000000000000000000000000000000815260040161180290612e1e565b60405180910390fd5b805f808473ffffffffffffffffffffffffffffffffffffffff1673ffffffffffffffffffffffffffffffffffffffff1681526020019081526020015f20600501819055505050565b61185b611fc4565b60035f8381526020019081526020015f2060030160099054906101000a900460ff166118bc576040517f08c379a00000000000000000000000000000000000000000000000000000000081526004016118b39061342b565b60405180910390fd5b60035f8381526020019081526020015f20604051806101000160405290815f82015481526020016001820154815260200160028201548152602001600382015f9054906101000a900461ffff1661ffff1661ffff1681526020016003820160029054906101000a900461ffff1661ffff1661ffff1681526020016003820160049054906101000a900460ff1660ff1660ff1681526020016003820160059054906101000a900463ffffffff1663ffffffff1663ffffffff1681526020016003820160099054906101000a900460ff1615151515815250509050919050565b5f803373ffffffffffffffffffffffffffffffffffffffff1673ffffffffffffffffffffffffffffffffffffffff1681526020019081526020015f20600b015f9054906101000a900460ff16611a25576040517f08c379a0000000000000000000000000000000000000000000000000000000008152600401611a1c90612e1e565b60405180910390fd5b805f808473ffffffffffffffffffffffffffffffffffffffff1673ffffffffffffffffffffffffffffffffffffffff1681526020019081526020015f20600201819055505050565b6003602052805f5260405f205f91509050805f015490806001015490806002015490806003015f9054906101000a900461ffff16908060030160029054906101000a900461ffff16908060030160049054906101000a900460ff16908060030160059054906101000a900463ffffffff16908060030160099054906101000a900460ff16905088565b5f803373ffffffffffffffffffffffffffffffffffffffff1673ffffffffffffffffffffffffffffffffffffffff1681526020019081526020015f20600b015f9054906101000a900460ff16611b81576040517f08c379a0000000000000000000000000000000000000000000000000000000008152600401611b7890612e1e565b60405180910390fd5b805f808473ffffffffffffffffffffffffffffffffffffffff1673ffffffffffffffffffffffffffffffffffffffff1681526020019081526020015f205f01819055505050565b6001602052805f5260405f205f91509050805f0154905081565b60035f8981526020019081526020015f2060030160099054906101000a900460ff1615611c44576040517f08c379a0000000000000000000000000000000000000000000000000000000008152600401611c3b90613493565b60405180910390fd5b5f60035f8a81526020019081526020015f20905087815f018190555086816001018190555085816002018190555084816003015f6101000a81548161ffff021916908361ffff160217905550838160030160026101000a81548161ffff021916908361ffff160217905550828160030160046101000a81548160ff021916908360ff160217905550818160030160056101000a81548163ffffffff021916908363ffffffff16021790555060018160030160096101000a81548160ff021916908315150217905550600589908060018154018082558091505060019003905f5260205f20015f9091909190915055887f4f8a415507f52d0e32a3c353717514afc9dc632a93e949a7478433099d16049b60405160405180910390a2505050505050505050565b60048181548110611d79575f80fd5b905f5260205f20015f915090505481565b5f803373ffffffffffffffffffffffffffffffffffffffff1673ffffffffffffffffffffffffffffffffffffffff1681526020019081526020015f20600b015f9054906101000a900460ff16611e15576040517f08c379a0000000000000000000000000000000000000000000000000000000008152600401611e0c90612e1e565b60405180910390fd5b805f808473ffffffffffffffffffffffffffffffffffffffff1673ffffffffffffffffffffffffffffffffffffffff1681526020019081526020015f20600401819055505050565b5f8082118015611e7257506005805490508211155b611eb1576040517f08c379a0000000000000000000000000000000000000000000000000000000008152600401611ea8906134fb565b60405180910390fd5b6005600183611ec09190613381565b81548110611ed157611ed06133b4565b5b905f5260205f2001549050919050565b60405180604001604052805f8152602001606081525090565b6040518061012001604052805f67ffffffffffffffff1681526020015f80191681526020015f61ffff1681526020015f8019168152602001606081526020016060815260200160608152602001606081526020015f151581525090565b6040518061018001604052805f80191681526020015f80191681526020015f80191681526020015f80191681526020015f80191681526020015f81526020015f80191681526020015f80191681526020015f81526020015f8152602001606081526020015f151581525090565b6040518061010001604052805f80191681526020015f80191681526020015f80191681526020015f61ffff1681526020015f61ffff1681526020015f60ff1681526020015f63ffffffff1681526020015f151581525090565b5f604051905090565b5f80fd5b5f80fd5b5f73ffffffffffffffffffffffffffffffffffffffff82169050919050565b5f6120578261202e565b9050919050565b6120678161204d565b8114612071575f80fd5b50565b5f813590506120828161205e565b92915050565b5f819050919050565b61209a81612088565b81146120a4575f80fd5b50565b5f813590506120b581612091565b92915050565b5f80604083850312156120d1576120d0612026565b5b5f6120de85828601612074565b92505060206120ef858286016120a7565b9150509250929050565b5f819050919050565b61210b816120f9565b82525050565b5f6020820190506121245f830184612102565b92915050565b5f6020828403121561213f5761213e612026565b5b5f61214c84828501612074565b91505092915050565b61215e816120f9565b82525050565b5f81519050919050565b5f82825260208201905092915050565b5f819050602082019050919050565b61219681612088565b82525050565b5f6121a7838361218d565b60208301905092915050565b5f602082019050919050565b5f6121c982612164565b6121d3818561216e565b93506121de8361217e565b805f5b8381101561220e5781516121f5888261219c565b9750612200836121b3565b9250506001810190506121e1565b5085935050505092915050565b5f604083015f8301516122305f860182612155565b506020830151848203602086015261224882826121bf565b9150508091505092915050565b5f6020820190508181035f83015261226d818461221b565b905092915050565b61227e81612088565b82525050565b5f81519050919050565b5f82825260208201905092915050565b5f5b838110156122bb5780820151818401526020810190506122a0565b5f8484015250505050565b5f601f19601f8301169050919050565b5f6122e082612284565b6122ea818561228e565b93506122fa81856020860161229e565b612303816122c6565b840191505092915050565b5f8115159050919050565b6123228161230e565b82525050565b5f6101808201905061233c5f83018f612275565b612349602083018e612275565b612356604083018d612275565b612363606083018c612275565b612370608083018b612275565b61237d60a083018a612102565b61238a60c0830189612275565b61239760e0830188612275565b6123a5610100830187612102565b6123b3610120830186612102565b8181036101408301526123c681856122d6565b90506123d6610160830184612319565b9d9c50505050505050505050505050565b6123f0816120f9565b81146123fa575f80fd5b50565b5f8135905061240b816123e7565b92915050565b5f6020828403121561242657612425612026565b5b5f612433848285016123fd565b91505092915050565b5f60208201905061244f5f830184612275565b92915050565b5f80fd5b5f80fd5b7f4e487b71000000000000000000000000000000000000000000000000000000005f52604160045260245ffd5b612493826122c6565b810181811067ffffffffffffffff821117156124b2576124b161245d565b5b80604052505050565b5f6124c461201d565b90506124d0828261248a565b919050565b5f67ffffffffffffffff8211156124ef576124ee61245d565b5b6124f8826122c6565b9050602081019050919050565b828183375f83830152505050565b5f612525612520846124d5565b6124bb565b90508281526020810184848401111561254157612540612459565b5b61254c848285612505565b509392505050565b5f82601f83011261256857612567612455565b5b8135612578848260208601612513565b91505092915050565b5f806040838503121561259757612596612026565b5b5f6125a485828601612074565b925050602083013567ffffffffffffffff8111156125c5576125c461202a565b5b6125d185828601612554565b9150509250929050565b5f67ffffffffffffffff82169050919050565b6125f7816125db565b8114612601575f80fd5b50565b5f81359050612612816125ee565b92915050565b5f806040838503121561262e5761262d612026565b5b5f61263b85828601612604565b925050602061264c858286016120a7565b9150509250929050565b5f6020828403121561266b5761266a612026565b5b5f612678848285016120a7565b91505092915050565b61268a816125db565b82525050565b5f61ffff82169050919050565b6126a681612690565b82525050565b5f60a0820190506126bf5f830188612681565b6126cc6020830187612275565b6126d9604083018661269d565b6126e66060830185612275565b6126f36080830184612319565b9695505050505050565b612706816125db565b82525050565b61271581612690565b82525050565b5f81519050919050565b5f82825260208201905092915050565b5f819050602082019050919050565b5f61274f838361270c565b60208301905092915050565b5f602082019050919050565b5f6127718261271b565b61277b8185612725565b935061278683612735565b805f5b838110156127b657815161279d8882612744565b97506127a88361275b565b925050600181019050612789565b5085935050505092915050565b5f81519050919050565b5f82825260208201905092915050565b5f819050602082019050919050565b5f6127f78383612155565b60208301905092915050565b5f602082019050919050565b5f612819826127c3565b61282381856127cd565b935061282e836127dd565b805f5b8381101561285e57815161284588826127ec565b975061285083612803565b925050600181019050612831565b5085935050505092915050565b6128748161230e565b82525050565b5f61012083015f8301516128905f8601826126fd565b5060208301516128a3602086018261218d565b5060408301516128b6604086018261270c565b5060608301516128c9606086018261218d565b50608083015184820360808601526128e182826121bf565b91505060a083015184820360a08601526128fb8282612767565b91505060c083015184820360c0860152612915828261280f565b91505060e083015184820360e086015261292f8282612767565b91505061010083015161294661010086018261286b565b508091505092915050565b5f6020820190508181035f830152612969818461287a565b905092915050565b5f82825260208201905092915050565b5f61298b82612284565b6129958185612971565b93506129a581856020860161229e565b6129ae816122c6565b840191505092915050565b5f61018083015f8301516129cf5f86018261218d565b5060208301516129e2602086018261218d565b5060408301516129f5604086018261218d565b506060830151612a08606086018261218d565b506080830151612a1b608086018261218d565b5060a0830151612a2e60a0860182612155565b5060c0830151612a4160c086018261218d565b5060e0830151612a5460e086018261218d565b50610100830151612a69610100860182612155565b50610120830151612a7e610120860182612155565b50610140830151848203610140860152612a988282612981565b915050610160830151612aaf61016086018261286b565b508091505092915050565b5f6020820190508181035f830152612ad281846129b9565b905092915050565b5f8060408385031215612af057612aef612026565b5b5f612afd85828601612074565b9250506020612b0e858286016123fd565b9150509250929050565b5f60ff82169050919050565b612b2d81612b18565b82525050565b5f63ffffffff82169050919050565b612b4b81612b33565b82525050565b61010082015f820151612b665f85018261218d565b506020820151612b79602085018261218d565b506040820151612b8c604085018261218d565b506060820151612b9f606085018261270c565b506080820151612bb2608085018261270c565b5060a0820151612bc560a0850182612b24565b5060c0820151612bd860c0850182612b42565b5060e0820151612beb60e085018261286b565b50505050565b5f61010082019050612c055f830184612b51565b92915050565b612c1481612b18565b82525050565b612c2381612b33565b82525050565b5f61010082019050612c3d5f83018b612275565b612c4a602083018a612275565b612c576040830189612275565b612c64606083018861269d565b612c71608083018761269d565b612c7e60a0830186612c0b565b612c8b60c0830185612c1a565b612c9860e0830184612319565b9998505050505050505050565b612cae81612690565b8114612cb8575f80fd5b50565b5f81359050612cc981612ca5565b92915050565b612cd881612b18565b8114612ce2575f80fd5b50565b5f81359050612cf381612ccf565b92915050565b612d0281612b33565b8114612d0c575f80fd5b50565b5f81359050612d1d81612cf9565b92915050565b5f805f805f805f80610100898b031215612d4057612d3f612026565b5b5f612d4d8b828c016120a7565b9850506020612d5e8b828c016120a7565b9750506040612d6f8b828c016120a7565b9650506060612d808b828c016120a7565b9550506080612d918b828c01612cbb565b94505060a0612da28b828c01612cbb565b93505060c0612db38b828c01612ce5565b92505060e0612dc48b828c01612d0f565b9150509295985092959890939650565b7f5573657220646f6573206e6f74206578697374000000000000000000000000005f82015250565b5f612e0860138361228e565b9150612e1382612dd4565b602082019050919050565b5f6020820190508181035f830152612e3581612dfc565b9050919050565b7f5573657220646f6573206e6f74206f776e20616e79206b68617469616e0000005f82015250565b5f612e70601d8361228e565b9150612e7b82612e3c565b602082019050919050565b5f6020820190508181035f830152612e9d81612e64565b9050919050565b7f4e487b71000000000000000000000000000000000000000000000000000000005f52602260045260245ffd5b5f6002820490506001821680612ee857607f821691505b602082108103612efb57612efa612ea4565b5b50919050565b7f5573657220616c726561647920657869737473000000000000000000000000005f82015250565b5f612f3560138361228e565b9150612f4082612f01565b602082019050919050565b5f6020820190508181035f830152612f6281612f29565b9050919050565b5f819050815f5260205f209050919050565b5f6020601f8301049050919050565b5f82821b905092915050565b5f60088302612fc57fffffffffffffffffffffffffffffffffffffffffffffffffffffffffffffffff82612f8a565b612fcf8683612f8a565b95508019841693508086168417925050509392505050565b5f819050919050565b5f61300a613005613000846120f9565b612fe7565b6120f9565b9050919050565b5f819050919050565b61302383612ff0565b61303761302f82613011565b848454612f96565b825550505050565b5f90565b61304b61303f565b61305681848461301a565b505050565b5b818110156130795761306e5f82613043565b60018101905061305c565b5050565b601f8211156130be5761308f81612f69565b61309884612f7b565b810160208510156130a7578190505b6130bb6130b385612f7b565b83018261305b565b50505b505050565b5f82821c905092915050565b5f6130de5f19846008026130c3565b1980831691505092915050565b5f6130f683836130cf565b9150826002028217905092915050565b61310f82612284565b67ffffffffffffffff8111156131285761312761245d565b5b6131328254612ed1565b61313d82828561307d565b5f60209050601f83116001811461316e575f841561315c578287015190505b61316685826130eb565b8655506131cd565b601f19841661317c86612f69565b5f5b828110156131a35784890151825560018201915060208501945060208101905061317e565b868310156131c057848901516131bc601f8916826130cf565b8355505b6001600288020188555050505b505050505050565b7f4e487b71000000000000000000000000000000000000000000000000000000005f52601160045260245ffd5b5f61320c826120f9565b91507fffffffffffffffffffffffffffffffffffffffffffffffffffffffffffffffff820361323e5761323d6131d5565b5b600182019050919050565b7f4b68617469616e20616c726561647920657869737473000000000000000000005f82015250565b5f61327d60168361228e565b915061328882613249565b602082019050919050565b5f6020820190508181035f8301526132aa81613271565b9050919050565b7f4b68617469616e20646f6573206e6f74206578697374000000000000000000005f82015250565b5f6132e560168361228e565b91506132f0826132b1565b602082019050919050565b5f6020820190508181035f830152613312816132d9565b9050919050565b7f496e76616c6964204b68617469616e20494400000000000000000000000000005f82015250565b5f61334d60128361228e565b915061335882613319565b602082019050919050565b5f6020820190508181035f83015261337a81613341565b9050919050565b5f61338b826120f9565b9150613396836120f9565b92508282039050818111156133ae576133ad6131d5565b5b92915050565b7f4e487b71000000000000000000000000000000000000000000000000000000005f52603260045260245ffd5b7f506c6f7420646f6573206e6f74206578697374000000000000000000000000005f82015250565b5f61341560138361228e565b9150613420826133e1565b602082019050919050565b5f6020820190508181035f83015261344281613409565b9050919050565b7f506c6f7420616c726561647920657869737473000000000000000000000000005f82015250565b5f61347d60138361228e565b915061348882613449565b602082019050919050565b5f6020820190508181035f8301526134aa81613471565b9050919050565b7f496e76616c696420506c6f7420494400000000000000000000000000000000005f82015250565b5f6134e5600f8361228e565b91506134f0826134b1565b602082019050919050565b5f6020820190508181035f830152613512816134d9565b905091905056fea2646970667358221220fc086a5260456e8fd7df26c63bf36299b5f417722a1109fe3c5262df2293eb9464736f6c63430008140033",
  "immutableReferences": {},
  "source": "\n// SPDX-License-Identifier: GPL-3.0\npragma solidity ^0.8.0;\n\npragma experimental ABIEncoderV2;\n\ncontract LandRegistration {\n    struct User {\n        bytes32 fullName;\n        bytes32 fatherName;\n        bytes32 motherName;\n        bytes32 district;\n        bytes32 thana;\n        uint256 postCode;\n        bytes32 village;\n        bytes32 email;\n        uint256 dob;\n        uint256 totalTax;\n        string fingerprint;\n        bool isExist;\n    }\n\n    struct UserOwned {\n        uint number;\n        bytes32[] khatianList;\n    }\n\n    struct Khatian {\n        uint64 khatianiId;\n        bytes32 plotHash;\n        uint16 percentOwn;\n        bytes32 buyFrom;\n        bytes32[] sellTo;\n        uint16[] sellPercentage;\n        uint[] ownerArray;\n        uint16[] perOwnerPercentage;\n        bool isExist;\n    }\n\n    struct Plot {\n        bytes32 division;\n        bytes32 district;\n        bytes32 thana;\n        uint16 JLNo;\n        uint16 plotNo;\n        uint8 plotType;\n        uint32 plotArea;\n        bool isExist;\n    }\n\n    mapping(address => User) public userMapping;\n    mapping(address => UserOwned) public userOwnedMapping;\n    mapping(bytes32 => Khatian) public khatianMapping;\n    mapping(bytes32 => Plot) public plotMapping;\n    bytes32[] public khatianArray;\n    bytes32[] public plotArray;\n    uint256 public userCount;\n\n    event CreationOfUser(address indexed userAddress, uint256 indexed userId);\n    event CreationOfKhatian(bytes32 indexed khatianHash);\n    event CreationOfPlot(bytes32 indexed plotHash);\n\n    modifier userExists() {\n        require(userMapping[msg.sender].isExist, \"User does not exist\");\n        _;\n    }\n\n    constructor() {\n        userCount = 0;\n    }\n\n    function createUser() public {\n        require(!userMapping[msg.sender].isExist, \"User already exists\");\n\n        User storage user = userMapping[msg.sender];\n        user.fullName = bytes32(0);\n        user.fatherName = bytes32(0);\n        user.motherName = bytes32(0);\n        user.district = bytes32(0);\n        user.thana = bytes32(0);\n        user.postCode = 0;\n        user.village = bytes32(0);\n        user.email = bytes32(0);\n        user.dob = 0;\n        user.totalTax = 0;\n        user.fingerprint = \"\";\n        user.isExist = true;\n\n        userCount++;\n        emit CreationOfUser(msg.sender, userCount);\n    }\n\n    function createKhatian(uint64 khatianiId, bytes32 plotHash) public {\n        require(!khatianMapping[plotHash].isExist, \"Khatian already exists\");\n\n        Khatian storage khatian = khatianMapping[plotHash];\n        khatian.khatianiId = khatianiId;\n        khatian.plotHash = plotHash;\n        khatian.percentOwn = 0;\n        khatian.buyFrom = bytes32(0);\n        khatian.isExist = true;\n\n        khatianArray.push(plotHash);\n        emit CreationOfKhatian(plotHash);\n    }\n\n    function createPlot(bytes32 plotHash, bytes32 division, bytes32 district, bytes32 thana, uint16 JLNo, uint16 plotNo, uint8 plotType, uint32 plotArea) public {\n        require(!plotMapping[plotHash].isExist, \"Plot already exists\");\n\n        Plot storage plot = plotMapping[plotHash];\n        plot.division = division;\n        plot.district = district;\n        plot.thana = thana;\n        plot.JLNo = JLNo;\n        plot.plotNo = plotNo;\n        plot.plotType = plotType;\n        plot.plotArea = plotArea;\n        plot.isExist = true;\n\n        plotArray.push(plotHash);\n        emit CreationOfPlot(plotHash);\n    }\n\n    function getUserByAddress(address _address) public view returns (User memory) {\n        require(userMapping[_address].isExist, \"User does not exist\");\n        return userMapping[_address];\n    }\n\n    function getUserOwnedByAddress(address _address) public view returns (UserOwned memory) {\n        require(userOwnedMapping[_address].number > 0, \"User does not own any khatian\");\n        return userOwnedMapping[_address];\n    }\n\n    function updateUserFullName(address _address, bytes32 fullName) public userExists {\n        userMapping[_address].fullName = fullName;\n    }\n\n    function updateUserFatherName(address _address, bytes32 fatherName) public userExists {\n        userMapping[_address].fatherName = fatherName;\n    }\n\n    function updateUserMotherName(address _address, bytes32 motherName) public userExists {\n        userMapping[_address].motherName = motherName;\n    }\n\n    function updateUserDistrict(address _address, bytes32 district) public userExists {\n        userMapping[_address].district = district;\n    }\n\n    function updateUserThana(address _address, bytes32 thana) public userExists {\n        userMapping[_address].thana = thana;\n    }\n\n    function updateUserPostCode(address _address, uint256 postCode) public userExists {\n        userMapping[_address].postCode = postCode;\n    }\n\n    function updateUserVillage(address _address, bytes32 village) public userExists {\n        userMapping[_address].village = village;\n    }\n\n    function updateUserEmail(address _address, bytes32 email) public userExists {\n        userMapping[_address].email = email;\n    }\n\n    function updateUserDOB(address _address, uint256 dob) public userExists {\n        userMapping[_address].dob = dob;\n    }\n\n    function updateUserTotalTax(address _address, uint256 totalTax) public userExists {\n        userMapping[_address].totalTax = totalTax;\n    }\n\n    function updateFingerprint(address _address, string memory fingerprint) public userExists {\n        userMapping[_address].fingerprint = fingerprint;\n    }\n\n    function getKhatianHashById(uint256 id) public view returns (bytes32) {\n        require(id > 0 && id <= khatianArray.length, \"Invalid Khatian ID\");\n        return khatianArray[id - 1];\n    }\n\n    function getPlotHashById(uint256 id) public view returns (bytes32) {\n        require(id > 0 && id <= plotArray.length, \"Invalid Plot ID\");\n        return plotArray[id - 1];\n    }\n\n    function getKhatianByHash(bytes32 khatianHash) public view returns (Khatian memory) {\n        require(khatianMapping[khatianHash].isExist, \"Khatian does not exist\");\n        return khatianMapping[khatianHash];\n    }\n\n    function getPlotByHash(bytes32 plotHash) public view returns (Plot memory) {\n        require(plotMapping[plotHash].isExist, \"Plot does not exist\");\n        return plotMapping[plotHash];\n    }\n\n    fallback() external payable {}\n\n    receive() external payable {}\n}\n",
  "sourcePath": "/home/shakil/Desktop/BLRM-Solidity/contracts/LandRecordFactory.sol",
  "compiler": {
    "name": "solc",
    "version": "0.8.20+commit.a1b79de6.Emscripten.clang"
  },
  "schemaVersion": "3.4.13",
  "updatedAt": "2023-06-16T09:55:48.392Z",
  "devdoc": {
    "kind": "dev",
    "methods": {},
    "version": 1
  },
  "userdoc": {
    "kind": "user",
    "methods": {},
    "version": 1
  }
}